{
	"contracts/WeightedVoting.sol": {
		"WeightedVoting": {
			"abi": [
				{
					"inputs": [
						{
							"internalType": "string",
							"name": "_name",
							"type": "string"
						},
						{
							"internalType": "string",
							"name": "_symbol",
							"type": "string"
						}
					],
					"stateMutability": "nonpayable",
					"type": "constructor"
				},
				{
					"inputs": [],
					"name": "AllTokensClaimed",
					"type": "error"
				},
				{
					"inputs": [],
					"name": "AlreadyVoted",
					"type": "error"
				},
				{
					"inputs": [],
					"name": "NoTokensHeld",
					"type": "error"
				},
				{
					"inputs": [
						{
							"internalType": "uint256",
							"name": "quorum",
							"type": "uint256"
						}
					],
					"name": "QuorumTooHigh",
					"type": "error"
				},
				{
					"inputs": [],
					"name": "TokensClaimed",
					"type": "error"
				},
				{
					"inputs": [],
					"name": "VotingClosed",
					"type": "error"
				},
				{
					"anonymous": false,
					"inputs": [
						{
							"indexed": true,
							"internalType": "address",
							"name": "owner",
							"type": "address"
						},
						{
							"indexed": true,
							"internalType": "address",
							"name": "spender",
							"type": "address"
						},
						{
							"indexed": false,
							"internalType": "uint256",
							"name": "value",
							"type": "uint256"
						}
					],
					"name": "Approval",
					"type": "event"
				},
				{
					"anonymous": false,
					"inputs": [
						{
							"indexed": true,
							"internalType": "address",
							"name": "from",
							"type": "address"
						},
						{
							"indexed": true,
							"internalType": "address",
							"name": "to",
							"type": "address"
						},
						{
							"indexed": false,
							"internalType": "uint256",
							"name": "value",
							"type": "uint256"
						}
					],
					"name": "Transfer",
					"type": "event"
				},
				{
					"inputs": [
						{
							"internalType": "address",
							"name": "owner",
							"type": "address"
						},
						{
							"internalType": "address",
							"name": "spender",
							"type": "address"
						}
					],
					"name": "allowance",
					"outputs": [
						{
							"internalType": "uint256",
							"name": "",
							"type": "uint256"
						}
					],
					"stateMutability": "view",
					"type": "function"
				},
				{
					"inputs": [
						{
							"internalType": "address",
							"name": "spender",
							"type": "address"
						},
						{
							"internalType": "uint256",
							"name": "amount",
							"type": "uint256"
						}
					],
					"name": "approve",
					"outputs": [
						{
							"internalType": "bool",
							"name": "",
							"type": "bool"
						}
					],
					"stateMutability": "nonpayable",
					"type": "function"
				},
				{
					"inputs": [
						{
							"internalType": "address",
							"name": "account",
							"type": "address"
						}
					],
					"name": "balanceOf",
					"outputs": [
						{
							"internalType": "uint256",
							"name": "",
							"type": "uint256"
						}
					],
					"stateMutability": "view",
					"type": "function"
				},
				{
					"inputs": [
						{
							"internalType": "address",
							"name": "",
							"type": "address"
						}
					],
					"name": "balances",
					"outputs": [
						{
							"internalType": "uint256",
							"name": "",
							"type": "uint256"
						}
					],
					"stateMutability": "view",
					"type": "function"
				},
				{
					"inputs": [],
					"name": "claim",
					"outputs": [],
					"stateMutability": "nonpayable",
					"type": "function"
				},
				{
					"inputs": [],
					"name": "claimAmount",
					"outputs": [
						{
							"internalType": "uint256",
							"name": "",
							"type": "uint256"
						}
					],
					"stateMutability": "view",
					"type": "function"
				},
				{
					"inputs": [],
					"name": "claimedAmount",
					"outputs": [
						{
							"internalType": "uint256",
							"name": "",
							"type": "uint256"
						}
					],
					"stateMutability": "view",
					"type": "function"
				},
				{
					"inputs": [
						{
							"internalType": "string",
							"name": "_issueDesc",
							"type": "string"
						},
						{
							"internalType": "uint256",
							"name": "_quorum",
							"type": "uint256"
						}
					],
					"name": "createIssue",
					"outputs": [
						{
							"internalType": "uint256",
							"name": "idx",
							"type": "uint256"
						}
					],
					"stateMutability": "nonpayable",
					"type": "function"
				},
				{
					"inputs": [],
					"name": "decimals",
					"outputs": [
						{
							"internalType": "uint8",
							"name": "",
							"type": "uint8"
						}
					],
					"stateMutability": "view",
					"type": "function"
				},
				{
					"inputs": [
						{
							"internalType": "address",
							"name": "spender",
							"type": "address"
						},
						{
							"internalType": "uint256",
							"name": "subtractedValue",
							"type": "uint256"
						}
					],
					"name": "decreaseAllowance",
					"outputs": [
						{
							"internalType": "bool",
							"name": "",
							"type": "bool"
						}
					],
					"stateMutability": "nonpayable",
					"type": "function"
				},
				{
					"inputs": [
						{
							"internalType": "uint256",
							"name": "_id",
							"type": "uint256"
						}
					],
					"name": "getIssue",
					"outputs": [
						{
							"components": [
								{
									"internalType": "address[]",
									"name": "voters",
									"type": "address[]"
								},
								{
									"internalType": "string",
									"name": "issueDesc",
									"type": "string"
								},
								{
									"internalType": "uint256",
									"name": "votesFor",
									"type": "uint256"
								},
								{
									"internalType": "uint256",
									"name": "votesAgainst",
									"type": "uint256"
								},
								{
									"internalType": "uint256",
									"name": "votesAbstain",
									"type": "uint256"
								},
								{
									"internalType": "uint256",
									"name": "totalVotes",
									"type": "uint256"
								},
								{
									"internalType": "uint256",
									"name": "quorum",
									"type": "uint256"
								},
								{
									"internalType": "bool",
									"name": "passed",
									"type": "bool"
								},
								{
									"internalType": "bool",
									"name": "closed",
									"type": "bool"
								}
							],
							"internalType": "struct WeightedVotingLibrary.IssueView",
							"name": "",
							"type": "tuple"
						}
					],
					"stateMutability": "view",
					"type": "function"
				},
				{
					"inputs": [
						{
							"internalType": "address",
							"name": "",
							"type": "address"
						}
					],
					"name": "hasClaimed",
					"outputs": [
						{
							"internalType": "bool",
							"name": "",
							"type": "bool"
						}
					],
					"stateMutability": "view",
					"type": "function"
				},
				{
					"inputs": [
						{
							"internalType": "address",
							"name": "spender",
							"type": "address"
						},
						{
							"internalType": "uint256",
							"name": "addedValue",
							"type": "uint256"
						}
					],
					"name": "increaseAllowance",
					"outputs": [
						{
							"internalType": "bool",
							"name": "",
							"type": "bool"
						}
					],
					"stateMutability": "nonpayable",
					"type": "function"
				},
				{
					"inputs": [],
					"name": "maxSupply",
					"outputs": [
						{
							"internalType": "uint256",
							"name": "",
							"type": "uint256"
						}
					],
					"stateMutability": "view",
					"type": "function"
				},
				{
					"inputs": [],
					"name": "name",
					"outputs": [
						{
							"internalType": "string",
							"name": "",
							"type": "string"
						}
					],
					"stateMutability": "view",
					"type": "function"
				},
				{
					"inputs": [],
					"name": "symbol",
					"outputs": [
						{
							"internalType": "string",
							"name": "",
							"type": "string"
						}
					],
					"stateMutability": "view",
					"type": "function"
				},
				{
					"inputs": [],
					"name": "totalSupply",
					"outputs": [
						{
							"internalType": "uint256",
							"name": "",
							"type": "uint256"
						}
					],
					"stateMutability": "view",
					"type": "function"
				},
				{
					"inputs": [
						{
							"internalType": "address",
							"name": "to",
							"type": "address"
						},
						{
							"internalType": "uint256",
							"name": "amount",
							"type": "uint256"
						}
					],
					"name": "transfer",
					"outputs": [
						{
							"internalType": "bool",
							"name": "",
							"type": "bool"
						}
					],
					"stateMutability": "nonpayable",
					"type": "function"
				},
				{
					"inputs": [
						{
							"internalType": "address",
							"name": "from",
							"type": "address"
						},
						{
							"internalType": "address",
							"name": "to",
							"type": "address"
						},
						{
							"internalType": "uint256",
							"name": "amount",
							"type": "uint256"
						}
					],
					"name": "transferFrom",
					"outputs": [
						{
							"internalType": "bool",
							"name": "",
							"type": "bool"
						}
					],
					"stateMutability": "nonpayable",
					"type": "function"
				},
				{
					"inputs": [
						{
							"internalType": "uint256",
							"name": "_issueId",
							"type": "uint256"
						},
						{
							"internalType": "enum WeightedVotingLibrary.Votes",
							"name": "_vote",
							"type": "uint8"
						}
					],
					"name": "vote",
					"outputs": [],
					"stateMutability": "nonpayable",
					"type": "function"
				}
			],
			"devdoc": {
				"events": {
					"Approval(address,address,uint256)": {
						"details": "Emitted when the allowance of a `spender` for an `owner` is set by a call to {approve}. `value` is the new allowance."
					},
					"Transfer(address,address,uint256)": {
						"details": "Emitted when `value` tokens are moved from one account (`from`) to another (`to`). Note that `value` may be zero."
					}
				},
				"kind": "dev",
				"methods": {
					"allowance(address,address)": {
						"details": "See {IERC20-allowance}."
					},
					"approve(address,uint256)": {
						"details": "See {IERC20-approve}. NOTE: If `amount` is the maximum `uint256`, the allowance is not updated on `transferFrom`. This is semantically equivalent to an infinite approval. Requirements: - `spender` cannot be the zero address."
					},
					"balanceOf(address)": {
						"details": "See {IERC20-balanceOf}."
					},
					"decimals()": {
						"details": "Returns the number of decimals used to get its user representation. For example, if `decimals` equals `2`, a balance of `505` tokens should be displayed to a user as `5.05` (`505 / 10 ** 2`). Tokens usually opt for a value of 18, imitating the relationship between Ether and Wei. This is the value {ERC20} uses, unless this function is overridden; NOTE: This information is only used for _display_ purposes: it in no way affects any of the arithmetic of the contract, including {IERC20-balanceOf} and {IERC20-transfer}."
					},
					"decreaseAllowance(address,uint256)": {
						"details": "Atomically decreases the allowance granted to `spender` by the caller. This is an alternative to {approve} that can be used as a mitigation for problems described in {IERC20-approve}. Emits an {Approval} event indicating the updated allowance. Requirements: - `spender` cannot be the zero address. - `spender` must have allowance for the caller of at least `subtractedValue`."
					},
					"increaseAllowance(address,uint256)": {
						"details": "Atomically increases the allowance granted to `spender` by the caller. This is an alternative to {approve} that can be used as a mitigation for problems described in {IERC20-approve}. Emits an {Approval} event indicating the updated allowance. Requirements: - `spender` cannot be the zero address."
					},
					"name()": {
						"details": "Returns the name of the token."
					},
					"symbol()": {
						"details": "Returns the symbol of the token, usually a shorter version of the name."
					},
					"totalSupply()": {
						"details": "See {IERC20-totalSupply}."
					},
					"transfer(address,uint256)": {
						"details": "See {IERC20-transfer}. Requirements: - `to` cannot be the zero address. - the caller must have a balance of at least `amount`."
					},
					"transferFrom(address,address,uint256)": {
						"details": "See {IERC20-transferFrom}. Emits an {Approval} event indicating the updated allowance. This is not required by the EIP. See the note at the beginning of {ERC20}. NOTE: Does not update the allowance if the current allowance is the maximum `uint256`. Requirements: - `from` and `to` cannot be the zero address. - `from` must have a balance of at least `amount`. - the caller must have allowance for ``from``'s tokens of at least `amount`."
					}
				},
				"version": 1
			},
			"evm": {
				"assembly": "    /* \"contracts/WeightedVoting.sol\":1186:5406  contract WeightedVoting is ERC20 {... */\n  mstore(0x40, 0x80)\n    /* \"contracts/WeightedVoting.sol\":2037:2225  constructor(... */\n  callvalue\n  dup1\n  iszero\n  tag_1\n  jumpi\n  0x00\n  dup1\n  revert\ntag_1:\n  pop\n  mload(0x40)\n  sub(codesize, bytecodeSize)\n  dup1\n  bytecodeSize\n  dup4\n  codecopy\n  dup2\n  dup2\n  add\n  0x40\n  mstore\n  dup2\n  add\n  swap1\n  tag_2\n  swap2\n  swap1\n  tag_3\n  jump\t// in\ntag_2:\n    /* \"contracts/WeightedVoting.sol\":2121:2126  _name */\n  dup2\n    /* \"contracts/WeightedVoting.sol\":2128:2135  _symbol */\n  dup2\n    /* \"https://github.com/OpenZeppelin/openzeppelin-contracts/blob/v4.8.0/contracts/token/ERC20/ERC20.sol\":2050:2055  name_ */\n  dup2\n    /* \"https://github.com/OpenZeppelin/openzeppelin-contracts/blob/v4.8.0/contracts/token/ERC20/ERC20.sol\":2042:2047  _name */\n  0x03\n    /* \"https://github.com/OpenZeppelin/openzeppelin-contracts/blob/v4.8.0/contracts/token/ERC20/ERC20.sol\":2042:2055  _name = name_ */\n  swap1\n  dup2\n  tag_7\n  swap2\n  swap1\n  tag_8\n  jump\t// in\ntag_7:\n  pop\n    /* \"https://github.com/OpenZeppelin/openzeppelin-contracts/blob/v4.8.0/contracts/token/ERC20/ERC20.sol\":2075:2082  symbol_ */\n  dup1\n    /* \"https://github.com/OpenZeppelin/openzeppelin-contracts/blob/v4.8.0/contracts/token/ERC20/ERC20.sol\":2065:2072  _symbol */\n  0x04\n    /* \"https://github.com/OpenZeppelin/openzeppelin-contracts/blob/v4.8.0/contracts/token/ERC20/ERC20.sol\":2065:2082  _symbol = symbol_ */\n  swap1\n  dup2\n  tag_9\n  swap2\n  swap1\n  tag_8\n  jump\t// in\ntag_9:\n  pop\n    /* \"https://github.com/OpenZeppelin/openzeppelin-contracts/blob/v4.8.0/contracts/token/ERC20/ERC20.sol\":1976:2089  constructor(string memory name_, string memory symbol_) {... */\n  pop\n  pop\n    /* \"contracts/WeightedVoting.sol\":2159:2168  1_000_000 */\n  0x0f4240\n    /* \"contracts/WeightedVoting.sol\":2147:2156  maxSupply */\n  0x05\n    /* \"contracts/WeightedVoting.sol\":2147:2168  maxSupply = 1_000_000 */\n  dup2\n  swap1\n  sstore\n  pop\n    /* \"contracts/WeightedVoting.sol\":2192:2195  100 */\n  0x64\n    /* \"contracts/WeightedVoting.sol\":2178:2189  claimAmount */\n  0x06\n    /* \"contracts/WeightedVoting.sol\":2178:2195  claimAmount = 100 */\n  dup2\n  swap1\n  sstore\n  pop\n    /* \"contracts/WeightedVoting.sol\":2205:2211  issues */\n  0x0a\n    /* \"contracts/WeightedVoting.sol\":2205:2218  issues.push() */\n  0x01\n  dup2\n  0x01\n  dup2\n  sload\n  add\n  dup1\n  dup3\n  sstore\n  dup1\n  swap2\n  pop\n  pop\n  sub\n  swap1\n  0x00\n  mstore\n  keccak256(0x00, 0x20)\n  swap1\n  pop\n  pop\n    /* \"contracts/WeightedVoting.sol\":2037:2225  constructor(... */\n  pop\n  pop\n    /* \"contracts/WeightedVoting.sol\":1186:5406  contract WeightedVoting is ERC20 {... */\n  jump(tag_12)\n    /* \"#utility.yul\":7:82   */\ntag_13:\n    /* \"#utility.yul\":40:46   */\n  0x00\n    /* \"#utility.yul\":73:75   */\n  0x40\n    /* \"#utility.yul\":67:76   */\n  mload\n    /* \"#utility.yul\":57:76   */\n  swap1\n  pop\n    /* \"#utility.yul\":7:82   */\n  swap1\n  jump\t// out\n    /* \"#utility.yul\":88:205   */\ntag_14:\n    /* \"#utility.yul\":197:198   */\n  0x00\n    /* \"#utility.yul\":194:195   */\n  dup1\n    /* \"#utility.yul\":187:199   */\n  revert\n    /* \"#utility.yul\":211:328   */\ntag_15:\n    /* \"#utility.yul\":320:321   */\n  0x00\n    /* \"#utility.yul\":317:318   */\n  dup1\n    /* \"#utility.yul\":310:322   */\n  revert\n    /* \"#utility.yul\":334:451   */\ntag_16:\n    /* \"#utility.yul\":443:444   */\n  0x00\n    /* \"#utility.yul\":440:441   */\n  dup1\n    /* \"#utility.yul\":433:445   */\n  revert\n    /* \"#utility.yul\":457:574   */\ntag_17:\n    /* \"#utility.yul\":566:567   */\n  0x00\n    /* \"#utility.yul\":563:564   */\n  dup1\n    /* \"#utility.yul\":556:568   */\n  revert\n    /* \"#utility.yul\":580:682   */\ntag_18:\n    /* \"#utility.yul\":621:627   */\n  0x00\n    /* \"#utility.yul\":672:674   */\n  0x1f\n    /* \"#utility.yul\":668:675   */\n  not\n    /* \"#utility.yul\":663:665   */\n  0x1f\n    /* \"#utility.yul\":656:661   */\n  dup4\n    /* \"#utility.yul\":652:666   */\n  add\n    /* \"#utility.yul\":648:676   */\n  and\n    /* \"#utility.yul\":638:676   */\n  swap1\n  pop\n    /* \"#utility.yul\":580:682   */\n  swap2\n  swap1\n  pop\n  jump\t// out\n    /* \"#utility.yul\":688:868   */\ntag_19:\n    /* \"#utility.yul\":736:813   */\n  0x4e487b7100000000000000000000000000000000000000000000000000000000\n    /* \"#utility.yul\":733:734   */\n  0x00\n    /* \"#utility.yul\":726:814   */\n  mstore\n    /* \"#utility.yul\":833:837   */\n  0x41\n    /* \"#utility.yul\":830:831   */\n  0x04\n    /* \"#utility.yul\":823:838   */\n  mstore\n    /* \"#utility.yul\":857:861   */\n  0x24\n    /* \"#utility.yul\":854:855   */\n  0x00\n    /* \"#utility.yul\":847:862   */\n  revert\n    /* \"#utility.yul\":874:1155   */\ntag_20:\n    /* \"#utility.yul\":957:984   */\n  tag_54\n    /* \"#utility.yul\":979:983   */\n  dup3\n    /* \"#utility.yul\":957:984   */\n  tag_18\n  jump\t// in\ntag_54:\n    /* \"#utility.yul\":949:955   */\n  dup2\n    /* \"#utility.yul\":945:985   */\n  add\n    /* \"#utility.yul\":1087:1093   */\n  dup2\n    /* \"#utility.yul\":1075:1085   */\n  dup2\n    /* \"#utility.yul\":1072:1094   */\n  lt\n    /* \"#utility.yul\":1051:1069   */\n  0xffffffffffffffff\n    /* \"#utility.yul\":1039:1049   */\n  dup3\n    /* \"#utility.yul\":1036:1070   */\n  gt\n    /* \"#utility.yul\":1033:1095   */\n  or\n    /* \"#utility.yul\":1030:1118   */\n  iszero\n  tag_55\n  jumpi\n    /* \"#utility.yul\":1098:1116   */\n  tag_56\n  tag_19\n  jump\t// in\ntag_56:\n    /* \"#utility.yul\":1030:1118   */\ntag_55:\n    /* \"#utility.yul\":1138:1148   */\n  dup1\n    /* \"#utility.yul\":1134:1136   */\n  0x40\n    /* \"#utility.yul\":1127:1149   */\n  mstore\n    /* \"#utility.yul\":917:1155   */\n  pop\n    /* \"#utility.yul\":874:1155   */\n  pop\n  pop\n  jump\t// out\n    /* \"#utility.yul\":1161:1290   */\ntag_21:\n    /* \"#utility.yul\":1195:1201   */\n  0x00\n    /* \"#utility.yul\":1222:1242   */\n  tag_58\n  tag_13\n  jump\t// in\ntag_58:\n    /* \"#utility.yul\":1212:1242   */\n  swap1\n  pop\n    /* \"#utility.yul\":1251:1284   */\n  tag_59\n    /* \"#utility.yul\":1279:1283   */\n  dup3\n    /* \"#utility.yul\":1271:1277   */\n  dup3\n    /* \"#utility.yul\":1251:1284   */\n  tag_20\n  jump\t// in\ntag_59:\n    /* \"#utility.yul\":1161:1290   */\n  swap2\n  swap1\n  pop\n  jump\t// out\n    /* \"#utility.yul\":1296:1604   */\ntag_22:\n    /* \"#utility.yul\":1358:1362   */\n  0x00\n    /* \"#utility.yul\":1448:1466   */\n  0xffffffffffffffff\n    /* \"#utility.yul\":1440:1446   */\n  dup3\n    /* \"#utility.yul\":1437:1467   */\n  gt\n    /* \"#utility.yul\":1434:1490   */\n  iszero\n  tag_61\n  jumpi\n    /* \"#utility.yul\":1470:1488   */\n  tag_62\n  tag_19\n  jump\t// in\ntag_62:\n    /* \"#utility.yul\":1434:1490   */\ntag_61:\n    /* \"#utility.yul\":1508:1537   */\n  tag_63\n    /* \"#utility.yul\":1530:1536   */\n  dup3\n    /* \"#utility.yul\":1508:1537   */\n  tag_18\n  jump\t// in\ntag_63:\n    /* \"#utility.yul\":1500:1537   */\n  swap1\n  pop\n    /* \"#utility.yul\":1592:1596   */\n  0x20\n    /* \"#utility.yul\":1586:1590   */\n  dup2\n    /* \"#utility.yul\":1582:1597   */\n  add\n    /* \"#utility.yul\":1574:1597   */\n  swap1\n  pop\n    /* \"#utility.yul\":1296:1604   */\n  swap2\n  swap1\n  pop\n  jump\t// out\n    /* \"#utility.yul\":1610:1856   */\ntag_23:\n    /* \"#utility.yul\":1691:1692   */\n  0x00\n    /* \"#utility.yul\":1701:1814   */\ntag_65:\n    /* \"#utility.yul\":1715:1721   */\n  dup4\n    /* \"#utility.yul\":1712:1713   */\n  dup2\n    /* \"#utility.yul\":1709:1722   */\n  lt\n    /* \"#utility.yul\":1701:1814   */\n  iszero\n  tag_67\n  jumpi\n    /* \"#utility.yul\":1800:1801   */\n  dup1\n    /* \"#utility.yul\":1795:1798   */\n  dup3\n    /* \"#utility.yul\":1791:1802   */\n  add\n    /* \"#utility.yul\":1785:1803   */\n  mload\n    /* \"#utility.yul\":1781:1782   */\n  dup2\n    /* \"#utility.yul\":1776:1779   */\n  dup5\n    /* \"#utility.yul\":1772:1783   */\n  add\n    /* \"#utility.yul\":1765:1804   */\n  mstore\n    /* \"#utility.yul\":1737:1739   */\n  0x20\n    /* \"#utility.yul\":1734:1735   */\n  dup2\n    /* \"#utility.yul\":1730:1740   */\n  add\n    /* \"#utility.yul\":1725:1740   */\n  swap1\n  pop\n    /* \"#utility.yul\":1701:1814   */\n  jump(tag_65)\ntag_67:\n    /* \"#utility.yul\":1848:1849   */\n  0x00\n    /* \"#utility.yul\":1839:1845   */\n  dup5\n    /* \"#utility.yul\":1834:1837   */\n  dup5\n    /* \"#utility.yul\":1830:1846   */\n  add\n    /* \"#utility.yul\":1823:1850   */\n  mstore\n    /* \"#utility.yul\":1672:1856   */\n  pop\n    /* \"#utility.yul\":1610:1856   */\n  pop\n  pop\n  pop\n  jump\t// out\n    /* \"#utility.yul\":1862:2296   */\ntag_24:\n    /* \"#utility.yul\":1951:1956   */\n  0x00\n    /* \"#utility.yul\":1976:2042   */\n  tag_69\n    /* \"#utility.yul\":1992:2041   */\n  tag_70\n    /* \"#utility.yul\":2034:2040   */\n  dup5\n    /* \"#utility.yul\":1992:2041   */\n  tag_22\n  jump\t// in\ntag_70:\n    /* \"#utility.yul\":1976:2042   */\n  tag_21\n  jump\t// in\ntag_69:\n    /* \"#utility.yul\":1967:2042   */\n  swap1\n  pop\n    /* \"#utility.yul\":2065:2071   */\n  dup3\n    /* \"#utility.yul\":2058:2063   */\n  dup2\n    /* \"#utility.yul\":2051:2072   */\n  mstore\n    /* \"#utility.yul\":2103:2107   */\n  0x20\n    /* \"#utility.yul\":2096:2101   */\n  dup2\n    /* \"#utility.yul\":2092:2108   */\n  add\n    /* \"#utility.yul\":2141:2144   */\n  dup5\n    /* \"#utility.yul\":2132:2138   */\n  dup5\n    /* \"#utility.yul\":2127:2130   */\n  dup5\n    /* \"#utility.yul\":2123:2139   */\n  add\n    /* \"#utility.yul\":2120:2145   */\n  gt\n    /* \"#utility.yul\":2117:2229   */\n  iszero\n  tag_71\n  jumpi\n    /* \"#utility.yul\":2148:2227   */\n  tag_72\n  tag_17\n  jump\t// in\ntag_72:\n    /* \"#utility.yul\":2117:2229   */\ntag_71:\n    /* \"#utility.yul\":2238:2290   */\n  tag_73\n    /* \"#utility.yul\":2283:2289   */\n  dup5\n    /* \"#utility.yul\":2278:2281   */\n  dup3\n    /* \"#utility.yul\":2273:2276   */\n  dup6\n    /* \"#utility.yul\":2238:2290   */\n  tag_23\n  jump\t// in\ntag_73:\n    /* \"#utility.yul\":1957:2296   */\n  pop\n    /* \"#utility.yul\":1862:2296   */\n  swap4\n  swap3\n  pop\n  pop\n  pop\n  jump\t// out\n    /* \"#utility.yul\":2316:2671   */\ntag_25:\n    /* \"#utility.yul\":2383:2388   */\n  0x00\n    /* \"#utility.yul\":2432:2435   */\n  dup3\n    /* \"#utility.yul\":2425:2429   */\n  0x1f\n    /* \"#utility.yul\":2417:2423   */\n  dup4\n    /* \"#utility.yul\":2413:2430   */\n  add\n    /* \"#utility.yul\":2409:2436   */\n  slt\n    /* \"#utility.yul\":2399:2521   */\n  tag_75\n  jumpi\n    /* \"#utility.yul\":2440:2519   */\n  tag_76\n  tag_16\n  jump\t// in\ntag_76:\n    /* \"#utility.yul\":2399:2521   */\ntag_75:\n    /* \"#utility.yul\":2550:2556   */\n  dup2\n    /* \"#utility.yul\":2544:2557   */\n  mload\n    /* \"#utility.yul\":2575:2665   */\n  tag_77\n    /* \"#utility.yul\":2661:2664   */\n  dup5\n    /* \"#utility.yul\":2653:2659   */\n  dup3\n    /* \"#utility.yul\":2646:2650   */\n  0x20\n    /* \"#utility.yul\":2638:2644   */\n  dup7\n    /* \"#utility.yul\":2634:2651   */\n  add\n    /* \"#utility.yul\":2575:2665   */\n  tag_24\n  jump\t// in\ntag_77:\n    /* \"#utility.yul\":2566:2665   */\n  swap2\n  pop\n    /* \"#utility.yul\":2389:2671   */\n  pop\n    /* \"#utility.yul\":2316:2671   */\n  swap3\n  swap2\n  pop\n  pop\n  jump\t// out\n    /* \"#utility.yul\":2677:3530   */\ntag_3:\n    /* \"#utility.yul\":2776:2782   */\n  0x00\n    /* \"#utility.yul\":2784:2790   */\n  dup1\n    /* \"#utility.yul\":2833:2835   */\n  0x40\n    /* \"#utility.yul\":2821:2830   */\n  dup4\n    /* \"#utility.yul\":2812:2819   */\n  dup6\n    /* \"#utility.yul\":2808:2831   */\n  sub\n    /* \"#utility.yul\":2804:2836   */\n  slt\n    /* \"#utility.yul\":2801:2920   */\n  iszero\n  tag_79\n  jumpi\n    /* \"#utility.yul\":2839:2918   */\n  tag_80\n  tag_14\n  jump\t// in\ntag_80:\n    /* \"#utility.yul\":2801:2920   */\ntag_79:\n    /* \"#utility.yul\":2980:2981   */\n  0x00\n    /* \"#utility.yul\":2969:2978   */\n  dup4\n    /* \"#utility.yul\":2965:2982   */\n  add\n    /* \"#utility.yul\":2959:2983   */\n  mload\n    /* \"#utility.yul\":3010:3028   */\n  0xffffffffffffffff\n    /* \"#utility.yul\":3002:3008   */\n  dup2\n    /* \"#utility.yul\":2999:3029   */\n  gt\n    /* \"#utility.yul\":2996:3113   */\n  iszero\n  tag_81\n  jumpi\n    /* \"#utility.yul\":3032:3111   */\n  tag_82\n  tag_15\n  jump\t// in\ntag_82:\n    /* \"#utility.yul\":2996:3113   */\ntag_81:\n    /* \"#utility.yul\":3137:3211   */\n  tag_83\n    /* \"#utility.yul\":3203:3210   */\n  dup6\n    /* \"#utility.yul\":3194:3200   */\n  dup3\n    /* \"#utility.yul\":3183:3192   */\n  dup7\n    /* \"#utility.yul\":3179:3201   */\n  add\n    /* \"#utility.yul\":3137:3211   */\n  tag_25\n  jump\t// in\ntag_83:\n    /* \"#utility.yul\":3127:3211   */\n  swap3\n  pop\n    /* \"#utility.yul\":2930:3221   */\n  pop\n    /* \"#utility.yul\":3281:3283   */\n  0x20\n    /* \"#utility.yul\":3270:3279   */\n  dup4\n    /* \"#utility.yul\":3266:3284   */\n  add\n    /* \"#utility.yul\":3260:3285   */\n  mload\n    /* \"#utility.yul\":3312:3330   */\n  0xffffffffffffffff\n    /* \"#utility.yul\":3304:3310   */\n  dup2\n    /* \"#utility.yul\":3301:3331   */\n  gt\n    /* \"#utility.yul\":3298:3415   */\n  iszero\n  tag_84\n  jumpi\n    /* \"#utility.yul\":3334:3413   */\n  tag_85\n  tag_15\n  jump\t// in\ntag_85:\n    /* \"#utility.yul\":3298:3415   */\ntag_84:\n    /* \"#utility.yul\":3439:3513   */\n  tag_86\n    /* \"#utility.yul\":3505:3512   */\n  dup6\n    /* \"#utility.yul\":3496:3502   */\n  dup3\n    /* \"#utility.yul\":3485:3494   */\n  dup7\n    /* \"#utility.yul\":3481:3503   */\n  add\n    /* \"#utility.yul\":3439:3513   */\n  tag_25\n  jump\t// in\ntag_86:\n    /* \"#utility.yul\":3429:3513   */\n  swap2\n  pop\n    /* \"#utility.yul\":3231:3523   */\n  pop\n    /* \"#utility.yul\":2677:3530   */\n  swap3\n  pop\n  swap3\n  swap1\n  pop\n  jump\t// out\n    /* \"#utility.yul\":3536:3635   */\ntag_26:\n    /* \"#utility.yul\":3588:3594   */\n  0x00\n    /* \"#utility.yul\":3622:3627   */\n  dup2\n    /* \"#utility.yul\":3616:3628   */\n  mload\n    /* \"#utility.yul\":3606:3628   */\n  swap1\n  pop\n    /* \"#utility.yul\":3536:3635   */\n  swap2\n  swap1\n  pop\n  jump\t// out\n    /* \"#utility.yul\":3641:3821   */\ntag_27:\n    /* \"#utility.yul\":3689:3766   */\n  0x4e487b7100000000000000000000000000000000000000000000000000000000\n    /* \"#utility.yul\":3686:3687   */\n  0x00\n    /* \"#utility.yul\":3679:3767   */\n  mstore\n    /* \"#utility.yul\":3786:3790   */\n  0x22\n    /* \"#utility.yul\":3783:3784   */\n  0x04\n    /* \"#utility.yul\":3776:3791   */\n  mstore\n    /* \"#utility.yul\":3810:3814   */\n  0x24\n    /* \"#utility.yul\":3807:3808   */\n  0x00\n    /* \"#utility.yul\":3800:3815   */\n  revert\n    /* \"#utility.yul\":3827:4147   */\ntag_28:\n    /* \"#utility.yul\":3871:3877   */\n  0x00\n    /* \"#utility.yul\":3908:3909   */\n  0x02\n    /* \"#utility.yul\":3902:3906   */\n  dup3\n    /* \"#utility.yul\":3898:3910   */\n  div\n    /* \"#utility.yul\":3888:3910   */\n  swap1\n  pop\n    /* \"#utility.yul\":3955:3956   */\n  0x01\n    /* \"#utility.yul\":3949:3953   */\n  dup3\n    /* \"#utility.yul\":3945:3957   */\n  and\n    /* \"#utility.yul\":3976:3994   */\n  dup1\n    /* \"#utility.yul\":3966:4047   */\n  tag_90\n  jumpi\n    /* \"#utility.yul\":4032:4036   */\n  0x7f\n    /* \"#utility.yul\":4024:4030   */\n  dup3\n    /* \"#utility.yul\":4020:4037   */\n  and\n    /* \"#utility.yul\":4010:4037   */\n  swap2\n  pop\n    /* \"#utility.yul\":3966:4047   */\ntag_90:\n    /* \"#utility.yul\":4094:4096   */\n  0x20\n    /* \"#utility.yul\":4086:4092   */\n  dup3\n    /* \"#utility.yul\":4083:4097   */\n  lt\n    /* \"#utility.yul\":4063:4081   */\n  dup2\n    /* \"#utility.yul\":4060:4098   */\n  sub\n    /* \"#utility.yul\":4057:4141   */\n  tag_91\n  jumpi\n    /* \"#utility.yul\":4113:4131   */\n  tag_92\n  tag_27\n  jump\t// in\ntag_92:\n    /* \"#utility.yul\":4057:4141   */\ntag_91:\n    /* \"#utility.yul\":3878:4147   */\n  pop\n    /* \"#utility.yul\":3827:4147   */\n  swap2\n  swap1\n  pop\n  jump\t// out\n    /* \"#utility.yul\":4153:4294   */\ntag_29:\n    /* \"#utility.yul\":4202:4206   */\n  0x00\n    /* \"#utility.yul\":4225:4228   */\n  dup2\n    /* \"#utility.yul\":4217:4228   */\n  swap1\n  pop\n    /* \"#utility.yul\":4248:4251   */\n  dup2\n    /* \"#utility.yul\":4245:4246   */\n  0x00\n    /* \"#utility.yul\":4238:4252   */\n  mstore\n    /* \"#utility.yul\":4282:4286   */\n  0x20\n    /* \"#utility.yul\":4279:4280   */\n  0x00\n    /* \"#utility.yul\":4269:4287   */\n  keccak256\n    /* \"#utility.yul\":4261:4287   */\n  swap1\n  pop\n    /* \"#utility.yul\":4153:4294   */\n  swap2\n  swap1\n  pop\n  jump\t// out\n    /* \"#utility.yul\":4300:4393   */\ntag_30:\n    /* \"#utility.yul\":4337:4343   */\n  0x00\n    /* \"#utility.yul\":4384:4386   */\n  0x20\n    /* \"#utility.yul\":4379:4381   */\n  0x1f\n    /* \"#utility.yul\":4372:4377   */\n  dup4\n    /* \"#utility.yul\":4368:4382   */\n  add\n    /* \"#utility.yul\":4364:4387   */\n  div\n    /* \"#utility.yul\":4354:4387   */\n  swap1\n  pop\n    /* \"#utility.yul\":4300:4393   */\n  swap2\n  swap1\n  pop\n  jump\t// out\n    /* \"#utility.yul\":4399:4506   */\ntag_31:\n    /* \"#utility.yul\":4443:4451   */\n  0x00\n    /* \"#utility.yul\":4493:4498   */\n  dup3\n    /* \"#utility.yul\":4487:4491   */\n  dup3\n    /* \"#utility.yul\":4483:4499   */\n  shl\n    /* \"#utility.yul\":4462:4499   */\n  swap1\n  pop\n    /* \"#utility.yul\":4399:4506   */\n  swap3\n  swap2\n  pop\n  pop\n  jump\t// out\n    /* \"#utility.yul\":4512:4905   */\ntag_32:\n    /* \"#utility.yul\":4581:4587   */\n  0x00\n    /* \"#utility.yul\":4631:4632   */\n  0x08\n    /* \"#utility.yul\":4619:4629   */\n  dup4\n    /* \"#utility.yul\":4615:4633   */\n  mul\n    /* \"#utility.yul\":4654:4751   */\n  tag_97\n    /* \"#utility.yul\":4684:4750   */\n  0xffffffffffffffffffffffffffffffffffffffffffffffffffffffffffffffff\n    /* \"#utility.yul\":4673:4682   */\n  dup3\n    /* \"#utility.yul\":4654:4751   */\n  tag_31\n  jump\t// in\ntag_97:\n    /* \"#utility.yul\":4772:4811   */\n  tag_98\n    /* \"#utility.yul\":4802:4810   */\n  dup7\n    /* \"#utility.yul\":4791:4800   */\n  dup4\n    /* \"#utility.yul\":4772:4811   */\n  tag_31\n  jump\t// in\ntag_98:\n    /* \"#utility.yul\":4760:4811   */\n  swap6\n  pop\n    /* \"#utility.yul\":4844:4848   */\n  dup1\n    /* \"#utility.yul\":4840:4849   */\n  not\n    /* \"#utility.yul\":4833:4838   */\n  dup5\n    /* \"#utility.yul\":4829:4850   */\n  and\n    /* \"#utility.yul\":4820:4850   */\n  swap4\n  pop\n    /* \"#utility.yul\":4893:4897   */\n  dup1\n    /* \"#utility.yul\":4883:4891   */\n  dup7\n    /* \"#utility.yul\":4879:4898   */\n  and\n    /* \"#utility.yul\":4872:4877   */\n  dup5\n    /* \"#utility.yul\":4869:4899   */\n  or\n    /* \"#utility.yul\":4859:4899   */\n  swap3\n  pop\n    /* \"#utility.yul\":4588:4905   */\n  pop\n  pop\n    /* \"#utility.yul\":4512:4905   */\n  swap4\n  swap3\n  pop\n  pop\n  pop\n  jump\t// out\n    /* \"#utility.yul\":4911:4988   */\ntag_33:\n    /* \"#utility.yul\":4948:4955   */\n  0x00\n    /* \"#utility.yul\":4977:4982   */\n  dup2\n    /* \"#utility.yul\":4966:4982   */\n  swap1\n  pop\n    /* \"#utility.yul\":4911:4988   */\n  swap2\n  swap1\n  pop\n  jump\t// out\n    /* \"#utility.yul\":4994:5054   */\ntag_34:\n    /* \"#utility.yul\":5022:5025   */\n  0x00\n    /* \"#utility.yul\":5043:5048   */\n  dup2\n    /* \"#utility.yul\":5036:5048   */\n  swap1\n  pop\n    /* \"#utility.yul\":4994:5054   */\n  swap2\n  swap1\n  pop\n  jump\t// out\n    /* \"#utility.yul\":5060:5202   */\ntag_35:\n    /* \"#utility.yul\":5110:5119   */\n  0x00\n    /* \"#utility.yul\":5143:5196   */\n  tag_102\n    /* \"#utility.yul\":5161:5195   */\n  tag_103\n    /* \"#utility.yul\":5170:5194   */\n  tag_104\n    /* \"#utility.yul\":5188:5193   */\n  dup5\n    /* \"#utility.yul\":5170:5194   */\n  tag_33\n  jump\t// in\ntag_104:\n    /* \"#utility.yul\":5161:5195   */\n  tag_34\n  jump\t// in\ntag_103:\n    /* \"#utility.yul\":5143:5196   */\n  tag_33\n  jump\t// in\ntag_102:\n    /* \"#utility.yul\":5130:5196   */\n  swap1\n  pop\n    /* \"#utility.yul\":5060:5202   */\n  swap2\n  swap1\n  pop\n  jump\t// out\n    /* \"#utility.yul\":5208:5283   */\ntag_36:\n    /* \"#utility.yul\":5251:5254   */\n  0x00\n    /* \"#utility.yul\":5272:5277   */\n  dup2\n    /* \"#utility.yul\":5265:5277   */\n  swap1\n  pop\n    /* \"#utility.yul\":5208:5283   */\n  swap2\n  swap1\n  pop\n  jump\t// out\n    /* \"#utility.yul\":5289:5558   */\ntag_37:\n    /* \"#utility.yul\":5399:5438   */\n  tag_107\n    /* \"#utility.yul\":5430:5437   */\n  dup4\n    /* \"#utility.yul\":5399:5438   */\n  tag_35\n  jump\t// in\ntag_107:\n    /* \"#utility.yul\":5460:5551   */\n  tag_108\n    /* \"#utility.yul\":5509:5550   */\n  tag_109\n    /* \"#utility.yul\":5533:5549   */\n  dup3\n    /* \"#utility.yul\":5509:5550   */\n  tag_36\n  jump\t// in\ntag_109:\n    /* \"#utility.yul\":5501:5507   */\n  dup5\n    /* \"#utility.yul\":5494:5498   */\n  dup5\n    /* \"#utility.yul\":5488:5499   */\n  sload\n    /* \"#utility.yul\":5460:5551   */\n  tag_32\n  jump\t// in\ntag_108:\n    /* \"#utility.yul\":5454:5458   */\n  dup3\n    /* \"#utility.yul\":5447:5552   */\n  sstore\n    /* \"#utility.yul\":5365:5558   */\n  pop\n    /* \"#utility.yul\":5289:5558   */\n  pop\n  pop\n  pop\n  jump\t// out\n    /* \"#utility.yul\":5564:5637   */\ntag_38:\n    /* \"#utility.yul\":5609:5612   */\n  0x00\n    /* \"#utility.yul\":5564:5637   */\n  swap1\n  jump\t// out\n    /* \"#utility.yul\":5643:5832   */\ntag_39:\n    /* \"#utility.yul\":5720:5752   */\n  tag_112\n  tag_38\n  jump\t// in\ntag_112:\n    /* \"#utility.yul\":5761:5826   */\n  tag_113\n    /* \"#utility.yul\":5819:5825   */\n  dup2\n    /* \"#utility.yul\":5811:5817   */\n  dup5\n    /* \"#utility.yul\":5805:5809   */\n  dup5\n    /* \"#utility.yul\":5761:5826   */\n  tag_37\n  jump\t// in\ntag_113:\n    /* \"#utility.yul\":5696:5832   */\n  pop\n    /* \"#utility.yul\":5643:5832   */\n  pop\n  pop\n  jump\t// out\n    /* \"#utility.yul\":5838:6024   */\ntag_40:\n    /* \"#utility.yul\":5898:6018   */\ntag_115:\n    /* \"#utility.yul\":5915:5918   */\n  dup2\n    /* \"#utility.yul\":5908:5913   */\n  dup2\n    /* \"#utility.yul\":5905:5919   */\n  lt\n    /* \"#utility.yul\":5898:6018   */\n  iszero\n  tag_117\n  jumpi\n    /* \"#utility.yul\":5969:6008   */\n  tag_118\n    /* \"#utility.yul\":6006:6007   */\n  0x00\n    /* \"#utility.yul\":5999:6004   */\n  dup3\n    /* \"#utility.yul\":5969:6008   */\n  tag_39\n  jump\t// in\ntag_118:\n    /* \"#utility.yul\":5942:5943   */\n  0x01\n    /* \"#utility.yul\":5935:5940   */\n  dup2\n    /* \"#utility.yul\":5931:5944   */\n  add\n    /* \"#utility.yul\":5922:5944   */\n  swap1\n  pop\n    /* \"#utility.yul\":5898:6018   */\n  jump(tag_115)\ntag_117:\n    /* \"#utility.yul\":5838:6024   */\n  pop\n  pop\n  jump\t// out\n    /* \"#utility.yul\":6030:6573   */\ntag_41:\n    /* \"#utility.yul\":6131:6133   */\n  0x1f\n    /* \"#utility.yul\":6126:6129   */\n  dup3\n    /* \"#utility.yul\":6123:6134   */\n  gt\n    /* \"#utility.yul\":6120:6566   */\n  iszero\n  tag_120\n  jumpi\n    /* \"#utility.yul\":6165:6203   */\n  tag_121\n    /* \"#utility.yul\":6197:6202   */\n  dup2\n    /* \"#utility.yul\":6165:6203   */\n  tag_29\n  jump\t// in\ntag_121:\n    /* \"#utility.yul\":6249:6278   */\n  tag_122\n    /* \"#utility.yul\":6267:6277   */\n  dup5\n    /* \"#utility.yul\":6249:6278   */\n  tag_30\n  jump\t// in\ntag_122:\n    /* \"#utility.yul\":6239:6247   */\n  dup2\n    /* \"#utility.yul\":6235:6279   */\n  add\n    /* \"#utility.yul\":6432:6434   */\n  0x20\n    /* \"#utility.yul\":6420:6430   */\n  dup6\n    /* \"#utility.yul\":6417:6435   */\n  lt\n    /* \"#utility.yul\":6414:6463   */\n  iszero\n  tag_123\n  jumpi\n    /* \"#utility.yul\":6453:6461   */\n  dup2\n    /* \"#utility.yul\":6438:6461   */\n  swap1\n  pop\n    /* \"#utility.yul\":6414:6463   */\ntag_123:\n    /* \"#utility.yul\":6476:6556   */\n  tag_124\n    /* \"#utility.yul\":6532:6554   */\n  tag_125\n    /* \"#utility.yul\":6550:6553   */\n  dup6\n    /* \"#utility.yul\":6532:6554   */\n  tag_30\n  jump\t// in\ntag_125:\n    /* \"#utility.yul\":6522:6530   */\n  dup4\n    /* \"#utility.yul\":6518:6555   */\n  add\n    /* \"#utility.yul\":6505:6516   */\n  dup3\n    /* \"#utility.yul\":6476:6556   */\n  tag_40\n  jump\t// in\ntag_124:\n    /* \"#utility.yul\":6135:6566   */\n  pop\n  pop\n    /* \"#utility.yul\":6120:6566   */\ntag_120:\n    /* \"#utility.yul\":6030:6573   */\n  pop\n  pop\n  pop\n  jump\t// out\n    /* \"#utility.yul\":6579:6696   */\ntag_42:\n    /* \"#utility.yul\":6633:6641   */\n  0x00\n    /* \"#utility.yul\":6683:6688   */\n  dup3\n    /* \"#utility.yul\":6677:6681   */\n  dup3\n    /* \"#utility.yul\":6673:6689   */\n  shr\n    /* \"#utility.yul\":6652:6689   */\n  swap1\n  pop\n    /* \"#utility.yul\":6579:6696   */\n  swap3\n  swap2\n  pop\n  pop\n  jump\t// out\n    /* \"#utility.yul\":6702:6871   */\ntag_43:\n    /* \"#utility.yul\":6746:6752   */\n  0x00\n    /* \"#utility.yul\":6779:6830   */\n  tag_128\n    /* \"#utility.yul\":6827:6828   */\n  0x00\n    /* \"#utility.yul\":6823:6829   */\n  not\n    /* \"#utility.yul\":6815:6820   */\n  dup5\n    /* \"#utility.yul\":6812:6813   */\n  0x08\n    /* \"#utility.yul\":6808:6821   */\n  mul\n    /* \"#utility.yul\":6779:6830   */\n  tag_42\n  jump\t// in\ntag_128:\n    /* \"#utility.yul\":6775:6831   */\n  not\n    /* \"#utility.yul\":6860:6864   */\n  dup1\n    /* \"#utility.yul\":6854:6858   */\n  dup4\n    /* \"#utility.yul\":6850:6865   */\n  and\n    /* \"#utility.yul\":6840:6865   */\n  swap2\n  pop\n    /* \"#utility.yul\":6753:6871   */\n  pop\n    /* \"#utility.yul\":6702:6871   */\n  swap3\n  swap2\n  pop\n  pop\n  jump\t// out\n    /* \"#utility.yul\":6876:7171   */\ntag_44:\n    /* \"#utility.yul\":6952:6956   */\n  0x00\n    /* \"#utility.yul\":7098:7127   */\n  tag_130\n    /* \"#utility.yul\":7123:7126   */\n  dup4\n    /* \"#utility.yul\":7117:7121   */\n  dup4\n    /* \"#utility.yul\":7098:7127   */\n  tag_43\n  jump\t// in\ntag_130:\n    /* \"#utility.yul\":7090:7127   */\n  swap2\n  pop\n    /* \"#utility.yul\":7160:7163   */\n  dup3\n    /* \"#utility.yul\":7157:7158   */\n  0x02\n    /* \"#utility.yul\":7153:7164   */\n  mul\n    /* \"#utility.yul\":7147:7151   */\n  dup3\n    /* \"#utility.yul\":7144:7165   */\n  or\n    /* \"#utility.yul\":7136:7165   */\n  swap1\n  pop\n    /* \"#utility.yul\":6876:7171   */\n  swap3\n  swap2\n  pop\n  pop\n  jump\t// out\n    /* \"#utility.yul\":7176:8571   */\ntag_8:\n    /* \"#utility.yul\":7293:7330   */\n  tag_132\n    /* \"#utility.yul\":7326:7329   */\n  dup3\n    /* \"#utility.yul\":7293:7330   */\n  tag_26\n  jump\t// in\ntag_132:\n    /* \"#utility.yul\":7395:7413   */\n  0xffffffffffffffff\n    /* \"#utility.yul\":7387:7393   */\n  dup2\n    /* \"#utility.yul\":7384:7414   */\n  gt\n    /* \"#utility.yul\":7381:7437   */\n  iszero\n  tag_133\n  jumpi\n    /* \"#utility.yul\":7417:7435   */\n  tag_134\n  tag_19\n  jump\t// in\ntag_134:\n    /* \"#utility.yul\":7381:7437   */\ntag_133:\n    /* \"#utility.yul\":7461:7499   */\n  tag_135\n    /* \"#utility.yul\":7493:7497   */\n  dup3\n    /* \"#utility.yul\":7487:7498   */\n  sload\n    /* \"#utility.yul\":7461:7499   */\n  tag_28\n  jump\t// in\ntag_135:\n    /* \"#utility.yul\":7546:7613   */\n  tag_136\n    /* \"#utility.yul\":7606:7612   */\n  dup3\n    /* \"#utility.yul\":7598:7604   */\n  dup3\n    /* \"#utility.yul\":7592:7596   */\n  dup6\n    /* \"#utility.yul\":7546:7613   */\n  tag_41\n  jump\t// in\ntag_136:\n    /* \"#utility.yul\":7640:7641   */\n  0x00\n    /* \"#utility.yul\":7664:7668   */\n  0x20\n    /* \"#utility.yul\":7651:7668   */\n  swap1\n  pop\n    /* \"#utility.yul\":7696:7698   */\n  0x1f\n    /* \"#utility.yul\":7688:7694   */\n  dup4\n    /* \"#utility.yul\":7685:7699   */\n  gt\n    /* \"#utility.yul\":7713:7714   */\n  0x01\n    /* \"#utility.yul\":7708:8326   */\n  dup2\n  eq\n  tag_138\n  jumpi\n    /* \"#utility.yul\":8370:8371   */\n  0x00\n    /* \"#utility.yul\":8387:8393   */\n  dup5\n    /* \"#utility.yul\":8384:8461   */\n  iszero\n  tag_139\n  jumpi\n    /* \"#utility.yul\":8436:8445   */\n  dup3\n    /* \"#utility.yul\":8431:8434   */\n  dup8\n    /* \"#utility.yul\":8427:8446   */\n  add\n    /* \"#utility.yul\":8421:8447   */\n  mload\n    /* \"#utility.yul\":8412:8447   */\n  swap1\n  pop\n    /* \"#utility.yul\":8384:8461   */\ntag_139:\n    /* \"#utility.yul\":8487:8554   */\n  tag_140\n    /* \"#utility.yul\":8547:8553   */\n  dup6\n    /* \"#utility.yul\":8540:8545   */\n  dup3\n    /* \"#utility.yul\":8487:8554   */\n  tag_44\n  jump\t// in\ntag_140:\n    /* \"#utility.yul\":8481:8485   */\n  dup7\n    /* \"#utility.yul\":8474:8555   */\n  sstore\n    /* \"#utility.yul\":8343:8565   */\n  pop\n    /* \"#utility.yul\":7678:8565   */\n  jump(tag_137)\n    /* \"#utility.yul\":7708:8326   */\ntag_138:\n    /* \"#utility.yul\":7760:7764   */\n  0x1f\n    /* \"#utility.yul\":7756:7765   */\n  not\n    /* \"#utility.yul\":7748:7754   */\n  dup5\n    /* \"#utility.yul\":7744:7766   */\n  and\n    /* \"#utility.yul\":7794:7831   */\n  tag_141\n    /* \"#utility.yul\":7826:7830   */\n  dup7\n    /* \"#utility.yul\":7794:7831   */\n  tag_29\n  jump\t// in\ntag_141:\n    /* \"#utility.yul\":7853:7854   */\n  0x00\n    /* \"#utility.yul\":7867:8075   */\ntag_142:\n    /* \"#utility.yul\":7881:7888   */\n  dup3\n    /* \"#utility.yul\":7878:7879   */\n  dup2\n    /* \"#utility.yul\":7875:7889   */\n  lt\n    /* \"#utility.yul\":7867:8075   */\n  iszero\n  tag_144\n  jumpi\n    /* \"#utility.yul\":7960:7969   */\n  dup5\n    /* \"#utility.yul\":7955:7958   */\n  dup10\n    /* \"#utility.yul\":7951:7970   */\n  add\n    /* \"#utility.yul\":7945:7971   */\n  mload\n    /* \"#utility.yul\":7937:7943   */\n  dup3\n    /* \"#utility.yul\":7930:7972   */\n  sstore\n    /* \"#utility.yul\":8011:8012   */\n  0x01\n    /* \"#utility.yul\":8003:8009   */\n  dup3\n    /* \"#utility.yul\":7999:8013   */\n  add\n    /* \"#utility.yul\":7989:8013   */\n  swap2\n  pop\n    /* \"#utility.yul\":8058:8060   */\n  0x20\n    /* \"#utility.yul\":8047:8056   */\n  dup6\n    /* \"#utility.yul\":8043:8061   */\n  add\n    /* \"#utility.yul\":8030:8061   */\n  swap5\n  pop\n    /* \"#utility.yul\":7904:7908   */\n  0x20\n    /* \"#utility.yul\":7901:7902   */\n  dup2\n    /* \"#utility.yul\":7897:7909   */\n  add\n    /* \"#utility.yul\":7892:7909   */\n  swap1\n  pop\n    /* \"#utility.yul\":7867:8075   */\n  jump(tag_142)\ntag_144:\n    /* \"#utility.yul\":8103:8109   */\n  dup7\n    /* \"#utility.yul\":8094:8101   */\n  dup4\n    /* \"#utility.yul\":8091:8110   */\n  lt\n    /* \"#utility.yul\":8088:8267   */\n  iszero\n  tag_145\n  jumpi\n    /* \"#utility.yul\":8161:8170   */\n  dup5\n    /* \"#utility.yul\":8156:8159   */\n  dup10\n    /* \"#utility.yul\":8152:8171   */\n  add\n    /* \"#utility.yul\":8146:8172   */\n  mload\n    /* \"#utility.yul\":8204:8252   */\n  tag_146\n    /* \"#utility.yul\":8246:8250   */\n  0x1f\n    /* \"#utility.yul\":8238:8244   */\n  dup10\n    /* \"#utility.yul\":8234:8251   */\n  and\n    /* \"#utility.yul\":8223:8232   */\n  dup3\n    /* \"#utility.yul\":8204:8252   */\n  tag_43\n  jump\t// in\ntag_146:\n    /* \"#utility.yul\":8196:8202   */\n  dup4\n    /* \"#utility.yul\":8189:8253   */\n  sstore\n    /* \"#utility.yul\":8111:8267   */\n  pop\n    /* \"#utility.yul\":8088:8267   */\ntag_145:\n    /* \"#utility.yul\":8313:8314   */\n  0x01\n    /* \"#utility.yul\":8309:8310   */\n  0x02\n    /* \"#utility.yul\":8301:8307   */\n  dup9\n    /* \"#utility.yul\":8297:8311   */\n  mul\n    /* \"#utility.yul\":8293:8315   */\n  add\n    /* \"#utility.yul\":8287:8291   */\n  dup9\n    /* \"#utility.yul\":8280:8316   */\n  sstore\n    /* \"#utility.yul\":7715:8326   */\n  pop\n  pop\n  pop\n    /* \"#utility.yul\":7678:8565   */\ntag_137:\n  pop\n    /* \"#utility.yul\":7268:8571   */\n  pop\n  pop\n  pop\n    /* \"#utility.yul\":7176:8571   */\n  pop\n  pop\n  jump\t// out\n    /* \"contracts/WeightedVoting.sol\":1186:5406  contract WeightedVoting is ERC20 {... */\ntag_12:\n  dataSize(sub_0)\n  dup1\n  dataOffset(sub_0)\n  0x00\n  codecopy\n  0x00\n  return\nstop\n\nsub_0: assembly {\n        /* \"contracts/WeightedVoting.sol\":1186:5406  contract WeightedVoting is ERC20 {... */\n      mstore(0x40, 0x80)\n      callvalue\n      dup1\n      iszero\n      tag_1\n      jumpi\n      0x00\n      dup1\n      revert\n    tag_1:\n      pop\n      jumpi(tag_2, lt(calldatasize, 0x04))\n      shr(0xe0, calldataload(0x00))\n      dup1\n      0x830953ab\n      gt\n      tag_23\n      jumpi\n      dup1\n      0x976b3113\n      gt\n      tag_24\n      jumpi\n      dup1\n      0x976b3113\n      eq\n      tag_18\n      jumpi\n      dup1\n      0xa457c2d7\n      eq\n      tag_19\n      jumpi\n      dup1\n      0xa9059cbb\n      eq\n      tag_20\n      jumpi\n      dup1\n      0xd5abeb01\n      eq\n      tag_21\n      jumpi\n      dup1\n      0xdd62ed3e\n      eq\n      tag_22\n      jumpi\n      jump(tag_2)\n    tag_24:\n      dup1\n      0x830953ab\n      eq\n      tag_13\n      jumpi\n      dup1\n      0x8615d855\n      eq\n      tag_14\n      jumpi\n      dup1\n      0x943e8216\n      eq\n      tag_15\n      jumpi\n      dup1\n      0x95d89b41\n      eq\n      tag_16\n      jumpi\n      dup1\n      0x9668ceb8\n      eq\n      tag_17\n      jumpi\n      jump(tag_2)\n    tag_23:\n      dup1\n      0x313ce567\n      gt\n      tag_25\n      jumpi\n      dup1\n      0x313ce567\n      eq\n      tag_8\n      jumpi\n      dup1\n      0x39509351\n      eq\n      tag_9\n      jumpi\n      dup1\n      0x4e71d92d\n      eq\n      tag_10\n      jumpi\n      dup1\n      0x70a08231\n      eq\n      tag_11\n      jumpi\n      dup1\n      0x73b2e80e\n      eq\n      tag_12\n      jumpi\n      jump(tag_2)\n    tag_25:\n      dup1\n      0x06fdde03\n      eq\n      tag_3\n      jumpi\n      dup1\n      0x095ea7b3\n      eq\n      tag_4\n      jumpi\n      dup1\n      0x18160ddd\n      eq\n      tag_5\n      jumpi\n      dup1\n      0x23b872dd\n      eq\n      tag_6\n      jumpi\n      dup1\n      0x27e235e3\n      eq\n      tag_7\n      jumpi\n    tag_2:\n      0x00\n      dup1\n      revert\n        /* \"https://github.com/OpenZeppelin/openzeppelin-contracts/blob/v4.8.0/contracts/token/ERC20/ERC20.sol\":2154:2252  function name() public view virtual override returns (string memory) {... */\n    tag_3:\n      tag_26\n      tag_27\n      jump\t// in\n    tag_26:\n      mload(0x40)\n      tag_28\n      swap2\n      swap1\n      tag_29\n      jump\t// in\n    tag_28:\n      mload(0x40)\n      dup1\n      swap2\n      sub\n      swap1\n      return\n        /* \"https://github.com/OpenZeppelin/openzeppelin-contracts/blob/v4.8.0/contracts/token/ERC20/ERC20.sol\":4431:4628  function approve(address spender, uint256 amount) public virtual override returns (bool) {... */\n    tag_4:\n      tag_30\n      0x04\n      dup1\n      calldatasize\n      sub\n      dup2\n      add\n      swap1\n      tag_31\n      swap2\n      swap1\n      tag_32\n      jump\t// in\n    tag_31:\n      tag_33\n      jump\t// in\n    tag_30:\n      mload(0x40)\n      tag_34\n      swap2\n      swap1\n      tag_35\n      jump\t// in\n    tag_34:\n      mload(0x40)\n      dup1\n      swap2\n      sub\n      swap1\n      return\n        /* \"https://github.com/OpenZeppelin/openzeppelin-contracts/blob/v4.8.0/contracts/token/ERC20/ERC20.sol\":3242:3348  function totalSupply() public view virtual override returns (uint256) {... */\n    tag_5:\n      tag_36\n      tag_37\n      jump\t// in\n    tag_36:\n      mload(0x40)\n      tag_38\n      swap2\n      swap1\n      tag_39\n      jump\t// in\n    tag_38:\n      mload(0x40)\n      dup1\n      swap2\n      sub\n      swap1\n      return\n        /* \"https://github.com/OpenZeppelin/openzeppelin-contracts/blob/v4.8.0/contracts/token/ERC20/ERC20.sol\":5190:5476  function transferFrom(... */\n    tag_6:\n      tag_40\n      0x04\n      dup1\n      calldatasize\n      sub\n      dup2\n      add\n      swap1\n      tag_41\n      swap2\n      swap1\n      tag_42\n      jump\t// in\n    tag_41:\n      tag_43\n      jump\t// in\n    tag_40:\n      mload(0x40)\n      tag_44\n      swap2\n      swap1\n      tag_35\n      jump\t// in\n    tag_44:\n      mload(0x40)\n      dup1\n      swap2\n      sub\n      swap1\n      return\n        /* \"contracts/WeightedVoting.sol\":1837:1877  mapping(address => uint) public balances */\n    tag_7:\n      tag_45\n      0x04\n      dup1\n      calldatasize\n      sub\n      dup2\n      add\n      swap1\n      tag_46\n      swap2\n      swap1\n      tag_47\n      jump\t// in\n    tag_46:\n      tag_48\n      jump\t// in\n    tag_45:\n      mload(0x40)\n      tag_49\n      swap2\n      swap1\n      tag_39\n      jump\t// in\n    tag_49:\n      mload(0x40)\n      dup1\n      swap2\n      sub\n      swap1\n      return\n        /* \"https://github.com/OpenZeppelin/openzeppelin-contracts/blob/v4.8.0/contracts/token/ERC20/ERC20.sol\":3091:3182  function decimals() public view virtual override returns (uint8) {... */\n    tag_8:\n      tag_50\n      tag_51\n      jump\t// in\n    tag_50:\n      mload(0x40)\n      tag_52\n      swap2\n      swap1\n      tag_53\n      jump\t// in\n    tag_52:\n      mload(0x40)\n      dup1\n      swap2\n      sub\n      swap1\n      return\n        /* \"https://github.com/OpenZeppelin/openzeppelin-contracts/blob/v4.8.0/contracts/token/ERC20/ERC20.sol\":5871:6105  function increaseAllowance(address spender, uint256 addedValue) public virtual returns (bool) {... */\n    tag_9:\n      tag_54\n      0x04\n      dup1\n      calldatasize\n      sub\n      dup2\n      add\n      swap1\n      tag_55\n      swap2\n      swap1\n      tag_32\n      jump\t// in\n    tag_55:\n      tag_56\n      jump\t// in\n    tag_54:\n      mload(0x40)\n      tag_57\n      swap2\n      swap1\n      tag_35\n      jump\t// in\n    tag_57:\n      mload(0x40)\n      dup1\n      swap2\n      sub\n      swap1\n      return\n        /* \"contracts/WeightedVoting.sol\":2326:2606  function claim() public {... */\n    tag_10:\n      tag_58\n      tag_59\n      jump\t// in\n    tag_58:\n      stop\n        /* \"https://github.com/OpenZeppelin/openzeppelin-contracts/blob/v4.8.0/contracts/token/ERC20/ERC20.sol\":3406:3531  function balanceOf(address account) public view virtual override returns (uint256) {... */\n    tag_11:\n      tag_60\n      0x04\n      dup1\n      calldatasize\n      sub\n      dup2\n      add\n      swap1\n      tag_61\n      swap2\n      swap1\n      tag_47\n      jump\t// in\n    tag_61:\n      tag_62\n      jump\t// in\n    tag_60:\n      mload(0x40)\n      tag_63\n      swap2\n      swap1\n      tag_39\n      jump\t// in\n    tag_63:\n      mload(0x40)\n      dup1\n      swap2\n      sub\n      swap1\n      return\n        /* \"contracts/WeightedVoting.sol\":1942:1984  mapping(address => bool) public hasClaimed */\n    tag_12:\n      tag_64\n      0x04\n      dup1\n      calldatasize\n      sub\n      dup2\n      add\n      swap1\n      tag_65\n      swap2\n      swap1\n      tag_47\n      jump\t// in\n    tag_65:\n      tag_66\n      jump\t// in\n    tag_64:\n      mload(0x40)\n      tag_67\n      swap2\n      swap1\n      tag_35\n      jump\t// in\n    tag_67:\n      mload(0x40)\n      dup1\n      swap2\n      sub\n      swap1\n      return\n        /* \"contracts/WeightedVoting.sol\":1727:1750  uint public claimAmount */\n    tag_13:\n      tag_68\n      tag_69\n      jump\t// in\n    tag_68:\n      mload(0x40)\n      tag_70\n      swap2\n      swap1\n      tag_39\n      jump\t// in\n    tag_70:\n      mload(0x40)\n      dup1\n      swap2\n      sub\n      swap1\n      return\n        /* \"contracts/WeightedVoting.sol\":2647:3221  function createIssue(... */\n    tag_14:\n      tag_71\n      0x04\n      dup1\n      calldatasize\n      sub\n      dup2\n      add\n      swap1\n      tag_72\n      swap2\n      swap1\n      tag_73\n      jump\t// in\n    tag_72:\n      tag_74\n      jump\t// in\n    tag_71:\n      mload(0x40)\n      tag_75\n      swap2\n      swap1\n      tag_39\n      jump\t// in\n    tag_75:\n      mload(0x40)\n      dup1\n      swap2\n      sub\n      swap1\n      return\n        /* \"contracts/WeightedVoting.sol\":4012:5404  function vote(uint _issueId, WeightedVotingLibrary.Votes _vote) public {... */\n    tag_15:\n      tag_76\n      0x04\n      dup1\n      calldatasize\n      sub\n      dup2\n      add\n      swap1\n      tag_77\n      swap2\n      swap1\n      tag_78\n      jump\t// in\n    tag_77:\n      tag_79\n      jump\t// in\n    tag_76:\n      stop\n        /* \"https://github.com/OpenZeppelin/openzeppelin-contracts/blob/v4.8.0/contracts/token/ERC20/ERC20.sol\":2365:2467  function symbol() public view virtual override returns (string memory) {... */\n    tag_16:\n      tag_80\n      tag_81\n      jump\t// in\n    tag_80:\n      mload(0x40)\n      tag_82\n      swap2\n      swap1\n      tag_29\n      jump\t// in\n    tag_82:\n      mload(0x40)\n      dup1\n      swap2\n      sub\n      swap1\n      return\n        /* \"contracts/WeightedVoting.sol\":1756:1781  uint public claimedAmount */\n    tag_17:\n      tag_83\n      tag_84\n      jump\t// in\n    tag_83:\n      mload(0x40)\n      tag_85\n      swap2\n      swap1\n      tag_39\n      jump\t// in\n    tag_85:\n      mload(0x40)\n      dup1\n      swap2\n      sub\n      swap1\n      return\n        /* \"contracts/WeightedVoting.sol\":3259:3982  function getIssue(... */\n    tag_18:\n      tag_86\n      0x04\n      dup1\n      calldatasize\n      sub\n      dup2\n      add\n      swap1\n      tag_87\n      swap2\n      swap1\n      tag_88\n      jump\t// in\n    tag_87:\n      tag_89\n      jump\t// in\n    tag_86:\n      mload(0x40)\n      tag_90\n      swap2\n      swap1\n      tag_91\n      jump\t// in\n    tag_90:\n      mload(0x40)\n      dup1\n      swap2\n      sub\n      swap1\n      return\n        /* \"https://github.com/OpenZeppelin/openzeppelin-contracts/blob/v4.8.0/contracts/token/ERC20/ERC20.sol\":6592:7019  function decreaseAllowance(address spender, uint256 subtractedValue) public virtual returns (bool) {... */\n    tag_19:\n      tag_92\n      0x04\n      dup1\n      calldatasize\n      sub\n      dup2\n      add\n      swap1\n      tag_93\n      swap2\n      swap1\n      tag_32\n      jump\t// in\n    tag_93:\n      tag_94\n      jump\t// in\n    tag_92:\n      mload(0x40)\n      tag_95\n      swap2\n      swap1\n      tag_35\n      jump\t// in\n    tag_95:\n      mload(0x40)\n      dup1\n      swap2\n      sub\n      swap1\n      return\n        /* \"https://github.com/OpenZeppelin/openzeppelin-contracts/blob/v4.8.0/contracts/token/ERC20/ERC20.sol\":3727:3916  function transfer(address to, uint256 amount) public virtual override returns (bool) {... */\n    tag_20:\n      tag_96\n      0x04\n      dup1\n      calldatasize\n      sub\n      dup2\n      add\n      swap1\n      tag_97\n      swap2\n      swap1\n      tag_32\n      jump\t// in\n    tag_97:\n      tag_98\n      jump\t// in\n    tag_96:\n      mload(0x40)\n      tag_99\n      swap2\n      swap1\n      tag_35\n      jump\t// in\n    tag_99:\n      mload(0x40)\n      dup1\n      swap2\n      sub\n      swap1\n      return\n        /* \"contracts/WeightedVoting.sol\":1700:1721  uint public maxSupply */\n    tag_21:\n      tag_100\n      tag_101\n      jump\t// in\n    tag_100:\n      mload(0x40)\n      tag_102\n      swap2\n      swap1\n      tag_39\n      jump\t// in\n    tag_102:\n      mload(0x40)\n      dup1\n      swap2\n      sub\n      swap1\n      return\n        /* \"https://github.com/OpenZeppelin/openzeppelin-contracts/blob/v4.8.0/contracts/token/ERC20/ERC20.sol\":3974:4123  function allowance(address owner, address spender) public view virtual override returns (uint256) {... */\n    tag_22:\n      tag_103\n      0x04\n      dup1\n      calldatasize\n      sub\n      dup2\n      add\n      swap1\n      tag_104\n      swap2\n      swap1\n      tag_105\n      jump\t// in\n    tag_104:\n      tag_106\n      jump\t// in\n    tag_103:\n      mload(0x40)\n      tag_107\n      swap2\n      swap1\n      tag_39\n      jump\t// in\n    tag_107:\n      mload(0x40)\n      dup1\n      swap2\n      sub\n      swap1\n      return\n        /* \"https://github.com/OpenZeppelin/openzeppelin-contracts/blob/v4.8.0/contracts/token/ERC20/ERC20.sol\":2154:2252  function name() public view virtual override returns (string memory) {... */\n    tag_27:\n        /* \"https://github.com/OpenZeppelin/openzeppelin-contracts/blob/v4.8.0/contracts/token/ERC20/ERC20.sol\":2208:2221  string memory */\n      0x60\n        /* \"https://github.com/OpenZeppelin/openzeppelin-contracts/blob/v4.8.0/contracts/token/ERC20/ERC20.sol\":2240:2245  _name */\n      0x03\n        /* \"https://github.com/OpenZeppelin/openzeppelin-contracts/blob/v4.8.0/contracts/token/ERC20/ERC20.sol\":2233:2245  return _name */\n      dup1\n      sload\n      tag_109\n      swap1\n      tag_110\n      jump\t// in\n    tag_109:\n      dup1\n      0x1f\n      add\n      0x20\n      dup1\n      swap2\n      div\n      mul\n      0x20\n      add\n      mload(0x40)\n      swap1\n      dup2\n      add\n      0x40\n      mstore\n      dup1\n      swap3\n      swap2\n      swap1\n      dup2\n      dup2\n      mstore\n      0x20\n      add\n      dup3\n      dup1\n      sload\n      tag_111\n      swap1\n      tag_110\n      jump\t// in\n    tag_111:\n      dup1\n      iszero\n      tag_112\n      jumpi\n      dup1\n      0x1f\n      lt\n      tag_113\n      jumpi\n      0x0100\n      dup1\n      dup4\n      sload\n      div\n      mul\n      dup4\n      mstore\n      swap2\n      0x20\n      add\n      swap2\n      jump(tag_112)\n    tag_113:\n      dup3\n      add\n      swap2\n      swap1\n      0x00\n      mstore\n      keccak256(0x00, 0x20)\n      swap1\n    tag_114:\n      dup2\n      sload\n      dup2\n      mstore\n      swap1\n      0x01\n      add\n      swap1\n      0x20\n      add\n      dup1\n      dup4\n      gt\n      tag_114\n      jumpi\n      dup3\n      swap1\n      sub\n      0x1f\n      and\n      dup3\n      add\n      swap2\n    tag_112:\n      pop\n      pop\n      pop\n      pop\n      pop\n      swap1\n      pop\n        /* \"https://github.com/OpenZeppelin/openzeppelin-contracts/blob/v4.8.0/contracts/token/ERC20/ERC20.sol\":2154:2252  function name() public view virtual override returns (string memory) {... */\n      swap1\n      jump\t// out\n        /* \"https://github.com/OpenZeppelin/openzeppelin-contracts/blob/v4.8.0/contracts/token/ERC20/ERC20.sol\":4431:4628  function approve(address spender, uint256 amount) public virtual override returns (bool) {... */\n    tag_33:\n        /* \"https://github.com/OpenZeppelin/openzeppelin-contracts/blob/v4.8.0/contracts/token/ERC20/ERC20.sol\":4514:4518  bool */\n      0x00\n        /* \"https://github.com/OpenZeppelin/openzeppelin-contracts/blob/v4.8.0/contracts/token/ERC20/ERC20.sol\":4530:4543  address owner */\n      dup1\n        /* \"https://github.com/OpenZeppelin/openzeppelin-contracts/blob/v4.8.0/contracts/token/ERC20/ERC20.sol\":4546:4558  _msgSender() */\n      tag_116\n        /* \"https://github.com/OpenZeppelin/openzeppelin-contracts/blob/v4.8.0/contracts/token/ERC20/ERC20.sol\":4546:4556  _msgSender */\n      tag_117\n        /* \"https://github.com/OpenZeppelin/openzeppelin-contracts/blob/v4.8.0/contracts/token/ERC20/ERC20.sol\":4546:4558  _msgSender() */\n      jump\t// in\n    tag_116:\n        /* \"https://github.com/OpenZeppelin/openzeppelin-contracts/blob/v4.8.0/contracts/token/ERC20/ERC20.sol\":4530:4558  address owner = _msgSender() */\n      swap1\n      pop\n        /* \"https://github.com/OpenZeppelin/openzeppelin-contracts/blob/v4.8.0/contracts/token/ERC20/ERC20.sol\":4568:4600  _approve(owner, spender, amount) */\n      tag_118\n        /* \"https://github.com/OpenZeppelin/openzeppelin-contracts/blob/v4.8.0/contracts/token/ERC20/ERC20.sol\":4577:4582  owner */\n      dup2\n        /* \"https://github.com/OpenZeppelin/openzeppelin-contracts/blob/v4.8.0/contracts/token/ERC20/ERC20.sol\":4584:4591  spender */\n      dup6\n        /* \"https://github.com/OpenZeppelin/openzeppelin-contracts/blob/v4.8.0/contracts/token/ERC20/ERC20.sol\":4593:4599  amount */\n      dup6\n        /* \"https://github.com/OpenZeppelin/openzeppelin-contracts/blob/v4.8.0/contracts/token/ERC20/ERC20.sol\":4568:4576  _approve */\n      tag_119\n        /* \"https://github.com/OpenZeppelin/openzeppelin-contracts/blob/v4.8.0/contracts/token/ERC20/ERC20.sol\":4568:4600  _approve(owner, spender, amount) */\n      jump\t// in\n    tag_118:\n        /* \"https://github.com/OpenZeppelin/openzeppelin-contracts/blob/v4.8.0/contracts/token/ERC20/ERC20.sol\":4617:4621  true */\n      0x01\n        /* \"https://github.com/OpenZeppelin/openzeppelin-contracts/blob/v4.8.0/contracts/token/ERC20/ERC20.sol\":4610:4621  return true */\n      swap2\n      pop\n      pop\n        /* \"https://github.com/OpenZeppelin/openzeppelin-contracts/blob/v4.8.0/contracts/token/ERC20/ERC20.sol\":4431:4628  function approve(address spender, uint256 amount) public virtual override returns (bool) {... */\n      swap3\n      swap2\n      pop\n      pop\n      jump\t// out\n        /* \"https://github.com/OpenZeppelin/openzeppelin-contracts/blob/v4.8.0/contracts/token/ERC20/ERC20.sol\":3242:3348  function totalSupply() public view virtual override returns (uint256) {... */\n    tag_37:\n        /* \"https://github.com/OpenZeppelin/openzeppelin-contracts/blob/v4.8.0/contracts/token/ERC20/ERC20.sol\":3303:3310  uint256 */\n      0x00\n        /* \"https://github.com/OpenZeppelin/openzeppelin-contracts/blob/v4.8.0/contracts/token/ERC20/ERC20.sol\":3329:3341  _totalSupply */\n      sload(0x02)\n        /* \"https://github.com/OpenZeppelin/openzeppelin-contracts/blob/v4.8.0/contracts/token/ERC20/ERC20.sol\":3322:3341  return _totalSupply */\n      swap1\n      pop\n        /* \"https://github.com/OpenZeppelin/openzeppelin-contracts/blob/v4.8.0/contracts/token/ERC20/ERC20.sol\":3242:3348  function totalSupply() public view virtual override returns (uint256) {... */\n      swap1\n      jump\t// out\n        /* \"https://github.com/OpenZeppelin/openzeppelin-contracts/blob/v4.8.0/contracts/token/ERC20/ERC20.sol\":5190:5476  function transferFrom(... */\n    tag_43:\n        /* \"https://github.com/OpenZeppelin/openzeppelin-contracts/blob/v4.8.0/contracts/token/ERC20/ERC20.sol\":5317:5321  bool */\n      0x00\n        /* \"https://github.com/OpenZeppelin/openzeppelin-contracts/blob/v4.8.0/contracts/token/ERC20/ERC20.sol\":5333:5348  address spender */\n      dup1\n        /* \"https://github.com/OpenZeppelin/openzeppelin-contracts/blob/v4.8.0/contracts/token/ERC20/ERC20.sol\":5351:5363  _msgSender() */\n      tag_122\n        /* \"https://github.com/OpenZeppelin/openzeppelin-contracts/blob/v4.8.0/contracts/token/ERC20/ERC20.sol\":5351:5361  _msgSender */\n      tag_117\n        /* \"https://github.com/OpenZeppelin/openzeppelin-contracts/blob/v4.8.0/contracts/token/ERC20/ERC20.sol\":5351:5363  _msgSender() */\n      jump\t// in\n    tag_122:\n        /* \"https://github.com/OpenZeppelin/openzeppelin-contracts/blob/v4.8.0/contracts/token/ERC20/ERC20.sol\":5333:5363  address spender = _msgSender() */\n      swap1\n      pop\n        /* \"https://github.com/OpenZeppelin/openzeppelin-contracts/blob/v4.8.0/contracts/token/ERC20/ERC20.sol\":5373:5411  _spendAllowance(from, spender, amount) */\n      tag_123\n        /* \"https://github.com/OpenZeppelin/openzeppelin-contracts/blob/v4.8.0/contracts/token/ERC20/ERC20.sol\":5389:5393  from */\n      dup6\n        /* \"https://github.com/OpenZeppelin/openzeppelin-contracts/blob/v4.8.0/contracts/token/ERC20/ERC20.sol\":5395:5402  spender */\n      dup3\n        /* \"https://github.com/OpenZeppelin/openzeppelin-contracts/blob/v4.8.0/contracts/token/ERC20/ERC20.sol\":5404:5410  amount */\n      dup6\n        /* \"https://github.com/OpenZeppelin/openzeppelin-contracts/blob/v4.8.0/contracts/token/ERC20/ERC20.sol\":5373:5388  _spendAllowance */\n      tag_124\n        /* \"https://github.com/OpenZeppelin/openzeppelin-contracts/blob/v4.8.0/contracts/token/ERC20/ERC20.sol\":5373:5411  _spendAllowance(from, spender, amount) */\n      jump\t// in\n    tag_123:\n        /* \"https://github.com/OpenZeppelin/openzeppelin-contracts/blob/v4.8.0/contracts/token/ERC20/ERC20.sol\":5421:5448  _transfer(from, to, amount) */\n      tag_125\n        /* \"https://github.com/OpenZeppelin/openzeppelin-contracts/blob/v4.8.0/contracts/token/ERC20/ERC20.sol\":5431:5435  from */\n      dup6\n        /* \"https://github.com/OpenZeppelin/openzeppelin-contracts/blob/v4.8.0/contracts/token/ERC20/ERC20.sol\":5437:5439  to */\n      dup6\n        /* \"https://github.com/OpenZeppelin/openzeppelin-contracts/blob/v4.8.0/contracts/token/ERC20/ERC20.sol\":5441:5447  amount */\n      dup6\n        /* \"https://github.com/OpenZeppelin/openzeppelin-contracts/blob/v4.8.0/contracts/token/ERC20/ERC20.sol\":5421:5430  _transfer */\n      tag_126\n        /* \"https://github.com/OpenZeppelin/openzeppelin-contracts/blob/v4.8.0/contracts/token/ERC20/ERC20.sol\":5421:5448  _transfer(from, to, amount) */\n      jump\t// in\n    tag_125:\n        /* \"https://github.com/OpenZeppelin/openzeppelin-contracts/blob/v4.8.0/contracts/token/ERC20/ERC20.sol\":5465:5469  true */\n      0x01\n        /* \"https://github.com/OpenZeppelin/openzeppelin-contracts/blob/v4.8.0/contracts/token/ERC20/ERC20.sol\":5458:5469  return true */\n      swap2\n      pop\n      pop\n        /* \"https://github.com/OpenZeppelin/openzeppelin-contracts/blob/v4.8.0/contracts/token/ERC20/ERC20.sol\":5190:5476  function transferFrom(... */\n      swap4\n      swap3\n      pop\n      pop\n      pop\n      jump\t// out\n        /* \"contracts/WeightedVoting.sol\":1837:1877  mapping(address => uint) public balances */\n    tag_48:\n      mstore(0x20, 0x08)\n      dup1\n      0x00\n      mstore\n      keccak256(0x00, 0x40)\n      0x00\n      swap2\n      pop\n      swap1\n      pop\n      sload\n      dup2\n      jump\t// out\n        /* \"https://github.com/OpenZeppelin/openzeppelin-contracts/blob/v4.8.0/contracts/token/ERC20/ERC20.sol\":3091:3182  function decimals() public view virtual override returns (uint8) {... */\n    tag_51:\n        /* \"https://github.com/OpenZeppelin/openzeppelin-contracts/blob/v4.8.0/contracts/token/ERC20/ERC20.sol\":3149:3154  uint8 */\n      0x00\n        /* \"https://github.com/OpenZeppelin/openzeppelin-contracts/blob/v4.8.0/contracts/token/ERC20/ERC20.sol\":3173:3175  18 */\n      0x12\n        /* \"https://github.com/OpenZeppelin/openzeppelin-contracts/blob/v4.8.0/contracts/token/ERC20/ERC20.sol\":3166:3175  return 18 */\n      swap1\n      pop\n        /* \"https://github.com/OpenZeppelin/openzeppelin-contracts/blob/v4.8.0/contracts/token/ERC20/ERC20.sol\":3091:3182  function decimals() public view virtual override returns (uint8) {... */\n      swap1\n      jump\t// out\n        /* \"https://github.com/OpenZeppelin/openzeppelin-contracts/blob/v4.8.0/contracts/token/ERC20/ERC20.sol\":5871:6105  function increaseAllowance(address spender, uint256 addedValue) public virtual returns (bool) {... */\n    tag_56:\n        /* \"https://github.com/OpenZeppelin/openzeppelin-contracts/blob/v4.8.0/contracts/token/ERC20/ERC20.sol\":5959:5963  bool */\n      0x00\n        /* \"https://github.com/OpenZeppelin/openzeppelin-contracts/blob/v4.8.0/contracts/token/ERC20/ERC20.sol\":5975:5988  address owner */\n      dup1\n        /* \"https://github.com/OpenZeppelin/openzeppelin-contracts/blob/v4.8.0/contracts/token/ERC20/ERC20.sol\":5991:6003  _msgSender() */\n      tag_129\n        /* \"https://github.com/OpenZeppelin/openzeppelin-contracts/blob/v4.8.0/contracts/token/ERC20/ERC20.sol\":5991:6001  _msgSender */\n      tag_117\n        /* \"https://github.com/OpenZeppelin/openzeppelin-contracts/blob/v4.8.0/contracts/token/ERC20/ERC20.sol\":5991:6003  _msgSender() */\n      jump\t// in\n    tag_129:\n        /* \"https://github.com/OpenZeppelin/openzeppelin-contracts/blob/v4.8.0/contracts/token/ERC20/ERC20.sol\":5975:6003  address owner = _msgSender() */\n      swap1\n      pop\n        /* \"https://github.com/OpenZeppelin/openzeppelin-contracts/blob/v4.8.0/contracts/token/ERC20/ERC20.sol\":6013:6077  _approve(owner, spender, allowance(owner, spender) + addedValue) */\n      tag_130\n        /* \"https://github.com/OpenZeppelin/openzeppelin-contracts/blob/v4.8.0/contracts/token/ERC20/ERC20.sol\":6022:6027  owner */\n      dup2\n        /* \"https://github.com/OpenZeppelin/openzeppelin-contracts/blob/v4.8.0/contracts/token/ERC20/ERC20.sol\":6029:6036  spender */\n      dup6\n        /* \"https://github.com/OpenZeppelin/openzeppelin-contracts/blob/v4.8.0/contracts/token/ERC20/ERC20.sol\":6066:6076  addedValue */\n      dup6\n        /* \"https://github.com/OpenZeppelin/openzeppelin-contracts/blob/v4.8.0/contracts/token/ERC20/ERC20.sol\":6038:6063  allowance(owner, spender) */\n      tag_131\n        /* \"https://github.com/OpenZeppelin/openzeppelin-contracts/blob/v4.8.0/contracts/token/ERC20/ERC20.sol\":6048:6053  owner */\n      dup6\n        /* \"https://github.com/OpenZeppelin/openzeppelin-contracts/blob/v4.8.0/contracts/token/ERC20/ERC20.sol\":6055:6062  spender */\n      dup10\n        /* \"https://github.com/OpenZeppelin/openzeppelin-contracts/blob/v4.8.0/contracts/token/ERC20/ERC20.sol\":6038:6047  allowance */\n      tag_106\n        /* \"https://github.com/OpenZeppelin/openzeppelin-contracts/blob/v4.8.0/contracts/token/ERC20/ERC20.sol\":6038:6063  allowance(owner, spender) */\n      jump\t// in\n    tag_131:\n        /* \"https://github.com/OpenZeppelin/openzeppelin-contracts/blob/v4.8.0/contracts/token/ERC20/ERC20.sol\":6038:6076  allowance(owner, spender) + addedValue */\n      tag_132\n      swap2\n      swap1\n      tag_133\n      jump\t// in\n    tag_132:\n        /* \"https://github.com/OpenZeppelin/openzeppelin-contracts/blob/v4.8.0/contracts/token/ERC20/ERC20.sol\":6013:6021  _approve */\n      tag_119\n        /* \"https://github.com/OpenZeppelin/openzeppelin-contracts/blob/v4.8.0/contracts/token/ERC20/ERC20.sol\":6013:6077  _approve(owner, spender, allowance(owner, spender) + addedValue) */\n      jump\t// in\n    tag_130:\n        /* \"https://github.com/OpenZeppelin/openzeppelin-contracts/blob/v4.8.0/contracts/token/ERC20/ERC20.sol\":6094:6098  true */\n      0x01\n        /* \"https://github.com/OpenZeppelin/openzeppelin-contracts/blob/v4.8.0/contracts/token/ERC20/ERC20.sol\":6087:6098  return true */\n      swap2\n      pop\n      pop\n        /* \"https://github.com/OpenZeppelin/openzeppelin-contracts/blob/v4.8.0/contracts/token/ERC20/ERC20.sol\":5871:6105  function increaseAllowance(address spender, uint256 addedValue) public virtual returns (bool) {... */\n      swap3\n      swap2\n      pop\n      pop\n      jump\t// out\n        /* \"contracts/WeightedVoting.sol\":2326:2606  function claim() public {... */\n    tag_59:\n        /* \"contracts/WeightedVoting.sol\":2380:2389  maxSupply */\n      sload(0x05)\n        /* \"contracts/WeightedVoting.sol\":2364:2377  claimedAmount */\n      sload(0x07)\n        /* \"contracts/WeightedVoting.sol\":2364:2389  claimedAmount > maxSupply */\n      gt\n        /* \"contracts/WeightedVoting.sol\":2360:2416  if (claimedAmount > maxSupply) revert AllTokensClaimed() */\n      iszero\n      tag_135\n      jumpi\n        /* \"contracts/WeightedVoting.sol\":2398:2416  AllTokensClaimed() */\n      mload(0x40)\n      0xcbe2483100000000000000000000000000000000000000000000000000000000\n      dup2\n      mstore\n      0x04\n      add\n      mload(0x40)\n      dup1\n      swap2\n      sub\n      swap1\n      revert\n        /* \"contracts/WeightedVoting.sol\":2360:2416  if (claimedAmount > maxSupply) revert AllTokensClaimed() */\n    tag_135:\n        /* \"contracts/WeightedVoting.sol\":2430:2440  hasClaimed */\n      0x09\n        /* \"contracts/WeightedVoting.sol\":2430:2452  hasClaimed[msg.sender] */\n      0x00\n        /* \"contracts/WeightedVoting.sol\":2441:2451  msg.sender */\n      caller\n        /* \"contracts/WeightedVoting.sol\":2430:2452  hasClaimed[msg.sender] */\n      0xffffffffffffffffffffffffffffffffffffffff\n      and\n      0xffffffffffffffffffffffffffffffffffffffff\n      and\n      dup2\n      mstore\n      0x20\n      add\n      swap1\n      dup2\n      mstore\n      0x20\n      add\n      0x00\n      keccak256\n      0x00\n      swap1\n      sload\n      swap1\n      0x0100\n      exp\n      swap1\n      div\n      0xff\n      and\n        /* \"contracts/WeightedVoting.sol\":2426:2476  if (hasClaimed[msg.sender]) revert TokensClaimed() */\n      iszero\n      tag_136\n      jumpi\n        /* \"contracts/WeightedVoting.sol\":2461:2476  TokensClaimed() */\n      mload(0x40)\n      0x0b1327a600000000000000000000000000000000000000000000000000000000\n      dup2\n      mstore\n      0x04\n      add\n      mload(0x40)\n      dup1\n      swap2\n      sub\n      swap1\n      revert\n        /* \"contracts/WeightedVoting.sol\":2426:2476  if (hasClaimed[msg.sender]) revert TokensClaimed() */\n    tag_136:\n        /* \"contracts/WeightedVoting.sol\":2511:2522  claimAmount */\n      sload(0x06)\n        /* \"contracts/WeightedVoting.sol\":2487:2495  balances */\n      0x08\n        /* \"contracts/WeightedVoting.sol\":2487:2507  balances[msg.sender] */\n      0x00\n        /* \"contracts/WeightedVoting.sol\":2496:2506  msg.sender */\n      caller\n        /* \"contracts/WeightedVoting.sol\":2487:2507  balances[msg.sender] */\n      0xffffffffffffffffffffffffffffffffffffffff\n      and\n      0xffffffffffffffffffffffffffffffffffffffff\n      and\n      dup2\n      mstore\n      0x20\n      add\n      swap1\n      dup2\n      mstore\n      0x20\n      add\n      0x00\n      keccak256\n      0x00\n        /* \"contracts/WeightedVoting.sol\":2487:2522  balances[msg.sender] += claimAmount */\n      dup3\n      dup3\n      sload\n      tag_137\n      swap2\n      swap1\n      tag_133\n      jump\t// in\n    tag_137:\n      swap3\n      pop\n      pop\n      dup2\n      swap1\n      sstore\n      pop\n        /* \"contracts/WeightedVoting.sol\":2549:2560  claimAmount */\n      sload(0x06)\n        /* \"contracts/WeightedVoting.sol\":2532:2545  claimedAmount */\n      0x07\n      0x00\n        /* \"contracts/WeightedVoting.sol\":2532:2560  claimedAmount += claimAmount */\n      dup3\n      dup3\n      sload\n      tag_138\n      swap2\n      swap1\n      tag_133\n      jump\t// in\n    tag_138:\n      swap3\n      pop\n      pop\n      dup2\n      swap1\n      sstore\n      pop\n        /* \"contracts/WeightedVoting.sol\":2595:2599  true */\n      0x01\n        /* \"contracts/WeightedVoting.sol\":2570:2580  hasClaimed */\n      0x09\n        /* \"contracts/WeightedVoting.sol\":2570:2592  hasClaimed[msg.sender] */\n      0x00\n        /* \"contracts/WeightedVoting.sol\":2581:2591  msg.sender */\n      caller\n        /* \"contracts/WeightedVoting.sol\":2570:2592  hasClaimed[msg.sender] */\n      0xffffffffffffffffffffffffffffffffffffffff\n      and\n      0xffffffffffffffffffffffffffffffffffffffff\n      and\n      dup2\n      mstore\n      0x20\n      add\n      swap1\n      dup2\n      mstore\n      0x20\n      add\n      0x00\n      keccak256\n      0x00\n        /* \"contracts/WeightedVoting.sol\":2570:2599  hasClaimed[msg.sender] = true */\n      0x0100\n      exp\n      dup2\n      sload\n      dup2\n      0xff\n      mul\n      not\n      and\n      swap1\n      dup4\n      iszero\n      iszero\n      mul\n      or\n      swap1\n      sstore\n      pop\n        /* \"contracts/WeightedVoting.sol\":2326:2606  function claim() public {... */\n      jump\t// out\n        /* \"https://github.com/OpenZeppelin/openzeppelin-contracts/blob/v4.8.0/contracts/token/ERC20/ERC20.sol\":3406:3531  function balanceOf(address account) public view virtual override returns (uint256) {... */\n    tag_62:\n        /* \"https://github.com/OpenZeppelin/openzeppelin-contracts/blob/v4.8.0/contracts/token/ERC20/ERC20.sol\":3480:3487  uint256 */\n      0x00\n        /* \"https://github.com/OpenZeppelin/openzeppelin-contracts/blob/v4.8.0/contracts/token/ERC20/ERC20.sol\":3506:3515  _balances */\n      dup1\n        /* \"https://github.com/OpenZeppelin/openzeppelin-contracts/blob/v4.8.0/contracts/token/ERC20/ERC20.sol\":3506:3524  _balances[account] */\n      0x00\n        /* \"https://github.com/OpenZeppelin/openzeppelin-contracts/blob/v4.8.0/contracts/token/ERC20/ERC20.sol\":3516:3523  account */\n      dup4\n        /* \"https://github.com/OpenZeppelin/openzeppelin-contracts/blob/v4.8.0/contracts/token/ERC20/ERC20.sol\":3506:3524  _balances[account] */\n      0xffffffffffffffffffffffffffffffffffffffff\n      and\n      0xffffffffffffffffffffffffffffffffffffffff\n      and\n      dup2\n      mstore\n      0x20\n      add\n      swap1\n      dup2\n      mstore\n      0x20\n      add\n      0x00\n      keccak256\n      sload\n        /* \"https://github.com/OpenZeppelin/openzeppelin-contracts/blob/v4.8.0/contracts/token/ERC20/ERC20.sol\":3499:3524  return _balances[account] */\n      swap1\n      pop\n        /* \"https://github.com/OpenZeppelin/openzeppelin-contracts/blob/v4.8.0/contracts/token/ERC20/ERC20.sol\":3406:3531  function balanceOf(address account) public view virtual override returns (uint256) {... */\n      swap2\n      swap1\n      pop\n      jump\t// out\n        /* \"contracts/WeightedVoting.sol\":1942:1984  mapping(address => bool) public hasClaimed */\n    tag_66:\n      mstore(0x20, 0x09)\n      dup1\n      0x00\n      mstore\n      keccak256(0x00, 0x40)\n      0x00\n      swap2\n      pop\n      sload\n      swap1\n      0x0100\n      exp\n      swap1\n      div\n      0xff\n      and\n      dup2\n      jump\t// out\n        /* \"contracts/WeightedVoting.sol\":1727:1750  uint public claimAmount */\n    tag_69:\n      sload(0x06)\n      dup2\n      jump\t// out\n        /* \"contracts/WeightedVoting.sol\":2647:3221  function createIssue(... */\n    tag_74:\n        /* \"contracts/WeightedVoting.sol\":2748:2756  uint idx */\n      0x00\n        /* \"contracts/WeightedVoting.sol\":2812:2813  0 */\n      dup1\n        /* \"contracts/WeightedVoting.sol\":2789:2797  balances */\n      0x08\n        /* \"contracts/WeightedVoting.sol\":2789:2809  balances[msg.sender] */\n      0x00\n        /* \"contracts/WeightedVoting.sol\":2798:2808  msg.sender */\n      caller\n        /* \"contracts/WeightedVoting.sol\":2789:2809  balances[msg.sender] */\n      0xffffffffffffffffffffffffffffffffffffffff\n      and\n      0xffffffffffffffffffffffffffffffffffffffff\n      and\n      dup2\n      mstore\n      0x20\n      add\n      swap1\n      dup2\n      mstore\n      0x20\n      add\n      0x00\n      keccak256\n      sload\n        /* \"contracts/WeightedVoting.sol\":2789:2813  balances[msg.sender] > 0 */\n      gt\n        /* \"contracts/WeightedVoting.sol\":2768:2875  require(... */\n      tag_141\n      jumpi\n      mload(0x40)\n      0x08c379a000000000000000000000000000000000000000000000000000000000\n      dup2\n      mstore\n      0x04\n      add\n      tag_142\n      swap1\n      tag_143\n      jump\t// in\n    tag_142:\n      mload(0x40)\n      dup1\n      swap2\n      sub\n      swap1\n      revert\n    tag_141:\n        /* \"contracts/WeightedVoting.sol\":2917:2930  totalSupply() */\n      tag_144\n        /* \"contracts/WeightedVoting.sol\":2917:2928  totalSupply */\n      tag_37\n        /* \"contracts/WeightedVoting.sol\":2917:2930  totalSupply() */\n      jump\t// in\n    tag_144:\n        /* \"contracts/WeightedVoting.sol\":2906:2913  _quorum */\n      dup3\n        /* \"contracts/WeightedVoting.sol\":2906:2930  _quorum <= totalSupply() */\n      gt\n      iszero\n        /* \"contracts/WeightedVoting.sol\":2885:3012  require(... */\n      tag_145\n      jumpi\n      mload(0x40)\n      0x08c379a000000000000000000000000000000000000000000000000000000000\n      dup2\n      mstore\n      0x04\n      add\n      tag_146\n      swap1\n      tag_147\n      jump\t// in\n    tag_146:\n      mload(0x40)\n      dup1\n      swap2\n      sub\n      swap1\n      revert\n    tag_145:\n        /* \"contracts/WeightedVoting.sol\":3029:3035  issues */\n      0x0a\n        /* \"contracts/WeightedVoting.sol\":3029:3042  issues.length */\n      dup1\n      sload\n      swap1\n      pop\n        /* \"contracts/WeightedVoting.sol\":3023:3042  idx = issues.length */\n      swap1\n      pop\n        /* \"contracts/WeightedVoting.sol\":3052:3058  issues */\n      0x0a\n        /* \"contracts/WeightedVoting.sol\":3052:3065  issues.push() */\n      0x01\n      dup2\n      0x01\n      dup2\n      sload\n      add\n      dup1\n      dup3\n      sstore\n      dup1\n      swap2\n      pop\n      pop\n      sub\n      swap1\n      0x00\n      mstore\n      keccak256(0x00, 0x20)\n      swap1\n      pop\n      pop\n        /* \"contracts/WeightedVoting.sol\":3075:3114  WeightedVotingLibrary.Issue storage iss */\n      0x00\n        /* \"contracts/WeightedVoting.sol\":3117:3123  issues */\n      0x0a\n        /* \"contracts/WeightedVoting.sol\":3124:3127  idx */\n      dup3\n        /* \"contracts/WeightedVoting.sol\":3117:3128  issues[idx] */\n      dup2\n      sload\n      dup2\n      lt\n      tag_149\n      jumpi\n      tag_150\n      tag_151\n      jump\t// in\n    tag_150:\n    tag_149:\n      swap1\n      0x00\n      mstore\n      keccak256(0x00, 0x20)\n      swap1\n      0x09\n      mul\n      add\n        /* \"contracts/WeightedVoting.sol\":3075:3128  WeightedVotingLibrary.Issue storage iss = issues[idx] */\n      swap1\n      pop\n        /* \"contracts/WeightedVoting.sol\":3154:3164  _issueDesc */\n      dup4\n        /* \"contracts/WeightedVoting.sol\":3138:3141  iss */\n      dup2\n        /* \"contracts/WeightedVoting.sol\":3138:3151  iss.issueDesc */\n      0x02\n      add\n        /* \"contracts/WeightedVoting.sol\":3138:3164  iss.issueDesc = _issueDesc */\n      swap1\n      dup2\n      tag_153\n      swap2\n      swap1\n      tag_154\n      jump\t// in\n    tag_153:\n      pop\n        /* \"contracts/WeightedVoting.sol\":3187:3194  _quorum */\n      dup3\n        /* \"contracts/WeightedVoting.sol\":3174:3177  iss */\n      dup2\n        /* \"contracts/WeightedVoting.sol\":3174:3184  iss.quorum */\n      0x07\n      add\n        /* \"contracts/WeightedVoting.sol\":3174:3194  iss.quorum = _quorum */\n      dup2\n      swap1\n      sstore\n      pop\n        /* \"contracts/WeightedVoting.sol\":3204:3214  return idx */\n      pop\n        /* \"contracts/WeightedVoting.sol\":2647:3221  function createIssue(... */\n      swap3\n      swap2\n      pop\n      pop\n      jump\t// out\n        /* \"contracts/WeightedVoting.sol\":4012:5404  function vote(uint _issueId, WeightedVotingLibrary.Votes _vote) public {... */\n    tag_79:\n        /* \"contracts/WeightedVoting.sol\":4149:4155  issues */\n      0x0a\n        /* \"contracts/WeightedVoting.sol\":4156:4164  _issueId */\n      dup3\n        /* \"contracts/WeightedVoting.sol\":4149:4165  issues[_issueId] */\n      dup2\n      sload\n      dup2\n      lt\n      tag_156\n      jumpi\n      tag_157\n      tag_151\n      jump\t// in\n    tag_157:\n    tag_156:\n      swap1\n      0x00\n      mstore\n      keccak256(0x00, 0x20)\n      swap1\n      0x09\n      mul\n      add\n        /* \"contracts/WeightedVoting.sol\":4149:4172  issues[_issueId].closed */\n      0x08\n      add\n      0x01\n      swap1\n      sload\n      swap1\n      0x0100\n      exp\n      swap1\n      div\n      0xff\n      and\n        /* \"contracts/WeightedVoting.sol\":4148:4172  !issues[_issueId].closed */\n      iszero\n        /* \"contracts/WeightedVoting.sol\":4140:4208  require(!issues[_issueId].closed, \"Voting is closed for this issue\") */\n      tag_159\n      jumpi\n      mload(0x40)\n      0x08c379a000000000000000000000000000000000000000000000000000000000\n      dup2\n      mstore\n      0x04\n      add\n      tag_160\n      swap1\n      tag_161\n      jump\t// in\n    tag_160:\n      mload(0x40)\n      dup1\n      swap2\n      sub\n      swap1\n      revert\n    tag_159:\n        /* \"contracts/WeightedVoting.sol\":4306:4350  issues[_issueId].voters.contains(msg.sender) */\n      tag_162\n        /* \"contracts/WeightedVoting.sol\":4339:4349  msg.sender */\n      caller\n        /* \"contracts/WeightedVoting.sol\":4306:4312  issues */\n      0x0a\n        /* \"contracts/WeightedVoting.sol\":4313:4321  _issueId */\n      dup5\n        /* \"contracts/WeightedVoting.sol\":4306:4322  issues[_issueId] */\n      dup2\n      sload\n      dup2\n      lt\n      tag_163\n      jumpi\n      tag_164\n      tag_151\n      jump\t// in\n    tag_164:\n    tag_163:\n      swap1\n      0x00\n      mstore\n      keccak256(0x00, 0x20)\n      swap1\n      0x09\n      mul\n      add\n        /* \"contracts/WeightedVoting.sol\":4306:4329  issues[_issueId].voters */\n      0x00\n      add\n        /* \"contracts/WeightedVoting.sol\":4306:4338  issues[_issueId].voters.contains */\n      tag_166\n      swap1\n        /* \"contracts/WeightedVoting.sol\":4306:4350  issues[_issueId].voters.contains(msg.sender) */\n      swap2\n      swap1\n      0xffffffff\n      and\n      jump\t// in\n    tag_162:\n        /* \"contracts/WeightedVoting.sol\":4305:4350  !issues[_issueId].voters.contains(msg.sender) */\n      iszero\n        /* \"contracts/WeightedVoting.sol\":4284:4403  require(... */\n      tag_167\n      jumpi\n      mload(0x40)\n      0x08c379a000000000000000000000000000000000000000000000000000000000\n      dup2\n      mstore\n      0x04\n      add\n      tag_168\n      swap1\n      tag_169\n      jump\t// in\n    tag_168:\n      mload(0x40)\n      dup1\n      swap2\n      sub\n      swap1\n      revert\n    tag_167:\n        /* \"contracts/WeightedVoting.sol\":4451:4492  WeightedVotingLibrary.Issue storage issue */\n      0x00\n        /* \"contracts/WeightedVoting.sol\":4495:4501  issues */\n      0x0a\n        /* \"contracts/WeightedVoting.sol\":4502:4510  _issueId */\n      dup4\n        /* \"contracts/WeightedVoting.sol\":4495:4511  issues[_issueId] */\n      dup2\n      sload\n      dup2\n      lt\n      tag_170\n      jumpi\n      tag_171\n      tag_151\n      jump\t// in\n    tag_171:\n    tag_170:\n      swap1\n      0x00\n      mstore\n      keccak256(0x00, 0x20)\n      swap1\n      0x09\n      mul\n      add\n        /* \"contracts/WeightedVoting.sol\":4451:4511  WeightedVotingLibrary.Issue storage issue = issues[_issueId] */\n      swap1\n      pop\n        /* \"contracts/WeightedVoting.sol\":4521:4538  uint voterBalance */\n      0x00\n        /* \"contracts/WeightedVoting.sol\":4541:4549  balances */\n      0x08\n        /* \"contracts/WeightedVoting.sol\":4541:4561  balances[msg.sender] */\n      0x00\n        /* \"contracts/WeightedVoting.sol\":4550:4560  msg.sender */\n      caller\n        /* \"contracts/WeightedVoting.sol\":4541:4561  balances[msg.sender] */\n      0xffffffffffffffffffffffffffffffffffffffff\n      and\n      0xffffffffffffffffffffffffffffffffffffffff\n      and\n      dup2\n      mstore\n      0x20\n      add\n      swap1\n      dup2\n      mstore\n      0x20\n      add\n      0x00\n      keccak256\n      sload\n        /* \"contracts/WeightedVoting.sol\":4521:4561  uint voterBalance = balances[msg.sender] */\n      swap1\n      pop\n        /* \"contracts/WeightedVoting.sol\":4585:4616  WeightedVotingLibrary.Votes.FOR */\n      0x01\n        /* \"contracts/WeightedVoting.sol\":4576:4616  _vote == WeightedVotingLibrary.Votes.FOR */\n      0x02\n      dup2\n      gt\n      iszero\n      tag_173\n      jumpi\n      tag_174\n      tag_175\n      jump\t// in\n    tag_174:\n    tag_173:\n        /* \"contracts/WeightedVoting.sol\":4576:4581  _vote */\n      dup4\n        /* \"contracts/WeightedVoting.sol\":4576:4616  _vote == WeightedVotingLibrary.Votes.FOR */\n      0x02\n      dup2\n      gt\n      iszero\n      tag_176\n      jumpi\n      tag_177\n      tag_175\n      jump\t// in\n    tag_177:\n    tag_176:\n      sub\n        /* \"contracts/WeightedVoting.sol\":4572:4963  if (_vote == WeightedVotingLibrary.Votes.FOR) {... */\n      tag_178\n      jumpi\n        /* \"contracts/WeightedVoting.sol\":4650:4662  voterBalance */\n      dup1\n        /* \"contracts/WeightedVoting.sol\":4632:4637  issue */\n      dup3\n        /* \"contracts/WeightedVoting.sol\":4632:4646  issue.votesFor */\n      0x03\n      add\n      0x00\n        /* \"contracts/WeightedVoting.sol\":4632:4662  issue.votesFor += voterBalance */\n      dup3\n      dup3\n      sload\n      tag_179\n      swap2\n      swap1\n      tag_133\n      jump\t// in\n    tag_179:\n      swap3\n      pop\n      pop\n      dup2\n      swap1\n      sstore\n      pop\n        /* \"contracts/WeightedVoting.sol\":4572:4963  if (_vote == WeightedVotingLibrary.Votes.FOR) {... */\n      jump(tag_180)\n    tag_178:\n        /* \"contracts/WeightedVoting.sol\":4692:4727  WeightedVotingLibrary.Votes.AGAINST */\n      0x00\n        /* \"contracts/WeightedVoting.sol\":4683:4727  _vote == WeightedVotingLibrary.Votes.AGAINST */\n      0x02\n      dup2\n      gt\n      iszero\n      tag_181\n      jumpi\n      tag_182\n      tag_175\n      jump\t// in\n    tag_182:\n    tag_181:\n        /* \"contracts/WeightedVoting.sol\":4683:4688  _vote */\n      dup4\n        /* \"contracts/WeightedVoting.sol\":4683:4727  _vote == WeightedVotingLibrary.Votes.AGAINST */\n      0x02\n      dup2\n      gt\n      iszero\n      tag_183\n      jumpi\n      tag_184\n      tag_175\n      jump\t// in\n    tag_184:\n    tag_183:\n      sub\n        /* \"contracts/WeightedVoting.sol\":4679:4963  if (_vote == WeightedVotingLibrary.Votes.AGAINST) {... */\n      tag_185\n      jumpi\n        /* \"contracts/WeightedVoting.sol\":4765:4777  voterBalance */\n      dup1\n        /* \"contracts/WeightedVoting.sol\":4743:4748  issue */\n      dup3\n        /* \"contracts/WeightedVoting.sol\":4743:4761  issue.votesAgainst */\n      0x04\n      add\n      0x00\n        /* \"contracts/WeightedVoting.sol\":4743:4777  issue.votesAgainst += voterBalance */\n      dup3\n      dup3\n      sload\n      tag_186\n      swap2\n      swap1\n      tag_133\n      jump\t// in\n    tag_186:\n      swap3\n      pop\n      pop\n      dup2\n      swap1\n      sstore\n      pop\n        /* \"contracts/WeightedVoting.sol\":4679:4963  if (_vote == WeightedVotingLibrary.Votes.AGAINST) {... */\n      jump(tag_187)\n    tag_185:\n        /* \"contracts/WeightedVoting.sol\":4807:4842  WeightedVotingLibrary.Votes.ABSTAIN */\n      0x02\n        /* \"contracts/WeightedVoting.sol\":4798:4842  _vote == WeightedVotingLibrary.Votes.ABSTAIN */\n      dup1\n      dup2\n      gt\n      iszero\n      tag_188\n      jumpi\n      tag_189\n      tag_175\n      jump\t// in\n    tag_189:\n    tag_188:\n        /* \"contracts/WeightedVoting.sol\":4798:4803  _vote */\n      dup4\n        /* \"contracts/WeightedVoting.sol\":4798:4842  _vote == WeightedVotingLibrary.Votes.ABSTAIN */\n      0x02\n      dup2\n      gt\n      iszero\n      tag_190\n      jumpi\n      tag_191\n      tag_175\n      jump\t// in\n    tag_191:\n    tag_190:\n      sub\n        /* \"contracts/WeightedVoting.sol\":4794:4963  if (_vote == WeightedVotingLibrary.Votes.ABSTAIN) {... */\n      tag_192\n      jumpi\n        /* \"contracts/WeightedVoting.sol\":4880:4892  voterBalance */\n      dup1\n        /* \"contracts/WeightedVoting.sol\":4858:4863  issue */\n      dup3\n        /* \"contracts/WeightedVoting.sol\":4858:4876  issue.votesAbstain */\n      0x05\n      add\n      0x00\n        /* \"contracts/WeightedVoting.sol\":4858:4892  issue.votesAbstain += voterBalance */\n      dup3\n      dup3\n      sload\n      tag_193\n      swap2\n      swap1\n      tag_133\n      jump\t// in\n    tag_193:\n      swap3\n      pop\n      pop\n      dup2\n      swap1\n      sstore\n      pop\n        /* \"contracts/WeightedVoting.sol\":4794:4963  if (_vote == WeightedVotingLibrary.Votes.ABSTAIN) {... */\n      jump(tag_194)\n    tag_192:\n        /* \"contracts/WeightedVoting.sol\":4923:4952  revert(\"Invalid vote option\") */\n      mload(0x40)\n      0x08c379a000000000000000000000000000000000000000000000000000000000\n      dup2\n      mstore\n      0x04\n      add\n      tag_195\n      swap1\n      tag_196\n      jump\t// in\n    tag_195:\n      mload(0x40)\n      dup1\n      swap2\n      sub\n      swap1\n      revert\n        /* \"contracts/WeightedVoting.sol\":4794:4963  if (_vote == WeightedVotingLibrary.Votes.ABSTAIN) {... */\n    tag_194:\n        /* \"contracts/WeightedVoting.sol\":4679:4963  if (_vote == WeightedVotingLibrary.Votes.AGAINST) {... */\n    tag_187:\n        /* \"contracts/WeightedVoting.sol\":4572:4963  if (_vote == WeightedVotingLibrary.Votes.FOR) {... */\n    tag_180:\n        /* \"contracts/WeightedVoting.sol\":5044:5056  voterBalance */\n      dup1\n        /* \"contracts/WeightedVoting.sol\":5024:5029  issue */\n      dup3\n        /* \"contracts/WeightedVoting.sol\":5024:5040  issue.totalVotes */\n      0x06\n      add\n      0x00\n        /* \"contracts/WeightedVoting.sol\":5024:5056  issue.totalVotes += voterBalance */\n      dup3\n      dup3\n      sload\n      tag_197\n      swap2\n      swap1\n      tag_133\n      jump\t// in\n    tag_197:\n      swap3\n      pop\n      pop\n      dup2\n      swap1\n      sstore\n      pop\n        /* \"contracts/WeightedVoting.sol\":5066:5094  issue.voters.add(msg.sender) */\n      tag_198\n        /* \"contracts/WeightedVoting.sol\":5083:5093  msg.sender */\n      caller\n        /* \"contracts/WeightedVoting.sol\":5066:5071  issue */\n      dup4\n        /* \"contracts/WeightedVoting.sol\":5066:5078  issue.voters */\n      0x00\n      add\n        /* \"contracts/WeightedVoting.sol\":5066:5082  issue.voters.add */\n      tag_199\n      swap1\n        /* \"contracts/WeightedVoting.sol\":5066:5094  issue.voters.add(msg.sender) */\n      swap2\n      swap1\n      0xffffffff\n      and\n      jump\t// in\n    tag_198:\n      pop\n        /* \"contracts/WeightedVoting.sol\":5171:5176  issue */\n      dup2\n        /* \"contracts/WeightedVoting.sol\":5171:5183  issue.quorum */\n      0x07\n      add\n      sload\n        /* \"contracts/WeightedVoting.sol\":5151:5156  issue */\n      dup3\n        /* \"contracts/WeightedVoting.sol\":5151:5167  issue.totalVotes */\n      0x06\n      add\n      sload\n        /* \"contracts/WeightedVoting.sol\":5151:5183  issue.totalVotes >= issue.quorum */\n      lt\n        /* \"contracts/WeightedVoting.sol\":5147:5398  if (issue.totalVotes >= issue.quorum) {... */\n      tag_200\n      jumpi\n        /* \"contracts/WeightedVoting.sol\":5214:5218  true */\n      0x01\n        /* \"contracts/WeightedVoting.sol\":5199:5204  issue */\n      dup3\n        /* \"contracts/WeightedVoting.sol\":5199:5211  issue.closed */\n      0x08\n      add\n      0x01\n        /* \"contracts/WeightedVoting.sol\":5199:5218  issue.closed = true */\n      0x0100\n      exp\n      dup2\n      sload\n      dup2\n      0xff\n      mul\n      not\n      and\n      swap1\n      dup4\n      iszero\n      iszero\n      mul\n      or\n      swap1\n      sstore\n      pop\n        /* \"contracts/WeightedVoting.sol\":5316:5321  issue */\n      dup2\n        /* \"contracts/WeightedVoting.sol\":5316:5334  issue.votesAgainst */\n      0x04\n      add\n      sload\n        /* \"contracts/WeightedVoting.sol\":5299:5304  issue */\n      dup3\n        /* \"contracts/WeightedVoting.sol\":5299:5313  issue.votesFor */\n      0x03\n      add\n      sload\n        /* \"contracts/WeightedVoting.sol\":5299:5334  issue.votesFor > issue.votesAgainst */\n      gt\n        /* \"contracts/WeightedVoting.sol\":5295:5388  if (issue.votesFor > issue.votesAgainst) {... */\n      iszero\n      tag_201\n      jumpi\n        /* \"contracts/WeightedVoting.sol\":5369:5373  true */\n      0x01\n        /* \"contracts/WeightedVoting.sol\":5354:5359  issue */\n      dup3\n        /* \"contracts/WeightedVoting.sol\":5354:5366  issue.passed */\n      0x08\n      add\n      0x00\n        /* \"contracts/WeightedVoting.sol\":5354:5373  issue.passed = true */\n      0x0100\n      exp\n      dup2\n      sload\n      dup2\n      0xff\n      mul\n      not\n      and\n      swap1\n      dup4\n      iszero\n      iszero\n      mul\n      or\n      swap1\n      sstore\n      pop\n        /* \"contracts/WeightedVoting.sol\":5295:5388  if (issue.votesFor > issue.votesAgainst) {... */\n    tag_201:\n        /* \"contracts/WeightedVoting.sol\":5147:5398  if (issue.totalVotes >= issue.quorum) {... */\n    tag_200:\n        /* \"contracts/WeightedVoting.sol\":4083:5404  {... */\n      pop\n      pop\n        /* \"contracts/WeightedVoting.sol\":4012:5404  function vote(uint _issueId, WeightedVotingLibrary.Votes _vote) public {... */\n      pop\n      pop\n      jump\t// out\n        /* \"https://github.com/OpenZeppelin/openzeppelin-contracts/blob/v4.8.0/contracts/token/ERC20/ERC20.sol\":2365:2467  function symbol() public view virtual override returns (string memory) {... */\n    tag_81:\n        /* \"https://github.com/OpenZeppelin/openzeppelin-contracts/blob/v4.8.0/contracts/token/ERC20/ERC20.sol\":2421:2434  string memory */\n      0x60\n        /* \"https://github.com/OpenZeppelin/openzeppelin-contracts/blob/v4.8.0/contracts/token/ERC20/ERC20.sol\":2453:2460  _symbol */\n      0x04\n        /* \"https://github.com/OpenZeppelin/openzeppelin-contracts/blob/v4.8.0/contracts/token/ERC20/ERC20.sol\":2446:2460  return _symbol */\n      dup1\n      sload\n      tag_203\n      swap1\n      tag_110\n      jump\t// in\n    tag_203:\n      dup1\n      0x1f\n      add\n      0x20\n      dup1\n      swap2\n      div\n      mul\n      0x20\n      add\n      mload(0x40)\n      swap1\n      dup2\n      add\n      0x40\n      mstore\n      dup1\n      swap3\n      swap2\n      swap1\n      dup2\n      dup2\n      mstore\n      0x20\n      add\n      dup3\n      dup1\n      sload\n      tag_204\n      swap1\n      tag_110\n      jump\t// in\n    tag_204:\n      dup1\n      iszero\n      tag_205\n      jumpi\n      dup1\n      0x1f\n      lt\n      tag_206\n      jumpi\n      0x0100\n      dup1\n      dup4\n      sload\n      div\n      mul\n      dup4\n      mstore\n      swap2\n      0x20\n      add\n      swap2\n      jump(tag_205)\n    tag_206:\n      dup3\n      add\n      swap2\n      swap1\n      0x00\n      mstore\n      keccak256(0x00, 0x20)\n      swap1\n    tag_207:\n      dup2\n      sload\n      dup2\n      mstore\n      swap1\n      0x01\n      add\n      swap1\n      0x20\n      add\n      dup1\n      dup4\n      gt\n      tag_207\n      jumpi\n      dup3\n      swap1\n      sub\n      0x1f\n      and\n      dup3\n      add\n      swap2\n    tag_205:\n      pop\n      pop\n      pop\n      pop\n      pop\n      swap1\n      pop\n        /* \"https://github.com/OpenZeppelin/openzeppelin-contracts/blob/v4.8.0/contracts/token/ERC20/ERC20.sol\":2365:2467  function symbol() public view virtual override returns (string memory) {... */\n      swap1\n      jump\t// out\n        /* \"contracts/WeightedVoting.sol\":1756:1781  uint public claimedAmount */\n    tag_84:\n      sload(0x07)\n      dup2\n      jump\t// out\n        /* \"contracts/WeightedVoting.sol\":3259:3982  function getIssue(... */\n    tag_89:\n        /* \"contracts/WeightedVoting.sol\":3324:3362  WeightedVotingLibrary.IssueView memory */\n      tag_208\n      tag_209\n      jump\t// in\n    tag_208:\n        /* \"contracts/WeightedVoting.sol\":3374:3415  WeightedVotingLibrary.Issue storage issue */\n      0x00\n        /* \"contracts/WeightedVoting.sol\":3418:3424  issues */\n      0x0a\n        /* \"contracts/WeightedVoting.sol\":3425:3428  _id */\n      dup4\n        /* \"contracts/WeightedVoting.sol\":3418:3429  issues[_id] */\n      dup2\n      sload\n      dup2\n      lt\n      tag_211\n      jumpi\n      tag_212\n      tag_151\n      jump\t// in\n    tag_212:\n    tag_211:\n      swap1\n      0x00\n      mstore\n      keccak256(0x00, 0x20)\n      swap1\n      0x09\n      mul\n      add\n        /* \"contracts/WeightedVoting.sol\":3374:3429  WeightedVotingLibrary.Issue storage issue = issues[_id] */\n      swap1\n      pop\n        /* \"contracts/WeightedVoting.sol\":3440:3463  address[] memory voters */\n      0x00\n        /* \"contracts/WeightedVoting.sol\":3480:3501  issue.voters.length() */\n      tag_214\n        /* \"contracts/WeightedVoting.sol\":3480:3485  issue */\n      dup3\n        /* \"contracts/WeightedVoting.sol\":3480:3492  issue.voters */\n      0x00\n      add\n        /* \"contracts/WeightedVoting.sol\":3480:3499  issue.voters.length */\n      tag_215\n        /* \"contracts/WeightedVoting.sol\":3480:3501  issue.voters.length() */\n      jump\t// in\n    tag_214:\n        /* \"contracts/WeightedVoting.sol\":3466:3502  new address[](issue.voters.length()) */\n      0xffffffffffffffff\n      dup2\n      gt\n      iszero\n      tag_216\n      jumpi\n      tag_217\n      tag_218\n      jump\t// in\n    tag_217:\n    tag_216:\n      mload(0x40)\n      swap1\n      dup1\n      dup3\n      mstore\n      dup1\n      0x20\n      mul\n      0x20\n      add\n      dup3\n      add\n      0x40\n      mstore\n      dup1\n      iszero\n      tag_219\n      jumpi\n      dup2\n      0x20\n      add\n      0x20\n      dup3\n      mul\n      dup1\n      calldatasize\n      dup4\n      calldatacopy\n      dup1\n      dup3\n      add\n      swap2\n      pop\n      pop\n      swap1\n      pop\n    tag_219:\n      pop\n        /* \"contracts/WeightedVoting.sol\":3440:3502  address[] memory voters = new address[](issue.voters.length()) */\n      swap1\n      pop\n        /* \"contracts/WeightedVoting.sol\":3517:3523  uint i */\n      0x00\n        /* \"contracts/WeightedVoting.sol\":3512:3616  for (uint i = 0; i < issue.voters.length(); i++) {... */\n    tag_220:\n        /* \"contracts/WeightedVoting.sol\":3533:3554  issue.voters.length() */\n      tag_223\n        /* \"contracts/WeightedVoting.sol\":3533:3538  issue */\n      dup4\n        /* \"contracts/WeightedVoting.sol\":3533:3545  issue.voters */\n      0x00\n      add\n        /* \"contracts/WeightedVoting.sol\":3533:3552  issue.voters.length */\n      tag_215\n        /* \"contracts/WeightedVoting.sol\":3533:3554  issue.voters.length() */\n      jump\t// in\n    tag_223:\n        /* \"contracts/WeightedVoting.sol\":3529:3530  i */\n      dup2\n        /* \"contracts/WeightedVoting.sol\":3529:3554  i < issue.voters.length() */\n      lt\n        /* \"contracts/WeightedVoting.sol\":3512:3616  for (uint i = 0; i < issue.voters.length(); i++) {... */\n      iszero\n      tag_221\n      jumpi\n        /* \"contracts/WeightedVoting.sol\":3587:3605  issue.voters.at(i) */\n      tag_224\n        /* \"contracts/WeightedVoting.sol\":3603:3604  i */\n      dup2\n        /* \"contracts/WeightedVoting.sol\":3587:3592  issue */\n      dup5\n        /* \"contracts/WeightedVoting.sol\":3587:3599  issue.voters */\n      0x00\n      add\n        /* \"contracts/WeightedVoting.sol\":3587:3602  issue.voters.at */\n      tag_225\n      swap1\n        /* \"contracts/WeightedVoting.sol\":3587:3605  issue.voters.at(i) */\n      swap2\n      swap1\n      0xffffffff\n      and\n      jump\t// in\n    tag_224:\n        /* \"contracts/WeightedVoting.sol\":3575:3581  voters */\n      dup3\n        /* \"contracts/WeightedVoting.sol\":3582:3583  i */\n      dup3\n        /* \"contracts/WeightedVoting.sol\":3575:3584  voters[i] */\n      dup2\n      mload\n      dup2\n      lt\n      tag_226\n      jumpi\n      tag_227\n      tag_151\n      jump\t// in\n    tag_227:\n    tag_226:\n      0x20\n      mul\n      0x20\n      add\n      add\n        /* \"contracts/WeightedVoting.sol\":3575:3605  voters[i] = issue.voters.at(i) */\n      swap1\n      0xffffffffffffffffffffffffffffffffffffffff\n      and\n      swap1\n      dup2\n      0xffffffffffffffffffffffffffffffffffffffff\n      and\n      dup2\n      mstore\n      pop\n      pop\n        /* \"contracts/WeightedVoting.sol\":3556:3559  i++ */\n      dup1\n      dup1\n      tag_228\n      swap1\n      tag_229\n      jump\t// in\n    tag_228:\n      swap2\n      pop\n      pop\n        /* \"contracts/WeightedVoting.sol\":3512:3616  for (uint i = 0; i < issue.voters.length(); i++) {... */\n      jump(tag_220)\n    tag_221:\n      pop\n        /* \"contracts/WeightedVoting.sol\":3645:3975  WeightedVotingLibrary.IssueView(... */\n      mload(0x40)\n      dup1\n      0x0120\n      add\n      0x40\n      mstore\n      dup1\n        /* \"contracts/WeightedVoting.sol\":3694:3700  voters */\n      dup3\n        /* \"contracts/WeightedVoting.sol\":3645:3975  WeightedVotingLibrary.IssueView(... */\n      dup2\n      mstore\n      0x20\n      add\n        /* \"contracts/WeightedVoting.sol\":3718:3723  issue */\n      dup4\n        /* \"contracts/WeightedVoting.sol\":3718:3733  issue.issueDesc */\n      0x02\n      add\n        /* \"contracts/WeightedVoting.sol\":3645:3975  WeightedVotingLibrary.IssueView(... */\n      dup1\n      sload\n      tag_230\n      swap1\n      tag_110\n      jump\t// in\n    tag_230:\n      dup1\n      0x1f\n      add\n      0x20\n      dup1\n      swap2\n      div\n      mul\n      0x20\n      add\n      mload(0x40)\n      swap1\n      dup2\n      add\n      0x40\n      mstore\n      dup1\n      swap3\n      swap2\n      swap1\n      dup2\n      dup2\n      mstore\n      0x20\n      add\n      dup3\n      dup1\n      sload\n      tag_231\n      swap1\n      tag_110\n      jump\t// in\n    tag_231:\n      dup1\n      iszero\n      tag_232\n      jumpi\n      dup1\n      0x1f\n      lt\n      tag_233\n      jumpi\n      0x0100\n      dup1\n      dup4\n      sload\n      div\n      mul\n      dup4\n      mstore\n      swap2\n      0x20\n      add\n      swap2\n      jump(tag_232)\n    tag_233:\n      dup3\n      add\n      swap2\n      swap1\n      0x00\n      mstore\n      keccak256(0x00, 0x20)\n      swap1\n    tag_234:\n      dup2\n      sload\n      dup2\n      mstore\n      swap1\n      0x01\n      add\n      swap1\n      0x20\n      add\n      dup1\n      dup4\n      gt\n      tag_234\n      jumpi\n      dup3\n      swap1\n      sub\n      0x1f\n      and\n      dup3\n      add\n      swap2\n    tag_232:\n      pop\n      pop\n      pop\n      pop\n      pop\n      dup2\n      mstore\n      0x20\n      add\n        /* \"contracts/WeightedVoting.sol\":3751:3756  issue */\n      dup4\n        /* \"contracts/WeightedVoting.sol\":3751:3765  issue.votesFor */\n      0x03\n      add\n      sload\n        /* \"contracts/WeightedVoting.sol\":3645:3975  WeightedVotingLibrary.IssueView(... */\n      dup2\n      mstore\n      0x20\n      add\n        /* \"contracts/WeightedVoting.sol\":3783:3788  issue */\n      dup4\n        /* \"contracts/WeightedVoting.sol\":3783:3801  issue.votesAgainst */\n      0x04\n      add\n      sload\n        /* \"contracts/WeightedVoting.sol\":3645:3975  WeightedVotingLibrary.IssueView(... */\n      dup2\n      mstore\n      0x20\n      add\n        /* \"contracts/WeightedVoting.sol\":3819:3824  issue */\n      dup4\n        /* \"contracts/WeightedVoting.sol\":3819:3837  issue.votesAbstain */\n      0x05\n      add\n      sload\n        /* \"contracts/WeightedVoting.sol\":3645:3975  WeightedVotingLibrary.IssueView(... */\n      dup2\n      mstore\n      0x20\n      add\n        /* \"contracts/WeightedVoting.sol\":3855:3860  issue */\n      dup4\n        /* \"contracts/WeightedVoting.sol\":3855:3871  issue.totalVotes */\n      0x06\n      add\n      sload\n        /* \"contracts/WeightedVoting.sol\":3645:3975  WeightedVotingLibrary.IssueView(... */\n      dup2\n      mstore\n      0x20\n      add\n        /* \"contracts/WeightedVoting.sol\":3889:3894  issue */\n      dup4\n        /* \"contracts/WeightedVoting.sol\":3889:3901  issue.quorum */\n      0x07\n      add\n      sload\n        /* \"contracts/WeightedVoting.sol\":3645:3975  WeightedVotingLibrary.IssueView(... */\n      dup2\n      mstore\n      0x20\n      add\n        /* \"contracts/WeightedVoting.sol\":3919:3924  issue */\n      dup4\n        /* \"contracts/WeightedVoting.sol\":3919:3931  issue.passed */\n      0x08\n      add\n      0x00\n      swap1\n      sload\n      swap1\n      0x0100\n      exp\n      swap1\n      div\n      0xff\n      and\n        /* \"contracts/WeightedVoting.sol\":3645:3975  WeightedVotingLibrary.IssueView(... */\n      iszero\n      iszero\n      dup2\n      mstore\n      0x20\n      add\n        /* \"contracts/WeightedVoting.sol\":3949:3954  issue */\n      dup4\n        /* \"contracts/WeightedVoting.sol\":3949:3961  issue.closed */\n      0x08\n      add\n      0x01\n      swap1\n      sload\n      swap1\n      0x0100\n      exp\n      swap1\n      div\n      0xff\n      and\n        /* \"contracts/WeightedVoting.sol\":3645:3975  WeightedVotingLibrary.IssueView(... */\n      iszero\n      iszero\n      dup2\n      mstore\n      pop\n        /* \"contracts/WeightedVoting.sol\":3626:3975  return... */\n      swap3\n      pop\n      pop\n      pop\n        /* \"contracts/WeightedVoting.sol\":3259:3982  function getIssue(... */\n      swap2\n      swap1\n      pop\n      jump\t// out\n        /* \"https://github.com/OpenZeppelin/openzeppelin-contracts/blob/v4.8.0/contracts/token/ERC20/ERC20.sol\":6592:7019  function decreaseAllowance(address spender, uint256 subtractedValue) public virtual returns (bool) {... */\n    tag_94:\n        /* \"https://github.com/OpenZeppelin/openzeppelin-contracts/blob/v4.8.0/contracts/token/ERC20/ERC20.sol\":6685:6689  bool */\n      0x00\n        /* \"https://github.com/OpenZeppelin/openzeppelin-contracts/blob/v4.8.0/contracts/token/ERC20/ERC20.sol\":6701:6714  address owner */\n      dup1\n        /* \"https://github.com/OpenZeppelin/openzeppelin-contracts/blob/v4.8.0/contracts/token/ERC20/ERC20.sol\":6717:6729  _msgSender() */\n      tag_236\n        /* \"https://github.com/OpenZeppelin/openzeppelin-contracts/blob/v4.8.0/contracts/token/ERC20/ERC20.sol\":6717:6727  _msgSender */\n      tag_117\n        /* \"https://github.com/OpenZeppelin/openzeppelin-contracts/blob/v4.8.0/contracts/token/ERC20/ERC20.sol\":6717:6729  _msgSender() */\n      jump\t// in\n    tag_236:\n        /* \"https://github.com/OpenZeppelin/openzeppelin-contracts/blob/v4.8.0/contracts/token/ERC20/ERC20.sol\":6701:6729  address owner = _msgSender() */\n      swap1\n      pop\n        /* \"https://github.com/OpenZeppelin/openzeppelin-contracts/blob/v4.8.0/contracts/token/ERC20/ERC20.sol\":6739:6763  uint256 currentAllowance */\n      0x00\n        /* \"https://github.com/OpenZeppelin/openzeppelin-contracts/blob/v4.8.0/contracts/token/ERC20/ERC20.sol\":6766:6791  allowance(owner, spender) */\n      tag_237\n        /* \"https://github.com/OpenZeppelin/openzeppelin-contracts/blob/v4.8.0/contracts/token/ERC20/ERC20.sol\":6776:6781  owner */\n      dup3\n        /* \"https://github.com/OpenZeppelin/openzeppelin-contracts/blob/v4.8.0/contracts/token/ERC20/ERC20.sol\":6783:6790  spender */\n      dup7\n        /* \"https://github.com/OpenZeppelin/openzeppelin-contracts/blob/v4.8.0/contracts/token/ERC20/ERC20.sol\":6766:6775  allowance */\n      tag_106\n        /* \"https://github.com/OpenZeppelin/openzeppelin-contracts/blob/v4.8.0/contracts/token/ERC20/ERC20.sol\":6766:6791  allowance(owner, spender) */\n      jump\t// in\n    tag_237:\n        /* \"https://github.com/OpenZeppelin/openzeppelin-contracts/blob/v4.8.0/contracts/token/ERC20/ERC20.sol\":6739:6791  uint256 currentAllowance = allowance(owner, spender) */\n      swap1\n      pop\n        /* \"https://github.com/OpenZeppelin/openzeppelin-contracts/blob/v4.8.0/contracts/token/ERC20/ERC20.sol\":6829:6844  subtractedValue */\n      dup4\n        /* \"https://github.com/OpenZeppelin/openzeppelin-contracts/blob/v4.8.0/contracts/token/ERC20/ERC20.sol\":6809:6825  currentAllowance */\n      dup2\n        /* \"https://github.com/OpenZeppelin/openzeppelin-contracts/blob/v4.8.0/contracts/token/ERC20/ERC20.sol\":6809:6844  currentAllowance >= subtractedValue */\n      lt\n      iszero\n        /* \"https://github.com/OpenZeppelin/openzeppelin-contracts/blob/v4.8.0/contracts/token/ERC20/ERC20.sol\":6801:6886  require(currentAllowance >= subtractedValue, \"ERC20: decreased allowance below zero\") */\n      tag_238\n      jumpi\n      mload(0x40)\n      0x08c379a000000000000000000000000000000000000000000000000000000000\n      dup2\n      mstore\n      0x04\n      add\n      tag_239\n      swap1\n      tag_240\n      jump\t// in\n    tag_239:\n      mload(0x40)\n      dup1\n      swap2\n      sub\n      swap1\n      revert\n    tag_238:\n        /* \"https://github.com/OpenZeppelin/openzeppelin-contracts/blob/v4.8.0/contracts/token/ERC20/ERC20.sol\":6920:6980  _approve(owner, spender, currentAllowance - subtractedValue) */\n      tag_241\n        /* \"https://github.com/OpenZeppelin/openzeppelin-contracts/blob/v4.8.0/contracts/token/ERC20/ERC20.sol\":6929:6934  owner */\n      dup3\n        /* \"https://github.com/OpenZeppelin/openzeppelin-contracts/blob/v4.8.0/contracts/token/ERC20/ERC20.sol\":6936:6943  spender */\n      dup7\n        /* \"https://github.com/OpenZeppelin/openzeppelin-contracts/blob/v4.8.0/contracts/token/ERC20/ERC20.sol\":6964:6979  subtractedValue */\n      dup7\n        /* \"https://github.com/OpenZeppelin/openzeppelin-contracts/blob/v4.8.0/contracts/token/ERC20/ERC20.sol\":6945:6961  currentAllowance */\n      dup5\n        /* \"https://github.com/OpenZeppelin/openzeppelin-contracts/blob/v4.8.0/contracts/token/ERC20/ERC20.sol\":6945:6979  currentAllowance - subtractedValue */\n      sub\n        /* \"https://github.com/OpenZeppelin/openzeppelin-contracts/blob/v4.8.0/contracts/token/ERC20/ERC20.sol\":6920:6928  _approve */\n      tag_119\n        /* \"https://github.com/OpenZeppelin/openzeppelin-contracts/blob/v4.8.0/contracts/token/ERC20/ERC20.sol\":6920:6980  _approve(owner, spender, currentAllowance - subtractedValue) */\n      jump\t// in\n    tag_241:\n        /* \"https://github.com/OpenZeppelin/openzeppelin-contracts/blob/v4.8.0/contracts/token/ERC20/ERC20.sol\":7008:7012  true */\n      0x01\n        /* \"https://github.com/OpenZeppelin/openzeppelin-contracts/blob/v4.8.0/contracts/token/ERC20/ERC20.sol\":7001:7012  return true */\n      swap3\n      pop\n      pop\n      pop\n        /* \"https://github.com/OpenZeppelin/openzeppelin-contracts/blob/v4.8.0/contracts/token/ERC20/ERC20.sol\":6592:7019  function decreaseAllowance(address spender, uint256 subtractedValue) public virtual returns (bool) {... */\n      swap3\n      swap2\n      pop\n      pop\n      jump\t// out\n        /* \"https://github.com/OpenZeppelin/openzeppelin-contracts/blob/v4.8.0/contracts/token/ERC20/ERC20.sol\":3727:3916  function transfer(address to, uint256 amount) public virtual override returns (bool) {... */\n    tag_98:\n        /* \"https://github.com/OpenZeppelin/openzeppelin-contracts/blob/v4.8.0/contracts/token/ERC20/ERC20.sol\":3806:3810  bool */\n      0x00\n        /* \"https://github.com/OpenZeppelin/openzeppelin-contracts/blob/v4.8.0/contracts/token/ERC20/ERC20.sol\":3822:3835  address owner */\n      dup1\n        /* \"https://github.com/OpenZeppelin/openzeppelin-contracts/blob/v4.8.0/contracts/token/ERC20/ERC20.sol\":3838:3850  _msgSender() */\n      tag_243\n        /* \"https://github.com/OpenZeppelin/openzeppelin-contracts/blob/v4.8.0/contracts/token/ERC20/ERC20.sol\":3838:3848  _msgSender */\n      tag_117\n        /* \"https://github.com/OpenZeppelin/openzeppelin-contracts/blob/v4.8.0/contracts/token/ERC20/ERC20.sol\":3838:3850  _msgSender() */\n      jump\t// in\n    tag_243:\n        /* \"https://github.com/OpenZeppelin/openzeppelin-contracts/blob/v4.8.0/contracts/token/ERC20/ERC20.sol\":3822:3850  address owner = _msgSender() */\n      swap1\n      pop\n        /* \"https://github.com/OpenZeppelin/openzeppelin-contracts/blob/v4.8.0/contracts/token/ERC20/ERC20.sol\":3860:3888  _transfer(owner, to, amount) */\n      tag_244\n        /* \"https://github.com/OpenZeppelin/openzeppelin-contracts/blob/v4.8.0/contracts/token/ERC20/ERC20.sol\":3870:3875  owner */\n      dup2\n        /* \"https://github.com/OpenZeppelin/openzeppelin-contracts/blob/v4.8.0/contracts/token/ERC20/ERC20.sol\":3877:3879  to */\n      dup6\n        /* \"https://github.com/OpenZeppelin/openzeppelin-contracts/blob/v4.8.0/contracts/token/ERC20/ERC20.sol\":3881:3887  amount */\n      dup6\n        /* \"https://github.com/OpenZeppelin/openzeppelin-contracts/blob/v4.8.0/contracts/token/ERC20/ERC20.sol\":3860:3869  _transfer */\n      tag_126\n        /* \"https://github.com/OpenZeppelin/openzeppelin-contracts/blob/v4.8.0/contracts/token/ERC20/ERC20.sol\":3860:3888  _transfer(owner, to, amount) */\n      jump\t// in\n    tag_244:\n        /* \"https://github.com/OpenZeppelin/openzeppelin-contracts/blob/v4.8.0/contracts/token/ERC20/ERC20.sol\":3905:3909  true */\n      0x01\n        /* \"https://github.com/OpenZeppelin/openzeppelin-contracts/blob/v4.8.0/contracts/token/ERC20/ERC20.sol\":3898:3909  return true */\n      swap2\n      pop\n      pop\n        /* \"https://github.com/OpenZeppelin/openzeppelin-contracts/blob/v4.8.0/contracts/token/ERC20/ERC20.sol\":3727:3916  function transfer(address to, uint256 amount) public virtual override returns (bool) {... */\n      swap3\n      swap2\n      pop\n      pop\n      jump\t// out\n        /* \"contracts/WeightedVoting.sol\":1700:1721  uint public maxSupply */\n    tag_101:\n      sload(0x05)\n      dup2\n      jump\t// out\n        /* \"https://github.com/OpenZeppelin/openzeppelin-contracts/blob/v4.8.0/contracts/token/ERC20/ERC20.sol\":3974:4123  function allowance(address owner, address spender) public view virtual override returns (uint256) {... */\n    tag_106:\n        /* \"https://github.com/OpenZeppelin/openzeppelin-contracts/blob/v4.8.0/contracts/token/ERC20/ERC20.sol\":4063:4070  uint256 */\n      0x00\n        /* \"https://github.com/OpenZeppelin/openzeppelin-contracts/blob/v4.8.0/contracts/token/ERC20/ERC20.sol\":4089:4100  _allowances */\n      0x01\n        /* \"https://github.com/OpenZeppelin/openzeppelin-contracts/blob/v4.8.0/contracts/token/ERC20/ERC20.sol\":4089:4107  _allowances[owner] */\n      0x00\n        /* \"https://github.com/OpenZeppelin/openzeppelin-contracts/blob/v4.8.0/contracts/token/ERC20/ERC20.sol\":4101:4106  owner */\n      dup5\n        /* \"https://github.com/OpenZeppelin/openzeppelin-contracts/blob/v4.8.0/contracts/token/ERC20/ERC20.sol\":4089:4107  _allowances[owner] */\n      0xffffffffffffffffffffffffffffffffffffffff\n      and\n      0xffffffffffffffffffffffffffffffffffffffff\n      and\n      dup2\n      mstore\n      0x20\n      add\n      swap1\n      dup2\n      mstore\n      0x20\n      add\n      0x00\n      keccak256\n        /* \"https://github.com/OpenZeppelin/openzeppelin-contracts/blob/v4.8.0/contracts/token/ERC20/ERC20.sol\":4089:4116  _allowances[owner][spender] */\n      0x00\n        /* \"https://github.com/OpenZeppelin/openzeppelin-contracts/blob/v4.8.0/contracts/token/ERC20/ERC20.sol\":4108:4115  spender */\n      dup4\n        /* \"https://github.com/OpenZeppelin/openzeppelin-contracts/blob/v4.8.0/contracts/token/ERC20/ERC20.sol\":4089:4116  _allowances[owner][spender] */\n      0xffffffffffffffffffffffffffffffffffffffff\n      and\n      0xffffffffffffffffffffffffffffffffffffffff\n      and\n      dup2\n      mstore\n      0x20\n      add\n      swap1\n      dup2\n      mstore\n      0x20\n      add\n      0x00\n      keccak256\n      sload\n        /* \"https://github.com/OpenZeppelin/openzeppelin-contracts/blob/v4.8.0/contracts/token/ERC20/ERC20.sol\":4082:4116  return _allowances[owner][spender] */\n      swap1\n      pop\n        /* \"https://github.com/OpenZeppelin/openzeppelin-contracts/blob/v4.8.0/contracts/token/ERC20/ERC20.sol\":3974:4123  function allowance(address owner, address spender) public view virtual override returns (uint256) {... */\n      swap3\n      swap2\n      pop\n      pop\n      jump\t// out\n        /* \"https://github.com/OpenZeppelin/openzeppelin-contracts/blob/v4.8.0/contracts/utils/Context.sol\":640:736  function _msgSender() internal view virtual returns (address) {... */\n    tag_117:\n        /* \"https://github.com/OpenZeppelin/openzeppelin-contracts/blob/v4.8.0/contracts/utils/Context.sol\":693:700  address */\n      0x00\n        /* \"https://github.com/OpenZeppelin/openzeppelin-contracts/blob/v4.8.0/contracts/utils/Context.sol\":719:729  msg.sender */\n      caller\n        /* \"https://github.com/OpenZeppelin/openzeppelin-contracts/blob/v4.8.0/contracts/utils/Context.sol\":712:729  return msg.sender */\n      swap1\n      pop\n        /* \"https://github.com/OpenZeppelin/openzeppelin-contracts/blob/v4.8.0/contracts/utils/Context.sol\":640:736  function _msgSender() internal view virtual returns (address) {... */\n      swap1\n      jump\t// out\n        /* \"https://github.com/OpenZeppelin/openzeppelin-contracts/blob/v4.8.0/contracts/token/ERC20/ERC20.sol\":10504:10874  function _approve(... */\n    tag_119:\n        /* \"https://github.com/OpenZeppelin/openzeppelin-contracts/blob/v4.8.0/contracts/token/ERC20/ERC20.sol\":10652:10653  0 */\n      0x00\n        /* \"https://github.com/OpenZeppelin/openzeppelin-contracts/blob/v4.8.0/contracts/token/ERC20/ERC20.sol\":10635:10654  owner != address(0) */\n      0xffffffffffffffffffffffffffffffffffffffff\n      and\n        /* \"https://github.com/OpenZeppelin/openzeppelin-contracts/blob/v4.8.0/contracts/token/ERC20/ERC20.sol\":10635:10640  owner */\n      dup4\n        /* \"https://github.com/OpenZeppelin/openzeppelin-contracts/blob/v4.8.0/contracts/token/ERC20/ERC20.sol\":10635:10654  owner != address(0) */\n      0xffffffffffffffffffffffffffffffffffffffff\n      and\n      sub\n        /* \"https://github.com/OpenZeppelin/openzeppelin-contracts/blob/v4.8.0/contracts/token/ERC20/ERC20.sol\":10627:10695  require(owner != address(0), \"ERC20: approve from the zero address\") */\n      tag_248\n      jumpi\n      mload(0x40)\n      0x08c379a000000000000000000000000000000000000000000000000000000000\n      dup2\n      mstore\n      0x04\n      add\n      tag_249\n      swap1\n      tag_250\n      jump\t// in\n    tag_249:\n      mload(0x40)\n      dup1\n      swap2\n      sub\n      swap1\n      revert\n    tag_248:\n        /* \"https://github.com/OpenZeppelin/openzeppelin-contracts/blob/v4.8.0/contracts/token/ERC20/ERC20.sol\":10732:10733  0 */\n      0x00\n        /* \"https://github.com/OpenZeppelin/openzeppelin-contracts/blob/v4.8.0/contracts/token/ERC20/ERC20.sol\":10713:10734  spender != address(0) */\n      0xffffffffffffffffffffffffffffffffffffffff\n      and\n        /* \"https://github.com/OpenZeppelin/openzeppelin-contracts/blob/v4.8.0/contracts/token/ERC20/ERC20.sol\":10713:10720  spender */\n      dup3\n        /* \"https://github.com/OpenZeppelin/openzeppelin-contracts/blob/v4.8.0/contracts/token/ERC20/ERC20.sol\":10713:10734  spender != address(0) */\n      0xffffffffffffffffffffffffffffffffffffffff\n      and\n      sub\n        /* \"https://github.com/OpenZeppelin/openzeppelin-contracts/blob/v4.8.0/contracts/token/ERC20/ERC20.sol\":10705:10773  require(spender != address(0), \"ERC20: approve to the zero address\") */\n      tag_251\n      jumpi\n      mload(0x40)\n      0x08c379a000000000000000000000000000000000000000000000000000000000\n      dup2\n      mstore\n      0x04\n      add\n      tag_252\n      swap1\n      tag_253\n      jump\t// in\n    tag_252:\n      mload(0x40)\n      dup1\n      swap2\n      sub\n      swap1\n      revert\n    tag_251:\n        /* \"https://github.com/OpenZeppelin/openzeppelin-contracts/blob/v4.8.0/contracts/token/ERC20/ERC20.sol\":10814:10820  amount */\n      dup1\n        /* \"https://github.com/OpenZeppelin/openzeppelin-contracts/blob/v4.8.0/contracts/token/ERC20/ERC20.sol\":10784:10795  _allowances */\n      0x01\n        /* \"https://github.com/OpenZeppelin/openzeppelin-contracts/blob/v4.8.0/contracts/token/ERC20/ERC20.sol\":10784:10802  _allowances[owner] */\n      0x00\n        /* \"https://github.com/OpenZeppelin/openzeppelin-contracts/blob/v4.8.0/contracts/token/ERC20/ERC20.sol\":10796:10801  owner */\n      dup6\n        /* \"https://github.com/OpenZeppelin/openzeppelin-contracts/blob/v4.8.0/contracts/token/ERC20/ERC20.sol\":10784:10802  _allowances[owner] */\n      0xffffffffffffffffffffffffffffffffffffffff\n      and\n      0xffffffffffffffffffffffffffffffffffffffff\n      and\n      dup2\n      mstore\n      0x20\n      add\n      swap1\n      dup2\n      mstore\n      0x20\n      add\n      0x00\n      keccak256\n        /* \"https://github.com/OpenZeppelin/openzeppelin-contracts/blob/v4.8.0/contracts/token/ERC20/ERC20.sol\":10784:10811  _allowances[owner][spender] */\n      0x00\n        /* \"https://github.com/OpenZeppelin/openzeppelin-contracts/blob/v4.8.0/contracts/token/ERC20/ERC20.sol\":10803:10810  spender */\n      dup5\n        /* \"https://github.com/OpenZeppelin/openzeppelin-contracts/blob/v4.8.0/contracts/token/ERC20/ERC20.sol\":10784:10811  _allowances[owner][spender] */\n      0xffffffffffffffffffffffffffffffffffffffff\n      and\n      0xffffffffffffffffffffffffffffffffffffffff\n      and\n      dup2\n      mstore\n      0x20\n      add\n      swap1\n      dup2\n      mstore\n      0x20\n      add\n      0x00\n      keccak256\n        /* \"https://github.com/OpenZeppelin/openzeppelin-contracts/blob/v4.8.0/contracts/token/ERC20/ERC20.sol\":10784:10820  _allowances[owner][spender] = amount */\n      dup2\n      swap1\n      sstore\n      pop\n        /* \"https://github.com/OpenZeppelin/openzeppelin-contracts/blob/v4.8.0/contracts/token/ERC20/ERC20.sol\":10851:10858  spender */\n      dup2\n        /* \"https://github.com/OpenZeppelin/openzeppelin-contracts/blob/v4.8.0/contracts/token/ERC20/ERC20.sol\":10835:10867  Approval(owner, spender, amount) */\n      0xffffffffffffffffffffffffffffffffffffffff\n      and\n        /* \"https://github.com/OpenZeppelin/openzeppelin-contracts/blob/v4.8.0/contracts/token/ERC20/ERC20.sol\":10844:10849  owner */\n      dup4\n        /* \"https://github.com/OpenZeppelin/openzeppelin-contracts/blob/v4.8.0/contracts/token/ERC20/ERC20.sol\":10835:10867  Approval(owner, spender, amount) */\n      0xffffffffffffffffffffffffffffffffffffffff\n      and\n      0x8c5be1e5ebec7d5bd14f71427d1e84f3dd0314c0f7b2291e5b200ac8c7c3b925\n        /* \"https://github.com/OpenZeppelin/openzeppelin-contracts/blob/v4.8.0/contracts/token/ERC20/ERC20.sol\":10860:10866  amount */\n      dup4\n        /* \"https://github.com/OpenZeppelin/openzeppelin-contracts/blob/v4.8.0/contracts/token/ERC20/ERC20.sol\":10835:10867  Approval(owner, spender, amount) */\n      mload(0x40)\n      tag_254\n      swap2\n      swap1\n      tag_39\n      jump\t// in\n    tag_254:\n      mload(0x40)\n      dup1\n      swap2\n      sub\n      swap1\n      log3\n        /* \"https://github.com/OpenZeppelin/openzeppelin-contracts/blob/v4.8.0/contracts/token/ERC20/ERC20.sol\":10504:10874  function _approve(... */\n      pop\n      pop\n      pop\n      jump\t// out\n        /* \"https://github.com/OpenZeppelin/openzeppelin-contracts/blob/v4.8.0/contracts/token/ERC20/ERC20.sol\":11155:11596  function _spendAllowance(... */\n    tag_124:\n        /* \"https://github.com/OpenZeppelin/openzeppelin-contracts/blob/v4.8.0/contracts/token/ERC20/ERC20.sol\":11285:11309  uint256 currentAllowance */\n      0x00\n        /* \"https://github.com/OpenZeppelin/openzeppelin-contracts/blob/v4.8.0/contracts/token/ERC20/ERC20.sol\":11312:11337  allowance(owner, spender) */\n      tag_256\n        /* \"https://github.com/OpenZeppelin/openzeppelin-contracts/blob/v4.8.0/contracts/token/ERC20/ERC20.sol\":11322:11327  owner */\n      dup5\n        /* \"https://github.com/OpenZeppelin/openzeppelin-contracts/blob/v4.8.0/contracts/token/ERC20/ERC20.sol\":11329:11336  spender */\n      dup5\n        /* \"https://github.com/OpenZeppelin/openzeppelin-contracts/blob/v4.8.0/contracts/token/ERC20/ERC20.sol\":11312:11321  allowance */\n      tag_106\n        /* \"https://github.com/OpenZeppelin/openzeppelin-contracts/blob/v4.8.0/contracts/token/ERC20/ERC20.sol\":11312:11337  allowance(owner, spender) */\n      jump\t// in\n    tag_256:\n        /* \"https://github.com/OpenZeppelin/openzeppelin-contracts/blob/v4.8.0/contracts/token/ERC20/ERC20.sol\":11285:11337  uint256 currentAllowance = allowance(owner, spender) */\n      swap1\n      pop\n        /* \"https://github.com/OpenZeppelin/openzeppelin-contracts/blob/v4.8.0/contracts/token/ERC20/ERC20.sol\":11371:11388  type(uint256).max */\n      0xffffffffffffffffffffffffffffffffffffffffffffffffffffffffffffffff\n        /* \"https://github.com/OpenZeppelin/openzeppelin-contracts/blob/v4.8.0/contracts/token/ERC20/ERC20.sol\":11351:11367  currentAllowance */\n      dup2\n        /* \"https://github.com/OpenZeppelin/openzeppelin-contracts/blob/v4.8.0/contracts/token/ERC20/ERC20.sol\":11351:11388  currentAllowance != type(uint256).max */\n      eq\n        /* \"https://github.com/OpenZeppelin/openzeppelin-contracts/blob/v4.8.0/contracts/token/ERC20/ERC20.sol\":11347:11590  if (currentAllowance != type(uint256).max) {... */\n      tag_257\n      jumpi\n        /* \"https://github.com/OpenZeppelin/openzeppelin-contracts/blob/v4.8.0/contracts/token/ERC20/ERC20.sol\":11432:11438  amount */\n      dup2\n        /* \"https://github.com/OpenZeppelin/openzeppelin-contracts/blob/v4.8.0/contracts/token/ERC20/ERC20.sol\":11412:11428  currentAllowance */\n      dup2\n        /* \"https://github.com/OpenZeppelin/openzeppelin-contracts/blob/v4.8.0/contracts/token/ERC20/ERC20.sol\":11412:11438  currentAllowance >= amount */\n      lt\n      iszero\n        /* \"https://github.com/OpenZeppelin/openzeppelin-contracts/blob/v4.8.0/contracts/token/ERC20/ERC20.sol\":11404:11472  require(currentAllowance >= amount, \"ERC20: insufficient allowance\") */\n      tag_258\n      jumpi\n      mload(0x40)\n      0x08c379a000000000000000000000000000000000000000000000000000000000\n      dup2\n      mstore\n      0x04\n      add\n      tag_259\n      swap1\n      tag_260\n      jump\t// in\n    tag_259:\n      mload(0x40)\n      dup1\n      swap2\n      sub\n      swap1\n      revert\n    tag_258:\n        /* \"https://github.com/OpenZeppelin/openzeppelin-contracts/blob/v4.8.0/contracts/token/ERC20/ERC20.sol\":11514:11565  _approve(owner, spender, currentAllowance - amount) */\n      tag_261\n        /* \"https://github.com/OpenZeppelin/openzeppelin-contracts/blob/v4.8.0/contracts/token/ERC20/ERC20.sol\":11523:11528  owner */\n      dup5\n        /* \"https://github.com/OpenZeppelin/openzeppelin-contracts/blob/v4.8.0/contracts/token/ERC20/ERC20.sol\":11530:11537  spender */\n      dup5\n        /* \"https://github.com/OpenZeppelin/openzeppelin-contracts/blob/v4.8.0/contracts/token/ERC20/ERC20.sol\":11558:11564  amount */\n      dup5\n        /* \"https://github.com/OpenZeppelin/openzeppelin-contracts/blob/v4.8.0/contracts/token/ERC20/ERC20.sol\":11539:11555  currentAllowance */\n      dup5\n        /* \"https://github.com/OpenZeppelin/openzeppelin-contracts/blob/v4.8.0/contracts/token/ERC20/ERC20.sol\":11539:11564  currentAllowance - amount */\n      sub\n        /* \"https://github.com/OpenZeppelin/openzeppelin-contracts/blob/v4.8.0/contracts/token/ERC20/ERC20.sol\":11514:11522  _approve */\n      tag_119\n        /* \"https://github.com/OpenZeppelin/openzeppelin-contracts/blob/v4.8.0/contracts/token/ERC20/ERC20.sol\":11514:11565  _approve(owner, spender, currentAllowance - amount) */\n      jump\t// in\n    tag_261:\n        /* \"https://github.com/OpenZeppelin/openzeppelin-contracts/blob/v4.8.0/contracts/token/ERC20/ERC20.sol\":11347:11590  if (currentAllowance != type(uint256).max) {... */\n    tag_257:\n        /* \"https://github.com/OpenZeppelin/openzeppelin-contracts/blob/v4.8.0/contracts/token/ERC20/ERC20.sol\":11275:11596  {... */\n      pop\n        /* \"https://github.com/OpenZeppelin/openzeppelin-contracts/blob/v4.8.0/contracts/token/ERC20/ERC20.sol\":11155:11596  function _spendAllowance(... */\n      pop\n      pop\n      pop\n      jump\t// out\n        /* \"https://github.com/OpenZeppelin/openzeppelin-contracts/blob/v4.8.0/contracts/token/ERC20/ERC20.sol\":7473:8291  function _transfer(... */\n    tag_126:\n        /* \"https://github.com/OpenZeppelin/openzeppelin-contracts/blob/v4.8.0/contracts/token/ERC20/ERC20.sol\":7615:7616  0 */\n      0x00\n        /* \"https://github.com/OpenZeppelin/openzeppelin-contracts/blob/v4.8.0/contracts/token/ERC20/ERC20.sol\":7599:7617  from != address(0) */\n      0xffffffffffffffffffffffffffffffffffffffff\n      and\n        /* \"https://github.com/OpenZeppelin/openzeppelin-contracts/blob/v4.8.0/contracts/token/ERC20/ERC20.sol\":7599:7603  from */\n      dup4\n        /* \"https://github.com/OpenZeppelin/openzeppelin-contracts/blob/v4.8.0/contracts/token/ERC20/ERC20.sol\":7599:7617  from != address(0) */\n      0xffffffffffffffffffffffffffffffffffffffff\n      and\n      sub\n        /* \"https://github.com/OpenZeppelin/openzeppelin-contracts/blob/v4.8.0/contracts/token/ERC20/ERC20.sol\":7591:7659  require(from != address(0), \"ERC20: transfer from the zero address\") */\n      tag_263\n      jumpi\n      mload(0x40)\n      0x08c379a000000000000000000000000000000000000000000000000000000000\n      dup2\n      mstore\n      0x04\n      add\n      tag_264\n      swap1\n      tag_265\n      jump\t// in\n    tag_264:\n      mload(0x40)\n      dup1\n      swap2\n      sub\n      swap1\n      revert\n    tag_263:\n        /* \"https://github.com/OpenZeppelin/openzeppelin-contracts/blob/v4.8.0/contracts/token/ERC20/ERC20.sol\":7691:7692  0 */\n      0x00\n        /* \"https://github.com/OpenZeppelin/openzeppelin-contracts/blob/v4.8.0/contracts/token/ERC20/ERC20.sol\":7677:7693  to != address(0) */\n      0xffffffffffffffffffffffffffffffffffffffff\n      and\n        /* \"https://github.com/OpenZeppelin/openzeppelin-contracts/blob/v4.8.0/contracts/token/ERC20/ERC20.sol\":7677:7679  to */\n      dup3\n        /* \"https://github.com/OpenZeppelin/openzeppelin-contracts/blob/v4.8.0/contracts/token/ERC20/ERC20.sol\":7677:7693  to != address(0) */\n      0xffffffffffffffffffffffffffffffffffffffff\n      and\n      sub\n        /* \"https://github.com/OpenZeppelin/openzeppelin-contracts/blob/v4.8.0/contracts/token/ERC20/ERC20.sol\":7669:7733  require(to != address(0), \"ERC20: transfer to the zero address\") */\n      tag_266\n      jumpi\n      mload(0x40)\n      0x08c379a000000000000000000000000000000000000000000000000000000000\n      dup2\n      mstore\n      0x04\n      add\n      tag_267\n      swap1\n      tag_268\n      jump\t// in\n    tag_267:\n      mload(0x40)\n      dup1\n      swap2\n      sub\n      swap1\n      revert\n    tag_266:\n        /* \"https://github.com/OpenZeppelin/openzeppelin-contracts/blob/v4.8.0/contracts/token/ERC20/ERC20.sol\":7744:7782  _beforeTokenTransfer(from, to, amount) */\n      tag_269\n        /* \"https://github.com/OpenZeppelin/openzeppelin-contracts/blob/v4.8.0/contracts/token/ERC20/ERC20.sol\":7765:7769  from */\n      dup4\n        /* \"https://github.com/OpenZeppelin/openzeppelin-contracts/blob/v4.8.0/contracts/token/ERC20/ERC20.sol\":7771:7773  to */\n      dup4\n        /* \"https://github.com/OpenZeppelin/openzeppelin-contracts/blob/v4.8.0/contracts/token/ERC20/ERC20.sol\":7775:7781  amount */\n      dup4\n        /* \"https://github.com/OpenZeppelin/openzeppelin-contracts/blob/v4.8.0/contracts/token/ERC20/ERC20.sol\":7744:7764  _beforeTokenTransfer */\n      tag_270\n        /* \"https://github.com/OpenZeppelin/openzeppelin-contracts/blob/v4.8.0/contracts/token/ERC20/ERC20.sol\":7744:7782  _beforeTokenTransfer(from, to, amount) */\n      jump\t// in\n    tag_269:\n        /* \"https://github.com/OpenZeppelin/openzeppelin-contracts/blob/v4.8.0/contracts/token/ERC20/ERC20.sol\":7793:7812  uint256 fromBalance */\n      0x00\n        /* \"https://github.com/OpenZeppelin/openzeppelin-contracts/blob/v4.8.0/contracts/token/ERC20/ERC20.sol\":7815:7824  _balances */\n      dup1\n        /* \"https://github.com/OpenZeppelin/openzeppelin-contracts/blob/v4.8.0/contracts/token/ERC20/ERC20.sol\":7815:7830  _balances[from] */\n      0x00\n        /* \"https://github.com/OpenZeppelin/openzeppelin-contracts/blob/v4.8.0/contracts/token/ERC20/ERC20.sol\":7825:7829  from */\n      dup6\n        /* \"https://github.com/OpenZeppelin/openzeppelin-contracts/blob/v4.8.0/contracts/token/ERC20/ERC20.sol\":7815:7830  _balances[from] */\n      0xffffffffffffffffffffffffffffffffffffffff\n      and\n      0xffffffffffffffffffffffffffffffffffffffff\n      and\n      dup2\n      mstore\n      0x20\n      add\n      swap1\n      dup2\n      mstore\n      0x20\n      add\n      0x00\n      keccak256\n      sload\n        /* \"https://github.com/OpenZeppelin/openzeppelin-contracts/blob/v4.8.0/contracts/token/ERC20/ERC20.sol\":7793:7830  uint256 fromBalance = _balances[from] */\n      swap1\n      pop\n        /* \"https://github.com/OpenZeppelin/openzeppelin-contracts/blob/v4.8.0/contracts/token/ERC20/ERC20.sol\":7863:7869  amount */\n      dup2\n        /* \"https://github.com/OpenZeppelin/openzeppelin-contracts/blob/v4.8.0/contracts/token/ERC20/ERC20.sol\":7848:7859  fromBalance */\n      dup2\n        /* \"https://github.com/OpenZeppelin/openzeppelin-contracts/blob/v4.8.0/contracts/token/ERC20/ERC20.sol\":7848:7869  fromBalance >= amount */\n      lt\n      iszero\n        /* \"https://github.com/OpenZeppelin/openzeppelin-contracts/blob/v4.8.0/contracts/token/ERC20/ERC20.sol\":7840:7912  require(fromBalance >= amount, \"ERC20: transfer amount exceeds balance\") */\n      tag_271\n      jumpi\n      mload(0x40)\n      0x08c379a000000000000000000000000000000000000000000000000000000000\n      dup2\n      mstore\n      0x04\n      add\n      tag_272\n      swap1\n      tag_273\n      jump\t// in\n    tag_272:\n      mload(0x40)\n      dup1\n      swap2\n      sub\n      swap1\n      revert\n    tag_271:\n        /* \"https://github.com/OpenZeppelin/openzeppelin-contracts/blob/v4.8.0/contracts/token/ERC20/ERC20.sol\":7978:7984  amount */\n      dup2\n        /* \"https://github.com/OpenZeppelin/openzeppelin-contracts/blob/v4.8.0/contracts/token/ERC20/ERC20.sol\":7964:7975  fromBalance */\n      dup2\n        /* \"https://github.com/OpenZeppelin/openzeppelin-contracts/blob/v4.8.0/contracts/token/ERC20/ERC20.sol\":7964:7984  fromBalance - amount */\n      sub\n        /* \"https://github.com/OpenZeppelin/openzeppelin-contracts/blob/v4.8.0/contracts/token/ERC20/ERC20.sol\":7946:7955  _balances */\n      0x00\n        /* \"https://github.com/OpenZeppelin/openzeppelin-contracts/blob/v4.8.0/contracts/token/ERC20/ERC20.sol\":7946:7961  _balances[from] */\n      dup1\n        /* \"https://github.com/OpenZeppelin/openzeppelin-contracts/blob/v4.8.0/contracts/token/ERC20/ERC20.sol\":7956:7960  from */\n      dup7\n        /* \"https://github.com/OpenZeppelin/openzeppelin-contracts/blob/v4.8.0/contracts/token/ERC20/ERC20.sol\":7946:7961  _balances[from] */\n      0xffffffffffffffffffffffffffffffffffffffff\n      and\n      0xffffffffffffffffffffffffffffffffffffffff\n      and\n      dup2\n      mstore\n      0x20\n      add\n      swap1\n      dup2\n      mstore\n      0x20\n      add\n      0x00\n      keccak256\n        /* \"https://github.com/OpenZeppelin/openzeppelin-contracts/blob/v4.8.0/contracts/token/ERC20/ERC20.sol\":7946:7984  _balances[from] = fromBalance - amount */\n      dup2\n      swap1\n      sstore\n      pop\n        /* \"https://github.com/OpenZeppelin/openzeppelin-contracts/blob/v4.8.0/contracts/token/ERC20/ERC20.sol\":8178:8184  amount */\n      dup2\n        /* \"https://github.com/OpenZeppelin/openzeppelin-contracts/blob/v4.8.0/contracts/token/ERC20/ERC20.sol\":8161:8170  _balances */\n      0x00\n        /* \"https://github.com/OpenZeppelin/openzeppelin-contracts/blob/v4.8.0/contracts/token/ERC20/ERC20.sol\":8161:8174  _balances[to] */\n      dup1\n        /* \"https://github.com/OpenZeppelin/openzeppelin-contracts/blob/v4.8.0/contracts/token/ERC20/ERC20.sol\":8171:8173  to */\n      dup6\n        /* \"https://github.com/OpenZeppelin/openzeppelin-contracts/blob/v4.8.0/contracts/token/ERC20/ERC20.sol\":8161:8174  _balances[to] */\n      0xffffffffffffffffffffffffffffffffffffffff\n      and\n      0xffffffffffffffffffffffffffffffffffffffff\n      and\n      dup2\n      mstore\n      0x20\n      add\n      swap1\n      dup2\n      mstore\n      0x20\n      add\n      0x00\n      keccak256\n      0x00\n        /* \"https://github.com/OpenZeppelin/openzeppelin-contracts/blob/v4.8.0/contracts/token/ERC20/ERC20.sol\":8161:8184  _balances[to] += amount */\n      dup3\n      dup3\n      sload\n      add\n      swap3\n      pop\n      pop\n      dup2\n      swap1\n      sstore\n      pop\n        /* \"https://github.com/OpenZeppelin/openzeppelin-contracts/blob/v4.8.0/contracts/token/ERC20/ERC20.sol\":8225:8227  to */\n      dup3\n        /* \"https://github.com/OpenZeppelin/openzeppelin-contracts/blob/v4.8.0/contracts/token/ERC20/ERC20.sol\":8210:8236  Transfer(from, to, amount) */\n      0xffffffffffffffffffffffffffffffffffffffff\n      and\n        /* \"https://github.com/OpenZeppelin/openzeppelin-contracts/blob/v4.8.0/contracts/token/ERC20/ERC20.sol\":8219:8223  from */\n      dup5\n        /* \"https://github.com/OpenZeppelin/openzeppelin-contracts/blob/v4.8.0/contracts/token/ERC20/ERC20.sol\":8210:8236  Transfer(from, to, amount) */\n      0xffffffffffffffffffffffffffffffffffffffff\n      and\n      0xddf252ad1be2c89b69c2b068fc378daa952ba7f163c4a11628f55a4df523b3ef\n        /* \"https://github.com/OpenZeppelin/openzeppelin-contracts/blob/v4.8.0/contracts/token/ERC20/ERC20.sol\":8229:8235  amount */\n      dup5\n        /* \"https://github.com/OpenZeppelin/openzeppelin-contracts/blob/v4.8.0/contracts/token/ERC20/ERC20.sol\":8210:8236  Transfer(from, to, amount) */\n      mload(0x40)\n      tag_274\n      swap2\n      swap1\n      tag_39\n      jump\t// in\n    tag_274:\n      mload(0x40)\n      dup1\n      swap2\n      sub\n      swap1\n      log3\n        /* \"https://github.com/OpenZeppelin/openzeppelin-contracts/blob/v4.8.0/contracts/token/ERC20/ERC20.sol\":8247:8284  _afterTokenTransfer(from, to, amount) */\n      tag_275\n        /* \"https://github.com/OpenZeppelin/openzeppelin-contracts/blob/v4.8.0/contracts/token/ERC20/ERC20.sol\":8267:8271  from */\n      dup5\n        /* \"https://github.com/OpenZeppelin/openzeppelin-contracts/blob/v4.8.0/contracts/token/ERC20/ERC20.sol\":8273:8275  to */\n      dup5\n        /* \"https://github.com/OpenZeppelin/openzeppelin-contracts/blob/v4.8.0/contracts/token/ERC20/ERC20.sol\":8277:8283  amount */\n      dup5\n        /* \"https://github.com/OpenZeppelin/openzeppelin-contracts/blob/v4.8.0/contracts/token/ERC20/ERC20.sol\":8247:8266  _afterTokenTransfer */\n      tag_276\n        /* \"https://github.com/OpenZeppelin/openzeppelin-contracts/blob/v4.8.0/contracts/token/ERC20/ERC20.sol\":8247:8284  _afterTokenTransfer(from, to, amount) */\n      jump\t// in\n    tag_275:\n        /* \"https://github.com/OpenZeppelin/openzeppelin-contracts/blob/v4.8.0/contracts/token/ERC20/ERC20.sol\":7581:8291  {... */\n      pop\n        /* \"https://github.com/OpenZeppelin/openzeppelin-contracts/blob/v4.8.0/contracts/token/ERC20/ERC20.sol\":7473:8291  function _transfer(... */\n      pop\n      pop\n      pop\n      jump\t// out\n        /* \"https://github.com/OpenZeppelin/openzeppelin-contracts/blob/release-v4.0/contracts/utils/structs/EnumerableSet.sol\":6976:7141  function contains(AddressSet storage set, address value) internal view returns (bool) {... */\n    tag_166:\n        /* \"https://github.com/OpenZeppelin/openzeppelin-contracts/blob/release-v4.0/contracts/utils/structs/EnumerableSet.sol\":7056:7060  bool */\n      0x00\n        /* \"https://github.com/OpenZeppelin/openzeppelin-contracts/blob/release-v4.0/contracts/utils/structs/EnumerableSet.sol\":7079:7134  _contains(set._inner, bytes32(uint256(uint160(value)))) */\n      tag_278\n        /* \"https://github.com/OpenZeppelin/openzeppelin-contracts/blob/release-v4.0/contracts/utils/structs/EnumerableSet.sol\":7089:7092  set */\n      dup4\n        /* \"https://github.com/OpenZeppelin/openzeppelin-contracts/blob/release-v4.0/contracts/utils/structs/EnumerableSet.sol\":7089:7099  set._inner */\n      0x00\n      add\n        /* \"https://github.com/OpenZeppelin/openzeppelin-contracts/blob/release-v4.0/contracts/utils/structs/EnumerableSet.sol\":7125:7130  value */\n      dup4\n        /* \"https://github.com/OpenZeppelin/openzeppelin-contracts/blob/release-v4.0/contracts/utils/structs/EnumerableSet.sol\":7109:7132  uint256(uint160(value)) */\n      0xffffffffffffffffffffffffffffffffffffffff\n      and\n        /* \"https://github.com/OpenZeppelin/openzeppelin-contracts/blob/release-v4.0/contracts/utils/structs/EnumerableSet.sol\":7101:7133  bytes32(uint256(uint160(value))) */\n      0x00\n      shl\n        /* \"https://github.com/OpenZeppelin/openzeppelin-contracts/blob/release-v4.0/contracts/utils/structs/EnumerableSet.sol\":7079:7088  _contains */\n      tag_279\n        /* \"https://github.com/OpenZeppelin/openzeppelin-contracts/blob/release-v4.0/contracts/utils/structs/EnumerableSet.sol\":7079:7134  _contains(set._inner, bytes32(uint256(uint160(value)))) */\n      jump\t// in\n    tag_278:\n        /* \"https://github.com/OpenZeppelin/openzeppelin-contracts/blob/release-v4.0/contracts/utils/structs/EnumerableSet.sol\":7072:7134  return _contains(set._inner, bytes32(uint256(uint160(value)))) */\n      swap1\n      pop\n        /* \"https://github.com/OpenZeppelin/openzeppelin-contracts/blob/release-v4.0/contracts/utils/structs/EnumerableSet.sol\":6976:7141  function contains(AddressSet storage set, address value) internal view returns (bool) {... */\n      swap3\n      swap2\n      pop\n      pop\n      jump\t// out\n        /* \"https://github.com/OpenZeppelin/openzeppelin-contracts/blob/release-v4.0/contracts/utils/structs/EnumerableSet.sol\":6421:6571  function add(AddressSet storage set, address value) internal returns (bool) {... */\n    tag_199:\n        /* \"https://github.com/OpenZeppelin/openzeppelin-contracts/blob/release-v4.0/contracts/utils/structs/EnumerableSet.sol\":6491:6495  bool */\n      0x00\n        /* \"https://github.com/OpenZeppelin/openzeppelin-contracts/blob/release-v4.0/contracts/utils/structs/EnumerableSet.sol\":6514:6564  _add(set._inner, bytes32(uint256(uint160(value)))) */\n      tag_281\n        /* \"https://github.com/OpenZeppelin/openzeppelin-contracts/blob/release-v4.0/contracts/utils/structs/EnumerableSet.sol\":6519:6522  set */\n      dup4\n        /* \"https://github.com/OpenZeppelin/openzeppelin-contracts/blob/release-v4.0/contracts/utils/structs/EnumerableSet.sol\":6519:6529  set._inner */\n      0x00\n      add\n        /* \"https://github.com/OpenZeppelin/openzeppelin-contracts/blob/release-v4.0/contracts/utils/structs/EnumerableSet.sol\":6555:6560  value */\n      dup4\n        /* \"https://github.com/OpenZeppelin/openzeppelin-contracts/blob/release-v4.0/contracts/utils/structs/EnumerableSet.sol\":6539:6562  uint256(uint160(value)) */\n      0xffffffffffffffffffffffffffffffffffffffff\n      and\n        /* \"https://github.com/OpenZeppelin/openzeppelin-contracts/blob/release-v4.0/contracts/utils/structs/EnumerableSet.sol\":6531:6563  bytes32(uint256(uint160(value))) */\n      0x00\n      shl\n        /* \"https://github.com/OpenZeppelin/openzeppelin-contracts/blob/release-v4.0/contracts/utils/structs/EnumerableSet.sol\":6514:6518  _add */\n      tag_282\n        /* \"https://github.com/OpenZeppelin/openzeppelin-contracts/blob/release-v4.0/contracts/utils/structs/EnumerableSet.sol\":6514:6564  _add(set._inner, bytes32(uint256(uint160(value)))) */\n      jump\t// in\n    tag_281:\n        /* \"https://github.com/OpenZeppelin/openzeppelin-contracts/blob/release-v4.0/contracts/utils/structs/EnumerableSet.sol\":6507:6564  return _add(set._inner, bytes32(uint256(uint160(value)))) */\n      swap1\n      pop\n        /* \"https://github.com/OpenZeppelin/openzeppelin-contracts/blob/release-v4.0/contracts/utils/structs/EnumerableSet.sol\":6421:6571  function add(AddressSet storage set, address value) internal returns (bool) {... */\n      swap3\n      swap2\n      pop\n      pop\n      jump\t// out\n        /* \"https://github.com/OpenZeppelin/openzeppelin-contracts/blob/release-v4.0/contracts/utils/structs/EnumerableSet.sol\":7222:7337  function length(AddressSet storage set) internal view returns (uint256) {... */\n    tag_215:\n        /* \"https://github.com/OpenZeppelin/openzeppelin-contracts/blob/release-v4.0/contracts/utils/structs/EnumerableSet.sol\":7285:7292  uint256 */\n      0x00\n        /* \"https://github.com/OpenZeppelin/openzeppelin-contracts/blob/release-v4.0/contracts/utils/structs/EnumerableSet.sol\":7311:7330  _length(set._inner) */\n      tag_284\n        /* \"https://github.com/OpenZeppelin/openzeppelin-contracts/blob/release-v4.0/contracts/utils/structs/EnumerableSet.sol\":7319:7322  set */\n      dup3\n        /* \"https://github.com/OpenZeppelin/openzeppelin-contracts/blob/release-v4.0/contracts/utils/structs/EnumerableSet.sol\":7319:7329  set._inner */\n      0x00\n      add\n        /* \"https://github.com/OpenZeppelin/openzeppelin-contracts/blob/release-v4.0/contracts/utils/structs/EnumerableSet.sol\":7311:7318  _length */\n      tag_285\n        /* \"https://github.com/OpenZeppelin/openzeppelin-contracts/blob/release-v4.0/contracts/utils/structs/EnumerableSet.sol\":7311:7330  _length(set._inner) */\n      jump\t// in\n    tag_284:\n        /* \"https://github.com/OpenZeppelin/openzeppelin-contracts/blob/release-v4.0/contracts/utils/structs/EnumerableSet.sol\":7304:7330  return _length(set._inner) */\n      swap1\n      pop\n        /* \"https://github.com/OpenZeppelin/openzeppelin-contracts/blob/release-v4.0/contracts/utils/structs/EnumerableSet.sol\":7222:7337  function length(AddressSet storage set) internal view returns (uint256) {... */\n      swap2\n      swap1\n      pop\n      jump\t// out\n        /* \"https://github.com/OpenZeppelin/openzeppelin-contracts/blob/release-v4.0/contracts/utils/structs/EnumerableSet.sol\":7669:7825  function at(AddressSet storage set, uint256 index) internal view returns (address) {... */\n    tag_225:\n        /* \"https://github.com/OpenZeppelin/openzeppelin-contracts/blob/release-v4.0/contracts/utils/structs/EnumerableSet.sol\":7743:7750  address */\n      0x00\n        /* \"https://github.com/OpenZeppelin/openzeppelin-contracts/blob/release-v4.0/contracts/utils/structs/EnumerableSet.sol\":7793:7815  _at(set._inner, index) */\n      tag_287\n        /* \"https://github.com/OpenZeppelin/openzeppelin-contracts/blob/release-v4.0/contracts/utils/structs/EnumerableSet.sol\":7797:7800  set */\n      dup4\n        /* \"https://github.com/OpenZeppelin/openzeppelin-contracts/blob/release-v4.0/contracts/utils/structs/EnumerableSet.sol\":7797:7807  set._inner */\n      0x00\n      add\n        /* \"https://github.com/OpenZeppelin/openzeppelin-contracts/blob/release-v4.0/contracts/utils/structs/EnumerableSet.sol\":7809:7814  index */\n      dup4\n        /* \"https://github.com/OpenZeppelin/openzeppelin-contracts/blob/release-v4.0/contracts/utils/structs/EnumerableSet.sol\":7793:7796  _at */\n      tag_288\n        /* \"https://github.com/OpenZeppelin/openzeppelin-contracts/blob/release-v4.0/contracts/utils/structs/EnumerableSet.sol\":7793:7815  _at(set._inner, index) */\n      jump\t// in\n    tag_287:\n        /* \"https://github.com/OpenZeppelin/openzeppelin-contracts/blob/release-v4.0/contracts/utils/structs/EnumerableSet.sol\":7785:7816  uint256(_at(set._inner, index)) */\n      0x00\n      shr\n        /* \"https://github.com/OpenZeppelin/openzeppelin-contracts/blob/release-v4.0/contracts/utils/structs/EnumerableSet.sol\":7762:7818  return address(uint160(uint256(_at(set._inner, index)))) */\n      swap1\n      pop\n        /* \"https://github.com/OpenZeppelin/openzeppelin-contracts/blob/release-v4.0/contracts/utils/structs/EnumerableSet.sol\":7669:7825  function at(AddressSet storage set, uint256 index) internal view returns (address) {... */\n      swap3\n      swap2\n      pop\n      pop\n      jump\t// out\n        /* \"https://github.com/OpenZeppelin/openzeppelin-contracts/blob/v4.8.0/contracts/token/ERC20/ERC20.sol\":12180:12301  function _beforeTokenTransfer(... */\n    tag_270:\n      pop\n      pop\n      pop\n      jump\t// out\n        /* \"https://github.com/OpenZeppelin/openzeppelin-contracts/blob/v4.8.0/contracts/token/ERC20/ERC20.sol\":12889:13009  function _afterTokenTransfer(... */\n    tag_276:\n      pop\n      pop\n      pop\n      jump\t// out\n        /* \"https://github.com/OpenZeppelin/openzeppelin-contracts/blob/release-v4.0/contracts/utils/structs/EnumerableSet.sol\":3797:3924  function _contains(Set storage set, bytes32 value) private view returns (bool) {... */\n    tag_279:\n        /* \"https://github.com/OpenZeppelin/openzeppelin-contracts/blob/release-v4.0/contracts/utils/structs/EnumerableSet.sol\":3870:3874  bool */\n      0x00\n        /* \"https://github.com/OpenZeppelin/openzeppelin-contracts/blob/release-v4.0/contracts/utils/structs/EnumerableSet.sol\":3916:3917  0 */\n      dup1\n        /* \"https://github.com/OpenZeppelin/openzeppelin-contracts/blob/release-v4.0/contracts/utils/structs/EnumerableSet.sol\":3893:3896  set */\n      dup4\n        /* \"https://github.com/OpenZeppelin/openzeppelin-contracts/blob/release-v4.0/contracts/utils/structs/EnumerableSet.sol\":3893:3905  set._indexes */\n      0x01\n      add\n        /* \"https://github.com/OpenZeppelin/openzeppelin-contracts/blob/release-v4.0/contracts/utils/structs/EnumerableSet.sol\":3893:3912  set._indexes[value] */\n      0x00\n        /* \"https://github.com/OpenZeppelin/openzeppelin-contracts/blob/release-v4.0/contracts/utils/structs/EnumerableSet.sol\":3906:3911  value */\n      dup5\n        /* \"https://github.com/OpenZeppelin/openzeppelin-contracts/blob/release-v4.0/contracts/utils/structs/EnumerableSet.sol\":3893:3912  set._indexes[value] */\n      dup2\n      mstore\n      0x20\n      add\n      swap1\n      dup2\n      mstore\n      0x20\n      add\n      0x00\n      keccak256\n      sload\n        /* \"https://github.com/OpenZeppelin/openzeppelin-contracts/blob/release-v4.0/contracts/utils/structs/EnumerableSet.sol\":3893:3917  set._indexes[value] != 0 */\n      eq\n      iszero\n        /* \"https://github.com/OpenZeppelin/openzeppelin-contracts/blob/release-v4.0/contracts/utils/structs/EnumerableSet.sol\":3886:3917  return set._indexes[value] != 0 */\n      swap1\n      pop\n        /* \"https://github.com/OpenZeppelin/openzeppelin-contracts/blob/release-v4.0/contracts/utils/structs/EnumerableSet.sol\":3797:3924  function _contains(Set storage set, bytes32 value) private view returns (bool) {... */\n      swap3\n      swap2\n      pop\n      pop\n      jump\t// out\n        /* \"https://github.com/OpenZeppelin/openzeppelin-contracts/blob/release-v4.0/contracts/utils/structs/EnumerableSet.sol\":1632:2036  function _add(Set storage set, bytes32 value) private returns (bool) {... */\n    tag_282:\n        /* \"https://github.com/OpenZeppelin/openzeppelin-contracts/blob/release-v4.0/contracts/utils/structs/EnumerableSet.sol\":1695:1699  bool */\n      0x00\n        /* \"https://github.com/OpenZeppelin/openzeppelin-contracts/blob/release-v4.0/contracts/utils/structs/EnumerableSet.sol\":1716:1737  _contains(set, value) */\n      tag_293\n        /* \"https://github.com/OpenZeppelin/openzeppelin-contracts/blob/release-v4.0/contracts/utils/structs/EnumerableSet.sol\":1726:1729  set */\n      dup4\n        /* \"https://github.com/OpenZeppelin/openzeppelin-contracts/blob/release-v4.0/contracts/utils/structs/EnumerableSet.sol\":1731:1736  value */\n      dup4\n        /* \"https://github.com/OpenZeppelin/openzeppelin-contracts/blob/release-v4.0/contracts/utils/structs/EnumerableSet.sol\":1716:1725  _contains */\n      tag_279\n        /* \"https://github.com/OpenZeppelin/openzeppelin-contracts/blob/release-v4.0/contracts/utils/structs/EnumerableSet.sol\":1716:1737  _contains(set, value) */\n      jump\t// in\n    tag_293:\n        /* \"https://github.com/OpenZeppelin/openzeppelin-contracts/blob/release-v4.0/contracts/utils/structs/EnumerableSet.sol\":1711:2030  if (!_contains(set, value)) {... */\n      tag_294\n      jumpi\n        /* \"https://github.com/OpenZeppelin/openzeppelin-contracts/blob/release-v4.0/contracts/utils/structs/EnumerableSet.sol\":1753:1756  set */\n      dup3\n        /* \"https://github.com/OpenZeppelin/openzeppelin-contracts/blob/release-v4.0/contracts/utils/structs/EnumerableSet.sol\":1753:1764  set._values */\n      0x00\n      add\n        /* \"https://github.com/OpenZeppelin/openzeppelin-contracts/blob/release-v4.0/contracts/utils/structs/EnumerableSet.sol\":1770:1775  value */\n      dup3\n        /* \"https://github.com/OpenZeppelin/openzeppelin-contracts/blob/release-v4.0/contracts/utils/structs/EnumerableSet.sol\":1753:1776  set._values.push(value) */\n      swap1\n      dup1\n      0x01\n      dup2\n      sload\n      add\n      dup1\n      dup3\n      sstore\n      dup1\n      swap2\n      pop\n      pop\n      0x01\n      swap1\n      sub\n      swap1\n      0x00\n      mstore\n      keccak256(0x00, 0x20)\n      add\n      0x00\n      swap1\n      swap2\n      swap1\n      swap2\n      swap1\n      swap2\n      pop\n      sstore\n        /* \"https://github.com/OpenZeppelin/openzeppelin-contracts/blob/release-v4.0/contracts/utils/structs/EnumerableSet.sol\":1933:1936  set */\n      dup3\n        /* \"https://github.com/OpenZeppelin/openzeppelin-contracts/blob/release-v4.0/contracts/utils/structs/EnumerableSet.sol\":1933:1944  set._values */\n      0x00\n      add\n        /* \"https://github.com/OpenZeppelin/openzeppelin-contracts/blob/release-v4.0/contracts/utils/structs/EnumerableSet.sol\":1933:1951  set._values.length */\n      dup1\n      sload\n      swap1\n      pop\n        /* \"https://github.com/OpenZeppelin/openzeppelin-contracts/blob/release-v4.0/contracts/utils/structs/EnumerableSet.sol\":1911:1914  set */\n      dup4\n        /* \"https://github.com/OpenZeppelin/openzeppelin-contracts/blob/release-v4.0/contracts/utils/structs/EnumerableSet.sol\":1911:1923  set._indexes */\n      0x01\n      add\n        /* \"https://github.com/OpenZeppelin/openzeppelin-contracts/blob/release-v4.0/contracts/utils/structs/EnumerableSet.sol\":1911:1930  set._indexes[value] */\n      0x00\n        /* \"https://github.com/OpenZeppelin/openzeppelin-contracts/blob/release-v4.0/contracts/utils/structs/EnumerableSet.sol\":1924:1929  value */\n      dup5\n        /* \"https://github.com/OpenZeppelin/openzeppelin-contracts/blob/release-v4.0/contracts/utils/structs/EnumerableSet.sol\":1911:1930  set._indexes[value] */\n      dup2\n      mstore\n      0x20\n      add\n      swap1\n      dup2\n      mstore\n      0x20\n      add\n      0x00\n      keccak256\n        /* \"https://github.com/OpenZeppelin/openzeppelin-contracts/blob/release-v4.0/contracts/utils/structs/EnumerableSet.sol\":1911:1951  set._indexes[value] = set._values.length */\n      dup2\n      swap1\n      sstore\n      pop\n        /* \"https://github.com/OpenZeppelin/openzeppelin-contracts/blob/release-v4.0/contracts/utils/structs/EnumerableSet.sol\":1972:1976  true */\n      0x01\n        /* \"https://github.com/OpenZeppelin/openzeppelin-contracts/blob/release-v4.0/contracts/utils/structs/EnumerableSet.sol\":1965:1976  return true */\n      swap1\n      pop\n      jump(tag_292)\n        /* \"https://github.com/OpenZeppelin/openzeppelin-contracts/blob/release-v4.0/contracts/utils/structs/EnumerableSet.sol\":1711:2030  if (!_contains(set, value)) {... */\n    tag_294:\n        /* \"https://github.com/OpenZeppelin/openzeppelin-contracts/blob/release-v4.0/contracts/utils/structs/EnumerableSet.sol\":2014:2019  false */\n      0x00\n        /* \"https://github.com/OpenZeppelin/openzeppelin-contracts/blob/release-v4.0/contracts/utils/structs/EnumerableSet.sol\":2007:2019  return false */\n      swap1\n      pop\n        /* \"https://github.com/OpenZeppelin/openzeppelin-contracts/blob/release-v4.0/contracts/utils/structs/EnumerableSet.sol\":1632:2036  function _add(Set storage set, bytes32 value) private returns (bool) {... */\n    tag_292:\n      swap3\n      swap2\n      pop\n      pop\n      jump\t// out\n        /* \"https://github.com/OpenZeppelin/openzeppelin-contracts/blob/release-v4.0/contracts/utils/structs/EnumerableSet.sol\":4005:4112  function _length(Set storage set) private view returns (uint256) {... */\n    tag_285:\n        /* \"https://github.com/OpenZeppelin/openzeppelin-contracts/blob/release-v4.0/contracts/utils/structs/EnumerableSet.sol\":4061:4068  uint256 */\n      0x00\n        /* \"https://github.com/OpenZeppelin/openzeppelin-contracts/blob/release-v4.0/contracts/utils/structs/EnumerableSet.sol\":4087:4090  set */\n      dup2\n        /* \"https://github.com/OpenZeppelin/openzeppelin-contracts/blob/release-v4.0/contracts/utils/structs/EnumerableSet.sol\":4087:4098  set._values */\n      0x00\n      add\n        /* \"https://github.com/OpenZeppelin/openzeppelin-contracts/blob/release-v4.0/contracts/utils/structs/EnumerableSet.sol\":4087:4105  set._values.length */\n      dup1\n      sload\n      swap1\n      pop\n        /* \"https://github.com/OpenZeppelin/openzeppelin-contracts/blob/release-v4.0/contracts/utils/structs/EnumerableSet.sol\":4080:4105  return set._values.length */\n      swap1\n      pop\n        /* \"https://github.com/OpenZeppelin/openzeppelin-contracts/blob/release-v4.0/contracts/utils/structs/EnumerableSet.sol\":4005:4112  function _length(Set storage set) private view returns (uint256) {... */\n      swap2\n      swap1\n      pop\n      jump\t// out\n        /* \"https://github.com/OpenZeppelin/openzeppelin-contracts/blob/release-v4.0/contracts/utils/structs/EnumerableSet.sol\":4444:4645  function _at(Set storage set, uint256 index) private view returns (bytes32) {... */\n    tag_288:\n        /* \"https://github.com/OpenZeppelin/openzeppelin-contracts/blob/release-v4.0/contracts/utils/structs/EnumerableSet.sol\":4511:4518  bytes32 */\n      0x00\n        /* \"https://github.com/OpenZeppelin/openzeppelin-contracts/blob/release-v4.0/contracts/utils/structs/EnumerableSet.sol\":4559:4564  index */\n      dup2\n        /* \"https://github.com/OpenZeppelin/openzeppelin-contracts/blob/release-v4.0/contracts/utils/structs/EnumerableSet.sol\":4538:4541  set */\n      dup4\n        /* \"https://github.com/OpenZeppelin/openzeppelin-contracts/blob/release-v4.0/contracts/utils/structs/EnumerableSet.sol\":4538:4549  set._values */\n      0x00\n      add\n        /* \"https://github.com/OpenZeppelin/openzeppelin-contracts/blob/release-v4.0/contracts/utils/structs/EnumerableSet.sol\":4538:4556  set._values.length */\n      dup1\n      sload\n      swap1\n      pop\n        /* \"https://github.com/OpenZeppelin/openzeppelin-contracts/blob/release-v4.0/contracts/utils/structs/EnumerableSet.sol\":4538:4564  set._values.length > index */\n      gt\n        /* \"https://github.com/OpenZeppelin/openzeppelin-contracts/blob/release-v4.0/contracts/utils/structs/EnumerableSet.sol\":4530:4603  require(set._values.length > index, \"EnumerableSet: index out of bounds\") */\n      tag_299\n      jumpi\n      mload(0x40)\n      0x08c379a000000000000000000000000000000000000000000000000000000000\n      dup2\n      mstore\n      0x04\n      add\n      tag_300\n      swap1\n      tag_301\n      jump\t// in\n    tag_300:\n      mload(0x40)\n      dup1\n      swap2\n      sub\n      swap1\n      revert\n    tag_299:\n        /* \"https://github.com/OpenZeppelin/openzeppelin-contracts/blob/release-v4.0/contracts/utils/structs/EnumerableSet.sol\":4620:4623  set */\n      dup3\n        /* \"https://github.com/OpenZeppelin/openzeppelin-contracts/blob/release-v4.0/contracts/utils/structs/EnumerableSet.sol\":4620:4631  set._values */\n      0x00\n      add\n        /* \"https://github.com/OpenZeppelin/openzeppelin-contracts/blob/release-v4.0/contracts/utils/structs/EnumerableSet.sol\":4632:4637  index */\n      dup3\n        /* \"https://github.com/OpenZeppelin/openzeppelin-contracts/blob/release-v4.0/contracts/utils/structs/EnumerableSet.sol\":4620:4638  set._values[index] */\n      dup2\n      sload\n      dup2\n      lt\n      tag_302\n      jumpi\n      tag_303\n      tag_151\n      jump\t// in\n    tag_303:\n    tag_302:\n      swap1\n      0x00\n      mstore\n      keccak256(0x00, 0x20)\n      add\n      sload\n        /* \"https://github.com/OpenZeppelin/openzeppelin-contracts/blob/release-v4.0/contracts/utils/structs/EnumerableSet.sol\":4613:4638  return set._values[index] */\n      swap1\n      pop\n        /* \"https://github.com/OpenZeppelin/openzeppelin-contracts/blob/release-v4.0/contracts/utils/structs/EnumerableSet.sol\":4444:4645  function _at(Set storage set, uint256 index) private view returns (bytes32) {... */\n      swap3\n      swap2\n      pop\n      pop\n      jump\t// out\n    tag_209:\n      mload(0x40)\n      dup1\n      0x0120\n      add\n      0x40\n      mstore\n      dup1\n      0x60\n      dup2\n      mstore\n      0x20\n      add\n      0x60\n      dup2\n      mstore\n      0x20\n      add\n      0x00\n      dup2\n      mstore\n      0x20\n      add\n      0x00\n      dup2\n      mstore\n      0x20\n      add\n      0x00\n      dup2\n      mstore\n      0x20\n      add\n      0x00\n      dup2\n      mstore\n      0x20\n      add\n      0x00\n      dup2\n      mstore\n      0x20\n      add\n      iszero(iszero(0x00))\n      dup2\n      mstore\n      0x20\n      add\n      iszero(iszero(0x00))\n      dup2\n      mstore\n      pop\n      swap1\n      jump\t// out\n        /* \"#utility.yul\":7:106   */\n    tag_305:\n        /* \"#utility.yul\":59:65   */\n      0x00\n        /* \"#utility.yul\":93:98   */\n      dup2\n        /* \"#utility.yul\":87:99   */\n      mload\n        /* \"#utility.yul\":77:99   */\n      swap1\n      pop\n        /* \"#utility.yul\":7:106   */\n      swap2\n      swap1\n      pop\n      jump\t// out\n        /* \"#utility.yul\":112:281   */\n    tag_306:\n        /* \"#utility.yul\":196:207   */\n      0x00\n        /* \"#utility.yul\":230:236   */\n      dup3\n        /* \"#utility.yul\":225:228   */\n      dup3\n        /* \"#utility.yul\":218:237   */\n      mstore\n        /* \"#utility.yul\":270:274   */\n      0x20\n        /* \"#utility.yul\":265:268   */\n      dup3\n        /* \"#utility.yul\":261:275   */\n      add\n        /* \"#utility.yul\":246:275   */\n      swap1\n      pop\n        /* \"#utility.yul\":112:281   */\n      swap3\n      swap2\n      pop\n      pop\n      jump\t// out\n        /* \"#utility.yul\":287:533   */\n    tag_307:\n        /* \"#utility.yul\":368:369   */\n      0x00\n        /* \"#utility.yul\":378:491   */\n    tag_394:\n        /* \"#utility.yul\":392:398   */\n      dup4\n        /* \"#utility.yul\":389:390   */\n      dup2\n        /* \"#utility.yul\":386:399   */\n      lt\n        /* \"#utility.yul\":378:491   */\n      iszero\n      tag_396\n      jumpi\n        /* \"#utility.yul\":477:478   */\n      dup1\n        /* \"#utility.yul\":472:475   */\n      dup3\n        /* \"#utility.yul\":468:479   */\n      add\n        /* \"#utility.yul\":462:480   */\n      mload\n        /* \"#utility.yul\":458:459   */\n      dup2\n        /* \"#utility.yul\":453:456   */\n      dup5\n        /* \"#utility.yul\":449:460   */\n      add\n        /* \"#utility.yul\":442:481   */\n      mstore\n        /* \"#utility.yul\":414:416   */\n      0x20\n        /* \"#utility.yul\":411:412   */\n      dup2\n        /* \"#utility.yul\":407:417   */\n      add\n        /* \"#utility.yul\":402:417   */\n      swap1\n      pop\n        /* \"#utility.yul\":378:491   */\n      jump(tag_394)\n    tag_396:\n        /* \"#utility.yul\":525:526   */\n      0x00\n        /* \"#utility.yul\":516:522   */\n      dup5\n        /* \"#utility.yul\":511:514   */\n      dup5\n        /* \"#utility.yul\":507:523   */\n      add\n        /* \"#utility.yul\":500:527   */\n      mstore\n        /* \"#utility.yul\":349:533   */\n      pop\n        /* \"#utility.yul\":287:533   */\n      pop\n      pop\n      pop\n      jump\t// out\n        /* \"#utility.yul\":539:641   */\n    tag_308:\n        /* \"#utility.yul\":580:586   */\n      0x00\n        /* \"#utility.yul\":631:633   */\n      0x1f\n        /* \"#utility.yul\":627:634   */\n      not\n        /* \"#utility.yul\":622:624   */\n      0x1f\n        /* \"#utility.yul\":615:620   */\n      dup4\n        /* \"#utility.yul\":611:625   */\n      add\n        /* \"#utility.yul\":607:635   */\n      and\n        /* \"#utility.yul\":597:635   */\n      swap1\n      pop\n        /* \"#utility.yul\":539:641   */\n      swap2\n      swap1\n      pop\n      jump\t// out\n        /* \"#utility.yul\":647:1024   */\n    tag_309:\n        /* \"#utility.yul\":735:738   */\n      0x00\n        /* \"#utility.yul\":763:802   */\n      tag_399\n        /* \"#utility.yul\":796:801   */\n      dup3\n        /* \"#utility.yul\":763:802   */\n      tag_305\n      jump\t// in\n    tag_399:\n        /* \"#utility.yul\":818:889   */\n      tag_400\n        /* \"#utility.yul\":882:888   */\n      dup2\n        /* \"#utility.yul\":877:880   */\n      dup6\n        /* \"#utility.yul\":818:889   */\n      tag_306\n      jump\t// in\n    tag_400:\n        /* \"#utility.yul\":811:889   */\n      swap4\n      pop\n        /* \"#utility.yul\":898:963   */\n      tag_401\n        /* \"#utility.yul\":956:962   */\n      dup2\n        /* \"#utility.yul\":951:954   */\n      dup6\n        /* \"#utility.yul\":944:948   */\n      0x20\n        /* \"#utility.yul\":937:942   */\n      dup7\n        /* \"#utility.yul\":933:949   */\n      add\n        /* \"#utility.yul\":898:963   */\n      tag_307\n      jump\t// in\n    tag_401:\n        /* \"#utility.yul\":988:1017   */\n      tag_402\n        /* \"#utility.yul\":1010:1016   */\n      dup2\n        /* \"#utility.yul\":988:1017   */\n      tag_308\n      jump\t// in\n    tag_402:\n        /* \"#utility.yul\":983:986   */\n      dup5\n        /* \"#utility.yul\":979:1018   */\n      add\n        /* \"#utility.yul\":972:1018   */\n      swap2\n      pop\n        /* \"#utility.yul\":739:1024   */\n      pop\n        /* \"#utility.yul\":647:1024   */\n      swap3\n      swap2\n      pop\n      pop\n      jump\t// out\n        /* \"#utility.yul\":1030:1343   */\n    tag_29:\n        /* \"#utility.yul\":1143:1147   */\n      0x00\n        /* \"#utility.yul\":1181:1183   */\n      0x20\n        /* \"#utility.yul\":1170:1179   */\n      dup3\n        /* \"#utility.yul\":1166:1184   */\n      add\n        /* \"#utility.yul\":1158:1184   */\n      swap1\n      pop\n        /* \"#utility.yul\":1230:1239   */\n      dup2\n        /* \"#utility.yul\":1224:1228   */\n      dup2\n        /* \"#utility.yul\":1220:1240   */\n      sub\n        /* \"#utility.yul\":1216:1217   */\n      0x00\n        /* \"#utility.yul\":1205:1214   */\n      dup4\n        /* \"#utility.yul\":1201:1218   */\n      add\n        /* \"#utility.yul\":1194:1241   */\n      mstore\n        /* \"#utility.yul\":1258:1336   */\n      tag_404\n        /* \"#utility.yul\":1331:1335   */\n      dup2\n        /* \"#utility.yul\":1322:1328   */\n      dup5\n        /* \"#utility.yul\":1258:1336   */\n      tag_309\n      jump\t// in\n    tag_404:\n        /* \"#utility.yul\":1250:1336   */\n      swap1\n      pop\n        /* \"#utility.yul\":1030:1343   */\n      swap3\n      swap2\n      pop\n      pop\n      jump\t// out\n        /* \"#utility.yul\":1349:1424   */\n    tag_310:\n        /* \"#utility.yul\":1382:1388   */\n      0x00\n        /* \"#utility.yul\":1415:1417   */\n      0x40\n        /* \"#utility.yul\":1409:1418   */\n      mload\n        /* \"#utility.yul\":1399:1418   */\n      swap1\n      pop\n        /* \"#utility.yul\":1349:1424   */\n      swap1\n      jump\t// out\n        /* \"#utility.yul\":1430:1547   */\n    tag_311:\n        /* \"#utility.yul\":1539:1540   */\n      0x00\n        /* \"#utility.yul\":1536:1537   */\n      dup1\n        /* \"#utility.yul\":1529:1541   */\n      revert\n        /* \"#utility.yul\":1553:1670   */\n    tag_312:\n        /* \"#utility.yul\":1662:1663   */\n      0x00\n        /* \"#utility.yul\":1659:1660   */\n      dup1\n        /* \"#utility.yul\":1652:1664   */\n      revert\n        /* \"#utility.yul\":1676:1802   */\n    tag_313:\n        /* \"#utility.yul\":1713:1720   */\n      0x00\n        /* \"#utility.yul\":1753:1795   */\n      0xffffffffffffffffffffffffffffffffffffffff\n        /* \"#utility.yul\":1746:1751   */\n      dup3\n        /* \"#utility.yul\":1742:1796   */\n      and\n        /* \"#utility.yul\":1731:1796   */\n      swap1\n      pop\n        /* \"#utility.yul\":1676:1802   */\n      swap2\n      swap1\n      pop\n      jump\t// out\n        /* \"#utility.yul\":1808:1904   */\n    tag_314:\n        /* \"#utility.yul\":1845:1852   */\n      0x00\n        /* \"#utility.yul\":1874:1898   */\n      tag_410\n        /* \"#utility.yul\":1892:1897   */\n      dup3\n        /* \"#utility.yul\":1874:1898   */\n      tag_313\n      jump\t// in\n    tag_410:\n        /* \"#utility.yul\":1863:1898   */\n      swap1\n      pop\n        /* \"#utility.yul\":1808:1904   */\n      swap2\n      swap1\n      pop\n      jump\t// out\n        /* \"#utility.yul\":1910:2032   */\n    tag_315:\n        /* \"#utility.yul\":1983:2007   */\n      tag_412\n        /* \"#utility.yul\":2001:2006   */\n      dup2\n        /* \"#utility.yul\":1983:2007   */\n      tag_314\n      jump\t// in\n    tag_412:\n        /* \"#utility.yul\":1976:1981   */\n      dup2\n        /* \"#utility.yul\":1973:2008   */\n      eq\n        /* \"#utility.yul\":1963:2026   */\n      tag_413\n      jumpi\n        /* \"#utility.yul\":2022:2023   */\n      0x00\n        /* \"#utility.yul\":2019:2020   */\n      dup1\n        /* \"#utility.yul\":2012:2024   */\n      revert\n        /* \"#utility.yul\":1963:2026   */\n    tag_413:\n        /* \"#utility.yul\":1910:2032   */\n      pop\n      jump\t// out\n        /* \"#utility.yul\":2038:2177   */\n    tag_316:\n        /* \"#utility.yul\":2084:2089   */\n      0x00\n        /* \"#utility.yul\":2122:2128   */\n      dup2\n        /* \"#utility.yul\":2109:2129   */\n      calldataload\n        /* \"#utility.yul\":2100:2129   */\n      swap1\n      pop\n        /* \"#utility.yul\":2138:2171   */\n      tag_415\n        /* \"#utility.yul\":2165:2170   */\n      dup2\n        /* \"#utility.yul\":2138:2171   */\n      tag_315\n      jump\t// in\n    tag_415:\n        /* \"#utility.yul\":2038:2177   */\n      swap3\n      swap2\n      pop\n      pop\n      jump\t// out\n        /* \"#utility.yul\":2183:2260   */\n    tag_317:\n        /* \"#utility.yul\":2220:2227   */\n      0x00\n        /* \"#utility.yul\":2249:2254   */\n      dup2\n        /* \"#utility.yul\":2238:2254   */\n      swap1\n      pop\n        /* \"#utility.yul\":2183:2260   */\n      swap2\n      swap1\n      pop\n      jump\t// out\n        /* \"#utility.yul\":2266:2388   */\n    tag_318:\n        /* \"#utility.yul\":2339:2363   */\n      tag_418\n        /* \"#utility.yul\":2357:2362   */\n      dup2\n        /* \"#utility.yul\":2339:2363   */\n      tag_317\n      jump\t// in\n    tag_418:\n        /* \"#utility.yul\":2332:2337   */\n      dup2\n        /* \"#utility.yul\":2329:2364   */\n      eq\n        /* \"#utility.yul\":2319:2382   */\n      tag_419\n      jumpi\n        /* \"#utility.yul\":2378:2379   */\n      0x00\n        /* \"#utility.yul\":2375:2376   */\n      dup1\n        /* \"#utility.yul\":2368:2380   */\n      revert\n        /* \"#utility.yul\":2319:2382   */\n    tag_419:\n        /* \"#utility.yul\":2266:2388   */\n      pop\n      jump\t// out\n        /* \"#utility.yul\":2394:2533   */\n    tag_319:\n        /* \"#utility.yul\":2440:2445   */\n      0x00\n        /* \"#utility.yul\":2478:2484   */\n      dup2\n        /* \"#utility.yul\":2465:2485   */\n      calldataload\n        /* \"#utility.yul\":2456:2485   */\n      swap1\n      pop\n        /* \"#utility.yul\":2494:2527   */\n      tag_421\n        /* \"#utility.yul\":2521:2526   */\n      dup2\n        /* \"#utility.yul\":2494:2527   */\n      tag_318\n      jump\t// in\n    tag_421:\n        /* \"#utility.yul\":2394:2533   */\n      swap3\n      swap2\n      pop\n      pop\n      jump\t// out\n        /* \"#utility.yul\":2539:3013   */\n    tag_32:\n        /* \"#utility.yul\":2607:2613   */\n      0x00\n        /* \"#utility.yul\":2615:2621   */\n      dup1\n        /* \"#utility.yul\":2664:2666   */\n      0x40\n        /* \"#utility.yul\":2652:2661   */\n      dup4\n        /* \"#utility.yul\":2643:2650   */\n      dup6\n        /* \"#utility.yul\":2639:2662   */\n      sub\n        /* \"#utility.yul\":2635:2667   */\n      slt\n        /* \"#utility.yul\":2632:2751   */\n      iszero\n      tag_423\n      jumpi\n        /* \"#utility.yul\":2670:2749   */\n      tag_424\n      tag_311\n      jump\t// in\n    tag_424:\n        /* \"#utility.yul\":2632:2751   */\n    tag_423:\n        /* \"#utility.yul\":2790:2791   */\n      0x00\n        /* \"#utility.yul\":2815:2868   */\n      tag_425\n        /* \"#utility.yul\":2860:2867   */\n      dup6\n        /* \"#utility.yul\":2851:2857   */\n      dup3\n        /* \"#utility.yul\":2840:2849   */\n      dup7\n        /* \"#utility.yul\":2836:2858   */\n      add\n        /* \"#utility.yul\":2815:2868   */\n      tag_316\n      jump\t// in\n    tag_425:\n        /* \"#utility.yul\":2805:2868   */\n      swap3\n      pop\n        /* \"#utility.yul\":2761:2878   */\n      pop\n        /* \"#utility.yul\":2917:2919   */\n      0x20\n        /* \"#utility.yul\":2943:2996   */\n      tag_426\n        /* \"#utility.yul\":2988:2995   */\n      dup6\n        /* \"#utility.yul\":2979:2985   */\n      dup3\n        /* \"#utility.yul\":2968:2977   */\n      dup7\n        /* \"#utility.yul\":2964:2986   */\n      add\n        /* \"#utility.yul\":2943:2996   */\n      tag_319\n      jump\t// in\n    tag_426:\n        /* \"#utility.yul\":2933:2996   */\n      swap2\n      pop\n        /* \"#utility.yul\":2888:3006   */\n      pop\n        /* \"#utility.yul\":2539:3013   */\n      swap3\n      pop\n      swap3\n      swap1\n      pop\n      jump\t// out\n        /* \"#utility.yul\":3019:3109   */\n    tag_320:\n        /* \"#utility.yul\":3053:3060   */\n      0x00\n        /* \"#utility.yul\":3096:3101   */\n      dup2\n        /* \"#utility.yul\":3089:3102   */\n      iszero\n        /* \"#utility.yul\":3082:3103   */\n      iszero\n        /* \"#utility.yul\":3071:3103   */\n      swap1\n      pop\n        /* \"#utility.yul\":3019:3109   */\n      swap2\n      swap1\n      pop\n      jump\t// out\n        /* \"#utility.yul\":3115:3224   */\n    tag_321:\n        /* \"#utility.yul\":3196:3217   */\n      tag_429\n        /* \"#utility.yul\":3211:3216   */\n      dup2\n        /* \"#utility.yul\":3196:3217   */\n      tag_320\n      jump\t// in\n    tag_429:\n        /* \"#utility.yul\":3191:3194   */\n      dup3\n        /* \"#utility.yul\":3184:3218   */\n      mstore\n        /* \"#utility.yul\":3115:3224   */\n      pop\n      pop\n      jump\t// out\n        /* \"#utility.yul\":3230:3440   */\n    tag_35:\n        /* \"#utility.yul\":3317:3321   */\n      0x00\n        /* \"#utility.yul\":3355:3357   */\n      0x20\n        /* \"#utility.yul\":3344:3353   */\n      dup3\n        /* \"#utility.yul\":3340:3358   */\n      add\n        /* \"#utility.yul\":3332:3358   */\n      swap1\n      pop\n        /* \"#utility.yul\":3368:3433   */\n      tag_431\n        /* \"#utility.yul\":3430:3431   */\n      0x00\n        /* \"#utility.yul\":3419:3428   */\n      dup4\n        /* \"#utility.yul\":3415:3432   */\n      add\n        /* \"#utility.yul\":3406:3412   */\n      dup5\n        /* \"#utility.yul\":3368:3433   */\n      tag_321\n      jump\t// in\n    tag_431:\n        /* \"#utility.yul\":3230:3440   */\n      swap3\n      swap2\n      pop\n      pop\n      jump\t// out\n        /* \"#utility.yul\":3446:3564   */\n    tag_322:\n        /* \"#utility.yul\":3533:3557   */\n      tag_433\n        /* \"#utility.yul\":3551:3556   */\n      dup2\n        /* \"#utility.yul\":3533:3557   */\n      tag_317\n      jump\t// in\n    tag_433:\n        /* \"#utility.yul\":3528:3531   */\n      dup3\n        /* \"#utility.yul\":3521:3558   */\n      mstore\n        /* \"#utility.yul\":3446:3564   */\n      pop\n      pop\n      jump\t// out\n        /* \"#utility.yul\":3570:3792   */\n    tag_39:\n        /* \"#utility.yul\":3663:3667   */\n      0x00\n        /* \"#utility.yul\":3701:3703   */\n      0x20\n        /* \"#utility.yul\":3690:3699   */\n      dup3\n        /* \"#utility.yul\":3686:3704   */\n      add\n        /* \"#utility.yul\":3678:3704   */\n      swap1\n      pop\n        /* \"#utility.yul\":3714:3785   */\n      tag_435\n        /* \"#utility.yul\":3782:3783   */\n      0x00\n        /* \"#utility.yul\":3771:3780   */\n      dup4\n        /* \"#utility.yul\":3767:3784   */\n      add\n        /* \"#utility.yul\":3758:3764   */\n      dup5\n        /* \"#utility.yul\":3714:3785   */\n      tag_322\n      jump\t// in\n    tag_435:\n        /* \"#utility.yul\":3570:3792   */\n      swap3\n      swap2\n      pop\n      pop\n      jump\t// out\n        /* \"#utility.yul\":3798:4417   */\n    tag_42:\n        /* \"#utility.yul\":3875:3881   */\n      0x00\n        /* \"#utility.yul\":3883:3889   */\n      dup1\n        /* \"#utility.yul\":3891:3897   */\n      0x00\n        /* \"#utility.yul\":3940:3942   */\n      0x60\n        /* \"#utility.yul\":3928:3937   */\n      dup5\n        /* \"#utility.yul\":3919:3926   */\n      dup7\n        /* \"#utility.yul\":3915:3938   */\n      sub\n        /* \"#utility.yul\":3911:3943   */\n      slt\n        /* \"#utility.yul\":3908:4027   */\n      iszero\n      tag_437\n      jumpi\n        /* \"#utility.yul\":3946:4025   */\n      tag_438\n      tag_311\n      jump\t// in\n    tag_438:\n        /* \"#utility.yul\":3908:4027   */\n    tag_437:\n        /* \"#utility.yul\":4066:4067   */\n      0x00\n        /* \"#utility.yul\":4091:4144   */\n      tag_439\n        /* \"#utility.yul\":4136:4143   */\n      dup7\n        /* \"#utility.yul\":4127:4133   */\n      dup3\n        /* \"#utility.yul\":4116:4125   */\n      dup8\n        /* \"#utility.yul\":4112:4134   */\n      add\n        /* \"#utility.yul\":4091:4144   */\n      tag_316\n      jump\t// in\n    tag_439:\n        /* \"#utility.yul\":4081:4144   */\n      swap4\n      pop\n        /* \"#utility.yul\":4037:4154   */\n      pop\n        /* \"#utility.yul\":4193:4195   */\n      0x20\n        /* \"#utility.yul\":4219:4272   */\n      tag_440\n        /* \"#utility.yul\":4264:4271   */\n      dup7\n        /* \"#utility.yul\":4255:4261   */\n      dup3\n        /* \"#utility.yul\":4244:4253   */\n      dup8\n        /* \"#utility.yul\":4240:4262   */\n      add\n        /* \"#utility.yul\":4219:4272   */\n      tag_316\n      jump\t// in\n    tag_440:\n        /* \"#utility.yul\":4209:4272   */\n      swap3\n      pop\n        /* \"#utility.yul\":4164:4282   */\n      pop\n        /* \"#utility.yul\":4321:4323   */\n      0x40\n        /* \"#utility.yul\":4347:4400   */\n      tag_441\n        /* \"#utility.yul\":4392:4399   */\n      dup7\n        /* \"#utility.yul\":4383:4389   */\n      dup3\n        /* \"#utility.yul\":4372:4381   */\n      dup8\n        /* \"#utility.yul\":4368:4390   */\n      add\n        /* \"#utility.yul\":4347:4400   */\n      tag_319\n      jump\t// in\n    tag_441:\n        /* \"#utility.yul\":4337:4400   */\n      swap2\n      pop\n        /* \"#utility.yul\":4292:4410   */\n      pop\n        /* \"#utility.yul\":3798:4417   */\n      swap3\n      pop\n      swap3\n      pop\n      swap3\n      jump\t// out\n        /* \"#utility.yul\":4423:4752   */\n    tag_47:\n        /* \"#utility.yul\":4482:4488   */\n      0x00\n        /* \"#utility.yul\":4531:4533   */\n      0x20\n        /* \"#utility.yul\":4519:4528   */\n      dup3\n        /* \"#utility.yul\":4510:4517   */\n      dup5\n        /* \"#utility.yul\":4506:4529   */\n      sub\n        /* \"#utility.yul\":4502:4534   */\n      slt\n        /* \"#utility.yul\":4499:4618   */\n      iszero\n      tag_443\n      jumpi\n        /* \"#utility.yul\":4537:4616   */\n      tag_444\n      tag_311\n      jump\t// in\n    tag_444:\n        /* \"#utility.yul\":4499:4618   */\n    tag_443:\n        /* \"#utility.yul\":4657:4658   */\n      0x00\n        /* \"#utility.yul\":4682:4735   */\n      tag_445\n        /* \"#utility.yul\":4727:4734   */\n      dup5\n        /* \"#utility.yul\":4718:4724   */\n      dup3\n        /* \"#utility.yul\":4707:4716   */\n      dup6\n        /* \"#utility.yul\":4703:4725   */\n      add\n        /* \"#utility.yul\":4682:4735   */\n      tag_316\n      jump\t// in\n    tag_445:\n        /* \"#utility.yul\":4672:4735   */\n      swap2\n      pop\n        /* \"#utility.yul\":4628:4745   */\n      pop\n        /* \"#utility.yul\":4423:4752   */\n      swap3\n      swap2\n      pop\n      pop\n      jump\t// out\n        /* \"#utility.yul\":4758:4844   */\n    tag_323:\n        /* \"#utility.yul\":4793:4800   */\n      0x00\n        /* \"#utility.yul\":4833:4837   */\n      0xff\n        /* \"#utility.yul\":4826:4831   */\n      dup3\n        /* \"#utility.yul\":4822:4838   */\n      and\n        /* \"#utility.yul\":4811:4838   */\n      swap1\n      pop\n        /* \"#utility.yul\":4758:4844   */\n      swap2\n      swap1\n      pop\n      jump\t// out\n        /* \"#utility.yul\":4850:4962   */\n    tag_324:\n        /* \"#utility.yul\":4933:4955   */\n      tag_448\n        /* \"#utility.yul\":4949:4954   */\n      dup2\n        /* \"#utility.yul\":4933:4955   */\n      tag_323\n      jump\t// in\n    tag_448:\n        /* \"#utility.yul\":4928:4931   */\n      dup3\n        /* \"#utility.yul\":4921:4956   */\n      mstore\n        /* \"#utility.yul\":4850:4962   */\n      pop\n      pop\n      jump\t// out\n        /* \"#utility.yul\":4968:5182   */\n    tag_53:\n        /* \"#utility.yul\":5057:5061   */\n      0x00\n        /* \"#utility.yul\":5095:5097   */\n      0x20\n        /* \"#utility.yul\":5084:5093   */\n      dup3\n        /* \"#utility.yul\":5080:5098   */\n      add\n        /* \"#utility.yul\":5072:5098   */\n      swap1\n      pop\n        /* \"#utility.yul\":5108:5175   */\n      tag_450\n        /* \"#utility.yul\":5172:5173   */\n      0x00\n        /* \"#utility.yul\":5161:5170   */\n      dup4\n        /* \"#utility.yul\":5157:5174   */\n      add\n        /* \"#utility.yul\":5148:5154   */\n      dup5\n        /* \"#utility.yul\":5108:5175   */\n      tag_324\n      jump\t// in\n    tag_450:\n        /* \"#utility.yul\":4968:5182   */\n      swap3\n      swap2\n      pop\n      pop\n      jump\t// out\n        /* \"#utility.yul\":5188:5305   */\n    tag_325:\n        /* \"#utility.yul\":5297:5298   */\n      0x00\n        /* \"#utility.yul\":5294:5295   */\n      dup1\n        /* \"#utility.yul\":5287:5299   */\n      revert\n        /* \"#utility.yul\":5311:5428   */\n    tag_326:\n        /* \"#utility.yul\":5420:5421   */\n      0x00\n        /* \"#utility.yul\":5417:5418   */\n      dup1\n        /* \"#utility.yul\":5410:5422   */\n      revert\n        /* \"#utility.yul\":5434:5614   */\n    tag_218:\n        /* \"#utility.yul\":5482:5559   */\n      0x4e487b7100000000000000000000000000000000000000000000000000000000\n        /* \"#utility.yul\":5479:5480   */\n      0x00\n        /* \"#utility.yul\":5472:5560   */\n      mstore\n        /* \"#utility.yul\":5579:5583   */\n      0x41\n        /* \"#utility.yul\":5576:5577   */\n      0x04\n        /* \"#utility.yul\":5569:5584   */\n      mstore\n        /* \"#utility.yul\":5603:5607   */\n      0x24\n        /* \"#utility.yul\":5600:5601   */\n      0x00\n        /* \"#utility.yul\":5593:5608   */\n      revert\n        /* \"#utility.yul\":5620:5901   */\n    tag_327:\n        /* \"#utility.yul\":5703:5730   */\n      tag_455\n        /* \"#utility.yul\":5725:5729   */\n      dup3\n        /* \"#utility.yul\":5703:5730   */\n      tag_308\n      jump\t// in\n    tag_455:\n        /* \"#utility.yul\":5695:5701   */\n      dup2\n        /* \"#utility.yul\":5691:5731   */\n      add\n        /* \"#utility.yul\":5833:5839   */\n      dup2\n        /* \"#utility.yul\":5821:5831   */\n      dup2\n        /* \"#utility.yul\":5818:5840   */\n      lt\n        /* \"#utility.yul\":5797:5815   */\n      0xffffffffffffffff\n        /* \"#utility.yul\":5785:5795   */\n      dup3\n        /* \"#utility.yul\":5782:5816   */\n      gt\n        /* \"#utility.yul\":5779:5841   */\n      or\n        /* \"#utility.yul\":5776:5864   */\n      iszero\n      tag_456\n      jumpi\n        /* \"#utility.yul\":5844:5862   */\n      tag_457\n      tag_218\n      jump\t// in\n    tag_457:\n        /* \"#utility.yul\":5776:5864   */\n    tag_456:\n        /* \"#utility.yul\":5884:5894   */\n      dup1\n        /* \"#utility.yul\":5880:5882   */\n      0x40\n        /* \"#utility.yul\":5873:5895   */\n      mstore\n        /* \"#utility.yul\":5663:5901   */\n      pop\n        /* \"#utility.yul\":5620:5901   */\n      pop\n      pop\n      jump\t// out\n        /* \"#utility.yul\":5907:6036   */\n    tag_328:\n        /* \"#utility.yul\":5941:5947   */\n      0x00\n        /* \"#utility.yul\":5968:5988   */\n      tag_459\n      tag_310\n      jump\t// in\n    tag_459:\n        /* \"#utility.yul\":5958:5988   */\n      swap1\n      pop\n        /* \"#utility.yul\":5997:6030   */\n      tag_460\n        /* \"#utility.yul\":6025:6029   */\n      dup3\n        /* \"#utility.yul\":6017:6023   */\n      dup3\n        /* \"#utility.yul\":5997:6030   */\n      tag_327\n      jump\t// in\n    tag_460:\n        /* \"#utility.yul\":5907:6036   */\n      swap2\n      swap1\n      pop\n      jump\t// out\n        /* \"#utility.yul\":6042:6350   */\n    tag_329:\n        /* \"#utility.yul\":6104:6108   */\n      0x00\n        /* \"#utility.yul\":6194:6212   */\n      0xffffffffffffffff\n        /* \"#utility.yul\":6186:6192   */\n      dup3\n        /* \"#utility.yul\":6183:6213   */\n      gt\n        /* \"#utility.yul\":6180:6236   */\n      iszero\n      tag_462\n      jumpi\n        /* \"#utility.yul\":6216:6234   */\n      tag_463\n      tag_218\n      jump\t// in\n    tag_463:\n        /* \"#utility.yul\":6180:6236   */\n    tag_462:\n        /* \"#utility.yul\":6254:6283   */\n      tag_464\n        /* \"#utility.yul\":6276:6282   */\n      dup3\n        /* \"#utility.yul\":6254:6283   */\n      tag_308\n      jump\t// in\n    tag_464:\n        /* \"#utility.yul\":6246:6283   */\n      swap1\n      pop\n        /* \"#utility.yul\":6338:6342   */\n      0x20\n        /* \"#utility.yul\":6332:6336   */\n      dup2\n        /* \"#utility.yul\":6328:6343   */\n      add\n        /* \"#utility.yul\":6320:6343   */\n      swap1\n      pop\n        /* \"#utility.yul\":6042:6350   */\n      swap2\n      swap1\n      pop\n      jump\t// out\n        /* \"#utility.yul\":6356:6502   */\n    tag_330:\n        /* \"#utility.yul\":6453:6459   */\n      dup3\n        /* \"#utility.yul\":6448:6451   */\n      dup2\n        /* \"#utility.yul\":6443:6446   */\n      dup4\n        /* \"#utility.yul\":6430:6460   */\n      calldatacopy\n        /* \"#utility.yul\":6494:6495   */\n      0x00\n        /* \"#utility.yul\":6485:6491   */\n      dup4\n        /* \"#utility.yul\":6480:6483   */\n      dup4\n        /* \"#utility.yul\":6476:6492   */\n      add\n        /* \"#utility.yul\":6469:6496   */\n      mstore\n        /* \"#utility.yul\":6356:6502   */\n      pop\n      pop\n      pop\n      jump\t// out\n        /* \"#utility.yul\":6508:6933   */\n    tag_331:\n        /* \"#utility.yul\":6586:6591   */\n      0x00\n        /* \"#utility.yul\":6611:6677   */\n      tag_467\n        /* \"#utility.yul\":6627:6676   */\n      tag_468\n        /* \"#utility.yul\":6669:6675   */\n      dup5\n        /* \"#utility.yul\":6627:6676   */\n      tag_329\n      jump\t// in\n    tag_468:\n        /* \"#utility.yul\":6611:6677   */\n      tag_328\n      jump\t// in\n    tag_467:\n        /* \"#utility.yul\":6602:6677   */\n      swap1\n      pop\n        /* \"#utility.yul\":6700:6706   */\n      dup3\n        /* \"#utility.yul\":6693:6698   */\n      dup2\n        /* \"#utility.yul\":6686:6707   */\n      mstore\n        /* \"#utility.yul\":6738:6742   */\n      0x20\n        /* \"#utility.yul\":6731:6736   */\n      dup2\n        /* \"#utility.yul\":6727:6743   */\n      add\n        /* \"#utility.yul\":6776:6779   */\n      dup5\n        /* \"#utility.yul\":6767:6773   */\n      dup5\n        /* \"#utility.yul\":6762:6765   */\n      dup5\n        /* \"#utility.yul\":6758:6774   */\n      add\n        /* \"#utility.yul\":6755:6780   */\n      gt\n        /* \"#utility.yul\":6752:6864   */\n      iszero\n      tag_469\n      jumpi\n        /* \"#utility.yul\":6783:6862   */\n      tag_470\n      tag_326\n      jump\t// in\n    tag_470:\n        /* \"#utility.yul\":6752:6864   */\n    tag_469:\n        /* \"#utility.yul\":6873:6927   */\n      tag_471\n        /* \"#utility.yul\":6920:6926   */\n      dup5\n        /* \"#utility.yul\":6915:6918   */\n      dup3\n        /* \"#utility.yul\":6910:6913   */\n      dup6\n        /* \"#utility.yul\":6873:6927   */\n      tag_330\n      jump\t// in\n    tag_471:\n        /* \"#utility.yul\":6592:6933   */\n      pop\n        /* \"#utility.yul\":6508:6933   */\n      swap4\n      swap3\n      pop\n      pop\n      pop\n      jump\t// out\n        /* \"#utility.yul\":6953:7293   */\n    tag_332:\n        /* \"#utility.yul\":7009:7014   */\n      0x00\n        /* \"#utility.yul\":7058:7061   */\n      dup3\n        /* \"#utility.yul\":7051:7055   */\n      0x1f\n        /* \"#utility.yul\":7043:7049   */\n      dup4\n        /* \"#utility.yul\":7039:7056   */\n      add\n        /* \"#utility.yul\":7035:7062   */\n      slt\n        /* \"#utility.yul\":7025:7147   */\n      tag_473\n      jumpi\n        /* \"#utility.yul\":7066:7145   */\n      tag_474\n      tag_325\n      jump\t// in\n    tag_474:\n        /* \"#utility.yul\":7025:7147   */\n    tag_473:\n        /* \"#utility.yul\":7183:7189   */\n      dup2\n        /* \"#utility.yul\":7170:7190   */\n      calldataload\n        /* \"#utility.yul\":7208:7287   */\n      tag_475\n        /* \"#utility.yul\":7283:7286   */\n      dup5\n        /* \"#utility.yul\":7275:7281   */\n      dup3\n        /* \"#utility.yul\":7268:7272   */\n      0x20\n        /* \"#utility.yul\":7260:7266   */\n      dup7\n        /* \"#utility.yul\":7256:7273   */\n      add\n        /* \"#utility.yul\":7208:7287   */\n      tag_331\n      jump\t// in\n    tag_475:\n        /* \"#utility.yul\":7199:7287   */\n      swap2\n      pop\n        /* \"#utility.yul\":7015:7293   */\n      pop\n        /* \"#utility.yul\":6953:7293   */\n      swap3\n      swap2\n      pop\n      pop\n      jump\t// out\n        /* \"#utility.yul\":7299:7953   */\n    tag_73:\n        /* \"#utility.yul\":7377:7383   */\n      0x00\n        /* \"#utility.yul\":7385:7391   */\n      dup1\n        /* \"#utility.yul\":7434:7436   */\n      0x40\n        /* \"#utility.yul\":7422:7431   */\n      dup4\n        /* \"#utility.yul\":7413:7420   */\n      dup6\n        /* \"#utility.yul\":7409:7432   */\n      sub\n        /* \"#utility.yul\":7405:7437   */\n      slt\n        /* \"#utility.yul\":7402:7521   */\n      iszero\n      tag_477\n      jumpi\n        /* \"#utility.yul\":7440:7519   */\n      tag_478\n      tag_311\n      jump\t// in\n    tag_478:\n        /* \"#utility.yul\":7402:7521   */\n    tag_477:\n        /* \"#utility.yul\":7588:7589   */\n      0x00\n        /* \"#utility.yul\":7577:7586   */\n      dup4\n        /* \"#utility.yul\":7573:7590   */\n      add\n        /* \"#utility.yul\":7560:7591   */\n      calldataload\n        /* \"#utility.yul\":7618:7636   */\n      0xffffffffffffffff\n        /* \"#utility.yul\":7610:7616   */\n      dup2\n        /* \"#utility.yul\":7607:7637   */\n      gt\n        /* \"#utility.yul\":7604:7721   */\n      iszero\n      tag_479\n      jumpi\n        /* \"#utility.yul\":7640:7719   */\n      tag_480\n      tag_312\n      jump\t// in\n    tag_480:\n        /* \"#utility.yul\":7604:7721   */\n    tag_479:\n        /* \"#utility.yul\":7745:7808   */\n      tag_481\n        /* \"#utility.yul\":7800:7807   */\n      dup6\n        /* \"#utility.yul\":7791:7797   */\n      dup3\n        /* \"#utility.yul\":7780:7789   */\n      dup7\n        /* \"#utility.yul\":7776:7798   */\n      add\n        /* \"#utility.yul\":7745:7808   */\n      tag_332\n      jump\t// in\n    tag_481:\n        /* \"#utility.yul\":7735:7808   */\n      swap3\n      pop\n        /* \"#utility.yul\":7531:7818   */\n      pop\n        /* \"#utility.yul\":7857:7859   */\n      0x20\n        /* \"#utility.yul\":7883:7936   */\n      tag_482\n        /* \"#utility.yul\":7928:7935   */\n      dup6\n        /* \"#utility.yul\":7919:7925   */\n      dup3\n        /* \"#utility.yul\":7908:7917   */\n      dup7\n        /* \"#utility.yul\":7904:7926   */\n      add\n        /* \"#utility.yul\":7883:7936   */\n      tag_319\n      jump\t// in\n    tag_482:\n        /* \"#utility.yul\":7873:7936   */\n      swap2\n      pop\n        /* \"#utility.yul\":7828:7946   */\n      pop\n        /* \"#utility.yul\":7299:7953   */\n      swap3\n      pop\n      swap3\n      swap1\n      pop\n      jump\t// out\n        /* \"#utility.yul\":7959:8066   */\n    tag_333:\n        /* \"#utility.yul\":8040:8041   */\n      0x03\n        /* \"#utility.yul\":8033:8038   */\n      dup2\n        /* \"#utility.yul\":8030:8042   */\n      lt\n        /* \"#utility.yul\":8020:8060   */\n      tag_484\n      jumpi\n        /* \"#utility.yul\":8056:8057   */\n      0x00\n        /* \"#utility.yul\":8053:8054   */\n      dup1\n        /* \"#utility.yul\":8046:8058   */\n      revert\n        /* \"#utility.yul\":8020:8060   */\n    tag_484:\n        /* \"#utility.yul\":7959:8066   */\n      pop\n      jump\t// out\n        /* \"#utility.yul\":8072:8227   */\n    tag_334:\n        /* \"#utility.yul\":8126:8131   */\n      0x00\n        /* \"#utility.yul\":8164:8170   */\n      dup2\n        /* \"#utility.yul\":8151:8171   */\n      calldataload\n        /* \"#utility.yul\":8142:8171   */\n      swap1\n      pop\n        /* \"#utility.yul\":8180:8221   */\n      tag_486\n        /* \"#utility.yul\":8215:8220   */\n      dup2\n        /* \"#utility.yul\":8180:8221   */\n      tag_333\n      jump\t// in\n    tag_486:\n        /* \"#utility.yul\":8072:8227   */\n      swap3\n      swap2\n      pop\n      pop\n      jump\t// out\n        /* \"#utility.yul\":8233:8723   */\n    tag_78:\n        /* \"#utility.yul\":8309:8315   */\n      0x00\n        /* \"#utility.yul\":8317:8323   */\n      dup1\n        /* \"#utility.yul\":8366:8368   */\n      0x40\n        /* \"#utility.yul\":8354:8363   */\n      dup4\n        /* \"#utility.yul\":8345:8352   */\n      dup6\n        /* \"#utility.yul\":8341:8364   */\n      sub\n        /* \"#utility.yul\":8337:8369   */\n      slt\n        /* \"#utility.yul\":8334:8453   */\n      iszero\n      tag_488\n      jumpi\n        /* \"#utility.yul\":8372:8451   */\n      tag_489\n      tag_311\n      jump\t// in\n    tag_489:\n        /* \"#utility.yul\":8334:8453   */\n    tag_488:\n        /* \"#utility.yul\":8492:8493   */\n      0x00\n        /* \"#utility.yul\":8517:8570   */\n      tag_490\n        /* \"#utility.yul\":8562:8569   */\n      dup6\n        /* \"#utility.yul\":8553:8559   */\n      dup3\n        /* \"#utility.yul\":8542:8551   */\n      dup7\n        /* \"#utility.yul\":8538:8560   */\n      add\n        /* \"#utility.yul\":8517:8570   */\n      tag_319\n      jump\t// in\n    tag_490:\n        /* \"#utility.yul\":8507:8570   */\n      swap3\n      pop\n        /* \"#utility.yul\":8463:8580   */\n      pop\n        /* \"#utility.yul\":8619:8621   */\n      0x20\n        /* \"#utility.yul\":8645:8706   */\n      tag_491\n        /* \"#utility.yul\":8698:8705   */\n      dup6\n        /* \"#utility.yul\":8689:8695   */\n      dup3\n        /* \"#utility.yul\":8678:8687   */\n      dup7\n        /* \"#utility.yul\":8674:8696   */\n      add\n        /* \"#utility.yul\":8645:8706   */\n      tag_334\n      jump\t// in\n    tag_491:\n        /* \"#utility.yul\":8635:8706   */\n      swap2\n      pop\n        /* \"#utility.yul\":8590:8716   */\n      pop\n        /* \"#utility.yul\":8233:8723   */\n      swap3\n      pop\n      swap3\n      swap1\n      pop\n      jump\t// out\n        /* \"#utility.yul\":8729:9058   */\n    tag_88:\n        /* \"#utility.yul\":8788:8794   */\n      0x00\n        /* \"#utility.yul\":8837:8839   */\n      0x20\n        /* \"#utility.yul\":8825:8834   */\n      dup3\n        /* \"#utility.yul\":8816:8823   */\n      dup5\n        /* \"#utility.yul\":8812:8835   */\n      sub\n        /* \"#utility.yul\":8808:8840   */\n      slt\n        /* \"#utility.yul\":8805:8924   */\n      iszero\n      tag_493\n      jumpi\n        /* \"#utility.yul\":8843:8922   */\n      tag_494\n      tag_311\n      jump\t// in\n    tag_494:\n        /* \"#utility.yul\":8805:8924   */\n    tag_493:\n        /* \"#utility.yul\":8963:8964   */\n      0x00\n        /* \"#utility.yul\":8988:9041   */\n      tag_495\n        /* \"#utility.yul\":9033:9040   */\n      dup5\n        /* \"#utility.yul\":9024:9030   */\n      dup3\n        /* \"#utility.yul\":9013:9022   */\n      dup6\n        /* \"#utility.yul\":9009:9031   */\n      add\n        /* \"#utility.yul\":8988:9041   */\n      tag_319\n      jump\t// in\n    tag_495:\n        /* \"#utility.yul\":8978:9041   */\n      swap2\n      pop\n        /* \"#utility.yul\":8934:9051   */\n      pop\n        /* \"#utility.yul\":8729:9058   */\n      swap3\n      swap2\n      pop\n      pop\n      jump\t// out\n        /* \"#utility.yul\":9064:9178   */\n    tag_335:\n        /* \"#utility.yul\":9131:9137   */\n      0x00\n        /* \"#utility.yul\":9165:9170   */\n      dup2\n        /* \"#utility.yul\":9159:9171   */\n      mload\n        /* \"#utility.yul\":9149:9171   */\n      swap1\n      pop\n        /* \"#utility.yul\":9064:9178   */\n      swap2\n      swap1\n      pop\n      jump\t// out\n        /* \"#utility.yul\":9184:9358   */\n    tag_336:\n        /* \"#utility.yul\":9273:9284   */\n      0x00\n        /* \"#utility.yul\":9307:9313   */\n      dup3\n        /* \"#utility.yul\":9302:9305   */\n      dup3\n        /* \"#utility.yul\":9295:9314   */\n      mstore\n        /* \"#utility.yul\":9347:9351   */\n      0x20\n        /* \"#utility.yul\":9342:9345   */\n      dup3\n        /* \"#utility.yul\":9338:9352   */\n      add\n        /* \"#utility.yul\":9323:9352   */\n      swap1\n      pop\n        /* \"#utility.yul\":9184:9358   */\n      swap3\n      swap2\n      pop\n      pop\n      jump\t// out\n        /* \"#utility.yul\":9364:9496   */\n    tag_337:\n        /* \"#utility.yul\":9431:9435   */\n      0x00\n        /* \"#utility.yul\":9454:9457   */\n      dup2\n        /* \"#utility.yul\":9446:9457   */\n      swap1\n      pop\n        /* \"#utility.yul\":9484:9488   */\n      0x20\n        /* \"#utility.yul\":9479:9482   */\n      dup3\n        /* \"#utility.yul\":9475:9489   */\n      add\n        /* \"#utility.yul\":9467:9489   */\n      swap1\n      pop\n        /* \"#utility.yul\":9364:9496   */\n      swap2\n      swap1\n      pop\n      jump\t// out\n        /* \"#utility.yul\":9502:9610   */\n    tag_338:\n        /* \"#utility.yul\":9579:9603   */\n      tag_500\n        /* \"#utility.yul\":9597:9602   */\n      dup2\n        /* \"#utility.yul\":9579:9603   */\n      tag_314\n      jump\t// in\n    tag_500:\n        /* \"#utility.yul\":9574:9577   */\n      dup3\n        /* \"#utility.yul\":9567:9604   */\n      mstore\n        /* \"#utility.yul\":9502:9610   */\n      pop\n      pop\n      jump\t// out\n        /* \"#utility.yul\":9616:9795   */\n    tag_339:\n        /* \"#utility.yul\":9685:9695   */\n      0x00\n        /* \"#utility.yul\":9706:9752   */\n      tag_502\n        /* \"#utility.yul\":9748:9751   */\n      dup4\n        /* \"#utility.yul\":9740:9746   */\n      dup4\n        /* \"#utility.yul\":9706:9752   */\n      tag_338\n      jump\t// in\n    tag_502:\n        /* \"#utility.yul\":9784:9788   */\n      0x20\n        /* \"#utility.yul\":9779:9782   */\n      dup4\n        /* \"#utility.yul\":9775:9789   */\n      add\n        /* \"#utility.yul\":9761:9789   */\n      swap1\n      pop\n        /* \"#utility.yul\":9616:9795   */\n      swap3\n      swap2\n      pop\n      pop\n      jump\t// out\n        /* \"#utility.yul\":9801:9914   */\n    tag_340:\n        /* \"#utility.yul\":9871:9875   */\n      0x00\n        /* \"#utility.yul\":9903:9907   */\n      0x20\n        /* \"#utility.yul\":9898:9901   */\n      dup3\n        /* \"#utility.yul\":9894:9908   */\n      add\n        /* \"#utility.yul\":9886:9908   */\n      swap1\n      pop\n        /* \"#utility.yul\":9801:9914   */\n      swap2\n      swap1\n      pop\n      jump\t// out\n        /* \"#utility.yul\":9950:10662   */\n    tag_341:\n        /* \"#utility.yul\":10059:10062   */\n      0x00\n        /* \"#utility.yul\":10088:10142   */\n      tag_505\n        /* \"#utility.yul\":10136:10141   */\n      dup3\n        /* \"#utility.yul\":10088:10142   */\n      tag_335\n      jump\t// in\n    tag_505:\n        /* \"#utility.yul\":10158:10234   */\n      tag_506\n        /* \"#utility.yul\":10227:10233   */\n      dup2\n        /* \"#utility.yul\":10222:10225   */\n      dup6\n        /* \"#utility.yul\":10158:10234   */\n      tag_336\n      jump\t// in\n    tag_506:\n        /* \"#utility.yul\":10151:10234   */\n      swap4\n      pop\n        /* \"#utility.yul\":10258:10314   */\n      tag_507\n        /* \"#utility.yul\":10308:10313   */\n      dup4\n        /* \"#utility.yul\":10258:10314   */\n      tag_337\n      jump\t// in\n    tag_507:\n        /* \"#utility.yul\":10337:10344   */\n      dup1\n        /* \"#utility.yul\":10368:10369   */\n      0x00\n        /* \"#utility.yul\":10353:10637   */\n    tag_508:\n        /* \"#utility.yul\":10378:10384   */\n      dup4\n        /* \"#utility.yul\":10375:10376   */\n      dup2\n        /* \"#utility.yul\":10372:10385   */\n      lt\n        /* \"#utility.yul\":10353:10637   */\n      iszero\n      tag_510\n      jumpi\n        /* \"#utility.yul\":10454:10460   */\n      dup2\n        /* \"#utility.yul\":10448:10461   */\n      mload\n        /* \"#utility.yul\":10481:10544   */\n      tag_511\n        /* \"#utility.yul\":10540:10543   */\n      dup9\n        /* \"#utility.yul\":10525:10538   */\n      dup3\n        /* \"#utility.yul\":10481:10544   */\n      tag_339\n      jump\t// in\n    tag_511:\n        /* \"#utility.yul\":10474:10544   */\n      swap8\n      pop\n        /* \"#utility.yul\":10567:10627   */\n      tag_512\n        /* \"#utility.yul\":10620:10626   */\n      dup4\n        /* \"#utility.yul\":10567:10627   */\n      tag_340\n      jump\t// in\n    tag_512:\n        /* \"#utility.yul\":10557:10627   */\n      swap3\n      pop\n        /* \"#utility.yul\":10413:10637   */\n      pop\n        /* \"#utility.yul\":10400:10401   */\n      0x01\n        /* \"#utility.yul\":10397:10398   */\n      dup2\n        /* \"#utility.yul\":10393:10402   */\n      add\n        /* \"#utility.yul\":10388:10402   */\n      swap1\n      pop\n        /* \"#utility.yul\":10353:10637   */\n      jump(tag_508)\n    tag_510:\n        /* \"#utility.yul\":10357:10371   */\n      pop\n        /* \"#utility.yul\":10653:10656   */\n      dup6\n        /* \"#utility.yul\":10646:10656   */\n      swap4\n      pop\n        /* \"#utility.yul\":10064:10662   */\n      pop\n      pop\n      pop\n        /* \"#utility.yul\":9950:10662   */\n      swap3\n      swap2\n      pop\n      pop\n      jump\t// out\n        /* \"#utility.yul\":10668:10827   */\n    tag_342:\n        /* \"#utility.yul\":10742:10753   */\n      0x00\n        /* \"#utility.yul\":10776:10782   */\n      dup3\n        /* \"#utility.yul\":10771:10774   */\n      dup3\n        /* \"#utility.yul\":10764:10783   */\n      mstore\n        /* \"#utility.yul\":10816:10820   */\n      0x20\n        /* \"#utility.yul\":10811:10814   */\n      dup3\n        /* \"#utility.yul\":10807:10821   */\n      add\n        /* \"#utility.yul\":10792:10821   */\n      swap1\n      pop\n        /* \"#utility.yul\":10668:10827   */\n      swap3\n      swap2\n      pop\n      pop\n      jump\t// out\n        /* \"#utility.yul\":10833:11190   */\n    tag_343:\n        /* \"#utility.yul\":10911:10914   */\n      0x00\n        /* \"#utility.yul\":10939:10978   */\n      tag_515\n        /* \"#utility.yul\":10972:10977   */\n      dup3\n        /* \"#utility.yul\":10939:10978   */\n      tag_305\n      jump\t// in\n    tag_515:\n        /* \"#utility.yul\":10994:11055   */\n      tag_516\n        /* \"#utility.yul\":11048:11054   */\n      dup2\n        /* \"#utility.yul\":11043:11046   */\n      dup6\n        /* \"#utility.yul\":10994:11055   */\n      tag_342\n      jump\t// in\n    tag_516:\n        /* \"#utility.yul\":10987:11055   */\n      swap4\n      pop\n        /* \"#utility.yul\":11064:11129   */\n      tag_517\n        /* \"#utility.yul\":11122:11128   */\n      dup2\n        /* \"#utility.yul\":11117:11120   */\n      dup6\n        /* \"#utility.yul\":11110:11114   */\n      0x20\n        /* \"#utility.yul\":11103:11108   */\n      dup7\n        /* \"#utility.yul\":11099:11115   */\n      add\n        /* \"#utility.yul\":11064:11129   */\n      tag_307\n      jump\t// in\n    tag_517:\n        /* \"#utility.yul\":11154:11183   */\n      tag_518\n        /* \"#utility.yul\":11176:11182   */\n      dup2\n        /* \"#utility.yul\":11154:11183   */\n      tag_308\n      jump\t// in\n    tag_518:\n        /* \"#utility.yul\":11149:11152   */\n      dup5\n        /* \"#utility.yul\":11145:11184   */\n      add\n        /* \"#utility.yul\":11138:11184   */\n      swap2\n      pop\n        /* \"#utility.yul\":10915:11190   */\n      pop\n        /* \"#utility.yul\":10833:11190   */\n      swap3\n      swap2\n      pop\n      pop\n      jump\t// out\n        /* \"#utility.yul\":11196:11304   */\n    tag_344:\n        /* \"#utility.yul\":11273:11297   */\n      tag_520\n        /* \"#utility.yul\":11291:11296   */\n      dup2\n        /* \"#utility.yul\":11273:11297   */\n      tag_317\n      jump\t// in\n    tag_520:\n        /* \"#utility.yul\":11268:11271   */\n      dup3\n        /* \"#utility.yul\":11261:11298   */\n      mstore\n        /* \"#utility.yul\":11196:11304   */\n      pop\n      pop\n      jump\t// out\n        /* \"#utility.yul\":11310:11409   */\n    tag_345:\n        /* \"#utility.yul\":11381:11402   */\n      tag_522\n        /* \"#utility.yul\":11396:11401   */\n      dup2\n        /* \"#utility.yul\":11381:11402   */\n      tag_320\n      jump\t// in\n    tag_522:\n        /* \"#utility.yul\":11376:11379   */\n      dup3\n        /* \"#utility.yul\":11369:11403   */\n      mstore\n        /* \"#utility.yul\":11310:11409   */\n      pop\n      pop\n      jump\t// out\n        /* \"#utility.yul\":11503:13461   */\n    tag_346:\n        /* \"#utility.yul\":11622:11625   */\n      0x00\n        /* \"#utility.yul\":11658:11664   */\n      0x0120\n        /* \"#utility.yul\":11653:11656   */\n      dup4\n        /* \"#utility.yul\":11649:11665   */\n      add\n        /* \"#utility.yul\":11749:11753   */\n      0x00\n        /* \"#utility.yul\":11742:11747   */\n      dup4\n        /* \"#utility.yul\":11738:11754   */\n      add\n        /* \"#utility.yul\":11732:11755   */\n      mload\n        /* \"#utility.yul\":11802:11805   */\n      dup5\n        /* \"#utility.yul\":11796:11800   */\n      dup3\n        /* \"#utility.yul\":11792:11806   */\n      sub\n        /* \"#utility.yul\":11785:11789   */\n      0x00\n        /* \"#utility.yul\":11780:11783   */\n      dup7\n        /* \"#utility.yul\":11776:11790   */\n      add\n        /* \"#utility.yul\":11769:11807   */\n      mstore\n        /* \"#utility.yul\":11828:11931   */\n      tag_524\n        /* \"#utility.yul\":11926:11930   */\n      dup3\n        /* \"#utility.yul\":11912:11924   */\n      dup3\n        /* \"#utility.yul\":11828:11931   */\n      tag_341\n      jump\t// in\n    tag_524:\n        /* \"#utility.yul\":11820:11931   */\n      swap2\n      pop\n        /* \"#utility.yul\":11675:11942   */\n      pop\n        /* \"#utility.yul\":12029:12033   */\n      0x20\n        /* \"#utility.yul\":12022:12027   */\n      dup4\n        /* \"#utility.yul\":12018:12034   */\n      add\n        /* \"#utility.yul\":12012:12035   */\n      mload\n        /* \"#utility.yul\":12082:12085   */\n      dup5\n        /* \"#utility.yul\":12076:12080   */\n      dup3\n        /* \"#utility.yul\":12072:12086   */\n      sub\n        /* \"#utility.yul\":12065:12069   */\n      0x20\n        /* \"#utility.yul\":12060:12063   */\n      dup7\n        /* \"#utility.yul\":12056:12070   */\n      add\n        /* \"#utility.yul\":12049:12087   */\n      mstore\n        /* \"#utility.yul\":12108:12181   */\n      tag_525\n        /* \"#utility.yul\":12176:12180   */\n      dup3\n        /* \"#utility.yul\":12162:12174   */\n      dup3\n        /* \"#utility.yul\":12108:12181   */\n      tag_343\n      jump\t// in\n    tag_525:\n        /* \"#utility.yul\":12100:12181   */\n      swap2\n      pop\n        /* \"#utility.yul\":11952:12192   */\n      pop\n        /* \"#utility.yul\":12278:12282   */\n      0x40\n        /* \"#utility.yul\":12271:12276   */\n      dup4\n        /* \"#utility.yul\":12267:12283   */\n      add\n        /* \"#utility.yul\":12261:12284   */\n      mload\n        /* \"#utility.yul\":12297:12360   */\n      tag_526\n        /* \"#utility.yul\":12354:12358   */\n      0x40\n        /* \"#utility.yul\":12349:12352   */\n      dup7\n        /* \"#utility.yul\":12345:12359   */\n      add\n        /* \"#utility.yul\":12331:12343   */\n      dup3\n        /* \"#utility.yul\":12297:12360   */\n      tag_344\n      jump\t// in\n    tag_526:\n        /* \"#utility.yul\":12202:12370   */\n      pop\n        /* \"#utility.yul\":12460:12464   */\n      0x60\n        /* \"#utility.yul\":12453:12458   */\n      dup4\n        /* \"#utility.yul\":12449:12465   */\n      add\n        /* \"#utility.yul\":12443:12466   */\n      mload\n        /* \"#utility.yul\":12479:12542   */\n      tag_527\n        /* \"#utility.yul\":12536:12540   */\n      0x60\n        /* \"#utility.yul\":12531:12534   */\n      dup7\n        /* \"#utility.yul\":12527:12541   */\n      add\n        /* \"#utility.yul\":12513:12525   */\n      dup3\n        /* \"#utility.yul\":12479:12542   */\n      tag_344\n      jump\t// in\n    tag_527:\n        /* \"#utility.yul\":12380:12552   */\n      pop\n        /* \"#utility.yul\":12642:12646   */\n      0x80\n        /* \"#utility.yul\":12635:12640   */\n      dup4\n        /* \"#utility.yul\":12631:12647   */\n      add\n        /* \"#utility.yul\":12625:12648   */\n      mload\n        /* \"#utility.yul\":12661:12724   */\n      tag_528\n        /* \"#utility.yul\":12718:12722   */\n      0x80\n        /* \"#utility.yul\":12713:12716   */\n      dup7\n        /* \"#utility.yul\":12709:12723   */\n      add\n        /* \"#utility.yul\":12695:12707   */\n      dup3\n        /* \"#utility.yul\":12661:12724   */\n      tag_344\n      jump\t// in\n    tag_528:\n        /* \"#utility.yul\":12562:12734   */\n      pop\n        /* \"#utility.yul\":12822:12826   */\n      0xa0\n        /* \"#utility.yul\":12815:12820   */\n      dup4\n        /* \"#utility.yul\":12811:12827   */\n      add\n        /* \"#utility.yul\":12805:12828   */\n      mload\n        /* \"#utility.yul\":12841:12904   */\n      tag_529\n        /* \"#utility.yul\":12898:12902   */\n      0xa0\n        /* \"#utility.yul\":12893:12896   */\n      dup7\n        /* \"#utility.yul\":12889:12903   */\n      add\n        /* \"#utility.yul\":12875:12887   */\n      dup3\n        /* \"#utility.yul\":12841:12904   */\n      tag_344\n      jump\t// in\n    tag_529:\n        /* \"#utility.yul\":12744:12914   */\n      pop\n        /* \"#utility.yul\":12998:13002   */\n      0xc0\n        /* \"#utility.yul\":12991:12996   */\n      dup4\n        /* \"#utility.yul\":12987:13003   */\n      add\n        /* \"#utility.yul\":12981:13004   */\n      mload\n        /* \"#utility.yul\":13017:13080   */\n      tag_530\n        /* \"#utility.yul\":13074:13078   */\n      0xc0\n        /* \"#utility.yul\":13069:13072   */\n      dup7\n        /* \"#utility.yul\":13065:13079   */\n      add\n        /* \"#utility.yul\":13051:13063   */\n      dup3\n        /* \"#utility.yul\":13017:13080   */\n      tag_344\n      jump\t// in\n    tag_530:\n        /* \"#utility.yul\":12924:13090   */\n      pop\n        /* \"#utility.yul\":13174:13178   */\n      0xe0\n        /* \"#utility.yul\":13167:13172   */\n      dup4\n        /* \"#utility.yul\":13163:13179   */\n      add\n        /* \"#utility.yul\":13157:13180   */\n      mload\n        /* \"#utility.yul\":13193:13250   */\n      tag_531\n        /* \"#utility.yul\":13244:13248   */\n      0xe0\n        /* \"#utility.yul\":13239:13242   */\n      dup7\n        /* \"#utility.yul\":13235:13249   */\n      add\n        /* \"#utility.yul\":13221:13233   */\n      dup3\n        /* \"#utility.yul\":13193:13250   */\n      tag_345\n      jump\t// in\n    tag_531:\n        /* \"#utility.yul\":13100:13260   */\n      pop\n        /* \"#utility.yul\":13344:13350   */\n      0x0100\n        /* \"#utility.yul\":13337:13342   */\n      dup4\n        /* \"#utility.yul\":13333:13351   */\n      add\n        /* \"#utility.yul\":13327:13352   */\n      mload\n        /* \"#utility.yul\":13365:13424   */\n      tag_532\n        /* \"#utility.yul\":13416:13422   */\n      0x0100\n        /* \"#utility.yul\":13411:13414   */\n      dup7\n        /* \"#utility.yul\":13407:13423   */\n      add\n        /* \"#utility.yul\":13393:13405   */\n      dup3\n        /* \"#utility.yul\":13365:13424   */\n      tag_345\n      jump\t// in\n    tag_532:\n        /* \"#utility.yul\":13270:13434   */\n      pop\n        /* \"#utility.yul\":13451:13455   */\n      dup1\n        /* \"#utility.yul\":13444:13455   */\n      swap2\n      pop\n        /* \"#utility.yul\":11627:13461   */\n      pop\n        /* \"#utility.yul\":11503:13461   */\n      swap3\n      swap2\n      pop\n      pop\n      jump\t// out\n        /* \"#utility.yul\":13467:13840   */\n    tag_91:\n        /* \"#utility.yul\":13610:13614   */\n      0x00\n        /* \"#utility.yul\":13648:13650   */\n      0x20\n        /* \"#utility.yul\":13637:13646   */\n      dup3\n        /* \"#utility.yul\":13633:13651   */\n      add\n        /* \"#utility.yul\":13625:13651   */\n      swap1\n      pop\n        /* \"#utility.yul\":13697:13706   */\n      dup2\n        /* \"#utility.yul\":13691:13695   */\n      dup2\n        /* \"#utility.yul\":13687:13707   */\n      sub\n        /* \"#utility.yul\":13683:13684   */\n      0x00\n        /* \"#utility.yul\":13672:13681   */\n      dup4\n        /* \"#utility.yul\":13668:13685   */\n      add\n        /* \"#utility.yul\":13661:13708   */\n      mstore\n        /* \"#utility.yul\":13725:13833   */\n      tag_534\n        /* \"#utility.yul\":13828:13832   */\n      dup2\n        /* \"#utility.yul\":13819:13825   */\n      dup5\n        /* \"#utility.yul\":13725:13833   */\n      tag_346\n      jump\t// in\n    tag_534:\n        /* \"#utility.yul\":13717:13833   */\n      swap1\n      pop\n        /* \"#utility.yul\":13467:13840   */\n      swap3\n      swap2\n      pop\n      pop\n      jump\t// out\n        /* \"#utility.yul\":13846:14320   */\n    tag_105:\n        /* \"#utility.yul\":13914:13920   */\n      0x00\n        /* \"#utility.yul\":13922:13928   */\n      dup1\n        /* \"#utility.yul\":13971:13973   */\n      0x40\n        /* \"#utility.yul\":13959:13968   */\n      dup4\n        /* \"#utility.yul\":13950:13957   */\n      dup6\n        /* \"#utility.yul\":13946:13969   */\n      sub\n        /* \"#utility.yul\":13942:13974   */\n      slt\n        /* \"#utility.yul\":13939:14058   */\n      iszero\n      tag_536\n      jumpi\n        /* \"#utility.yul\":13977:14056   */\n      tag_537\n      tag_311\n      jump\t// in\n    tag_537:\n        /* \"#utility.yul\":13939:14058   */\n    tag_536:\n        /* \"#utility.yul\":14097:14098   */\n      0x00\n        /* \"#utility.yul\":14122:14175   */\n      tag_538\n        /* \"#utility.yul\":14167:14174   */\n      dup6\n        /* \"#utility.yul\":14158:14164   */\n      dup3\n        /* \"#utility.yul\":14147:14156   */\n      dup7\n        /* \"#utility.yul\":14143:14165   */\n      add\n        /* \"#utility.yul\":14122:14175   */\n      tag_316\n      jump\t// in\n    tag_538:\n        /* \"#utility.yul\":14112:14175   */\n      swap3\n      pop\n        /* \"#utility.yul\":14068:14185   */\n      pop\n        /* \"#utility.yul\":14224:14226   */\n      0x20\n        /* \"#utility.yul\":14250:14303   */\n      tag_539\n        /* \"#utility.yul\":14295:14302   */\n      dup6\n        /* \"#utility.yul\":14286:14292   */\n      dup3\n        /* \"#utility.yul\":14275:14284   */\n      dup7\n        /* \"#utility.yul\":14271:14293   */\n      add\n        /* \"#utility.yul\":14250:14303   */\n      tag_316\n      jump\t// in\n    tag_539:\n        /* \"#utility.yul\":14240:14303   */\n      swap2\n      pop\n        /* \"#utility.yul\":14195:14313   */\n      pop\n        /* \"#utility.yul\":13846:14320   */\n      swap3\n      pop\n      swap3\n      swap1\n      pop\n      jump\t// out\n        /* \"#utility.yul\":14326:14506   */\n    tag_347:\n        /* \"#utility.yul\":14374:14451   */\n      0x4e487b7100000000000000000000000000000000000000000000000000000000\n        /* \"#utility.yul\":14371:14372   */\n      0x00\n        /* \"#utility.yul\":14364:14452   */\n      mstore\n        /* \"#utility.yul\":14471:14475   */\n      0x22\n        /* \"#utility.yul\":14468:14469   */\n      0x04\n        /* \"#utility.yul\":14461:14476   */\n      mstore\n        /* \"#utility.yul\":14495:14499   */\n      0x24\n        /* \"#utility.yul\":14492:14493   */\n      0x00\n        /* \"#utility.yul\":14485:14500   */\n      revert\n        /* \"#utility.yul\":14512:14832   */\n    tag_110:\n        /* \"#utility.yul\":14556:14562   */\n      0x00\n        /* \"#utility.yul\":14593:14594   */\n      0x02\n        /* \"#utility.yul\":14587:14591   */\n      dup3\n        /* \"#utility.yul\":14583:14595   */\n      div\n        /* \"#utility.yul\":14573:14595   */\n      swap1\n      pop\n        /* \"#utility.yul\":14640:14641   */\n      0x01\n        /* \"#utility.yul\":14634:14638   */\n      dup3\n        /* \"#utility.yul\":14630:14642   */\n      and\n        /* \"#utility.yul\":14661:14679   */\n      dup1\n        /* \"#utility.yul\":14651:14732   */\n      tag_542\n      jumpi\n        /* \"#utility.yul\":14717:14721   */\n      0x7f\n        /* \"#utility.yul\":14709:14715   */\n      dup3\n        /* \"#utility.yul\":14705:14722   */\n      and\n        /* \"#utility.yul\":14695:14722   */\n      swap2\n      pop\n        /* \"#utility.yul\":14651:14732   */\n    tag_542:\n        /* \"#utility.yul\":14779:14781   */\n      0x20\n        /* \"#utility.yul\":14771:14777   */\n      dup3\n        /* \"#utility.yul\":14768:14782   */\n      lt\n        /* \"#utility.yul\":14748:14766   */\n      dup2\n        /* \"#utility.yul\":14745:14783   */\n      sub\n        /* \"#utility.yul\":14742:14826   */\n      tag_543\n      jumpi\n        /* \"#utility.yul\":14798:14816   */\n      tag_544\n      tag_347\n      jump\t// in\n    tag_544:\n        /* \"#utility.yul\":14742:14826   */\n    tag_543:\n        /* \"#utility.yul\":14563:14832   */\n      pop\n        /* \"#utility.yul\":14512:14832   */\n      swap2\n      swap1\n      pop\n      jump\t// out\n        /* \"#utility.yul\":14838:15018   */\n    tag_348:\n        /* \"#utility.yul\":14886:14963   */\n      0x4e487b7100000000000000000000000000000000000000000000000000000000\n        /* \"#utility.yul\":14883:14884   */\n      0x00\n        /* \"#utility.yul\":14876:14964   */\n      mstore\n        /* \"#utility.yul\":14983:14987   */\n      0x11\n        /* \"#utility.yul\":14980:14981   */\n      0x04\n        /* \"#utility.yul\":14973:14988   */\n      mstore\n        /* \"#utility.yul\":15007:15011   */\n      0x24\n        /* \"#utility.yul\":15004:15005   */\n      0x00\n        /* \"#utility.yul\":14997:15012   */\n      revert\n        /* \"#utility.yul\":15024:15215   */\n    tag_133:\n        /* \"#utility.yul\":15064:15067   */\n      0x00\n        /* \"#utility.yul\":15083:15103   */\n      tag_547\n        /* \"#utility.yul\":15101:15102   */\n      dup3\n        /* \"#utility.yul\":15083:15103   */\n      tag_317\n      jump\t// in\n    tag_547:\n        /* \"#utility.yul\":15078:15103   */\n      swap2\n      pop\n        /* \"#utility.yul\":15117:15137   */\n      tag_548\n        /* \"#utility.yul\":15135:15136   */\n      dup4\n        /* \"#utility.yul\":15117:15137   */\n      tag_317\n      jump\t// in\n    tag_548:\n        /* \"#utility.yul\":15112:15137   */\n      swap3\n      pop\n        /* \"#utility.yul\":15160:15161   */\n      dup3\n        /* \"#utility.yul\":15157:15158   */\n      dup3\n        /* \"#utility.yul\":15153:15162   */\n      add\n        /* \"#utility.yul\":15146:15162   */\n      swap1\n      pop\n        /* \"#utility.yul\":15181:15184   */\n      dup1\n        /* \"#utility.yul\":15178:15179   */\n      dup3\n        /* \"#utility.yul\":15175:15185   */\n      gt\n        /* \"#utility.yul\":15172:15208   */\n      iszero\n      tag_549\n      jumpi\n        /* \"#utility.yul\":15188:15206   */\n      tag_550\n      tag_348\n      jump\t// in\n    tag_550:\n        /* \"#utility.yul\":15172:15208   */\n    tag_549:\n        /* \"#utility.yul\":15024:15215   */\n      swap3\n      swap2\n      pop\n      pop\n      jump\t// out\n        /* \"#utility.yul\":15221:15444   */\n    tag_349:\n        /* \"#utility.yul\":15361:15395   */\n      0x4f6e6c7920746f6b656e20686f6c646572732063616e20637265617465206973\n        /* \"#utility.yul\":15357:15358   */\n      0x00\n        /* \"#utility.yul\":15349:15355   */\n      dup3\n        /* \"#utility.yul\":15345:15359   */\n      add\n        /* \"#utility.yul\":15338:15396   */\n      mstore\n        /* \"#utility.yul\":15430:15436   */\n      0x7375657300000000000000000000000000000000000000000000000000000000\n        /* \"#utility.yul\":15425:15427   */\n      0x20\n        /* \"#utility.yul\":15417:15423   */\n      dup3\n        /* \"#utility.yul\":15413:15428   */\n      add\n        /* \"#utility.yul\":15406:15437   */\n      mstore\n        /* \"#utility.yul\":15221:15444   */\n      pop\n      jump\t// out\n        /* \"#utility.yul\":15450:15816   */\n    tag_350:\n        /* \"#utility.yul\":15592:15595   */\n      0x00\n        /* \"#utility.yul\":15613:15680   */\n      tag_553\n        /* \"#utility.yul\":15677:15679   */\n      0x24\n        /* \"#utility.yul\":15672:15675   */\n      dup4\n        /* \"#utility.yul\":15613:15680   */\n      tag_306\n      jump\t// in\n    tag_553:\n        /* \"#utility.yul\":15606:15680   */\n      swap2\n      pop\n        /* \"#utility.yul\":15689:15782   */\n      tag_554\n        /* \"#utility.yul\":15778:15781   */\n      dup3\n        /* \"#utility.yul\":15689:15782   */\n      tag_349\n      jump\t// in\n    tag_554:\n        /* \"#utility.yul\":15807:15809   */\n      0x40\n        /* \"#utility.yul\":15802:15805   */\n      dup3\n        /* \"#utility.yul\":15798:15810   */\n      add\n        /* \"#utility.yul\":15791:15810   */\n      swap1\n      pop\n        /* \"#utility.yul\":15450:15816   */\n      swap2\n      swap1\n      pop\n      jump\t// out\n        /* \"#utility.yul\":15822:16241   */\n    tag_143:\n        /* \"#utility.yul\":15988:15992   */\n      0x00\n        /* \"#utility.yul\":16026:16028   */\n      0x20\n        /* \"#utility.yul\":16015:16024   */\n      dup3\n        /* \"#utility.yul\":16011:16029   */\n      add\n        /* \"#utility.yul\":16003:16029   */\n      swap1\n      pop\n        /* \"#utility.yul\":16075:16084   */\n      dup2\n        /* \"#utility.yul\":16069:16073   */\n      dup2\n        /* \"#utility.yul\":16065:16085   */\n      sub\n        /* \"#utility.yul\":16061:16062   */\n      0x00\n        /* \"#utility.yul\":16050:16059   */\n      dup4\n        /* \"#utility.yul\":16046:16063   */\n      add\n        /* \"#utility.yul\":16039:16086   */\n      mstore\n        /* \"#utility.yul\":16103:16234   */\n      tag_556\n        /* \"#utility.yul\":16229:16233   */\n      dup2\n        /* \"#utility.yul\":16103:16234   */\n      tag_350\n      jump\t// in\n    tag_556:\n        /* \"#utility.yul\":16095:16234   */\n      swap1\n      pop\n        /* \"#utility.yul\":15822:16241   */\n      swap2\n      swap1\n      pop\n      jump\t// out\n        /* \"#utility.yul\":16247:16490   */\n    tag_351:\n        /* \"#utility.yul\":16387:16421   */\n      0x51756f72756d2063616e6e6f742062652067726561746572207468616e207468\n        /* \"#utility.yul\":16383:16384   */\n      0x00\n        /* \"#utility.yul\":16375:16381   */\n      dup3\n        /* \"#utility.yul\":16371:16385   */\n      add\n        /* \"#utility.yul\":16364:16422   */\n      mstore\n        /* \"#utility.yul\":16456:16482   */\n      0x6520746f74616c206e756d626572206f6620746f6b656e730000000000000000\n        /* \"#utility.yul\":16451:16453   */\n      0x20\n        /* \"#utility.yul\":16443:16449   */\n      dup3\n        /* \"#utility.yul\":16439:16454   */\n      add\n        /* \"#utility.yul\":16432:16483   */\n      mstore\n        /* \"#utility.yul\":16247:16490   */\n      pop\n      jump\t// out\n        /* \"#utility.yul\":16496:16862   */\n    tag_352:\n        /* \"#utility.yul\":16638:16641   */\n      0x00\n        /* \"#utility.yul\":16659:16726   */\n      tag_559\n        /* \"#utility.yul\":16723:16725   */\n      0x38\n        /* \"#utility.yul\":16718:16721   */\n      dup4\n        /* \"#utility.yul\":16659:16726   */\n      tag_306\n      jump\t// in\n    tag_559:\n        /* \"#utility.yul\":16652:16726   */\n      swap2\n      pop\n        /* \"#utility.yul\":16735:16828   */\n      tag_560\n        /* \"#utility.yul\":16824:16827   */\n      dup3\n        /* \"#utility.yul\":16735:16828   */\n      tag_351\n      jump\t// in\n    tag_560:\n        /* \"#utility.yul\":16853:16855   */\n      0x40\n        /* \"#utility.yul\":16848:16851   */\n      dup3\n        /* \"#utility.yul\":16844:16856   */\n      add\n        /* \"#utility.yul\":16837:16856   */\n      swap1\n      pop\n        /* \"#utility.yul\":16496:16862   */\n      swap2\n      swap1\n      pop\n      jump\t// out\n        /* \"#utility.yul\":16868:17287   */\n    tag_147:\n        /* \"#utility.yul\":17034:17038   */\n      0x00\n        /* \"#utility.yul\":17072:17074   */\n      0x20\n        /* \"#utility.yul\":17061:17070   */\n      dup3\n        /* \"#utility.yul\":17057:17075   */\n      add\n        /* \"#utility.yul\":17049:17075   */\n      swap1\n      pop\n        /* \"#utility.yul\":17121:17130   */\n      dup2\n        /* \"#utility.yul\":17115:17119   */\n      dup2\n        /* \"#utility.yul\":17111:17131   */\n      sub\n        /* \"#utility.yul\":17107:17108   */\n      0x00\n        /* \"#utility.yul\":17096:17105   */\n      dup4\n        /* \"#utility.yul\":17092:17109   */\n      add\n        /* \"#utility.yul\":17085:17132   */\n      mstore\n        /* \"#utility.yul\":17149:17280   */\n      tag_562\n        /* \"#utility.yul\":17275:17279   */\n      dup2\n        /* \"#utility.yul\":17149:17280   */\n      tag_352\n      jump\t// in\n    tag_562:\n        /* \"#utility.yul\":17141:17280   */\n      swap1\n      pop\n        /* \"#utility.yul\":16868:17287   */\n      swap2\n      swap1\n      pop\n      jump\t// out\n        /* \"#utility.yul\":17293:17473   */\n    tag_151:\n        /* \"#utility.yul\":17341:17418   */\n      0x4e487b7100000000000000000000000000000000000000000000000000000000\n        /* \"#utility.yul\":17338:17339   */\n      0x00\n        /* \"#utility.yul\":17331:17419   */\n      mstore\n        /* \"#utility.yul\":17438:17442   */\n      0x32\n        /* \"#utility.yul\":17435:17436   */\n      0x04\n        /* \"#utility.yul\":17428:17443   */\n      mstore\n        /* \"#utility.yul\":17462:17466   */\n      0x24\n        /* \"#utility.yul\":17459:17460   */\n      0x00\n        /* \"#utility.yul\":17452:17467   */\n      revert\n        /* \"#utility.yul\":17479:17620   */\n    tag_353:\n        /* \"#utility.yul\":17528:17532   */\n      0x00\n        /* \"#utility.yul\":17551:17554   */\n      dup2\n        /* \"#utility.yul\":17543:17554   */\n      swap1\n      pop\n        /* \"#utility.yul\":17574:17577   */\n      dup2\n        /* \"#utility.yul\":17571:17572   */\n      0x00\n        /* \"#utility.yul\":17564:17578   */\n      mstore\n        /* \"#utility.yul\":17608:17612   */\n      0x20\n        /* \"#utility.yul\":17605:17606   */\n      0x00\n        /* \"#utility.yul\":17595:17613   */\n      keccak256\n        /* \"#utility.yul\":17587:17613   */\n      swap1\n      pop\n        /* \"#utility.yul\":17479:17620   */\n      swap2\n      swap1\n      pop\n      jump\t// out\n        /* \"#utility.yul\":17626:17719   */\n    tag_354:\n        /* \"#utility.yul\":17663:17669   */\n      0x00\n        /* \"#utility.yul\":17710:17712   */\n      0x20\n        /* \"#utility.yul\":17705:17707   */\n      0x1f\n        /* \"#utility.yul\":17698:17703   */\n      dup4\n        /* \"#utility.yul\":17694:17708   */\n      add\n        /* \"#utility.yul\":17690:17713   */\n      div\n        /* \"#utility.yul\":17680:17713   */\n      swap1\n      pop\n        /* \"#utility.yul\":17626:17719   */\n      swap2\n      swap1\n      pop\n      jump\t// out\n        /* \"#utility.yul\":17725:17832   */\n    tag_355:\n        /* \"#utility.yul\":17769:17777   */\n      0x00\n        /* \"#utility.yul\":17819:17824   */\n      dup3\n        /* \"#utility.yul\":17813:17817   */\n      dup3\n        /* \"#utility.yul\":17809:17825   */\n      shl\n        /* \"#utility.yul\":17788:17825   */\n      swap1\n      pop\n        /* \"#utility.yul\":17725:17832   */\n      swap3\n      swap2\n      pop\n      pop\n      jump\t// out\n        /* \"#utility.yul\":17838:18231   */\n    tag_356:\n        /* \"#utility.yul\":17907:17913   */\n      0x00\n        /* \"#utility.yul\":17957:17958   */\n      0x08\n        /* \"#utility.yul\":17945:17955   */\n      dup4\n        /* \"#utility.yul\":17941:17959   */\n      mul\n        /* \"#utility.yul\":17980:18077   */\n      tag_568\n        /* \"#utility.yul\":18010:18076   */\n      0xffffffffffffffffffffffffffffffffffffffffffffffffffffffffffffffff\n        /* \"#utility.yul\":17999:18008   */\n      dup3\n        /* \"#utility.yul\":17980:18077   */\n      tag_355\n      jump\t// in\n    tag_568:\n        /* \"#utility.yul\":18098:18137   */\n      tag_569\n        /* \"#utility.yul\":18128:18136   */\n      dup7\n        /* \"#utility.yul\":18117:18126   */\n      dup4\n        /* \"#utility.yul\":18098:18137   */\n      tag_355\n      jump\t// in\n    tag_569:\n        /* \"#utility.yul\":18086:18137   */\n      swap6\n      pop\n        /* \"#utility.yul\":18170:18174   */\n      dup1\n        /* \"#utility.yul\":18166:18175   */\n      not\n        /* \"#utility.yul\":18159:18164   */\n      dup5\n        /* \"#utility.yul\":18155:18176   */\n      and\n        /* \"#utility.yul\":18146:18176   */\n      swap4\n      pop\n        /* \"#utility.yul\":18219:18223   */\n      dup1\n        /* \"#utility.yul\":18209:18217   */\n      dup7\n        /* \"#utility.yul\":18205:18224   */\n      and\n        /* \"#utility.yul\":18198:18203   */\n      dup5\n        /* \"#utility.yul\":18195:18225   */\n      or\n        /* \"#utility.yul\":18185:18225   */\n      swap3\n      pop\n        /* \"#utility.yul\":17914:18231   */\n      pop\n      pop\n        /* \"#utility.yul\":17838:18231   */\n      swap4\n      swap3\n      pop\n      pop\n      pop\n      jump\t// out\n        /* \"#utility.yul\":18237:18297   */\n    tag_357:\n        /* \"#utility.yul\":18265:18268   */\n      0x00\n        /* \"#utility.yul\":18286:18291   */\n      dup2\n        /* \"#utility.yul\":18279:18291   */\n      swap1\n      pop\n        /* \"#utility.yul\":18237:18297   */\n      swap2\n      swap1\n      pop\n      jump\t// out\n        /* \"#utility.yul\":18303:18445   */\n    tag_358:\n        /* \"#utility.yul\":18353:18362   */\n      0x00\n        /* \"#utility.yul\":18386:18439   */\n      tag_572\n        /* \"#utility.yul\":18404:18438   */\n      tag_573\n        /* \"#utility.yul\":18413:18437   */\n      tag_574\n        /* \"#utility.yul\":18431:18436   */\n      dup5\n        /* \"#utility.yul\":18413:18437   */\n      tag_317\n      jump\t// in\n    tag_574:\n        /* \"#utility.yul\":18404:18438   */\n      tag_357\n      jump\t// in\n    tag_573:\n        /* \"#utility.yul\":18386:18439   */\n      tag_317\n      jump\t// in\n    tag_572:\n        /* \"#utility.yul\":18373:18439   */\n      swap1\n      pop\n        /* \"#utility.yul\":18303:18445   */\n      swap2\n      swap1\n      pop\n      jump\t// out\n        /* \"#utility.yul\":18451:18526   */\n    tag_359:\n        /* \"#utility.yul\":18494:18497   */\n      0x00\n        /* \"#utility.yul\":18515:18520   */\n      dup2\n        /* \"#utility.yul\":18508:18520   */\n      swap1\n      pop\n        /* \"#utility.yul\":18451:18526   */\n      swap2\n      swap1\n      pop\n      jump\t// out\n        /* \"#utility.yul\":18532:18801   */\n    tag_360:\n        /* \"#utility.yul\":18642:18681   */\n      tag_577\n        /* \"#utility.yul\":18673:18680   */\n      dup4\n        /* \"#utility.yul\":18642:18681   */\n      tag_358\n      jump\t// in\n    tag_577:\n        /* \"#utility.yul\":18703:18794   */\n      tag_578\n        /* \"#utility.yul\":18752:18793   */\n      tag_579\n        /* \"#utility.yul\":18776:18792   */\n      dup3\n        /* \"#utility.yul\":18752:18793   */\n      tag_359\n      jump\t// in\n    tag_579:\n        /* \"#utility.yul\":18744:18750   */\n      dup5\n        /* \"#utility.yul\":18737:18741   */\n      dup5\n        /* \"#utility.yul\":18731:18742   */\n      sload\n        /* \"#utility.yul\":18703:18794   */\n      tag_356\n      jump\t// in\n    tag_578:\n        /* \"#utility.yul\":18697:18701   */\n      dup3\n        /* \"#utility.yul\":18690:18795   */\n      sstore\n        /* \"#utility.yul\":18608:18801   */\n      pop\n        /* \"#utility.yul\":18532:18801   */\n      pop\n      pop\n      pop\n      jump\t// out\n        /* \"#utility.yul\":18807:18880   */\n    tag_361:\n        /* \"#utility.yul\":18852:18855   */\n      0x00\n        /* \"#utility.yul\":18807:18880   */\n      swap1\n      jump\t// out\n        /* \"#utility.yul\":18886:19075   */\n    tag_362:\n        /* \"#utility.yul\":18963:18995   */\n      tag_582\n      tag_361\n      jump\t// in\n    tag_582:\n        /* \"#utility.yul\":19004:19069   */\n      tag_583\n        /* \"#utility.yul\":19062:19068   */\n      dup2\n        /* \"#utility.yul\":19054:19060   */\n      dup5\n        /* \"#utility.yul\":19048:19052   */\n      dup5\n        /* \"#utility.yul\":19004:19069   */\n      tag_360\n      jump\t// in\n    tag_583:\n        /* \"#utility.yul\":18939:19075   */\n      pop\n        /* \"#utility.yul\":18886:19075   */\n      pop\n      pop\n      jump\t// out\n        /* \"#utility.yul\":19081:19267   */\n    tag_363:\n        /* \"#utility.yul\":19141:19261   */\n    tag_585:\n        /* \"#utility.yul\":19158:19161   */\n      dup2\n        /* \"#utility.yul\":19151:19156   */\n      dup2\n        /* \"#utility.yul\":19148:19162   */\n      lt\n        /* \"#utility.yul\":19141:19261   */\n      iszero\n      tag_587\n      jumpi\n        /* \"#utility.yul\":19212:19251   */\n      tag_588\n        /* \"#utility.yul\":19249:19250   */\n      0x00\n        /* \"#utility.yul\":19242:19247   */\n      dup3\n        /* \"#utility.yul\":19212:19251   */\n      tag_362\n      jump\t// in\n    tag_588:\n        /* \"#utility.yul\":19185:19186   */\n      0x01\n        /* \"#utility.yul\":19178:19183   */\n      dup2\n        /* \"#utility.yul\":19174:19187   */\n      add\n        /* \"#utility.yul\":19165:19187   */\n      swap1\n      pop\n        /* \"#utility.yul\":19141:19261   */\n      jump(tag_585)\n    tag_587:\n        /* \"#utility.yul\":19081:19267   */\n      pop\n      pop\n      jump\t// out\n        /* \"#utility.yul\":19273:19816   */\n    tag_364:\n        /* \"#utility.yul\":19374:19376   */\n      0x1f\n        /* \"#utility.yul\":19369:19372   */\n      dup3\n        /* \"#utility.yul\":19366:19377   */\n      gt\n        /* \"#utility.yul\":19363:19809   */\n      iszero\n      tag_590\n      jumpi\n        /* \"#utility.yul\":19408:19446   */\n      tag_591\n        /* \"#utility.yul\":19440:19445   */\n      dup2\n        /* \"#utility.yul\":19408:19446   */\n      tag_353\n      jump\t// in\n    tag_591:\n        /* \"#utility.yul\":19492:19521   */\n      tag_592\n        /* \"#utility.yul\":19510:19520   */\n      dup5\n        /* \"#utility.yul\":19492:19521   */\n      tag_354\n      jump\t// in\n    tag_592:\n        /* \"#utility.yul\":19482:19490   */\n      dup2\n        /* \"#utility.yul\":19478:19522   */\n      add\n        /* \"#utility.yul\":19675:19677   */\n      0x20\n        /* \"#utility.yul\":19663:19673   */\n      dup6\n        /* \"#utility.yul\":19660:19678   */\n      lt\n        /* \"#utility.yul\":19657:19706   */\n      iszero\n      tag_593\n      jumpi\n        /* \"#utility.yul\":19696:19704   */\n      dup2\n        /* \"#utility.yul\":19681:19704   */\n      swap1\n      pop\n        /* \"#utility.yul\":19657:19706   */\n    tag_593:\n        /* \"#utility.yul\":19719:19799   */\n      tag_594\n        /* \"#utility.yul\":19775:19797   */\n      tag_595\n        /* \"#utility.yul\":19793:19796   */\n      dup6\n        /* \"#utility.yul\":19775:19797   */\n      tag_354\n      jump\t// in\n    tag_595:\n        /* \"#utility.yul\":19765:19773   */\n      dup4\n        /* \"#utility.yul\":19761:19798   */\n      add\n        /* \"#utility.yul\":19748:19759   */\n      dup3\n        /* \"#utility.yul\":19719:19799   */\n      tag_363\n      jump\t// in\n    tag_594:\n        /* \"#utility.yul\":19378:19809   */\n      pop\n      pop\n        /* \"#utility.yul\":19363:19809   */\n    tag_590:\n        /* \"#utility.yul\":19273:19816   */\n      pop\n      pop\n      pop\n      jump\t// out\n        /* \"#utility.yul\":19822:19939   */\n    tag_365:\n        /* \"#utility.yul\":19876:19884   */\n      0x00\n        /* \"#utility.yul\":19926:19931   */\n      dup3\n        /* \"#utility.yul\":19920:19924   */\n      dup3\n        /* \"#utility.yul\":19916:19932   */\n      shr\n        /* \"#utility.yul\":19895:19932   */\n      swap1\n      pop\n        /* \"#utility.yul\":19822:19939   */\n      swap3\n      swap2\n      pop\n      pop\n      jump\t// out\n        /* \"#utility.yul\":19945:20114   */\n    tag_366:\n        /* \"#utility.yul\":19989:19995   */\n      0x00\n        /* \"#utility.yul\":20022:20073   */\n      tag_598\n        /* \"#utility.yul\":20070:20071   */\n      0x00\n        /* \"#utility.yul\":20066:20072   */\n      not\n        /* \"#utility.yul\":20058:20063   */\n      dup5\n        /* \"#utility.yul\":20055:20056   */\n      0x08\n        /* \"#utility.yul\":20051:20064   */\n      mul\n        /* \"#utility.yul\":20022:20073   */\n      tag_365\n      jump\t// in\n    tag_598:\n        /* \"#utility.yul\":20018:20074   */\n      not\n        /* \"#utility.yul\":20103:20107   */\n      dup1\n        /* \"#utility.yul\":20097:20101   */\n      dup4\n        /* \"#utility.yul\":20093:20108   */\n      and\n        /* \"#utility.yul\":20083:20108   */\n      swap2\n      pop\n        /* \"#utility.yul\":19996:20114   */\n      pop\n        /* \"#utility.yul\":19945:20114   */\n      swap3\n      swap2\n      pop\n      pop\n      jump\t// out\n        /* \"#utility.yul\":20119:20414   */\n    tag_367:\n        /* \"#utility.yul\":20195:20199   */\n      0x00\n        /* \"#utility.yul\":20341:20370   */\n      tag_600\n        /* \"#utility.yul\":20366:20369   */\n      dup4\n        /* \"#utility.yul\":20360:20364   */\n      dup4\n        /* \"#utility.yul\":20341:20370   */\n      tag_366\n      jump\t// in\n    tag_600:\n        /* \"#utility.yul\":20333:20370   */\n      swap2\n      pop\n        /* \"#utility.yul\":20403:20406   */\n      dup3\n        /* \"#utility.yul\":20400:20401   */\n      0x02\n        /* \"#utility.yul\":20396:20407   */\n      mul\n        /* \"#utility.yul\":20390:20394   */\n      dup3\n        /* \"#utility.yul\":20387:20408   */\n      or\n        /* \"#utility.yul\":20379:20408   */\n      swap1\n      pop\n        /* \"#utility.yul\":20119:20414   */\n      swap3\n      swap2\n      pop\n      pop\n      jump\t// out\n        /* \"#utility.yul\":20419:21814   */\n    tag_154:\n        /* \"#utility.yul\":20536:20573   */\n      tag_602\n        /* \"#utility.yul\":20569:20572   */\n      dup3\n        /* \"#utility.yul\":20536:20573   */\n      tag_305\n      jump\t// in\n    tag_602:\n        /* \"#utility.yul\":20638:20656   */\n      0xffffffffffffffff\n        /* \"#utility.yul\":20630:20636   */\n      dup2\n        /* \"#utility.yul\":20627:20657   */\n      gt\n        /* \"#utility.yul\":20624:20680   */\n      iszero\n      tag_603\n      jumpi\n        /* \"#utility.yul\":20660:20678   */\n      tag_604\n      tag_218\n      jump\t// in\n    tag_604:\n        /* \"#utility.yul\":20624:20680   */\n    tag_603:\n        /* \"#utility.yul\":20704:20742   */\n      tag_605\n        /* \"#utility.yul\":20736:20740   */\n      dup3\n        /* \"#utility.yul\":20730:20741   */\n      sload\n        /* \"#utility.yul\":20704:20742   */\n      tag_110\n      jump\t// in\n    tag_605:\n        /* \"#utility.yul\":20789:20856   */\n      tag_606\n        /* \"#utility.yul\":20849:20855   */\n      dup3\n        /* \"#utility.yul\":20841:20847   */\n      dup3\n        /* \"#utility.yul\":20835:20839   */\n      dup6\n        /* \"#utility.yul\":20789:20856   */\n      tag_364\n      jump\t// in\n    tag_606:\n        /* \"#utility.yul\":20883:20884   */\n      0x00\n        /* \"#utility.yul\":20907:20911   */\n      0x20\n        /* \"#utility.yul\":20894:20911   */\n      swap1\n      pop\n        /* \"#utility.yul\":20939:20941   */\n      0x1f\n        /* \"#utility.yul\":20931:20937   */\n      dup4\n        /* \"#utility.yul\":20928:20942   */\n      gt\n        /* \"#utility.yul\":20956:20957   */\n      0x01\n        /* \"#utility.yul\":20951:21569   */\n      dup2\n      eq\n      tag_608\n      jumpi\n        /* \"#utility.yul\":21613:21614   */\n      0x00\n        /* \"#utility.yul\":21630:21636   */\n      dup5\n        /* \"#utility.yul\":21627:21704   */\n      iszero\n      tag_609\n      jumpi\n        /* \"#utility.yul\":21679:21688   */\n      dup3\n        /* \"#utility.yul\":21674:21677   */\n      dup8\n        /* \"#utility.yul\":21670:21689   */\n      add\n        /* \"#utility.yul\":21664:21690   */\n      mload\n        /* \"#utility.yul\":21655:21690   */\n      swap1\n      pop\n        /* \"#utility.yul\":21627:21704   */\n    tag_609:\n        /* \"#utility.yul\":21730:21797   */\n      tag_610\n        /* \"#utility.yul\":21790:21796   */\n      dup6\n        /* \"#utility.yul\":21783:21788   */\n      dup3\n        /* \"#utility.yul\":21730:21797   */\n      tag_367\n      jump\t// in\n    tag_610:\n        /* \"#utility.yul\":21724:21728   */\n      dup7\n        /* \"#utility.yul\":21717:21798   */\n      sstore\n        /* \"#utility.yul\":21586:21808   */\n      pop\n        /* \"#utility.yul\":20921:21808   */\n      jump(tag_607)\n        /* \"#utility.yul\":20951:21569   */\n    tag_608:\n        /* \"#utility.yul\":21003:21007   */\n      0x1f\n        /* \"#utility.yul\":20999:21008   */\n      not\n        /* \"#utility.yul\":20991:20997   */\n      dup5\n        /* \"#utility.yul\":20987:21009   */\n      and\n        /* \"#utility.yul\":21037:21074   */\n      tag_611\n        /* \"#utility.yul\":21069:21073   */\n      dup7\n        /* \"#utility.yul\":21037:21074   */\n      tag_353\n      jump\t// in\n    tag_611:\n        /* \"#utility.yul\":21096:21097   */\n      0x00\n        /* \"#utility.yul\":21110:21318   */\n    tag_612:\n        /* \"#utility.yul\":21124:21131   */\n      dup3\n        /* \"#utility.yul\":21121:21122   */\n      dup2\n        /* \"#utility.yul\":21118:21132   */\n      lt\n        /* \"#utility.yul\":21110:21318   */\n      iszero\n      tag_614\n      jumpi\n        /* \"#utility.yul\":21203:21212   */\n      dup5\n        /* \"#utility.yul\":21198:21201   */\n      dup10\n        /* \"#utility.yul\":21194:21213   */\n      add\n        /* \"#utility.yul\":21188:21214   */\n      mload\n        /* \"#utility.yul\":21180:21186   */\n      dup3\n        /* \"#utility.yul\":21173:21215   */\n      sstore\n        /* \"#utility.yul\":21254:21255   */\n      0x01\n        /* \"#utility.yul\":21246:21252   */\n      dup3\n        /* \"#utility.yul\":21242:21256   */\n      add\n        /* \"#utility.yul\":21232:21256   */\n      swap2\n      pop\n        /* \"#utility.yul\":21301:21303   */\n      0x20\n        /* \"#utility.yul\":21290:21299   */\n      dup6\n        /* \"#utility.yul\":21286:21304   */\n      add\n        /* \"#utility.yul\":21273:21304   */\n      swap5\n      pop\n        /* \"#utility.yul\":21147:21151   */\n      0x20\n        /* \"#utility.yul\":21144:21145   */\n      dup2\n        /* \"#utility.yul\":21140:21152   */\n      add\n        /* \"#utility.yul\":21135:21152   */\n      swap1\n      pop\n        /* \"#utility.yul\":21110:21318   */\n      jump(tag_612)\n    tag_614:\n        /* \"#utility.yul\":21346:21352   */\n      dup7\n        /* \"#utility.yul\":21337:21344   */\n      dup4\n        /* \"#utility.yul\":21334:21353   */\n      lt\n        /* \"#utility.yul\":21331:21510   */\n      iszero\n      tag_615\n      jumpi\n        /* \"#utility.yul\":21404:21413   */\n      dup5\n        /* \"#utility.yul\":21399:21402   */\n      dup10\n        /* \"#utility.yul\":21395:21414   */\n      add\n        /* \"#utility.yul\":21389:21415   */\n      mload\n        /* \"#utility.yul\":21447:21495   */\n      tag_616\n        /* \"#utility.yul\":21489:21493   */\n      0x1f\n        /* \"#utility.yul\":21481:21487   */\n      dup10\n        /* \"#utility.yul\":21477:21494   */\n      and\n        /* \"#utility.yul\":21466:21475   */\n      dup3\n        /* \"#utility.yul\":21447:21495   */\n      tag_366\n      jump\t// in\n    tag_616:\n        /* \"#utility.yul\":21439:21445   */\n      dup4\n        /* \"#utility.yul\":21432:21496   */\n      sstore\n        /* \"#utility.yul\":21354:21510   */\n      pop\n        /* \"#utility.yul\":21331:21510   */\n    tag_615:\n        /* \"#utility.yul\":21556:21557   */\n      0x01\n        /* \"#utility.yul\":21552:21553   */\n      0x02\n        /* \"#utility.yul\":21544:21550   */\n      dup9\n        /* \"#utility.yul\":21540:21554   */\n      mul\n        /* \"#utility.yul\":21536:21558   */\n      add\n        /* \"#utility.yul\":21530:21534   */\n      dup9\n        /* \"#utility.yul\":21523:21559   */\n      sstore\n        /* \"#utility.yul\":20958:21569   */\n      pop\n      pop\n      pop\n        /* \"#utility.yul\":20921:21808   */\n    tag_607:\n      pop\n        /* \"#utility.yul\":20511:21814   */\n      pop\n      pop\n      pop\n        /* \"#utility.yul\":20419:21814   */\n      pop\n      pop\n      jump\t// out\n        /* \"#utility.yul\":21820:22001   */\n    tag_368:\n        /* \"#utility.yul\":21960:21993   */\n      0x566f74696e6720697320636c6f73656420666f72207468697320697373756500\n        /* \"#utility.yul\":21956:21957   */\n      0x00\n        /* \"#utility.yul\":21948:21954   */\n      dup3\n        /* \"#utility.yul\":21944:21958   */\n      add\n        /* \"#utility.yul\":21937:21994   */\n      mstore\n        /* \"#utility.yul\":21820:22001   */\n      pop\n      jump\t// out\n        /* \"#utility.yul\":22007:22373   */\n    tag_369:\n        /* \"#utility.yul\":22149:22152   */\n      0x00\n        /* \"#utility.yul\":22170:22237   */\n      tag_619\n        /* \"#utility.yul\":22234:22236   */\n      0x1f\n        /* \"#utility.yul\":22229:22232   */\n      dup4\n        /* \"#utility.yul\":22170:22237   */\n      tag_306\n      jump\t// in\n    tag_619:\n        /* \"#utility.yul\":22163:22237   */\n      swap2\n      pop\n        /* \"#utility.yul\":22246:22339   */\n      tag_620\n        /* \"#utility.yul\":22335:22338   */\n      dup3\n        /* \"#utility.yul\":22246:22339   */\n      tag_368\n      jump\t// in\n    tag_620:\n        /* \"#utility.yul\":22364:22366   */\n      0x20\n        /* \"#utility.yul\":22359:22362   */\n      dup3\n        /* \"#utility.yul\":22355:22367   */\n      add\n        /* \"#utility.yul\":22348:22367   */\n      swap1\n      pop\n        /* \"#utility.yul\":22007:22373   */\n      swap2\n      swap1\n      pop\n      jump\t// out\n        /* \"#utility.yul\":22379:22798   */\n    tag_161:\n        /* \"#utility.yul\":22545:22549   */\n      0x00\n        /* \"#utility.yul\":22583:22585   */\n      0x20\n        /* \"#utility.yul\":22572:22581   */\n      dup3\n        /* \"#utility.yul\":22568:22586   */\n      add\n        /* \"#utility.yul\":22560:22586   */\n      swap1\n      pop\n        /* \"#utility.yul\":22632:22641   */\n      dup2\n        /* \"#utility.yul\":22626:22630   */\n      dup2\n        /* \"#utility.yul\":22622:22642   */\n      sub\n        /* \"#utility.yul\":22618:22619   */\n      0x00\n        /* \"#utility.yul\":22607:22616   */\n      dup4\n        /* \"#utility.yul\":22603:22620   */\n      add\n        /* \"#utility.yul\":22596:22643   */\n      mstore\n        /* \"#utility.yul\":22660:22791   */\n      tag_622\n        /* \"#utility.yul\":22786:22790   */\n      dup2\n        /* \"#utility.yul\":22660:22791   */\n      tag_369\n      jump\t// in\n    tag_622:\n        /* \"#utility.yul\":22652:22791   */\n      swap1\n      pop\n        /* \"#utility.yul\":22379:22798   */\n      swap2\n      swap1\n      pop\n      jump\t// out\n        /* \"#utility.yul\":22804:22981   */\n    tag_370:\n        /* \"#utility.yul\":22944:22973   */\n      0x416c726561647920766f746564206f6e20746869732069737375650000000000\n        /* \"#utility.yul\":22940:22941   */\n      0x00\n        /* \"#utility.yul\":22932:22938   */\n      dup3\n        /* \"#utility.yul\":22928:22942   */\n      add\n        /* \"#utility.yul\":22921:22974   */\n      mstore\n        /* \"#utility.yul\":22804:22981   */\n      pop\n      jump\t// out\n        /* \"#utility.yul\":22987:23353   */\n    tag_371:\n        /* \"#utility.yul\":23129:23132   */\n      0x00\n        /* \"#utility.yul\":23150:23217   */\n      tag_625\n        /* \"#utility.yul\":23214:23216   */\n      0x1b\n        /* \"#utility.yul\":23209:23212   */\n      dup4\n        /* \"#utility.yul\":23150:23217   */\n      tag_306\n      jump\t// in\n    tag_625:\n        /* \"#utility.yul\":23143:23217   */\n      swap2\n      pop\n        /* \"#utility.yul\":23226:23319   */\n      tag_626\n        /* \"#utility.yul\":23315:23318   */\n      dup3\n        /* \"#utility.yul\":23226:23319   */\n      tag_370\n      jump\t// in\n    tag_626:\n        /* \"#utility.yul\":23344:23346   */\n      0x20\n        /* \"#utility.yul\":23339:23342   */\n      dup3\n        /* \"#utility.yul\":23335:23347   */\n      add\n        /* \"#utility.yul\":23328:23347   */\n      swap1\n      pop\n        /* \"#utility.yul\":22987:23353   */\n      swap2\n      swap1\n      pop\n      jump\t// out\n        /* \"#utility.yul\":23359:23778   */\n    tag_169:\n        /* \"#utility.yul\":23525:23529   */\n      0x00\n        /* \"#utility.yul\":23563:23565   */\n      0x20\n        /* \"#utility.yul\":23552:23561   */\n      dup3\n        /* \"#utility.yul\":23548:23566   */\n      add\n        /* \"#utility.yul\":23540:23566   */\n      swap1\n      pop\n        /* \"#utility.yul\":23612:23621   */\n      dup2\n        /* \"#utility.yul\":23606:23610   */\n      dup2\n        /* \"#utility.yul\":23602:23622   */\n      sub\n        /* \"#utility.yul\":23598:23599   */\n      0x00\n        /* \"#utility.yul\":23587:23596   */\n      dup4\n        /* \"#utility.yul\":23583:23600   */\n      add\n        /* \"#utility.yul\":23576:23623   */\n      mstore\n        /* \"#utility.yul\":23640:23771   */\n      tag_628\n        /* \"#utility.yul\":23766:23770   */\n      dup2\n        /* \"#utility.yul\":23640:23771   */\n      tag_371\n      jump\t// in\n    tag_628:\n        /* \"#utility.yul\":23632:23771   */\n      swap1\n      pop\n        /* \"#utility.yul\":23359:23778   */\n      swap2\n      swap1\n      pop\n      jump\t// out\n        /* \"#utility.yul\":23784:23964   */\n    tag_175:\n        /* \"#utility.yul\":23832:23909   */\n      0x4e487b7100000000000000000000000000000000000000000000000000000000\n        /* \"#utility.yul\":23829:23830   */\n      0x00\n        /* \"#utility.yul\":23822:23910   */\n      mstore\n        /* \"#utility.yul\":23929:23933   */\n      0x21\n        /* \"#utility.yul\":23926:23927   */\n      0x04\n        /* \"#utility.yul\":23919:23934   */\n      mstore\n        /* \"#utility.yul\":23953:23957   */\n      0x24\n        /* \"#utility.yul\":23950:23951   */\n      0x00\n        /* \"#utility.yul\":23943:23958   */\n      revert\n        /* \"#utility.yul\":23970:24139   */\n    tag_372:\n        /* \"#utility.yul\":24110:24131   */\n      0x496e76616c696420766f7465206f7074696f6e00000000000000000000000000\n        /* \"#utility.yul\":24106:24107   */\n      0x00\n        /* \"#utility.yul\":24098:24104   */\n      dup3\n        /* \"#utility.yul\":24094:24108   */\n      add\n        /* \"#utility.yul\":24087:24132   */\n      mstore\n        /* \"#utility.yul\":23970:24139   */\n      pop\n      jump\t// out\n        /* \"#utility.yul\":24145:24511   */\n    tag_373:\n        /* \"#utility.yul\":24287:24290   */\n      0x00\n        /* \"#utility.yul\":24308:24375   */\n      tag_632\n        /* \"#utility.yul\":24372:24374   */\n      0x13\n        /* \"#utility.yul\":24367:24370   */\n      dup4\n        /* \"#utility.yul\":24308:24375   */\n      tag_306\n      jump\t// in\n    tag_632:\n        /* \"#utility.yul\":24301:24375   */\n      swap2\n      pop\n        /* \"#utility.yul\":24384:24477   */\n      tag_633\n        /* \"#utility.yul\":24473:24476   */\n      dup3\n        /* \"#utility.yul\":24384:24477   */\n      tag_372\n      jump\t// in\n    tag_633:\n        /* \"#utility.yul\":24502:24504   */\n      0x20\n        /* \"#utility.yul\":24497:24500   */\n      dup3\n        /* \"#utility.yul\":24493:24505   */\n      add\n        /* \"#utility.yul\":24486:24505   */\n      swap1\n      pop\n        /* \"#utility.yul\":24145:24511   */\n      swap2\n      swap1\n      pop\n      jump\t// out\n        /* \"#utility.yul\":24517:24936   */\n    tag_196:\n        /* \"#utility.yul\":24683:24687   */\n      0x00\n        /* \"#utility.yul\":24721:24723   */\n      0x20\n        /* \"#utility.yul\":24710:24719   */\n      dup3\n        /* \"#utility.yul\":24706:24724   */\n      add\n        /* \"#utility.yul\":24698:24724   */\n      swap1\n      pop\n        /* \"#utility.yul\":24770:24779   */\n      dup2\n        /* \"#utility.yul\":24764:24768   */\n      dup2\n        /* \"#utility.yul\":24760:24780   */\n      sub\n        /* \"#utility.yul\":24756:24757   */\n      0x00\n        /* \"#utility.yul\":24745:24754   */\n      dup4\n        /* \"#utility.yul\":24741:24758   */\n      add\n        /* \"#utility.yul\":24734:24781   */\n      mstore\n        /* \"#utility.yul\":24798:24929   */\n      tag_635\n        /* \"#utility.yul\":24924:24928   */\n      dup2\n        /* \"#utility.yul\":24798:24929   */\n      tag_373\n      jump\t// in\n    tag_635:\n        /* \"#utility.yul\":24790:24929   */\n      swap1\n      pop\n        /* \"#utility.yul\":24517:24936   */\n      swap2\n      swap1\n      pop\n      jump\t// out\n        /* \"#utility.yul\":24942:25175   */\n    tag_229:\n        /* \"#utility.yul\":24981:24984   */\n      0x00\n        /* \"#utility.yul\":25004:25028   */\n      tag_637\n        /* \"#utility.yul\":25022:25027   */\n      dup3\n        /* \"#utility.yul\":25004:25028   */\n      tag_317\n      jump\t// in\n    tag_637:\n        /* \"#utility.yul\":24995:25028   */\n      swap2\n      pop\n        /* \"#utility.yul\":25050:25116   */\n      0xffffffffffffffffffffffffffffffffffffffffffffffffffffffffffffffff\n        /* \"#utility.yul\":25043:25048   */\n      dup3\n        /* \"#utility.yul\":25040:25117   */\n      sub\n        /* \"#utility.yul\":25037:25140   */\n      tag_638\n      jumpi\n        /* \"#utility.yul\":25120:25138   */\n      tag_639\n      tag_348\n      jump\t// in\n    tag_639:\n        /* \"#utility.yul\":25037:25140   */\n    tag_638:\n        /* \"#utility.yul\":25167:25168   */\n      0x01\n        /* \"#utility.yul\":25160:25165   */\n      dup3\n        /* \"#utility.yul\":25156:25169   */\n      add\n        /* \"#utility.yul\":25149:25169   */\n      swap1\n      pop\n        /* \"#utility.yul\":24942:25175   */\n      swap2\n      swap1\n      pop\n      jump\t// out\n        /* \"#utility.yul\":25181:25405   */\n    tag_374:\n        /* \"#utility.yul\":25321:25355   */\n      0x45524332303a2064656372656173656420616c6c6f77616e63652062656c6f77\n        /* \"#utility.yul\":25317:25318   */\n      0x00\n        /* \"#utility.yul\":25309:25315   */\n      dup3\n        /* \"#utility.yul\":25305:25319   */\n      add\n        /* \"#utility.yul\":25298:25356   */\n      mstore\n        /* \"#utility.yul\":25390:25397   */\n      0x207a65726f000000000000000000000000000000000000000000000000000000\n        /* \"#utility.yul\":25385:25387   */\n      0x20\n        /* \"#utility.yul\":25377:25383   */\n      dup3\n        /* \"#utility.yul\":25373:25388   */\n      add\n        /* \"#utility.yul\":25366:25398   */\n      mstore\n        /* \"#utility.yul\":25181:25405   */\n      pop\n      jump\t// out\n        /* \"#utility.yul\":25411:25777   */\n    tag_375:\n        /* \"#utility.yul\":25553:25556   */\n      0x00\n        /* \"#utility.yul\":25574:25641   */\n      tag_642\n        /* \"#utility.yul\":25638:25640   */\n      0x25\n        /* \"#utility.yul\":25633:25636   */\n      dup4\n        /* \"#utility.yul\":25574:25641   */\n      tag_306\n      jump\t// in\n    tag_642:\n        /* \"#utility.yul\":25567:25641   */\n      swap2\n      pop\n        /* \"#utility.yul\":25650:25743   */\n      tag_643\n        /* \"#utility.yul\":25739:25742   */\n      dup3\n        /* \"#utility.yul\":25650:25743   */\n      tag_374\n      jump\t// in\n    tag_643:\n        /* \"#utility.yul\":25768:25770   */\n      0x40\n        /* \"#utility.yul\":25763:25766   */\n      dup3\n        /* \"#utility.yul\":25759:25771   */\n      add\n        /* \"#utility.yul\":25752:25771   */\n      swap1\n      pop\n        /* \"#utility.yul\":25411:25777   */\n      swap2\n      swap1\n      pop\n      jump\t// out\n        /* \"#utility.yul\":25783:26202   */\n    tag_240:\n        /* \"#utility.yul\":25949:25953   */\n      0x00\n        /* \"#utility.yul\":25987:25989   */\n      0x20\n        /* \"#utility.yul\":25976:25985   */\n      dup3\n        /* \"#utility.yul\":25972:25990   */\n      add\n        /* \"#utility.yul\":25964:25990   */\n      swap1\n      pop\n        /* \"#utility.yul\":26036:26045   */\n      dup2\n        /* \"#utility.yul\":26030:26034   */\n      dup2\n        /* \"#utility.yul\":26026:26046   */\n      sub\n        /* \"#utility.yul\":26022:26023   */\n      0x00\n        /* \"#utility.yul\":26011:26020   */\n      dup4\n        /* \"#utility.yul\":26007:26024   */\n      add\n        /* \"#utility.yul\":26000:26047   */\n      mstore\n        /* \"#utility.yul\":26064:26195   */\n      tag_645\n        /* \"#utility.yul\":26190:26194   */\n      dup2\n        /* \"#utility.yul\":26064:26195   */\n      tag_375\n      jump\t// in\n    tag_645:\n        /* \"#utility.yul\":26056:26195   */\n      swap1\n      pop\n        /* \"#utility.yul\":25783:26202   */\n      swap2\n      swap1\n      pop\n      jump\t// out\n        /* \"#utility.yul\":26208:26431   */\n    tag_376:\n        /* \"#utility.yul\":26348:26382   */\n      0x45524332303a20617070726f76652066726f6d20746865207a65726f20616464\n        /* \"#utility.yul\":26344:26345   */\n      0x00\n        /* \"#utility.yul\":26336:26342   */\n      dup3\n        /* \"#utility.yul\":26332:26346   */\n      add\n        /* \"#utility.yul\":26325:26383   */\n      mstore\n        /* \"#utility.yul\":26417:26423   */\n      0x7265737300000000000000000000000000000000000000000000000000000000\n        /* \"#utility.yul\":26412:26414   */\n      0x20\n        /* \"#utility.yul\":26404:26410   */\n      dup3\n        /* \"#utility.yul\":26400:26415   */\n      add\n        /* \"#utility.yul\":26393:26424   */\n      mstore\n        /* \"#utility.yul\":26208:26431   */\n      pop\n      jump\t// out\n        /* \"#utility.yul\":26437:26803   */\n    tag_377:\n        /* \"#utility.yul\":26579:26582   */\n      0x00\n        /* \"#utility.yul\":26600:26667   */\n      tag_648\n        /* \"#utility.yul\":26664:26666   */\n      0x24\n        /* \"#utility.yul\":26659:26662   */\n      dup4\n        /* \"#utility.yul\":26600:26667   */\n      tag_306\n      jump\t// in\n    tag_648:\n        /* \"#utility.yul\":26593:26667   */\n      swap2\n      pop\n        /* \"#utility.yul\":26676:26769   */\n      tag_649\n        /* \"#utility.yul\":26765:26768   */\n      dup3\n        /* \"#utility.yul\":26676:26769   */\n      tag_376\n      jump\t// in\n    tag_649:\n        /* \"#utility.yul\":26794:26796   */\n      0x40\n        /* \"#utility.yul\":26789:26792   */\n      dup3\n        /* \"#utility.yul\":26785:26797   */\n      add\n        /* \"#utility.yul\":26778:26797   */\n      swap1\n      pop\n        /* \"#utility.yul\":26437:26803   */\n      swap2\n      swap1\n      pop\n      jump\t// out\n        /* \"#utility.yul\":26809:27228   */\n    tag_250:\n        /* \"#utility.yul\":26975:26979   */\n      0x00\n        /* \"#utility.yul\":27013:27015   */\n      0x20\n        /* \"#utility.yul\":27002:27011   */\n      dup3\n        /* \"#utility.yul\":26998:27016   */\n      add\n        /* \"#utility.yul\":26990:27016   */\n      swap1\n      pop\n        /* \"#utility.yul\":27062:27071   */\n      dup2\n        /* \"#utility.yul\":27056:27060   */\n      dup2\n        /* \"#utility.yul\":27052:27072   */\n      sub\n        /* \"#utility.yul\":27048:27049   */\n      0x00\n        /* \"#utility.yul\":27037:27046   */\n      dup4\n        /* \"#utility.yul\":27033:27050   */\n      add\n        /* \"#utility.yul\":27026:27073   */\n      mstore\n        /* \"#utility.yul\":27090:27221   */\n      tag_651\n        /* \"#utility.yul\":27216:27220   */\n      dup2\n        /* \"#utility.yul\":27090:27221   */\n      tag_377\n      jump\t// in\n    tag_651:\n        /* \"#utility.yul\":27082:27221   */\n      swap1\n      pop\n        /* \"#utility.yul\":26809:27228   */\n      swap2\n      swap1\n      pop\n      jump\t// out\n        /* \"#utility.yul\":27234:27455   */\n    tag_378:\n        /* \"#utility.yul\":27374:27408   */\n      0x45524332303a20617070726f766520746f20746865207a65726f206164647265\n        /* \"#utility.yul\":27370:27371   */\n      0x00\n        /* \"#utility.yul\":27362:27368   */\n      dup3\n        /* \"#utility.yul\":27358:27372   */\n      add\n        /* \"#utility.yul\":27351:27409   */\n      mstore\n        /* \"#utility.yul\":27443:27447   */\n      0x7373000000000000000000000000000000000000000000000000000000000000\n        /* \"#utility.yul\":27438:27440   */\n      0x20\n        /* \"#utility.yul\":27430:27436   */\n      dup3\n        /* \"#utility.yul\":27426:27441   */\n      add\n        /* \"#utility.yul\":27419:27448   */\n      mstore\n        /* \"#utility.yul\":27234:27455   */\n      pop\n      jump\t// out\n        /* \"#utility.yul\":27461:27827   */\n    tag_379:\n        /* \"#utility.yul\":27603:27606   */\n      0x00\n        /* \"#utility.yul\":27624:27691   */\n      tag_654\n        /* \"#utility.yul\":27688:27690   */\n      0x22\n        /* \"#utility.yul\":27683:27686   */\n      dup4\n        /* \"#utility.yul\":27624:27691   */\n      tag_306\n      jump\t// in\n    tag_654:\n        /* \"#utility.yul\":27617:27691   */\n      swap2\n      pop\n        /* \"#utility.yul\":27700:27793   */\n      tag_655\n        /* \"#utility.yul\":27789:27792   */\n      dup3\n        /* \"#utility.yul\":27700:27793   */\n      tag_378\n      jump\t// in\n    tag_655:\n        /* \"#utility.yul\":27818:27820   */\n      0x40\n        /* \"#utility.yul\":27813:27816   */\n      dup3\n        /* \"#utility.yul\":27809:27821   */\n      add\n        /* \"#utility.yul\":27802:27821   */\n      swap1\n      pop\n        /* \"#utility.yul\":27461:27827   */\n      swap2\n      swap1\n      pop\n      jump\t// out\n        /* \"#utility.yul\":27833:28252   */\n    tag_253:\n        /* \"#utility.yul\":27999:28003   */\n      0x00\n        /* \"#utility.yul\":28037:28039   */\n      0x20\n        /* \"#utility.yul\":28026:28035   */\n      dup3\n        /* \"#utility.yul\":28022:28040   */\n      add\n        /* \"#utility.yul\":28014:28040   */\n      swap1\n      pop\n        /* \"#utility.yul\":28086:28095   */\n      dup2\n        /* \"#utility.yul\":28080:28084   */\n      dup2\n        /* \"#utility.yul\":28076:28096   */\n      sub\n        /* \"#utility.yul\":28072:28073   */\n      0x00\n        /* \"#utility.yul\":28061:28070   */\n      dup4\n        /* \"#utility.yul\":28057:28074   */\n      add\n        /* \"#utility.yul\":28050:28097   */\n      mstore\n        /* \"#utility.yul\":28114:28245   */\n      tag_657\n        /* \"#utility.yul\":28240:28244   */\n      dup2\n        /* \"#utility.yul\":28114:28245   */\n      tag_379\n      jump\t// in\n    tag_657:\n        /* \"#utility.yul\":28106:28245   */\n      swap1\n      pop\n        /* \"#utility.yul\":27833:28252   */\n      swap2\n      swap1\n      pop\n      jump\t// out\n        /* \"#utility.yul\":28258:28437   */\n    tag_380:\n        /* \"#utility.yul\":28398:28429   */\n      0x45524332303a20696e73756666696369656e7420616c6c6f77616e6365000000\n        /* \"#utility.yul\":28394:28395   */\n      0x00\n        /* \"#utility.yul\":28386:28392   */\n      dup3\n        /* \"#utility.yul\":28382:28396   */\n      add\n        /* \"#utility.yul\":28375:28430   */\n      mstore\n        /* \"#utility.yul\":28258:28437   */\n      pop\n      jump\t// out\n        /* \"#utility.yul\":28443:28809   */\n    tag_381:\n        /* \"#utility.yul\":28585:28588   */\n      0x00\n        /* \"#utility.yul\":28606:28673   */\n      tag_660\n        /* \"#utility.yul\":28670:28672   */\n      0x1d\n        /* \"#utility.yul\":28665:28668   */\n      dup4\n        /* \"#utility.yul\":28606:28673   */\n      tag_306\n      jump\t// in\n    tag_660:\n        /* \"#utility.yul\":28599:28673   */\n      swap2\n      pop\n        /* \"#utility.yul\":28682:28775   */\n      tag_661\n        /* \"#utility.yul\":28771:28774   */\n      dup3\n        /* \"#utility.yul\":28682:28775   */\n      tag_380\n      jump\t// in\n    tag_661:\n        /* \"#utility.yul\":28800:28802   */\n      0x20\n        /* \"#utility.yul\":28795:28798   */\n      dup3\n        /* \"#utility.yul\":28791:28803   */\n      add\n        /* \"#utility.yul\":28784:28803   */\n      swap1\n      pop\n        /* \"#utility.yul\":28443:28809   */\n      swap2\n      swap1\n      pop\n      jump\t// out\n        /* \"#utility.yul\":28815:29234   */\n    tag_260:\n        /* \"#utility.yul\":28981:28985   */\n      0x00\n        /* \"#utility.yul\":29019:29021   */\n      0x20\n        /* \"#utility.yul\":29008:29017   */\n      dup3\n        /* \"#utility.yul\":29004:29022   */\n      add\n        /* \"#utility.yul\":28996:29022   */\n      swap1\n      pop\n        /* \"#utility.yul\":29068:29077   */\n      dup2\n        /* \"#utility.yul\":29062:29066   */\n      dup2\n        /* \"#utility.yul\":29058:29078   */\n      sub\n        /* \"#utility.yul\":29054:29055   */\n      0x00\n        /* \"#utility.yul\":29043:29052   */\n      dup4\n        /* \"#utility.yul\":29039:29056   */\n      add\n        /* \"#utility.yul\":29032:29079   */\n      mstore\n        /* \"#utility.yul\":29096:29227   */\n      tag_663\n        /* \"#utility.yul\":29222:29226   */\n      dup2\n        /* \"#utility.yul\":29096:29227   */\n      tag_381\n      jump\t// in\n    tag_663:\n        /* \"#utility.yul\":29088:29227   */\n      swap1\n      pop\n        /* \"#utility.yul\":28815:29234   */\n      swap2\n      swap1\n      pop\n      jump\t// out\n        /* \"#utility.yul\":29240:29464   */\n    tag_382:\n        /* \"#utility.yul\":29380:29414   */\n      0x45524332303a207472616e736665722066726f6d20746865207a65726f206164\n        /* \"#utility.yul\":29376:29377   */\n      0x00\n        /* \"#utility.yul\":29368:29374   */\n      dup3\n        /* \"#utility.yul\":29364:29378   */\n      add\n        /* \"#utility.yul\":29357:29415   */\n      mstore\n        /* \"#utility.yul\":29449:29456   */\n      0x6472657373000000000000000000000000000000000000000000000000000000\n        /* \"#utility.yul\":29444:29446   */\n      0x20\n        /* \"#utility.yul\":29436:29442   */\n      dup3\n        /* \"#utility.yul\":29432:29447   */\n      add\n        /* \"#utility.yul\":29425:29457   */\n      mstore\n        /* \"#utility.yul\":29240:29464   */\n      pop\n      jump\t// out\n        /* \"#utility.yul\":29470:29836   */\n    tag_383:\n        /* \"#utility.yul\":29612:29615   */\n      0x00\n        /* \"#utility.yul\":29633:29700   */\n      tag_666\n        /* \"#utility.yul\":29697:29699   */\n      0x25\n        /* \"#utility.yul\":29692:29695   */\n      dup4\n        /* \"#utility.yul\":29633:29700   */\n      tag_306\n      jump\t// in\n    tag_666:\n        /* \"#utility.yul\":29626:29700   */\n      swap2\n      pop\n        /* \"#utility.yul\":29709:29802   */\n      tag_667\n        /* \"#utility.yul\":29798:29801   */\n      dup3\n        /* \"#utility.yul\":29709:29802   */\n      tag_382\n      jump\t// in\n    tag_667:\n        /* \"#utility.yul\":29827:29829   */\n      0x40\n        /* \"#utility.yul\":29822:29825   */\n      dup3\n        /* \"#utility.yul\":29818:29830   */\n      add\n        /* \"#utility.yul\":29811:29830   */\n      swap1\n      pop\n        /* \"#utility.yul\":29470:29836   */\n      swap2\n      swap1\n      pop\n      jump\t// out\n        /* \"#utility.yul\":29842:30261   */\n    tag_265:\n        /* \"#utility.yul\":30008:30012   */\n      0x00\n        /* \"#utility.yul\":30046:30048   */\n      0x20\n        /* \"#utility.yul\":30035:30044   */\n      dup3\n        /* \"#utility.yul\":30031:30049   */\n      add\n        /* \"#utility.yul\":30023:30049   */\n      swap1\n      pop\n        /* \"#utility.yul\":30095:30104   */\n      dup2\n        /* \"#utility.yul\":30089:30093   */\n      dup2\n        /* \"#utility.yul\":30085:30105   */\n      sub\n        /* \"#utility.yul\":30081:30082   */\n      0x00\n        /* \"#utility.yul\":30070:30079   */\n      dup4\n        /* \"#utility.yul\":30066:30083   */\n      add\n        /* \"#utility.yul\":30059:30106   */\n      mstore\n        /* \"#utility.yul\":30123:30254   */\n      tag_669\n        /* \"#utility.yul\":30249:30253   */\n      dup2\n        /* \"#utility.yul\":30123:30254   */\n      tag_383\n      jump\t// in\n    tag_669:\n        /* \"#utility.yul\":30115:30254   */\n      swap1\n      pop\n        /* \"#utility.yul\":29842:30261   */\n      swap2\n      swap1\n      pop\n      jump\t// out\n        /* \"#utility.yul\":30267:30489   */\n    tag_384:\n        /* \"#utility.yul\":30407:30441   */\n      0x45524332303a207472616e7366657220746f20746865207a65726f2061646472\n        /* \"#utility.yul\":30403:30404   */\n      0x00\n        /* \"#utility.yul\":30395:30401   */\n      dup3\n        /* \"#utility.yul\":30391:30405   */\n      add\n        /* \"#utility.yul\":30384:30442   */\n      mstore\n        /* \"#utility.yul\":30476:30481   */\n      0x6573730000000000000000000000000000000000000000000000000000000000\n        /* \"#utility.yul\":30471:30473   */\n      0x20\n        /* \"#utility.yul\":30463:30469   */\n      dup3\n        /* \"#utility.yul\":30459:30474   */\n      add\n        /* \"#utility.yul\":30452:30482   */\n      mstore\n        /* \"#utility.yul\":30267:30489   */\n      pop\n      jump\t// out\n        /* \"#utility.yul\":30495:30861   */\n    tag_385:\n        /* \"#utility.yul\":30637:30640   */\n      0x00\n        /* \"#utility.yul\":30658:30725   */\n      tag_672\n        /* \"#utility.yul\":30722:30724   */\n      0x23\n        /* \"#utility.yul\":30717:30720   */\n      dup4\n        /* \"#utility.yul\":30658:30725   */\n      tag_306\n      jump\t// in\n    tag_672:\n        /* \"#utility.yul\":30651:30725   */\n      swap2\n      pop\n        /* \"#utility.yul\":30734:30827   */\n      tag_673\n        /* \"#utility.yul\":30823:30826   */\n      dup3\n        /* \"#utility.yul\":30734:30827   */\n      tag_384\n      jump\t// in\n    tag_673:\n        /* \"#utility.yul\":30852:30854   */\n      0x40\n        /* \"#utility.yul\":30847:30850   */\n      dup3\n        /* \"#utility.yul\":30843:30855   */\n      add\n        /* \"#utility.yul\":30836:30855   */\n      swap1\n      pop\n        /* \"#utility.yul\":30495:30861   */\n      swap2\n      swap1\n      pop\n      jump\t// out\n        /* \"#utility.yul\":30867:31286   */\n    tag_268:\n        /* \"#utility.yul\":31033:31037   */\n      0x00\n        /* \"#utility.yul\":31071:31073   */\n      0x20\n        /* \"#utility.yul\":31060:31069   */\n      dup3\n        /* \"#utility.yul\":31056:31074   */\n      add\n        /* \"#utility.yul\":31048:31074   */\n      swap1\n      pop\n        /* \"#utility.yul\":31120:31129   */\n      dup2\n        /* \"#utility.yul\":31114:31118   */\n      dup2\n        /* \"#utility.yul\":31110:31130   */\n      sub\n        /* \"#utility.yul\":31106:31107   */\n      0x00\n        /* \"#utility.yul\":31095:31104   */\n      dup4\n        /* \"#utility.yul\":31091:31108   */\n      add\n        /* \"#utility.yul\":31084:31131   */\n      mstore\n        /* \"#utility.yul\":31148:31279   */\n      tag_675\n        /* \"#utility.yul\":31274:31278   */\n      dup2\n        /* \"#utility.yul\":31148:31279   */\n      tag_385\n      jump\t// in\n    tag_675:\n        /* \"#utility.yul\":31140:31279   */\n      swap1\n      pop\n        /* \"#utility.yul\":30867:31286   */\n      swap2\n      swap1\n      pop\n      jump\t// out\n        /* \"#utility.yul\":31292:31517   */\n    tag_386:\n        /* \"#utility.yul\":31432:31466   */\n      0x45524332303a207472616e7366657220616d6f756e7420657863656564732062\n        /* \"#utility.yul\":31428:31429   */\n      0x00\n        /* \"#utility.yul\":31420:31426   */\n      dup3\n        /* \"#utility.yul\":31416:31430   */\n      add\n        /* \"#utility.yul\":31409:31467   */\n      mstore\n        /* \"#utility.yul\":31501:31509   */\n      0x616c616e63650000000000000000000000000000000000000000000000000000\n        /* \"#utility.yul\":31496:31498   */\n      0x20\n        /* \"#utility.yul\":31488:31494   */\n      dup3\n        /* \"#utility.yul\":31484:31499   */\n      add\n        /* \"#utility.yul\":31477:31510   */\n      mstore\n        /* \"#utility.yul\":31292:31517   */\n      pop\n      jump\t// out\n        /* \"#utility.yul\":31523:31889   */\n    tag_387:\n        /* \"#utility.yul\":31665:31668   */\n      0x00\n        /* \"#utility.yul\":31686:31753   */\n      tag_678\n        /* \"#utility.yul\":31750:31752   */\n      0x26\n        /* \"#utility.yul\":31745:31748   */\n      dup4\n        /* \"#utility.yul\":31686:31753   */\n      tag_306\n      jump\t// in\n    tag_678:\n        /* \"#utility.yul\":31679:31753   */\n      swap2\n      pop\n        /* \"#utility.yul\":31762:31855   */\n      tag_679\n        /* \"#utility.yul\":31851:31854   */\n      dup3\n        /* \"#utility.yul\":31762:31855   */\n      tag_386\n      jump\t// in\n    tag_679:\n        /* \"#utility.yul\":31880:31882   */\n      0x40\n        /* \"#utility.yul\":31875:31878   */\n      dup3\n        /* \"#utility.yul\":31871:31883   */\n      add\n        /* \"#utility.yul\":31864:31883   */\n      swap1\n      pop\n        /* \"#utility.yul\":31523:31889   */\n      swap2\n      swap1\n      pop\n      jump\t// out\n        /* \"#utility.yul\":31895:32314   */\n    tag_273:\n        /* \"#utility.yul\":32061:32065   */\n      0x00\n        /* \"#utility.yul\":32099:32101   */\n      0x20\n        /* \"#utility.yul\":32088:32097   */\n      dup3\n        /* \"#utility.yul\":32084:32102   */\n      add\n        /* \"#utility.yul\":32076:32102   */\n      swap1\n      pop\n        /* \"#utility.yul\":32148:32157   */\n      dup2\n        /* \"#utility.yul\":32142:32146   */\n      dup2\n        /* \"#utility.yul\":32138:32158   */\n      sub\n        /* \"#utility.yul\":32134:32135   */\n      0x00\n        /* \"#utility.yul\":32123:32132   */\n      dup4\n        /* \"#utility.yul\":32119:32136   */\n      add\n        /* \"#utility.yul\":32112:32159   */\n      mstore\n        /* \"#utility.yul\":32176:32307   */\n      tag_681\n        /* \"#utility.yul\":32302:32306   */\n      dup2\n        /* \"#utility.yul\":32176:32307   */\n      tag_387\n      jump\t// in\n    tag_681:\n        /* \"#utility.yul\":32168:32307   */\n      swap1\n      pop\n        /* \"#utility.yul\":31895:32314   */\n      swap2\n      swap1\n      pop\n      jump\t// out\n        /* \"#utility.yul\":32320:32541   */\n    tag_388:\n        /* \"#utility.yul\":32460:32494   */\n      0x456e756d657261626c655365743a20696e646578206f7574206f6620626f756e\n        /* \"#utility.yul\":32456:32457   */\n      0x00\n        /* \"#utility.yul\":32448:32454   */\n      dup3\n        /* \"#utility.yul\":32444:32458   */\n      add\n        /* \"#utility.yul\":32437:32495   */\n      mstore\n        /* \"#utility.yul\":32529:32533   */\n      0x6473000000000000000000000000000000000000000000000000000000000000\n        /* \"#utility.yul\":32524:32526   */\n      0x20\n        /* \"#utility.yul\":32516:32522   */\n      dup3\n        /* \"#utility.yul\":32512:32527   */\n      add\n        /* \"#utility.yul\":32505:32534   */\n      mstore\n        /* \"#utility.yul\":32320:32541   */\n      pop\n      jump\t// out\n        /* \"#utility.yul\":32547:32913   */\n    tag_389:\n        /* \"#utility.yul\":32689:32692   */\n      0x00\n        /* \"#utility.yul\":32710:32777   */\n      tag_684\n        /* \"#utility.yul\":32774:32776   */\n      0x22\n        /* \"#utility.yul\":32769:32772   */\n      dup4\n        /* \"#utility.yul\":32710:32777   */\n      tag_306\n      jump\t// in\n    tag_684:\n        /* \"#utility.yul\":32703:32777   */\n      swap2\n      pop\n        /* \"#utility.yul\":32786:32879   */\n      tag_685\n        /* \"#utility.yul\":32875:32878   */\n      dup3\n        /* \"#utility.yul\":32786:32879   */\n      tag_388\n      jump\t// in\n    tag_685:\n        /* \"#utility.yul\":32904:32906   */\n      0x40\n        /* \"#utility.yul\":32899:32902   */\n      dup3\n        /* \"#utility.yul\":32895:32907   */\n      add\n        /* \"#utility.yul\":32888:32907   */\n      swap1\n      pop\n        /* \"#utility.yul\":32547:32913   */\n      swap2\n      swap1\n      pop\n      jump\t// out\n        /* \"#utility.yul\":32919:33338   */\n    tag_301:\n        /* \"#utility.yul\":33085:33089   */\n      0x00\n        /* \"#utility.yul\":33123:33125   */\n      0x20\n        /* \"#utility.yul\":33112:33121   */\n      dup3\n        /* \"#utility.yul\":33108:33126   */\n      add\n        /* \"#utility.yul\":33100:33126   */\n      swap1\n      pop\n        /* \"#utility.yul\":33172:33181   */\n      dup2\n        /* \"#utility.yul\":33166:33170   */\n      dup2\n        /* \"#utility.yul\":33162:33182   */\n      sub\n        /* \"#utility.yul\":33158:33159   */\n      0x00\n        /* \"#utility.yul\":33147:33156   */\n      dup4\n        /* \"#utility.yul\":33143:33160   */\n      add\n        /* \"#utility.yul\":33136:33183   */\n      mstore\n        /* \"#utility.yul\":33200:33331   */\n      tag_687\n        /* \"#utility.yul\":33326:33330   */\n      dup2\n        /* \"#utility.yul\":33200:33331   */\n      tag_389\n      jump\t// in\n    tag_687:\n        /* \"#utility.yul\":33192:33331   */\n      swap1\n      pop\n        /* \"#utility.yul\":32919:33338   */\n      swap2\n      swap1\n      pop\n      jump\t// out\n\n    auxdata: 0xa2646970667358221220b50670bb34a2a3d22a5d0d40ec0b8cfaa0f323ab4ff0b413306a9799f015a11764736f6c63430008140033\n}\n",
				"bytecode": {
					"linkReferences": {},
					"object": "608060405234801562000010575f80fd5b5060405162002d3938038062002d39833981810160405281019062000036919062000219565b81818160039081620000499190620004d3565b5080600490816200005b9190620004d3565b505050620f42406005819055506064600681905550600a60018160018154018082558091505003905f5260205f209050505050620005b7565b5f604051905090565b5f80fd5b5f80fd5b5f80fd5b5f80fd5b5f601f19601f8301169050919050565b7f4e487b71000000000000000000000000000000000000000000000000000000005f52604160045260245ffd5b620000f582620000ad565b810181811067ffffffffffffffff82111715620001175762000116620000bd565b5b80604052505050565b5f6200012b62000094565b9050620001398282620000ea565b919050565b5f67ffffffffffffffff8211156200015b576200015a620000bd565b5b6200016682620000ad565b9050602081019050919050565b5f5b838110156200019257808201518184015260208101905062000175565b5f8484015250505050565b5f620001b3620001ad846200013e565b62000120565b905082815260208101848484011115620001d257620001d1620000a9565b5b620001df84828562000173565b509392505050565b5f82601f830112620001fe57620001fd620000a5565b5b8151620002108482602086016200019d565b91505092915050565b5f80604083850312156200023257620002316200009d565b5b5f83015167ffffffffffffffff811115620002525762000251620000a1565b5b6200026085828601620001e7565b925050602083015167ffffffffffffffff811115620002845762000283620000a1565b5b6200029285828601620001e7565b9150509250929050565b5f81519050919050565b7f4e487b71000000000000000000000000000000000000000000000000000000005f52602260045260245ffd5b5f6002820490506001821680620002eb57607f821691505b602082108103620003015762000300620002a6565b5b50919050565b5f819050815f5260205f209050919050565b5f6020601f8301049050919050565b5f82821b905092915050565b5f60088302620003657fffffffffffffffffffffffffffffffffffffffffffffffffffffffffffffffff8262000328565b62000371868362000328565b95508019841693508086168417925050509392505050565b5f819050919050565b5f819050919050565b5f620003bb620003b5620003af8462000389565b62000392565b62000389565b9050919050565b5f819050919050565b620003d6836200039b565b620003ee620003e582620003c2565b84845462000334565b825550505050565b5f90565b62000404620003f6565b62000411818484620003cb565b505050565b5b8181101562000438576200042c5f82620003fa565b60018101905062000417565b5050565b601f8211156200048757620004518162000307565b6200045c8462000319565b810160208510156200046c578190505b620004846200047b8562000319565b83018262000416565b50505b505050565b5f82821c905092915050565b5f620004a95f19846008026200048c565b1980831691505092915050565b5f620004c3838362000498565b9150826002028217905092915050565b620004de826200029c565b67ffffffffffffffff811115620004fa57620004f9620000bd565b5b620005068254620002d3565b620005138282856200043c565b5f60209050601f83116001811462000549575f841562000534578287015190505b620005408582620004b6565b865550620005af565b601f198416620005598662000307565b5f5b8281101562000582578489015182556001820191506020850194506020810190506200055b565b86831015620005a257848901516200059e601f89168262000498565b8355505b6001600288020188555050505b505050505050565b61277480620005c55f395ff3fe608060405234801561000f575f80fd5b506004361061012a575f3560e01c8063830953ab116100ab578063976b31131161006f578063976b311314610358578063a457c2d714610388578063a9059cbb146103b8578063d5abeb01146103e8578063dd62ed3e146104065761012a565b8063830953ab146102b25780638615d855146102d0578063943e82161461030057806395d89b411461031c5780639668ceb81461033a5761012a565b8063313ce567116100f2578063313ce567146101fa57806339509351146102185780634e71d92d1461024857806370a082311461025257806373b2e80e146102825761012a565b806306fdde031461012e578063095ea7b31461014c57806318160ddd1461017c57806323b872dd1461019a57806327e235e3146101ca575b5f80fd5b610136610436565b604051610143919061167a565b60405180910390f35b61016660048036038101906101619190611738565b6104c6565b6040516101739190611790565b60405180910390f35b6101846104e8565b60405161019191906117b8565b60405180910390f35b6101b460048036038101906101af91906117d1565b6104f1565b6040516101c19190611790565b60405180910390f35b6101e460048036038101906101df9190611821565b61051f565b6040516101f191906117b8565b60405180910390f35b610202610534565b60405161020f9190611867565b60405180910390f35b610232600480360381019061022d9190611738565b61053c565b60405161023f9190611790565b60405180910390f35b610250610572565b005b61026c60048036038101906102679190611821565b6106f7565b60405161027991906117b8565b60405180910390f35b61029c60048036038101906102979190611821565b61073c565b6040516102a99190611790565b60405180910390f35b6102ba610759565b6040516102c791906117b8565b60405180910390f35b6102ea60048036038101906102e591906119ac565b61075f565b6040516102f791906117b8565b60405180910390f35b61031a60048036038101906103159190611a29565b610892565b005b610324610b87565b604051610331919061167a565b60405180910390f35b610342610c17565b60405161034f91906117b8565b60405180910390f35b610372600480360381019061036d9190611a67565b610c1d565b60405161037f9190611c78565b60405180910390f35b6103a2600480360381019061039d9190611738565b610e34565b6040516103af9190611790565b60405180910390f35b6103d260048036038101906103cd9190611738565b610ea9565b6040516103df9190611790565b60405180910390f35b6103f0610ecb565b6040516103fd91906117b8565b60405180910390f35b610420600480360381019061041b9190611c98565b610ed1565b60405161042d91906117b8565b60405180910390f35b60606003805461044590611d03565b80601f016020809104026020016040519081016040528092919081815260200182805461047190611d03565b80156104bc5780601f10610493576101008083540402835291602001916104bc565b820191905f5260205f20905b81548152906001019060200180831161049f57829003601f168201915b5050505050905090565b5f806104d0610f53565b90506104dd818585610f5a565b600191505092915050565b5f600254905090565b5f806104fb610f53565b905061050885828561111d565b6105138585856111a8565b60019150509392505050565b6008602052805f5260405f205f915090505481565b5f6012905090565b5f80610546610f53565b90506105678185856105588589610ed1565b6105629190611d60565b610f5a565b600191505092915050565b60055460075411156105b0576040517fcbe2483100000000000000000000000000000000000000000000000000000000815260040160405180910390fd5b60095f3373ffffffffffffffffffffffffffffffffffffffff1673ffffffffffffffffffffffffffffffffffffffff1681526020019081526020015f205f9054906101000a900460ff1615610631576040517f0b1327a600000000000000000000000000000000000000000000000000000000815260040160405180910390fd5b60065460085f3373ffffffffffffffffffffffffffffffffffffffff1673ffffffffffffffffffffffffffffffffffffffff1681526020019081526020015f205f82825461067f9190611d60565b9250508190555060065460075f8282546106999190611d60565b92505081905550600160095f3373ffffffffffffffffffffffffffffffffffffffff1673ffffffffffffffffffffffffffffffffffffffff1681526020019081526020015f205f6101000a81548160ff021916908315150217905550565b5f805f8373ffffffffffffffffffffffffffffffffffffffff1673ffffffffffffffffffffffffffffffffffffffff1681526020019081526020015f20549050919050565b6009602052805f5260405f205f915054906101000a900460ff1681565b60065481565b5f8060085f3373ffffffffffffffffffffffffffffffffffffffff1673ffffffffffffffffffffffffffffffffffffffff1681526020019081526020015f2054116107df576040517f08c379a00000000000000000000000000000000000000000000000000000000081526004016107d690611e03565b60405180910390fd5b6107e76104e8565b821115610829576040517f08c379a000000000000000000000000000000000000000000000000000000000815260040161082090611e91565b60405180910390fd5b600a805490509050600a60018160018154018082558091505003905f5260205f209050505f600a828154811061086257610861611eaf565b5b905f5260205f2090600902019050838160020190816108819190612079565b508281600701819055505092915050565b600a82815481106108a6576108a5611eaf565b5b905f5260205f20906009020160080160019054906101000a900460ff1615610903576040517f08c379a00000000000000000000000000000000000000000000000000000000081526004016108fa90612192565b60405180910390fd5b61093733600a848154811061091b5761091a611eaf565b5b905f5260205f2090600902015f0161141490919063ffffffff16565b15610977576040517f08c379a000000000000000000000000000000000000000000000000000000000815260040161096e906121fa565b60405180910390fd5b5f600a838154811061098c5761098b611eaf565b5b905f5260205f20906009020190505f60085f3373ffffffffffffffffffffffffffffffffffffffff1673ffffffffffffffffffffffffffffffffffffffff1681526020019081526020015f20549050600160028111156109ef576109ee612218565b5b836002811115610a0257610a01612218565b5b03610a265780826003015f828254610a1a9190611d60565b92505081905550610af7565b5f6002811115610a3957610a38612218565b5b836002811115610a4c57610a4b612218565b5b03610a705780826004015f828254610a649190611d60565b92505081905550610af6565b600280811115610a8357610a82612218565b5b836002811115610a9657610a95612218565b5b03610aba5780826005015f828254610aae9190611d60565b92505081905550610af5565b6040517f08c379a0000000000000000000000000000000000000000000000000000000008152600401610aec9061228f565b60405180910390fd5b5b5b80826006015f828254610b0a9190611d60565b92505081905550610b2633835f0161144190919063ffffffff16565b508160070154826006015410610b815760018260080160016101000a81548160ff021916908315150217905550816004015482600301541115610b80576001826008015f6101000a81548160ff0219169083151502179055505b5b50505050565b606060048054610b9690611d03565b80601f0160208091040260200160405190810160405280929190818152602001828054610bc290611d03565b8015610c0d5780601f10610be457610100808354040283529160200191610c0d565b820191905f5260205f20905b815481529060010190602001808311610bf057829003601f168201915b5050505050905090565b60075481565b610c256115a7565b5f600a8381548110610c3a57610c39611eaf565b5b905f5260205f20906009020190505f610c54825f0161146e565b67ffffffffffffffff811115610c6d57610c6c611888565b5b604051908082528060200260200182016040528015610c9b5781602001602082028036833780820191505090505b5090505f5b610cab835f0161146e565b811015610d2757610cc781845f0161148190919063ffffffff16565b828281518110610cda57610cd9611eaf565b5b602002602001019073ffffffffffffffffffffffffffffffffffffffff16908173ffffffffffffffffffffffffffffffffffffffff16815250508080610d1f906122ad565b915050610ca0565b50604051806101200160405280828152602001836002018054610d4990611d03565b80601f0160208091040260200160405190810160405280929190818152602001828054610d7590611d03565b8015610dc05780601f10610d9757610100808354040283529160200191610dc0565b820191905f5260205f20905b815481529060010190602001808311610da357829003601f168201915b505050505081526020018360030154815260200183600401548152602001836005015481526020018360060154815260200183600701548152602001836008015f9054906101000a900460ff16151581526020018360080160019054906101000a900460ff16151581525092505050919050565b5f80610e3e610f53565b90505f610e4b8286610ed1565b905083811015610e90576040517f08c379a0000000000000000000000000000000000000000000000000000000008152600401610e8790612364565b60405180910390fd5b610e9d8286868403610f5a565b60019250505092915050565b5f80610eb3610f53565b9050610ec08185856111a8565b600191505092915050565b60055481565b5f60015f8473ffffffffffffffffffffffffffffffffffffffff1673ffffffffffffffffffffffffffffffffffffffff1681526020019081526020015f205f8373ffffffffffffffffffffffffffffffffffffffff1673ffffffffffffffffffffffffffffffffffffffff1681526020019081526020015f2054905092915050565b5f33905090565b5f73ffffffffffffffffffffffffffffffffffffffff168373ffffffffffffffffffffffffffffffffffffffff1603610fc8576040517f08c379a0000000000000000000000000000000000000000000000000000000008152600401610fbf906123f2565b60405180910390fd5b5f73ffffffffffffffffffffffffffffffffffffffff168273ffffffffffffffffffffffffffffffffffffffff1603611036576040517f08c379a000000000000000000000000000000000000000000000000000000000815260040161102d90612480565b60405180910390fd5b8060015f8573ffffffffffffffffffffffffffffffffffffffff1673ffffffffffffffffffffffffffffffffffffffff1681526020019081526020015f205f8473ffffffffffffffffffffffffffffffffffffffff1673ffffffffffffffffffffffffffffffffffffffff1681526020019081526020015f20819055508173ffffffffffffffffffffffffffffffffffffffff168373ffffffffffffffffffffffffffffffffffffffff167f8c5be1e5ebec7d5bd14f71427d1e84f3dd0314c0f7b2291e5b200ac8c7c3b9258360405161111091906117b8565b60405180910390a3505050565b5f6111288484610ed1565b90507fffffffffffffffffffffffffffffffffffffffffffffffffffffffffffffffff81146111a25781811015611194576040517f08c379a000000000000000000000000000000000000000000000000000000000815260040161118b906124e8565b60405180910390fd5b6111a18484848403610f5a565b5b50505050565b5f73ffffffffffffffffffffffffffffffffffffffff168373ffffffffffffffffffffffffffffffffffffffff1603611216576040517f08c379a000000000000000000000000000000000000000000000000000000000815260040161120d90612576565b60405180910390fd5b5f73ffffffffffffffffffffffffffffffffffffffff168273ffffffffffffffffffffffffffffffffffffffff1603611284576040517f08c379a000000000000000000000000000000000000000000000000000000000815260040161127b90612604565b60405180910390fd5b61128f838383611498565b5f805f8573ffffffffffffffffffffffffffffffffffffffff1673ffffffffffffffffffffffffffffffffffffffff1681526020019081526020015f2054905081811015611312576040517f08c379a000000000000000000000000000000000000000000000000000000000815260040161130990612692565b60405180910390fd5b8181035f808673ffffffffffffffffffffffffffffffffffffffff1673ffffffffffffffffffffffffffffffffffffffff1681526020019081526020015f2081905550815f808573ffffffffffffffffffffffffffffffffffffffff1673ffffffffffffffffffffffffffffffffffffffff1681526020019081526020015f205f82825401925050819055508273ffffffffffffffffffffffffffffffffffffffff168473ffffffffffffffffffffffffffffffffffffffff167fddf252ad1be2c89b69c2b068fc378daa952ba7f163c4a11628f55a4df523b3ef846040516113fb91906117b8565b60405180910390a361140e84848461149d565b50505050565b5f611439835f018373ffffffffffffffffffffffffffffffffffffffff165f1b6114a2565b905092915050565b5f611466835f018373ffffffffffffffffffffffffffffffffffffffff165f1b6114c2565b905092915050565b5f61147a825f01611529565b9050919050565b5f61148e835f0183611538565b5f1c905092915050565b505050565b505050565b5f80836001015f8481526020019081526020015f20541415905092915050565b5f6114cd83836114a2565b61151f57825f0182908060018154018082558091505060019003905f5260205f20015f9091909190915055825f0180549050836001015f8481526020019081526020015f208190555060019050611523565b5f90505b92915050565b5f815f01805490509050919050565b5f81835f018054905011611581576040517f08c379a000000000000000000000000000000000000000000000000000000000815260040161157890612720565b60405180910390fd5b825f01828154811061159657611595611eaf565b5b905f5260205f200154905092915050565b60405180610120016040528060608152602001606081526020015f81526020015f81526020015f81526020015f81526020015f81526020015f151581526020015f151581525090565b5f81519050919050565b5f82825260208201905092915050565b5f5b8381101561162757808201518184015260208101905061160c565b5f8484015250505050565b5f601f19601f8301169050919050565b5f61164c826115f0565b61165681856115fa565b935061166681856020860161160a565b61166f81611632565b840191505092915050565b5f6020820190508181035f8301526116928184611642565b905092915050565b5f604051905090565b5f80fd5b5f80fd5b5f73ffffffffffffffffffffffffffffffffffffffff82169050919050565b5f6116d4826116ab565b9050919050565b6116e4816116ca565b81146116ee575f80fd5b50565b5f813590506116ff816116db565b92915050565b5f819050919050565b61171781611705565b8114611721575f80fd5b50565b5f813590506117328161170e565b92915050565b5f806040838503121561174e5761174d6116a3565b5b5f61175b858286016116f1565b925050602061176c85828601611724565b9150509250929050565b5f8115159050919050565b61178a81611776565b82525050565b5f6020820190506117a35f830184611781565b92915050565b6117b281611705565b82525050565b5f6020820190506117cb5f8301846117a9565b92915050565b5f805f606084860312156117e8576117e76116a3565b5b5f6117f5868287016116f1565b9350506020611806868287016116f1565b925050604061181786828701611724565b9150509250925092565b5f60208284031215611836576118356116a3565b5b5f611843848285016116f1565b91505092915050565b5f60ff82169050919050565b6118618161184c565b82525050565b5f60208201905061187a5f830184611858565b92915050565b5f80fd5b5f80fd5b7f4e487b71000000000000000000000000000000000000000000000000000000005f52604160045260245ffd5b6118be82611632565b810181811067ffffffffffffffff821117156118dd576118dc611888565b5b80604052505050565b5f6118ef61169a565b90506118fb82826118b5565b919050565b5f67ffffffffffffffff82111561191a57611919611888565b5b61192382611632565b9050602081019050919050565b828183375f83830152505050565b5f61195061194b84611900565b6118e6565b90508281526020810184848401111561196c5761196b611884565b5b611977848285611930565b509392505050565b5f82601f83011261199357611992611880565b5b81356119a384826020860161193e565b91505092915050565b5f80604083850312156119c2576119c16116a3565b5b5f83013567ffffffffffffffff8111156119df576119de6116a7565b5b6119eb8582860161197f565b92505060206119fc85828601611724565b9150509250929050565b60038110611a12575f80fd5b50565b5f81359050611a2381611a06565b92915050565b5f8060408385031215611a3f57611a3e6116a3565b5b5f611a4c85828601611724565b9250506020611a5d85828601611a15565b9150509250929050565b5f60208284031215611a7c57611a7b6116a3565b5b5f611a8984828501611724565b91505092915050565b5f81519050919050565b5f82825260208201905092915050565b5f819050602082019050919050565b611ac4816116ca565b82525050565b5f611ad58383611abb565b60208301905092915050565b5f602082019050919050565b5f611af782611a92565b611b018185611a9c565b9350611b0c83611aac565b805f5b83811015611b3c578151611b238882611aca565b9750611b2e83611ae1565b925050600181019050611b0f565b5085935050505092915050565b5f82825260208201905092915050565b5f611b63826115f0565b611b6d8185611b49565b9350611b7d81856020860161160a565b611b8681611632565b840191505092915050565b611b9a81611705565b82525050565b611ba981611776565b82525050565b5f61012083015f8301518482035f860152611bca8282611aed565b91505060208301518482036020860152611be48282611b59565b9150506040830151611bf96040860182611b91565b506060830151611c0c6060860182611b91565b506080830151611c1f6080860182611b91565b5060a0830151611c3260a0860182611b91565b5060c0830151611c4560c0860182611b91565b5060e0830151611c5860e0860182611ba0565b50610100830151611c6d610100860182611ba0565b508091505092915050565b5f6020820190508181035f830152611c908184611baf565b905092915050565b5f8060408385031215611cae57611cad6116a3565b5b5f611cbb858286016116f1565b9250506020611ccc858286016116f1565b9150509250929050565b7f4e487b71000000000000000000000000000000000000000000000000000000005f52602260045260245ffd5b5f6002820490506001821680611d1a57607f821691505b602082108103611d2d57611d2c611cd6565b5b50919050565b7f4e487b71000000000000000000000000000000000000000000000000000000005f52601160045260245ffd5b5f611d6a82611705565b9150611d7583611705565b9250828201905080821115611d8d57611d8c611d33565b5b92915050565b7f4f6e6c7920746f6b656e20686f6c646572732063616e206372656174652069735f8201527f7375657300000000000000000000000000000000000000000000000000000000602082015250565b5f611ded6024836115fa565b9150611df882611d93565b604082019050919050565b5f6020820190508181035f830152611e1a81611de1565b9050919050565b7f51756f72756d2063616e6e6f742062652067726561746572207468616e2074685f8201527f6520746f74616c206e756d626572206f6620746f6b656e730000000000000000602082015250565b5f611e7b6038836115fa565b9150611e8682611e21565b604082019050919050565b5f6020820190508181035f830152611ea881611e6f565b9050919050565b7f4e487b71000000000000000000000000000000000000000000000000000000005f52603260045260245ffd5b5f819050815f5260205f209050919050565b5f6020601f8301049050919050565b5f82821b905092915050565b5f60088302611f387fffffffffffffffffffffffffffffffffffffffffffffffffffffffffffffffff82611efd565b611f428683611efd565b95508019841693508086168417925050509392505050565b5f819050919050565b5f611f7d611f78611f7384611705565b611f5a565b611705565b9050919050565b5f819050919050565b611f9683611f63565b611faa611fa282611f84565b848454611f09565b825550505050565b5f90565b611fbe611fb2565b611fc9818484611f8d565b505050565b5b81811015611fec57611fe15f82611fb6565b600181019050611fcf565b5050565b601f8211156120315761200281611edc565b61200b84611eee565b8101602085101561201a578190505b61202e61202685611eee565b830182611fce565b50505b505050565b5f82821c905092915050565b5f6120515f1984600802612036565b1980831691505092915050565b5f6120698383612042565b9150826002028217905092915050565b612082826115f0565b67ffffffffffffffff81111561209b5761209a611888565b5b6120a58254611d03565b6120b0828285611ff0565b5f60209050601f8311600181146120e1575f84156120cf578287015190505b6120d9858261205e565b865550612140565b601f1984166120ef86611edc565b5f5b82811015612116578489015182556001820191506020850194506020810190506120f1565b86831015612133578489015161212f601f891682612042565b8355505b6001600288020188555050505b505050505050565b7f566f74696e6720697320636c6f73656420666f722074686973206973737565005f82015250565b5f61217c601f836115fa565b915061218782612148565b602082019050919050565b5f6020820190508181035f8301526121a981612170565b9050919050565b7f416c726561647920766f746564206f6e207468697320697373756500000000005f82015250565b5f6121e4601b836115fa565b91506121ef826121b0565b602082019050919050565b5f6020820190508181035f830152612211816121d8565b9050919050565b7f4e487b71000000000000000000000000000000000000000000000000000000005f52602160045260245ffd5b7f496e76616c696420766f7465206f7074696f6e000000000000000000000000005f82015250565b5f6122796013836115fa565b915061228482612245565b602082019050919050565b5f6020820190508181035f8301526122a68161226d565b9050919050565b5f6122b782611705565b91507fffffffffffffffffffffffffffffffffffffffffffffffffffffffffffffffff82036122e9576122e8611d33565b5b600182019050919050565b7f45524332303a2064656372656173656420616c6c6f77616e63652062656c6f775f8201527f207a65726f000000000000000000000000000000000000000000000000000000602082015250565b5f61234e6025836115fa565b9150612359826122f4565b604082019050919050565b5f6020820190508181035f83015261237b81612342565b9050919050565b7f45524332303a20617070726f76652066726f6d20746865207a65726f206164645f8201527f7265737300000000000000000000000000000000000000000000000000000000602082015250565b5f6123dc6024836115fa565b91506123e782612382565b604082019050919050565b5f6020820190508181035f830152612409816123d0565b9050919050565b7f45524332303a20617070726f766520746f20746865207a65726f2061646472655f8201527f7373000000000000000000000000000000000000000000000000000000000000602082015250565b5f61246a6022836115fa565b915061247582612410565b604082019050919050565b5f6020820190508181035f8301526124978161245e565b9050919050565b7f45524332303a20696e73756666696369656e7420616c6c6f77616e63650000005f82015250565b5f6124d2601d836115fa565b91506124dd8261249e565b602082019050919050565b5f6020820190508181035f8301526124ff816124c6565b9050919050565b7f45524332303a207472616e736665722066726f6d20746865207a65726f2061645f8201527f6472657373000000000000000000000000000000000000000000000000000000602082015250565b5f6125606025836115fa565b915061256b82612506565b604082019050919050565b5f6020820190508181035f83015261258d81612554565b9050919050565b7f45524332303a207472616e7366657220746f20746865207a65726f20616464725f8201527f6573730000000000000000000000000000000000000000000000000000000000602082015250565b5f6125ee6023836115fa565b91506125f982612594565b604082019050919050565b5f6020820190508181035f83015261261b816125e2565b9050919050565b7f45524332303a207472616e7366657220616d6f756e74206578636565647320625f8201527f616c616e63650000000000000000000000000000000000000000000000000000602082015250565b5f61267c6026836115fa565b915061268782612622565b604082019050919050565b5f6020820190508181035f8301526126a981612670565b9050919050565b7f456e756d657261626c655365743a20696e646578206f7574206f6620626f756e5f8201527f6473000000000000000000000000000000000000000000000000000000000000602082015250565b5f61270a6022836115fa565b9150612715826126b0565b604082019050919050565b5f6020820190508181035f830152612737816126fe565b905091905056fea2646970667358221220b50670bb34a2a3d22a5d0d40ec0b8cfaa0f323ab4ff0b413306a9799f015a11764736f6c63430008140033",
					"opcodes": "PUSH1 0x80 PUSH1 0x40 MSTORE CALLVALUE DUP1 ISZERO PUSH3 0x10 JUMPI PUSH0 DUP1 REVERT JUMPDEST POP PUSH1 0x40 MLOAD PUSH3 0x2D39 CODESIZE SUB DUP1 PUSH3 0x2D39 DUP4 CODECOPY DUP2 DUP2 ADD PUSH1 0x40 MSTORE DUP2 ADD SWAP1 PUSH3 0x36 SWAP2 SWAP1 PUSH3 0x219 JUMP JUMPDEST DUP2 DUP2 DUP2 PUSH1 0x3 SWAP1 DUP2 PUSH3 0x49 SWAP2 SWAP1 PUSH3 0x4D3 JUMP JUMPDEST POP DUP1 PUSH1 0x4 SWAP1 DUP2 PUSH3 0x5B SWAP2 SWAP1 PUSH3 0x4D3 JUMP JUMPDEST POP POP POP PUSH3 0xF4240 PUSH1 0x5 DUP2 SWAP1 SSTORE POP PUSH1 0x64 PUSH1 0x6 DUP2 SWAP1 SSTORE POP PUSH1 0xA PUSH1 0x1 DUP2 PUSH1 0x1 DUP2 SLOAD ADD DUP1 DUP3 SSTORE DUP1 SWAP2 POP POP SUB SWAP1 PUSH0 MSTORE PUSH1 0x20 PUSH0 KECCAK256 SWAP1 POP POP POP POP PUSH3 0x5B7 JUMP JUMPDEST PUSH0 PUSH1 0x40 MLOAD SWAP1 POP SWAP1 JUMP JUMPDEST PUSH0 DUP1 REVERT JUMPDEST PUSH0 DUP1 REVERT JUMPDEST PUSH0 DUP1 REVERT JUMPDEST PUSH0 DUP1 REVERT JUMPDEST PUSH0 PUSH1 0x1F NOT PUSH1 0x1F DUP4 ADD AND SWAP1 POP SWAP2 SWAP1 POP JUMP JUMPDEST PUSH32 0x4E487B7100000000000000000000000000000000000000000000000000000000 PUSH0 MSTORE PUSH1 0x41 PUSH1 0x4 MSTORE PUSH1 0x24 PUSH0 REVERT JUMPDEST PUSH3 0xF5 DUP3 PUSH3 0xAD JUMP JUMPDEST DUP2 ADD DUP2 DUP2 LT PUSH8 0xFFFFFFFFFFFFFFFF DUP3 GT OR ISZERO PUSH3 0x117 JUMPI PUSH3 0x116 PUSH3 0xBD JUMP JUMPDEST JUMPDEST DUP1 PUSH1 0x40 MSTORE POP POP POP JUMP JUMPDEST PUSH0 PUSH3 0x12B PUSH3 0x94 JUMP JUMPDEST SWAP1 POP PUSH3 0x139 DUP3 DUP3 PUSH3 0xEA JUMP JUMPDEST SWAP2 SWAP1 POP JUMP JUMPDEST PUSH0 PUSH8 0xFFFFFFFFFFFFFFFF DUP3 GT ISZERO PUSH3 0x15B JUMPI PUSH3 0x15A PUSH3 0xBD JUMP JUMPDEST JUMPDEST PUSH3 0x166 DUP3 PUSH3 0xAD JUMP JUMPDEST SWAP1 POP PUSH1 0x20 DUP2 ADD SWAP1 POP SWAP2 SWAP1 POP JUMP JUMPDEST PUSH0 JUMPDEST DUP4 DUP2 LT ISZERO PUSH3 0x192 JUMPI DUP1 DUP3 ADD MLOAD DUP2 DUP5 ADD MSTORE PUSH1 0x20 DUP2 ADD SWAP1 POP PUSH3 0x175 JUMP JUMPDEST PUSH0 DUP5 DUP5 ADD MSTORE POP POP POP POP JUMP JUMPDEST PUSH0 PUSH3 0x1B3 PUSH3 0x1AD DUP5 PUSH3 0x13E JUMP JUMPDEST PUSH3 0x120 JUMP JUMPDEST SWAP1 POP DUP3 DUP2 MSTORE PUSH1 0x20 DUP2 ADD DUP5 DUP5 DUP5 ADD GT ISZERO PUSH3 0x1D2 JUMPI PUSH3 0x1D1 PUSH3 0xA9 JUMP JUMPDEST JUMPDEST PUSH3 0x1DF DUP5 DUP3 DUP6 PUSH3 0x173 JUMP JUMPDEST POP SWAP4 SWAP3 POP POP POP JUMP JUMPDEST PUSH0 DUP3 PUSH1 0x1F DUP4 ADD SLT PUSH3 0x1FE JUMPI PUSH3 0x1FD PUSH3 0xA5 JUMP JUMPDEST JUMPDEST DUP2 MLOAD PUSH3 0x210 DUP5 DUP3 PUSH1 0x20 DUP7 ADD PUSH3 0x19D JUMP JUMPDEST SWAP2 POP POP SWAP3 SWAP2 POP POP JUMP JUMPDEST PUSH0 DUP1 PUSH1 0x40 DUP4 DUP6 SUB SLT ISZERO PUSH3 0x232 JUMPI PUSH3 0x231 PUSH3 0x9D JUMP JUMPDEST JUMPDEST PUSH0 DUP4 ADD MLOAD PUSH8 0xFFFFFFFFFFFFFFFF DUP2 GT ISZERO PUSH3 0x252 JUMPI PUSH3 0x251 PUSH3 0xA1 JUMP JUMPDEST JUMPDEST PUSH3 0x260 DUP6 DUP3 DUP7 ADD PUSH3 0x1E7 JUMP JUMPDEST SWAP3 POP POP PUSH1 0x20 DUP4 ADD MLOAD PUSH8 0xFFFFFFFFFFFFFFFF DUP2 GT ISZERO PUSH3 0x284 JUMPI PUSH3 0x283 PUSH3 0xA1 JUMP JUMPDEST JUMPDEST PUSH3 0x292 DUP6 DUP3 DUP7 ADD PUSH3 0x1E7 JUMP JUMPDEST SWAP2 POP POP SWAP3 POP SWAP3 SWAP1 POP JUMP JUMPDEST PUSH0 DUP2 MLOAD SWAP1 POP SWAP2 SWAP1 POP JUMP JUMPDEST PUSH32 0x4E487B7100000000000000000000000000000000000000000000000000000000 PUSH0 MSTORE PUSH1 0x22 PUSH1 0x4 MSTORE PUSH1 0x24 PUSH0 REVERT JUMPDEST PUSH0 PUSH1 0x2 DUP3 DIV SWAP1 POP PUSH1 0x1 DUP3 AND DUP1 PUSH3 0x2EB JUMPI PUSH1 0x7F DUP3 AND SWAP2 POP JUMPDEST PUSH1 0x20 DUP3 LT DUP2 SUB PUSH3 0x301 JUMPI PUSH3 0x300 PUSH3 0x2A6 JUMP JUMPDEST JUMPDEST POP SWAP2 SWAP1 POP JUMP JUMPDEST PUSH0 DUP2 SWAP1 POP DUP2 PUSH0 MSTORE PUSH1 0x20 PUSH0 KECCAK256 SWAP1 POP SWAP2 SWAP1 POP JUMP JUMPDEST PUSH0 PUSH1 0x20 PUSH1 0x1F DUP4 ADD DIV SWAP1 POP SWAP2 SWAP1 POP JUMP JUMPDEST PUSH0 DUP3 DUP3 SHL SWAP1 POP SWAP3 SWAP2 POP POP JUMP JUMPDEST PUSH0 PUSH1 0x8 DUP4 MUL PUSH3 0x365 PUSH32 0xFFFFFFFFFFFFFFFFFFFFFFFFFFFFFFFFFFFFFFFFFFFFFFFFFFFFFFFFFFFFFFFF DUP3 PUSH3 0x328 JUMP JUMPDEST PUSH3 0x371 DUP7 DUP4 PUSH3 0x328 JUMP JUMPDEST SWAP6 POP DUP1 NOT DUP5 AND SWAP4 POP DUP1 DUP7 AND DUP5 OR SWAP3 POP POP POP SWAP4 SWAP3 POP POP POP JUMP JUMPDEST PUSH0 DUP2 SWAP1 POP SWAP2 SWAP1 POP JUMP JUMPDEST PUSH0 DUP2 SWAP1 POP SWAP2 SWAP1 POP JUMP JUMPDEST PUSH0 PUSH3 0x3BB PUSH3 0x3B5 PUSH3 0x3AF DUP5 PUSH3 0x389 JUMP JUMPDEST PUSH3 0x392 JUMP JUMPDEST PUSH3 0x389 JUMP JUMPDEST SWAP1 POP SWAP2 SWAP1 POP JUMP JUMPDEST PUSH0 DUP2 SWAP1 POP SWAP2 SWAP1 POP JUMP JUMPDEST PUSH3 0x3D6 DUP4 PUSH3 0x39B JUMP JUMPDEST PUSH3 0x3EE PUSH3 0x3E5 DUP3 PUSH3 0x3C2 JUMP JUMPDEST DUP5 DUP5 SLOAD PUSH3 0x334 JUMP JUMPDEST DUP3 SSTORE POP POP POP POP JUMP JUMPDEST PUSH0 SWAP1 JUMP JUMPDEST PUSH3 0x404 PUSH3 0x3F6 JUMP JUMPDEST PUSH3 0x411 DUP2 DUP5 DUP5 PUSH3 0x3CB JUMP JUMPDEST POP POP POP JUMP JUMPDEST JUMPDEST DUP2 DUP2 LT ISZERO PUSH3 0x438 JUMPI PUSH3 0x42C PUSH0 DUP3 PUSH3 0x3FA JUMP JUMPDEST PUSH1 0x1 DUP2 ADD SWAP1 POP PUSH3 0x417 JUMP JUMPDEST POP POP JUMP JUMPDEST PUSH1 0x1F DUP3 GT ISZERO PUSH3 0x487 JUMPI PUSH3 0x451 DUP2 PUSH3 0x307 JUMP JUMPDEST PUSH3 0x45C DUP5 PUSH3 0x319 JUMP JUMPDEST DUP2 ADD PUSH1 0x20 DUP6 LT ISZERO PUSH3 0x46C JUMPI DUP2 SWAP1 POP JUMPDEST PUSH3 0x484 PUSH3 0x47B DUP6 PUSH3 0x319 JUMP JUMPDEST DUP4 ADD DUP3 PUSH3 0x416 JUMP JUMPDEST POP POP JUMPDEST POP POP POP JUMP JUMPDEST PUSH0 DUP3 DUP3 SHR SWAP1 POP SWAP3 SWAP2 POP POP JUMP JUMPDEST PUSH0 PUSH3 0x4A9 PUSH0 NOT DUP5 PUSH1 0x8 MUL PUSH3 0x48C JUMP JUMPDEST NOT DUP1 DUP4 AND SWAP2 POP POP SWAP3 SWAP2 POP POP JUMP JUMPDEST PUSH0 PUSH3 0x4C3 DUP4 DUP4 PUSH3 0x498 JUMP JUMPDEST SWAP2 POP DUP3 PUSH1 0x2 MUL DUP3 OR SWAP1 POP SWAP3 SWAP2 POP POP JUMP JUMPDEST PUSH3 0x4DE DUP3 PUSH3 0x29C JUMP JUMPDEST PUSH8 0xFFFFFFFFFFFFFFFF DUP2 GT ISZERO PUSH3 0x4FA JUMPI PUSH3 0x4F9 PUSH3 0xBD JUMP JUMPDEST JUMPDEST PUSH3 0x506 DUP3 SLOAD PUSH3 0x2D3 JUMP JUMPDEST PUSH3 0x513 DUP3 DUP3 DUP6 PUSH3 0x43C JUMP JUMPDEST PUSH0 PUSH1 0x20 SWAP1 POP PUSH1 0x1F DUP4 GT PUSH1 0x1 DUP2 EQ PUSH3 0x549 JUMPI PUSH0 DUP5 ISZERO PUSH3 0x534 JUMPI DUP3 DUP8 ADD MLOAD SWAP1 POP JUMPDEST PUSH3 0x540 DUP6 DUP3 PUSH3 0x4B6 JUMP JUMPDEST DUP7 SSTORE POP PUSH3 0x5AF JUMP JUMPDEST PUSH1 0x1F NOT DUP5 AND PUSH3 0x559 DUP7 PUSH3 0x307 JUMP JUMPDEST PUSH0 JUMPDEST DUP3 DUP2 LT ISZERO PUSH3 0x582 JUMPI DUP5 DUP10 ADD MLOAD DUP3 SSTORE PUSH1 0x1 DUP3 ADD SWAP2 POP PUSH1 0x20 DUP6 ADD SWAP5 POP PUSH1 0x20 DUP2 ADD SWAP1 POP PUSH3 0x55B JUMP JUMPDEST DUP7 DUP4 LT ISZERO PUSH3 0x5A2 JUMPI DUP5 DUP10 ADD MLOAD PUSH3 0x59E PUSH1 0x1F DUP10 AND DUP3 PUSH3 0x498 JUMP JUMPDEST DUP4 SSTORE POP JUMPDEST PUSH1 0x1 PUSH1 0x2 DUP9 MUL ADD DUP9 SSTORE POP POP POP JUMPDEST POP POP POP POP POP POP JUMP JUMPDEST PUSH2 0x2774 DUP1 PUSH3 0x5C5 PUSH0 CODECOPY PUSH0 RETURN INVALID PUSH1 0x80 PUSH1 0x40 MSTORE CALLVALUE DUP1 ISZERO PUSH2 0xF JUMPI PUSH0 DUP1 REVERT JUMPDEST POP PUSH1 0x4 CALLDATASIZE LT PUSH2 0x12A JUMPI PUSH0 CALLDATALOAD PUSH1 0xE0 SHR DUP1 PUSH4 0x830953AB GT PUSH2 0xAB JUMPI DUP1 PUSH4 0x976B3113 GT PUSH2 0x6F JUMPI DUP1 PUSH4 0x976B3113 EQ PUSH2 0x358 JUMPI DUP1 PUSH4 0xA457C2D7 EQ PUSH2 0x388 JUMPI DUP1 PUSH4 0xA9059CBB EQ PUSH2 0x3B8 JUMPI DUP1 PUSH4 0xD5ABEB01 EQ PUSH2 0x3E8 JUMPI DUP1 PUSH4 0xDD62ED3E EQ PUSH2 0x406 JUMPI PUSH2 0x12A JUMP JUMPDEST DUP1 PUSH4 0x830953AB EQ PUSH2 0x2B2 JUMPI DUP1 PUSH4 0x8615D855 EQ PUSH2 0x2D0 JUMPI DUP1 PUSH4 0x943E8216 EQ PUSH2 0x300 JUMPI DUP1 PUSH4 0x95D89B41 EQ PUSH2 0x31C JUMPI DUP1 PUSH4 0x9668CEB8 EQ PUSH2 0x33A JUMPI PUSH2 0x12A JUMP JUMPDEST DUP1 PUSH4 0x313CE567 GT PUSH2 0xF2 JUMPI DUP1 PUSH4 0x313CE567 EQ PUSH2 0x1FA JUMPI DUP1 PUSH4 0x39509351 EQ PUSH2 0x218 JUMPI DUP1 PUSH4 0x4E71D92D EQ PUSH2 0x248 JUMPI DUP1 PUSH4 0x70A08231 EQ PUSH2 0x252 JUMPI DUP1 PUSH4 0x73B2E80E EQ PUSH2 0x282 JUMPI PUSH2 0x12A JUMP JUMPDEST DUP1 PUSH4 0x6FDDE03 EQ PUSH2 0x12E JUMPI DUP1 PUSH4 0x95EA7B3 EQ PUSH2 0x14C JUMPI DUP1 PUSH4 0x18160DDD EQ PUSH2 0x17C JUMPI DUP1 PUSH4 0x23B872DD EQ PUSH2 0x19A JUMPI DUP1 PUSH4 0x27E235E3 EQ PUSH2 0x1CA JUMPI JUMPDEST PUSH0 DUP1 REVERT JUMPDEST PUSH2 0x136 PUSH2 0x436 JUMP JUMPDEST PUSH1 0x40 MLOAD PUSH2 0x143 SWAP2 SWAP1 PUSH2 0x167A JUMP JUMPDEST PUSH1 0x40 MLOAD DUP1 SWAP2 SUB SWAP1 RETURN JUMPDEST PUSH2 0x166 PUSH1 0x4 DUP1 CALLDATASIZE SUB DUP2 ADD SWAP1 PUSH2 0x161 SWAP2 SWAP1 PUSH2 0x1738 JUMP JUMPDEST PUSH2 0x4C6 JUMP JUMPDEST PUSH1 0x40 MLOAD PUSH2 0x173 SWAP2 SWAP1 PUSH2 0x1790 JUMP JUMPDEST PUSH1 0x40 MLOAD DUP1 SWAP2 SUB SWAP1 RETURN JUMPDEST PUSH2 0x184 PUSH2 0x4E8 JUMP JUMPDEST PUSH1 0x40 MLOAD PUSH2 0x191 SWAP2 SWAP1 PUSH2 0x17B8 JUMP JUMPDEST PUSH1 0x40 MLOAD DUP1 SWAP2 SUB SWAP1 RETURN JUMPDEST PUSH2 0x1B4 PUSH1 0x4 DUP1 CALLDATASIZE SUB DUP2 ADD SWAP1 PUSH2 0x1AF SWAP2 SWAP1 PUSH2 0x17D1 JUMP JUMPDEST PUSH2 0x4F1 JUMP JUMPDEST PUSH1 0x40 MLOAD PUSH2 0x1C1 SWAP2 SWAP1 PUSH2 0x1790 JUMP JUMPDEST PUSH1 0x40 MLOAD DUP1 SWAP2 SUB SWAP1 RETURN JUMPDEST PUSH2 0x1E4 PUSH1 0x4 DUP1 CALLDATASIZE SUB DUP2 ADD SWAP1 PUSH2 0x1DF SWAP2 SWAP1 PUSH2 0x1821 JUMP JUMPDEST PUSH2 0x51F JUMP JUMPDEST PUSH1 0x40 MLOAD PUSH2 0x1F1 SWAP2 SWAP1 PUSH2 0x17B8 JUMP JUMPDEST PUSH1 0x40 MLOAD DUP1 SWAP2 SUB SWAP1 RETURN JUMPDEST PUSH2 0x202 PUSH2 0x534 JUMP JUMPDEST PUSH1 0x40 MLOAD PUSH2 0x20F SWAP2 SWAP1 PUSH2 0x1867 JUMP JUMPDEST PUSH1 0x40 MLOAD DUP1 SWAP2 SUB SWAP1 RETURN JUMPDEST PUSH2 0x232 PUSH1 0x4 DUP1 CALLDATASIZE SUB DUP2 ADD SWAP1 PUSH2 0x22D SWAP2 SWAP1 PUSH2 0x1738 JUMP JUMPDEST PUSH2 0x53C JUMP JUMPDEST PUSH1 0x40 MLOAD PUSH2 0x23F SWAP2 SWAP1 PUSH2 0x1790 JUMP JUMPDEST PUSH1 0x40 MLOAD DUP1 SWAP2 SUB SWAP1 RETURN JUMPDEST PUSH2 0x250 PUSH2 0x572 JUMP JUMPDEST STOP JUMPDEST PUSH2 0x26C PUSH1 0x4 DUP1 CALLDATASIZE SUB DUP2 ADD SWAP1 PUSH2 0x267 SWAP2 SWAP1 PUSH2 0x1821 JUMP JUMPDEST PUSH2 0x6F7 JUMP JUMPDEST PUSH1 0x40 MLOAD PUSH2 0x279 SWAP2 SWAP1 PUSH2 0x17B8 JUMP JUMPDEST PUSH1 0x40 MLOAD DUP1 SWAP2 SUB SWAP1 RETURN JUMPDEST PUSH2 0x29C PUSH1 0x4 DUP1 CALLDATASIZE SUB DUP2 ADD SWAP1 PUSH2 0x297 SWAP2 SWAP1 PUSH2 0x1821 JUMP JUMPDEST PUSH2 0x73C JUMP JUMPDEST PUSH1 0x40 MLOAD PUSH2 0x2A9 SWAP2 SWAP1 PUSH2 0x1790 JUMP JUMPDEST PUSH1 0x40 MLOAD DUP1 SWAP2 SUB SWAP1 RETURN JUMPDEST PUSH2 0x2BA PUSH2 0x759 JUMP JUMPDEST PUSH1 0x40 MLOAD PUSH2 0x2C7 SWAP2 SWAP1 PUSH2 0x17B8 JUMP JUMPDEST PUSH1 0x40 MLOAD DUP1 SWAP2 SUB SWAP1 RETURN JUMPDEST PUSH2 0x2EA PUSH1 0x4 DUP1 CALLDATASIZE SUB DUP2 ADD SWAP1 PUSH2 0x2E5 SWAP2 SWAP1 PUSH2 0x19AC JUMP JUMPDEST PUSH2 0x75F JUMP JUMPDEST PUSH1 0x40 MLOAD PUSH2 0x2F7 SWAP2 SWAP1 PUSH2 0x17B8 JUMP JUMPDEST PUSH1 0x40 MLOAD DUP1 SWAP2 SUB SWAP1 RETURN JUMPDEST PUSH2 0x31A PUSH1 0x4 DUP1 CALLDATASIZE SUB DUP2 ADD SWAP1 PUSH2 0x315 SWAP2 SWAP1 PUSH2 0x1A29 JUMP JUMPDEST PUSH2 0x892 JUMP JUMPDEST STOP JUMPDEST PUSH2 0x324 PUSH2 0xB87 JUMP JUMPDEST PUSH1 0x40 MLOAD PUSH2 0x331 SWAP2 SWAP1 PUSH2 0x167A JUMP JUMPDEST PUSH1 0x40 MLOAD DUP1 SWAP2 SUB SWAP1 RETURN JUMPDEST PUSH2 0x342 PUSH2 0xC17 JUMP JUMPDEST PUSH1 0x40 MLOAD PUSH2 0x34F SWAP2 SWAP1 PUSH2 0x17B8 JUMP JUMPDEST PUSH1 0x40 MLOAD DUP1 SWAP2 SUB SWAP1 RETURN JUMPDEST PUSH2 0x372 PUSH1 0x4 DUP1 CALLDATASIZE SUB DUP2 ADD SWAP1 PUSH2 0x36D SWAP2 SWAP1 PUSH2 0x1A67 JUMP JUMPDEST PUSH2 0xC1D JUMP JUMPDEST PUSH1 0x40 MLOAD PUSH2 0x37F SWAP2 SWAP1 PUSH2 0x1C78 JUMP JUMPDEST PUSH1 0x40 MLOAD DUP1 SWAP2 SUB SWAP1 RETURN JUMPDEST PUSH2 0x3A2 PUSH1 0x4 DUP1 CALLDATASIZE SUB DUP2 ADD SWAP1 PUSH2 0x39D SWAP2 SWAP1 PUSH2 0x1738 JUMP JUMPDEST PUSH2 0xE34 JUMP JUMPDEST PUSH1 0x40 MLOAD PUSH2 0x3AF SWAP2 SWAP1 PUSH2 0x1790 JUMP JUMPDEST PUSH1 0x40 MLOAD DUP1 SWAP2 SUB SWAP1 RETURN JUMPDEST PUSH2 0x3D2 PUSH1 0x4 DUP1 CALLDATASIZE SUB DUP2 ADD SWAP1 PUSH2 0x3CD SWAP2 SWAP1 PUSH2 0x1738 JUMP JUMPDEST PUSH2 0xEA9 JUMP JUMPDEST PUSH1 0x40 MLOAD PUSH2 0x3DF SWAP2 SWAP1 PUSH2 0x1790 JUMP JUMPDEST PUSH1 0x40 MLOAD DUP1 SWAP2 SUB SWAP1 RETURN JUMPDEST PUSH2 0x3F0 PUSH2 0xECB JUMP JUMPDEST PUSH1 0x40 MLOAD PUSH2 0x3FD SWAP2 SWAP1 PUSH2 0x17B8 JUMP JUMPDEST PUSH1 0x40 MLOAD DUP1 SWAP2 SUB SWAP1 RETURN JUMPDEST PUSH2 0x420 PUSH1 0x4 DUP1 CALLDATASIZE SUB DUP2 ADD SWAP1 PUSH2 0x41B SWAP2 SWAP1 PUSH2 0x1C98 JUMP JUMPDEST PUSH2 0xED1 JUMP JUMPDEST PUSH1 0x40 MLOAD PUSH2 0x42D SWAP2 SWAP1 PUSH2 0x17B8 JUMP JUMPDEST PUSH1 0x40 MLOAD DUP1 SWAP2 SUB SWAP1 RETURN JUMPDEST PUSH1 0x60 PUSH1 0x3 DUP1 SLOAD PUSH2 0x445 SWAP1 PUSH2 0x1D03 JUMP JUMPDEST DUP1 PUSH1 0x1F ADD PUSH1 0x20 DUP1 SWAP2 DIV MUL PUSH1 0x20 ADD PUSH1 0x40 MLOAD SWAP1 DUP2 ADD PUSH1 0x40 MSTORE DUP1 SWAP3 SWAP2 SWAP1 DUP2 DUP2 MSTORE PUSH1 0x20 ADD DUP3 DUP1 SLOAD PUSH2 0x471 SWAP1 PUSH2 0x1D03 JUMP JUMPDEST DUP1 ISZERO PUSH2 0x4BC JUMPI DUP1 PUSH1 0x1F LT PUSH2 0x493 JUMPI PUSH2 0x100 DUP1 DUP4 SLOAD DIV MUL DUP4 MSTORE SWAP2 PUSH1 0x20 ADD SWAP2 PUSH2 0x4BC JUMP JUMPDEST DUP3 ADD SWAP2 SWAP1 PUSH0 MSTORE PUSH1 0x20 PUSH0 KECCAK256 SWAP1 JUMPDEST DUP2 SLOAD DUP2 MSTORE SWAP1 PUSH1 0x1 ADD SWAP1 PUSH1 0x20 ADD DUP1 DUP4 GT PUSH2 0x49F JUMPI DUP3 SWAP1 SUB PUSH1 0x1F AND DUP3 ADD SWAP2 JUMPDEST POP POP POP POP POP SWAP1 POP SWAP1 JUMP JUMPDEST PUSH0 DUP1 PUSH2 0x4D0 PUSH2 0xF53 JUMP JUMPDEST SWAP1 POP PUSH2 0x4DD DUP2 DUP6 DUP6 PUSH2 0xF5A JUMP JUMPDEST PUSH1 0x1 SWAP2 POP POP SWAP3 SWAP2 POP POP JUMP JUMPDEST PUSH0 PUSH1 0x2 SLOAD SWAP1 POP SWAP1 JUMP JUMPDEST PUSH0 DUP1 PUSH2 0x4FB PUSH2 0xF53 JUMP JUMPDEST SWAP1 POP PUSH2 0x508 DUP6 DUP3 DUP6 PUSH2 0x111D JUMP JUMPDEST PUSH2 0x513 DUP6 DUP6 DUP6 PUSH2 0x11A8 JUMP JUMPDEST PUSH1 0x1 SWAP2 POP POP SWAP4 SWAP3 POP POP POP JUMP JUMPDEST PUSH1 0x8 PUSH1 0x20 MSTORE DUP1 PUSH0 MSTORE PUSH1 0x40 PUSH0 KECCAK256 PUSH0 SWAP2 POP SWAP1 POP SLOAD DUP2 JUMP JUMPDEST PUSH0 PUSH1 0x12 SWAP1 POP SWAP1 JUMP JUMPDEST PUSH0 DUP1 PUSH2 0x546 PUSH2 0xF53 JUMP JUMPDEST SWAP1 POP PUSH2 0x567 DUP2 DUP6 DUP6 PUSH2 0x558 DUP6 DUP10 PUSH2 0xED1 JUMP JUMPDEST PUSH2 0x562 SWAP2 SWAP1 PUSH2 0x1D60 JUMP JUMPDEST PUSH2 0xF5A JUMP JUMPDEST PUSH1 0x1 SWAP2 POP POP SWAP3 SWAP2 POP POP JUMP JUMPDEST PUSH1 0x5 SLOAD PUSH1 0x7 SLOAD GT ISZERO PUSH2 0x5B0 JUMPI PUSH1 0x40 MLOAD PUSH32 0xCBE2483100000000000000000000000000000000000000000000000000000000 DUP2 MSTORE PUSH1 0x4 ADD PUSH1 0x40 MLOAD DUP1 SWAP2 SUB SWAP1 REVERT JUMPDEST PUSH1 0x9 PUSH0 CALLER PUSH20 0xFFFFFFFFFFFFFFFFFFFFFFFFFFFFFFFFFFFFFFFF AND PUSH20 0xFFFFFFFFFFFFFFFFFFFFFFFFFFFFFFFFFFFFFFFF AND DUP2 MSTORE PUSH1 0x20 ADD SWAP1 DUP2 MSTORE PUSH1 0x20 ADD PUSH0 KECCAK256 PUSH0 SWAP1 SLOAD SWAP1 PUSH2 0x100 EXP SWAP1 DIV PUSH1 0xFF AND ISZERO PUSH2 0x631 JUMPI PUSH1 0x40 MLOAD PUSH32 0xB1327A600000000000000000000000000000000000000000000000000000000 DUP2 MSTORE PUSH1 0x4 ADD PUSH1 0x40 MLOAD DUP1 SWAP2 SUB SWAP1 REVERT JUMPDEST PUSH1 0x6 SLOAD PUSH1 0x8 PUSH0 CALLER PUSH20 0xFFFFFFFFFFFFFFFFFFFFFFFFFFFFFFFFFFFFFFFF AND PUSH20 0xFFFFFFFFFFFFFFFFFFFFFFFFFFFFFFFFFFFFFFFF AND DUP2 MSTORE PUSH1 0x20 ADD SWAP1 DUP2 MSTORE PUSH1 0x20 ADD PUSH0 KECCAK256 PUSH0 DUP3 DUP3 SLOAD PUSH2 0x67F SWAP2 SWAP1 PUSH2 0x1D60 JUMP JUMPDEST SWAP3 POP POP DUP2 SWAP1 SSTORE POP PUSH1 0x6 SLOAD PUSH1 0x7 PUSH0 DUP3 DUP3 SLOAD PUSH2 0x699 SWAP2 SWAP1 PUSH2 0x1D60 JUMP JUMPDEST SWAP3 POP POP DUP2 SWAP1 SSTORE POP PUSH1 0x1 PUSH1 0x9 PUSH0 CALLER PUSH20 0xFFFFFFFFFFFFFFFFFFFFFFFFFFFFFFFFFFFFFFFF AND PUSH20 0xFFFFFFFFFFFFFFFFFFFFFFFFFFFFFFFFFFFFFFFF AND DUP2 MSTORE PUSH1 0x20 ADD SWAP1 DUP2 MSTORE PUSH1 0x20 ADD PUSH0 KECCAK256 PUSH0 PUSH2 0x100 EXP DUP2 SLOAD DUP2 PUSH1 0xFF MUL NOT AND SWAP1 DUP4 ISZERO ISZERO MUL OR SWAP1 SSTORE POP JUMP JUMPDEST PUSH0 DUP1 PUSH0 DUP4 PUSH20 0xFFFFFFFFFFFFFFFFFFFFFFFFFFFFFFFFFFFFFFFF AND PUSH20 0xFFFFFFFFFFFFFFFFFFFFFFFFFFFFFFFFFFFFFFFF AND DUP2 MSTORE PUSH1 0x20 ADD SWAP1 DUP2 MSTORE PUSH1 0x20 ADD PUSH0 KECCAK256 SLOAD SWAP1 POP SWAP2 SWAP1 POP JUMP JUMPDEST PUSH1 0x9 PUSH1 0x20 MSTORE DUP1 PUSH0 MSTORE PUSH1 0x40 PUSH0 KECCAK256 PUSH0 SWAP2 POP SLOAD SWAP1 PUSH2 0x100 EXP SWAP1 DIV PUSH1 0xFF AND DUP2 JUMP JUMPDEST PUSH1 0x6 SLOAD DUP2 JUMP JUMPDEST PUSH0 DUP1 PUSH1 0x8 PUSH0 CALLER PUSH20 0xFFFFFFFFFFFFFFFFFFFFFFFFFFFFFFFFFFFFFFFF AND PUSH20 0xFFFFFFFFFFFFFFFFFFFFFFFFFFFFFFFFFFFFFFFF AND DUP2 MSTORE PUSH1 0x20 ADD SWAP1 DUP2 MSTORE PUSH1 0x20 ADD PUSH0 KECCAK256 SLOAD GT PUSH2 0x7DF JUMPI PUSH1 0x40 MLOAD PUSH32 0x8C379A000000000000000000000000000000000000000000000000000000000 DUP2 MSTORE PUSH1 0x4 ADD PUSH2 0x7D6 SWAP1 PUSH2 0x1E03 JUMP JUMPDEST PUSH1 0x40 MLOAD DUP1 SWAP2 SUB SWAP1 REVERT JUMPDEST PUSH2 0x7E7 PUSH2 0x4E8 JUMP JUMPDEST DUP3 GT ISZERO PUSH2 0x829 JUMPI PUSH1 0x40 MLOAD PUSH32 0x8C379A000000000000000000000000000000000000000000000000000000000 DUP2 MSTORE PUSH1 0x4 ADD PUSH2 0x820 SWAP1 PUSH2 0x1E91 JUMP JUMPDEST PUSH1 0x40 MLOAD DUP1 SWAP2 SUB SWAP1 REVERT JUMPDEST PUSH1 0xA DUP1 SLOAD SWAP1 POP SWAP1 POP PUSH1 0xA PUSH1 0x1 DUP2 PUSH1 0x1 DUP2 SLOAD ADD DUP1 DUP3 SSTORE DUP1 SWAP2 POP POP SUB SWAP1 PUSH0 MSTORE PUSH1 0x20 PUSH0 KECCAK256 SWAP1 POP POP PUSH0 PUSH1 0xA DUP3 DUP2 SLOAD DUP2 LT PUSH2 0x862 JUMPI PUSH2 0x861 PUSH2 0x1EAF JUMP JUMPDEST JUMPDEST SWAP1 PUSH0 MSTORE PUSH1 0x20 PUSH0 KECCAK256 SWAP1 PUSH1 0x9 MUL ADD SWAP1 POP DUP4 DUP2 PUSH1 0x2 ADD SWAP1 DUP2 PUSH2 0x881 SWAP2 SWAP1 PUSH2 0x2079 JUMP JUMPDEST POP DUP3 DUP2 PUSH1 0x7 ADD DUP2 SWAP1 SSTORE POP POP SWAP3 SWAP2 POP POP JUMP JUMPDEST PUSH1 0xA DUP3 DUP2 SLOAD DUP2 LT PUSH2 0x8A6 JUMPI PUSH2 0x8A5 PUSH2 0x1EAF JUMP JUMPDEST JUMPDEST SWAP1 PUSH0 MSTORE PUSH1 0x20 PUSH0 KECCAK256 SWAP1 PUSH1 0x9 MUL ADD PUSH1 0x8 ADD PUSH1 0x1 SWAP1 SLOAD SWAP1 PUSH2 0x100 EXP SWAP1 DIV PUSH1 0xFF AND ISZERO PUSH2 0x903 JUMPI PUSH1 0x40 MLOAD PUSH32 0x8C379A000000000000000000000000000000000000000000000000000000000 DUP2 MSTORE PUSH1 0x4 ADD PUSH2 0x8FA SWAP1 PUSH2 0x2192 JUMP JUMPDEST PUSH1 0x40 MLOAD DUP1 SWAP2 SUB SWAP1 REVERT JUMPDEST PUSH2 0x937 CALLER PUSH1 0xA DUP5 DUP2 SLOAD DUP2 LT PUSH2 0x91B JUMPI PUSH2 0x91A PUSH2 0x1EAF JUMP JUMPDEST JUMPDEST SWAP1 PUSH0 MSTORE PUSH1 0x20 PUSH0 KECCAK256 SWAP1 PUSH1 0x9 MUL ADD PUSH0 ADD PUSH2 0x1414 SWAP1 SWAP2 SWAP1 PUSH4 0xFFFFFFFF AND JUMP JUMPDEST ISZERO PUSH2 0x977 JUMPI PUSH1 0x40 MLOAD PUSH32 0x8C379A000000000000000000000000000000000000000000000000000000000 DUP2 MSTORE PUSH1 0x4 ADD PUSH2 0x96E SWAP1 PUSH2 0x21FA JUMP JUMPDEST PUSH1 0x40 MLOAD DUP1 SWAP2 SUB SWAP1 REVERT JUMPDEST PUSH0 PUSH1 0xA DUP4 DUP2 SLOAD DUP2 LT PUSH2 0x98C JUMPI PUSH2 0x98B PUSH2 0x1EAF JUMP JUMPDEST JUMPDEST SWAP1 PUSH0 MSTORE PUSH1 0x20 PUSH0 KECCAK256 SWAP1 PUSH1 0x9 MUL ADD SWAP1 POP PUSH0 PUSH1 0x8 PUSH0 CALLER PUSH20 0xFFFFFFFFFFFFFFFFFFFFFFFFFFFFFFFFFFFFFFFF AND PUSH20 0xFFFFFFFFFFFFFFFFFFFFFFFFFFFFFFFFFFFFFFFF AND DUP2 MSTORE PUSH1 0x20 ADD SWAP1 DUP2 MSTORE PUSH1 0x20 ADD PUSH0 KECCAK256 SLOAD SWAP1 POP PUSH1 0x1 PUSH1 0x2 DUP2 GT ISZERO PUSH2 0x9EF JUMPI PUSH2 0x9EE PUSH2 0x2218 JUMP JUMPDEST JUMPDEST DUP4 PUSH1 0x2 DUP2 GT ISZERO PUSH2 0xA02 JUMPI PUSH2 0xA01 PUSH2 0x2218 JUMP JUMPDEST JUMPDEST SUB PUSH2 0xA26 JUMPI DUP1 DUP3 PUSH1 0x3 ADD PUSH0 DUP3 DUP3 SLOAD PUSH2 0xA1A SWAP2 SWAP1 PUSH2 0x1D60 JUMP JUMPDEST SWAP3 POP POP DUP2 SWAP1 SSTORE POP PUSH2 0xAF7 JUMP JUMPDEST PUSH0 PUSH1 0x2 DUP2 GT ISZERO PUSH2 0xA39 JUMPI PUSH2 0xA38 PUSH2 0x2218 JUMP JUMPDEST JUMPDEST DUP4 PUSH1 0x2 DUP2 GT ISZERO PUSH2 0xA4C JUMPI PUSH2 0xA4B PUSH2 0x2218 JUMP JUMPDEST JUMPDEST SUB PUSH2 0xA70 JUMPI DUP1 DUP3 PUSH1 0x4 ADD PUSH0 DUP3 DUP3 SLOAD PUSH2 0xA64 SWAP2 SWAP1 PUSH2 0x1D60 JUMP JUMPDEST SWAP3 POP POP DUP2 SWAP1 SSTORE POP PUSH2 0xAF6 JUMP JUMPDEST PUSH1 0x2 DUP1 DUP2 GT ISZERO PUSH2 0xA83 JUMPI PUSH2 0xA82 PUSH2 0x2218 JUMP JUMPDEST JUMPDEST DUP4 PUSH1 0x2 DUP2 GT ISZERO PUSH2 0xA96 JUMPI PUSH2 0xA95 PUSH2 0x2218 JUMP JUMPDEST JUMPDEST SUB PUSH2 0xABA JUMPI DUP1 DUP3 PUSH1 0x5 ADD PUSH0 DUP3 DUP3 SLOAD PUSH2 0xAAE SWAP2 SWAP1 PUSH2 0x1D60 JUMP JUMPDEST SWAP3 POP POP DUP2 SWAP1 SSTORE POP PUSH2 0xAF5 JUMP JUMPDEST PUSH1 0x40 MLOAD PUSH32 0x8C379A000000000000000000000000000000000000000000000000000000000 DUP2 MSTORE PUSH1 0x4 ADD PUSH2 0xAEC SWAP1 PUSH2 0x228F JUMP JUMPDEST PUSH1 0x40 MLOAD DUP1 SWAP2 SUB SWAP1 REVERT JUMPDEST JUMPDEST JUMPDEST DUP1 DUP3 PUSH1 0x6 ADD PUSH0 DUP3 DUP3 SLOAD PUSH2 0xB0A SWAP2 SWAP1 PUSH2 0x1D60 JUMP JUMPDEST SWAP3 POP POP DUP2 SWAP1 SSTORE POP PUSH2 0xB26 CALLER DUP4 PUSH0 ADD PUSH2 0x1441 SWAP1 SWAP2 SWAP1 PUSH4 0xFFFFFFFF AND JUMP JUMPDEST POP DUP2 PUSH1 0x7 ADD SLOAD DUP3 PUSH1 0x6 ADD SLOAD LT PUSH2 0xB81 JUMPI PUSH1 0x1 DUP3 PUSH1 0x8 ADD PUSH1 0x1 PUSH2 0x100 EXP DUP2 SLOAD DUP2 PUSH1 0xFF MUL NOT AND SWAP1 DUP4 ISZERO ISZERO MUL OR SWAP1 SSTORE POP DUP2 PUSH1 0x4 ADD SLOAD DUP3 PUSH1 0x3 ADD SLOAD GT ISZERO PUSH2 0xB80 JUMPI PUSH1 0x1 DUP3 PUSH1 0x8 ADD PUSH0 PUSH2 0x100 EXP DUP2 SLOAD DUP2 PUSH1 0xFF MUL NOT AND SWAP1 DUP4 ISZERO ISZERO MUL OR SWAP1 SSTORE POP JUMPDEST JUMPDEST POP POP POP POP JUMP JUMPDEST PUSH1 0x60 PUSH1 0x4 DUP1 SLOAD PUSH2 0xB96 SWAP1 PUSH2 0x1D03 JUMP JUMPDEST DUP1 PUSH1 0x1F ADD PUSH1 0x20 DUP1 SWAP2 DIV MUL PUSH1 0x20 ADD PUSH1 0x40 MLOAD SWAP1 DUP2 ADD PUSH1 0x40 MSTORE DUP1 SWAP3 SWAP2 SWAP1 DUP2 DUP2 MSTORE PUSH1 0x20 ADD DUP3 DUP1 SLOAD PUSH2 0xBC2 SWAP1 PUSH2 0x1D03 JUMP JUMPDEST DUP1 ISZERO PUSH2 0xC0D JUMPI DUP1 PUSH1 0x1F LT PUSH2 0xBE4 JUMPI PUSH2 0x100 DUP1 DUP4 SLOAD DIV MUL DUP4 MSTORE SWAP2 PUSH1 0x20 ADD SWAP2 PUSH2 0xC0D JUMP JUMPDEST DUP3 ADD SWAP2 SWAP1 PUSH0 MSTORE PUSH1 0x20 PUSH0 KECCAK256 SWAP1 JUMPDEST DUP2 SLOAD DUP2 MSTORE SWAP1 PUSH1 0x1 ADD SWAP1 PUSH1 0x20 ADD DUP1 DUP4 GT PUSH2 0xBF0 JUMPI DUP3 SWAP1 SUB PUSH1 0x1F AND DUP3 ADD SWAP2 JUMPDEST POP POP POP POP POP SWAP1 POP SWAP1 JUMP JUMPDEST PUSH1 0x7 SLOAD DUP2 JUMP JUMPDEST PUSH2 0xC25 PUSH2 0x15A7 JUMP JUMPDEST PUSH0 PUSH1 0xA DUP4 DUP2 SLOAD DUP2 LT PUSH2 0xC3A JUMPI PUSH2 0xC39 PUSH2 0x1EAF JUMP JUMPDEST JUMPDEST SWAP1 PUSH0 MSTORE PUSH1 0x20 PUSH0 KECCAK256 SWAP1 PUSH1 0x9 MUL ADD SWAP1 POP PUSH0 PUSH2 0xC54 DUP3 PUSH0 ADD PUSH2 0x146E JUMP JUMPDEST PUSH8 0xFFFFFFFFFFFFFFFF DUP2 GT ISZERO PUSH2 0xC6D JUMPI PUSH2 0xC6C PUSH2 0x1888 JUMP JUMPDEST JUMPDEST PUSH1 0x40 MLOAD SWAP1 DUP1 DUP3 MSTORE DUP1 PUSH1 0x20 MUL PUSH1 0x20 ADD DUP3 ADD PUSH1 0x40 MSTORE DUP1 ISZERO PUSH2 0xC9B JUMPI DUP2 PUSH1 0x20 ADD PUSH1 0x20 DUP3 MUL DUP1 CALLDATASIZE DUP4 CALLDATACOPY DUP1 DUP3 ADD SWAP2 POP POP SWAP1 POP JUMPDEST POP SWAP1 POP PUSH0 JUMPDEST PUSH2 0xCAB DUP4 PUSH0 ADD PUSH2 0x146E JUMP JUMPDEST DUP2 LT ISZERO PUSH2 0xD27 JUMPI PUSH2 0xCC7 DUP2 DUP5 PUSH0 ADD PUSH2 0x1481 SWAP1 SWAP2 SWAP1 PUSH4 0xFFFFFFFF AND JUMP JUMPDEST DUP3 DUP3 DUP2 MLOAD DUP2 LT PUSH2 0xCDA JUMPI PUSH2 0xCD9 PUSH2 0x1EAF JUMP JUMPDEST JUMPDEST PUSH1 0x20 MUL PUSH1 0x20 ADD ADD SWAP1 PUSH20 0xFFFFFFFFFFFFFFFFFFFFFFFFFFFFFFFFFFFFFFFF AND SWAP1 DUP2 PUSH20 0xFFFFFFFFFFFFFFFFFFFFFFFFFFFFFFFFFFFFFFFF AND DUP2 MSTORE POP POP DUP1 DUP1 PUSH2 0xD1F SWAP1 PUSH2 0x22AD JUMP JUMPDEST SWAP2 POP POP PUSH2 0xCA0 JUMP JUMPDEST POP PUSH1 0x40 MLOAD DUP1 PUSH2 0x120 ADD PUSH1 0x40 MSTORE DUP1 DUP3 DUP2 MSTORE PUSH1 0x20 ADD DUP4 PUSH1 0x2 ADD DUP1 SLOAD PUSH2 0xD49 SWAP1 PUSH2 0x1D03 JUMP JUMPDEST DUP1 PUSH1 0x1F ADD PUSH1 0x20 DUP1 SWAP2 DIV MUL PUSH1 0x20 ADD PUSH1 0x40 MLOAD SWAP1 DUP2 ADD PUSH1 0x40 MSTORE DUP1 SWAP3 SWAP2 SWAP1 DUP2 DUP2 MSTORE PUSH1 0x20 ADD DUP3 DUP1 SLOAD PUSH2 0xD75 SWAP1 PUSH2 0x1D03 JUMP JUMPDEST DUP1 ISZERO PUSH2 0xDC0 JUMPI DUP1 PUSH1 0x1F LT PUSH2 0xD97 JUMPI PUSH2 0x100 DUP1 DUP4 SLOAD DIV MUL DUP4 MSTORE SWAP2 PUSH1 0x20 ADD SWAP2 PUSH2 0xDC0 JUMP JUMPDEST DUP3 ADD SWAP2 SWAP1 PUSH0 MSTORE PUSH1 0x20 PUSH0 KECCAK256 SWAP1 JUMPDEST DUP2 SLOAD DUP2 MSTORE SWAP1 PUSH1 0x1 ADD SWAP1 PUSH1 0x20 ADD DUP1 DUP4 GT PUSH2 0xDA3 JUMPI DUP3 SWAP1 SUB PUSH1 0x1F AND DUP3 ADD SWAP2 JUMPDEST POP POP POP POP POP DUP2 MSTORE PUSH1 0x20 ADD DUP4 PUSH1 0x3 ADD SLOAD DUP2 MSTORE PUSH1 0x20 ADD DUP4 PUSH1 0x4 ADD SLOAD DUP2 MSTORE PUSH1 0x20 ADD DUP4 PUSH1 0x5 ADD SLOAD DUP2 MSTORE PUSH1 0x20 ADD DUP4 PUSH1 0x6 ADD SLOAD DUP2 MSTORE PUSH1 0x20 ADD DUP4 PUSH1 0x7 ADD SLOAD DUP2 MSTORE PUSH1 0x20 ADD DUP4 PUSH1 0x8 ADD PUSH0 SWAP1 SLOAD SWAP1 PUSH2 0x100 EXP SWAP1 DIV PUSH1 0xFF AND ISZERO ISZERO DUP2 MSTORE PUSH1 0x20 ADD DUP4 PUSH1 0x8 ADD PUSH1 0x1 SWAP1 SLOAD SWAP1 PUSH2 0x100 EXP SWAP1 DIV PUSH1 0xFF AND ISZERO ISZERO DUP2 MSTORE POP SWAP3 POP POP POP SWAP2 SWAP1 POP JUMP JUMPDEST PUSH0 DUP1 PUSH2 0xE3E PUSH2 0xF53 JUMP JUMPDEST SWAP1 POP PUSH0 PUSH2 0xE4B DUP3 DUP7 PUSH2 0xED1 JUMP JUMPDEST SWAP1 POP DUP4 DUP2 LT ISZERO PUSH2 0xE90 JUMPI PUSH1 0x40 MLOAD PUSH32 0x8C379A000000000000000000000000000000000000000000000000000000000 DUP2 MSTORE PUSH1 0x4 ADD PUSH2 0xE87 SWAP1 PUSH2 0x2364 JUMP JUMPDEST PUSH1 0x40 MLOAD DUP1 SWAP2 SUB SWAP1 REVERT JUMPDEST PUSH2 0xE9D DUP3 DUP7 DUP7 DUP5 SUB PUSH2 0xF5A JUMP JUMPDEST PUSH1 0x1 SWAP3 POP POP POP SWAP3 SWAP2 POP POP JUMP JUMPDEST PUSH0 DUP1 PUSH2 0xEB3 PUSH2 0xF53 JUMP JUMPDEST SWAP1 POP PUSH2 0xEC0 DUP2 DUP6 DUP6 PUSH2 0x11A8 JUMP JUMPDEST PUSH1 0x1 SWAP2 POP POP SWAP3 SWAP2 POP POP JUMP JUMPDEST PUSH1 0x5 SLOAD DUP2 JUMP JUMPDEST PUSH0 PUSH1 0x1 PUSH0 DUP5 PUSH20 0xFFFFFFFFFFFFFFFFFFFFFFFFFFFFFFFFFFFFFFFF AND PUSH20 0xFFFFFFFFFFFFFFFFFFFFFFFFFFFFFFFFFFFFFFFF AND DUP2 MSTORE PUSH1 0x20 ADD SWAP1 DUP2 MSTORE PUSH1 0x20 ADD PUSH0 KECCAK256 PUSH0 DUP4 PUSH20 0xFFFFFFFFFFFFFFFFFFFFFFFFFFFFFFFFFFFFFFFF AND PUSH20 0xFFFFFFFFFFFFFFFFFFFFFFFFFFFFFFFFFFFFFFFF AND DUP2 MSTORE PUSH1 0x20 ADD SWAP1 DUP2 MSTORE PUSH1 0x20 ADD PUSH0 KECCAK256 SLOAD SWAP1 POP SWAP3 SWAP2 POP POP JUMP JUMPDEST PUSH0 CALLER SWAP1 POP SWAP1 JUMP JUMPDEST PUSH0 PUSH20 0xFFFFFFFFFFFFFFFFFFFFFFFFFFFFFFFFFFFFFFFF AND DUP4 PUSH20 0xFFFFFFFFFFFFFFFFFFFFFFFFFFFFFFFFFFFFFFFF AND SUB PUSH2 0xFC8 JUMPI PUSH1 0x40 MLOAD PUSH32 0x8C379A000000000000000000000000000000000000000000000000000000000 DUP2 MSTORE PUSH1 0x4 ADD PUSH2 0xFBF SWAP1 PUSH2 0x23F2 JUMP JUMPDEST PUSH1 0x40 MLOAD DUP1 SWAP2 SUB SWAP1 REVERT JUMPDEST PUSH0 PUSH20 0xFFFFFFFFFFFFFFFFFFFFFFFFFFFFFFFFFFFFFFFF AND DUP3 PUSH20 0xFFFFFFFFFFFFFFFFFFFFFFFFFFFFFFFFFFFFFFFF AND SUB PUSH2 0x1036 JUMPI PUSH1 0x40 MLOAD PUSH32 0x8C379A000000000000000000000000000000000000000000000000000000000 DUP2 MSTORE PUSH1 0x4 ADD PUSH2 0x102D SWAP1 PUSH2 0x2480 JUMP JUMPDEST PUSH1 0x40 MLOAD DUP1 SWAP2 SUB SWAP1 REVERT JUMPDEST DUP1 PUSH1 0x1 PUSH0 DUP6 PUSH20 0xFFFFFFFFFFFFFFFFFFFFFFFFFFFFFFFFFFFFFFFF AND PUSH20 0xFFFFFFFFFFFFFFFFFFFFFFFFFFFFFFFFFFFFFFFF AND DUP2 MSTORE PUSH1 0x20 ADD SWAP1 DUP2 MSTORE PUSH1 0x20 ADD PUSH0 KECCAK256 PUSH0 DUP5 PUSH20 0xFFFFFFFFFFFFFFFFFFFFFFFFFFFFFFFFFFFFFFFF AND PUSH20 0xFFFFFFFFFFFFFFFFFFFFFFFFFFFFFFFFFFFFFFFF AND DUP2 MSTORE PUSH1 0x20 ADD SWAP1 DUP2 MSTORE PUSH1 0x20 ADD PUSH0 KECCAK256 DUP2 SWAP1 SSTORE POP DUP2 PUSH20 0xFFFFFFFFFFFFFFFFFFFFFFFFFFFFFFFFFFFFFFFF AND DUP4 PUSH20 0xFFFFFFFFFFFFFFFFFFFFFFFFFFFFFFFFFFFFFFFF AND PUSH32 0x8C5BE1E5EBEC7D5BD14F71427D1E84F3DD0314C0F7B2291E5B200AC8C7C3B925 DUP4 PUSH1 0x40 MLOAD PUSH2 0x1110 SWAP2 SWAP1 PUSH2 0x17B8 JUMP JUMPDEST PUSH1 0x40 MLOAD DUP1 SWAP2 SUB SWAP1 LOG3 POP POP POP JUMP JUMPDEST PUSH0 PUSH2 0x1128 DUP5 DUP5 PUSH2 0xED1 JUMP JUMPDEST SWAP1 POP PUSH32 0xFFFFFFFFFFFFFFFFFFFFFFFFFFFFFFFFFFFFFFFFFFFFFFFFFFFFFFFFFFFFFFFF DUP2 EQ PUSH2 0x11A2 JUMPI DUP2 DUP2 LT ISZERO PUSH2 0x1194 JUMPI PUSH1 0x40 MLOAD PUSH32 0x8C379A000000000000000000000000000000000000000000000000000000000 DUP2 MSTORE PUSH1 0x4 ADD PUSH2 0x118B SWAP1 PUSH2 0x24E8 JUMP JUMPDEST PUSH1 0x40 MLOAD DUP1 SWAP2 SUB SWAP1 REVERT JUMPDEST PUSH2 0x11A1 DUP5 DUP5 DUP5 DUP5 SUB PUSH2 0xF5A JUMP JUMPDEST JUMPDEST POP POP POP POP JUMP JUMPDEST PUSH0 PUSH20 0xFFFFFFFFFFFFFFFFFFFFFFFFFFFFFFFFFFFFFFFF AND DUP4 PUSH20 0xFFFFFFFFFFFFFFFFFFFFFFFFFFFFFFFFFFFFFFFF AND SUB PUSH2 0x1216 JUMPI PUSH1 0x40 MLOAD PUSH32 0x8C379A000000000000000000000000000000000000000000000000000000000 DUP2 MSTORE PUSH1 0x4 ADD PUSH2 0x120D SWAP1 PUSH2 0x2576 JUMP JUMPDEST PUSH1 0x40 MLOAD DUP1 SWAP2 SUB SWAP1 REVERT JUMPDEST PUSH0 PUSH20 0xFFFFFFFFFFFFFFFFFFFFFFFFFFFFFFFFFFFFFFFF AND DUP3 PUSH20 0xFFFFFFFFFFFFFFFFFFFFFFFFFFFFFFFFFFFFFFFF AND SUB PUSH2 0x1284 JUMPI PUSH1 0x40 MLOAD PUSH32 0x8C379A000000000000000000000000000000000000000000000000000000000 DUP2 MSTORE PUSH1 0x4 ADD PUSH2 0x127B SWAP1 PUSH2 0x2604 JUMP JUMPDEST PUSH1 0x40 MLOAD DUP1 SWAP2 SUB SWAP1 REVERT JUMPDEST PUSH2 0x128F DUP4 DUP4 DUP4 PUSH2 0x1498 JUMP JUMPDEST PUSH0 DUP1 PUSH0 DUP6 PUSH20 0xFFFFFFFFFFFFFFFFFFFFFFFFFFFFFFFFFFFFFFFF AND PUSH20 0xFFFFFFFFFFFFFFFFFFFFFFFFFFFFFFFFFFFFFFFF AND DUP2 MSTORE PUSH1 0x20 ADD SWAP1 DUP2 MSTORE PUSH1 0x20 ADD PUSH0 KECCAK256 SLOAD SWAP1 POP DUP2 DUP2 LT ISZERO PUSH2 0x1312 JUMPI PUSH1 0x40 MLOAD PUSH32 0x8C379A000000000000000000000000000000000000000000000000000000000 DUP2 MSTORE PUSH1 0x4 ADD PUSH2 0x1309 SWAP1 PUSH2 0x2692 JUMP JUMPDEST PUSH1 0x40 MLOAD DUP1 SWAP2 SUB SWAP1 REVERT JUMPDEST DUP2 DUP2 SUB PUSH0 DUP1 DUP7 PUSH20 0xFFFFFFFFFFFFFFFFFFFFFFFFFFFFFFFFFFFFFFFF AND PUSH20 0xFFFFFFFFFFFFFFFFFFFFFFFFFFFFFFFFFFFFFFFF AND DUP2 MSTORE PUSH1 0x20 ADD SWAP1 DUP2 MSTORE PUSH1 0x20 ADD PUSH0 KECCAK256 DUP2 SWAP1 SSTORE POP DUP2 PUSH0 DUP1 DUP6 PUSH20 0xFFFFFFFFFFFFFFFFFFFFFFFFFFFFFFFFFFFFFFFF AND PUSH20 0xFFFFFFFFFFFFFFFFFFFFFFFFFFFFFFFFFFFFFFFF AND DUP2 MSTORE PUSH1 0x20 ADD SWAP1 DUP2 MSTORE PUSH1 0x20 ADD PUSH0 KECCAK256 PUSH0 DUP3 DUP3 SLOAD ADD SWAP3 POP POP DUP2 SWAP1 SSTORE POP DUP3 PUSH20 0xFFFFFFFFFFFFFFFFFFFFFFFFFFFFFFFFFFFFFFFF AND DUP5 PUSH20 0xFFFFFFFFFFFFFFFFFFFFFFFFFFFFFFFFFFFFFFFF AND PUSH32 0xDDF252AD1BE2C89B69C2B068FC378DAA952BA7F163C4A11628F55A4DF523B3EF DUP5 PUSH1 0x40 MLOAD PUSH2 0x13FB SWAP2 SWAP1 PUSH2 0x17B8 JUMP JUMPDEST PUSH1 0x40 MLOAD DUP1 SWAP2 SUB SWAP1 LOG3 PUSH2 0x140E DUP5 DUP5 DUP5 PUSH2 0x149D JUMP JUMPDEST POP POP POP POP JUMP JUMPDEST PUSH0 PUSH2 0x1439 DUP4 PUSH0 ADD DUP4 PUSH20 0xFFFFFFFFFFFFFFFFFFFFFFFFFFFFFFFFFFFFFFFF AND PUSH0 SHL PUSH2 0x14A2 JUMP JUMPDEST SWAP1 POP SWAP3 SWAP2 POP POP JUMP JUMPDEST PUSH0 PUSH2 0x1466 DUP4 PUSH0 ADD DUP4 PUSH20 0xFFFFFFFFFFFFFFFFFFFFFFFFFFFFFFFFFFFFFFFF AND PUSH0 SHL PUSH2 0x14C2 JUMP JUMPDEST SWAP1 POP SWAP3 SWAP2 POP POP JUMP JUMPDEST PUSH0 PUSH2 0x147A DUP3 PUSH0 ADD PUSH2 0x1529 JUMP JUMPDEST SWAP1 POP SWAP2 SWAP1 POP JUMP JUMPDEST PUSH0 PUSH2 0x148E DUP4 PUSH0 ADD DUP4 PUSH2 0x1538 JUMP JUMPDEST PUSH0 SHR SWAP1 POP SWAP3 SWAP2 POP POP JUMP JUMPDEST POP POP POP JUMP JUMPDEST POP POP POP JUMP JUMPDEST PUSH0 DUP1 DUP4 PUSH1 0x1 ADD PUSH0 DUP5 DUP2 MSTORE PUSH1 0x20 ADD SWAP1 DUP2 MSTORE PUSH1 0x20 ADD PUSH0 KECCAK256 SLOAD EQ ISZERO SWAP1 POP SWAP3 SWAP2 POP POP JUMP JUMPDEST PUSH0 PUSH2 0x14CD DUP4 DUP4 PUSH2 0x14A2 JUMP JUMPDEST PUSH2 0x151F JUMPI DUP3 PUSH0 ADD DUP3 SWAP1 DUP1 PUSH1 0x1 DUP2 SLOAD ADD DUP1 DUP3 SSTORE DUP1 SWAP2 POP POP PUSH1 0x1 SWAP1 SUB SWAP1 PUSH0 MSTORE PUSH1 0x20 PUSH0 KECCAK256 ADD PUSH0 SWAP1 SWAP2 SWAP1 SWAP2 SWAP1 SWAP2 POP SSTORE DUP3 PUSH0 ADD DUP1 SLOAD SWAP1 POP DUP4 PUSH1 0x1 ADD PUSH0 DUP5 DUP2 MSTORE PUSH1 0x20 ADD SWAP1 DUP2 MSTORE PUSH1 0x20 ADD PUSH0 KECCAK256 DUP2 SWAP1 SSTORE POP PUSH1 0x1 SWAP1 POP PUSH2 0x1523 JUMP JUMPDEST PUSH0 SWAP1 POP JUMPDEST SWAP3 SWAP2 POP POP JUMP JUMPDEST PUSH0 DUP2 PUSH0 ADD DUP1 SLOAD SWAP1 POP SWAP1 POP SWAP2 SWAP1 POP JUMP JUMPDEST PUSH0 DUP2 DUP4 PUSH0 ADD DUP1 SLOAD SWAP1 POP GT PUSH2 0x1581 JUMPI PUSH1 0x40 MLOAD PUSH32 0x8C379A000000000000000000000000000000000000000000000000000000000 DUP2 MSTORE PUSH1 0x4 ADD PUSH2 0x1578 SWAP1 PUSH2 0x2720 JUMP JUMPDEST PUSH1 0x40 MLOAD DUP1 SWAP2 SUB SWAP1 REVERT JUMPDEST DUP3 PUSH0 ADD DUP3 DUP2 SLOAD DUP2 LT PUSH2 0x1596 JUMPI PUSH2 0x1595 PUSH2 0x1EAF JUMP JUMPDEST JUMPDEST SWAP1 PUSH0 MSTORE PUSH1 0x20 PUSH0 KECCAK256 ADD SLOAD SWAP1 POP SWAP3 SWAP2 POP POP JUMP JUMPDEST PUSH1 0x40 MLOAD DUP1 PUSH2 0x120 ADD PUSH1 0x40 MSTORE DUP1 PUSH1 0x60 DUP2 MSTORE PUSH1 0x20 ADD PUSH1 0x60 DUP2 MSTORE PUSH1 0x20 ADD PUSH0 DUP2 MSTORE PUSH1 0x20 ADD PUSH0 DUP2 MSTORE PUSH1 0x20 ADD PUSH0 DUP2 MSTORE PUSH1 0x20 ADD PUSH0 DUP2 MSTORE PUSH1 0x20 ADD PUSH0 DUP2 MSTORE PUSH1 0x20 ADD PUSH0 ISZERO ISZERO DUP2 MSTORE PUSH1 0x20 ADD PUSH0 ISZERO ISZERO DUP2 MSTORE POP SWAP1 JUMP JUMPDEST PUSH0 DUP2 MLOAD SWAP1 POP SWAP2 SWAP1 POP JUMP JUMPDEST PUSH0 DUP3 DUP3 MSTORE PUSH1 0x20 DUP3 ADD SWAP1 POP SWAP3 SWAP2 POP POP JUMP JUMPDEST PUSH0 JUMPDEST DUP4 DUP2 LT ISZERO PUSH2 0x1627 JUMPI DUP1 DUP3 ADD MLOAD DUP2 DUP5 ADD MSTORE PUSH1 0x20 DUP2 ADD SWAP1 POP PUSH2 0x160C JUMP JUMPDEST PUSH0 DUP5 DUP5 ADD MSTORE POP POP POP POP JUMP JUMPDEST PUSH0 PUSH1 0x1F NOT PUSH1 0x1F DUP4 ADD AND SWAP1 POP SWAP2 SWAP1 POP JUMP JUMPDEST PUSH0 PUSH2 0x164C DUP3 PUSH2 0x15F0 JUMP JUMPDEST PUSH2 0x1656 DUP2 DUP6 PUSH2 0x15FA JUMP JUMPDEST SWAP4 POP PUSH2 0x1666 DUP2 DUP6 PUSH1 0x20 DUP7 ADD PUSH2 0x160A JUMP JUMPDEST PUSH2 0x166F DUP2 PUSH2 0x1632 JUMP JUMPDEST DUP5 ADD SWAP2 POP POP SWAP3 SWAP2 POP POP JUMP JUMPDEST PUSH0 PUSH1 0x20 DUP3 ADD SWAP1 POP DUP2 DUP2 SUB PUSH0 DUP4 ADD MSTORE PUSH2 0x1692 DUP2 DUP5 PUSH2 0x1642 JUMP JUMPDEST SWAP1 POP SWAP3 SWAP2 POP POP JUMP JUMPDEST PUSH0 PUSH1 0x40 MLOAD SWAP1 POP SWAP1 JUMP JUMPDEST PUSH0 DUP1 REVERT JUMPDEST PUSH0 DUP1 REVERT JUMPDEST PUSH0 PUSH20 0xFFFFFFFFFFFFFFFFFFFFFFFFFFFFFFFFFFFFFFFF DUP3 AND SWAP1 POP SWAP2 SWAP1 POP JUMP JUMPDEST PUSH0 PUSH2 0x16D4 DUP3 PUSH2 0x16AB JUMP JUMPDEST SWAP1 POP SWAP2 SWAP1 POP JUMP JUMPDEST PUSH2 0x16E4 DUP2 PUSH2 0x16CA JUMP JUMPDEST DUP2 EQ PUSH2 0x16EE JUMPI PUSH0 DUP1 REVERT JUMPDEST POP JUMP JUMPDEST PUSH0 DUP2 CALLDATALOAD SWAP1 POP PUSH2 0x16FF DUP2 PUSH2 0x16DB JUMP JUMPDEST SWAP3 SWAP2 POP POP JUMP JUMPDEST PUSH0 DUP2 SWAP1 POP SWAP2 SWAP1 POP JUMP JUMPDEST PUSH2 0x1717 DUP2 PUSH2 0x1705 JUMP JUMPDEST DUP2 EQ PUSH2 0x1721 JUMPI PUSH0 DUP1 REVERT JUMPDEST POP JUMP JUMPDEST PUSH0 DUP2 CALLDATALOAD SWAP1 POP PUSH2 0x1732 DUP2 PUSH2 0x170E JUMP JUMPDEST SWAP3 SWAP2 POP POP JUMP JUMPDEST PUSH0 DUP1 PUSH1 0x40 DUP4 DUP6 SUB SLT ISZERO PUSH2 0x174E JUMPI PUSH2 0x174D PUSH2 0x16A3 JUMP JUMPDEST JUMPDEST PUSH0 PUSH2 0x175B DUP6 DUP3 DUP7 ADD PUSH2 0x16F1 JUMP JUMPDEST SWAP3 POP POP PUSH1 0x20 PUSH2 0x176C DUP6 DUP3 DUP7 ADD PUSH2 0x1724 JUMP JUMPDEST SWAP2 POP POP SWAP3 POP SWAP3 SWAP1 POP JUMP JUMPDEST PUSH0 DUP2 ISZERO ISZERO SWAP1 POP SWAP2 SWAP1 POP JUMP JUMPDEST PUSH2 0x178A DUP2 PUSH2 0x1776 JUMP JUMPDEST DUP3 MSTORE POP POP JUMP JUMPDEST PUSH0 PUSH1 0x20 DUP3 ADD SWAP1 POP PUSH2 0x17A3 PUSH0 DUP4 ADD DUP5 PUSH2 0x1781 JUMP JUMPDEST SWAP3 SWAP2 POP POP JUMP JUMPDEST PUSH2 0x17B2 DUP2 PUSH2 0x1705 JUMP JUMPDEST DUP3 MSTORE POP POP JUMP JUMPDEST PUSH0 PUSH1 0x20 DUP3 ADD SWAP1 POP PUSH2 0x17CB PUSH0 DUP4 ADD DUP5 PUSH2 0x17A9 JUMP JUMPDEST SWAP3 SWAP2 POP POP JUMP JUMPDEST PUSH0 DUP1 PUSH0 PUSH1 0x60 DUP5 DUP7 SUB SLT ISZERO PUSH2 0x17E8 JUMPI PUSH2 0x17E7 PUSH2 0x16A3 JUMP JUMPDEST JUMPDEST PUSH0 PUSH2 0x17F5 DUP7 DUP3 DUP8 ADD PUSH2 0x16F1 JUMP JUMPDEST SWAP4 POP POP PUSH1 0x20 PUSH2 0x1806 DUP7 DUP3 DUP8 ADD PUSH2 0x16F1 JUMP JUMPDEST SWAP3 POP POP PUSH1 0x40 PUSH2 0x1817 DUP7 DUP3 DUP8 ADD PUSH2 0x1724 JUMP JUMPDEST SWAP2 POP POP SWAP3 POP SWAP3 POP SWAP3 JUMP JUMPDEST PUSH0 PUSH1 0x20 DUP3 DUP5 SUB SLT ISZERO PUSH2 0x1836 JUMPI PUSH2 0x1835 PUSH2 0x16A3 JUMP JUMPDEST JUMPDEST PUSH0 PUSH2 0x1843 DUP5 DUP3 DUP6 ADD PUSH2 0x16F1 JUMP JUMPDEST SWAP2 POP POP SWAP3 SWAP2 POP POP JUMP JUMPDEST PUSH0 PUSH1 0xFF DUP3 AND SWAP1 POP SWAP2 SWAP1 POP JUMP JUMPDEST PUSH2 0x1861 DUP2 PUSH2 0x184C JUMP JUMPDEST DUP3 MSTORE POP POP JUMP JUMPDEST PUSH0 PUSH1 0x20 DUP3 ADD SWAP1 POP PUSH2 0x187A PUSH0 DUP4 ADD DUP5 PUSH2 0x1858 JUMP JUMPDEST SWAP3 SWAP2 POP POP JUMP JUMPDEST PUSH0 DUP1 REVERT JUMPDEST PUSH0 DUP1 REVERT JUMPDEST PUSH32 0x4E487B7100000000000000000000000000000000000000000000000000000000 PUSH0 MSTORE PUSH1 0x41 PUSH1 0x4 MSTORE PUSH1 0x24 PUSH0 REVERT JUMPDEST PUSH2 0x18BE DUP3 PUSH2 0x1632 JUMP JUMPDEST DUP2 ADD DUP2 DUP2 LT PUSH8 0xFFFFFFFFFFFFFFFF DUP3 GT OR ISZERO PUSH2 0x18DD JUMPI PUSH2 0x18DC PUSH2 0x1888 JUMP JUMPDEST JUMPDEST DUP1 PUSH1 0x40 MSTORE POP POP POP JUMP JUMPDEST PUSH0 PUSH2 0x18EF PUSH2 0x169A JUMP JUMPDEST SWAP1 POP PUSH2 0x18FB DUP3 DUP3 PUSH2 0x18B5 JUMP JUMPDEST SWAP2 SWAP1 POP JUMP JUMPDEST PUSH0 PUSH8 0xFFFFFFFFFFFFFFFF DUP3 GT ISZERO PUSH2 0x191A JUMPI PUSH2 0x1919 PUSH2 0x1888 JUMP JUMPDEST JUMPDEST PUSH2 0x1923 DUP3 PUSH2 0x1632 JUMP JUMPDEST SWAP1 POP PUSH1 0x20 DUP2 ADD SWAP1 POP SWAP2 SWAP1 POP JUMP JUMPDEST DUP3 DUP2 DUP4 CALLDATACOPY PUSH0 DUP4 DUP4 ADD MSTORE POP POP POP JUMP JUMPDEST PUSH0 PUSH2 0x1950 PUSH2 0x194B DUP5 PUSH2 0x1900 JUMP JUMPDEST PUSH2 0x18E6 JUMP JUMPDEST SWAP1 POP DUP3 DUP2 MSTORE PUSH1 0x20 DUP2 ADD DUP5 DUP5 DUP5 ADD GT ISZERO PUSH2 0x196C JUMPI PUSH2 0x196B PUSH2 0x1884 JUMP JUMPDEST JUMPDEST PUSH2 0x1977 DUP5 DUP3 DUP6 PUSH2 0x1930 JUMP JUMPDEST POP SWAP4 SWAP3 POP POP POP JUMP JUMPDEST PUSH0 DUP3 PUSH1 0x1F DUP4 ADD SLT PUSH2 0x1993 JUMPI PUSH2 0x1992 PUSH2 0x1880 JUMP JUMPDEST JUMPDEST DUP2 CALLDATALOAD PUSH2 0x19A3 DUP5 DUP3 PUSH1 0x20 DUP7 ADD PUSH2 0x193E JUMP JUMPDEST SWAP2 POP POP SWAP3 SWAP2 POP POP JUMP JUMPDEST PUSH0 DUP1 PUSH1 0x40 DUP4 DUP6 SUB SLT ISZERO PUSH2 0x19C2 JUMPI PUSH2 0x19C1 PUSH2 0x16A3 JUMP JUMPDEST JUMPDEST PUSH0 DUP4 ADD CALLDATALOAD PUSH8 0xFFFFFFFFFFFFFFFF DUP2 GT ISZERO PUSH2 0x19DF JUMPI PUSH2 0x19DE PUSH2 0x16A7 JUMP JUMPDEST JUMPDEST PUSH2 0x19EB DUP6 DUP3 DUP7 ADD PUSH2 0x197F JUMP JUMPDEST SWAP3 POP POP PUSH1 0x20 PUSH2 0x19FC DUP6 DUP3 DUP7 ADD PUSH2 0x1724 JUMP JUMPDEST SWAP2 POP POP SWAP3 POP SWAP3 SWAP1 POP JUMP JUMPDEST PUSH1 0x3 DUP2 LT PUSH2 0x1A12 JUMPI PUSH0 DUP1 REVERT JUMPDEST POP JUMP JUMPDEST PUSH0 DUP2 CALLDATALOAD SWAP1 POP PUSH2 0x1A23 DUP2 PUSH2 0x1A06 JUMP JUMPDEST SWAP3 SWAP2 POP POP JUMP JUMPDEST PUSH0 DUP1 PUSH1 0x40 DUP4 DUP6 SUB SLT ISZERO PUSH2 0x1A3F JUMPI PUSH2 0x1A3E PUSH2 0x16A3 JUMP JUMPDEST JUMPDEST PUSH0 PUSH2 0x1A4C DUP6 DUP3 DUP7 ADD PUSH2 0x1724 JUMP JUMPDEST SWAP3 POP POP PUSH1 0x20 PUSH2 0x1A5D DUP6 DUP3 DUP7 ADD PUSH2 0x1A15 JUMP JUMPDEST SWAP2 POP POP SWAP3 POP SWAP3 SWAP1 POP JUMP JUMPDEST PUSH0 PUSH1 0x20 DUP3 DUP5 SUB SLT ISZERO PUSH2 0x1A7C JUMPI PUSH2 0x1A7B PUSH2 0x16A3 JUMP JUMPDEST JUMPDEST PUSH0 PUSH2 0x1A89 DUP5 DUP3 DUP6 ADD PUSH2 0x1724 JUMP JUMPDEST SWAP2 POP POP SWAP3 SWAP2 POP POP JUMP JUMPDEST PUSH0 DUP2 MLOAD SWAP1 POP SWAP2 SWAP1 POP JUMP JUMPDEST PUSH0 DUP3 DUP3 MSTORE PUSH1 0x20 DUP3 ADD SWAP1 POP SWAP3 SWAP2 POP POP JUMP JUMPDEST PUSH0 DUP2 SWAP1 POP PUSH1 0x20 DUP3 ADD SWAP1 POP SWAP2 SWAP1 POP JUMP JUMPDEST PUSH2 0x1AC4 DUP2 PUSH2 0x16CA JUMP JUMPDEST DUP3 MSTORE POP POP JUMP JUMPDEST PUSH0 PUSH2 0x1AD5 DUP4 DUP4 PUSH2 0x1ABB JUMP JUMPDEST PUSH1 0x20 DUP4 ADD SWAP1 POP SWAP3 SWAP2 POP POP JUMP JUMPDEST PUSH0 PUSH1 0x20 DUP3 ADD SWAP1 POP SWAP2 SWAP1 POP JUMP JUMPDEST PUSH0 PUSH2 0x1AF7 DUP3 PUSH2 0x1A92 JUMP JUMPDEST PUSH2 0x1B01 DUP2 DUP6 PUSH2 0x1A9C JUMP JUMPDEST SWAP4 POP PUSH2 0x1B0C DUP4 PUSH2 0x1AAC JUMP JUMPDEST DUP1 PUSH0 JUMPDEST DUP4 DUP2 LT ISZERO PUSH2 0x1B3C JUMPI DUP2 MLOAD PUSH2 0x1B23 DUP9 DUP3 PUSH2 0x1ACA JUMP JUMPDEST SWAP8 POP PUSH2 0x1B2E DUP4 PUSH2 0x1AE1 JUMP JUMPDEST SWAP3 POP POP PUSH1 0x1 DUP2 ADD SWAP1 POP PUSH2 0x1B0F JUMP JUMPDEST POP DUP6 SWAP4 POP POP POP POP SWAP3 SWAP2 POP POP JUMP JUMPDEST PUSH0 DUP3 DUP3 MSTORE PUSH1 0x20 DUP3 ADD SWAP1 POP SWAP3 SWAP2 POP POP JUMP JUMPDEST PUSH0 PUSH2 0x1B63 DUP3 PUSH2 0x15F0 JUMP JUMPDEST PUSH2 0x1B6D DUP2 DUP6 PUSH2 0x1B49 JUMP JUMPDEST SWAP4 POP PUSH2 0x1B7D DUP2 DUP6 PUSH1 0x20 DUP7 ADD PUSH2 0x160A JUMP JUMPDEST PUSH2 0x1B86 DUP2 PUSH2 0x1632 JUMP JUMPDEST DUP5 ADD SWAP2 POP POP SWAP3 SWAP2 POP POP JUMP JUMPDEST PUSH2 0x1B9A DUP2 PUSH2 0x1705 JUMP JUMPDEST DUP3 MSTORE POP POP JUMP JUMPDEST PUSH2 0x1BA9 DUP2 PUSH2 0x1776 JUMP JUMPDEST DUP3 MSTORE POP POP JUMP JUMPDEST PUSH0 PUSH2 0x120 DUP4 ADD PUSH0 DUP4 ADD MLOAD DUP5 DUP3 SUB PUSH0 DUP7 ADD MSTORE PUSH2 0x1BCA DUP3 DUP3 PUSH2 0x1AED JUMP JUMPDEST SWAP2 POP POP PUSH1 0x20 DUP4 ADD MLOAD DUP5 DUP3 SUB PUSH1 0x20 DUP7 ADD MSTORE PUSH2 0x1BE4 DUP3 DUP3 PUSH2 0x1B59 JUMP JUMPDEST SWAP2 POP POP PUSH1 0x40 DUP4 ADD MLOAD PUSH2 0x1BF9 PUSH1 0x40 DUP7 ADD DUP3 PUSH2 0x1B91 JUMP JUMPDEST POP PUSH1 0x60 DUP4 ADD MLOAD PUSH2 0x1C0C PUSH1 0x60 DUP7 ADD DUP3 PUSH2 0x1B91 JUMP JUMPDEST POP PUSH1 0x80 DUP4 ADD MLOAD PUSH2 0x1C1F PUSH1 0x80 DUP7 ADD DUP3 PUSH2 0x1B91 JUMP JUMPDEST POP PUSH1 0xA0 DUP4 ADD MLOAD PUSH2 0x1C32 PUSH1 0xA0 DUP7 ADD DUP3 PUSH2 0x1B91 JUMP JUMPDEST POP PUSH1 0xC0 DUP4 ADD MLOAD PUSH2 0x1C45 PUSH1 0xC0 DUP7 ADD DUP3 PUSH2 0x1B91 JUMP JUMPDEST POP PUSH1 0xE0 DUP4 ADD MLOAD PUSH2 0x1C58 PUSH1 0xE0 DUP7 ADD DUP3 PUSH2 0x1BA0 JUMP JUMPDEST POP PUSH2 0x100 DUP4 ADD MLOAD PUSH2 0x1C6D PUSH2 0x100 DUP7 ADD DUP3 PUSH2 0x1BA0 JUMP JUMPDEST POP DUP1 SWAP2 POP POP SWAP3 SWAP2 POP POP JUMP JUMPDEST PUSH0 PUSH1 0x20 DUP3 ADD SWAP1 POP DUP2 DUP2 SUB PUSH0 DUP4 ADD MSTORE PUSH2 0x1C90 DUP2 DUP5 PUSH2 0x1BAF JUMP JUMPDEST SWAP1 POP SWAP3 SWAP2 POP POP JUMP JUMPDEST PUSH0 DUP1 PUSH1 0x40 DUP4 DUP6 SUB SLT ISZERO PUSH2 0x1CAE JUMPI PUSH2 0x1CAD PUSH2 0x16A3 JUMP JUMPDEST JUMPDEST PUSH0 PUSH2 0x1CBB DUP6 DUP3 DUP7 ADD PUSH2 0x16F1 JUMP JUMPDEST SWAP3 POP POP PUSH1 0x20 PUSH2 0x1CCC DUP6 DUP3 DUP7 ADD PUSH2 0x16F1 JUMP JUMPDEST SWAP2 POP POP SWAP3 POP SWAP3 SWAP1 POP JUMP JUMPDEST PUSH32 0x4E487B7100000000000000000000000000000000000000000000000000000000 PUSH0 MSTORE PUSH1 0x22 PUSH1 0x4 MSTORE PUSH1 0x24 PUSH0 REVERT JUMPDEST PUSH0 PUSH1 0x2 DUP3 DIV SWAP1 POP PUSH1 0x1 DUP3 AND DUP1 PUSH2 0x1D1A JUMPI PUSH1 0x7F DUP3 AND SWAP2 POP JUMPDEST PUSH1 0x20 DUP3 LT DUP2 SUB PUSH2 0x1D2D JUMPI PUSH2 0x1D2C PUSH2 0x1CD6 JUMP JUMPDEST JUMPDEST POP SWAP2 SWAP1 POP JUMP JUMPDEST PUSH32 0x4E487B7100000000000000000000000000000000000000000000000000000000 PUSH0 MSTORE PUSH1 0x11 PUSH1 0x4 MSTORE PUSH1 0x24 PUSH0 REVERT JUMPDEST PUSH0 PUSH2 0x1D6A DUP3 PUSH2 0x1705 JUMP JUMPDEST SWAP2 POP PUSH2 0x1D75 DUP4 PUSH2 0x1705 JUMP JUMPDEST SWAP3 POP DUP3 DUP3 ADD SWAP1 POP DUP1 DUP3 GT ISZERO PUSH2 0x1D8D JUMPI PUSH2 0x1D8C PUSH2 0x1D33 JUMP JUMPDEST JUMPDEST SWAP3 SWAP2 POP POP JUMP JUMPDEST PUSH32 0x4F6E6C7920746F6B656E20686F6C646572732063616E20637265617465206973 PUSH0 DUP3 ADD MSTORE PUSH32 0x7375657300000000000000000000000000000000000000000000000000000000 PUSH1 0x20 DUP3 ADD MSTORE POP JUMP JUMPDEST PUSH0 PUSH2 0x1DED PUSH1 0x24 DUP4 PUSH2 0x15FA JUMP JUMPDEST SWAP2 POP PUSH2 0x1DF8 DUP3 PUSH2 0x1D93 JUMP JUMPDEST PUSH1 0x40 DUP3 ADD SWAP1 POP SWAP2 SWAP1 POP JUMP JUMPDEST PUSH0 PUSH1 0x20 DUP3 ADD SWAP1 POP DUP2 DUP2 SUB PUSH0 DUP4 ADD MSTORE PUSH2 0x1E1A DUP2 PUSH2 0x1DE1 JUMP JUMPDEST SWAP1 POP SWAP2 SWAP1 POP JUMP JUMPDEST PUSH32 0x51756F72756D2063616E6E6F742062652067726561746572207468616E207468 PUSH0 DUP3 ADD MSTORE PUSH32 0x6520746F74616C206E756D626572206F6620746F6B656E730000000000000000 PUSH1 0x20 DUP3 ADD MSTORE POP JUMP JUMPDEST PUSH0 PUSH2 0x1E7B PUSH1 0x38 DUP4 PUSH2 0x15FA JUMP JUMPDEST SWAP2 POP PUSH2 0x1E86 DUP3 PUSH2 0x1E21 JUMP JUMPDEST PUSH1 0x40 DUP3 ADD SWAP1 POP SWAP2 SWAP1 POP JUMP JUMPDEST PUSH0 PUSH1 0x20 DUP3 ADD SWAP1 POP DUP2 DUP2 SUB PUSH0 DUP4 ADD MSTORE PUSH2 0x1EA8 DUP2 PUSH2 0x1E6F JUMP JUMPDEST SWAP1 POP SWAP2 SWAP1 POP JUMP JUMPDEST PUSH32 0x4E487B7100000000000000000000000000000000000000000000000000000000 PUSH0 MSTORE PUSH1 0x32 PUSH1 0x4 MSTORE PUSH1 0x24 PUSH0 REVERT JUMPDEST PUSH0 DUP2 SWAP1 POP DUP2 PUSH0 MSTORE PUSH1 0x20 PUSH0 KECCAK256 SWAP1 POP SWAP2 SWAP1 POP JUMP JUMPDEST PUSH0 PUSH1 0x20 PUSH1 0x1F DUP4 ADD DIV SWAP1 POP SWAP2 SWAP1 POP JUMP JUMPDEST PUSH0 DUP3 DUP3 SHL SWAP1 POP SWAP3 SWAP2 POP POP JUMP JUMPDEST PUSH0 PUSH1 0x8 DUP4 MUL PUSH2 0x1F38 PUSH32 0xFFFFFFFFFFFFFFFFFFFFFFFFFFFFFFFFFFFFFFFFFFFFFFFFFFFFFFFFFFFFFFFF DUP3 PUSH2 0x1EFD JUMP JUMPDEST PUSH2 0x1F42 DUP7 DUP4 PUSH2 0x1EFD JUMP JUMPDEST SWAP6 POP DUP1 NOT DUP5 AND SWAP4 POP DUP1 DUP7 AND DUP5 OR SWAP3 POP POP POP SWAP4 SWAP3 POP POP POP JUMP JUMPDEST PUSH0 DUP2 SWAP1 POP SWAP2 SWAP1 POP JUMP JUMPDEST PUSH0 PUSH2 0x1F7D PUSH2 0x1F78 PUSH2 0x1F73 DUP5 PUSH2 0x1705 JUMP JUMPDEST PUSH2 0x1F5A JUMP JUMPDEST PUSH2 0x1705 JUMP JUMPDEST SWAP1 POP SWAP2 SWAP1 POP JUMP JUMPDEST PUSH0 DUP2 SWAP1 POP SWAP2 SWAP1 POP JUMP JUMPDEST PUSH2 0x1F96 DUP4 PUSH2 0x1F63 JUMP JUMPDEST PUSH2 0x1FAA PUSH2 0x1FA2 DUP3 PUSH2 0x1F84 JUMP JUMPDEST DUP5 DUP5 SLOAD PUSH2 0x1F09 JUMP JUMPDEST DUP3 SSTORE POP POP POP POP JUMP JUMPDEST PUSH0 SWAP1 JUMP JUMPDEST PUSH2 0x1FBE PUSH2 0x1FB2 JUMP JUMPDEST PUSH2 0x1FC9 DUP2 DUP5 DUP5 PUSH2 0x1F8D JUMP JUMPDEST POP POP POP JUMP JUMPDEST JUMPDEST DUP2 DUP2 LT ISZERO PUSH2 0x1FEC JUMPI PUSH2 0x1FE1 PUSH0 DUP3 PUSH2 0x1FB6 JUMP JUMPDEST PUSH1 0x1 DUP2 ADD SWAP1 POP PUSH2 0x1FCF JUMP JUMPDEST POP POP JUMP JUMPDEST PUSH1 0x1F DUP3 GT ISZERO PUSH2 0x2031 JUMPI PUSH2 0x2002 DUP2 PUSH2 0x1EDC JUMP JUMPDEST PUSH2 0x200B DUP5 PUSH2 0x1EEE JUMP JUMPDEST DUP2 ADD PUSH1 0x20 DUP6 LT ISZERO PUSH2 0x201A JUMPI DUP2 SWAP1 POP JUMPDEST PUSH2 0x202E PUSH2 0x2026 DUP6 PUSH2 0x1EEE JUMP JUMPDEST DUP4 ADD DUP3 PUSH2 0x1FCE JUMP JUMPDEST POP POP JUMPDEST POP POP POP JUMP JUMPDEST PUSH0 DUP3 DUP3 SHR SWAP1 POP SWAP3 SWAP2 POP POP JUMP JUMPDEST PUSH0 PUSH2 0x2051 PUSH0 NOT DUP5 PUSH1 0x8 MUL PUSH2 0x2036 JUMP JUMPDEST NOT DUP1 DUP4 AND SWAP2 POP POP SWAP3 SWAP2 POP POP JUMP JUMPDEST PUSH0 PUSH2 0x2069 DUP4 DUP4 PUSH2 0x2042 JUMP JUMPDEST SWAP2 POP DUP3 PUSH1 0x2 MUL DUP3 OR SWAP1 POP SWAP3 SWAP2 POP POP JUMP JUMPDEST PUSH2 0x2082 DUP3 PUSH2 0x15F0 JUMP JUMPDEST PUSH8 0xFFFFFFFFFFFFFFFF DUP2 GT ISZERO PUSH2 0x209B JUMPI PUSH2 0x209A PUSH2 0x1888 JUMP JUMPDEST JUMPDEST PUSH2 0x20A5 DUP3 SLOAD PUSH2 0x1D03 JUMP JUMPDEST PUSH2 0x20B0 DUP3 DUP3 DUP6 PUSH2 0x1FF0 JUMP JUMPDEST PUSH0 PUSH1 0x20 SWAP1 POP PUSH1 0x1F DUP4 GT PUSH1 0x1 DUP2 EQ PUSH2 0x20E1 JUMPI PUSH0 DUP5 ISZERO PUSH2 0x20CF JUMPI DUP3 DUP8 ADD MLOAD SWAP1 POP JUMPDEST PUSH2 0x20D9 DUP6 DUP3 PUSH2 0x205E JUMP JUMPDEST DUP7 SSTORE POP PUSH2 0x2140 JUMP JUMPDEST PUSH1 0x1F NOT DUP5 AND PUSH2 0x20EF DUP7 PUSH2 0x1EDC JUMP JUMPDEST PUSH0 JUMPDEST DUP3 DUP2 LT ISZERO PUSH2 0x2116 JUMPI DUP5 DUP10 ADD MLOAD DUP3 SSTORE PUSH1 0x1 DUP3 ADD SWAP2 POP PUSH1 0x20 DUP6 ADD SWAP5 POP PUSH1 0x20 DUP2 ADD SWAP1 POP PUSH2 0x20F1 JUMP JUMPDEST DUP7 DUP4 LT ISZERO PUSH2 0x2133 JUMPI DUP5 DUP10 ADD MLOAD PUSH2 0x212F PUSH1 0x1F DUP10 AND DUP3 PUSH2 0x2042 JUMP JUMPDEST DUP4 SSTORE POP JUMPDEST PUSH1 0x1 PUSH1 0x2 DUP9 MUL ADD DUP9 SSTORE POP POP POP JUMPDEST POP POP POP POP POP POP JUMP JUMPDEST PUSH32 0x566F74696E6720697320636C6F73656420666F72207468697320697373756500 PUSH0 DUP3 ADD MSTORE POP JUMP JUMPDEST PUSH0 PUSH2 0x217C PUSH1 0x1F DUP4 PUSH2 0x15FA JUMP JUMPDEST SWAP2 POP PUSH2 0x2187 DUP3 PUSH2 0x2148 JUMP JUMPDEST PUSH1 0x20 DUP3 ADD SWAP1 POP SWAP2 SWAP1 POP JUMP JUMPDEST PUSH0 PUSH1 0x20 DUP3 ADD SWAP1 POP DUP2 DUP2 SUB PUSH0 DUP4 ADD MSTORE PUSH2 0x21A9 DUP2 PUSH2 0x2170 JUMP JUMPDEST SWAP1 POP SWAP2 SWAP1 POP JUMP JUMPDEST PUSH32 0x416C726561647920766F746564206F6E20746869732069737375650000000000 PUSH0 DUP3 ADD MSTORE POP JUMP JUMPDEST PUSH0 PUSH2 0x21E4 PUSH1 0x1B DUP4 PUSH2 0x15FA JUMP JUMPDEST SWAP2 POP PUSH2 0x21EF DUP3 PUSH2 0x21B0 JUMP JUMPDEST PUSH1 0x20 DUP3 ADD SWAP1 POP SWAP2 SWAP1 POP JUMP JUMPDEST PUSH0 PUSH1 0x20 DUP3 ADD SWAP1 POP DUP2 DUP2 SUB PUSH0 DUP4 ADD MSTORE PUSH2 0x2211 DUP2 PUSH2 0x21D8 JUMP JUMPDEST SWAP1 POP SWAP2 SWAP1 POP JUMP JUMPDEST PUSH32 0x4E487B7100000000000000000000000000000000000000000000000000000000 PUSH0 MSTORE PUSH1 0x21 PUSH1 0x4 MSTORE PUSH1 0x24 PUSH0 REVERT JUMPDEST PUSH32 0x496E76616C696420766F7465206F7074696F6E00000000000000000000000000 PUSH0 DUP3 ADD MSTORE POP JUMP JUMPDEST PUSH0 PUSH2 0x2279 PUSH1 0x13 DUP4 PUSH2 0x15FA JUMP JUMPDEST SWAP2 POP PUSH2 0x2284 DUP3 PUSH2 0x2245 JUMP JUMPDEST PUSH1 0x20 DUP3 ADD SWAP1 POP SWAP2 SWAP1 POP JUMP JUMPDEST PUSH0 PUSH1 0x20 DUP3 ADD SWAP1 POP DUP2 DUP2 SUB PUSH0 DUP4 ADD MSTORE PUSH2 0x22A6 DUP2 PUSH2 0x226D JUMP JUMPDEST SWAP1 POP SWAP2 SWAP1 POP JUMP JUMPDEST PUSH0 PUSH2 0x22B7 DUP3 PUSH2 0x1705 JUMP JUMPDEST SWAP2 POP PUSH32 0xFFFFFFFFFFFFFFFFFFFFFFFFFFFFFFFFFFFFFFFFFFFFFFFFFFFFFFFFFFFFFFFF DUP3 SUB PUSH2 0x22E9 JUMPI PUSH2 0x22E8 PUSH2 0x1D33 JUMP JUMPDEST JUMPDEST PUSH1 0x1 DUP3 ADD SWAP1 POP SWAP2 SWAP1 POP JUMP JUMPDEST PUSH32 0x45524332303A2064656372656173656420616C6C6F77616E63652062656C6F77 PUSH0 DUP3 ADD MSTORE PUSH32 0x207A65726F000000000000000000000000000000000000000000000000000000 PUSH1 0x20 DUP3 ADD MSTORE POP JUMP JUMPDEST PUSH0 PUSH2 0x234E PUSH1 0x25 DUP4 PUSH2 0x15FA JUMP JUMPDEST SWAP2 POP PUSH2 0x2359 DUP3 PUSH2 0x22F4 JUMP JUMPDEST PUSH1 0x40 DUP3 ADD SWAP1 POP SWAP2 SWAP1 POP JUMP JUMPDEST PUSH0 PUSH1 0x20 DUP3 ADD SWAP1 POP DUP2 DUP2 SUB PUSH0 DUP4 ADD MSTORE PUSH2 0x237B DUP2 PUSH2 0x2342 JUMP JUMPDEST SWAP1 POP SWAP2 SWAP1 POP JUMP JUMPDEST PUSH32 0x45524332303A20617070726F76652066726F6D20746865207A65726F20616464 PUSH0 DUP3 ADD MSTORE PUSH32 0x7265737300000000000000000000000000000000000000000000000000000000 PUSH1 0x20 DUP3 ADD MSTORE POP JUMP JUMPDEST PUSH0 PUSH2 0x23DC PUSH1 0x24 DUP4 PUSH2 0x15FA JUMP JUMPDEST SWAP2 POP PUSH2 0x23E7 DUP3 PUSH2 0x2382 JUMP JUMPDEST PUSH1 0x40 DUP3 ADD SWAP1 POP SWAP2 SWAP1 POP JUMP JUMPDEST PUSH0 PUSH1 0x20 DUP3 ADD SWAP1 POP DUP2 DUP2 SUB PUSH0 DUP4 ADD MSTORE PUSH2 0x2409 DUP2 PUSH2 0x23D0 JUMP JUMPDEST SWAP1 POP SWAP2 SWAP1 POP JUMP JUMPDEST PUSH32 0x45524332303A20617070726F766520746F20746865207A65726F206164647265 PUSH0 DUP3 ADD MSTORE PUSH32 0x7373000000000000000000000000000000000000000000000000000000000000 PUSH1 0x20 DUP3 ADD MSTORE POP JUMP JUMPDEST PUSH0 PUSH2 0x246A PUSH1 0x22 DUP4 PUSH2 0x15FA JUMP JUMPDEST SWAP2 POP PUSH2 0x2475 DUP3 PUSH2 0x2410 JUMP JUMPDEST PUSH1 0x40 DUP3 ADD SWAP1 POP SWAP2 SWAP1 POP JUMP JUMPDEST PUSH0 PUSH1 0x20 DUP3 ADD SWAP1 POP DUP2 DUP2 SUB PUSH0 DUP4 ADD MSTORE PUSH2 0x2497 DUP2 PUSH2 0x245E JUMP JUMPDEST SWAP1 POP SWAP2 SWAP1 POP JUMP JUMPDEST PUSH32 0x45524332303A20696E73756666696369656E7420616C6C6F77616E6365000000 PUSH0 DUP3 ADD MSTORE POP JUMP JUMPDEST PUSH0 PUSH2 0x24D2 PUSH1 0x1D DUP4 PUSH2 0x15FA JUMP JUMPDEST SWAP2 POP PUSH2 0x24DD DUP3 PUSH2 0x249E JUMP JUMPDEST PUSH1 0x20 DUP3 ADD SWAP1 POP SWAP2 SWAP1 POP JUMP JUMPDEST PUSH0 PUSH1 0x20 DUP3 ADD SWAP1 POP DUP2 DUP2 SUB PUSH0 DUP4 ADD MSTORE PUSH2 0x24FF DUP2 PUSH2 0x24C6 JUMP JUMPDEST SWAP1 POP SWAP2 SWAP1 POP JUMP JUMPDEST PUSH32 0x45524332303A207472616E736665722066726F6D20746865207A65726F206164 PUSH0 DUP3 ADD MSTORE PUSH32 0x6472657373000000000000000000000000000000000000000000000000000000 PUSH1 0x20 DUP3 ADD MSTORE POP JUMP JUMPDEST PUSH0 PUSH2 0x2560 PUSH1 0x25 DUP4 PUSH2 0x15FA JUMP JUMPDEST SWAP2 POP PUSH2 0x256B DUP3 PUSH2 0x2506 JUMP JUMPDEST PUSH1 0x40 DUP3 ADD SWAP1 POP SWAP2 SWAP1 POP JUMP JUMPDEST PUSH0 PUSH1 0x20 DUP3 ADD SWAP1 POP DUP2 DUP2 SUB PUSH0 DUP4 ADD MSTORE PUSH2 0x258D DUP2 PUSH2 0x2554 JUMP JUMPDEST SWAP1 POP SWAP2 SWAP1 POP JUMP JUMPDEST PUSH32 0x45524332303A207472616E7366657220746F20746865207A65726F2061646472 PUSH0 DUP3 ADD MSTORE PUSH32 0x6573730000000000000000000000000000000000000000000000000000000000 PUSH1 0x20 DUP3 ADD MSTORE POP JUMP JUMPDEST PUSH0 PUSH2 0x25EE PUSH1 0x23 DUP4 PUSH2 0x15FA JUMP JUMPDEST SWAP2 POP PUSH2 0x25F9 DUP3 PUSH2 0x2594 JUMP JUMPDEST PUSH1 0x40 DUP3 ADD SWAP1 POP SWAP2 SWAP1 POP JUMP JUMPDEST PUSH0 PUSH1 0x20 DUP3 ADD SWAP1 POP DUP2 DUP2 SUB PUSH0 DUP4 ADD MSTORE PUSH2 0x261B DUP2 PUSH2 0x25E2 JUMP JUMPDEST SWAP1 POP SWAP2 SWAP1 POP JUMP JUMPDEST PUSH32 0x45524332303A207472616E7366657220616D6F756E7420657863656564732062 PUSH0 DUP3 ADD MSTORE PUSH32 0x616C616E63650000000000000000000000000000000000000000000000000000 PUSH1 0x20 DUP3 ADD MSTORE POP JUMP JUMPDEST PUSH0 PUSH2 0x267C PUSH1 0x26 DUP4 PUSH2 0x15FA JUMP JUMPDEST SWAP2 POP PUSH2 0x2687 DUP3 PUSH2 0x2622 JUMP JUMPDEST PUSH1 0x40 DUP3 ADD SWAP1 POP SWAP2 SWAP1 POP JUMP JUMPDEST PUSH0 PUSH1 0x20 DUP3 ADD SWAP1 POP DUP2 DUP2 SUB PUSH0 DUP4 ADD MSTORE PUSH2 0x26A9 DUP2 PUSH2 0x2670 JUMP JUMPDEST SWAP1 POP SWAP2 SWAP1 POP JUMP JUMPDEST PUSH32 0x456E756D657261626C655365743A20696E646578206F7574206F6620626F756E PUSH0 DUP3 ADD MSTORE PUSH32 0x6473000000000000000000000000000000000000000000000000000000000000 PUSH1 0x20 DUP3 ADD MSTORE POP JUMP JUMPDEST PUSH0 PUSH2 0x270A PUSH1 0x22 DUP4 PUSH2 0x15FA JUMP JUMPDEST SWAP2 POP PUSH2 0x2715 DUP3 PUSH2 0x26B0 JUMP JUMPDEST PUSH1 0x40 DUP3 ADD SWAP1 POP SWAP2 SWAP1 POP JUMP JUMPDEST PUSH0 PUSH1 0x20 DUP3 ADD SWAP1 POP DUP2 DUP2 SUB PUSH0 DUP4 ADD MSTORE PUSH2 0x2737 DUP2 PUSH2 0x26FE JUMP JUMPDEST SWAP1 POP SWAP2 SWAP1 POP JUMP INVALID LOG2 PUSH5 0x6970667358 0x22 SLT KECCAK256 0xB5 MOD PUSH17 0xBB34A2A3D22A5D0D40EC0B8CFAA0F323AB 0x4F CREATE 0xB4 SGT ADDRESS PUSH11 0x9799F015A11764736F6C63 NUMBER STOP ADDMOD EQ STOP CALLER "
				},
				"gasEstimates": {
					"creation": {
						"codeDepositCost": "2020000",
						"executionCost": "infinite",
						"totalCost": "infinite"
					},
					"external": {
						"allowance(address,address)": "infinite",
						"approve(address,uint256)": "infinite",
						"balanceOf(address)": "2918",
						"balances(address)": "2914",
						"claim()": "infinite",
						"claimAmount()": "2448",
						"claimedAmount()": "2536",
						"createIssue(string,uint256)": "infinite",
						"decimals()": "361",
						"decreaseAllowance(address,uint256)": "infinite",
						"getIssue(uint256)": "infinite",
						"hasClaimed(address)": "2944",
						"increaseAllowance(address,uint256)": "infinite",
						"maxSupply()": "2513",
						"name()": "infinite",
						"symbol()": "infinite",
						"totalSupply()": "2500",
						"transfer(address,uint256)": "infinite",
						"transferFrom(address,address,uint256)": "infinite",
						"vote(uint256,uint8)": "infinite"
					}
				},
				"methodIdentifiers": {
					"allowance(address,address)": "dd62ed3e",
					"approve(address,uint256)": "095ea7b3",
					"balanceOf(address)": "70a08231",
					"balances(address)": "27e235e3",
					"claim()": "4e71d92d",
					"claimAmount()": "830953ab",
					"claimedAmount()": "9668ceb8",
					"createIssue(string,uint256)": "8615d855",
					"decimals()": "313ce567",
					"decreaseAllowance(address,uint256)": "a457c2d7",
					"getIssue(uint256)": "976b3113",
					"hasClaimed(address)": "73b2e80e",
					"increaseAllowance(address,uint256)": "39509351",
					"maxSupply()": "d5abeb01",
					"name()": "06fdde03",
					"symbol()": "95d89b41",
					"totalSupply()": "18160ddd",
					"transfer(address,uint256)": "a9059cbb",
					"transferFrom(address,address,uint256)": "23b872dd",
					"vote(uint256,uint8)": "943e8216"
				}
			},
			"storageLayout": {
				"storage": [
					{
						"astId": 963,
						"contract": "contracts/WeightedVoting.sol:WeightedVoting",
						"label": "_balances",
						"offset": 0,
						"slot": "0",
						"type": "t_mapping(t_address,t_uint256)"
					},
					{
						"astId": 969,
						"contract": "contracts/WeightedVoting.sol:WeightedVoting",
						"label": "_allowances",
						"offset": 0,
						"slot": "1",
						"type": "t_mapping(t_address,t_mapping(t_address,t_uint256))"
					},
					{
						"astId": 971,
						"contract": "contracts/WeightedVoting.sol:WeightedVoting",
						"label": "_totalSupply",
						"offset": 0,
						"slot": "2",
						"type": "t_uint256"
					},
					{
						"astId": 973,
						"contract": "contracts/WeightedVoting.sol:WeightedVoting",
						"label": "_name",
						"offset": 0,
						"slot": "3",
						"type": "t_string_storage"
					},
					{
						"astId": 975,
						"contract": "contracts/WeightedVoting.sol:WeightedVoting",
						"label": "_symbol",
						"offset": 0,
						"slot": "4",
						"type": "t_string_storage"
					},
					{
						"astId": 82,
						"contract": "contracts/WeightedVoting.sol:WeightedVoting",
						"label": "maxSupply",
						"offset": 0,
						"slot": "5",
						"type": "t_uint256"
					},
					{
						"astId": 84,
						"contract": "contracts/WeightedVoting.sol:WeightedVoting",
						"label": "claimAmount",
						"offset": 0,
						"slot": "6",
						"type": "t_uint256"
					},
					{
						"astId": 86,
						"contract": "contracts/WeightedVoting.sol:WeightedVoting",
						"label": "claimedAmount",
						"offset": 0,
						"slot": "7",
						"type": "t_uint256"
					},
					{
						"astId": 90,
						"contract": "contracts/WeightedVoting.sol:WeightedVoting",
						"label": "balances",
						"offset": 0,
						"slot": "8",
						"type": "t_mapping(t_address,t_uint256)"
					},
					{
						"astId": 94,
						"contract": "contracts/WeightedVoting.sol:WeightedVoting",
						"label": "hasClaimed",
						"offset": 0,
						"slot": "9",
						"type": "t_mapping(t_address,t_bool)"
					},
					{
						"astId": 123,
						"contract": "contracts/WeightedVoting.sol:WeightedVoting",
						"label": "issues",
						"offset": 0,
						"slot": "10",
						"type": "t_array(t_struct(Issue)23_storage)dyn_storage"
					}
				],
				"types": {
					"t_address": {
						"encoding": "inplace",
						"label": "address",
						"numberOfBytes": "20"
					},
					"t_array(t_bytes32)dyn_storage": {
						"base": "t_bytes32",
						"encoding": "dynamic_array",
						"label": "bytes32[]",
						"numberOfBytes": "32"
					},
					"t_array(t_struct(Issue)23_storage)dyn_storage": {
						"base": "t_struct(Issue)23_storage",
						"encoding": "dynamic_array",
						"label": "struct WeightedVotingLibrary.Issue[]",
						"numberOfBytes": "32"
					},
					"t_bool": {
						"encoding": "inplace",
						"label": "bool",
						"numberOfBytes": "1"
					},
					"t_bytes32": {
						"encoding": "inplace",
						"label": "bytes32",
						"numberOfBytes": "32"
					},
					"t_mapping(t_address,t_bool)": {
						"encoding": "mapping",
						"key": "t_address",
						"label": "mapping(address => bool)",
						"numberOfBytes": "32",
						"value": "t_bool"
					},
					"t_mapping(t_address,t_mapping(t_address,t_uint256))": {
						"encoding": "mapping",
						"key": "t_address",
						"label": "mapping(address => mapping(address => uint256))",
						"numberOfBytes": "32",
						"value": "t_mapping(t_address,t_uint256)"
					},
					"t_mapping(t_address,t_uint256)": {
						"encoding": "mapping",
						"key": "t_address",
						"label": "mapping(address => uint256)",
						"numberOfBytes": "32",
						"value": "t_uint256"
					},
					"t_mapping(t_bytes32,t_uint256)": {
						"encoding": "mapping",
						"key": "t_bytes32",
						"label": "mapping(bytes32 => uint256)",
						"numberOfBytes": "32",
						"value": "t_uint256"
					},
					"t_string_storage": {
						"encoding": "bytes",
						"label": "string",
						"numberOfBytes": "32"
					},
					"t_struct(AddressSet)720_storage": {
						"encoding": "inplace",
						"label": "struct EnumerableSet.AddressSet",
						"members": [
							{
								"astId": 719,
								"contract": "contracts/WeightedVoting.sol:WeightedVoting",
								"label": "_inner",
								"offset": 0,
								"slot": "0",
								"type": "t_struct(Set)443_storage"
							}
						],
						"numberOfBytes": "64"
					},
					"t_struct(Issue)23_storage": {
						"encoding": "inplace",
						"label": "struct WeightedVotingLibrary.Issue",
						"members": [
							{
								"astId": 6,
								"contract": "contracts/WeightedVoting.sol:WeightedVoting",
								"label": "voters",
								"offset": 0,
								"slot": "0",
								"type": "t_struct(AddressSet)720_storage"
							},
							{
								"astId": 8,
								"contract": "contracts/WeightedVoting.sol:WeightedVoting",
								"label": "issueDesc",
								"offset": 0,
								"slot": "2",
								"type": "t_string_storage"
							},
							{
								"astId": 10,
								"contract": "contracts/WeightedVoting.sol:WeightedVoting",
								"label": "votesFor",
								"offset": 0,
								"slot": "3",
								"type": "t_uint256"
							},
							{
								"astId": 12,
								"contract": "contracts/WeightedVoting.sol:WeightedVoting",
								"label": "votesAgainst",
								"offset": 0,
								"slot": "4",
								"type": "t_uint256"
							},
							{
								"astId": 14,
								"contract": "contracts/WeightedVoting.sol:WeightedVoting",
								"label": "votesAbstain",
								"offset": 0,
								"slot": "5",
								"type": "t_uint256"
							},
							{
								"astId": 16,
								"contract": "contracts/WeightedVoting.sol:WeightedVoting",
								"label": "totalVotes",
								"offset": 0,
								"slot": "6",
								"type": "t_uint256"
							},
							{
								"astId": 18,
								"contract": "contracts/WeightedVoting.sol:WeightedVoting",
								"label": "quorum",
								"offset": 0,
								"slot": "7",
								"type": "t_uint256"
							},
							{
								"astId": 20,
								"contract": "contracts/WeightedVoting.sol:WeightedVoting",
								"label": "passed",
								"offset": 0,
								"slot": "8",
								"type": "t_bool"
							},
							{
								"astId": 22,
								"contract": "contracts/WeightedVoting.sol:WeightedVoting",
								"label": "closed",
								"offset": 1,
								"slot": "8",
								"type": "t_bool"
							}
						],
						"numberOfBytes": "288"
					},
					"t_struct(Set)443_storage": {
						"encoding": "inplace",
						"label": "struct EnumerableSet.Set",
						"members": [
							{
								"astId": 438,
								"contract": "contracts/WeightedVoting.sol:WeightedVoting",
								"label": "_values",
								"offset": 0,
								"slot": "0",
								"type": "t_array(t_bytes32)dyn_storage"
							},
							{
								"astId": 442,
								"contract": "contracts/WeightedVoting.sol:WeightedVoting",
								"label": "_indexes",
								"offset": 0,
								"slot": "1",
								"type": "t_mapping(t_bytes32,t_uint256)"
							}
						],
						"numberOfBytes": "64"
					},
					"t_uint256": {
						"encoding": "inplace",
						"label": "uint256",
						"numberOfBytes": "32"
					}
				}
			},
			"userdoc": {
				"kind": "user",
				"methods": {},
				"version": 1
			}
		}
	}
}