{
	"contracts/Imports.sol": {
		"Imports": {
			"abi": [
				{
					"inputs": [],
					"name": "numberOfVisitors",
					"outputs": [
						{
							"internalType": "uint256",
							"name": "",
							"type": "uint256"
						}
					],
					"stateMutability": "view",
					"type": "function"
				},
				{
					"inputs": [],
					"name": "registerVisitor",
					"outputs": [],
					"stateMutability": "nonpayable",
					"type": "function"
				}
			],
			"devdoc": {
				"kind": "dev",
				"methods": {},
				"version": 1
			},
			"evm": {
				"assembly": "    /* \"contracts/Imports.sol\":178:491  contract Imports {... */\n  mstore(0x40, 0x80)\n  callvalue\n  dup1\n  iszero\n  tag_1\n  jumpi\n  0x00\n  dup1\n  revert\ntag_1:\n  pop\n  dataSize(sub_0)\n  dup1\n  dataOffset(sub_0)\n  0x00\n  codecopy\n  0x00\n  return\nstop\n\nsub_0: assembly {\n        /* \"contracts/Imports.sol\":178:491  contract Imports {... */\n      mstore(0x40, 0x80)\n      callvalue\n      dup1\n      iszero\n      tag_1\n      jumpi\n      0x00\n      dup1\n      revert\n    tag_1:\n      pop\n      jumpi(tag_2, lt(calldatasize, 0x04))\n      shr(0xe0, calldataload(0x00))\n      dup1\n      0x463065de\n      eq\n      tag_3\n      jumpi\n      dup1\n      0xe4683b4f\n      eq\n      tag_4\n      jumpi\n    tag_2:\n      0x00\n      dup1\n      revert\n        /* \"contracts/Imports.sol\":304:381  function registerVisitor() external {... */\n    tag_3:\n      tag_5\n      tag_6\n      jump\t// in\n    tag_5:\n      stop\n        /* \"contracts/Imports.sol\":391:489  function numberOfVisitors() external  view returns(uint) {... */\n    tag_4:\n      tag_7\n      tag_8\n      jump\t// in\n    tag_7:\n      mload(0x40)\n      tag_9\n      swap2\n      swap1\n      tag_10\n      jump\t// in\n    tag_9:\n      mload(0x40)\n      dup1\n      swap2\n      sub\n      swap1\n      return\n        /* \"contracts/Imports.sol\":304:381  function registerVisitor() external {... */\n    tag_6:\n        /* \"contracts/Imports.sol\":350:374  visitors.add(msg.sender) */\n      tag_12\n        /* \"contracts/Imports.sol\":363:373  msg.sender */\n      caller\n        /* \"contracts/Imports.sol\":350:358  visitors */\n      0x00\n        /* \"contracts/Imports.sol\":350:362  visitors.add */\n      tag_13\n      swap1\n        /* \"contracts/Imports.sol\":350:374  visitors.add(msg.sender) */\n      swap2\n      swap1\n      0xffffffff\n      and\n      jump\t// in\n    tag_12:\n      pop\n        /* \"contracts/Imports.sol\":304:381  function registerVisitor() external {... */\n      jump\t// out\n        /* \"contracts/Imports.sol\":391:489  function numberOfVisitors() external  view returns(uint) {... */\n    tag_8:\n        /* \"contracts/Imports.sol\":442:446  uint */\n      0x00\n        /* \"contracts/Imports.sol\":465:482  visitors.length() */\n      tag_15\n        /* \"contracts/Imports.sol\":465:473  visitors */\n      0x00\n        /* \"contracts/Imports.sol\":465:480  visitors.length */\n      tag_16\n        /* \"contracts/Imports.sol\":465:482  visitors.length() */\n      jump\t// in\n    tag_15:\n        /* \"contracts/Imports.sol\":458:482  return visitors.length() */\n      swap1\n      pop\n        /* \"contracts/Imports.sol\":391:489  function numberOfVisitors() external  view returns(uint) {... */\n      swap1\n      jump\t// out\n        /* \"https://github.com/OpenZeppelin/openzeppelin-contracts/blob/v4.0.0/contracts/utils/structs/EnumerableSet.sol\":6421:6571  function add(AddressSet storage set, address value) internal returns (bool) {... */\n    tag_13:\n        /* \"https://github.com/OpenZeppelin/openzeppelin-contracts/blob/v4.0.0/contracts/utils/structs/EnumerableSet.sol\":6491:6495  bool */\n      0x00\n        /* \"https://github.com/OpenZeppelin/openzeppelin-contracts/blob/v4.0.0/contracts/utils/structs/EnumerableSet.sol\":6514:6564  _add(set._inner, bytes32(uint256(uint160(value)))) */\n      tag_18\n        /* \"https://github.com/OpenZeppelin/openzeppelin-contracts/blob/v4.0.0/contracts/utils/structs/EnumerableSet.sol\":6519:6522  set */\n      dup4\n        /* \"https://github.com/OpenZeppelin/openzeppelin-contracts/blob/v4.0.0/contracts/utils/structs/EnumerableSet.sol\":6519:6529  set._inner */\n      0x00\n      add\n        /* \"https://github.com/OpenZeppelin/openzeppelin-contracts/blob/v4.0.0/contracts/utils/structs/EnumerableSet.sol\":6555:6560  value */\n      dup4\n        /* \"https://github.com/OpenZeppelin/openzeppelin-contracts/blob/v4.0.0/contracts/utils/structs/EnumerableSet.sol\":6539:6562  uint256(uint160(value)) */\n      0xffffffffffffffffffffffffffffffffffffffff\n      and\n        /* \"https://github.com/OpenZeppelin/openzeppelin-contracts/blob/v4.0.0/contracts/utils/structs/EnumerableSet.sol\":6531:6563  bytes32(uint256(uint160(value))) */\n      0x00\n      shl\n        /* \"https://github.com/OpenZeppelin/openzeppelin-contracts/blob/v4.0.0/contracts/utils/structs/EnumerableSet.sol\":6514:6518  _add */\n      tag_19\n        /* \"https://github.com/OpenZeppelin/openzeppelin-contracts/blob/v4.0.0/contracts/utils/structs/EnumerableSet.sol\":6514:6564  _add(set._inner, bytes32(uint256(uint160(value)))) */\n      jump\t// in\n    tag_18:\n        /* \"https://github.com/OpenZeppelin/openzeppelin-contracts/blob/v4.0.0/contracts/utils/structs/EnumerableSet.sol\":6507:6564  return _add(set._inner, bytes32(uint256(uint160(value)))) */\n      swap1\n      pop\n        /* \"https://github.com/OpenZeppelin/openzeppelin-contracts/blob/v4.0.0/contracts/utils/structs/EnumerableSet.sol\":6421:6571  function add(AddressSet storage set, address value) internal returns (bool) {... */\n      swap3\n      swap2\n      pop\n      pop\n      jump\t// out\n        /* \"https://github.com/OpenZeppelin/openzeppelin-contracts/blob/v4.0.0/contracts/utils/structs/EnumerableSet.sol\":7222:7337  function length(AddressSet storage set) internal view returns (uint256) {... */\n    tag_16:\n        /* \"https://github.com/OpenZeppelin/openzeppelin-contracts/blob/v4.0.0/contracts/utils/structs/EnumerableSet.sol\":7285:7292  uint256 */\n      0x00\n        /* \"https://github.com/OpenZeppelin/openzeppelin-contracts/blob/v4.0.0/contracts/utils/structs/EnumerableSet.sol\":7311:7330  _length(set._inner) */\n      tag_21\n        /* \"https://github.com/OpenZeppelin/openzeppelin-contracts/blob/v4.0.0/contracts/utils/structs/EnumerableSet.sol\":7319:7322  set */\n      dup3\n        /* \"https://github.com/OpenZeppelin/openzeppelin-contracts/blob/v4.0.0/contracts/utils/structs/EnumerableSet.sol\":7319:7329  set._inner */\n      0x00\n      add\n        /* \"https://github.com/OpenZeppelin/openzeppelin-contracts/blob/v4.0.0/contracts/utils/structs/EnumerableSet.sol\":7311:7318  _length */\n      tag_22\n        /* \"https://github.com/OpenZeppelin/openzeppelin-contracts/blob/v4.0.0/contracts/utils/structs/EnumerableSet.sol\":7311:7330  _length(set._inner) */\n      jump\t// in\n    tag_21:\n        /* \"https://github.com/OpenZeppelin/openzeppelin-contracts/blob/v4.0.0/contracts/utils/structs/EnumerableSet.sol\":7304:7330  return _length(set._inner) */\n      swap1\n      pop\n        /* \"https://github.com/OpenZeppelin/openzeppelin-contracts/blob/v4.0.0/contracts/utils/structs/EnumerableSet.sol\":7222:7337  function length(AddressSet storage set) internal view returns (uint256) {... */\n      swap2\n      swap1\n      pop\n      jump\t// out\n        /* \"https://github.com/OpenZeppelin/openzeppelin-contracts/blob/v4.0.0/contracts/utils/structs/EnumerableSet.sol\":1632:2036  function _add(Set storage set, bytes32 value) private returns (bool) {... */\n    tag_19:\n        /* \"https://github.com/OpenZeppelin/openzeppelin-contracts/blob/v4.0.0/contracts/utils/structs/EnumerableSet.sol\":1695:1699  bool */\n      0x00\n        /* \"https://github.com/OpenZeppelin/openzeppelin-contracts/blob/v4.0.0/contracts/utils/structs/EnumerableSet.sol\":1716:1737  _contains(set, value) */\n      tag_24\n        /* \"https://github.com/OpenZeppelin/openzeppelin-contracts/blob/v4.0.0/contracts/utils/structs/EnumerableSet.sol\":1726:1729  set */\n      dup4\n        /* \"https://github.com/OpenZeppelin/openzeppelin-contracts/blob/v4.0.0/contracts/utils/structs/EnumerableSet.sol\":1731:1736  value */\n      dup4\n        /* \"https://github.com/OpenZeppelin/openzeppelin-contracts/blob/v4.0.0/contracts/utils/structs/EnumerableSet.sol\":1716:1725  _contains */\n      tag_25\n        /* \"https://github.com/OpenZeppelin/openzeppelin-contracts/blob/v4.0.0/contracts/utils/structs/EnumerableSet.sol\":1716:1737  _contains(set, value) */\n      jump\t// in\n    tag_24:\n        /* \"https://github.com/OpenZeppelin/openzeppelin-contracts/blob/v4.0.0/contracts/utils/structs/EnumerableSet.sol\":1711:2030  if (!_contains(set, value)) {... */\n      tag_26\n      jumpi\n        /* \"https://github.com/OpenZeppelin/openzeppelin-contracts/blob/v4.0.0/contracts/utils/structs/EnumerableSet.sol\":1753:1756  set */\n      dup3\n        /* \"https://github.com/OpenZeppelin/openzeppelin-contracts/blob/v4.0.0/contracts/utils/structs/EnumerableSet.sol\":1753:1764  set._values */\n      0x00\n      add\n        /* \"https://github.com/OpenZeppelin/openzeppelin-contracts/blob/v4.0.0/contracts/utils/structs/EnumerableSet.sol\":1770:1775  value */\n      dup3\n        /* \"https://github.com/OpenZeppelin/openzeppelin-contracts/blob/v4.0.0/contracts/utils/structs/EnumerableSet.sol\":1753:1776  set._values.push(value) */\n      swap1\n      dup1\n      0x01\n      dup2\n      sload\n      add\n      dup1\n      dup3\n      sstore\n      dup1\n      swap2\n      pop\n      pop\n      0x01\n      swap1\n      sub\n      swap1\n      0x00\n      mstore\n      keccak256(0x00, 0x20)\n      add\n      0x00\n      swap1\n      swap2\n      swap1\n      swap2\n      swap1\n      swap2\n      pop\n      sstore\n        /* \"https://github.com/OpenZeppelin/openzeppelin-contracts/blob/v4.0.0/contracts/utils/structs/EnumerableSet.sol\":1933:1936  set */\n      dup3\n        /* \"https://github.com/OpenZeppelin/openzeppelin-contracts/blob/v4.0.0/contracts/utils/structs/EnumerableSet.sol\":1933:1944  set._values */\n      0x00\n      add\n        /* \"https://github.com/OpenZeppelin/openzeppelin-contracts/blob/v4.0.0/contracts/utils/structs/EnumerableSet.sol\":1933:1951  set._values.length */\n      dup1\n      sload\n      swap1\n      pop\n        /* \"https://github.com/OpenZeppelin/openzeppelin-contracts/blob/v4.0.0/contracts/utils/structs/EnumerableSet.sol\":1911:1914  set */\n      dup4\n        /* \"https://github.com/OpenZeppelin/openzeppelin-contracts/blob/v4.0.0/contracts/utils/structs/EnumerableSet.sol\":1911:1923  set._indexes */\n      0x01\n      add\n        /* \"https://github.com/OpenZeppelin/openzeppelin-contracts/blob/v4.0.0/contracts/utils/structs/EnumerableSet.sol\":1911:1930  set._indexes[value] */\n      0x00\n        /* \"https://github.com/OpenZeppelin/openzeppelin-contracts/blob/v4.0.0/contracts/utils/structs/EnumerableSet.sol\":1924:1929  value */\n      dup5\n        /* \"https://github.com/OpenZeppelin/openzeppelin-contracts/blob/v4.0.0/contracts/utils/structs/EnumerableSet.sol\":1911:1930  set._indexes[value] */\n      dup2\n      mstore\n      0x20\n      add\n      swap1\n      dup2\n      mstore\n      0x20\n      add\n      0x00\n      keccak256\n        /* \"https://github.com/OpenZeppelin/openzeppelin-contracts/blob/v4.0.0/contracts/utils/structs/EnumerableSet.sol\":1911:1951  set._indexes[value] = set._values.length */\n      dup2\n      swap1\n      sstore\n      pop\n        /* \"https://github.com/OpenZeppelin/openzeppelin-contracts/blob/v4.0.0/contracts/utils/structs/EnumerableSet.sol\":1972:1976  true */\n      0x01\n        /* \"https://github.com/OpenZeppelin/openzeppelin-contracts/blob/v4.0.0/contracts/utils/structs/EnumerableSet.sol\":1965:1976  return true */\n      swap1\n      pop\n      jump(tag_23)\n        /* \"https://github.com/OpenZeppelin/openzeppelin-contracts/blob/v4.0.0/contracts/utils/structs/EnumerableSet.sol\":1711:2030  if (!_contains(set, value)) {... */\n    tag_26:\n        /* \"https://github.com/OpenZeppelin/openzeppelin-contracts/blob/v4.0.0/contracts/utils/structs/EnumerableSet.sol\":2014:2019  false */\n      0x00\n        /* \"https://github.com/OpenZeppelin/openzeppelin-contracts/blob/v4.0.0/contracts/utils/structs/EnumerableSet.sol\":2007:2019  return false */\n      swap1\n      pop\n        /* \"https://github.com/OpenZeppelin/openzeppelin-contracts/blob/v4.0.0/contracts/utils/structs/EnumerableSet.sol\":1632:2036  function _add(Set storage set, bytes32 value) private returns (bool) {... */\n    tag_23:\n      swap3\n      swap2\n      pop\n      pop\n      jump\t// out\n        /* \"https://github.com/OpenZeppelin/openzeppelin-contracts/blob/v4.0.0/contracts/utils/structs/EnumerableSet.sol\":4005:4112  function _length(Set storage set) private view returns (uint256) {... */\n    tag_22:\n        /* \"https://github.com/OpenZeppelin/openzeppelin-contracts/blob/v4.0.0/contracts/utils/structs/EnumerableSet.sol\":4061:4068  uint256 */\n      0x00\n        /* \"https://github.com/OpenZeppelin/openzeppelin-contracts/blob/v4.0.0/contracts/utils/structs/EnumerableSet.sol\":4087:4090  set */\n      dup2\n        /* \"https://github.com/OpenZeppelin/openzeppelin-contracts/blob/v4.0.0/contracts/utils/structs/EnumerableSet.sol\":4087:4098  set._values */\n      0x00\n      add\n        /* \"https://github.com/OpenZeppelin/openzeppelin-contracts/blob/v4.0.0/contracts/utils/structs/EnumerableSet.sol\":4087:4105  set._values.length */\n      dup1\n      sload\n      swap1\n      pop\n        /* \"https://github.com/OpenZeppelin/openzeppelin-contracts/blob/v4.0.0/contracts/utils/structs/EnumerableSet.sol\":4080:4105  return set._values.length */\n      swap1\n      pop\n        /* \"https://github.com/OpenZeppelin/openzeppelin-contracts/blob/v4.0.0/contracts/utils/structs/EnumerableSet.sol\":4005:4112  function _length(Set storage set) private view returns (uint256) {... */\n      swap2\n      swap1\n      pop\n      jump\t// out\n        /* \"https://github.com/OpenZeppelin/openzeppelin-contracts/blob/v4.0.0/contracts/utils/structs/EnumerableSet.sol\":3797:3924  function _contains(Set storage set, bytes32 value) private view returns (bool) {... */\n    tag_25:\n        /* \"https://github.com/OpenZeppelin/openzeppelin-contracts/blob/v4.0.0/contracts/utils/structs/EnumerableSet.sol\":3870:3874  bool */\n      0x00\n        /* \"https://github.com/OpenZeppelin/openzeppelin-contracts/blob/v4.0.0/contracts/utils/structs/EnumerableSet.sol\":3916:3917  0 */\n      dup1\n        /* \"https://github.com/OpenZeppelin/openzeppelin-contracts/blob/v4.0.0/contracts/utils/structs/EnumerableSet.sol\":3893:3896  set */\n      dup4\n        /* \"https://github.com/OpenZeppelin/openzeppelin-contracts/blob/v4.0.0/contracts/utils/structs/EnumerableSet.sol\":3893:3905  set._indexes */\n      0x01\n      add\n        /* \"https://github.com/OpenZeppelin/openzeppelin-contracts/blob/v4.0.0/contracts/utils/structs/EnumerableSet.sol\":3893:3912  set._indexes[value] */\n      0x00\n        /* \"https://github.com/OpenZeppelin/openzeppelin-contracts/blob/v4.0.0/contracts/utils/structs/EnumerableSet.sol\":3906:3911  value */\n      dup5\n        /* \"https://github.com/OpenZeppelin/openzeppelin-contracts/blob/v4.0.0/contracts/utils/structs/EnumerableSet.sol\":3893:3912  set._indexes[value] */\n      dup2\n      mstore\n      0x20\n      add\n      swap1\n      dup2\n      mstore\n      0x20\n      add\n      0x00\n      keccak256\n      sload\n        /* \"https://github.com/OpenZeppelin/openzeppelin-contracts/blob/v4.0.0/contracts/utils/structs/EnumerableSet.sol\":3893:3917  set._indexes[value] != 0 */\n      eq\n      iszero\n        /* \"https://github.com/OpenZeppelin/openzeppelin-contracts/blob/v4.0.0/contracts/utils/structs/EnumerableSet.sol\":3886:3917  return set._indexes[value] != 0 */\n      swap1\n      pop\n        /* \"https://github.com/OpenZeppelin/openzeppelin-contracts/blob/v4.0.0/contracts/utils/structs/EnumerableSet.sol\":3797:3924  function _contains(Set storage set, bytes32 value) private view returns (bool) {... */\n      swap3\n      swap2\n      pop\n      pop\n      jump\t// out\n        /* \"#utility.yul\":7:84   */\n    tag_31:\n        /* \"#utility.yul\":44:51   */\n      0x00\n        /* \"#utility.yul\":73:78   */\n      dup2\n        /* \"#utility.yul\":62:78   */\n      swap1\n      pop\n        /* \"#utility.yul\":7:84   */\n      swap2\n      swap1\n      pop\n      jump\t// out\n        /* \"#utility.yul\":90:208   */\n    tag_32:\n        /* \"#utility.yul\":177:201   */\n      tag_36\n        /* \"#utility.yul\":195:200   */\n      dup2\n        /* \"#utility.yul\":177:201   */\n      tag_31\n      jump\t// in\n    tag_36:\n        /* \"#utility.yul\":172:175   */\n      dup3\n        /* \"#utility.yul\":165:202   */\n      mstore\n        /* \"#utility.yul\":90:208   */\n      pop\n      pop\n      jump\t// out\n        /* \"#utility.yul\":214:436   */\n    tag_10:\n        /* \"#utility.yul\":307:311   */\n      0x00\n        /* \"#utility.yul\":345:347   */\n      0x20\n        /* \"#utility.yul\":334:343   */\n      dup3\n        /* \"#utility.yul\":330:348   */\n      add\n        /* \"#utility.yul\":322:348   */\n      swap1\n      pop\n        /* \"#utility.yul\":358:429   */\n      tag_38\n        /* \"#utility.yul\":426:427   */\n      0x00\n        /* \"#utility.yul\":415:424   */\n      dup4\n        /* \"#utility.yul\":411:428   */\n      add\n        /* \"#utility.yul\":402:408   */\n      dup5\n        /* \"#utility.yul\":358:429   */\n      tag_32\n      jump\t// in\n    tag_38:\n        /* \"#utility.yul\":214:436   */\n      swap3\n      swap2\n      pop\n      pop\n      jump\t// out\n\n    auxdata: 0xa2646970667358221220873d7d48566ae0bc3f9791e805b11f08d99a97e8d248b28d197d9a4978db2a2e64736f6c63430008110033\n}\n",
				"bytecode": {
					"linkReferences": {},
					"object": "608060405234801561001057600080fd5b506101de806100206000396000f3fe608060405234801561001057600080fd5b50600436106100365760003560e01c8063463065de1461003b578063e4683b4f14610045575b600080fd5b610043610063565b005b61004d61007a565b60405161005a919061018d565b60405180910390f35b61007733600061008b90919063ffffffff16565b50565b600061008660006100bb565b905090565b60006100b3836000018373ffffffffffffffffffffffffffffffffffffffff1660001b6100d0565b905092915050565b60006100c982600001610140565b9050919050565b60006100dc8383610151565b61013557826000018290806001815401808255809150506001900390600052602060002001600090919091909150558260000180549050836001016000848152602001908152602001600020819055506001905061013a565b600090505b92915050565b600081600001805490509050919050565b600080836001016000848152602001908152602001600020541415905092915050565b6000819050919050565b61018781610174565b82525050565b60006020820190506101a2600083018461017e565b9291505056fea2646970667358221220873d7d48566ae0bc3f9791e805b11f08d99a97e8d248b28d197d9a4978db2a2e64736f6c63430008110033",
					"opcodes": "PUSH1 0x80 PUSH1 0x40 MSTORE CALLVALUE DUP1 ISZERO PUSH2 0x10 JUMPI PUSH1 0x0 DUP1 REVERT JUMPDEST POP PUSH2 0x1DE DUP1 PUSH2 0x20 PUSH1 0x0 CODECOPY PUSH1 0x0 RETURN INVALID PUSH1 0x80 PUSH1 0x40 MSTORE CALLVALUE DUP1 ISZERO PUSH2 0x10 JUMPI PUSH1 0x0 DUP1 REVERT JUMPDEST POP PUSH1 0x4 CALLDATASIZE LT PUSH2 0x36 JUMPI PUSH1 0x0 CALLDATALOAD PUSH1 0xE0 SHR DUP1 PUSH4 0x463065DE EQ PUSH2 0x3B JUMPI DUP1 PUSH4 0xE4683B4F EQ PUSH2 0x45 JUMPI JUMPDEST PUSH1 0x0 DUP1 REVERT JUMPDEST PUSH2 0x43 PUSH2 0x63 JUMP JUMPDEST STOP JUMPDEST PUSH2 0x4D PUSH2 0x7A JUMP JUMPDEST PUSH1 0x40 MLOAD PUSH2 0x5A SWAP2 SWAP1 PUSH2 0x18D JUMP JUMPDEST PUSH1 0x40 MLOAD DUP1 SWAP2 SUB SWAP1 RETURN JUMPDEST PUSH2 0x77 CALLER PUSH1 0x0 PUSH2 0x8B SWAP1 SWAP2 SWAP1 PUSH4 0xFFFFFFFF AND JUMP JUMPDEST POP JUMP JUMPDEST PUSH1 0x0 PUSH2 0x86 PUSH1 0x0 PUSH2 0xBB JUMP JUMPDEST SWAP1 POP SWAP1 JUMP JUMPDEST PUSH1 0x0 PUSH2 0xB3 DUP4 PUSH1 0x0 ADD DUP4 PUSH20 0xFFFFFFFFFFFFFFFFFFFFFFFFFFFFFFFFFFFFFFFF AND PUSH1 0x0 SHL PUSH2 0xD0 JUMP JUMPDEST SWAP1 POP SWAP3 SWAP2 POP POP JUMP JUMPDEST PUSH1 0x0 PUSH2 0xC9 DUP3 PUSH1 0x0 ADD PUSH2 0x140 JUMP JUMPDEST SWAP1 POP SWAP2 SWAP1 POP JUMP JUMPDEST PUSH1 0x0 PUSH2 0xDC DUP4 DUP4 PUSH2 0x151 JUMP JUMPDEST PUSH2 0x135 JUMPI DUP3 PUSH1 0x0 ADD DUP3 SWAP1 DUP1 PUSH1 0x1 DUP2 SLOAD ADD DUP1 DUP3 SSTORE DUP1 SWAP2 POP POP PUSH1 0x1 SWAP1 SUB SWAP1 PUSH1 0x0 MSTORE PUSH1 0x20 PUSH1 0x0 KECCAK256 ADD PUSH1 0x0 SWAP1 SWAP2 SWAP1 SWAP2 SWAP1 SWAP2 POP SSTORE DUP3 PUSH1 0x0 ADD DUP1 SLOAD SWAP1 POP DUP4 PUSH1 0x1 ADD PUSH1 0x0 DUP5 DUP2 MSTORE PUSH1 0x20 ADD SWAP1 DUP2 MSTORE PUSH1 0x20 ADD PUSH1 0x0 KECCAK256 DUP2 SWAP1 SSTORE POP PUSH1 0x1 SWAP1 POP PUSH2 0x13A JUMP JUMPDEST PUSH1 0x0 SWAP1 POP JUMPDEST SWAP3 SWAP2 POP POP JUMP JUMPDEST PUSH1 0x0 DUP2 PUSH1 0x0 ADD DUP1 SLOAD SWAP1 POP SWAP1 POP SWAP2 SWAP1 POP JUMP JUMPDEST PUSH1 0x0 DUP1 DUP4 PUSH1 0x1 ADD PUSH1 0x0 DUP5 DUP2 MSTORE PUSH1 0x20 ADD SWAP1 DUP2 MSTORE PUSH1 0x20 ADD PUSH1 0x0 KECCAK256 SLOAD EQ ISZERO SWAP1 POP SWAP3 SWAP2 POP POP JUMP JUMPDEST PUSH1 0x0 DUP2 SWAP1 POP SWAP2 SWAP1 POP JUMP JUMPDEST PUSH2 0x187 DUP2 PUSH2 0x174 JUMP JUMPDEST DUP3 MSTORE POP POP JUMP JUMPDEST PUSH1 0x0 PUSH1 0x20 DUP3 ADD SWAP1 POP PUSH2 0x1A2 PUSH1 0x0 DUP4 ADD DUP5 PUSH2 0x17E JUMP JUMPDEST SWAP3 SWAP2 POP POP JUMP INVALID LOG2 PUSH5 0x6970667358 0x22 SLT KECCAK256 DUP8 RETURNDATASIZE PUSH30 0x48566AE0BC3F9791E805B11F08D99A97E8D248B28D197D9A4978DB2A2E64 PUSH20 0x6F6C634300081100330000000000000000000000 "
				},
				"gasEstimates": {
					"creation": {
						"codeDepositCost": "95600",
						"executionCost": "141",
						"totalCost": "95741"
					},
					"external": {
						"numberOfVisitors()": "2543",
						"registerVisitor()": "infinite"
					}
				},
				"methodIdentifiers": {
					"numberOfVisitors()": "e4683b4f",
					"registerVisitor()": "463065de"
				}
			},
			"storageLayout": {
				"storage": [
					{
						"astId": 9,
						"contract": "contracts/Imports.sol:Imports",
						"label": "visitors",
						"offset": 0,
						"slot": "0",
						"type": "t_struct(AddressSet)319_storage"
					}
				],
				"types": {
					"t_array(t_bytes32)dyn_storage": {
						"base": "t_bytes32",
						"encoding": "dynamic_array",
						"label": "bytes32[]",
						"numberOfBytes": "32"
					},
					"t_bytes32": {
						"encoding": "inplace",
						"label": "bytes32",
						"numberOfBytes": "32"
					},
					"t_mapping(t_bytes32,t_uint256)": {
						"encoding": "mapping",
						"key": "t_bytes32",
						"label": "mapping(bytes32 => uint256)",
						"numberOfBytes": "32",
						"value": "t_uint256"
					},
					"t_struct(AddressSet)319_storage": {
						"encoding": "inplace",
						"label": "struct EnumerableSet.AddressSet",
						"members": [
							{
								"astId": 318,
								"contract": "contracts/Imports.sol:Imports",
								"label": "_inner",
								"offset": 0,
								"slot": "0",
								"type": "t_struct(Set)42_storage"
							}
						],
						"numberOfBytes": "64"
					},
					"t_struct(Set)42_storage": {
						"encoding": "inplace",
						"label": "struct EnumerableSet.Set",
						"members": [
							{
								"astId": 37,
								"contract": "contracts/Imports.sol:Imports",
								"label": "_values",
								"offset": 0,
								"slot": "0",
								"type": "t_array(t_bytes32)dyn_storage"
							},
							{
								"astId": 41,
								"contract": "contracts/Imports.sol:Imports",
								"label": "_indexes",
								"offset": 0,
								"slot": "1",
								"type": "t_mapping(t_bytes32,t_uint256)"
							}
						],
						"numberOfBytes": "64"
					},
					"t_uint256": {
						"encoding": "inplace",
						"label": "uint256",
						"numberOfBytes": "32"
					}
				}
			},
			"userdoc": {
				"kind": "user",
				"methods": {},
				"version": 1
			}
		}
	}
}