{
	"contracts/WeightedVoting.sol": {
		"WeightedVoting": {
			"abi": [
				{
					"inputs": [
						{
							"internalType": "string",
							"name": "_name",
							"type": "string"
						},
						{
							"internalType": "string",
							"name": "_symbol",
							"type": "string"
						}
					],
					"stateMutability": "nonpayable",
					"type": "constructor"
				},
				{
					"inputs": [],
					"name": "AllTokensClaimed",
					"type": "error"
				},
				{
					"inputs": [],
					"name": "AlreadyVoted",
					"type": "error"
				},
				{
					"inputs": [],
					"name": "NoTokensHeld",
					"type": "error"
				},
				{
					"inputs": [
						{
							"internalType": "uint24",
							"name": "quorum",
							"type": "uint24"
						}
					],
					"name": "QuorumTooHigh",
					"type": "error"
				},
				{
					"inputs": [],
					"name": "TokensClaimed",
					"type": "error"
				},
				{
					"inputs": [],
					"name": "VotingClosed",
					"type": "error"
				},
				{
					"anonymous": false,
					"inputs": [
						{
							"indexed": true,
							"internalType": "address",
							"name": "owner",
							"type": "address"
						},
						{
							"indexed": true,
							"internalType": "address",
							"name": "spender",
							"type": "address"
						},
						{
							"indexed": false,
							"internalType": "uint256",
							"name": "value",
							"type": "uint256"
						}
					],
					"name": "Approval",
					"type": "event"
				},
				{
					"anonymous": false,
					"inputs": [
						{
							"indexed": true,
							"internalType": "address",
							"name": "from",
							"type": "address"
						},
						{
							"indexed": true,
							"internalType": "address",
							"name": "to",
							"type": "address"
						},
						{
							"indexed": false,
							"internalType": "uint256",
							"name": "value",
							"type": "uint256"
						}
					],
					"name": "Transfer",
					"type": "event"
				},
				{
					"inputs": [
						{
							"internalType": "address",
							"name": "owner",
							"type": "address"
						},
						{
							"internalType": "address",
							"name": "spender",
							"type": "address"
						}
					],
					"name": "allowance",
					"outputs": [
						{
							"internalType": "uint256",
							"name": "",
							"type": "uint256"
						}
					],
					"stateMutability": "view",
					"type": "function"
				},
				{
					"inputs": [
						{
							"internalType": "address",
							"name": "spender",
							"type": "address"
						},
						{
							"internalType": "uint256",
							"name": "amount",
							"type": "uint256"
						}
					],
					"name": "approve",
					"outputs": [
						{
							"internalType": "bool",
							"name": "",
							"type": "bool"
						}
					],
					"stateMutability": "nonpayable",
					"type": "function"
				},
				{
					"inputs": [
						{
							"internalType": "address",
							"name": "account",
							"type": "address"
						}
					],
					"name": "balanceOf",
					"outputs": [
						{
							"internalType": "uint256",
							"name": "",
							"type": "uint256"
						}
					],
					"stateMutability": "view",
					"type": "function"
				},
				{
					"inputs": [
						{
							"internalType": "address",
							"name": "",
							"type": "address"
						}
					],
					"name": "balances",
					"outputs": [
						{
							"internalType": "uint24",
							"name": "",
							"type": "uint24"
						}
					],
					"stateMutability": "view",
					"type": "function"
				},
				{
					"inputs": [],
					"name": "claim",
					"outputs": [],
					"stateMutability": "nonpayable",
					"type": "function"
				},
				{
					"inputs": [],
					"name": "claimAmount",
					"outputs": [
						{
							"internalType": "uint24",
							"name": "",
							"type": "uint24"
						}
					],
					"stateMutability": "view",
					"type": "function"
				},
				{
					"inputs": [],
					"name": "claimedAmount",
					"outputs": [
						{
							"internalType": "uint24",
							"name": "",
							"type": "uint24"
						}
					],
					"stateMutability": "view",
					"type": "function"
				},
				{
					"inputs": [
						{
							"internalType": "string",
							"name": "_issueDesc",
							"type": "string"
						},
						{
							"internalType": "uint24",
							"name": "_quorum",
							"type": "uint24"
						}
					],
					"name": "createIssue",
					"outputs": [
						{
							"internalType": "uint256",
							"name": "idx",
							"type": "uint256"
						}
					],
					"stateMutability": "nonpayable",
					"type": "function"
				},
				{
					"inputs": [],
					"name": "decimals",
					"outputs": [
						{
							"internalType": "uint8",
							"name": "",
							"type": "uint8"
						}
					],
					"stateMutability": "view",
					"type": "function"
				},
				{
					"inputs": [
						{
							"internalType": "address",
							"name": "spender",
							"type": "address"
						},
						{
							"internalType": "uint256",
							"name": "subtractedValue",
							"type": "uint256"
						}
					],
					"name": "decreaseAllowance",
					"outputs": [
						{
							"internalType": "bool",
							"name": "",
							"type": "bool"
						}
					],
					"stateMutability": "nonpayable",
					"type": "function"
				},
				{
					"inputs": [
						{
							"internalType": "uint24",
							"name": "_id",
							"type": "uint24"
						}
					],
					"name": "getIssue",
					"outputs": [
						{
							"components": [
								{
									"internalType": "address[]",
									"name": "voters",
									"type": "address[]"
								},
								{
									"internalType": "string",
									"name": "issueDesc",
									"type": "string"
								},
								{
									"internalType": "uint24",
									"name": "votesFor",
									"type": "uint24"
								},
								{
									"internalType": "uint24",
									"name": "votesAgainst",
									"type": "uint24"
								},
								{
									"internalType": "uint24",
									"name": "votesAbstain",
									"type": "uint24"
								},
								{
									"internalType": "uint24",
									"name": "totalVotes",
									"type": "uint24"
								},
								{
									"internalType": "uint24",
									"name": "quorum",
									"type": "uint24"
								},
								{
									"internalType": "bool",
									"name": "passed",
									"type": "bool"
								},
								{
									"internalType": "bool",
									"name": "closed",
									"type": "bool"
								}
							],
							"internalType": "struct IssueView",
							"name": "",
							"type": "tuple"
						}
					],
					"stateMutability": "view",
					"type": "function"
				},
				{
					"inputs": [
						{
							"internalType": "address",
							"name": "",
							"type": "address"
						}
					],
					"name": "hasClaimed",
					"outputs": [
						{
							"internalType": "bool",
							"name": "",
							"type": "bool"
						}
					],
					"stateMutability": "view",
					"type": "function"
				},
				{
					"inputs": [
						{
							"internalType": "address",
							"name": "spender",
							"type": "address"
						},
						{
							"internalType": "uint256",
							"name": "addedValue",
							"type": "uint256"
						}
					],
					"name": "increaseAllowance",
					"outputs": [
						{
							"internalType": "bool",
							"name": "",
							"type": "bool"
						}
					],
					"stateMutability": "nonpayable",
					"type": "function"
				},
				{
					"inputs": [],
					"name": "maxSupply",
					"outputs": [
						{
							"internalType": "uint24",
							"name": "",
							"type": "uint24"
						}
					],
					"stateMutability": "view",
					"type": "function"
				},
				{
					"inputs": [],
					"name": "name",
					"outputs": [
						{
							"internalType": "string",
							"name": "",
							"type": "string"
						}
					],
					"stateMutability": "view",
					"type": "function"
				},
				{
					"inputs": [],
					"name": "owner",
					"outputs": [
						{
							"internalType": "address",
							"name": "",
							"type": "address"
						}
					],
					"stateMutability": "view",
					"type": "function"
				},
				{
					"inputs": [],
					"name": "symbol",
					"outputs": [
						{
							"internalType": "string",
							"name": "",
							"type": "string"
						}
					],
					"stateMutability": "view",
					"type": "function"
				},
				{
					"inputs": [],
					"name": "totalSupply",
					"outputs": [
						{
							"internalType": "uint256",
							"name": "",
							"type": "uint256"
						}
					],
					"stateMutability": "view",
					"type": "function"
				},
				{
					"inputs": [
						{
							"internalType": "address",
							"name": "recipient",
							"type": "address"
						},
						{
							"internalType": "uint256",
							"name": "amount",
							"type": "uint256"
						}
					],
					"name": "transfer",
					"outputs": [
						{
							"internalType": "bool",
							"name": "",
							"type": "bool"
						}
					],
					"stateMutability": "nonpayable",
					"type": "function"
				},
				{
					"inputs": [
						{
							"internalType": "address",
							"name": "sender",
							"type": "address"
						},
						{
							"internalType": "address",
							"name": "recipient",
							"type": "address"
						},
						{
							"internalType": "uint256",
							"name": "amount",
							"type": "uint256"
						}
					],
					"name": "transferFrom",
					"outputs": [
						{
							"internalType": "bool",
							"name": "",
							"type": "bool"
						}
					],
					"stateMutability": "nonpayable",
					"type": "function"
				},
				{
					"inputs": [
						{
							"internalType": "uint24",
							"name": "_issueId",
							"type": "uint24"
						},
						{
							"internalType": "enum Votes",
							"name": "_vote",
							"type": "uint8"
						}
					],
					"name": "vote",
					"outputs": [],
					"stateMutability": "nonpayable",
					"type": "function"
				}
			],
			"devdoc": {
				"kind": "dev",
				"methods": {
					"allowance(address,address)": {
						"details": "See {IERC20-allowance}."
					},
					"approve(address,uint256)": {
						"details": "See {IERC20-approve}. Requirements: - `spender` cannot be the zero address."
					},
					"balanceOf(address)": {
						"details": "See {IERC20-balanceOf}."
					},
					"decimals()": {
						"details": "Returns the number of decimals used to get its user representation. For example, if `decimals` equals `2`, a balance of `505` tokens should be displayed to a user as `5,05` (`505 / 10 ** 2`). Tokens usually opt for a value of 18, imitating the relationship between Ether and Wei. This is the value {ERC20} uses, unless this function is overloaded; NOTE: This information is only used for _display_ purposes: it in no way affects any of the arithmetic of the contract, including {IERC20-balanceOf} and {IERC20-transfer}."
					},
					"decreaseAllowance(address,uint256)": {
						"details": "Atomically decreases the allowance granted to `spender` by the caller. This is an alternative to {approve} that can be used as a mitigation for problems described in {IERC20-approve}. Emits an {Approval} event indicating the updated allowance. Requirements: - `spender` cannot be the zero address. - `spender` must have allowance for the caller of at least `subtractedValue`."
					},
					"increaseAllowance(address,uint256)": {
						"details": "Atomically increases the allowance granted to `spender` by the caller. This is an alternative to {approve} that can be used as a mitigation for problems described in {IERC20-approve}. Emits an {Approval} event indicating the updated allowance. Requirements: - `spender` cannot be the zero address."
					},
					"name()": {
						"details": "Returns the name of the token."
					},
					"symbol()": {
						"details": "Returns the symbol of the token, usually a shorter version of the name."
					},
					"totalSupply()": {
						"details": "See {IERC20-totalSupply}."
					},
					"transfer(address,uint256)": {
						"details": "See {IERC20-transfer}. Requirements: - `recipient` cannot be the zero address. - the caller must have a balance of at least `amount`."
					},
					"transferFrom(address,address,uint256)": {
						"details": "See {IERC20-transferFrom}. Emits an {Approval} event indicating the updated allowance. This is not required by the EIP. See the note at the beginning of {ERC20}. Requirements: - `sender` and `recipient` cannot be the zero address. - `sender` must have a balance of at least `amount`. - the caller must have allowance for ``sender``'s tokens of at least `amount`."
					}
				},
				"version": 1
			},
			"evm": {
				"assembly": "    /* \"contracts/WeightedVoting.sol\":858:4694  contract WeightedVoting is ERC20 {... */\n  mstore(0x40, 0x80)\n    /* \"contracts/WeightedVoting.sol\":1297:1546  constructor(string memory _name, string memory _symbol)... */\n  callvalue\n  dup1\n  iszero\n  tag_1\n  jumpi\n  0x00\n  dup1\n  revert\ntag_1:\n  pop\n  mload(0x40)\n  sub(codesize, bytecodeSize)\n  dup1\n  bytecodeSize\n  dup4\n  codecopy\n  dup2\n  dup2\n  add\n  0x40\n  mstore\n  dup2\n  add\n  swap1\n  tag_2\n  swap2\n  swap1\n  tag_3\n  jump\t// in\ntag_2:\n    /* \"contracts/WeightedVoting.sol\":1367:1372  _name */\n  dup2\n    /* \"contracts/WeightedVoting.sol\":1374:1381  _symbol */\n  dup2\n    /* \"https://github.com/OpenZeppelin/openzeppelin-contracts/blob/v4.0.0/contracts/token/ERC20/ERC20.sol\":1917:1922  name_ */\n  dup2\n    /* \"https://github.com/OpenZeppelin/openzeppelin-contracts/blob/v4.0.0/contracts/token/ERC20/ERC20.sol\":1909:1914  _name */\n  0x03\n    /* \"https://github.com/OpenZeppelin/openzeppelin-contracts/blob/v4.0.0/contracts/token/ERC20/ERC20.sol\":1909:1922  _name = name_ */\n  swap1\n  dup2\n  tag_7\n  swap2\n  swap1\n  tag_8\n  jump\t// in\ntag_7:\n  pop\n    /* \"https://github.com/OpenZeppelin/openzeppelin-contracts/blob/v4.0.0/contracts/token/ERC20/ERC20.sol\":1942:1949  symbol_ */\n  dup1\n    /* \"https://github.com/OpenZeppelin/openzeppelin-contracts/blob/v4.0.0/contracts/token/ERC20/ERC20.sol\":1932:1939  _symbol */\n  0x04\n    /* \"https://github.com/OpenZeppelin/openzeppelin-contracts/blob/v4.0.0/contracts/token/ERC20/ERC20.sol\":1932:1949  _symbol = symbol_ */\n  swap1\n  dup2\n  tag_9\n  swap2\n  swap1\n  tag_8\n  jump\t// in\ntag_9:\n  pop\n    /* \"https://github.com/OpenZeppelin/openzeppelin-contracts/blob/v4.0.0/contracts/token/ERC20/ERC20.sol\":1842:1956  constructor (string memory name_, string memory symbol_) {... */\n  pop\n  pop\n    /* \"contracts/WeightedVoting.sol\":1409:1418  1_000_000 */\n  0x0f4240\n    /* \"contracts/WeightedVoting.sol\":1397:1406  maxSupply */\n  0x05\n  0x00\n    /* \"contracts/WeightedVoting.sol\":1397:1418  maxSupply = 1_000_000 */\n  0x0100\n  exp\n  dup2\n  sload\n  dup2\n  0xffffff\n  mul\n  not\n  and\n  swap1\n  dup4\n  0xffffff\n  and\n  mul\n  or\n  swap1\n  sstore\n  pop\n    /* \"contracts/WeightedVoting.sol\":1442:1445  100 */\n  0x64\n    /* \"contracts/WeightedVoting.sol\":1428:1439  claimAmount */\n  0x05\n  0x03\n    /* \"contracts/WeightedVoting.sol\":1428:1445  claimAmount = 100 */\n  0x0100\n  exp\n  dup2\n  sload\n  dup2\n  0xffffff\n  mul\n  not\n  and\n  swap1\n  dup4\n  0xffffff\n  and\n  mul\n  or\n  swap1\n  sstore\n  pop\n    /* \"contracts/WeightedVoting.sol\":1526:1532  issues */\n  0x09\n    /* \"contracts/WeightedVoting.sol\":1526:1539  issues.push() */\n  0x01\n  dup2\n  0x01\n  dup2\n  sload\n  add\n  dup1\n  dup3\n  sstore\n  dup1\n  swap2\n  pop\n  pop\n  sub\n  swap1\n  0x00\n  mstore\n  keccak256(0x00, 0x20)\n  swap1\n  pop\n  pop\n    /* \"contracts/WeightedVoting.sol\":1297:1546  constructor(string memory _name, string memory _symbol)... */\n  pop\n  pop\n    /* \"contracts/WeightedVoting.sol\":858:4694  contract WeightedVoting is ERC20 {... */\n  jump(tag_12)\n    /* \"#utility.yul\":7:82   */\ntag_13:\n    /* \"#utility.yul\":40:46   */\n  0x00\n    /* \"#utility.yul\":73:75   */\n  0x40\n    /* \"#utility.yul\":67:76   */\n  mload\n    /* \"#utility.yul\":57:76   */\n  swap1\n  pop\n    /* \"#utility.yul\":7:82   */\n  swap1\n  jump\t// out\n    /* \"#utility.yul\":88:205   */\ntag_14:\n    /* \"#utility.yul\":197:198   */\n  0x00\n    /* \"#utility.yul\":194:195   */\n  dup1\n    /* \"#utility.yul\":187:199   */\n  revert\n    /* \"#utility.yul\":211:328   */\ntag_15:\n    /* \"#utility.yul\":320:321   */\n  0x00\n    /* \"#utility.yul\":317:318   */\n  dup1\n    /* \"#utility.yul\":310:322   */\n  revert\n    /* \"#utility.yul\":334:451   */\ntag_16:\n    /* \"#utility.yul\":443:444   */\n  0x00\n    /* \"#utility.yul\":440:441   */\n  dup1\n    /* \"#utility.yul\":433:445   */\n  revert\n    /* \"#utility.yul\":457:574   */\ntag_17:\n    /* \"#utility.yul\":566:567   */\n  0x00\n    /* \"#utility.yul\":563:564   */\n  dup1\n    /* \"#utility.yul\":556:568   */\n  revert\n    /* \"#utility.yul\":580:682   */\ntag_18:\n    /* \"#utility.yul\":621:627   */\n  0x00\n    /* \"#utility.yul\":672:674   */\n  0x1f\n    /* \"#utility.yul\":668:675   */\n  not\n    /* \"#utility.yul\":663:665   */\n  0x1f\n    /* \"#utility.yul\":656:661   */\n  dup4\n    /* \"#utility.yul\":652:666   */\n  add\n    /* \"#utility.yul\":648:676   */\n  and\n    /* \"#utility.yul\":638:676   */\n  swap1\n  pop\n    /* \"#utility.yul\":580:682   */\n  swap2\n  swap1\n  pop\n  jump\t// out\n    /* \"#utility.yul\":688:868   */\ntag_19:\n    /* \"#utility.yul\":736:813   */\n  0x4e487b7100000000000000000000000000000000000000000000000000000000\n    /* \"#utility.yul\":733:734   */\n  0x00\n    /* \"#utility.yul\":726:814   */\n  mstore\n    /* \"#utility.yul\":833:837   */\n  0x41\n    /* \"#utility.yul\":830:831   */\n  0x04\n    /* \"#utility.yul\":823:838   */\n  mstore\n    /* \"#utility.yul\":857:861   */\n  0x24\n    /* \"#utility.yul\":854:855   */\n  0x00\n    /* \"#utility.yul\":847:862   */\n  revert\n    /* \"#utility.yul\":874:1155   */\ntag_20:\n    /* \"#utility.yul\":957:984   */\n  tag_54\n    /* \"#utility.yul\":979:983   */\n  dup3\n    /* \"#utility.yul\":957:984   */\n  tag_18\n  jump\t// in\ntag_54:\n    /* \"#utility.yul\":949:955   */\n  dup2\n    /* \"#utility.yul\":945:985   */\n  add\n    /* \"#utility.yul\":1087:1093   */\n  dup2\n    /* \"#utility.yul\":1075:1085   */\n  dup2\n    /* \"#utility.yul\":1072:1094   */\n  lt\n    /* \"#utility.yul\":1051:1069   */\n  0xffffffffffffffff\n    /* \"#utility.yul\":1039:1049   */\n  dup3\n    /* \"#utility.yul\":1036:1070   */\n  gt\n    /* \"#utility.yul\":1033:1095   */\n  or\n    /* \"#utility.yul\":1030:1118   */\n  iszero\n  tag_55\n  jumpi\n    /* \"#utility.yul\":1098:1116   */\n  tag_56\n  tag_19\n  jump\t// in\ntag_56:\n    /* \"#utility.yul\":1030:1118   */\ntag_55:\n    /* \"#utility.yul\":1138:1148   */\n  dup1\n    /* \"#utility.yul\":1134:1136   */\n  0x40\n    /* \"#utility.yul\":1127:1149   */\n  mstore\n    /* \"#utility.yul\":917:1155   */\n  pop\n    /* \"#utility.yul\":874:1155   */\n  pop\n  pop\n  jump\t// out\n    /* \"#utility.yul\":1161:1290   */\ntag_21:\n    /* \"#utility.yul\":1195:1201   */\n  0x00\n    /* \"#utility.yul\":1222:1242   */\n  tag_58\n  tag_13\n  jump\t// in\ntag_58:\n    /* \"#utility.yul\":1212:1242   */\n  swap1\n  pop\n    /* \"#utility.yul\":1251:1284   */\n  tag_59\n    /* \"#utility.yul\":1279:1283   */\n  dup3\n    /* \"#utility.yul\":1271:1277   */\n  dup3\n    /* \"#utility.yul\":1251:1284   */\n  tag_20\n  jump\t// in\ntag_59:\n    /* \"#utility.yul\":1161:1290   */\n  swap2\n  swap1\n  pop\n  jump\t// out\n    /* \"#utility.yul\":1296:1604   */\ntag_22:\n    /* \"#utility.yul\":1358:1362   */\n  0x00\n    /* \"#utility.yul\":1448:1466   */\n  0xffffffffffffffff\n    /* \"#utility.yul\":1440:1446   */\n  dup3\n    /* \"#utility.yul\":1437:1467   */\n  gt\n    /* \"#utility.yul\":1434:1490   */\n  iszero\n  tag_61\n  jumpi\n    /* \"#utility.yul\":1470:1488   */\n  tag_62\n  tag_19\n  jump\t// in\ntag_62:\n    /* \"#utility.yul\":1434:1490   */\ntag_61:\n    /* \"#utility.yul\":1508:1537   */\n  tag_63\n    /* \"#utility.yul\":1530:1536   */\n  dup3\n    /* \"#utility.yul\":1508:1537   */\n  tag_18\n  jump\t// in\ntag_63:\n    /* \"#utility.yul\":1500:1537   */\n  swap1\n  pop\n    /* \"#utility.yul\":1592:1596   */\n  0x20\n    /* \"#utility.yul\":1586:1590   */\n  dup2\n    /* \"#utility.yul\":1582:1597   */\n  add\n    /* \"#utility.yul\":1574:1597   */\n  swap1\n  pop\n    /* \"#utility.yul\":1296:1604   */\n  swap2\n  swap1\n  pop\n  jump\t// out\n    /* \"#utility.yul\":1610:1856   */\ntag_23:\n    /* \"#utility.yul\":1691:1692   */\n  0x00\n    /* \"#utility.yul\":1701:1814   */\ntag_65:\n    /* \"#utility.yul\":1715:1721   */\n  dup4\n    /* \"#utility.yul\":1712:1713   */\n  dup2\n    /* \"#utility.yul\":1709:1722   */\n  lt\n    /* \"#utility.yul\":1701:1814   */\n  iszero\n  tag_67\n  jumpi\n    /* \"#utility.yul\":1800:1801   */\n  dup1\n    /* \"#utility.yul\":1795:1798   */\n  dup3\n    /* \"#utility.yul\":1791:1802   */\n  add\n    /* \"#utility.yul\":1785:1803   */\n  mload\n    /* \"#utility.yul\":1781:1782   */\n  dup2\n    /* \"#utility.yul\":1776:1779   */\n  dup5\n    /* \"#utility.yul\":1772:1783   */\n  add\n    /* \"#utility.yul\":1765:1804   */\n  mstore\n    /* \"#utility.yul\":1737:1739   */\n  0x20\n    /* \"#utility.yul\":1734:1735   */\n  dup2\n    /* \"#utility.yul\":1730:1740   */\n  add\n    /* \"#utility.yul\":1725:1740   */\n  swap1\n  pop\n    /* \"#utility.yul\":1701:1814   */\n  jump(tag_65)\ntag_67:\n    /* \"#utility.yul\":1848:1849   */\n  0x00\n    /* \"#utility.yul\":1839:1845   */\n  dup5\n    /* \"#utility.yul\":1834:1837   */\n  dup5\n    /* \"#utility.yul\":1830:1846   */\n  add\n    /* \"#utility.yul\":1823:1850   */\n  mstore\n    /* \"#utility.yul\":1672:1856   */\n  pop\n    /* \"#utility.yul\":1610:1856   */\n  pop\n  pop\n  pop\n  jump\t// out\n    /* \"#utility.yul\":1862:2296   */\ntag_24:\n    /* \"#utility.yul\":1951:1956   */\n  0x00\n    /* \"#utility.yul\":1976:2042   */\n  tag_69\n    /* \"#utility.yul\":1992:2041   */\n  tag_70\n    /* \"#utility.yul\":2034:2040   */\n  dup5\n    /* \"#utility.yul\":1992:2041   */\n  tag_22\n  jump\t// in\ntag_70:\n    /* \"#utility.yul\":1976:2042   */\n  tag_21\n  jump\t// in\ntag_69:\n    /* \"#utility.yul\":1967:2042   */\n  swap1\n  pop\n    /* \"#utility.yul\":2065:2071   */\n  dup3\n    /* \"#utility.yul\":2058:2063   */\n  dup2\n    /* \"#utility.yul\":2051:2072   */\n  mstore\n    /* \"#utility.yul\":2103:2107   */\n  0x20\n    /* \"#utility.yul\":2096:2101   */\n  dup2\n    /* \"#utility.yul\":2092:2108   */\n  add\n    /* \"#utility.yul\":2141:2144   */\n  dup5\n    /* \"#utility.yul\":2132:2138   */\n  dup5\n    /* \"#utility.yul\":2127:2130   */\n  dup5\n    /* \"#utility.yul\":2123:2139   */\n  add\n    /* \"#utility.yul\":2120:2145   */\n  gt\n    /* \"#utility.yul\":2117:2229   */\n  iszero\n  tag_71\n  jumpi\n    /* \"#utility.yul\":2148:2227   */\n  tag_72\n  tag_17\n  jump\t// in\ntag_72:\n    /* \"#utility.yul\":2117:2229   */\ntag_71:\n    /* \"#utility.yul\":2238:2290   */\n  tag_73\n    /* \"#utility.yul\":2283:2289   */\n  dup5\n    /* \"#utility.yul\":2278:2281   */\n  dup3\n    /* \"#utility.yul\":2273:2276   */\n  dup6\n    /* \"#utility.yul\":2238:2290   */\n  tag_23\n  jump\t// in\ntag_73:\n    /* \"#utility.yul\":1957:2296   */\n  pop\n    /* \"#utility.yul\":1862:2296   */\n  swap4\n  swap3\n  pop\n  pop\n  pop\n  jump\t// out\n    /* \"#utility.yul\":2316:2671   */\ntag_25:\n    /* \"#utility.yul\":2383:2388   */\n  0x00\n    /* \"#utility.yul\":2432:2435   */\n  dup3\n    /* \"#utility.yul\":2425:2429   */\n  0x1f\n    /* \"#utility.yul\":2417:2423   */\n  dup4\n    /* \"#utility.yul\":2413:2430   */\n  add\n    /* \"#utility.yul\":2409:2436   */\n  slt\n    /* \"#utility.yul\":2399:2521   */\n  tag_75\n  jumpi\n    /* \"#utility.yul\":2440:2519   */\n  tag_76\n  tag_16\n  jump\t// in\ntag_76:\n    /* \"#utility.yul\":2399:2521   */\ntag_75:\n    /* \"#utility.yul\":2550:2556   */\n  dup2\n    /* \"#utility.yul\":2544:2557   */\n  mload\n    /* \"#utility.yul\":2575:2665   */\n  tag_77\n    /* \"#utility.yul\":2661:2664   */\n  dup5\n    /* \"#utility.yul\":2653:2659   */\n  dup3\n    /* \"#utility.yul\":2646:2650   */\n  0x20\n    /* \"#utility.yul\":2638:2644   */\n  dup7\n    /* \"#utility.yul\":2634:2651   */\n  add\n    /* \"#utility.yul\":2575:2665   */\n  tag_24\n  jump\t// in\ntag_77:\n    /* \"#utility.yul\":2566:2665   */\n  swap2\n  pop\n    /* \"#utility.yul\":2389:2671   */\n  pop\n    /* \"#utility.yul\":2316:2671   */\n  swap3\n  swap2\n  pop\n  pop\n  jump\t// out\n    /* \"#utility.yul\":2677:3530   */\ntag_3:\n    /* \"#utility.yul\":2776:2782   */\n  0x00\n    /* \"#utility.yul\":2784:2790   */\n  dup1\n    /* \"#utility.yul\":2833:2835   */\n  0x40\n    /* \"#utility.yul\":2821:2830   */\n  dup4\n    /* \"#utility.yul\":2812:2819   */\n  dup6\n    /* \"#utility.yul\":2808:2831   */\n  sub\n    /* \"#utility.yul\":2804:2836   */\n  slt\n    /* \"#utility.yul\":2801:2920   */\n  iszero\n  tag_79\n  jumpi\n    /* \"#utility.yul\":2839:2918   */\n  tag_80\n  tag_14\n  jump\t// in\ntag_80:\n    /* \"#utility.yul\":2801:2920   */\ntag_79:\n    /* \"#utility.yul\":2980:2981   */\n  0x00\n    /* \"#utility.yul\":2969:2978   */\n  dup4\n    /* \"#utility.yul\":2965:2982   */\n  add\n    /* \"#utility.yul\":2959:2983   */\n  mload\n    /* \"#utility.yul\":3010:3028   */\n  0xffffffffffffffff\n    /* \"#utility.yul\":3002:3008   */\n  dup2\n    /* \"#utility.yul\":2999:3029   */\n  gt\n    /* \"#utility.yul\":2996:3113   */\n  iszero\n  tag_81\n  jumpi\n    /* \"#utility.yul\":3032:3111   */\n  tag_82\n  tag_15\n  jump\t// in\ntag_82:\n    /* \"#utility.yul\":2996:3113   */\ntag_81:\n    /* \"#utility.yul\":3137:3211   */\n  tag_83\n    /* \"#utility.yul\":3203:3210   */\n  dup6\n    /* \"#utility.yul\":3194:3200   */\n  dup3\n    /* \"#utility.yul\":3183:3192   */\n  dup7\n    /* \"#utility.yul\":3179:3201   */\n  add\n    /* \"#utility.yul\":3137:3211   */\n  tag_25\n  jump\t// in\ntag_83:\n    /* \"#utility.yul\":3127:3211   */\n  swap3\n  pop\n    /* \"#utility.yul\":2930:3221   */\n  pop\n    /* \"#utility.yul\":3281:3283   */\n  0x20\n    /* \"#utility.yul\":3270:3279   */\n  dup4\n    /* \"#utility.yul\":3266:3284   */\n  add\n    /* \"#utility.yul\":3260:3285   */\n  mload\n    /* \"#utility.yul\":3312:3330   */\n  0xffffffffffffffff\n    /* \"#utility.yul\":3304:3310   */\n  dup2\n    /* \"#utility.yul\":3301:3331   */\n  gt\n    /* \"#utility.yul\":3298:3415   */\n  iszero\n  tag_84\n  jumpi\n    /* \"#utility.yul\":3334:3413   */\n  tag_85\n  tag_15\n  jump\t// in\ntag_85:\n    /* \"#utility.yul\":3298:3415   */\ntag_84:\n    /* \"#utility.yul\":3439:3513   */\n  tag_86\n    /* \"#utility.yul\":3505:3512   */\n  dup6\n    /* \"#utility.yul\":3496:3502   */\n  dup3\n    /* \"#utility.yul\":3485:3494   */\n  dup7\n    /* \"#utility.yul\":3481:3503   */\n  add\n    /* \"#utility.yul\":3439:3513   */\n  tag_25\n  jump\t// in\ntag_86:\n    /* \"#utility.yul\":3429:3513   */\n  swap2\n  pop\n    /* \"#utility.yul\":3231:3523   */\n  pop\n    /* \"#utility.yul\":2677:3530   */\n  swap3\n  pop\n  swap3\n  swap1\n  pop\n  jump\t// out\n    /* \"#utility.yul\":3536:3635   */\ntag_26:\n    /* \"#utility.yul\":3588:3594   */\n  0x00\n    /* \"#utility.yul\":3622:3627   */\n  dup2\n    /* \"#utility.yul\":3616:3628   */\n  mload\n    /* \"#utility.yul\":3606:3628   */\n  swap1\n  pop\n    /* \"#utility.yul\":3536:3635   */\n  swap2\n  swap1\n  pop\n  jump\t// out\n    /* \"#utility.yul\":3641:3821   */\ntag_27:\n    /* \"#utility.yul\":3689:3766   */\n  0x4e487b7100000000000000000000000000000000000000000000000000000000\n    /* \"#utility.yul\":3686:3687   */\n  0x00\n    /* \"#utility.yul\":3679:3767   */\n  mstore\n    /* \"#utility.yul\":3786:3790   */\n  0x22\n    /* \"#utility.yul\":3783:3784   */\n  0x04\n    /* \"#utility.yul\":3776:3791   */\n  mstore\n    /* \"#utility.yul\":3810:3814   */\n  0x24\n    /* \"#utility.yul\":3807:3808   */\n  0x00\n    /* \"#utility.yul\":3800:3815   */\n  revert\n    /* \"#utility.yul\":3827:4147   */\ntag_28:\n    /* \"#utility.yul\":3871:3877   */\n  0x00\n    /* \"#utility.yul\":3908:3909   */\n  0x02\n    /* \"#utility.yul\":3902:3906   */\n  dup3\n    /* \"#utility.yul\":3898:3910   */\n  div\n    /* \"#utility.yul\":3888:3910   */\n  swap1\n  pop\n    /* \"#utility.yul\":3955:3956   */\n  0x01\n    /* \"#utility.yul\":3949:3953   */\n  dup3\n    /* \"#utility.yul\":3945:3957   */\n  and\n    /* \"#utility.yul\":3976:3994   */\n  dup1\n    /* \"#utility.yul\":3966:4047   */\n  tag_90\n  jumpi\n    /* \"#utility.yul\":4032:4036   */\n  0x7f\n    /* \"#utility.yul\":4024:4030   */\n  dup3\n    /* \"#utility.yul\":4020:4037   */\n  and\n    /* \"#utility.yul\":4010:4037   */\n  swap2\n  pop\n    /* \"#utility.yul\":3966:4047   */\ntag_90:\n    /* \"#utility.yul\":4094:4096   */\n  0x20\n    /* \"#utility.yul\":4086:4092   */\n  dup3\n    /* \"#utility.yul\":4083:4097   */\n  lt\n    /* \"#utility.yul\":4063:4081   */\n  dup2\n    /* \"#utility.yul\":4060:4098   */\n  sub\n    /* \"#utility.yul\":4057:4141   */\n  tag_91\n  jumpi\n    /* \"#utility.yul\":4113:4131   */\n  tag_92\n  tag_27\n  jump\t// in\ntag_92:\n    /* \"#utility.yul\":4057:4141   */\ntag_91:\n    /* \"#utility.yul\":3878:4147   */\n  pop\n    /* \"#utility.yul\":3827:4147   */\n  swap2\n  swap1\n  pop\n  jump\t// out\n    /* \"#utility.yul\":4153:4294   */\ntag_29:\n    /* \"#utility.yul\":4202:4206   */\n  0x00\n    /* \"#utility.yul\":4225:4228   */\n  dup2\n    /* \"#utility.yul\":4217:4228   */\n  swap1\n  pop\n    /* \"#utility.yul\":4248:4251   */\n  dup2\n    /* \"#utility.yul\":4245:4246   */\n  0x00\n    /* \"#utility.yul\":4238:4252   */\n  mstore\n    /* \"#utility.yul\":4282:4286   */\n  0x20\n    /* \"#utility.yul\":4279:4280   */\n  0x00\n    /* \"#utility.yul\":4269:4287   */\n  keccak256\n    /* \"#utility.yul\":4261:4287   */\n  swap1\n  pop\n    /* \"#utility.yul\":4153:4294   */\n  swap2\n  swap1\n  pop\n  jump\t// out\n    /* \"#utility.yul\":4300:4393   */\ntag_30:\n    /* \"#utility.yul\":4337:4343   */\n  0x00\n    /* \"#utility.yul\":4384:4386   */\n  0x20\n    /* \"#utility.yul\":4379:4381   */\n  0x1f\n    /* \"#utility.yul\":4372:4377   */\n  dup4\n    /* \"#utility.yul\":4368:4382   */\n  add\n    /* \"#utility.yul\":4364:4387   */\n  div\n    /* \"#utility.yul\":4354:4387   */\n  swap1\n  pop\n    /* \"#utility.yul\":4300:4393   */\n  swap2\n  swap1\n  pop\n  jump\t// out\n    /* \"#utility.yul\":4399:4506   */\ntag_31:\n    /* \"#utility.yul\":4443:4451   */\n  0x00\n    /* \"#utility.yul\":4493:4498   */\n  dup3\n    /* \"#utility.yul\":4487:4491   */\n  dup3\n    /* \"#utility.yul\":4483:4499   */\n  shl\n    /* \"#utility.yul\":4462:4499   */\n  swap1\n  pop\n    /* \"#utility.yul\":4399:4506   */\n  swap3\n  swap2\n  pop\n  pop\n  jump\t// out\n    /* \"#utility.yul\":4512:4905   */\ntag_32:\n    /* \"#utility.yul\":4581:4587   */\n  0x00\n    /* \"#utility.yul\":4631:4632   */\n  0x08\n    /* \"#utility.yul\":4619:4629   */\n  dup4\n    /* \"#utility.yul\":4615:4633   */\n  mul\n    /* \"#utility.yul\":4654:4751   */\n  tag_97\n    /* \"#utility.yul\":4684:4750   */\n  0xffffffffffffffffffffffffffffffffffffffffffffffffffffffffffffffff\n    /* \"#utility.yul\":4673:4682   */\n  dup3\n    /* \"#utility.yul\":4654:4751   */\n  tag_31\n  jump\t// in\ntag_97:\n    /* \"#utility.yul\":4772:4811   */\n  tag_98\n    /* \"#utility.yul\":4802:4810   */\n  dup7\n    /* \"#utility.yul\":4791:4800   */\n  dup4\n    /* \"#utility.yul\":4772:4811   */\n  tag_31\n  jump\t// in\ntag_98:\n    /* \"#utility.yul\":4760:4811   */\n  swap6\n  pop\n    /* \"#utility.yul\":4844:4848   */\n  dup1\n    /* \"#utility.yul\":4840:4849   */\n  not\n    /* \"#utility.yul\":4833:4838   */\n  dup5\n    /* \"#utility.yul\":4829:4850   */\n  and\n    /* \"#utility.yul\":4820:4850   */\n  swap4\n  pop\n    /* \"#utility.yul\":4893:4897   */\n  dup1\n    /* \"#utility.yul\":4883:4891   */\n  dup7\n    /* \"#utility.yul\":4879:4898   */\n  and\n    /* \"#utility.yul\":4872:4877   */\n  dup5\n    /* \"#utility.yul\":4869:4899   */\n  or\n    /* \"#utility.yul\":4859:4899   */\n  swap3\n  pop\n    /* \"#utility.yul\":4588:4905   */\n  pop\n  pop\n    /* \"#utility.yul\":4512:4905   */\n  swap4\n  swap3\n  pop\n  pop\n  pop\n  jump\t// out\n    /* \"#utility.yul\":4911:4988   */\ntag_33:\n    /* \"#utility.yul\":4948:4955   */\n  0x00\n    /* \"#utility.yul\":4977:4982   */\n  dup2\n    /* \"#utility.yul\":4966:4982   */\n  swap1\n  pop\n    /* \"#utility.yul\":4911:4988   */\n  swap2\n  swap1\n  pop\n  jump\t// out\n    /* \"#utility.yul\":4994:5054   */\ntag_34:\n    /* \"#utility.yul\":5022:5025   */\n  0x00\n    /* \"#utility.yul\":5043:5048   */\n  dup2\n    /* \"#utility.yul\":5036:5048   */\n  swap1\n  pop\n    /* \"#utility.yul\":4994:5054   */\n  swap2\n  swap1\n  pop\n  jump\t// out\n    /* \"#utility.yul\":5060:5202   */\ntag_35:\n    /* \"#utility.yul\":5110:5119   */\n  0x00\n    /* \"#utility.yul\":5143:5196   */\n  tag_102\n    /* \"#utility.yul\":5161:5195   */\n  tag_103\n    /* \"#utility.yul\":5170:5194   */\n  tag_104\n    /* \"#utility.yul\":5188:5193   */\n  dup5\n    /* \"#utility.yul\":5170:5194   */\n  tag_33\n  jump\t// in\ntag_104:\n    /* \"#utility.yul\":5161:5195   */\n  tag_34\n  jump\t// in\ntag_103:\n    /* \"#utility.yul\":5143:5196   */\n  tag_33\n  jump\t// in\ntag_102:\n    /* \"#utility.yul\":5130:5196   */\n  swap1\n  pop\n    /* \"#utility.yul\":5060:5202   */\n  swap2\n  swap1\n  pop\n  jump\t// out\n    /* \"#utility.yul\":5208:5283   */\ntag_36:\n    /* \"#utility.yul\":5251:5254   */\n  0x00\n    /* \"#utility.yul\":5272:5277   */\n  dup2\n    /* \"#utility.yul\":5265:5277   */\n  swap1\n  pop\n    /* \"#utility.yul\":5208:5283   */\n  swap2\n  swap1\n  pop\n  jump\t// out\n    /* \"#utility.yul\":5289:5558   */\ntag_37:\n    /* \"#utility.yul\":5399:5438   */\n  tag_107\n    /* \"#utility.yul\":5430:5437   */\n  dup4\n    /* \"#utility.yul\":5399:5438   */\n  tag_35\n  jump\t// in\ntag_107:\n    /* \"#utility.yul\":5460:5551   */\n  tag_108\n    /* \"#utility.yul\":5509:5550   */\n  tag_109\n    /* \"#utility.yul\":5533:5549   */\n  dup3\n    /* \"#utility.yul\":5509:5550   */\n  tag_36\n  jump\t// in\ntag_109:\n    /* \"#utility.yul\":5501:5507   */\n  dup5\n    /* \"#utility.yul\":5494:5498   */\n  dup5\n    /* \"#utility.yul\":5488:5499   */\n  sload\n    /* \"#utility.yul\":5460:5551   */\n  tag_32\n  jump\t// in\ntag_108:\n    /* \"#utility.yul\":5454:5458   */\n  dup3\n    /* \"#utility.yul\":5447:5552   */\n  sstore\n    /* \"#utility.yul\":5365:5558   */\n  pop\n    /* \"#utility.yul\":5289:5558   */\n  pop\n  pop\n  pop\n  jump\t// out\n    /* \"#utility.yul\":5564:5637   */\ntag_38:\n    /* \"#utility.yul\":5609:5612   */\n  0x00\n    /* \"#utility.yul\":5564:5637   */\n  swap1\n  jump\t// out\n    /* \"#utility.yul\":5643:5832   */\ntag_39:\n    /* \"#utility.yul\":5720:5752   */\n  tag_112\n  tag_38\n  jump\t// in\ntag_112:\n    /* \"#utility.yul\":5761:5826   */\n  tag_113\n    /* \"#utility.yul\":5819:5825   */\n  dup2\n    /* \"#utility.yul\":5811:5817   */\n  dup5\n    /* \"#utility.yul\":5805:5809   */\n  dup5\n    /* \"#utility.yul\":5761:5826   */\n  tag_37\n  jump\t// in\ntag_113:\n    /* \"#utility.yul\":5696:5832   */\n  pop\n    /* \"#utility.yul\":5643:5832   */\n  pop\n  pop\n  jump\t// out\n    /* \"#utility.yul\":5838:6024   */\ntag_40:\n    /* \"#utility.yul\":5898:6018   */\ntag_115:\n    /* \"#utility.yul\":5915:5918   */\n  dup2\n    /* \"#utility.yul\":5908:5913   */\n  dup2\n    /* \"#utility.yul\":5905:5919   */\n  lt\n    /* \"#utility.yul\":5898:6018   */\n  iszero\n  tag_117\n  jumpi\n    /* \"#utility.yul\":5969:6008   */\n  tag_118\n    /* \"#utility.yul\":6006:6007   */\n  0x00\n    /* \"#utility.yul\":5999:6004   */\n  dup3\n    /* \"#utility.yul\":5969:6008   */\n  tag_39\n  jump\t// in\ntag_118:\n    /* \"#utility.yul\":5942:5943   */\n  0x01\n    /* \"#utility.yul\":5935:5940   */\n  dup2\n    /* \"#utility.yul\":5931:5944   */\n  add\n    /* \"#utility.yul\":5922:5944   */\n  swap1\n  pop\n    /* \"#utility.yul\":5898:6018   */\n  jump(tag_115)\ntag_117:\n    /* \"#utility.yul\":5838:6024   */\n  pop\n  pop\n  jump\t// out\n    /* \"#utility.yul\":6030:6573   */\ntag_41:\n    /* \"#utility.yul\":6131:6133   */\n  0x1f\n    /* \"#utility.yul\":6126:6129   */\n  dup3\n    /* \"#utility.yul\":6123:6134   */\n  gt\n    /* \"#utility.yul\":6120:6566   */\n  iszero\n  tag_120\n  jumpi\n    /* \"#utility.yul\":6165:6203   */\n  tag_121\n    /* \"#utility.yul\":6197:6202   */\n  dup2\n    /* \"#utility.yul\":6165:6203   */\n  tag_29\n  jump\t// in\ntag_121:\n    /* \"#utility.yul\":6249:6278   */\n  tag_122\n    /* \"#utility.yul\":6267:6277   */\n  dup5\n    /* \"#utility.yul\":6249:6278   */\n  tag_30\n  jump\t// in\ntag_122:\n    /* \"#utility.yul\":6239:6247   */\n  dup2\n    /* \"#utility.yul\":6235:6279   */\n  add\n    /* \"#utility.yul\":6432:6434   */\n  0x20\n    /* \"#utility.yul\":6420:6430   */\n  dup6\n    /* \"#utility.yul\":6417:6435   */\n  lt\n    /* \"#utility.yul\":6414:6463   */\n  iszero\n  tag_123\n  jumpi\n    /* \"#utility.yul\":6453:6461   */\n  dup2\n    /* \"#utility.yul\":6438:6461   */\n  swap1\n  pop\n    /* \"#utility.yul\":6414:6463   */\ntag_123:\n    /* \"#utility.yul\":6476:6556   */\n  tag_124\n    /* \"#utility.yul\":6532:6554   */\n  tag_125\n    /* \"#utility.yul\":6550:6553   */\n  dup6\n    /* \"#utility.yul\":6532:6554   */\n  tag_30\n  jump\t// in\ntag_125:\n    /* \"#utility.yul\":6522:6530   */\n  dup4\n    /* \"#utility.yul\":6518:6555   */\n  add\n    /* \"#utility.yul\":6505:6516   */\n  dup3\n    /* \"#utility.yul\":6476:6556   */\n  tag_40\n  jump\t// in\ntag_124:\n    /* \"#utility.yul\":6135:6566   */\n  pop\n  pop\n    /* \"#utility.yul\":6120:6566   */\ntag_120:\n    /* \"#utility.yul\":6030:6573   */\n  pop\n  pop\n  pop\n  jump\t// out\n    /* \"#utility.yul\":6579:6696   */\ntag_42:\n    /* \"#utility.yul\":6633:6641   */\n  0x00\n    /* \"#utility.yul\":6683:6688   */\n  dup3\n    /* \"#utility.yul\":6677:6681   */\n  dup3\n    /* \"#utility.yul\":6673:6689   */\n  shr\n    /* \"#utility.yul\":6652:6689   */\n  swap1\n  pop\n    /* \"#utility.yul\":6579:6696   */\n  swap3\n  swap2\n  pop\n  pop\n  jump\t// out\n    /* \"#utility.yul\":6702:6871   */\ntag_43:\n    /* \"#utility.yul\":6746:6752   */\n  0x00\n    /* \"#utility.yul\":6779:6830   */\n  tag_128\n    /* \"#utility.yul\":6827:6828   */\n  0x00\n    /* \"#utility.yul\":6823:6829   */\n  not\n    /* \"#utility.yul\":6815:6820   */\n  dup5\n    /* \"#utility.yul\":6812:6813   */\n  0x08\n    /* \"#utility.yul\":6808:6821   */\n  mul\n    /* \"#utility.yul\":6779:6830   */\n  tag_42\n  jump\t// in\ntag_128:\n    /* \"#utility.yul\":6775:6831   */\n  not\n    /* \"#utility.yul\":6860:6864   */\n  dup1\n    /* \"#utility.yul\":6854:6858   */\n  dup4\n    /* \"#utility.yul\":6850:6865   */\n  and\n    /* \"#utility.yul\":6840:6865   */\n  swap2\n  pop\n    /* \"#utility.yul\":6753:6871   */\n  pop\n    /* \"#utility.yul\":6702:6871   */\n  swap3\n  swap2\n  pop\n  pop\n  jump\t// out\n    /* \"#utility.yul\":6876:7171   */\ntag_44:\n    /* \"#utility.yul\":6952:6956   */\n  0x00\n    /* \"#utility.yul\":7098:7127   */\n  tag_130\n    /* \"#utility.yul\":7123:7126   */\n  dup4\n    /* \"#utility.yul\":7117:7121   */\n  dup4\n    /* \"#utility.yul\":7098:7127   */\n  tag_43\n  jump\t// in\ntag_130:\n    /* \"#utility.yul\":7090:7127   */\n  swap2\n  pop\n    /* \"#utility.yul\":7160:7163   */\n  dup3\n    /* \"#utility.yul\":7157:7158   */\n  0x02\n    /* \"#utility.yul\":7153:7164   */\n  mul\n    /* \"#utility.yul\":7147:7151   */\n  dup3\n    /* \"#utility.yul\":7144:7165   */\n  or\n    /* \"#utility.yul\":7136:7165   */\n  swap1\n  pop\n    /* \"#utility.yul\":6876:7171   */\n  swap3\n  swap2\n  pop\n  pop\n  jump\t// out\n    /* \"#utility.yul\":7176:8571   */\ntag_8:\n    /* \"#utility.yul\":7293:7330   */\n  tag_132\n    /* \"#utility.yul\":7326:7329   */\n  dup3\n    /* \"#utility.yul\":7293:7330   */\n  tag_26\n  jump\t// in\ntag_132:\n    /* \"#utility.yul\":7395:7413   */\n  0xffffffffffffffff\n    /* \"#utility.yul\":7387:7393   */\n  dup2\n    /* \"#utility.yul\":7384:7414   */\n  gt\n    /* \"#utility.yul\":7381:7437   */\n  iszero\n  tag_133\n  jumpi\n    /* \"#utility.yul\":7417:7435   */\n  tag_134\n  tag_19\n  jump\t// in\ntag_134:\n    /* \"#utility.yul\":7381:7437   */\ntag_133:\n    /* \"#utility.yul\":7461:7499   */\n  tag_135\n    /* \"#utility.yul\":7493:7497   */\n  dup3\n    /* \"#utility.yul\":7487:7498   */\n  sload\n    /* \"#utility.yul\":7461:7499   */\n  tag_28\n  jump\t// in\ntag_135:\n    /* \"#utility.yul\":7546:7613   */\n  tag_136\n    /* \"#utility.yul\":7606:7612   */\n  dup3\n    /* \"#utility.yul\":7598:7604   */\n  dup3\n    /* \"#utility.yul\":7592:7596   */\n  dup6\n    /* \"#utility.yul\":7546:7613   */\n  tag_41\n  jump\t// in\ntag_136:\n    /* \"#utility.yul\":7640:7641   */\n  0x00\n    /* \"#utility.yul\":7664:7668   */\n  0x20\n    /* \"#utility.yul\":7651:7668   */\n  swap1\n  pop\n    /* \"#utility.yul\":7696:7698   */\n  0x1f\n    /* \"#utility.yul\":7688:7694   */\n  dup4\n    /* \"#utility.yul\":7685:7699   */\n  gt\n    /* \"#utility.yul\":7713:7714   */\n  0x01\n    /* \"#utility.yul\":7708:8326   */\n  dup2\n  eq\n  tag_138\n  jumpi\n    /* \"#utility.yul\":8370:8371   */\n  0x00\n    /* \"#utility.yul\":8387:8393   */\n  dup5\n    /* \"#utility.yul\":8384:8461   */\n  iszero\n  tag_139\n  jumpi\n    /* \"#utility.yul\":8436:8445   */\n  dup3\n    /* \"#utility.yul\":8431:8434   */\n  dup8\n    /* \"#utility.yul\":8427:8446   */\n  add\n    /* \"#utility.yul\":8421:8447   */\n  mload\n    /* \"#utility.yul\":8412:8447   */\n  swap1\n  pop\n    /* \"#utility.yul\":8384:8461   */\ntag_139:\n    /* \"#utility.yul\":8487:8554   */\n  tag_140\n    /* \"#utility.yul\":8547:8553   */\n  dup6\n    /* \"#utility.yul\":8540:8545   */\n  dup3\n    /* \"#utility.yul\":8487:8554   */\n  tag_44\n  jump\t// in\ntag_140:\n    /* \"#utility.yul\":8481:8485   */\n  dup7\n    /* \"#utility.yul\":8474:8555   */\n  sstore\n    /* \"#utility.yul\":8343:8565   */\n  pop\n    /* \"#utility.yul\":7678:8565   */\n  jump(tag_137)\n    /* \"#utility.yul\":7708:8326   */\ntag_138:\n    /* \"#utility.yul\":7760:7764   */\n  0x1f\n    /* \"#utility.yul\":7756:7765   */\n  not\n    /* \"#utility.yul\":7748:7754   */\n  dup5\n    /* \"#utility.yul\":7744:7766   */\n  and\n    /* \"#utility.yul\":7794:7831   */\n  tag_141\n    /* \"#utility.yul\":7826:7830   */\n  dup7\n    /* \"#utility.yul\":7794:7831   */\n  tag_29\n  jump\t// in\ntag_141:\n    /* \"#utility.yul\":7853:7854   */\n  0x00\n    /* \"#utility.yul\":7867:8075   */\ntag_142:\n    /* \"#utility.yul\":7881:7888   */\n  dup3\n    /* \"#utility.yul\":7878:7879   */\n  dup2\n    /* \"#utility.yul\":7875:7889   */\n  lt\n    /* \"#utility.yul\":7867:8075   */\n  iszero\n  tag_144\n  jumpi\n    /* \"#utility.yul\":7960:7969   */\n  dup5\n    /* \"#utility.yul\":7955:7958   */\n  dup10\n    /* \"#utility.yul\":7951:7970   */\n  add\n    /* \"#utility.yul\":7945:7971   */\n  mload\n    /* \"#utility.yul\":7937:7943   */\n  dup3\n    /* \"#utility.yul\":7930:7972   */\n  sstore\n    /* \"#utility.yul\":8011:8012   */\n  0x01\n    /* \"#utility.yul\":8003:8009   */\n  dup3\n    /* \"#utility.yul\":7999:8013   */\n  add\n    /* \"#utility.yul\":7989:8013   */\n  swap2\n  pop\n    /* \"#utility.yul\":8058:8060   */\n  0x20\n    /* \"#utility.yul\":8047:8056   */\n  dup6\n    /* \"#utility.yul\":8043:8061   */\n  add\n    /* \"#utility.yul\":8030:8061   */\n  swap5\n  pop\n    /* \"#utility.yul\":7904:7908   */\n  0x20\n    /* \"#utility.yul\":7901:7902   */\n  dup2\n    /* \"#utility.yul\":7897:7909   */\n  add\n    /* \"#utility.yul\":7892:7909   */\n  swap1\n  pop\n    /* \"#utility.yul\":7867:8075   */\n  jump(tag_142)\ntag_144:\n    /* \"#utility.yul\":8103:8109   */\n  dup7\n    /* \"#utility.yul\":8094:8101   */\n  dup4\n    /* \"#utility.yul\":8091:8110   */\n  lt\n    /* \"#utility.yul\":8088:8267   */\n  iszero\n  tag_145\n  jumpi\n    /* \"#utility.yul\":8161:8170   */\n  dup5\n    /* \"#utility.yul\":8156:8159   */\n  dup10\n    /* \"#utility.yul\":8152:8171   */\n  add\n    /* \"#utility.yul\":8146:8172   */\n  mload\n    /* \"#utility.yul\":8204:8252   */\n  tag_146\n    /* \"#utility.yul\":8246:8250   */\n  0x1f\n    /* \"#utility.yul\":8238:8244   */\n  dup10\n    /* \"#utility.yul\":8234:8251   */\n  and\n    /* \"#utility.yul\":8223:8232   */\n  dup3\n    /* \"#utility.yul\":8204:8252   */\n  tag_43\n  jump\t// in\ntag_146:\n    /* \"#utility.yul\":8196:8202   */\n  dup4\n    /* \"#utility.yul\":8189:8253   */\n  sstore\n    /* \"#utility.yul\":8111:8267   */\n  pop\n    /* \"#utility.yul\":8088:8267   */\ntag_145:\n    /* \"#utility.yul\":8313:8314   */\n  0x01\n    /* \"#utility.yul\":8309:8310   */\n  0x02\n    /* \"#utility.yul\":8301:8307   */\n  dup9\n    /* \"#utility.yul\":8297:8311   */\n  mul\n    /* \"#utility.yul\":8293:8315   */\n  add\n    /* \"#utility.yul\":8287:8291   */\n  dup9\n    /* \"#utility.yul\":8280:8316   */\n  sstore\n    /* \"#utility.yul\":7715:8326   */\n  pop\n  pop\n  pop\n    /* \"#utility.yul\":7678:8565   */\ntag_137:\n  pop\n    /* \"#utility.yul\":7268:8571   */\n  pop\n  pop\n  pop\n    /* \"#utility.yul\":7176:8571   */\n  pop\n  pop\n  jump\t// out\n    /* \"contracts/WeightedVoting.sol\":858:4694  contract WeightedVoting is ERC20 {... */\ntag_12:\n  dataSize(sub_0)\n  dup1\n  dataOffset(sub_0)\n  0x00\n  codecopy\n  0x00\n  return\nstop\n\nsub_0: assembly {\n        /* \"contracts/WeightedVoting.sol\":858:4694  contract WeightedVoting is ERC20 {... */\n      mstore(0x40, 0x80)\n      callvalue\n      dup1\n      iszero\n      tag_1\n      jumpi\n      0x00\n      dup1\n      revert\n    tag_1:\n      pop\n      jumpi(tag_2, lt(calldatasize, 0x04))\n      shr(0xe0, calldataload(0x00))\n      dup1\n      0x70a08231\n      gt\n      tag_24\n      jumpi\n      dup1\n      0x9668ceb8\n      gt\n      tag_25\n      jumpi\n      dup1\n      0x9668ceb8\n      eq\n      tag_18\n      jumpi\n      dup1\n      0xa457c2d7\n      eq\n      tag_19\n      jumpi\n      dup1\n      0xa9059cbb\n      eq\n      tag_20\n      jumpi\n      dup1\n      0xd5abeb01\n      eq\n      tag_21\n      jumpi\n      dup1\n      0xdd62ed3e\n      eq\n      tag_22\n      jumpi\n      dup1\n      0xfca22842\n      eq\n      tag_23\n      jumpi\n      jump(tag_2)\n    tag_25:\n      dup1\n      0x70a08231\n      eq\n      tag_13\n      jumpi\n      dup1\n      0x73b2e80e\n      eq\n      tag_14\n      jumpi\n      dup1\n      0x830953ab\n      eq\n      tag_15\n      jumpi\n      dup1\n      0x8da5cb5b\n      eq\n      tag_16\n      jumpi\n      dup1\n      0x95d89b41\n      eq\n      tag_17\n      jumpi\n      jump(tag_2)\n    tag_24:\n      dup1\n      0x23b872dd\n      gt\n      tag_26\n      jumpi\n      dup1\n      0x23b872dd\n      eq\n      tag_8\n      jumpi\n      dup1\n      0x27e235e3\n      eq\n      tag_9\n      jumpi\n      dup1\n      0x313ce567\n      eq\n      tag_10\n      jumpi\n      dup1\n      0x39509351\n      eq\n      tag_11\n      jumpi\n      dup1\n      0x4e71d92d\n      eq\n      tag_12\n      jumpi\n      jump(tag_2)\n    tag_26:\n      dup1\n      0x06fdde03\n      eq\n      tag_3\n      jumpi\n      dup1\n      0x095ea7b3\n      eq\n      tag_4\n      jumpi\n      dup1\n      0x0c6a8615\n      eq\n      tag_5\n      jumpi\n      dup1\n      0x18160ddd\n      eq\n      tag_6\n      jumpi\n      dup1\n      0x21e4c301\n      eq\n      tag_7\n      jumpi\n    tag_2:\n      0x00\n      dup1\n      revert\n        /* \"https://github.com/OpenZeppelin/openzeppelin-contracts/blob/v4.0.0/contracts/token/ERC20/ERC20.sol\":2021:2110  function name() public view virtual returns (string memory) {... */\n    tag_3:\n      tag_27\n      tag_28\n      jump\t// in\n    tag_27:\n      mload(0x40)\n      tag_29\n      swap2\n      swap1\n      tag_30\n      jump\t// in\n    tag_29:\n      mload(0x40)\n      dup1\n      swap2\n      sub\n      swap1\n      return\n        /* \"https://github.com/OpenZeppelin/openzeppelin-contracts/blob/v4.0.0/contracts/token/ERC20/ERC20.sol\":4091:4257  function approve(address spender, uint256 amount) public virtual override returns (bool) {... */\n    tag_4:\n      tag_31\n      0x04\n      dup1\n      calldatasize\n      sub\n      dup2\n      add\n      swap1\n      tag_32\n      swap2\n      swap1\n      tag_33\n      jump\t// in\n    tag_32:\n      tag_34\n      jump\t// in\n    tag_31:\n      mload(0x40)\n      tag_35\n      swap2\n      swap1\n      tag_36\n      jump\t// in\n    tag_35:\n      mload(0x40)\n      dup1\n      swap2\n      sub\n      swap1\n      return\n        /* \"contracts/WeightedVoting.sol\":2169:2724  function createIssue(string memory _issueDesc, uint24 _quorum)... */\n    tag_5:\n      tag_37\n      0x04\n      dup1\n      calldatasize\n      sub\n      dup2\n      add\n      swap1\n      tag_38\n      swap2\n      swap1\n      tag_39\n      jump\t// in\n    tag_38:\n      tag_40\n      jump\t// in\n    tag_37:\n      mload(0x40)\n      tag_41\n      swap2\n      swap1\n      tag_42\n      jump\t// in\n    tag_41:\n      mload(0x40)\n      dup1\n      swap2\n      sub\n      swap1\n      return\n        /* \"https://github.com/OpenZeppelin/openzeppelin-contracts/blob/v4.0.0/contracts/token/ERC20/ERC20.sol\":3082:3188  function totalSupply() public view virtual override returns (uint256) {... */\n    tag_6:\n      tag_43\n      tag_44\n      jump\t// in\n    tag_43:\n      mload(0x40)\n      tag_45\n      swap2\n      swap1\n      tag_42\n      jump\t// in\n    tag_45:\n      mload(0x40)\n      dup1\n      swap2\n      sub\n      swap1\n      return\n        /* \"contracts/WeightedVoting.sol\":3411:4692  function vote(uint24 _issueId, Votes _vote) public {... */\n    tag_7:\n      tag_46\n      0x04\n      dup1\n      calldatasize\n      sub\n      dup2\n      add\n      swap1\n      tag_47\n      swap2\n      swap1\n      tag_48\n      jump\t// in\n    tag_47:\n      tag_49\n      jump\t// in\n    tag_46:\n      stop\n        /* \"https://github.com/OpenZeppelin/openzeppelin-contracts/blob/v4.0.0/contracts/token/ERC20/ERC20.sol\":4724:5138  function transferFrom(address sender, address recipient, uint256 amount) public virtual override returns (bool) {... */\n    tag_8:\n      tag_50\n      0x04\n      dup1\n      calldatasize\n      sub\n      dup2\n      add\n      swap1\n      tag_51\n      swap2\n      swap1\n      tag_52\n      jump\t// in\n    tag_51:\n      tag_53\n      jump\t// in\n    tag_50:\n      mload(0x40)\n      tag_54\n      swap2\n      swap1\n      tag_36\n      jump\t// in\n    tag_54:\n      mload(0x40)\n      dup1\n      swap2\n      sub\n      swap1\n      return\n        /* \"contracts/WeightedVoting.sol\":1095:1137  mapping(address => uint24) public balances */\n    tag_9:\n      tag_55\n      0x04\n      dup1\n      calldatasize\n      sub\n      dup2\n      add\n      swap1\n      tag_56\n      swap2\n      swap1\n      tag_57\n      jump\t// in\n    tag_56:\n      tag_58\n      jump\t// in\n    tag_55:\n      mload(0x40)\n      tag_59\n      swap2\n      swap1\n      tag_60\n      jump\t// in\n    tag_59:\n      mload(0x40)\n      dup1\n      swap2\n      sub\n      swap1\n      return\n        /* \"https://github.com/OpenZeppelin/openzeppelin-contracts/blob/v4.0.0/contracts/token/ERC20/ERC20.sol\":2940:3022  function decimals() public view virtual returns (uint8) {... */\n    tag_10:\n      tag_61\n      tag_62\n      jump\t// in\n    tag_61:\n      mload(0x40)\n      tag_63\n      swap2\n      swap1\n      tag_64\n      jump\t// in\n    tag_63:\n      mload(0x40)\n      dup1\n      swap2\n      sub\n      swap1\n      return\n        /* \"https://github.com/OpenZeppelin/openzeppelin-contracts/blob/v4.0.0/contracts/token/ERC20/ERC20.sol\":5533:5745  function increaseAllowance(address spender, uint256 addedValue) public virtual returns (bool) {... */\n    tag_11:\n      tag_65\n      0x04\n      dup1\n      calldatasize\n      sub\n      dup2\n      add\n      swap1\n      tag_66\n      swap2\n      swap1\n      tag_33\n      jump\t// in\n    tag_66:\n      tag_67\n      jump\t// in\n    tag_65:\n      mload(0x40)\n      tag_68\n      swap2\n      swap1\n      tag_36\n      jump\t// in\n    tag_68:\n      mload(0x40)\n      dup1\n      swap2\n      sub\n      swap1\n      return\n        /* \"contracts/WeightedVoting.sol\":1883:2163  function claim() public {... */\n    tag_12:\n      tag_69\n      tag_70\n      jump\t// in\n    tag_69:\n      stop\n        /* \"https://github.com/OpenZeppelin/openzeppelin-contracts/blob/v4.0.0/contracts/token/ERC20/ERC20.sol\":3246:3371  function balanceOf(address account) public view virtual override returns (uint256) {... */\n    tag_13:\n      tag_71\n      0x04\n      dup1\n      calldatasize\n      sub\n      dup2\n      add\n      swap1\n      tag_72\n      swap2\n      swap1\n      tag_57\n      jump\t// in\n    tag_72:\n      tag_73\n      jump\t// in\n    tag_71:\n      mload(0x40)\n      tag_74\n      swap2\n      swap1\n      tag_42\n      jump\t// in\n    tag_74:\n      mload(0x40)\n      dup1\n      swap2\n      sub\n      swap1\n      return\n        /* \"contracts/WeightedVoting.sol\":1202:1244  mapping(address => bool) public hasClaimed */\n    tag_14:\n      tag_75\n      0x04\n      dup1\n      calldatasize\n      sub\n      dup2\n      add\n      swap1\n      tag_76\n      swap2\n      swap1\n      tag_57\n      jump\t// in\n    tag_76:\n      tag_77\n      jump\t// in\n    tag_75:\n      mload(0x40)\n      tag_78\n      swap2\n      swap1\n      tag_36\n      jump\t// in\n    tag_78:\n      mload(0x40)\n      dup1\n      swap2\n      sub\n      swap1\n      return\n        /* \"contracts/WeightedVoting.sol\":981:1006  uint24 public claimAmount */\n    tag_15:\n      tag_79\n      tag_80\n      jump\t// in\n    tag_79:\n      mload(0x40)\n      tag_81\n      swap2\n      swap1\n      tag_60\n      jump\t// in\n    tag_81:\n      mload(0x40)\n      dup1\n      swap2\n      sub\n      swap1\n      return\n        /* \"contracts/WeightedVoting.sol\":1609:1629  address public owner */\n    tag_16:\n      tag_82\n      tag_83\n      jump\t// in\n    tag_82:\n      mload(0x40)\n      tag_84\n      swap2\n      swap1\n      tag_85\n      jump\t// in\n    tag_84:\n      mload(0x40)\n      dup1\n      swap2\n      sub\n      swap1\n      return\n        /* \"https://github.com/OpenZeppelin/openzeppelin-contracts/blob/v4.0.0/contracts/token/ERC20/ERC20.sol\":2223:2316  function symbol() public view virtual returns (string memory) {... */\n    tag_17:\n      tag_86\n      tag_87\n      jump\t// in\n    tag_86:\n      mload(0x40)\n      tag_88\n      swap2\n      swap1\n      tag_30\n      jump\t// in\n    tag_88:\n      mload(0x40)\n      dup1\n      swap2\n      sub\n      swap1\n      return\n        /* \"contracts/WeightedVoting.sol\":1012:1039  uint24 public claimedAmount */\n    tag_18:\n      tag_89\n      tag_90\n      jump\t// in\n    tag_89:\n      mload(0x40)\n      tag_91\n      swap2\n      swap1\n      tag_60\n      jump\t// in\n    tag_91:\n      mload(0x40)\n      dup1\n      swap2\n      sub\n      swap1\n      return\n        /* \"https://github.com/OpenZeppelin/openzeppelin-contracts/blob/v4.0.0/contracts/token/ERC20/ERC20.sol\":6232:6603  function decreaseAllowance(address spender, uint256 subtractedValue) public virtual returns (bool) {... */\n    tag_19:\n      tag_92\n      0x04\n      dup1\n      calldatasize\n      sub\n      dup2\n      add\n      swap1\n      tag_93\n      swap2\n      swap1\n      tag_33\n      jump\t// in\n    tag_93:\n      tag_94\n      jump\t// in\n    tag_92:\n      mload(0x40)\n      tag_95\n      swap2\n      swap1\n      tag_36\n      jump\t// in\n    tag_95:\n      mload(0x40)\n      dup1\n      swap2\n      sub\n      swap1\n      return\n        /* \"https://github.com/OpenZeppelin/openzeppelin-contracts/blob/v4.0.0/contracts/token/ERC20/ERC20.sol\":3574:3746  function transfer(address recipient, uint256 amount) public virtual override returns (bool) {... */\n    tag_20:\n      tag_96\n      0x04\n      dup1\n      calldatasize\n      sub\n      dup2\n      add\n      swap1\n      tag_97\n      swap2\n      swap1\n      tag_33\n      jump\t// in\n    tag_97:\n      tag_98\n      jump\t// in\n    tag_96:\n      mload(0x40)\n      tag_99\n      swap2\n      swap1\n      tag_36\n      jump\t// in\n    tag_99:\n      mload(0x40)\n      dup1\n      swap2\n      sub\n      swap1\n      return\n        /* \"contracts/WeightedVoting.sol\":952:975  uint24 public maxSupply */\n    tag_21:\n      tag_100\n      tag_101\n      jump\t// in\n    tag_100:\n      mload(0x40)\n      tag_102\n      swap2\n      swap1\n      tag_60\n      jump\t// in\n    tag_102:\n      mload(0x40)\n      dup1\n      swap2\n      sub\n      swap1\n      return\n        /* \"https://github.com/OpenZeppelin/openzeppelin-contracts/blob/v4.0.0/contracts/token/ERC20/ERC20.sol\":3804:3953  function allowance(address owner, address spender) public view virtual override returns (uint256) {... */\n    tag_22:\n      tag_103\n      0x04\n      dup1\n      calldatasize\n      sub\n      dup2\n      add\n      swap1\n      tag_104\n      swap2\n      swap1\n      tag_105\n      jump\t// in\n    tag_104:\n      tag_106\n      jump\t// in\n    tag_103:\n      mload(0x40)\n      tag_107\n      swap2\n      swap1\n      tag_42\n      jump\t// in\n    tag_107:\n      mload(0x40)\n      dup1\n      swap2\n      sub\n      swap1\n      return\n        /* \"contracts/WeightedVoting.sol\":2757:3405  function getIssue(uint24 _id) external view returns (IssueView memory) {... */\n    tag_23:\n      tag_108\n      0x04\n      dup1\n      calldatasize\n      sub\n      dup2\n      add\n      swap1\n      tag_109\n      swap2\n      swap1\n      tag_110\n      jump\t// in\n    tag_109:\n      tag_111\n      jump\t// in\n    tag_108:\n      mload(0x40)\n      tag_112\n      swap2\n      swap1\n      tag_113\n      jump\t// in\n    tag_112:\n      mload(0x40)\n      dup1\n      swap2\n      sub\n      swap1\n      return\n        /* \"https://github.com/OpenZeppelin/openzeppelin-contracts/blob/v4.0.0/contracts/token/ERC20/ERC20.sol\":2021:2110  function name() public view virtual returns (string memory) {... */\n    tag_28:\n        /* \"https://github.com/OpenZeppelin/openzeppelin-contracts/blob/v4.0.0/contracts/token/ERC20/ERC20.sol\":2066:2079  string memory */\n      0x60\n        /* \"https://github.com/OpenZeppelin/openzeppelin-contracts/blob/v4.0.0/contracts/token/ERC20/ERC20.sol\":2098:2103  _name */\n      0x03\n        /* \"https://github.com/OpenZeppelin/openzeppelin-contracts/blob/v4.0.0/contracts/token/ERC20/ERC20.sol\":2091:2103  return _name */\n      dup1\n      sload\n      tag_115\n      swap1\n      tag_116\n      jump\t// in\n    tag_115:\n      dup1\n      0x1f\n      add\n      0x20\n      dup1\n      swap2\n      div\n      mul\n      0x20\n      add\n      mload(0x40)\n      swap1\n      dup2\n      add\n      0x40\n      mstore\n      dup1\n      swap3\n      swap2\n      swap1\n      dup2\n      dup2\n      mstore\n      0x20\n      add\n      dup3\n      dup1\n      sload\n      tag_117\n      swap1\n      tag_116\n      jump\t// in\n    tag_117:\n      dup1\n      iszero\n      tag_118\n      jumpi\n      dup1\n      0x1f\n      lt\n      tag_119\n      jumpi\n      0x0100\n      dup1\n      dup4\n      sload\n      div\n      mul\n      dup4\n      mstore\n      swap2\n      0x20\n      add\n      swap2\n      jump(tag_118)\n    tag_119:\n      dup3\n      add\n      swap2\n      swap1\n      0x00\n      mstore\n      keccak256(0x00, 0x20)\n      swap1\n    tag_120:\n      dup2\n      sload\n      dup2\n      mstore\n      swap1\n      0x01\n      add\n      swap1\n      0x20\n      add\n      dup1\n      dup4\n      gt\n      tag_120\n      jumpi\n      dup3\n      swap1\n      sub\n      0x1f\n      and\n      dup3\n      add\n      swap2\n    tag_118:\n      pop\n      pop\n      pop\n      pop\n      pop\n      swap1\n      pop\n        /* \"https://github.com/OpenZeppelin/openzeppelin-contracts/blob/v4.0.0/contracts/token/ERC20/ERC20.sol\":2021:2110  function name() public view virtual returns (string memory) {... */\n      swap1\n      jump\t// out\n        /* \"https://github.com/OpenZeppelin/openzeppelin-contracts/blob/v4.0.0/contracts/token/ERC20/ERC20.sol\":4091:4257  function approve(address spender, uint256 amount) public virtual override returns (bool) {... */\n    tag_34:\n        /* \"https://github.com/OpenZeppelin/openzeppelin-contracts/blob/v4.0.0/contracts/token/ERC20/ERC20.sol\":4174:4178  bool */\n      0x00\n        /* \"https://github.com/OpenZeppelin/openzeppelin-contracts/blob/v4.0.0/contracts/token/ERC20/ERC20.sol\":4190:4229  _approve(_msgSender(), spender, amount) */\n      tag_122\n        /* \"https://github.com/OpenZeppelin/openzeppelin-contracts/blob/v4.0.0/contracts/token/ERC20/ERC20.sol\":4199:4211  _msgSender() */\n      tag_123\n        /* \"https://github.com/OpenZeppelin/openzeppelin-contracts/blob/v4.0.0/contracts/token/ERC20/ERC20.sol\":4199:4209  _msgSender */\n      tag_124\n        /* \"https://github.com/OpenZeppelin/openzeppelin-contracts/blob/v4.0.0/contracts/token/ERC20/ERC20.sol\":4199:4211  _msgSender() */\n      jump\t// in\n    tag_123:\n        /* \"https://github.com/OpenZeppelin/openzeppelin-contracts/blob/v4.0.0/contracts/token/ERC20/ERC20.sol\":4213:4220  spender */\n      dup5\n        /* \"https://github.com/OpenZeppelin/openzeppelin-contracts/blob/v4.0.0/contracts/token/ERC20/ERC20.sol\":4222:4228  amount */\n      dup5\n        /* \"https://github.com/OpenZeppelin/openzeppelin-contracts/blob/v4.0.0/contracts/token/ERC20/ERC20.sol\":4190:4198  _approve */\n      tag_125\n        /* \"https://github.com/OpenZeppelin/openzeppelin-contracts/blob/v4.0.0/contracts/token/ERC20/ERC20.sol\":4190:4229  _approve(_msgSender(), spender, amount) */\n      jump\t// in\n    tag_122:\n        /* \"https://github.com/OpenZeppelin/openzeppelin-contracts/blob/v4.0.0/contracts/token/ERC20/ERC20.sol\":4246:4250  true */\n      0x01\n        /* \"https://github.com/OpenZeppelin/openzeppelin-contracts/blob/v4.0.0/contracts/token/ERC20/ERC20.sol\":4239:4250  return true */\n      swap1\n      pop\n        /* \"https://github.com/OpenZeppelin/openzeppelin-contracts/blob/v4.0.0/contracts/token/ERC20/ERC20.sol\":4091:4257  function approve(address spender, uint256 amount) public virtual override returns (bool) {... */\n      swap3\n      swap2\n      pop\n      pop\n      jump\t// out\n        /* \"contracts/WeightedVoting.sol\":2169:2724  function createIssue(string memory _issueDesc, uint24 _quorum)... */\n    tag_40:\n        /* \"contracts/WeightedVoting.sol\":2266:2277  uint256 idx */\n      0x00\n        /* \"contracts/WeightedVoting.sol\":2337:2338  0 */\n      dup1\n        /* \"contracts/WeightedVoting.sol\":2314:2322  balances */\n      0x06\n        /* \"contracts/WeightedVoting.sol\":2314:2334  balances[msg.sender] */\n      0x00\n        /* \"contracts/WeightedVoting.sol\":2323:2333  msg.sender */\n      caller\n        /* \"contracts/WeightedVoting.sol\":2314:2334  balances[msg.sender] */\n      0xffffffffffffffffffffffffffffffffffffffff\n      and\n      0xffffffffffffffffffffffffffffffffffffffff\n      and\n      dup2\n      mstore\n      0x20\n      add\n      swap1\n      dup2\n      mstore\n      0x20\n      add\n      0x00\n      keccak256\n      0x00\n      swap1\n      sload\n      swap1\n      0x0100\n      exp\n      swap1\n      div\n      0xffffff\n      and\n        /* \"contracts/WeightedVoting.sol\":2314:2338  balances[msg.sender] > 0 */\n      0xffffff\n      and\n      gt\n        /* \"contracts/WeightedVoting.sol\":2293:2400  require(... */\n      tag_127\n      jumpi\n      mload(0x40)\n      0x08c379a000000000000000000000000000000000000000000000000000000000\n      dup2\n      mstore\n      0x04\n      add\n      tag_128\n      swap1\n      tag_129\n      jump\t// in\n    tag_128:\n      mload(0x40)\n      dup1\n      swap2\n      sub\n      swap1\n      revert\n    tag_127:\n        /* \"contracts/WeightedVoting.sol\":2442:2455  totalSupply() */\n      tag_130\n        /* \"contracts/WeightedVoting.sol\":2442:2453  totalSupply */\n      tag_44\n        /* \"contracts/WeightedVoting.sol\":2442:2455  totalSupply() */\n      jump\t// in\n    tag_130:\n        /* \"contracts/WeightedVoting.sol\":2431:2438  _quorum */\n      dup3\n        /* \"contracts/WeightedVoting.sol\":2431:2455  _quorum <= totalSupply() */\n      0xffffff\n      and\n      gt\n      iszero\n        /* \"contracts/WeightedVoting.sol\":2410:2537  require(... */\n      tag_131\n      jumpi\n      mload(0x40)\n      0x08c379a000000000000000000000000000000000000000000000000000000000\n      dup2\n      mstore\n      0x04\n      add\n      tag_132\n      swap1\n      tag_133\n      jump\t// in\n    tag_132:\n      mload(0x40)\n      dup1\n      swap2\n      sub\n      swap1\n      revert\n    tag_131:\n        /* \"contracts/WeightedVoting.sol\":2554:2560  issues */\n      0x09\n        /* \"contracts/WeightedVoting.sol\":2554:2567  issues.length */\n      dup1\n      sload\n      swap1\n      pop\n        /* \"contracts/WeightedVoting.sol\":2548:2567  idx = issues.length */\n      swap1\n      pop\n        /* \"contracts/WeightedVoting.sol\":2577:2583  issues */\n      0x09\n        /* \"contracts/WeightedVoting.sol\":2577:2590  issues.push() */\n      0x01\n      dup2\n      0x01\n      dup2\n      sload\n      add\n      dup1\n      dup3\n      sstore\n      dup1\n      swap2\n      pop\n      pop\n      sub\n      swap1\n      0x00\n      mstore\n      keccak256(0x00, 0x20)\n      swap1\n      pop\n      pop\n        /* \"contracts/WeightedVoting.sol\":2600:2617  Issue storage iss */\n      0x00\n        /* \"contracts/WeightedVoting.sol\":2620:2626  issues */\n      0x09\n        /* \"contracts/WeightedVoting.sol\":2627:2630  idx */\n      dup3\n        /* \"contracts/WeightedVoting.sol\":2620:2631  issues[idx] */\n      dup2\n      sload\n      dup2\n      lt\n      tag_135\n      jumpi\n      tag_136\n      tag_137\n      jump\t// in\n    tag_136:\n    tag_135:\n      swap1\n      0x00\n      mstore\n      keccak256(0x00, 0x20)\n      swap1\n      0x04\n      mul\n      add\n        /* \"contracts/WeightedVoting.sol\":2600:2631  Issue storage iss = issues[idx] */\n      swap1\n      pop\n        /* \"contracts/WeightedVoting.sol\":2657:2667  _issueDesc */\n      dup4\n        /* \"contracts/WeightedVoting.sol\":2641:2644  iss */\n      dup2\n        /* \"contracts/WeightedVoting.sol\":2641:2654  iss.issueDesc */\n      0x02\n      add\n        /* \"contracts/WeightedVoting.sol\":2641:2667  iss.issueDesc = _issueDesc */\n      swap1\n      dup2\n      tag_139\n      swap2\n      swap1\n      tag_140\n      jump\t// in\n    tag_139:\n      pop\n        /* \"contracts/WeightedVoting.sol\":2690:2697  _quorum */\n      dup3\n        /* \"contracts/WeightedVoting.sol\":2677:2680  iss */\n      dup2\n        /* \"contracts/WeightedVoting.sol\":2677:2687  iss.quorum */\n      0x03\n      add\n      0x0c\n        /* \"contracts/WeightedVoting.sol\":2677:2697  iss.quorum = _quorum */\n      0x0100\n      exp\n      dup2\n      sload\n      dup2\n      0xffffff\n      mul\n      not\n      and\n      swap1\n      dup4\n      0xffffff\n      and\n      mul\n      or\n      swap1\n      sstore\n      pop\n        /* \"contracts/WeightedVoting.sol\":2707:2717  return idx */\n      pop\n        /* \"contracts/WeightedVoting.sol\":2169:2724  function createIssue(string memory _issueDesc, uint24 _quorum)... */\n      swap3\n      swap2\n      pop\n      pop\n      jump\t// out\n        /* \"https://github.com/OpenZeppelin/openzeppelin-contracts/blob/v4.0.0/contracts/token/ERC20/ERC20.sol\":3082:3188  function totalSupply() public view virtual override returns (uint256) {... */\n    tag_44:\n        /* \"https://github.com/OpenZeppelin/openzeppelin-contracts/blob/v4.0.0/contracts/token/ERC20/ERC20.sol\":3143:3150  uint256 */\n      0x00\n        /* \"https://github.com/OpenZeppelin/openzeppelin-contracts/blob/v4.0.0/contracts/token/ERC20/ERC20.sol\":3169:3181  _totalSupply */\n      sload(0x02)\n        /* \"https://github.com/OpenZeppelin/openzeppelin-contracts/blob/v4.0.0/contracts/token/ERC20/ERC20.sol\":3162:3181  return _totalSupply */\n      swap1\n      pop\n        /* \"https://github.com/OpenZeppelin/openzeppelin-contracts/blob/v4.0.0/contracts/token/ERC20/ERC20.sol\":3082:3188  function totalSupply() public view virtual override returns (uint256) {... */\n      swap1\n      jump\t// out\n        /* \"contracts/WeightedVoting.sol\":3411:4692  function vote(uint24 _issueId, Votes _vote) public {... */\n    tag_49:\n        /* \"contracts/WeightedVoting.sol\":3527:3533  issues */\n      0x09\n        /* \"contracts/WeightedVoting.sol\":3534:3542  _issueId */\n      dup3\n        /* \"contracts/WeightedVoting.sol\":3527:3543  issues[_issueId] */\n      0xffffff\n      and\n      dup2\n      sload\n      dup2\n      lt\n      tag_143\n      jumpi\n      tag_144\n      tag_137\n      jump\t// in\n    tag_144:\n    tag_143:\n      swap1\n      0x00\n      mstore\n      keccak256(0x00, 0x20)\n      swap1\n      0x04\n      mul\n      add\n        /* \"contracts/WeightedVoting.sol\":3527:3550  issues[_issueId].closed */\n      0x03\n      add\n      0x10\n      swap1\n      sload\n      swap1\n      0x0100\n      exp\n      swap1\n      div\n      0xff\n      and\n        /* \"contracts/WeightedVoting.sol\":3526:3550  !issues[_issueId].closed */\n      iszero\n        /* \"contracts/WeightedVoting.sol\":3518:3586  require(!issues[_issueId].closed, \"Voting is closed for this issue\") */\n      tag_146\n      jumpi\n      mload(0x40)\n      0x08c379a000000000000000000000000000000000000000000000000000000000\n      dup2\n      mstore\n      0x04\n      add\n      tag_147\n      swap1\n      tag_148\n      jump\t// in\n    tag_147:\n      mload(0x40)\n      dup1\n      swap2\n      sub\n      swap1\n      revert\n    tag_146:\n        /* \"contracts/WeightedVoting.sol\":3684:3728  issues[_issueId].voters.contains(msg.sender) */\n      tag_149\n        /* \"contracts/WeightedVoting.sol\":3717:3727  msg.sender */\n      caller\n        /* \"contracts/WeightedVoting.sol\":3684:3690  issues */\n      0x09\n        /* \"contracts/WeightedVoting.sol\":3691:3699  _issueId */\n      dup5\n        /* \"contracts/WeightedVoting.sol\":3684:3700  issues[_issueId] */\n      0xffffff\n      and\n      dup2\n      sload\n      dup2\n      lt\n      tag_150\n      jumpi\n      tag_151\n      tag_137\n      jump\t// in\n    tag_151:\n    tag_150:\n      swap1\n      0x00\n      mstore\n      keccak256(0x00, 0x20)\n      swap1\n      0x04\n      mul\n      add\n        /* \"contracts/WeightedVoting.sol\":3684:3707  issues[_issueId].voters */\n      0x00\n      add\n        /* \"contracts/WeightedVoting.sol\":3684:3716  issues[_issueId].voters.contains */\n      tag_153\n      swap1\n        /* \"contracts/WeightedVoting.sol\":3684:3728  issues[_issueId].voters.contains(msg.sender) */\n      swap2\n      swap1\n      0xffffffff\n      and\n      jump\t// in\n    tag_149:\n        /* \"contracts/WeightedVoting.sol\":3683:3728  !issues[_issueId].voters.contains(msg.sender) */\n      iszero\n        /* \"contracts/WeightedVoting.sol\":3662:3781  require(... */\n      tag_154\n      jumpi\n      mload(0x40)\n      0x08c379a000000000000000000000000000000000000000000000000000000000\n      dup2\n      mstore\n      0x04\n      add\n      tag_155\n      swap1\n      tag_156\n      jump\t// in\n    tag_155:\n      mload(0x40)\n      dup1\n      swap2\n      sub\n      swap1\n      revert\n    tag_154:\n        /* \"contracts/WeightedVoting.sol\":3828:3847  Issue storage issue */\n      0x00\n        /* \"contracts/WeightedVoting.sol\":3850:3856  issues */\n      0x09\n        /* \"contracts/WeightedVoting.sol\":3857:3865  _issueId */\n      dup4\n        /* \"contracts/WeightedVoting.sol\":3850:3866  issues[_issueId] */\n      0xffffff\n      and\n      dup2\n      sload\n      dup2\n      lt\n      tag_157\n      jumpi\n      tag_158\n      tag_137\n      jump\t// in\n    tag_158:\n    tag_157:\n      swap1\n      0x00\n      mstore\n      keccak256(0x00, 0x20)\n      swap1\n      0x04\n      mul\n      add\n        /* \"contracts/WeightedVoting.sol\":3828:3866  Issue storage issue = issues[_issueId] */\n      swap1\n      pop\n        /* \"contracts/WeightedVoting.sol\":3876:3895  uint24 voterBalance */\n      0x00\n        /* \"contracts/WeightedVoting.sol\":3898:3906  balances */\n      0x06\n        /* \"contracts/WeightedVoting.sol\":3898:3918  balances[msg.sender] */\n      0x00\n        /* \"contracts/WeightedVoting.sol\":3907:3917  msg.sender */\n      caller\n        /* \"contracts/WeightedVoting.sol\":3898:3918  balances[msg.sender] */\n      0xffffffffffffffffffffffffffffffffffffffff\n      and\n      0xffffffffffffffffffffffffffffffffffffffff\n      and\n      dup2\n      mstore\n      0x20\n      add\n      swap1\n      dup2\n      mstore\n      0x20\n      add\n      0x00\n      keccak256\n      0x00\n      swap1\n      sload\n      swap1\n      0x0100\n      exp\n      swap1\n      div\n      0xffffff\n      and\n        /* \"contracts/WeightedVoting.sol\":3876:3918  uint24 voterBalance = balances[msg.sender] */\n      swap1\n      pop\n        /* \"contracts/WeightedVoting.sol\":3942:3951  Votes.FOR */\n      0x01\n        /* \"contracts/WeightedVoting.sol\":3933:3951  _vote == Votes.FOR */\n      0x02\n      dup2\n      gt\n      iszero\n      tag_160\n      jumpi\n      tag_161\n      tag_162\n      jump\t// in\n    tag_161:\n    tag_160:\n        /* \"contracts/WeightedVoting.sol\":3933:3938  _vote */\n      dup4\n        /* \"contracts/WeightedVoting.sol\":3933:3951  _vote == Votes.FOR */\n      0x02\n      dup2\n      gt\n      iszero\n      tag_163\n      jumpi\n      tag_164\n      tag_162\n      jump\t// in\n    tag_164:\n    tag_163:\n      sub\n        /* \"contracts/WeightedVoting.sol\":3929:4254  if (_vote == Votes.FOR) {... */\n      tag_165\n      jumpi\n        /* \"contracts/WeightedVoting.sol\":3985:3997  voterBalance */\n      dup1\n        /* \"contracts/WeightedVoting.sol\":3967:3972  issue */\n      dup3\n        /* \"contracts/WeightedVoting.sol\":3967:3981  issue.votesFor */\n      0x03\n      add\n      0x00\n        /* \"contracts/WeightedVoting.sol\":3967:3997  issue.votesFor += voterBalance */\n      dup3\n      dup3\n      dup3\n      swap1\n      sload\n      swap1\n      0x0100\n      exp\n      swap1\n      div\n      0xffffff\n      and\n      tag_166\n      swap2\n      swap1\n      tag_167\n      jump\t// in\n    tag_166:\n      swap3\n      pop\n      0x0100\n      exp\n      dup2\n      sload\n      dup2\n      0xffffff\n      mul\n      not\n      and\n      swap1\n      dup4\n      0xffffff\n      and\n      mul\n      or\n      swap1\n      sstore\n      pop\n        /* \"contracts/WeightedVoting.sol\":3929:4254  if (_vote == Votes.FOR) {... */\n      jump(tag_168)\n    tag_165:\n        /* \"contracts/WeightedVoting.sol\":4027:4040  Votes.AGAINST */\n      0x00\n        /* \"contracts/WeightedVoting.sol\":4018:4040  _vote == Votes.AGAINST */\n      0x02\n      dup2\n      gt\n      iszero\n      tag_169\n      jumpi\n      tag_170\n      tag_162\n      jump\t// in\n    tag_170:\n    tag_169:\n        /* \"contracts/WeightedVoting.sol\":4018:4023  _vote */\n      dup4\n        /* \"contracts/WeightedVoting.sol\":4018:4040  _vote == Votes.AGAINST */\n      0x02\n      dup2\n      gt\n      iszero\n      tag_171\n      jumpi\n      tag_172\n      tag_162\n      jump\t// in\n    tag_172:\n    tag_171:\n      sub\n        /* \"contracts/WeightedVoting.sol\":4014:4254  if (_vote == Votes.AGAINST) {... */\n      tag_173\n      jumpi\n        /* \"contracts/WeightedVoting.sol\":4078:4090  voterBalance */\n      dup1\n        /* \"contracts/WeightedVoting.sol\":4056:4061  issue */\n      dup3\n        /* \"contracts/WeightedVoting.sol\":4056:4074  issue.votesAgainst */\n      0x03\n      add\n      0x03\n        /* \"contracts/WeightedVoting.sol\":4056:4090  issue.votesAgainst += voterBalance */\n      dup3\n      dup3\n      dup3\n      swap1\n      sload\n      swap1\n      0x0100\n      exp\n      swap1\n      div\n      0xffffff\n      and\n      tag_174\n      swap2\n      swap1\n      tag_167\n      jump\t// in\n    tag_174:\n      swap3\n      pop\n      0x0100\n      exp\n      dup2\n      sload\n      dup2\n      0xffffff\n      mul\n      not\n      and\n      swap1\n      dup4\n      0xffffff\n      and\n      mul\n      or\n      swap1\n      sstore\n      pop\n        /* \"contracts/WeightedVoting.sol\":4014:4254  if (_vote == Votes.AGAINST) {... */\n      jump(tag_175)\n    tag_173:\n        /* \"contracts/WeightedVoting.sol\":4120:4133  Votes.ABSTAIN */\n      0x02\n        /* \"contracts/WeightedVoting.sol\":4111:4133  _vote == Votes.ABSTAIN */\n      dup1\n      dup2\n      gt\n      iszero\n      tag_176\n      jumpi\n      tag_177\n      tag_162\n      jump\t// in\n    tag_177:\n    tag_176:\n        /* \"contracts/WeightedVoting.sol\":4111:4116  _vote */\n      dup4\n        /* \"contracts/WeightedVoting.sol\":4111:4133  _vote == Votes.ABSTAIN */\n      0x02\n      dup2\n      gt\n      iszero\n      tag_178\n      jumpi\n      tag_179\n      tag_162\n      jump\t// in\n    tag_179:\n    tag_178:\n      sub\n        /* \"contracts/WeightedVoting.sol\":4107:4254  if (_vote == Votes.ABSTAIN) {... */\n      tag_180\n      jumpi\n        /* \"contracts/WeightedVoting.sol\":4171:4183  voterBalance */\n      dup1\n        /* \"contracts/WeightedVoting.sol\":4149:4154  issue */\n      dup3\n        /* \"contracts/WeightedVoting.sol\":4149:4167  issue.votesAbstain */\n      0x03\n      add\n      0x06\n        /* \"contracts/WeightedVoting.sol\":4149:4183  issue.votesAbstain += voterBalance */\n      dup3\n      dup3\n      dup3\n      swap1\n      sload\n      swap1\n      0x0100\n      exp\n      swap1\n      div\n      0xffffff\n      and\n      tag_181\n      swap2\n      swap1\n      tag_167\n      jump\t// in\n    tag_181:\n      swap3\n      pop\n      0x0100\n      exp\n      dup2\n      sload\n      dup2\n      0xffffff\n      mul\n      not\n      and\n      swap1\n      dup4\n      0xffffff\n      and\n      mul\n      or\n      swap1\n      sstore\n      pop\n        /* \"contracts/WeightedVoting.sol\":4107:4254  if (_vote == Votes.ABSTAIN) {... */\n      jump(tag_182)\n    tag_180:\n        /* \"contracts/WeightedVoting.sol\":4214:4243  revert(\"Invalid vote option\") */\n      mload(0x40)\n      0x08c379a000000000000000000000000000000000000000000000000000000000\n      dup2\n      mstore\n      0x04\n      add\n      tag_183\n      swap1\n      tag_184\n      jump\t// in\n    tag_183:\n      mload(0x40)\n      dup1\n      swap2\n      sub\n      swap1\n      revert\n        /* \"contracts/WeightedVoting.sol\":4107:4254  if (_vote == Votes.ABSTAIN) {... */\n    tag_182:\n        /* \"contracts/WeightedVoting.sol\":4014:4254  if (_vote == Votes.AGAINST) {... */\n    tag_175:\n        /* \"contracts/WeightedVoting.sol\":3929:4254  if (_vote == Votes.FOR) {... */\n    tag_168:\n        /* \"contracts/WeightedVoting.sol\":4334:4346  voterBalance */\n      dup1\n        /* \"contracts/WeightedVoting.sol\":4314:4319  issue */\n      dup3\n        /* \"contracts/WeightedVoting.sol\":4314:4330  issue.totalVotes */\n      0x03\n      add\n      0x09\n        /* \"contracts/WeightedVoting.sol\":4314:4346  issue.totalVotes += voterBalance */\n      dup3\n      dup3\n      dup3\n      swap1\n      sload\n      swap1\n      0x0100\n      exp\n      swap1\n      div\n      0xffffff\n      and\n      tag_185\n      swap2\n      swap1\n      tag_167\n      jump\t// in\n    tag_185:\n      swap3\n      pop\n      0x0100\n      exp\n      dup2\n      sload\n      dup2\n      0xffffff\n      mul\n      not\n      and\n      swap1\n      dup4\n      0xffffff\n      and\n      mul\n      or\n      swap1\n      sstore\n      pop\n        /* \"contracts/WeightedVoting.sol\":4356:4384  issue.voters.add(msg.sender) */\n      tag_186\n        /* \"contracts/WeightedVoting.sol\":4373:4383  msg.sender */\n      caller\n        /* \"contracts/WeightedVoting.sol\":4356:4361  issue */\n      dup4\n        /* \"contracts/WeightedVoting.sol\":4356:4368  issue.voters */\n      0x00\n      add\n        /* \"contracts/WeightedVoting.sol\":4356:4372  issue.voters.add */\n      tag_187\n      swap1\n        /* \"contracts/WeightedVoting.sol\":4356:4384  issue.voters.add(msg.sender) */\n      swap2\n      swap1\n      0xffffffff\n      and\n      jump\t// in\n    tag_186:\n      pop\n        /* \"contracts/WeightedVoting.sol\":4460:4465  issue */\n      dup2\n        /* \"contracts/WeightedVoting.sol\":4460:4472  issue.quorum */\n      0x03\n      add\n      0x0c\n      swap1\n      sload\n      swap1\n      0x0100\n      exp\n      swap1\n      div\n      0xffffff\n      and\n        /* \"contracts/WeightedVoting.sol\":4440:4472  issue.totalVotes >= issue.quorum */\n      0xffffff\n      and\n        /* \"contracts/WeightedVoting.sol\":4440:4445  issue */\n      dup3\n        /* \"contracts/WeightedVoting.sol\":4440:4456  issue.totalVotes */\n      0x03\n      add\n      0x09\n      swap1\n      sload\n      swap1\n      0x0100\n      exp\n      swap1\n      div\n      0xffffff\n      and\n        /* \"contracts/WeightedVoting.sol\":4440:4472  issue.totalVotes >= issue.quorum */\n      0xffffff\n      and\n      lt\n        /* \"contracts/WeightedVoting.sol\":4436:4686  if (issue.totalVotes >= issue.quorum) {... */\n      tag_188\n      jumpi\n        /* \"contracts/WeightedVoting.sol\":4503:4507  true */\n      0x01\n        /* \"contracts/WeightedVoting.sol\":4488:4493  issue */\n      dup3\n        /* \"contracts/WeightedVoting.sol\":4488:4500  issue.closed */\n      0x03\n      add\n      0x10\n        /* \"contracts/WeightedVoting.sol\":4488:4507  issue.closed = true */\n      0x0100\n      exp\n      dup2\n      sload\n      dup2\n      0xff\n      mul\n      not\n      and\n      swap1\n      dup4\n      iszero\n      iszero\n      mul\n      or\n      swap1\n      sstore\n      pop\n        /* \"contracts/WeightedVoting.sol\":4604:4609  issue */\n      dup2\n        /* \"contracts/WeightedVoting.sol\":4604:4622  issue.votesAgainst */\n      0x03\n      add\n      0x03\n      swap1\n      sload\n      swap1\n      0x0100\n      exp\n      swap1\n      div\n      0xffffff\n      and\n        /* \"contracts/WeightedVoting.sol\":4587:4622  issue.votesFor > issue.votesAgainst */\n      0xffffff\n      and\n        /* \"contracts/WeightedVoting.sol\":4587:4592  issue */\n      dup3\n        /* \"contracts/WeightedVoting.sol\":4587:4601  issue.votesFor */\n      0x03\n      add\n      0x00\n      swap1\n      sload\n      swap1\n      0x0100\n      exp\n      swap1\n      div\n      0xffffff\n      and\n        /* \"contracts/WeightedVoting.sol\":4587:4622  issue.votesFor > issue.votesAgainst */\n      0xffffff\n      and\n      gt\n        /* \"contracts/WeightedVoting.sol\":4583:4676  if (issue.votesFor > issue.votesAgainst) {... */\n      iszero\n      tag_189\n      jumpi\n        /* \"contracts/WeightedVoting.sol\":4657:4661  true */\n      0x01\n        /* \"contracts/WeightedVoting.sol\":4642:4647  issue */\n      dup3\n        /* \"contracts/WeightedVoting.sol\":4642:4654  issue.passed */\n      0x03\n      add\n      0x0f\n        /* \"contracts/WeightedVoting.sol\":4642:4661  issue.passed = true */\n      0x0100\n      exp\n      dup2\n      sload\n      dup2\n      0xff\n      mul\n      not\n      and\n      swap1\n      dup4\n      iszero\n      iszero\n      mul\n      or\n      swap1\n      sstore\n      pop\n        /* \"contracts/WeightedVoting.sol\":4583:4676  if (issue.votesFor > issue.votesAgainst) {... */\n    tag_189:\n        /* \"contracts/WeightedVoting.sol\":4436:4686  if (issue.totalVotes >= issue.quorum) {... */\n    tag_188:\n        /* \"contracts/WeightedVoting.sol\":3462:4692  {... */\n      pop\n      pop\n        /* \"contracts/WeightedVoting.sol\":3411:4692  function vote(uint24 _issueId, Votes _vote) public {... */\n      pop\n      pop\n      jump\t// out\n        /* \"https://github.com/OpenZeppelin/openzeppelin-contracts/blob/v4.0.0/contracts/token/ERC20/ERC20.sol\":4724:5138  function transferFrom(address sender, address recipient, uint256 amount) public virtual override returns (bool) {... */\n    tag_53:\n        /* \"https://github.com/OpenZeppelin/openzeppelin-contracts/blob/v4.0.0/contracts/token/ERC20/ERC20.sol\":4830:4834  bool */\n      0x00\n        /* \"https://github.com/OpenZeppelin/openzeppelin-contracts/blob/v4.0.0/contracts/token/ERC20/ERC20.sol\":4846:4882  _transfer(sender, recipient, amount) */\n      tag_191\n        /* \"https://github.com/OpenZeppelin/openzeppelin-contracts/blob/v4.0.0/contracts/token/ERC20/ERC20.sol\":4856:4862  sender */\n      dup5\n        /* \"https://github.com/OpenZeppelin/openzeppelin-contracts/blob/v4.0.0/contracts/token/ERC20/ERC20.sol\":4864:4873  recipient */\n      dup5\n        /* \"https://github.com/OpenZeppelin/openzeppelin-contracts/blob/v4.0.0/contracts/token/ERC20/ERC20.sol\":4875:4881  amount */\n      dup5\n        /* \"https://github.com/OpenZeppelin/openzeppelin-contracts/blob/v4.0.0/contracts/token/ERC20/ERC20.sol\":4846:4855  _transfer */\n      tag_192\n        /* \"https://github.com/OpenZeppelin/openzeppelin-contracts/blob/v4.0.0/contracts/token/ERC20/ERC20.sol\":4846:4882  _transfer(sender, recipient, amount) */\n      jump\t// in\n    tag_191:\n        /* \"https://github.com/OpenZeppelin/openzeppelin-contracts/blob/v4.0.0/contracts/token/ERC20/ERC20.sol\":4893:4917  uint256 currentAllowance */\n      0x00\n        /* \"https://github.com/OpenZeppelin/openzeppelin-contracts/blob/v4.0.0/contracts/token/ERC20/ERC20.sol\":4920:4931  _allowances */\n      0x01\n        /* \"https://github.com/OpenZeppelin/openzeppelin-contracts/blob/v4.0.0/contracts/token/ERC20/ERC20.sol\":4920:4939  _allowances[sender] */\n      0x00\n        /* \"https://github.com/OpenZeppelin/openzeppelin-contracts/blob/v4.0.0/contracts/token/ERC20/ERC20.sol\":4932:4938  sender */\n      dup7\n        /* \"https://github.com/OpenZeppelin/openzeppelin-contracts/blob/v4.0.0/contracts/token/ERC20/ERC20.sol\":4920:4939  _allowances[sender] */\n      0xffffffffffffffffffffffffffffffffffffffff\n      and\n      0xffffffffffffffffffffffffffffffffffffffff\n      and\n      dup2\n      mstore\n      0x20\n      add\n      swap1\n      dup2\n      mstore\n      0x20\n      add\n      0x00\n      keccak256\n        /* \"https://github.com/OpenZeppelin/openzeppelin-contracts/blob/v4.0.0/contracts/token/ERC20/ERC20.sol\":4920:4953  _allowances[sender][_msgSender()] */\n      0x00\n        /* \"https://github.com/OpenZeppelin/openzeppelin-contracts/blob/v4.0.0/contracts/token/ERC20/ERC20.sol\":4940:4952  _msgSender() */\n      tag_193\n        /* \"https://github.com/OpenZeppelin/openzeppelin-contracts/blob/v4.0.0/contracts/token/ERC20/ERC20.sol\":4940:4950  _msgSender */\n      tag_124\n        /* \"https://github.com/OpenZeppelin/openzeppelin-contracts/blob/v4.0.0/contracts/token/ERC20/ERC20.sol\":4940:4952  _msgSender() */\n      jump\t// in\n    tag_193:\n        /* \"https://github.com/OpenZeppelin/openzeppelin-contracts/blob/v4.0.0/contracts/token/ERC20/ERC20.sol\":4920:4953  _allowances[sender][_msgSender()] */\n      0xffffffffffffffffffffffffffffffffffffffff\n      and\n      0xffffffffffffffffffffffffffffffffffffffff\n      and\n      dup2\n      mstore\n      0x20\n      add\n      swap1\n      dup2\n      mstore\n      0x20\n      add\n      0x00\n      keccak256\n      sload\n        /* \"https://github.com/OpenZeppelin/openzeppelin-contracts/blob/v4.0.0/contracts/token/ERC20/ERC20.sol\":4893:4953  uint256 currentAllowance = _allowances[sender][_msgSender()] */\n      swap1\n      pop\n        /* \"https://github.com/OpenZeppelin/openzeppelin-contracts/blob/v4.0.0/contracts/token/ERC20/ERC20.sol\":4991:4997  amount */\n      dup3\n        /* \"https://github.com/OpenZeppelin/openzeppelin-contracts/blob/v4.0.0/contracts/token/ERC20/ERC20.sol\":4971:4987  currentAllowance */\n      dup2\n        /* \"https://github.com/OpenZeppelin/openzeppelin-contracts/blob/v4.0.0/contracts/token/ERC20/ERC20.sol\":4971:4997  currentAllowance >= amount */\n      lt\n      iszero\n        /* \"https://github.com/OpenZeppelin/openzeppelin-contracts/blob/v4.0.0/contracts/token/ERC20/ERC20.sol\":4963:5042  require(currentAllowance >= amount, \"ERC20: transfer amount exceeds allowance\") */\n      tag_194\n      jumpi\n      mload(0x40)\n      0x08c379a000000000000000000000000000000000000000000000000000000000\n      dup2\n      mstore\n      0x04\n      add\n      tag_195\n      swap1\n      tag_196\n      jump\t// in\n    tag_195:\n      mload(0x40)\n      dup1\n      swap2\n      sub\n      swap1\n      revert\n    tag_194:\n        /* \"https://github.com/OpenZeppelin/openzeppelin-contracts/blob/v4.0.0/contracts/token/ERC20/ERC20.sol\":5052:5109  _approve(sender, _msgSender(), currentAllowance - amount) */\n      tag_197\n        /* \"https://github.com/OpenZeppelin/openzeppelin-contracts/blob/v4.0.0/contracts/token/ERC20/ERC20.sol\":5061:5067  sender */\n      dup6\n        /* \"https://github.com/OpenZeppelin/openzeppelin-contracts/blob/v4.0.0/contracts/token/ERC20/ERC20.sol\":5069:5081  _msgSender() */\n      tag_198\n        /* \"https://github.com/OpenZeppelin/openzeppelin-contracts/blob/v4.0.0/contracts/token/ERC20/ERC20.sol\":5069:5079  _msgSender */\n      tag_124\n        /* \"https://github.com/OpenZeppelin/openzeppelin-contracts/blob/v4.0.0/contracts/token/ERC20/ERC20.sol\":5069:5081  _msgSender() */\n      jump\t// in\n    tag_198:\n        /* \"https://github.com/OpenZeppelin/openzeppelin-contracts/blob/v4.0.0/contracts/token/ERC20/ERC20.sol\":5102:5108  amount */\n      dup6\n        /* \"https://github.com/OpenZeppelin/openzeppelin-contracts/blob/v4.0.0/contracts/token/ERC20/ERC20.sol\":5083:5099  currentAllowance */\n      dup5\n        /* \"https://github.com/OpenZeppelin/openzeppelin-contracts/blob/v4.0.0/contracts/token/ERC20/ERC20.sol\":5083:5108  currentAllowance - amount */\n      tag_199\n      swap2\n      swap1\n      tag_200\n      jump\t// in\n    tag_199:\n        /* \"https://github.com/OpenZeppelin/openzeppelin-contracts/blob/v4.0.0/contracts/token/ERC20/ERC20.sol\":5052:5060  _approve */\n      tag_125\n        /* \"https://github.com/OpenZeppelin/openzeppelin-contracts/blob/v4.0.0/contracts/token/ERC20/ERC20.sol\":5052:5109  _approve(sender, _msgSender(), currentAllowance - amount) */\n      jump\t// in\n    tag_197:\n        /* \"https://github.com/OpenZeppelin/openzeppelin-contracts/blob/v4.0.0/contracts/token/ERC20/ERC20.sol\":5127:5131  true */\n      0x01\n        /* \"https://github.com/OpenZeppelin/openzeppelin-contracts/blob/v4.0.0/contracts/token/ERC20/ERC20.sol\":5120:5131  return true */\n      swap2\n      pop\n      pop\n        /* \"https://github.com/OpenZeppelin/openzeppelin-contracts/blob/v4.0.0/contracts/token/ERC20/ERC20.sol\":4724:5138  function transferFrom(address sender, address recipient, uint256 amount) public virtual override returns (bool) {... */\n      swap4\n      swap3\n      pop\n      pop\n      pop\n      jump\t// out\n        /* \"contracts/WeightedVoting.sol\":1095:1137  mapping(address => uint24) public balances */\n    tag_58:\n      mstore(0x20, 0x06)\n      dup1\n      0x00\n      mstore\n      keccak256(0x00, 0x40)\n      0x00\n      swap2\n      pop\n      sload\n      swap1\n      0x0100\n      exp\n      swap1\n      div\n      0xffffff\n      and\n      dup2\n      jump\t// out\n        /* \"https://github.com/OpenZeppelin/openzeppelin-contracts/blob/v4.0.0/contracts/token/ERC20/ERC20.sol\":2940:3022  function decimals() public view virtual returns (uint8) {... */\n    tag_62:\n        /* \"https://github.com/OpenZeppelin/openzeppelin-contracts/blob/v4.0.0/contracts/token/ERC20/ERC20.sol\":2989:2994  uint8 */\n      0x00\n        /* \"https://github.com/OpenZeppelin/openzeppelin-contracts/blob/v4.0.0/contracts/token/ERC20/ERC20.sol\":3013:3015  18 */\n      0x12\n        /* \"https://github.com/OpenZeppelin/openzeppelin-contracts/blob/v4.0.0/contracts/token/ERC20/ERC20.sol\":3006:3015  return 18 */\n      swap1\n      pop\n        /* \"https://github.com/OpenZeppelin/openzeppelin-contracts/blob/v4.0.0/contracts/token/ERC20/ERC20.sol\":2940:3022  function decimals() public view virtual returns (uint8) {... */\n      swap1\n      jump\t// out\n        /* \"https://github.com/OpenZeppelin/openzeppelin-contracts/blob/v4.0.0/contracts/token/ERC20/ERC20.sol\":5533:5745  function increaseAllowance(address spender, uint256 addedValue) public virtual returns (bool) {... */\n    tag_67:\n        /* \"https://github.com/OpenZeppelin/openzeppelin-contracts/blob/v4.0.0/contracts/token/ERC20/ERC20.sol\":5621:5625  bool */\n      0x00\n        /* \"https://github.com/OpenZeppelin/openzeppelin-contracts/blob/v4.0.0/contracts/token/ERC20/ERC20.sol\":5637:5717  _approve(_msgSender(), spender, _allowances[_msgSender()][spender] + addedValue) */\n      tag_203\n        /* \"https://github.com/OpenZeppelin/openzeppelin-contracts/blob/v4.0.0/contracts/token/ERC20/ERC20.sol\":5646:5658  _msgSender() */\n      tag_204\n        /* \"https://github.com/OpenZeppelin/openzeppelin-contracts/blob/v4.0.0/contracts/token/ERC20/ERC20.sol\":5646:5656  _msgSender */\n      tag_124\n        /* \"https://github.com/OpenZeppelin/openzeppelin-contracts/blob/v4.0.0/contracts/token/ERC20/ERC20.sol\":5646:5658  _msgSender() */\n      jump\t// in\n    tag_204:\n        /* \"https://github.com/OpenZeppelin/openzeppelin-contracts/blob/v4.0.0/contracts/token/ERC20/ERC20.sol\":5660:5667  spender */\n      dup5\n        /* \"https://github.com/OpenZeppelin/openzeppelin-contracts/blob/v4.0.0/contracts/token/ERC20/ERC20.sol\":5706:5716  addedValue */\n      dup5\n        /* \"https://github.com/OpenZeppelin/openzeppelin-contracts/blob/v4.0.0/contracts/token/ERC20/ERC20.sol\":5669:5680  _allowances */\n      0x01\n        /* \"https://github.com/OpenZeppelin/openzeppelin-contracts/blob/v4.0.0/contracts/token/ERC20/ERC20.sol\":5669:5694  _allowances[_msgSender()] */\n      0x00\n        /* \"https://github.com/OpenZeppelin/openzeppelin-contracts/blob/v4.0.0/contracts/token/ERC20/ERC20.sol\":5681:5693  _msgSender() */\n      tag_205\n        /* \"https://github.com/OpenZeppelin/openzeppelin-contracts/blob/v4.0.0/contracts/token/ERC20/ERC20.sol\":5681:5691  _msgSender */\n      tag_124\n        /* \"https://github.com/OpenZeppelin/openzeppelin-contracts/blob/v4.0.0/contracts/token/ERC20/ERC20.sol\":5681:5693  _msgSender() */\n      jump\t// in\n    tag_205:\n        /* \"https://github.com/OpenZeppelin/openzeppelin-contracts/blob/v4.0.0/contracts/token/ERC20/ERC20.sol\":5669:5694  _allowances[_msgSender()] */\n      0xffffffffffffffffffffffffffffffffffffffff\n      and\n      0xffffffffffffffffffffffffffffffffffffffff\n      and\n      dup2\n      mstore\n      0x20\n      add\n      swap1\n      dup2\n      mstore\n      0x20\n      add\n      0x00\n      keccak256\n        /* \"https://github.com/OpenZeppelin/openzeppelin-contracts/blob/v4.0.0/contracts/token/ERC20/ERC20.sol\":5669:5703  _allowances[_msgSender()][spender] */\n      0x00\n        /* \"https://github.com/OpenZeppelin/openzeppelin-contracts/blob/v4.0.0/contracts/token/ERC20/ERC20.sol\":5695:5702  spender */\n      dup9\n        /* \"https://github.com/OpenZeppelin/openzeppelin-contracts/blob/v4.0.0/contracts/token/ERC20/ERC20.sol\":5669:5703  _allowances[_msgSender()][spender] */\n      0xffffffffffffffffffffffffffffffffffffffff\n      and\n      0xffffffffffffffffffffffffffffffffffffffff\n      and\n      dup2\n      mstore\n      0x20\n      add\n      swap1\n      dup2\n      mstore\n      0x20\n      add\n      0x00\n      keccak256\n      sload\n        /* \"https://github.com/OpenZeppelin/openzeppelin-contracts/blob/v4.0.0/contracts/token/ERC20/ERC20.sol\":5669:5716  _allowances[_msgSender()][spender] + addedValue */\n      tag_206\n      swap2\n      swap1\n      tag_207\n      jump\t// in\n    tag_206:\n        /* \"https://github.com/OpenZeppelin/openzeppelin-contracts/blob/v4.0.0/contracts/token/ERC20/ERC20.sol\":5637:5645  _approve */\n      tag_125\n        /* \"https://github.com/OpenZeppelin/openzeppelin-contracts/blob/v4.0.0/contracts/token/ERC20/ERC20.sol\":5637:5717  _approve(_msgSender(), spender, _allowances[_msgSender()][spender] + addedValue) */\n      jump\t// in\n    tag_203:\n        /* \"https://github.com/OpenZeppelin/openzeppelin-contracts/blob/v4.0.0/contracts/token/ERC20/ERC20.sol\":5734:5738  true */\n      0x01\n        /* \"https://github.com/OpenZeppelin/openzeppelin-contracts/blob/v4.0.0/contracts/token/ERC20/ERC20.sol\":5727:5738  return true */\n      swap1\n      pop\n        /* \"https://github.com/OpenZeppelin/openzeppelin-contracts/blob/v4.0.0/contracts/token/ERC20/ERC20.sol\":5533:5745  function increaseAllowance(address spender, uint256 addedValue) public virtual returns (bool) {... */\n      swap3\n      swap2\n      pop\n      pop\n      jump\t// out\n        /* \"contracts/WeightedVoting.sol\":1883:2163  function claim() public {... */\n    tag_70:\n        /* \"contracts/WeightedVoting.sol\":1937:1946  maxSupply */\n      0x05\n      0x00\n      swap1\n      sload\n      swap1\n      0x0100\n      exp\n      swap1\n      div\n      0xffffff\n      and\n        /* \"contracts/WeightedVoting.sol\":1921:1946  claimedAmount > maxSupply */\n      0xffffff\n      and\n        /* \"contracts/WeightedVoting.sol\":1921:1934  claimedAmount */\n      0x05\n      0x06\n      swap1\n      sload\n      swap1\n      0x0100\n      exp\n      swap1\n      div\n      0xffffff\n      and\n        /* \"contracts/WeightedVoting.sol\":1921:1946  claimedAmount > maxSupply */\n      0xffffff\n      and\n      gt\n        /* \"contracts/WeightedVoting.sol\":1917:1973  if (claimedAmount > maxSupply) revert AllTokensClaimed() */\n      iszero\n      tag_209\n      jumpi\n        /* \"contracts/WeightedVoting.sol\":1955:1973  AllTokensClaimed() */\n      mload(0x40)\n      0xcbe2483100000000000000000000000000000000000000000000000000000000\n      dup2\n      mstore\n      0x04\n      add\n      mload(0x40)\n      dup1\n      swap2\n      sub\n      swap1\n      revert\n        /* \"contracts/WeightedVoting.sol\":1917:1973  if (claimedAmount > maxSupply) revert AllTokensClaimed() */\n    tag_209:\n        /* \"contracts/WeightedVoting.sol\":1987:1997  hasClaimed */\n      0x07\n        /* \"contracts/WeightedVoting.sol\":1987:2009  hasClaimed[msg.sender] */\n      0x00\n        /* \"contracts/WeightedVoting.sol\":1998:2008  msg.sender */\n      caller\n        /* \"contracts/WeightedVoting.sol\":1987:2009  hasClaimed[msg.sender] */\n      0xffffffffffffffffffffffffffffffffffffffff\n      and\n      0xffffffffffffffffffffffffffffffffffffffff\n      and\n      dup2\n      mstore\n      0x20\n      add\n      swap1\n      dup2\n      mstore\n      0x20\n      add\n      0x00\n      keccak256\n      0x00\n      swap1\n      sload\n      swap1\n      0x0100\n      exp\n      swap1\n      div\n      0xff\n      and\n        /* \"contracts/WeightedVoting.sol\":1983:2033  if (hasClaimed[msg.sender]) revert TokensClaimed() */\n      iszero\n      tag_210\n      jumpi\n        /* \"contracts/WeightedVoting.sol\":2018:2033  TokensClaimed() */\n      mload(0x40)\n      0x0b1327a600000000000000000000000000000000000000000000000000000000\n      dup2\n      mstore\n      0x04\n      add\n      mload(0x40)\n      dup1\n      swap2\n      sub\n      swap1\n      revert\n        /* \"contracts/WeightedVoting.sol\":1983:2033  if (hasClaimed[msg.sender]) revert TokensClaimed() */\n    tag_210:\n        /* \"contracts/WeightedVoting.sol\":2068:2079  claimAmount */\n      0x05\n      0x03\n      swap1\n      sload\n      swap1\n      0x0100\n      exp\n      swap1\n      div\n      0xffffff\n      and\n        /* \"contracts/WeightedVoting.sol\":2044:2052  balances */\n      0x06\n        /* \"contracts/WeightedVoting.sol\":2044:2064  balances[msg.sender] */\n      0x00\n        /* \"contracts/WeightedVoting.sol\":2053:2063  msg.sender */\n      caller\n        /* \"contracts/WeightedVoting.sol\":2044:2064  balances[msg.sender] */\n      0xffffffffffffffffffffffffffffffffffffffff\n      and\n      0xffffffffffffffffffffffffffffffffffffffff\n      and\n      dup2\n      mstore\n      0x20\n      add\n      swap1\n      dup2\n      mstore\n      0x20\n      add\n      0x00\n      keccak256\n      0x00\n        /* \"contracts/WeightedVoting.sol\":2044:2079  balances[msg.sender] += claimAmount */\n      dup3\n      dup3\n      dup3\n      swap1\n      sload\n      swap1\n      0x0100\n      exp\n      swap1\n      div\n      0xffffff\n      and\n      tag_211\n      swap2\n      swap1\n      tag_167\n      jump\t// in\n    tag_211:\n      swap3\n      pop\n      0x0100\n      exp\n      dup2\n      sload\n      dup2\n      0xffffff\n      mul\n      not\n      and\n      swap1\n      dup4\n      0xffffff\n      and\n      mul\n      or\n      swap1\n      sstore\n      pop\n        /* \"contracts/WeightedVoting.sol\":2106:2117  claimAmount */\n      0x05\n      0x03\n      swap1\n      sload\n      swap1\n      0x0100\n      exp\n      swap1\n      div\n      0xffffff\n      and\n        /* \"contracts/WeightedVoting.sol\":2089:2102  claimedAmount */\n      0x05\n      0x06\n        /* \"contracts/WeightedVoting.sol\":2089:2117  claimedAmount += claimAmount */\n      dup3\n      dup3\n      dup3\n      swap1\n      sload\n      swap1\n      0x0100\n      exp\n      swap1\n      div\n      0xffffff\n      and\n      tag_212\n      swap2\n      swap1\n      tag_167\n      jump\t// in\n    tag_212:\n      swap3\n      pop\n      0x0100\n      exp\n      dup2\n      sload\n      dup2\n      0xffffff\n      mul\n      not\n      and\n      swap1\n      dup4\n      0xffffff\n      and\n      mul\n      or\n      swap1\n      sstore\n      pop\n        /* \"contracts/WeightedVoting.sol\":2152:2156  true */\n      0x01\n        /* \"contracts/WeightedVoting.sol\":2127:2137  hasClaimed */\n      0x07\n        /* \"contracts/WeightedVoting.sol\":2127:2149  hasClaimed[msg.sender] */\n      0x00\n        /* \"contracts/WeightedVoting.sol\":2138:2148  msg.sender */\n      caller\n        /* \"contracts/WeightedVoting.sol\":2127:2149  hasClaimed[msg.sender] */\n      0xffffffffffffffffffffffffffffffffffffffff\n      and\n      0xffffffffffffffffffffffffffffffffffffffff\n      and\n      dup2\n      mstore\n      0x20\n      add\n      swap1\n      dup2\n      mstore\n      0x20\n      add\n      0x00\n      keccak256\n      0x00\n        /* \"contracts/WeightedVoting.sol\":2127:2156  hasClaimed[msg.sender] = true */\n      0x0100\n      exp\n      dup2\n      sload\n      dup2\n      0xff\n      mul\n      not\n      and\n      swap1\n      dup4\n      iszero\n      iszero\n      mul\n      or\n      swap1\n      sstore\n      pop\n        /* \"contracts/WeightedVoting.sol\":1883:2163  function claim() public {... */\n      jump\t// out\n        /* \"https://github.com/OpenZeppelin/openzeppelin-contracts/blob/v4.0.0/contracts/token/ERC20/ERC20.sol\":3246:3371  function balanceOf(address account) public view virtual override returns (uint256) {... */\n    tag_73:\n        /* \"https://github.com/OpenZeppelin/openzeppelin-contracts/blob/v4.0.0/contracts/token/ERC20/ERC20.sol\":3320:3327  uint256 */\n      0x00\n        /* \"https://github.com/OpenZeppelin/openzeppelin-contracts/blob/v4.0.0/contracts/token/ERC20/ERC20.sol\":3346:3355  _balances */\n      dup1\n        /* \"https://github.com/OpenZeppelin/openzeppelin-contracts/blob/v4.0.0/contracts/token/ERC20/ERC20.sol\":3346:3364  _balances[account] */\n      0x00\n        /* \"https://github.com/OpenZeppelin/openzeppelin-contracts/blob/v4.0.0/contracts/token/ERC20/ERC20.sol\":3356:3363  account */\n      dup4\n        /* \"https://github.com/OpenZeppelin/openzeppelin-contracts/blob/v4.0.0/contracts/token/ERC20/ERC20.sol\":3346:3364  _balances[account] */\n      0xffffffffffffffffffffffffffffffffffffffff\n      and\n      0xffffffffffffffffffffffffffffffffffffffff\n      and\n      dup2\n      mstore\n      0x20\n      add\n      swap1\n      dup2\n      mstore\n      0x20\n      add\n      0x00\n      keccak256\n      sload\n        /* \"https://github.com/OpenZeppelin/openzeppelin-contracts/blob/v4.0.0/contracts/token/ERC20/ERC20.sol\":3339:3364  return _balances[account] */\n      swap1\n      pop\n        /* \"https://github.com/OpenZeppelin/openzeppelin-contracts/blob/v4.0.0/contracts/token/ERC20/ERC20.sol\":3246:3371  function balanceOf(address account) public view virtual override returns (uint256) {... */\n      swap2\n      swap1\n      pop\n      jump\t// out\n        /* \"contracts/WeightedVoting.sol\":1202:1244  mapping(address => bool) public hasClaimed */\n    tag_77:\n      mstore(0x20, 0x07)\n      dup1\n      0x00\n      mstore\n      keccak256(0x00, 0x40)\n      0x00\n      swap2\n      pop\n      sload\n      swap1\n      0x0100\n      exp\n      swap1\n      div\n      0xff\n      and\n      dup2\n      jump\t// out\n        /* \"contracts/WeightedVoting.sol\":981:1006  uint24 public claimAmount */\n    tag_80:\n      0x05\n      0x03\n      swap1\n      sload\n      swap1\n      0x0100\n      exp\n      swap1\n      div\n      0xffffff\n      and\n      dup2\n      jump\t// out\n        /* \"contracts/WeightedVoting.sol\":1609:1629  address public owner */\n    tag_83:\n      0x08\n      0x00\n      swap1\n      sload\n      swap1\n      0x0100\n      exp\n      swap1\n      div\n      0xffffffffffffffffffffffffffffffffffffffff\n      and\n      dup2\n      jump\t// out\n        /* \"https://github.com/OpenZeppelin/openzeppelin-contracts/blob/v4.0.0/contracts/token/ERC20/ERC20.sol\":2223:2316  function symbol() public view virtual returns (string memory) {... */\n    tag_87:\n        /* \"https://github.com/OpenZeppelin/openzeppelin-contracts/blob/v4.0.0/contracts/token/ERC20/ERC20.sol\":2270:2283  string memory */\n      0x60\n        /* \"https://github.com/OpenZeppelin/openzeppelin-contracts/blob/v4.0.0/contracts/token/ERC20/ERC20.sol\":2302:2309  _symbol */\n      0x04\n        /* \"https://github.com/OpenZeppelin/openzeppelin-contracts/blob/v4.0.0/contracts/token/ERC20/ERC20.sol\":2295:2309  return _symbol */\n      dup1\n      sload\n      tag_215\n      swap1\n      tag_116\n      jump\t// in\n    tag_215:\n      dup1\n      0x1f\n      add\n      0x20\n      dup1\n      swap2\n      div\n      mul\n      0x20\n      add\n      mload(0x40)\n      swap1\n      dup2\n      add\n      0x40\n      mstore\n      dup1\n      swap3\n      swap2\n      swap1\n      dup2\n      dup2\n      mstore\n      0x20\n      add\n      dup3\n      dup1\n      sload\n      tag_216\n      swap1\n      tag_116\n      jump\t// in\n    tag_216:\n      dup1\n      iszero\n      tag_217\n      jumpi\n      dup1\n      0x1f\n      lt\n      tag_218\n      jumpi\n      0x0100\n      dup1\n      dup4\n      sload\n      div\n      mul\n      dup4\n      mstore\n      swap2\n      0x20\n      add\n      swap2\n      jump(tag_217)\n    tag_218:\n      dup3\n      add\n      swap2\n      swap1\n      0x00\n      mstore\n      keccak256(0x00, 0x20)\n      swap1\n    tag_219:\n      dup2\n      sload\n      dup2\n      mstore\n      swap1\n      0x01\n      add\n      swap1\n      0x20\n      add\n      dup1\n      dup4\n      gt\n      tag_219\n      jumpi\n      dup3\n      swap1\n      sub\n      0x1f\n      and\n      dup3\n      add\n      swap2\n    tag_217:\n      pop\n      pop\n      pop\n      pop\n      pop\n      swap1\n      pop\n        /* \"https://github.com/OpenZeppelin/openzeppelin-contracts/blob/v4.0.0/contracts/token/ERC20/ERC20.sol\":2223:2316  function symbol() public view virtual returns (string memory) {... */\n      swap1\n      jump\t// out\n        /* \"contracts/WeightedVoting.sol\":1012:1039  uint24 public claimedAmount */\n    tag_90:\n      0x05\n      0x06\n      swap1\n      sload\n      swap1\n      0x0100\n      exp\n      swap1\n      div\n      0xffffff\n      and\n      dup2\n      jump\t// out\n        /* \"https://github.com/OpenZeppelin/openzeppelin-contracts/blob/v4.0.0/contracts/token/ERC20/ERC20.sol\":6232:6603  function decreaseAllowance(address spender, uint256 subtractedValue) public virtual returns (bool) {... */\n    tag_94:\n        /* \"https://github.com/OpenZeppelin/openzeppelin-contracts/blob/v4.0.0/contracts/token/ERC20/ERC20.sol\":6325:6329  bool */\n      0x00\n        /* \"https://github.com/OpenZeppelin/openzeppelin-contracts/blob/v4.0.0/contracts/token/ERC20/ERC20.sol\":6341:6365  uint256 currentAllowance */\n      dup1\n        /* \"https://github.com/OpenZeppelin/openzeppelin-contracts/blob/v4.0.0/contracts/token/ERC20/ERC20.sol\":6368:6379  _allowances */\n      0x01\n        /* \"https://github.com/OpenZeppelin/openzeppelin-contracts/blob/v4.0.0/contracts/token/ERC20/ERC20.sol\":6368:6393  _allowances[_msgSender()] */\n      0x00\n        /* \"https://github.com/OpenZeppelin/openzeppelin-contracts/blob/v4.0.0/contracts/token/ERC20/ERC20.sol\":6380:6392  _msgSender() */\n      tag_221\n        /* \"https://github.com/OpenZeppelin/openzeppelin-contracts/blob/v4.0.0/contracts/token/ERC20/ERC20.sol\":6380:6390  _msgSender */\n      tag_124\n        /* \"https://github.com/OpenZeppelin/openzeppelin-contracts/blob/v4.0.0/contracts/token/ERC20/ERC20.sol\":6380:6392  _msgSender() */\n      jump\t// in\n    tag_221:\n        /* \"https://github.com/OpenZeppelin/openzeppelin-contracts/blob/v4.0.0/contracts/token/ERC20/ERC20.sol\":6368:6393  _allowances[_msgSender()] */\n      0xffffffffffffffffffffffffffffffffffffffff\n      and\n      0xffffffffffffffffffffffffffffffffffffffff\n      and\n      dup2\n      mstore\n      0x20\n      add\n      swap1\n      dup2\n      mstore\n      0x20\n      add\n      0x00\n      keccak256\n        /* \"https://github.com/OpenZeppelin/openzeppelin-contracts/blob/v4.0.0/contracts/token/ERC20/ERC20.sol\":6368:6402  _allowances[_msgSender()][spender] */\n      0x00\n        /* \"https://github.com/OpenZeppelin/openzeppelin-contracts/blob/v4.0.0/contracts/token/ERC20/ERC20.sol\":6394:6401  spender */\n      dup6\n        /* \"https://github.com/OpenZeppelin/openzeppelin-contracts/blob/v4.0.0/contracts/token/ERC20/ERC20.sol\":6368:6402  _allowances[_msgSender()][spender] */\n      0xffffffffffffffffffffffffffffffffffffffff\n      and\n      0xffffffffffffffffffffffffffffffffffffffff\n      and\n      dup2\n      mstore\n      0x20\n      add\n      swap1\n      dup2\n      mstore\n      0x20\n      add\n      0x00\n      keccak256\n      sload\n        /* \"https://github.com/OpenZeppelin/openzeppelin-contracts/blob/v4.0.0/contracts/token/ERC20/ERC20.sol\":6341:6402  uint256 currentAllowance = _allowances[_msgSender()][spender] */\n      swap1\n      pop\n        /* \"https://github.com/OpenZeppelin/openzeppelin-contracts/blob/v4.0.0/contracts/token/ERC20/ERC20.sol\":6440:6455  subtractedValue */\n      dup3\n        /* \"https://github.com/OpenZeppelin/openzeppelin-contracts/blob/v4.0.0/contracts/token/ERC20/ERC20.sol\":6420:6436  currentAllowance */\n      dup2\n        /* \"https://github.com/OpenZeppelin/openzeppelin-contracts/blob/v4.0.0/contracts/token/ERC20/ERC20.sol\":6420:6455  currentAllowance >= subtractedValue */\n      lt\n      iszero\n        /* \"https://github.com/OpenZeppelin/openzeppelin-contracts/blob/v4.0.0/contracts/token/ERC20/ERC20.sol\":6412:6497  require(currentAllowance >= subtractedValue, \"ERC20: decreased allowance below zero\") */\n      tag_222\n      jumpi\n      mload(0x40)\n      0x08c379a000000000000000000000000000000000000000000000000000000000\n      dup2\n      mstore\n      0x04\n      add\n      tag_223\n      swap1\n      tag_224\n      jump\t// in\n    tag_223:\n      mload(0x40)\n      dup1\n      swap2\n      sub\n      swap1\n      revert\n    tag_222:\n        /* \"https://github.com/OpenZeppelin/openzeppelin-contracts/blob/v4.0.0/contracts/token/ERC20/ERC20.sol\":6507:6574  _approve(_msgSender(), spender, currentAllowance - subtractedValue) */\n      tag_225\n        /* \"https://github.com/OpenZeppelin/openzeppelin-contracts/blob/v4.0.0/contracts/token/ERC20/ERC20.sol\":6516:6528  _msgSender() */\n      tag_226\n        /* \"https://github.com/OpenZeppelin/openzeppelin-contracts/blob/v4.0.0/contracts/token/ERC20/ERC20.sol\":6516:6526  _msgSender */\n      tag_124\n        /* \"https://github.com/OpenZeppelin/openzeppelin-contracts/blob/v4.0.0/contracts/token/ERC20/ERC20.sol\":6516:6528  _msgSender() */\n      jump\t// in\n    tag_226:\n        /* \"https://github.com/OpenZeppelin/openzeppelin-contracts/blob/v4.0.0/contracts/token/ERC20/ERC20.sol\":6530:6537  spender */\n      dup6\n        /* \"https://github.com/OpenZeppelin/openzeppelin-contracts/blob/v4.0.0/contracts/token/ERC20/ERC20.sol\":6558:6573  subtractedValue */\n      dup6\n        /* \"https://github.com/OpenZeppelin/openzeppelin-contracts/blob/v4.0.0/contracts/token/ERC20/ERC20.sol\":6539:6555  currentAllowance */\n      dup5\n        /* \"https://github.com/OpenZeppelin/openzeppelin-contracts/blob/v4.0.0/contracts/token/ERC20/ERC20.sol\":6539:6573  currentAllowance - subtractedValue */\n      tag_227\n      swap2\n      swap1\n      tag_200\n      jump\t// in\n    tag_227:\n        /* \"https://github.com/OpenZeppelin/openzeppelin-contracts/blob/v4.0.0/contracts/token/ERC20/ERC20.sol\":6507:6515  _approve */\n      tag_125\n        /* \"https://github.com/OpenZeppelin/openzeppelin-contracts/blob/v4.0.0/contracts/token/ERC20/ERC20.sol\":6507:6574  _approve(_msgSender(), spender, currentAllowance - subtractedValue) */\n      jump\t// in\n    tag_225:\n        /* \"https://github.com/OpenZeppelin/openzeppelin-contracts/blob/v4.0.0/contracts/token/ERC20/ERC20.sol\":6592:6596  true */\n      0x01\n        /* \"https://github.com/OpenZeppelin/openzeppelin-contracts/blob/v4.0.0/contracts/token/ERC20/ERC20.sol\":6585:6596  return true */\n      swap2\n      pop\n      pop\n        /* \"https://github.com/OpenZeppelin/openzeppelin-contracts/blob/v4.0.0/contracts/token/ERC20/ERC20.sol\":6232:6603  function decreaseAllowance(address spender, uint256 subtractedValue) public virtual returns (bool) {... */\n      swap3\n      swap2\n      pop\n      pop\n      jump\t// out\n        /* \"https://github.com/OpenZeppelin/openzeppelin-contracts/blob/v4.0.0/contracts/token/ERC20/ERC20.sol\":3574:3746  function transfer(address recipient, uint256 amount) public virtual override returns (bool) {... */\n    tag_98:\n        /* \"https://github.com/OpenZeppelin/openzeppelin-contracts/blob/v4.0.0/contracts/token/ERC20/ERC20.sol\":3660:3664  bool */\n      0x00\n        /* \"https://github.com/OpenZeppelin/openzeppelin-contracts/blob/v4.0.0/contracts/token/ERC20/ERC20.sol\":3676:3718  _transfer(_msgSender(), recipient, amount) */\n      tag_229\n        /* \"https://github.com/OpenZeppelin/openzeppelin-contracts/blob/v4.0.0/contracts/token/ERC20/ERC20.sol\":3686:3698  _msgSender() */\n      tag_230\n        /* \"https://github.com/OpenZeppelin/openzeppelin-contracts/blob/v4.0.0/contracts/token/ERC20/ERC20.sol\":3686:3696  _msgSender */\n      tag_124\n        /* \"https://github.com/OpenZeppelin/openzeppelin-contracts/blob/v4.0.0/contracts/token/ERC20/ERC20.sol\":3686:3698  _msgSender() */\n      jump\t// in\n    tag_230:\n        /* \"https://github.com/OpenZeppelin/openzeppelin-contracts/blob/v4.0.0/contracts/token/ERC20/ERC20.sol\":3700:3709  recipient */\n      dup5\n        /* \"https://github.com/OpenZeppelin/openzeppelin-contracts/blob/v4.0.0/contracts/token/ERC20/ERC20.sol\":3711:3717  amount */\n      dup5\n        /* \"https://github.com/OpenZeppelin/openzeppelin-contracts/blob/v4.0.0/contracts/token/ERC20/ERC20.sol\":3676:3685  _transfer */\n      tag_192\n        /* \"https://github.com/OpenZeppelin/openzeppelin-contracts/blob/v4.0.0/contracts/token/ERC20/ERC20.sol\":3676:3718  _transfer(_msgSender(), recipient, amount) */\n      jump\t// in\n    tag_229:\n        /* \"https://github.com/OpenZeppelin/openzeppelin-contracts/blob/v4.0.0/contracts/token/ERC20/ERC20.sol\":3735:3739  true */\n      0x01\n        /* \"https://github.com/OpenZeppelin/openzeppelin-contracts/blob/v4.0.0/contracts/token/ERC20/ERC20.sol\":3728:3739  return true */\n      swap1\n      pop\n        /* \"https://github.com/OpenZeppelin/openzeppelin-contracts/blob/v4.0.0/contracts/token/ERC20/ERC20.sol\":3574:3746  function transfer(address recipient, uint256 amount) public virtual override returns (bool) {... */\n      swap3\n      swap2\n      pop\n      pop\n      jump\t// out\n        /* \"contracts/WeightedVoting.sol\":952:975  uint24 public maxSupply */\n    tag_101:\n      0x05\n      0x00\n      swap1\n      sload\n      swap1\n      0x0100\n      exp\n      swap1\n      div\n      0xffffff\n      and\n      dup2\n      jump\t// out\n        /* \"https://github.com/OpenZeppelin/openzeppelin-contracts/blob/v4.0.0/contracts/token/ERC20/ERC20.sol\":3804:3953  function allowance(address owner, address spender) public view virtual override returns (uint256) {... */\n    tag_106:\n        /* \"https://github.com/OpenZeppelin/openzeppelin-contracts/blob/v4.0.0/contracts/token/ERC20/ERC20.sol\":3893:3900  uint256 */\n      0x00\n        /* \"https://github.com/OpenZeppelin/openzeppelin-contracts/blob/v4.0.0/contracts/token/ERC20/ERC20.sol\":3919:3930  _allowances */\n      0x01\n        /* \"https://github.com/OpenZeppelin/openzeppelin-contracts/blob/v4.0.0/contracts/token/ERC20/ERC20.sol\":3919:3937  _allowances[owner] */\n      0x00\n        /* \"https://github.com/OpenZeppelin/openzeppelin-contracts/blob/v4.0.0/contracts/token/ERC20/ERC20.sol\":3931:3936  owner */\n      dup5\n        /* \"https://github.com/OpenZeppelin/openzeppelin-contracts/blob/v4.0.0/contracts/token/ERC20/ERC20.sol\":3919:3937  _allowances[owner] */\n      0xffffffffffffffffffffffffffffffffffffffff\n      and\n      0xffffffffffffffffffffffffffffffffffffffff\n      and\n      dup2\n      mstore\n      0x20\n      add\n      swap1\n      dup2\n      mstore\n      0x20\n      add\n      0x00\n      keccak256\n        /* \"https://github.com/OpenZeppelin/openzeppelin-contracts/blob/v4.0.0/contracts/token/ERC20/ERC20.sol\":3919:3946  _allowances[owner][spender] */\n      0x00\n        /* \"https://github.com/OpenZeppelin/openzeppelin-contracts/blob/v4.0.0/contracts/token/ERC20/ERC20.sol\":3938:3945  spender */\n      dup4\n        /* \"https://github.com/OpenZeppelin/openzeppelin-contracts/blob/v4.0.0/contracts/token/ERC20/ERC20.sol\":3919:3946  _allowances[owner][spender] */\n      0xffffffffffffffffffffffffffffffffffffffff\n      and\n      0xffffffffffffffffffffffffffffffffffffffff\n      and\n      dup2\n      mstore\n      0x20\n      add\n      swap1\n      dup2\n      mstore\n      0x20\n      add\n      0x00\n      keccak256\n      sload\n        /* \"https://github.com/OpenZeppelin/openzeppelin-contracts/blob/v4.0.0/contracts/token/ERC20/ERC20.sol\":3912:3946  return _allowances[owner][spender] */\n      swap1\n      pop\n        /* \"https://github.com/OpenZeppelin/openzeppelin-contracts/blob/v4.0.0/contracts/token/ERC20/ERC20.sol\":3804:3953  function allowance(address owner, address spender) public view virtual override returns (uint256) {... */\n      swap3\n      swap2\n      pop\n      pop\n      jump\t// out\n        /* \"contracts/WeightedVoting.sol\":2757:3405  function getIssue(uint24 _id) external view returns (IssueView memory) {... */\n    tag_111:\n        /* \"contracts/WeightedVoting.sol\":2810:2826  IssueView memory */\n      tag_232\n      tag_233\n      jump\t// in\n    tag_232:\n        /* \"contracts/WeightedVoting.sol\":2838:2857  Issue storage issue */\n      0x00\n        /* \"contracts/WeightedVoting.sol\":2860:2866  issues */\n      0x09\n        /* \"contracts/WeightedVoting.sol\":2867:2870  _id */\n      dup4\n        /* \"contracts/WeightedVoting.sol\":2860:2871  issues[_id] */\n      0xffffff\n      and\n      dup2\n      sload\n      dup2\n      lt\n      tag_235\n      jumpi\n      tag_236\n      tag_137\n      jump\t// in\n    tag_236:\n    tag_235:\n      swap1\n      0x00\n      mstore\n      keccak256(0x00, 0x20)\n      swap1\n      0x04\n      mul\n      add\n        /* \"contracts/WeightedVoting.sol\":2838:2871  Issue storage issue = issues[_id] */\n      swap1\n      pop\n        /* \"contracts/WeightedVoting.sol\":2882:2905  address[] memory voters */\n      0x00\n        /* \"contracts/WeightedVoting.sol\":2922:2943  issue.voters.length() */\n      tag_238\n        /* \"contracts/WeightedVoting.sol\":2922:2927  issue */\n      dup3\n        /* \"contracts/WeightedVoting.sol\":2922:2934  issue.voters */\n      0x00\n      add\n        /* \"contracts/WeightedVoting.sol\":2922:2941  issue.voters.length */\n      tag_239\n        /* \"contracts/WeightedVoting.sol\":2922:2943  issue.voters.length() */\n      jump\t// in\n    tag_238:\n        /* \"contracts/WeightedVoting.sol\":2908:2944  new address[](issue.voters.length()) */\n      0xffffffffffffffff\n      dup2\n      gt\n      iszero\n      tag_240\n      jumpi\n      tag_241\n      tag_242\n      jump\t// in\n    tag_241:\n    tag_240:\n      mload(0x40)\n      swap1\n      dup1\n      dup3\n      mstore\n      dup1\n      0x20\n      mul\n      0x20\n      add\n      dup3\n      add\n      0x40\n      mstore\n      dup1\n      iszero\n      tag_243\n      jumpi\n      dup2\n      0x20\n      add\n      0x20\n      dup3\n      mul\n      dup1\n      calldatasize\n      dup4\n      calldatacopy\n      dup1\n      dup3\n      add\n      swap2\n      pop\n      pop\n      swap1\n      pop\n    tag_243:\n      pop\n        /* \"contracts/WeightedVoting.sol\":2882:2944  address[] memory voters = new address[](issue.voters.length()) */\n      swap1\n      pop\n        /* \"contracts/WeightedVoting.sol\":2959:2968  uint256 i */\n      0x00\n        /* \"contracts/WeightedVoting.sol\":2954:3061  for (uint256 i = 0; i < issue.voters.length(); i++) {... */\n    tag_244:\n        /* \"contracts/WeightedVoting.sol\":2978:2999  issue.voters.length() */\n      tag_247\n        /* \"contracts/WeightedVoting.sol\":2978:2983  issue */\n      dup4\n        /* \"contracts/WeightedVoting.sol\":2978:2990  issue.voters */\n      0x00\n      add\n        /* \"contracts/WeightedVoting.sol\":2978:2997  issue.voters.length */\n      tag_239\n        /* \"contracts/WeightedVoting.sol\":2978:2999  issue.voters.length() */\n      jump\t// in\n    tag_247:\n        /* \"contracts/WeightedVoting.sol\":2974:2975  i */\n      dup2\n        /* \"contracts/WeightedVoting.sol\":2974:2999  i < issue.voters.length() */\n      lt\n        /* \"contracts/WeightedVoting.sol\":2954:3061  for (uint256 i = 0; i < issue.voters.length(); i++) {... */\n      iszero\n      tag_245\n      jumpi\n        /* \"contracts/WeightedVoting.sol\":3032:3050  issue.voters.at(i) */\n      tag_248\n        /* \"contracts/WeightedVoting.sol\":3048:3049  i */\n      dup2\n        /* \"contracts/WeightedVoting.sol\":3032:3037  issue */\n      dup5\n        /* \"contracts/WeightedVoting.sol\":3032:3044  issue.voters */\n      0x00\n      add\n        /* \"contracts/WeightedVoting.sol\":3032:3047  issue.voters.at */\n      tag_249\n      swap1\n        /* \"contracts/WeightedVoting.sol\":3032:3050  issue.voters.at(i) */\n      swap2\n      swap1\n      0xffffffff\n      and\n      jump\t// in\n    tag_248:\n        /* \"contracts/WeightedVoting.sol\":3020:3026  voters */\n      dup3\n        /* \"contracts/WeightedVoting.sol\":3027:3028  i */\n      dup3\n        /* \"contracts/WeightedVoting.sol\":3020:3029  voters[i] */\n      dup2\n      mload\n      dup2\n      lt\n      tag_250\n      jumpi\n      tag_251\n      tag_137\n      jump\t// in\n    tag_251:\n    tag_250:\n      0x20\n      mul\n      0x20\n      add\n      add\n        /* \"contracts/WeightedVoting.sol\":3020:3050  voters[i] = issue.voters.at(i) */\n      swap1\n      0xffffffffffffffffffffffffffffffffffffffff\n      and\n      swap1\n      dup2\n      0xffffffffffffffffffffffffffffffffffffffff\n      and\n      dup2\n      mstore\n      pop\n      pop\n        /* \"contracts/WeightedVoting.sol\":3001:3004  i++ */\n      dup1\n      dup1\n      tag_252\n      swap1\n      tag_253\n      jump\t// in\n    tag_252:\n      swap2\n      pop\n      pop\n        /* \"contracts/WeightedVoting.sol\":2954:3061  for (uint256 i = 0; i < issue.voters.length(); i++) {... */\n      jump(tag_244)\n    tag_245:\n      pop\n        /* \"contracts/WeightedVoting.sol\":3090:3398  IssueView(... */\n      mload(0x40)\n      dup1\n      0x0120\n      add\n      0x40\n      mstore\n      dup1\n        /* \"contracts/WeightedVoting.sol\":3117:3123  voters */\n      dup3\n        /* \"contracts/WeightedVoting.sol\":3090:3398  IssueView(... */\n      dup2\n      mstore\n      0x20\n      add\n        /* \"contracts/WeightedVoting.sol\":3141:3146  issue */\n      dup4\n        /* \"contracts/WeightedVoting.sol\":3141:3156  issue.issueDesc */\n      0x02\n      add\n        /* \"contracts/WeightedVoting.sol\":3090:3398  IssueView(... */\n      dup1\n      sload\n      tag_254\n      swap1\n      tag_116\n      jump\t// in\n    tag_254:\n      dup1\n      0x1f\n      add\n      0x20\n      dup1\n      swap2\n      div\n      mul\n      0x20\n      add\n      mload(0x40)\n      swap1\n      dup2\n      add\n      0x40\n      mstore\n      dup1\n      swap3\n      swap2\n      swap1\n      dup2\n      dup2\n      mstore\n      0x20\n      add\n      dup3\n      dup1\n      sload\n      tag_255\n      swap1\n      tag_116\n      jump\t// in\n    tag_255:\n      dup1\n      iszero\n      tag_256\n      jumpi\n      dup1\n      0x1f\n      lt\n      tag_257\n      jumpi\n      0x0100\n      dup1\n      dup4\n      sload\n      div\n      mul\n      dup4\n      mstore\n      swap2\n      0x20\n      add\n      swap2\n      jump(tag_256)\n    tag_257:\n      dup3\n      add\n      swap2\n      swap1\n      0x00\n      mstore\n      keccak256(0x00, 0x20)\n      swap1\n    tag_258:\n      dup2\n      sload\n      dup2\n      mstore\n      swap1\n      0x01\n      add\n      swap1\n      0x20\n      add\n      dup1\n      dup4\n      gt\n      tag_258\n      jumpi\n      dup3\n      swap1\n      sub\n      0x1f\n      and\n      dup3\n      add\n      swap2\n    tag_256:\n      pop\n      pop\n      pop\n      pop\n      pop\n      dup2\n      mstore\n      0x20\n      add\n        /* \"contracts/WeightedVoting.sol\":3174:3179  issue */\n      dup4\n        /* \"contracts/WeightedVoting.sol\":3174:3188  issue.votesFor */\n      0x03\n      add\n      0x00\n      swap1\n      sload\n      swap1\n      0x0100\n      exp\n      swap1\n      div\n      0xffffff\n      and\n        /* \"contracts/WeightedVoting.sol\":3090:3398  IssueView(... */\n      0xffffff\n      and\n      dup2\n      mstore\n      0x20\n      add\n        /* \"contracts/WeightedVoting.sol\":3206:3211  issue */\n      dup4\n        /* \"contracts/WeightedVoting.sol\":3206:3224  issue.votesAgainst */\n      0x03\n      add\n      0x03\n      swap1\n      sload\n      swap1\n      0x0100\n      exp\n      swap1\n      div\n      0xffffff\n      and\n        /* \"contracts/WeightedVoting.sol\":3090:3398  IssueView(... */\n      0xffffff\n      and\n      dup2\n      mstore\n      0x20\n      add\n        /* \"contracts/WeightedVoting.sol\":3242:3247  issue */\n      dup4\n        /* \"contracts/WeightedVoting.sol\":3242:3260  issue.votesAbstain */\n      0x03\n      add\n      0x06\n      swap1\n      sload\n      swap1\n      0x0100\n      exp\n      swap1\n      div\n      0xffffff\n      and\n        /* \"contracts/WeightedVoting.sol\":3090:3398  IssueView(... */\n      0xffffff\n      and\n      dup2\n      mstore\n      0x20\n      add\n        /* \"contracts/WeightedVoting.sol\":3278:3283  issue */\n      dup4\n        /* \"contracts/WeightedVoting.sol\":3278:3294  issue.totalVotes */\n      0x03\n      add\n      0x09\n      swap1\n      sload\n      swap1\n      0x0100\n      exp\n      swap1\n      div\n      0xffffff\n      and\n        /* \"contracts/WeightedVoting.sol\":3090:3398  IssueView(... */\n      0xffffff\n      and\n      dup2\n      mstore\n      0x20\n      add\n        /* \"contracts/WeightedVoting.sol\":3312:3317  issue */\n      dup4\n        /* \"contracts/WeightedVoting.sol\":3312:3324  issue.quorum */\n      0x03\n      add\n      0x0c\n      swap1\n      sload\n      swap1\n      0x0100\n      exp\n      swap1\n      div\n      0xffffff\n      and\n        /* \"contracts/WeightedVoting.sol\":3090:3398  IssueView(... */\n      0xffffff\n      and\n      dup2\n      mstore\n      0x20\n      add\n        /* \"contracts/WeightedVoting.sol\":3342:3347  issue */\n      dup4\n        /* \"contracts/WeightedVoting.sol\":3342:3354  issue.passed */\n      0x03\n      add\n      0x0f\n      swap1\n      sload\n      swap1\n      0x0100\n      exp\n      swap1\n      div\n      0xff\n      and\n        /* \"contracts/WeightedVoting.sol\":3090:3398  IssueView(... */\n      iszero\n      iszero\n      dup2\n      mstore\n      0x20\n      add\n        /* \"contracts/WeightedVoting.sol\":3372:3377  issue */\n      dup4\n        /* \"contracts/WeightedVoting.sol\":3372:3384  issue.closed */\n      0x03\n      add\n      0x10\n      swap1\n      sload\n      swap1\n      0x0100\n      exp\n      swap1\n      div\n      0xff\n      and\n        /* \"contracts/WeightedVoting.sol\":3090:3398  IssueView(... */\n      iszero\n      iszero\n      dup2\n      mstore\n      pop\n        /* \"contracts/WeightedVoting.sol\":3071:3398  return... */\n      swap3\n      pop\n      pop\n      pop\n        /* \"contracts/WeightedVoting.sol\":2757:3405  function getIssue(uint24 _id) external view returns (IssueView memory) {... */\n      swap2\n      swap1\n      pop\n      jump\t// out\n        /* \"https://github.com/OpenZeppelin/openzeppelin-contracts/blob/v4.0.0/contracts/utils/Context.sol\":586:682  function _msgSender() internal view virtual returns (address) {... */\n    tag_124:\n        /* \"https://github.com/OpenZeppelin/openzeppelin-contracts/blob/v4.0.0/contracts/utils/Context.sol\":639:646  address */\n      0x00\n        /* \"https://github.com/OpenZeppelin/openzeppelin-contracts/blob/v4.0.0/contracts/utils/Context.sol\":665:675  msg.sender */\n      caller\n        /* \"https://github.com/OpenZeppelin/openzeppelin-contracts/blob/v4.0.0/contracts/utils/Context.sol\":658:675  return msg.sender */\n      swap1\n      pop\n        /* \"https://github.com/OpenZeppelin/openzeppelin-contracts/blob/v4.0.0/contracts/utils/Context.sol\":586:682  function _msgSender() internal view virtual returns (address) {... */\n      swap1\n      jump\t// out\n        /* \"https://github.com/OpenZeppelin/openzeppelin-contracts/blob/v4.0.0/contracts/token/ERC20/ERC20.sol\":9496:9836  function _approve(address owner, address spender, uint256 amount) internal virtual {... */\n    tag_125:\n        /* \"https://github.com/OpenZeppelin/openzeppelin-contracts/blob/v4.0.0/contracts/token/ERC20/ERC20.sol\":9614:9615  0 */\n      0x00\n        /* \"https://github.com/OpenZeppelin/openzeppelin-contracts/blob/v4.0.0/contracts/token/ERC20/ERC20.sol\":9597:9616  owner != address(0) */\n      0xffffffffffffffffffffffffffffffffffffffff\n      and\n        /* \"https://github.com/OpenZeppelin/openzeppelin-contracts/blob/v4.0.0/contracts/token/ERC20/ERC20.sol\":9597:9602  owner */\n      dup4\n        /* \"https://github.com/OpenZeppelin/openzeppelin-contracts/blob/v4.0.0/contracts/token/ERC20/ERC20.sol\":9597:9616  owner != address(0) */\n      0xffffffffffffffffffffffffffffffffffffffff\n      and\n      sub\n        /* \"https://github.com/OpenZeppelin/openzeppelin-contracts/blob/v4.0.0/contracts/token/ERC20/ERC20.sol\":9589:9657  require(owner != address(0), \"ERC20: approve from the zero address\") */\n      tag_261\n      jumpi\n      mload(0x40)\n      0x08c379a000000000000000000000000000000000000000000000000000000000\n      dup2\n      mstore\n      0x04\n      add\n      tag_262\n      swap1\n      tag_263\n      jump\t// in\n    tag_262:\n      mload(0x40)\n      dup1\n      swap2\n      sub\n      swap1\n      revert\n    tag_261:\n        /* \"https://github.com/OpenZeppelin/openzeppelin-contracts/blob/v4.0.0/contracts/token/ERC20/ERC20.sol\":9694:9695  0 */\n      0x00\n        /* \"https://github.com/OpenZeppelin/openzeppelin-contracts/blob/v4.0.0/contracts/token/ERC20/ERC20.sol\":9675:9696  spender != address(0) */\n      0xffffffffffffffffffffffffffffffffffffffff\n      and\n        /* \"https://github.com/OpenZeppelin/openzeppelin-contracts/blob/v4.0.0/contracts/token/ERC20/ERC20.sol\":9675:9682  spender */\n      dup3\n        /* \"https://github.com/OpenZeppelin/openzeppelin-contracts/blob/v4.0.0/contracts/token/ERC20/ERC20.sol\":9675:9696  spender != address(0) */\n      0xffffffffffffffffffffffffffffffffffffffff\n      and\n      sub\n        /* \"https://github.com/OpenZeppelin/openzeppelin-contracts/blob/v4.0.0/contracts/token/ERC20/ERC20.sol\":9667:9735  require(spender != address(0), \"ERC20: approve to the zero address\") */\n      tag_264\n      jumpi\n      mload(0x40)\n      0x08c379a000000000000000000000000000000000000000000000000000000000\n      dup2\n      mstore\n      0x04\n      add\n      tag_265\n      swap1\n      tag_266\n      jump\t// in\n    tag_265:\n      mload(0x40)\n      dup1\n      swap2\n      sub\n      swap1\n      revert\n    tag_264:\n        /* \"https://github.com/OpenZeppelin/openzeppelin-contracts/blob/v4.0.0/contracts/token/ERC20/ERC20.sol\":9776:9782  amount */\n      dup1\n        /* \"https://github.com/OpenZeppelin/openzeppelin-contracts/blob/v4.0.0/contracts/token/ERC20/ERC20.sol\":9746:9757  _allowances */\n      0x01\n        /* \"https://github.com/OpenZeppelin/openzeppelin-contracts/blob/v4.0.0/contracts/token/ERC20/ERC20.sol\":9746:9764  _allowances[owner] */\n      0x00\n        /* \"https://github.com/OpenZeppelin/openzeppelin-contracts/blob/v4.0.0/contracts/token/ERC20/ERC20.sol\":9758:9763  owner */\n      dup6\n        /* \"https://github.com/OpenZeppelin/openzeppelin-contracts/blob/v4.0.0/contracts/token/ERC20/ERC20.sol\":9746:9764  _allowances[owner] */\n      0xffffffffffffffffffffffffffffffffffffffff\n      and\n      0xffffffffffffffffffffffffffffffffffffffff\n      and\n      dup2\n      mstore\n      0x20\n      add\n      swap1\n      dup2\n      mstore\n      0x20\n      add\n      0x00\n      keccak256\n        /* \"https://github.com/OpenZeppelin/openzeppelin-contracts/blob/v4.0.0/contracts/token/ERC20/ERC20.sol\":9746:9773  _allowances[owner][spender] */\n      0x00\n        /* \"https://github.com/OpenZeppelin/openzeppelin-contracts/blob/v4.0.0/contracts/token/ERC20/ERC20.sol\":9765:9772  spender */\n      dup5\n        /* \"https://github.com/OpenZeppelin/openzeppelin-contracts/blob/v4.0.0/contracts/token/ERC20/ERC20.sol\":9746:9773  _allowances[owner][spender] */\n      0xffffffffffffffffffffffffffffffffffffffff\n      and\n      0xffffffffffffffffffffffffffffffffffffffff\n      and\n      dup2\n      mstore\n      0x20\n      add\n      swap1\n      dup2\n      mstore\n      0x20\n      add\n      0x00\n      keccak256\n        /* \"https://github.com/OpenZeppelin/openzeppelin-contracts/blob/v4.0.0/contracts/token/ERC20/ERC20.sol\":9746:9782  _allowances[owner][spender] = amount */\n      dup2\n      swap1\n      sstore\n      pop\n        /* \"https://github.com/OpenZeppelin/openzeppelin-contracts/blob/v4.0.0/contracts/token/ERC20/ERC20.sol\":9813:9820  spender */\n      dup2\n        /* \"https://github.com/OpenZeppelin/openzeppelin-contracts/blob/v4.0.0/contracts/token/ERC20/ERC20.sol\":9797:9829  Approval(owner, spender, amount) */\n      0xffffffffffffffffffffffffffffffffffffffff\n      and\n        /* \"https://github.com/OpenZeppelin/openzeppelin-contracts/blob/v4.0.0/contracts/token/ERC20/ERC20.sol\":9806:9811  owner */\n      dup4\n        /* \"https://github.com/OpenZeppelin/openzeppelin-contracts/blob/v4.0.0/contracts/token/ERC20/ERC20.sol\":9797:9829  Approval(owner, spender, amount) */\n      0xffffffffffffffffffffffffffffffffffffffff\n      and\n      0x8c5be1e5ebec7d5bd14f71427d1e84f3dd0314c0f7b2291e5b200ac8c7c3b925\n        /* \"https://github.com/OpenZeppelin/openzeppelin-contracts/blob/v4.0.0/contracts/token/ERC20/ERC20.sol\":9822:9828  amount */\n      dup4\n        /* \"https://github.com/OpenZeppelin/openzeppelin-contracts/blob/v4.0.0/contracts/token/ERC20/ERC20.sol\":9797:9829  Approval(owner, spender, amount) */\n      mload(0x40)\n      tag_267\n      swap2\n      swap1\n      tag_42\n      jump\t// in\n    tag_267:\n      mload(0x40)\n      dup1\n      swap2\n      sub\n      swap1\n      log3\n        /* \"https://github.com/OpenZeppelin/openzeppelin-contracts/blob/v4.0.0/contracts/token/ERC20/ERC20.sol\":9496:9836  function _approve(address owner, address spender, uint256 amount) internal virtual {... */\n      pop\n      pop\n      pop\n      jump\t// out\n        /* \"https://github.com/OpenZeppelin/openzeppelin-contracts/blob/v4.0.0/contracts/utils/structs/EnumerableSet.sol\":6976:7141  function contains(AddressSet storage set, address value) internal view returns (bool) {... */\n    tag_153:\n        /* \"https://github.com/OpenZeppelin/openzeppelin-contracts/blob/v4.0.0/contracts/utils/structs/EnumerableSet.sol\":7056:7060  bool */\n      0x00\n        /* \"https://github.com/OpenZeppelin/openzeppelin-contracts/blob/v4.0.0/contracts/utils/structs/EnumerableSet.sol\":7079:7134  _contains(set._inner, bytes32(uint256(uint160(value)))) */\n      tag_269\n        /* \"https://github.com/OpenZeppelin/openzeppelin-contracts/blob/v4.0.0/contracts/utils/structs/EnumerableSet.sol\":7089:7092  set */\n      dup4\n        /* \"https://github.com/OpenZeppelin/openzeppelin-contracts/blob/v4.0.0/contracts/utils/structs/EnumerableSet.sol\":7089:7099  set._inner */\n      0x00\n      add\n        /* \"https://github.com/OpenZeppelin/openzeppelin-contracts/blob/v4.0.0/contracts/utils/structs/EnumerableSet.sol\":7125:7130  value */\n      dup4\n        /* \"https://github.com/OpenZeppelin/openzeppelin-contracts/blob/v4.0.0/contracts/utils/structs/EnumerableSet.sol\":7109:7132  uint256(uint160(value)) */\n      0xffffffffffffffffffffffffffffffffffffffff\n      and\n        /* \"https://github.com/OpenZeppelin/openzeppelin-contracts/blob/v4.0.0/contracts/utils/structs/EnumerableSet.sol\":7101:7133  bytes32(uint256(uint160(value))) */\n      0x00\n      shl\n        /* \"https://github.com/OpenZeppelin/openzeppelin-contracts/blob/v4.0.0/contracts/utils/structs/EnumerableSet.sol\":7079:7088  _contains */\n      tag_270\n        /* \"https://github.com/OpenZeppelin/openzeppelin-contracts/blob/v4.0.0/contracts/utils/structs/EnumerableSet.sol\":7079:7134  _contains(set._inner, bytes32(uint256(uint160(value)))) */\n      jump\t// in\n    tag_269:\n        /* \"https://github.com/OpenZeppelin/openzeppelin-contracts/blob/v4.0.0/contracts/utils/structs/EnumerableSet.sol\":7072:7134  return _contains(set._inner, bytes32(uint256(uint160(value)))) */\n      swap1\n      pop\n        /* \"https://github.com/OpenZeppelin/openzeppelin-contracts/blob/v4.0.0/contracts/utils/structs/EnumerableSet.sol\":6976:7141  function contains(AddressSet storage set, address value) internal view returns (bool) {... */\n      swap3\n      swap2\n      pop\n      pop\n      jump\t// out\n        /* \"https://github.com/OpenZeppelin/openzeppelin-contracts/blob/v4.0.0/contracts/utils/structs/EnumerableSet.sol\":6421:6571  function add(AddressSet storage set, address value) internal returns (bool) {... */\n    tag_187:\n        /* \"https://github.com/OpenZeppelin/openzeppelin-contracts/blob/v4.0.0/contracts/utils/structs/EnumerableSet.sol\":6491:6495  bool */\n      0x00\n        /* \"https://github.com/OpenZeppelin/openzeppelin-contracts/blob/v4.0.0/contracts/utils/structs/EnumerableSet.sol\":6514:6564  _add(set._inner, bytes32(uint256(uint160(value)))) */\n      tag_272\n        /* \"https://github.com/OpenZeppelin/openzeppelin-contracts/blob/v4.0.0/contracts/utils/structs/EnumerableSet.sol\":6519:6522  set */\n      dup4\n        /* \"https://github.com/OpenZeppelin/openzeppelin-contracts/blob/v4.0.0/contracts/utils/structs/EnumerableSet.sol\":6519:6529  set._inner */\n      0x00\n      add\n        /* \"https://github.com/OpenZeppelin/openzeppelin-contracts/blob/v4.0.0/contracts/utils/structs/EnumerableSet.sol\":6555:6560  value */\n      dup4\n        /* \"https://github.com/OpenZeppelin/openzeppelin-contracts/blob/v4.0.0/contracts/utils/structs/EnumerableSet.sol\":6539:6562  uint256(uint160(value)) */\n      0xffffffffffffffffffffffffffffffffffffffff\n      and\n        /* \"https://github.com/OpenZeppelin/openzeppelin-contracts/blob/v4.0.0/contracts/utils/structs/EnumerableSet.sol\":6531:6563  bytes32(uint256(uint160(value))) */\n      0x00\n      shl\n        /* \"https://github.com/OpenZeppelin/openzeppelin-contracts/blob/v4.0.0/contracts/utils/structs/EnumerableSet.sol\":6514:6518  _add */\n      tag_273\n        /* \"https://github.com/OpenZeppelin/openzeppelin-contracts/blob/v4.0.0/contracts/utils/structs/EnumerableSet.sol\":6514:6564  _add(set._inner, bytes32(uint256(uint160(value)))) */\n      jump\t// in\n    tag_272:\n        /* \"https://github.com/OpenZeppelin/openzeppelin-contracts/blob/v4.0.0/contracts/utils/structs/EnumerableSet.sol\":6507:6564  return _add(set._inner, bytes32(uint256(uint160(value)))) */\n      swap1\n      pop\n        /* \"https://github.com/OpenZeppelin/openzeppelin-contracts/blob/v4.0.0/contracts/utils/structs/EnumerableSet.sol\":6421:6571  function add(AddressSet storage set, address value) internal returns (bool) {... */\n      swap3\n      swap2\n      pop\n      pop\n      jump\t// out\n        /* \"https://github.com/OpenZeppelin/openzeppelin-contracts/blob/v4.0.0/contracts/token/ERC20/ERC20.sol\":7077:7669  function _transfer(address sender, address recipient, uint256 amount) internal virtual {... */\n    tag_192:\n        /* \"https://github.com/OpenZeppelin/openzeppelin-contracts/blob/v4.0.0/contracts/token/ERC20/ERC20.sol\":7200:7201  0 */\n      0x00\n        /* \"https://github.com/OpenZeppelin/openzeppelin-contracts/blob/v4.0.0/contracts/token/ERC20/ERC20.sol\":7182:7202  sender != address(0) */\n      0xffffffffffffffffffffffffffffffffffffffff\n      and\n        /* \"https://github.com/OpenZeppelin/openzeppelin-contracts/blob/v4.0.0/contracts/token/ERC20/ERC20.sol\":7182:7188  sender */\n      dup4\n        /* \"https://github.com/OpenZeppelin/openzeppelin-contracts/blob/v4.0.0/contracts/token/ERC20/ERC20.sol\":7182:7202  sender != address(0) */\n      0xffffffffffffffffffffffffffffffffffffffff\n      and\n      sub\n        /* \"https://github.com/OpenZeppelin/openzeppelin-contracts/blob/v4.0.0/contracts/token/ERC20/ERC20.sol\":7174:7244  require(sender != address(0), \"ERC20: transfer from the zero address\") */\n      tag_275\n      jumpi\n      mload(0x40)\n      0x08c379a000000000000000000000000000000000000000000000000000000000\n      dup2\n      mstore\n      0x04\n      add\n      tag_276\n      swap1\n      tag_277\n      jump\t// in\n    tag_276:\n      mload(0x40)\n      dup1\n      swap2\n      sub\n      swap1\n      revert\n    tag_275:\n        /* \"https://github.com/OpenZeppelin/openzeppelin-contracts/blob/v4.0.0/contracts/token/ERC20/ERC20.sol\":7283:7284  0 */\n      0x00\n        /* \"https://github.com/OpenZeppelin/openzeppelin-contracts/blob/v4.0.0/contracts/token/ERC20/ERC20.sol\":7262:7285  recipient != address(0) */\n      0xffffffffffffffffffffffffffffffffffffffff\n      and\n        /* \"https://github.com/OpenZeppelin/openzeppelin-contracts/blob/v4.0.0/contracts/token/ERC20/ERC20.sol\":7262:7271  recipient */\n      dup3\n        /* \"https://github.com/OpenZeppelin/openzeppelin-contracts/blob/v4.0.0/contracts/token/ERC20/ERC20.sol\":7262:7285  recipient != address(0) */\n      0xffffffffffffffffffffffffffffffffffffffff\n      and\n      sub\n        /* \"https://github.com/OpenZeppelin/openzeppelin-contracts/blob/v4.0.0/contracts/token/ERC20/ERC20.sol\":7254:7325  require(recipient != address(0), \"ERC20: transfer to the zero address\") */\n      tag_278\n      jumpi\n      mload(0x40)\n      0x08c379a000000000000000000000000000000000000000000000000000000000\n      dup2\n      mstore\n      0x04\n      add\n      tag_279\n      swap1\n      tag_280\n      jump\t// in\n    tag_279:\n      mload(0x40)\n      dup1\n      swap2\n      sub\n      swap1\n      revert\n    tag_278:\n        /* \"https://github.com/OpenZeppelin/openzeppelin-contracts/blob/v4.0.0/contracts/token/ERC20/ERC20.sol\":7336:7383  _beforeTokenTransfer(sender, recipient, amount) */\n      tag_281\n        /* \"https://github.com/OpenZeppelin/openzeppelin-contracts/blob/v4.0.0/contracts/token/ERC20/ERC20.sol\":7357:7363  sender */\n      dup4\n        /* \"https://github.com/OpenZeppelin/openzeppelin-contracts/blob/v4.0.0/contracts/token/ERC20/ERC20.sol\":7365:7374  recipient */\n      dup4\n        /* \"https://github.com/OpenZeppelin/openzeppelin-contracts/blob/v4.0.0/contracts/token/ERC20/ERC20.sol\":7376:7382  amount */\n      dup4\n        /* \"https://github.com/OpenZeppelin/openzeppelin-contracts/blob/v4.0.0/contracts/token/ERC20/ERC20.sol\":7336:7356  _beforeTokenTransfer */\n      tag_282\n        /* \"https://github.com/OpenZeppelin/openzeppelin-contracts/blob/v4.0.0/contracts/token/ERC20/ERC20.sol\":7336:7383  _beforeTokenTransfer(sender, recipient, amount) */\n      jump\t// in\n    tag_281:\n        /* \"https://github.com/OpenZeppelin/openzeppelin-contracts/blob/v4.0.0/contracts/token/ERC20/ERC20.sol\":7394:7415  uint256 senderBalance */\n      0x00\n        /* \"https://github.com/OpenZeppelin/openzeppelin-contracts/blob/v4.0.0/contracts/token/ERC20/ERC20.sol\":7418:7427  _balances */\n      dup1\n        /* \"https://github.com/OpenZeppelin/openzeppelin-contracts/blob/v4.0.0/contracts/token/ERC20/ERC20.sol\":7418:7435  _balances[sender] */\n      0x00\n        /* \"https://github.com/OpenZeppelin/openzeppelin-contracts/blob/v4.0.0/contracts/token/ERC20/ERC20.sol\":7428:7434  sender */\n      dup6\n        /* \"https://github.com/OpenZeppelin/openzeppelin-contracts/blob/v4.0.0/contracts/token/ERC20/ERC20.sol\":7418:7435  _balances[sender] */\n      0xffffffffffffffffffffffffffffffffffffffff\n      and\n      0xffffffffffffffffffffffffffffffffffffffff\n      and\n      dup2\n      mstore\n      0x20\n      add\n      swap1\n      dup2\n      mstore\n      0x20\n      add\n      0x00\n      keccak256\n      sload\n        /* \"https://github.com/OpenZeppelin/openzeppelin-contracts/blob/v4.0.0/contracts/token/ERC20/ERC20.sol\":7394:7435  uint256 senderBalance = _balances[sender] */\n      swap1\n      pop\n        /* \"https://github.com/OpenZeppelin/openzeppelin-contracts/blob/v4.0.0/contracts/token/ERC20/ERC20.sol\":7470:7476  amount */\n      dup2\n        /* \"https://github.com/OpenZeppelin/openzeppelin-contracts/blob/v4.0.0/contracts/token/ERC20/ERC20.sol\":7453:7466  senderBalance */\n      dup2\n        /* \"https://github.com/OpenZeppelin/openzeppelin-contracts/blob/v4.0.0/contracts/token/ERC20/ERC20.sol\":7453:7476  senderBalance >= amount */\n      lt\n      iszero\n        /* \"https://github.com/OpenZeppelin/openzeppelin-contracts/blob/v4.0.0/contracts/token/ERC20/ERC20.sol\":7445:7519  require(senderBalance >= amount, \"ERC20: transfer amount exceeds balance\") */\n      tag_283\n      jumpi\n      mload(0x40)\n      0x08c379a000000000000000000000000000000000000000000000000000000000\n      dup2\n      mstore\n      0x04\n      add\n      tag_284\n      swap1\n      tag_285\n      jump\t// in\n    tag_284:\n      mload(0x40)\n      dup1\n      swap2\n      sub\n      swap1\n      revert\n    tag_283:\n        /* \"https://github.com/OpenZeppelin/openzeppelin-contracts/blob/v4.0.0/contracts/token/ERC20/ERC20.sol\":7565:7571  amount */\n      dup2\n        /* \"https://github.com/OpenZeppelin/openzeppelin-contracts/blob/v4.0.0/contracts/token/ERC20/ERC20.sol\":7549:7562  senderBalance */\n      dup2\n        /* \"https://github.com/OpenZeppelin/openzeppelin-contracts/blob/v4.0.0/contracts/token/ERC20/ERC20.sol\":7549:7571  senderBalance - amount */\n      tag_286\n      swap2\n      swap1\n      tag_200\n      jump\t// in\n    tag_286:\n        /* \"https://github.com/OpenZeppelin/openzeppelin-contracts/blob/v4.0.0/contracts/token/ERC20/ERC20.sol\":7529:7538  _balances */\n      0x00\n        /* \"https://github.com/OpenZeppelin/openzeppelin-contracts/blob/v4.0.0/contracts/token/ERC20/ERC20.sol\":7529:7546  _balances[sender] */\n      dup1\n        /* \"https://github.com/OpenZeppelin/openzeppelin-contracts/blob/v4.0.0/contracts/token/ERC20/ERC20.sol\":7539:7545  sender */\n      dup7\n        /* \"https://github.com/OpenZeppelin/openzeppelin-contracts/blob/v4.0.0/contracts/token/ERC20/ERC20.sol\":7529:7546  _balances[sender] */\n      0xffffffffffffffffffffffffffffffffffffffff\n      and\n      0xffffffffffffffffffffffffffffffffffffffff\n      and\n      dup2\n      mstore\n      0x20\n      add\n      swap1\n      dup2\n      mstore\n      0x20\n      add\n      0x00\n      keccak256\n        /* \"https://github.com/OpenZeppelin/openzeppelin-contracts/blob/v4.0.0/contracts/token/ERC20/ERC20.sol\":7529:7571  _balances[sender] = senderBalance - amount */\n      dup2\n      swap1\n      sstore\n      pop\n        /* \"https://github.com/OpenZeppelin/openzeppelin-contracts/blob/v4.0.0/contracts/token/ERC20/ERC20.sol\":7605:7611  amount */\n      dup2\n        /* \"https://github.com/OpenZeppelin/openzeppelin-contracts/blob/v4.0.0/contracts/token/ERC20/ERC20.sol\":7581:7590  _balances */\n      0x00\n        /* \"https://github.com/OpenZeppelin/openzeppelin-contracts/blob/v4.0.0/contracts/token/ERC20/ERC20.sol\":7581:7601  _balances[recipient] */\n      dup1\n        /* \"https://github.com/OpenZeppelin/openzeppelin-contracts/blob/v4.0.0/contracts/token/ERC20/ERC20.sol\":7591:7600  recipient */\n      dup6\n        /* \"https://github.com/OpenZeppelin/openzeppelin-contracts/blob/v4.0.0/contracts/token/ERC20/ERC20.sol\":7581:7601  _balances[recipient] */\n      0xffffffffffffffffffffffffffffffffffffffff\n      and\n      0xffffffffffffffffffffffffffffffffffffffff\n      and\n      dup2\n      mstore\n      0x20\n      add\n      swap1\n      dup2\n      mstore\n      0x20\n      add\n      0x00\n      keccak256\n      0x00\n        /* \"https://github.com/OpenZeppelin/openzeppelin-contracts/blob/v4.0.0/contracts/token/ERC20/ERC20.sol\":7581:7611  _balances[recipient] += amount */\n      dup3\n      dup3\n      sload\n      tag_287\n      swap2\n      swap1\n      tag_207\n      jump\t// in\n    tag_287:\n      swap3\n      pop\n      pop\n      dup2\n      swap1\n      sstore\n      pop\n        /* \"https://github.com/OpenZeppelin/openzeppelin-contracts/blob/v4.0.0/contracts/token/ERC20/ERC20.sol\":7644:7653  recipient */\n      dup3\n        /* \"https://github.com/OpenZeppelin/openzeppelin-contracts/blob/v4.0.0/contracts/token/ERC20/ERC20.sol\":7627:7662  Transfer(sender, recipient, amount) */\n      0xffffffffffffffffffffffffffffffffffffffff\n      and\n        /* \"https://github.com/OpenZeppelin/openzeppelin-contracts/blob/v4.0.0/contracts/token/ERC20/ERC20.sol\":7636:7642  sender */\n      dup5\n        /* \"https://github.com/OpenZeppelin/openzeppelin-contracts/blob/v4.0.0/contracts/token/ERC20/ERC20.sol\":7627:7662  Transfer(sender, recipient, amount) */\n      0xffffffffffffffffffffffffffffffffffffffff\n      and\n      0xddf252ad1be2c89b69c2b068fc378daa952ba7f163c4a11628f55a4df523b3ef\n        /* \"https://github.com/OpenZeppelin/openzeppelin-contracts/blob/v4.0.0/contracts/token/ERC20/ERC20.sol\":7655:7661  amount */\n      dup5\n        /* \"https://github.com/OpenZeppelin/openzeppelin-contracts/blob/v4.0.0/contracts/token/ERC20/ERC20.sol\":7627:7662  Transfer(sender, recipient, amount) */\n      mload(0x40)\n      tag_288\n      swap2\n      swap1\n      tag_42\n      jump\t// in\n    tag_288:\n      mload(0x40)\n      dup1\n      swap2\n      sub\n      swap1\n      log3\n        /* \"https://github.com/OpenZeppelin/openzeppelin-contracts/blob/v4.0.0/contracts/token/ERC20/ERC20.sol\":7164:7669  {... */\n      pop\n        /* \"https://github.com/OpenZeppelin/openzeppelin-contracts/blob/v4.0.0/contracts/token/ERC20/ERC20.sol\":7077:7669  function _transfer(address sender, address recipient, uint256 amount) internal virtual {... */\n      pop\n      pop\n      pop\n      jump\t// out\n        /* \"https://github.com/OpenZeppelin/openzeppelin-contracts/blob/v4.0.0/contracts/utils/structs/EnumerableSet.sol\":7222:7337  function length(AddressSet storage set) internal view returns (uint256) {... */\n    tag_239:\n        /* \"https://github.com/OpenZeppelin/openzeppelin-contracts/blob/v4.0.0/contracts/utils/structs/EnumerableSet.sol\":7285:7292  uint256 */\n      0x00\n        /* \"https://github.com/OpenZeppelin/openzeppelin-contracts/blob/v4.0.0/contracts/utils/structs/EnumerableSet.sol\":7311:7330  _length(set._inner) */\n      tag_290\n        /* \"https://github.com/OpenZeppelin/openzeppelin-contracts/blob/v4.0.0/contracts/utils/structs/EnumerableSet.sol\":7319:7322  set */\n      dup3\n        /* \"https://github.com/OpenZeppelin/openzeppelin-contracts/blob/v4.0.0/contracts/utils/structs/EnumerableSet.sol\":7319:7329  set._inner */\n      0x00\n      add\n        /* \"https://github.com/OpenZeppelin/openzeppelin-contracts/blob/v4.0.0/contracts/utils/structs/EnumerableSet.sol\":7311:7318  _length */\n      tag_291\n        /* \"https://github.com/OpenZeppelin/openzeppelin-contracts/blob/v4.0.0/contracts/utils/structs/EnumerableSet.sol\":7311:7330  _length(set._inner) */\n      jump\t// in\n    tag_290:\n        /* \"https://github.com/OpenZeppelin/openzeppelin-contracts/blob/v4.0.0/contracts/utils/structs/EnumerableSet.sol\":7304:7330  return _length(set._inner) */\n      swap1\n      pop\n        /* \"https://github.com/OpenZeppelin/openzeppelin-contracts/blob/v4.0.0/contracts/utils/structs/EnumerableSet.sol\":7222:7337  function length(AddressSet storage set) internal view returns (uint256) {... */\n      swap2\n      swap1\n      pop\n      jump\t// out\n        /* \"https://github.com/OpenZeppelin/openzeppelin-contracts/blob/v4.0.0/contracts/utils/structs/EnumerableSet.sol\":7669:7825  function at(AddressSet storage set, uint256 index) internal view returns (address) {... */\n    tag_249:\n        /* \"https://github.com/OpenZeppelin/openzeppelin-contracts/blob/v4.0.0/contracts/utils/structs/EnumerableSet.sol\":7743:7750  address */\n      0x00\n        /* \"https://github.com/OpenZeppelin/openzeppelin-contracts/blob/v4.0.0/contracts/utils/structs/EnumerableSet.sol\":7793:7815  _at(set._inner, index) */\n      tag_293\n        /* \"https://github.com/OpenZeppelin/openzeppelin-contracts/blob/v4.0.0/contracts/utils/structs/EnumerableSet.sol\":7797:7800  set */\n      dup4\n        /* \"https://github.com/OpenZeppelin/openzeppelin-contracts/blob/v4.0.0/contracts/utils/structs/EnumerableSet.sol\":7797:7807  set._inner */\n      0x00\n      add\n        /* \"https://github.com/OpenZeppelin/openzeppelin-contracts/blob/v4.0.0/contracts/utils/structs/EnumerableSet.sol\":7809:7814  index */\n      dup4\n        /* \"https://github.com/OpenZeppelin/openzeppelin-contracts/blob/v4.0.0/contracts/utils/structs/EnumerableSet.sol\":7793:7796  _at */\n      tag_294\n        /* \"https://github.com/OpenZeppelin/openzeppelin-contracts/blob/v4.0.0/contracts/utils/structs/EnumerableSet.sol\":7793:7815  _at(set._inner, index) */\n      jump\t// in\n    tag_293:\n        /* \"https://github.com/OpenZeppelin/openzeppelin-contracts/blob/v4.0.0/contracts/utils/structs/EnumerableSet.sol\":7785:7816  uint256(_at(set._inner, index)) */\n      0x00\n      shr\n        /* \"https://github.com/OpenZeppelin/openzeppelin-contracts/blob/v4.0.0/contracts/utils/structs/EnumerableSet.sol\":7762:7818  return address(uint160(uint256(_at(set._inner, index)))) */\n      swap1\n      pop\n        /* \"https://github.com/OpenZeppelin/openzeppelin-contracts/blob/v4.0.0/contracts/utils/structs/EnumerableSet.sol\":7669:7825  function at(AddressSet storage set, uint256 index) internal view returns (address) {... */\n      swap3\n      swap2\n      pop\n      pop\n      jump\t// out\n        /* \"https://github.com/OpenZeppelin/openzeppelin-contracts/blob/v4.0.0/contracts/utils/structs/EnumerableSet.sol\":3797:3924  function _contains(Set storage set, bytes32 value) private view returns (bool) {... */\n    tag_270:\n        /* \"https://github.com/OpenZeppelin/openzeppelin-contracts/blob/v4.0.0/contracts/utils/structs/EnumerableSet.sol\":3870:3874  bool */\n      0x00\n        /* \"https://github.com/OpenZeppelin/openzeppelin-contracts/blob/v4.0.0/contracts/utils/structs/EnumerableSet.sol\":3916:3917  0 */\n      dup1\n        /* \"https://github.com/OpenZeppelin/openzeppelin-contracts/blob/v4.0.0/contracts/utils/structs/EnumerableSet.sol\":3893:3896  set */\n      dup4\n        /* \"https://github.com/OpenZeppelin/openzeppelin-contracts/blob/v4.0.0/contracts/utils/structs/EnumerableSet.sol\":3893:3905  set._indexes */\n      0x01\n      add\n        /* \"https://github.com/OpenZeppelin/openzeppelin-contracts/blob/v4.0.0/contracts/utils/structs/EnumerableSet.sol\":3893:3912  set._indexes[value] */\n      0x00\n        /* \"https://github.com/OpenZeppelin/openzeppelin-contracts/blob/v4.0.0/contracts/utils/structs/EnumerableSet.sol\":3906:3911  value */\n      dup5\n        /* \"https://github.com/OpenZeppelin/openzeppelin-contracts/blob/v4.0.0/contracts/utils/structs/EnumerableSet.sol\":3893:3912  set._indexes[value] */\n      dup2\n      mstore\n      0x20\n      add\n      swap1\n      dup2\n      mstore\n      0x20\n      add\n      0x00\n      keccak256\n      sload\n        /* \"https://github.com/OpenZeppelin/openzeppelin-contracts/blob/v4.0.0/contracts/utils/structs/EnumerableSet.sol\":3893:3917  set._indexes[value] != 0 */\n      eq\n      iszero\n        /* \"https://github.com/OpenZeppelin/openzeppelin-contracts/blob/v4.0.0/contracts/utils/structs/EnumerableSet.sol\":3886:3917  return set._indexes[value] != 0 */\n      swap1\n      pop\n        /* \"https://github.com/OpenZeppelin/openzeppelin-contracts/blob/v4.0.0/contracts/utils/structs/EnumerableSet.sol\":3797:3924  function _contains(Set storage set, bytes32 value) private view returns (bool) {... */\n      swap3\n      swap2\n      pop\n      pop\n      jump\t// out\n        /* \"https://github.com/OpenZeppelin/openzeppelin-contracts/blob/v4.0.0/contracts/utils/structs/EnumerableSet.sol\":1632:2036  function _add(Set storage set, bytes32 value) private returns (bool) {... */\n    tag_273:\n        /* \"https://github.com/OpenZeppelin/openzeppelin-contracts/blob/v4.0.0/contracts/utils/structs/EnumerableSet.sol\":1695:1699  bool */\n      0x00\n        /* \"https://github.com/OpenZeppelin/openzeppelin-contracts/blob/v4.0.0/contracts/utils/structs/EnumerableSet.sol\":1716:1737  _contains(set, value) */\n      tag_297\n        /* \"https://github.com/OpenZeppelin/openzeppelin-contracts/blob/v4.0.0/contracts/utils/structs/EnumerableSet.sol\":1726:1729  set */\n      dup4\n        /* \"https://github.com/OpenZeppelin/openzeppelin-contracts/blob/v4.0.0/contracts/utils/structs/EnumerableSet.sol\":1731:1736  value */\n      dup4\n        /* \"https://github.com/OpenZeppelin/openzeppelin-contracts/blob/v4.0.0/contracts/utils/structs/EnumerableSet.sol\":1716:1725  _contains */\n      tag_270\n        /* \"https://github.com/OpenZeppelin/openzeppelin-contracts/blob/v4.0.0/contracts/utils/structs/EnumerableSet.sol\":1716:1737  _contains(set, value) */\n      jump\t// in\n    tag_297:\n        /* \"https://github.com/OpenZeppelin/openzeppelin-contracts/blob/v4.0.0/contracts/utils/structs/EnumerableSet.sol\":1711:2030  if (!_contains(set, value)) {... */\n      tag_298\n      jumpi\n        /* \"https://github.com/OpenZeppelin/openzeppelin-contracts/blob/v4.0.0/contracts/utils/structs/EnumerableSet.sol\":1753:1756  set */\n      dup3\n        /* \"https://github.com/OpenZeppelin/openzeppelin-contracts/blob/v4.0.0/contracts/utils/structs/EnumerableSet.sol\":1753:1764  set._values */\n      0x00\n      add\n        /* \"https://github.com/OpenZeppelin/openzeppelin-contracts/blob/v4.0.0/contracts/utils/structs/EnumerableSet.sol\":1770:1775  value */\n      dup3\n        /* \"https://github.com/OpenZeppelin/openzeppelin-contracts/blob/v4.0.0/contracts/utils/structs/EnumerableSet.sol\":1753:1776  set._values.push(value) */\n      swap1\n      dup1\n      0x01\n      dup2\n      sload\n      add\n      dup1\n      dup3\n      sstore\n      dup1\n      swap2\n      pop\n      pop\n      0x01\n      swap1\n      sub\n      swap1\n      0x00\n      mstore\n      keccak256(0x00, 0x20)\n      add\n      0x00\n      swap1\n      swap2\n      swap1\n      swap2\n      swap1\n      swap2\n      pop\n      sstore\n        /* \"https://github.com/OpenZeppelin/openzeppelin-contracts/blob/v4.0.0/contracts/utils/structs/EnumerableSet.sol\":1933:1936  set */\n      dup3\n        /* \"https://github.com/OpenZeppelin/openzeppelin-contracts/blob/v4.0.0/contracts/utils/structs/EnumerableSet.sol\":1933:1944  set._values */\n      0x00\n      add\n        /* \"https://github.com/OpenZeppelin/openzeppelin-contracts/blob/v4.0.0/contracts/utils/structs/EnumerableSet.sol\":1933:1951  set._values.length */\n      dup1\n      sload\n      swap1\n      pop\n        /* \"https://github.com/OpenZeppelin/openzeppelin-contracts/blob/v4.0.0/contracts/utils/structs/EnumerableSet.sol\":1911:1914  set */\n      dup4\n        /* \"https://github.com/OpenZeppelin/openzeppelin-contracts/blob/v4.0.0/contracts/utils/structs/EnumerableSet.sol\":1911:1923  set._indexes */\n      0x01\n      add\n        /* \"https://github.com/OpenZeppelin/openzeppelin-contracts/blob/v4.0.0/contracts/utils/structs/EnumerableSet.sol\":1911:1930  set._indexes[value] */\n      0x00\n        /* \"https://github.com/OpenZeppelin/openzeppelin-contracts/blob/v4.0.0/contracts/utils/structs/EnumerableSet.sol\":1924:1929  value */\n      dup5\n        /* \"https://github.com/OpenZeppelin/openzeppelin-contracts/blob/v4.0.0/contracts/utils/structs/EnumerableSet.sol\":1911:1930  set._indexes[value] */\n      dup2\n      mstore\n      0x20\n      add\n      swap1\n      dup2\n      mstore\n      0x20\n      add\n      0x00\n      keccak256\n        /* \"https://github.com/OpenZeppelin/openzeppelin-contracts/blob/v4.0.0/contracts/utils/structs/EnumerableSet.sol\":1911:1951  set._indexes[value] = set._values.length */\n      dup2\n      swap1\n      sstore\n      pop\n        /* \"https://github.com/OpenZeppelin/openzeppelin-contracts/blob/v4.0.0/contracts/utils/structs/EnumerableSet.sol\":1972:1976  true */\n      0x01\n        /* \"https://github.com/OpenZeppelin/openzeppelin-contracts/blob/v4.0.0/contracts/utils/structs/EnumerableSet.sol\":1965:1976  return true */\n      swap1\n      pop\n      jump(tag_296)\n        /* \"https://github.com/OpenZeppelin/openzeppelin-contracts/blob/v4.0.0/contracts/utils/structs/EnumerableSet.sol\":1711:2030  if (!_contains(set, value)) {... */\n    tag_298:\n        /* \"https://github.com/OpenZeppelin/openzeppelin-contracts/blob/v4.0.0/contracts/utils/structs/EnumerableSet.sol\":2014:2019  false */\n      0x00\n        /* \"https://github.com/OpenZeppelin/openzeppelin-contracts/blob/v4.0.0/contracts/utils/structs/EnumerableSet.sol\":2007:2019  return false */\n      swap1\n      pop\n        /* \"https://github.com/OpenZeppelin/openzeppelin-contracts/blob/v4.0.0/contracts/utils/structs/EnumerableSet.sol\":1632:2036  function _add(Set storage set, bytes32 value) private returns (bool) {... */\n    tag_296:\n      swap3\n      swap2\n      pop\n      pop\n      jump\t// out\n        /* \"https://github.com/OpenZeppelin/openzeppelin-contracts/blob/v4.0.0/contracts/token/ERC20/ERC20.sol\":10423:10515  function _beforeTokenTransfer(address from, address to, uint256 amount) internal virtual { } */\n    tag_282:\n      pop\n      pop\n      pop\n      jump\t// out\n        /* \"https://github.com/OpenZeppelin/openzeppelin-contracts/blob/v4.0.0/contracts/utils/structs/EnumerableSet.sol\":4005:4112  function _length(Set storage set) private view returns (uint256) {... */\n    tag_291:\n        /* \"https://github.com/OpenZeppelin/openzeppelin-contracts/blob/v4.0.0/contracts/utils/structs/EnumerableSet.sol\":4061:4068  uint256 */\n      0x00\n        /* \"https://github.com/OpenZeppelin/openzeppelin-contracts/blob/v4.0.0/contracts/utils/structs/EnumerableSet.sol\":4087:4090  set */\n      dup2\n        /* \"https://github.com/OpenZeppelin/openzeppelin-contracts/blob/v4.0.0/contracts/utils/structs/EnumerableSet.sol\":4087:4098  set._values */\n      0x00\n      add\n        /* \"https://github.com/OpenZeppelin/openzeppelin-contracts/blob/v4.0.0/contracts/utils/structs/EnumerableSet.sol\":4087:4105  set._values.length */\n      dup1\n      sload\n      swap1\n      pop\n        /* \"https://github.com/OpenZeppelin/openzeppelin-contracts/blob/v4.0.0/contracts/utils/structs/EnumerableSet.sol\":4080:4105  return set._values.length */\n      swap1\n      pop\n        /* \"https://github.com/OpenZeppelin/openzeppelin-contracts/blob/v4.0.0/contracts/utils/structs/EnumerableSet.sol\":4005:4112  function _length(Set storage set) private view returns (uint256) {... */\n      swap2\n      swap1\n      pop\n      jump\t// out\n        /* \"https://github.com/OpenZeppelin/openzeppelin-contracts/blob/v4.0.0/contracts/utils/structs/EnumerableSet.sol\":4444:4645  function _at(Set storage set, uint256 index) private view returns (bytes32) {... */\n    tag_294:\n        /* \"https://github.com/OpenZeppelin/openzeppelin-contracts/blob/v4.0.0/contracts/utils/structs/EnumerableSet.sol\":4511:4518  bytes32 */\n      0x00\n        /* \"https://github.com/OpenZeppelin/openzeppelin-contracts/blob/v4.0.0/contracts/utils/structs/EnumerableSet.sol\":4559:4564  index */\n      dup2\n        /* \"https://github.com/OpenZeppelin/openzeppelin-contracts/blob/v4.0.0/contracts/utils/structs/EnumerableSet.sol\":4538:4541  set */\n      dup4\n        /* \"https://github.com/OpenZeppelin/openzeppelin-contracts/blob/v4.0.0/contracts/utils/structs/EnumerableSet.sol\":4538:4549  set._values */\n      0x00\n      add\n        /* \"https://github.com/OpenZeppelin/openzeppelin-contracts/blob/v4.0.0/contracts/utils/structs/EnumerableSet.sol\":4538:4556  set._values.length */\n      dup1\n      sload\n      swap1\n      pop\n        /* \"https://github.com/OpenZeppelin/openzeppelin-contracts/blob/v4.0.0/contracts/utils/structs/EnumerableSet.sol\":4538:4564  set._values.length > index */\n      gt\n        /* \"https://github.com/OpenZeppelin/openzeppelin-contracts/blob/v4.0.0/contracts/utils/structs/EnumerableSet.sol\":4530:4603  require(set._values.length > index, \"EnumerableSet: index out of bounds\") */\n      tag_304\n      jumpi\n      mload(0x40)\n      0x08c379a000000000000000000000000000000000000000000000000000000000\n      dup2\n      mstore\n      0x04\n      add\n      tag_305\n      swap1\n      tag_306\n      jump\t// in\n    tag_305:\n      mload(0x40)\n      dup1\n      swap2\n      sub\n      swap1\n      revert\n    tag_304:\n        /* \"https://github.com/OpenZeppelin/openzeppelin-contracts/blob/v4.0.0/contracts/utils/structs/EnumerableSet.sol\":4620:4623  set */\n      dup3\n        /* \"https://github.com/OpenZeppelin/openzeppelin-contracts/blob/v4.0.0/contracts/utils/structs/EnumerableSet.sol\":4620:4631  set._values */\n      0x00\n      add\n        /* \"https://github.com/OpenZeppelin/openzeppelin-contracts/blob/v4.0.0/contracts/utils/structs/EnumerableSet.sol\":4632:4637  index */\n      dup3\n        /* \"https://github.com/OpenZeppelin/openzeppelin-contracts/blob/v4.0.0/contracts/utils/structs/EnumerableSet.sol\":4620:4638  set._values[index] */\n      dup2\n      sload\n      dup2\n      lt\n      tag_307\n      jumpi\n      tag_308\n      tag_137\n      jump\t// in\n    tag_308:\n    tag_307:\n      swap1\n      0x00\n      mstore\n      keccak256(0x00, 0x20)\n      add\n      sload\n        /* \"https://github.com/OpenZeppelin/openzeppelin-contracts/blob/v4.0.0/contracts/utils/structs/EnumerableSet.sol\":4613:4638  return set._values[index] */\n      swap1\n      pop\n        /* \"https://github.com/OpenZeppelin/openzeppelin-contracts/blob/v4.0.0/contracts/utils/structs/EnumerableSet.sol\":4444:4645  function _at(Set storage set, uint256 index) private view returns (bytes32) {... */\n      swap3\n      swap2\n      pop\n      pop\n      jump\t// out\n    tag_233:\n      mload(0x40)\n      dup1\n      0x0120\n      add\n      0x40\n      mstore\n      dup1\n      0x60\n      dup2\n      mstore\n      0x20\n      add\n      0x60\n      dup2\n      mstore\n      0x20\n      add\n      and(0xffffff, 0x00)\n      dup2\n      mstore\n      0x20\n      add\n      and(0xffffff, 0x00)\n      dup2\n      mstore\n      0x20\n      add\n      and(0xffffff, 0x00)\n      dup2\n      mstore\n      0x20\n      add\n      and(0xffffff, 0x00)\n      dup2\n      mstore\n      0x20\n      add\n      and(0xffffff, 0x00)\n      dup2\n      mstore\n      0x20\n      add\n      iszero(iszero(0x00))\n      dup2\n      mstore\n      0x20\n      add\n      iszero(iszero(0x00))\n      dup2\n      mstore\n      pop\n      swap1\n      jump\t// out\n        /* \"#utility.yul\":7:106   */\n    tag_310:\n        /* \"#utility.yul\":59:65   */\n      0x00\n        /* \"#utility.yul\":93:98   */\n      dup2\n        /* \"#utility.yul\":87:99   */\n      mload\n        /* \"#utility.yul\":77:99   */\n      swap1\n      pop\n        /* \"#utility.yul\":7:106   */\n      swap2\n      swap1\n      pop\n      jump\t// out\n        /* \"#utility.yul\":112:281   */\n    tag_311:\n        /* \"#utility.yul\":196:207   */\n      0x00\n        /* \"#utility.yul\":230:236   */\n      dup3\n        /* \"#utility.yul\":225:228   */\n      dup3\n        /* \"#utility.yul\":218:237   */\n      mstore\n        /* \"#utility.yul\":270:274   */\n      0x20\n        /* \"#utility.yul\":265:268   */\n      dup3\n        /* \"#utility.yul\":261:275   */\n      add\n        /* \"#utility.yul\":246:275   */\n      swap1\n      pop\n        /* \"#utility.yul\":112:281   */\n      swap3\n      swap2\n      pop\n      pop\n      jump\t// out\n        /* \"#utility.yul\":287:533   */\n    tag_312:\n        /* \"#utility.yul\":368:369   */\n      0x00\n        /* \"#utility.yul\":378:491   */\n    tag_404:\n        /* \"#utility.yul\":392:398   */\n      dup4\n        /* \"#utility.yul\":389:390   */\n      dup2\n        /* \"#utility.yul\":386:399   */\n      lt\n        /* \"#utility.yul\":378:491   */\n      iszero\n      tag_406\n      jumpi\n        /* \"#utility.yul\":477:478   */\n      dup1\n        /* \"#utility.yul\":472:475   */\n      dup3\n        /* \"#utility.yul\":468:479   */\n      add\n        /* \"#utility.yul\":462:480   */\n      mload\n        /* \"#utility.yul\":458:459   */\n      dup2\n        /* \"#utility.yul\":453:456   */\n      dup5\n        /* \"#utility.yul\":449:460   */\n      add\n        /* \"#utility.yul\":442:481   */\n      mstore\n        /* \"#utility.yul\":414:416   */\n      0x20\n        /* \"#utility.yul\":411:412   */\n      dup2\n        /* \"#utility.yul\":407:417   */\n      add\n        /* \"#utility.yul\":402:417   */\n      swap1\n      pop\n        /* \"#utility.yul\":378:491   */\n      jump(tag_404)\n    tag_406:\n        /* \"#utility.yul\":525:526   */\n      0x00\n        /* \"#utility.yul\":516:522   */\n      dup5\n        /* \"#utility.yul\":511:514   */\n      dup5\n        /* \"#utility.yul\":507:523   */\n      add\n        /* \"#utility.yul\":500:527   */\n      mstore\n        /* \"#utility.yul\":349:533   */\n      pop\n        /* \"#utility.yul\":287:533   */\n      pop\n      pop\n      pop\n      jump\t// out\n        /* \"#utility.yul\":539:641   */\n    tag_313:\n        /* \"#utility.yul\":580:586   */\n      0x00\n        /* \"#utility.yul\":631:633   */\n      0x1f\n        /* \"#utility.yul\":627:634   */\n      not\n        /* \"#utility.yul\":622:624   */\n      0x1f\n        /* \"#utility.yul\":615:620   */\n      dup4\n        /* \"#utility.yul\":611:625   */\n      add\n        /* \"#utility.yul\":607:635   */\n      and\n        /* \"#utility.yul\":597:635   */\n      swap1\n      pop\n        /* \"#utility.yul\":539:641   */\n      swap2\n      swap1\n      pop\n      jump\t// out\n        /* \"#utility.yul\":647:1024   */\n    tag_314:\n        /* \"#utility.yul\":735:738   */\n      0x00\n        /* \"#utility.yul\":763:802   */\n      tag_409\n        /* \"#utility.yul\":796:801   */\n      dup3\n        /* \"#utility.yul\":763:802   */\n      tag_310\n      jump\t// in\n    tag_409:\n        /* \"#utility.yul\":818:889   */\n      tag_410\n        /* \"#utility.yul\":882:888   */\n      dup2\n        /* \"#utility.yul\":877:880   */\n      dup6\n        /* \"#utility.yul\":818:889   */\n      tag_311\n      jump\t// in\n    tag_410:\n        /* \"#utility.yul\":811:889   */\n      swap4\n      pop\n        /* \"#utility.yul\":898:963   */\n      tag_411\n        /* \"#utility.yul\":956:962   */\n      dup2\n        /* \"#utility.yul\":951:954   */\n      dup6\n        /* \"#utility.yul\":944:948   */\n      0x20\n        /* \"#utility.yul\":937:942   */\n      dup7\n        /* \"#utility.yul\":933:949   */\n      add\n        /* \"#utility.yul\":898:963   */\n      tag_312\n      jump\t// in\n    tag_411:\n        /* \"#utility.yul\":988:1017   */\n      tag_412\n        /* \"#utility.yul\":1010:1016   */\n      dup2\n        /* \"#utility.yul\":988:1017   */\n      tag_313\n      jump\t// in\n    tag_412:\n        /* \"#utility.yul\":983:986   */\n      dup5\n        /* \"#utility.yul\":979:1018   */\n      add\n        /* \"#utility.yul\":972:1018   */\n      swap2\n      pop\n        /* \"#utility.yul\":739:1024   */\n      pop\n        /* \"#utility.yul\":647:1024   */\n      swap3\n      swap2\n      pop\n      pop\n      jump\t// out\n        /* \"#utility.yul\":1030:1343   */\n    tag_30:\n        /* \"#utility.yul\":1143:1147   */\n      0x00\n        /* \"#utility.yul\":1181:1183   */\n      0x20\n        /* \"#utility.yul\":1170:1179   */\n      dup3\n        /* \"#utility.yul\":1166:1184   */\n      add\n        /* \"#utility.yul\":1158:1184   */\n      swap1\n      pop\n        /* \"#utility.yul\":1230:1239   */\n      dup2\n        /* \"#utility.yul\":1224:1228   */\n      dup2\n        /* \"#utility.yul\":1220:1240   */\n      sub\n        /* \"#utility.yul\":1216:1217   */\n      0x00\n        /* \"#utility.yul\":1205:1214   */\n      dup4\n        /* \"#utility.yul\":1201:1218   */\n      add\n        /* \"#utility.yul\":1194:1241   */\n      mstore\n        /* \"#utility.yul\":1258:1336   */\n      tag_414\n        /* \"#utility.yul\":1331:1335   */\n      dup2\n        /* \"#utility.yul\":1322:1328   */\n      dup5\n        /* \"#utility.yul\":1258:1336   */\n      tag_314\n      jump\t// in\n    tag_414:\n        /* \"#utility.yul\":1250:1336   */\n      swap1\n      pop\n        /* \"#utility.yul\":1030:1343   */\n      swap3\n      swap2\n      pop\n      pop\n      jump\t// out\n        /* \"#utility.yul\":1349:1424   */\n    tag_315:\n        /* \"#utility.yul\":1382:1388   */\n      0x00\n        /* \"#utility.yul\":1415:1417   */\n      0x40\n        /* \"#utility.yul\":1409:1418   */\n      mload\n        /* \"#utility.yul\":1399:1418   */\n      swap1\n      pop\n        /* \"#utility.yul\":1349:1424   */\n      swap1\n      jump\t// out\n        /* \"#utility.yul\":1430:1547   */\n    tag_316:\n        /* \"#utility.yul\":1539:1540   */\n      0x00\n        /* \"#utility.yul\":1536:1537   */\n      dup1\n        /* \"#utility.yul\":1529:1541   */\n      revert\n        /* \"#utility.yul\":1553:1670   */\n    tag_317:\n        /* \"#utility.yul\":1662:1663   */\n      0x00\n        /* \"#utility.yul\":1659:1660   */\n      dup1\n        /* \"#utility.yul\":1652:1664   */\n      revert\n        /* \"#utility.yul\":1676:1802   */\n    tag_318:\n        /* \"#utility.yul\":1713:1720   */\n      0x00\n        /* \"#utility.yul\":1753:1795   */\n      0xffffffffffffffffffffffffffffffffffffffff\n        /* \"#utility.yul\":1746:1751   */\n      dup3\n        /* \"#utility.yul\":1742:1796   */\n      and\n        /* \"#utility.yul\":1731:1796   */\n      swap1\n      pop\n        /* \"#utility.yul\":1676:1802   */\n      swap2\n      swap1\n      pop\n      jump\t// out\n        /* \"#utility.yul\":1808:1904   */\n    tag_319:\n        /* \"#utility.yul\":1845:1852   */\n      0x00\n        /* \"#utility.yul\":1874:1898   */\n      tag_420\n        /* \"#utility.yul\":1892:1897   */\n      dup3\n        /* \"#utility.yul\":1874:1898   */\n      tag_318\n      jump\t// in\n    tag_420:\n        /* \"#utility.yul\":1863:1898   */\n      swap1\n      pop\n        /* \"#utility.yul\":1808:1904   */\n      swap2\n      swap1\n      pop\n      jump\t// out\n        /* \"#utility.yul\":1910:2032   */\n    tag_320:\n        /* \"#utility.yul\":1983:2007   */\n      tag_422\n        /* \"#utility.yul\":2001:2006   */\n      dup2\n        /* \"#utility.yul\":1983:2007   */\n      tag_319\n      jump\t// in\n    tag_422:\n        /* \"#utility.yul\":1976:1981   */\n      dup2\n        /* \"#utility.yul\":1973:2008   */\n      eq\n        /* \"#utility.yul\":1963:2026   */\n      tag_423\n      jumpi\n        /* \"#utility.yul\":2022:2023   */\n      0x00\n        /* \"#utility.yul\":2019:2020   */\n      dup1\n        /* \"#utility.yul\":2012:2024   */\n      revert\n        /* \"#utility.yul\":1963:2026   */\n    tag_423:\n        /* \"#utility.yul\":1910:2032   */\n      pop\n      jump\t// out\n        /* \"#utility.yul\":2038:2177   */\n    tag_321:\n        /* \"#utility.yul\":2084:2089   */\n      0x00\n        /* \"#utility.yul\":2122:2128   */\n      dup2\n        /* \"#utility.yul\":2109:2129   */\n      calldataload\n        /* \"#utility.yul\":2100:2129   */\n      swap1\n      pop\n        /* \"#utility.yul\":2138:2171   */\n      tag_425\n        /* \"#utility.yul\":2165:2170   */\n      dup2\n        /* \"#utility.yul\":2138:2171   */\n      tag_320\n      jump\t// in\n    tag_425:\n        /* \"#utility.yul\":2038:2177   */\n      swap3\n      swap2\n      pop\n      pop\n      jump\t// out\n        /* \"#utility.yul\":2183:2260   */\n    tag_322:\n        /* \"#utility.yul\":2220:2227   */\n      0x00\n        /* \"#utility.yul\":2249:2254   */\n      dup2\n        /* \"#utility.yul\":2238:2254   */\n      swap1\n      pop\n        /* \"#utility.yul\":2183:2260   */\n      swap2\n      swap1\n      pop\n      jump\t// out\n        /* \"#utility.yul\":2266:2388   */\n    tag_323:\n        /* \"#utility.yul\":2339:2363   */\n      tag_428\n        /* \"#utility.yul\":2357:2362   */\n      dup2\n        /* \"#utility.yul\":2339:2363   */\n      tag_322\n      jump\t// in\n    tag_428:\n        /* \"#utility.yul\":2332:2337   */\n      dup2\n        /* \"#utility.yul\":2329:2364   */\n      eq\n        /* \"#utility.yul\":2319:2382   */\n      tag_429\n      jumpi\n        /* \"#utility.yul\":2378:2379   */\n      0x00\n        /* \"#utility.yul\":2375:2376   */\n      dup1\n        /* \"#utility.yul\":2368:2380   */\n      revert\n        /* \"#utility.yul\":2319:2382   */\n    tag_429:\n        /* \"#utility.yul\":2266:2388   */\n      pop\n      jump\t// out\n        /* \"#utility.yul\":2394:2533   */\n    tag_324:\n        /* \"#utility.yul\":2440:2445   */\n      0x00\n        /* \"#utility.yul\":2478:2484   */\n      dup2\n        /* \"#utility.yul\":2465:2485   */\n      calldataload\n        /* \"#utility.yul\":2456:2485   */\n      swap1\n      pop\n        /* \"#utility.yul\":2494:2527   */\n      tag_431\n        /* \"#utility.yul\":2521:2526   */\n      dup2\n        /* \"#utility.yul\":2494:2527   */\n      tag_323\n      jump\t// in\n    tag_431:\n        /* \"#utility.yul\":2394:2533   */\n      swap3\n      swap2\n      pop\n      pop\n      jump\t// out\n        /* \"#utility.yul\":2539:3013   */\n    tag_33:\n        /* \"#utility.yul\":2607:2613   */\n      0x00\n        /* \"#utility.yul\":2615:2621   */\n      dup1\n        /* \"#utility.yul\":2664:2666   */\n      0x40\n        /* \"#utility.yul\":2652:2661   */\n      dup4\n        /* \"#utility.yul\":2643:2650   */\n      dup6\n        /* \"#utility.yul\":2639:2662   */\n      sub\n        /* \"#utility.yul\":2635:2667   */\n      slt\n        /* \"#utility.yul\":2632:2751   */\n      iszero\n      tag_433\n      jumpi\n        /* \"#utility.yul\":2670:2749   */\n      tag_434\n      tag_316\n      jump\t// in\n    tag_434:\n        /* \"#utility.yul\":2632:2751   */\n    tag_433:\n        /* \"#utility.yul\":2790:2791   */\n      0x00\n        /* \"#utility.yul\":2815:2868   */\n      tag_435\n        /* \"#utility.yul\":2860:2867   */\n      dup6\n        /* \"#utility.yul\":2851:2857   */\n      dup3\n        /* \"#utility.yul\":2840:2849   */\n      dup7\n        /* \"#utility.yul\":2836:2858   */\n      add\n        /* \"#utility.yul\":2815:2868   */\n      tag_321\n      jump\t// in\n    tag_435:\n        /* \"#utility.yul\":2805:2868   */\n      swap3\n      pop\n        /* \"#utility.yul\":2761:2878   */\n      pop\n        /* \"#utility.yul\":2917:2919   */\n      0x20\n        /* \"#utility.yul\":2943:2996   */\n      tag_436\n        /* \"#utility.yul\":2988:2995   */\n      dup6\n        /* \"#utility.yul\":2979:2985   */\n      dup3\n        /* \"#utility.yul\":2968:2977   */\n      dup7\n        /* \"#utility.yul\":2964:2986   */\n      add\n        /* \"#utility.yul\":2943:2996   */\n      tag_324\n      jump\t// in\n    tag_436:\n        /* \"#utility.yul\":2933:2996   */\n      swap2\n      pop\n        /* \"#utility.yul\":2888:3006   */\n      pop\n        /* \"#utility.yul\":2539:3013   */\n      swap3\n      pop\n      swap3\n      swap1\n      pop\n      jump\t// out\n        /* \"#utility.yul\":3019:3109   */\n    tag_325:\n        /* \"#utility.yul\":3053:3060   */\n      0x00\n        /* \"#utility.yul\":3096:3101   */\n      dup2\n        /* \"#utility.yul\":3089:3102   */\n      iszero\n        /* \"#utility.yul\":3082:3103   */\n      iszero\n        /* \"#utility.yul\":3071:3103   */\n      swap1\n      pop\n        /* \"#utility.yul\":3019:3109   */\n      swap2\n      swap1\n      pop\n      jump\t// out\n        /* \"#utility.yul\":3115:3224   */\n    tag_326:\n        /* \"#utility.yul\":3196:3217   */\n      tag_439\n        /* \"#utility.yul\":3211:3216   */\n      dup2\n        /* \"#utility.yul\":3196:3217   */\n      tag_325\n      jump\t// in\n    tag_439:\n        /* \"#utility.yul\":3191:3194   */\n      dup3\n        /* \"#utility.yul\":3184:3218   */\n      mstore\n        /* \"#utility.yul\":3115:3224   */\n      pop\n      pop\n      jump\t// out\n        /* \"#utility.yul\":3230:3440   */\n    tag_36:\n        /* \"#utility.yul\":3317:3321   */\n      0x00\n        /* \"#utility.yul\":3355:3357   */\n      0x20\n        /* \"#utility.yul\":3344:3353   */\n      dup3\n        /* \"#utility.yul\":3340:3358   */\n      add\n        /* \"#utility.yul\":3332:3358   */\n      swap1\n      pop\n        /* \"#utility.yul\":3368:3433   */\n      tag_441\n        /* \"#utility.yul\":3430:3431   */\n      0x00\n        /* \"#utility.yul\":3419:3428   */\n      dup4\n        /* \"#utility.yul\":3415:3432   */\n      add\n        /* \"#utility.yul\":3406:3412   */\n      dup5\n        /* \"#utility.yul\":3368:3433   */\n      tag_326\n      jump\t// in\n    tag_441:\n        /* \"#utility.yul\":3230:3440   */\n      swap3\n      swap2\n      pop\n      pop\n      jump\t// out\n        /* \"#utility.yul\":3446:3563   */\n    tag_327:\n        /* \"#utility.yul\":3555:3556   */\n      0x00\n        /* \"#utility.yul\":3552:3553   */\n      dup1\n        /* \"#utility.yul\":3545:3557   */\n      revert\n        /* \"#utility.yul\":3569:3686   */\n    tag_328:\n        /* \"#utility.yul\":3678:3679   */\n      0x00\n        /* \"#utility.yul\":3675:3676   */\n      dup1\n        /* \"#utility.yul\":3668:3680   */\n      revert\n        /* \"#utility.yul\":3692:3872   */\n    tag_242:\n        /* \"#utility.yul\":3740:3817   */\n      0x4e487b7100000000000000000000000000000000000000000000000000000000\n        /* \"#utility.yul\":3737:3738   */\n      0x00\n        /* \"#utility.yul\":3730:3818   */\n      mstore\n        /* \"#utility.yul\":3837:3841   */\n      0x41\n        /* \"#utility.yul\":3834:3835   */\n      0x04\n        /* \"#utility.yul\":3827:3842   */\n      mstore\n        /* \"#utility.yul\":3861:3865   */\n      0x24\n        /* \"#utility.yul\":3858:3859   */\n      0x00\n        /* \"#utility.yul\":3851:3866   */\n      revert\n        /* \"#utility.yul\":3878:4159   */\n    tag_329:\n        /* \"#utility.yul\":3961:3988   */\n      tag_446\n        /* \"#utility.yul\":3983:3987   */\n      dup3\n        /* \"#utility.yul\":3961:3988   */\n      tag_313\n      jump\t// in\n    tag_446:\n        /* \"#utility.yul\":3953:3959   */\n      dup2\n        /* \"#utility.yul\":3949:3989   */\n      add\n        /* \"#utility.yul\":4091:4097   */\n      dup2\n        /* \"#utility.yul\":4079:4089   */\n      dup2\n        /* \"#utility.yul\":4076:4098   */\n      lt\n        /* \"#utility.yul\":4055:4073   */\n      0xffffffffffffffff\n        /* \"#utility.yul\":4043:4053   */\n      dup3\n        /* \"#utility.yul\":4040:4074   */\n      gt\n        /* \"#utility.yul\":4037:4099   */\n      or\n        /* \"#utility.yul\":4034:4122   */\n      iszero\n      tag_447\n      jumpi\n        /* \"#utility.yul\":4102:4120   */\n      tag_448\n      tag_242\n      jump\t// in\n    tag_448:\n        /* \"#utility.yul\":4034:4122   */\n    tag_447:\n        /* \"#utility.yul\":4142:4152   */\n      dup1\n        /* \"#utility.yul\":4138:4140   */\n      0x40\n        /* \"#utility.yul\":4131:4153   */\n      mstore\n        /* \"#utility.yul\":3921:4159   */\n      pop\n        /* \"#utility.yul\":3878:4159   */\n      pop\n      pop\n      jump\t// out\n        /* \"#utility.yul\":4165:4294   */\n    tag_330:\n        /* \"#utility.yul\":4199:4205   */\n      0x00\n        /* \"#utility.yul\":4226:4246   */\n      tag_450\n      tag_315\n      jump\t// in\n    tag_450:\n        /* \"#utility.yul\":4216:4246   */\n      swap1\n      pop\n        /* \"#utility.yul\":4255:4288   */\n      tag_451\n        /* \"#utility.yul\":4283:4287   */\n      dup3\n        /* \"#utility.yul\":4275:4281   */\n      dup3\n        /* \"#utility.yul\":4255:4288   */\n      tag_329\n      jump\t// in\n    tag_451:\n        /* \"#utility.yul\":4165:4294   */\n      swap2\n      swap1\n      pop\n      jump\t// out\n        /* \"#utility.yul\":4300:4608   */\n    tag_331:\n        /* \"#utility.yul\":4362:4366   */\n      0x00\n        /* \"#utility.yul\":4452:4470   */\n      0xffffffffffffffff\n        /* \"#utility.yul\":4444:4450   */\n      dup3\n        /* \"#utility.yul\":4441:4471   */\n      gt\n        /* \"#utility.yul\":4438:4494   */\n      iszero\n      tag_453\n      jumpi\n        /* \"#utility.yul\":4474:4492   */\n      tag_454\n      tag_242\n      jump\t// in\n    tag_454:\n        /* \"#utility.yul\":4438:4494   */\n    tag_453:\n        /* \"#utility.yul\":4512:4541   */\n      tag_455\n        /* \"#utility.yul\":4534:4540   */\n      dup3\n        /* \"#utility.yul\":4512:4541   */\n      tag_313\n      jump\t// in\n    tag_455:\n        /* \"#utility.yul\":4504:4541   */\n      swap1\n      pop\n        /* \"#utility.yul\":4596:4600   */\n      0x20\n        /* \"#utility.yul\":4590:4594   */\n      dup2\n        /* \"#utility.yul\":4586:4601   */\n      add\n        /* \"#utility.yul\":4578:4601   */\n      swap1\n      pop\n        /* \"#utility.yul\":4300:4608   */\n      swap2\n      swap1\n      pop\n      jump\t// out\n        /* \"#utility.yul\":4614:4760   */\n    tag_332:\n        /* \"#utility.yul\":4711:4717   */\n      dup3\n        /* \"#utility.yul\":4706:4709   */\n      dup2\n        /* \"#utility.yul\":4701:4704   */\n      dup4\n        /* \"#utility.yul\":4688:4718   */\n      calldatacopy\n        /* \"#utility.yul\":4752:4753   */\n      0x00\n        /* \"#utility.yul\":4743:4749   */\n      dup4\n        /* \"#utility.yul\":4738:4741   */\n      dup4\n        /* \"#utility.yul\":4734:4750   */\n      add\n        /* \"#utility.yul\":4727:4754   */\n      mstore\n        /* \"#utility.yul\":4614:4760   */\n      pop\n      pop\n      pop\n      jump\t// out\n        /* \"#utility.yul\":4766:5191   */\n    tag_333:\n        /* \"#utility.yul\":4844:4849   */\n      0x00\n        /* \"#utility.yul\":4869:4935   */\n      tag_458\n        /* \"#utility.yul\":4885:4934   */\n      tag_459\n        /* \"#utility.yul\":4927:4933   */\n      dup5\n        /* \"#utility.yul\":4885:4934   */\n      tag_331\n      jump\t// in\n    tag_459:\n        /* \"#utility.yul\":4869:4935   */\n      tag_330\n      jump\t// in\n    tag_458:\n        /* \"#utility.yul\":4860:4935   */\n      swap1\n      pop\n        /* \"#utility.yul\":4958:4964   */\n      dup3\n        /* \"#utility.yul\":4951:4956   */\n      dup2\n        /* \"#utility.yul\":4944:4965   */\n      mstore\n        /* \"#utility.yul\":4996:5000   */\n      0x20\n        /* \"#utility.yul\":4989:4994   */\n      dup2\n        /* \"#utility.yul\":4985:5001   */\n      add\n        /* \"#utility.yul\":5034:5037   */\n      dup5\n        /* \"#utility.yul\":5025:5031   */\n      dup5\n        /* \"#utility.yul\":5020:5023   */\n      dup5\n        /* \"#utility.yul\":5016:5032   */\n      add\n        /* \"#utility.yul\":5013:5038   */\n      gt\n        /* \"#utility.yul\":5010:5122   */\n      iszero\n      tag_460\n      jumpi\n        /* \"#utility.yul\":5041:5120   */\n      tag_461\n      tag_328\n      jump\t// in\n    tag_461:\n        /* \"#utility.yul\":5010:5122   */\n    tag_460:\n        /* \"#utility.yul\":5131:5185   */\n      tag_462\n        /* \"#utility.yul\":5178:5184   */\n      dup5\n        /* \"#utility.yul\":5173:5176   */\n      dup3\n        /* \"#utility.yul\":5168:5171   */\n      dup6\n        /* \"#utility.yul\":5131:5185   */\n      tag_332\n      jump\t// in\n    tag_462:\n        /* \"#utility.yul\":4850:5191   */\n      pop\n        /* \"#utility.yul\":4766:5191   */\n      swap4\n      swap3\n      pop\n      pop\n      pop\n      jump\t// out\n        /* \"#utility.yul\":5211:5551   */\n    tag_334:\n        /* \"#utility.yul\":5267:5272   */\n      0x00\n        /* \"#utility.yul\":5316:5319   */\n      dup3\n        /* \"#utility.yul\":5309:5313   */\n      0x1f\n        /* \"#utility.yul\":5301:5307   */\n      dup4\n        /* \"#utility.yul\":5297:5314   */\n      add\n        /* \"#utility.yul\":5293:5320   */\n      slt\n        /* \"#utility.yul\":5283:5405   */\n      tag_464\n      jumpi\n        /* \"#utility.yul\":5324:5403   */\n      tag_465\n      tag_327\n      jump\t// in\n    tag_465:\n        /* \"#utility.yul\":5283:5405   */\n    tag_464:\n        /* \"#utility.yul\":5441:5447   */\n      dup2\n        /* \"#utility.yul\":5428:5448   */\n      calldataload\n        /* \"#utility.yul\":5466:5545   */\n      tag_466\n        /* \"#utility.yul\":5541:5544   */\n      dup5\n        /* \"#utility.yul\":5533:5539   */\n      dup3\n        /* \"#utility.yul\":5526:5530   */\n      0x20\n        /* \"#utility.yul\":5518:5524   */\n      dup7\n        /* \"#utility.yul\":5514:5531   */\n      add\n        /* \"#utility.yul\":5466:5545   */\n      tag_333\n      jump\t// in\n    tag_466:\n        /* \"#utility.yul\":5457:5545   */\n      swap2\n      pop\n        /* \"#utility.yul\":5273:5551   */\n      pop\n        /* \"#utility.yul\":5211:5551   */\n      swap3\n      swap2\n      pop\n      pop\n      jump\t// out\n        /* \"#utility.yul\":5557:5648   */\n    tag_335:\n        /* \"#utility.yul\":5593:5600   */\n      0x00\n        /* \"#utility.yul\":5633:5641   */\n      0xffffff\n        /* \"#utility.yul\":5626:5631   */\n      dup3\n        /* \"#utility.yul\":5622:5642   */\n      and\n        /* \"#utility.yul\":5611:5642   */\n      swap1\n      pop\n        /* \"#utility.yul\":5557:5648   */\n      swap2\n      swap1\n      pop\n      jump\t// out\n        /* \"#utility.yul\":5654:5774   */\n    tag_336:\n        /* \"#utility.yul\":5726:5749   */\n      tag_469\n        /* \"#utility.yul\":5743:5748   */\n      dup2\n        /* \"#utility.yul\":5726:5749   */\n      tag_335\n      jump\t// in\n    tag_469:\n        /* \"#utility.yul\":5719:5724   */\n      dup2\n        /* \"#utility.yul\":5716:5750   */\n      eq\n        /* \"#utility.yul\":5706:5768   */\n      tag_470\n      jumpi\n        /* \"#utility.yul\":5764:5765   */\n      0x00\n        /* \"#utility.yul\":5761:5762   */\n      dup1\n        /* \"#utility.yul\":5754:5766   */\n      revert\n        /* \"#utility.yul\":5706:5768   */\n    tag_470:\n        /* \"#utility.yul\":5654:5774   */\n      pop\n      jump\t// out\n        /* \"#utility.yul\":5780:5917   */\n    tag_337:\n        /* \"#utility.yul\":5825:5830   */\n      0x00\n        /* \"#utility.yul\":5863:5869   */\n      dup2\n        /* \"#utility.yul\":5850:5870   */\n      calldataload\n        /* \"#utility.yul\":5841:5870   */\n      swap1\n      pop\n        /* \"#utility.yul\":5879:5911   */\n      tag_472\n        /* \"#utility.yul\":5905:5910   */\n      dup2\n        /* \"#utility.yul\":5879:5911   */\n      tag_336\n      jump\t// in\n    tag_472:\n        /* \"#utility.yul\":5780:5917   */\n      swap3\n      swap2\n      pop\n      pop\n      jump\t// out\n        /* \"#utility.yul\":5923:6575   */\n    tag_39:\n        /* \"#utility.yul\":6000:6006   */\n      0x00\n        /* \"#utility.yul\":6008:6014   */\n      dup1\n        /* \"#utility.yul\":6057:6059   */\n      0x40\n        /* \"#utility.yul\":6045:6054   */\n      dup4\n        /* \"#utility.yul\":6036:6043   */\n      dup6\n        /* \"#utility.yul\":6032:6055   */\n      sub\n        /* \"#utility.yul\":6028:6060   */\n      slt\n        /* \"#utility.yul\":6025:6144   */\n      iszero\n      tag_474\n      jumpi\n        /* \"#utility.yul\":6063:6142   */\n      tag_475\n      tag_316\n      jump\t// in\n    tag_475:\n        /* \"#utility.yul\":6025:6144   */\n    tag_474:\n        /* \"#utility.yul\":6211:6212   */\n      0x00\n        /* \"#utility.yul\":6200:6209   */\n      dup4\n        /* \"#utility.yul\":6196:6213   */\n      add\n        /* \"#utility.yul\":6183:6214   */\n      calldataload\n        /* \"#utility.yul\":6241:6259   */\n      0xffffffffffffffff\n        /* \"#utility.yul\":6233:6239   */\n      dup2\n        /* \"#utility.yul\":6230:6260   */\n      gt\n        /* \"#utility.yul\":6227:6344   */\n      iszero\n      tag_476\n      jumpi\n        /* \"#utility.yul\":6263:6342   */\n      tag_477\n      tag_317\n      jump\t// in\n    tag_477:\n        /* \"#utility.yul\":6227:6344   */\n    tag_476:\n        /* \"#utility.yul\":6368:6431   */\n      tag_478\n        /* \"#utility.yul\":6423:6430   */\n      dup6\n        /* \"#utility.yul\":6414:6420   */\n      dup3\n        /* \"#utility.yul\":6403:6412   */\n      dup7\n        /* \"#utility.yul\":6399:6421   */\n      add\n        /* \"#utility.yul\":6368:6431   */\n      tag_334\n      jump\t// in\n    tag_478:\n        /* \"#utility.yul\":6358:6431   */\n      swap3\n      pop\n        /* \"#utility.yul\":6154:6441   */\n      pop\n        /* \"#utility.yul\":6480:6482   */\n      0x20\n        /* \"#utility.yul\":6506:6558   */\n      tag_479\n        /* \"#utility.yul\":6550:6557   */\n      dup6\n        /* \"#utility.yul\":6541:6547   */\n      dup3\n        /* \"#utility.yul\":6530:6539   */\n      dup7\n        /* \"#utility.yul\":6526:6548   */\n      add\n        /* \"#utility.yul\":6506:6558   */\n      tag_337\n      jump\t// in\n    tag_479:\n        /* \"#utility.yul\":6496:6558   */\n      swap2\n      pop\n        /* \"#utility.yul\":6451:6568   */\n      pop\n        /* \"#utility.yul\":5923:6575   */\n      swap3\n      pop\n      swap3\n      swap1\n      pop\n      jump\t// out\n        /* \"#utility.yul\":6581:6699   */\n    tag_338:\n        /* \"#utility.yul\":6668:6692   */\n      tag_481\n        /* \"#utility.yul\":6686:6691   */\n      dup2\n        /* \"#utility.yul\":6668:6692   */\n      tag_322\n      jump\t// in\n    tag_481:\n        /* \"#utility.yul\":6663:6666   */\n      dup3\n        /* \"#utility.yul\":6656:6693   */\n      mstore\n        /* \"#utility.yul\":6581:6699   */\n      pop\n      pop\n      jump\t// out\n        /* \"#utility.yul\":6705:6927   */\n    tag_42:\n        /* \"#utility.yul\":6798:6802   */\n      0x00\n        /* \"#utility.yul\":6836:6838   */\n      0x20\n        /* \"#utility.yul\":6825:6834   */\n      dup3\n        /* \"#utility.yul\":6821:6839   */\n      add\n        /* \"#utility.yul\":6813:6839   */\n      swap1\n      pop\n        /* \"#utility.yul\":6849:6920   */\n      tag_483\n        /* \"#utility.yul\":6917:6918   */\n      0x00\n        /* \"#utility.yul\":6906:6915   */\n      dup4\n        /* \"#utility.yul\":6902:6919   */\n      add\n        /* \"#utility.yul\":6893:6899   */\n      dup5\n        /* \"#utility.yul\":6849:6920   */\n      tag_338\n      jump\t// in\n    tag_483:\n        /* \"#utility.yul\":6705:6927   */\n      swap3\n      swap2\n      pop\n      pop\n      jump\t// out\n        /* \"#utility.yul\":6933:7040   */\n    tag_339:\n        /* \"#utility.yul\":7014:7015   */\n      0x03\n        /* \"#utility.yul\":7007:7012   */\n      dup2\n        /* \"#utility.yul\":7004:7016   */\n      lt\n        /* \"#utility.yul\":6994:7034   */\n      tag_485\n      jumpi\n        /* \"#utility.yul\":7030:7031   */\n      0x00\n        /* \"#utility.yul\":7027:7028   */\n      dup1\n        /* \"#utility.yul\":7020:7032   */\n      revert\n        /* \"#utility.yul\":6994:7034   */\n    tag_485:\n        /* \"#utility.yul\":6933:7040   */\n      pop\n      jump\t// out\n        /* \"#utility.yul\":7046:7201   */\n    tag_340:\n        /* \"#utility.yul\":7100:7105   */\n      0x00\n        /* \"#utility.yul\":7138:7144   */\n      dup2\n        /* \"#utility.yul\":7125:7145   */\n      calldataload\n        /* \"#utility.yul\":7116:7145   */\n      swap1\n      pop\n        /* \"#utility.yul\":7154:7195   */\n      tag_487\n        /* \"#utility.yul\":7189:7194   */\n      dup2\n        /* \"#utility.yul\":7154:7195   */\n      tag_339\n      jump\t// in\n    tag_487:\n        /* \"#utility.yul\":7046:7201   */\n      swap3\n      swap2\n      pop\n      pop\n      jump\t// out\n        /* \"#utility.yul\":7207:7695   */\n    tag_48:\n        /* \"#utility.yul\":7282:7288   */\n      0x00\n        /* \"#utility.yul\":7290:7296   */\n      dup1\n        /* \"#utility.yul\":7339:7341   */\n      0x40\n        /* \"#utility.yul\":7327:7336   */\n      dup4\n        /* \"#utility.yul\":7318:7325   */\n      dup6\n        /* \"#utility.yul\":7314:7337   */\n      sub\n        /* \"#utility.yul\":7310:7342   */\n      slt\n        /* \"#utility.yul\":7307:7426   */\n      iszero\n      tag_489\n      jumpi\n        /* \"#utility.yul\":7345:7424   */\n      tag_490\n      tag_316\n      jump\t// in\n    tag_490:\n        /* \"#utility.yul\":7307:7426   */\n    tag_489:\n        /* \"#utility.yul\":7465:7466   */\n      0x00\n        /* \"#utility.yul\":7490:7542   */\n      tag_491\n        /* \"#utility.yul\":7534:7541   */\n      dup6\n        /* \"#utility.yul\":7525:7531   */\n      dup3\n        /* \"#utility.yul\":7514:7523   */\n      dup7\n        /* \"#utility.yul\":7510:7532   */\n      add\n        /* \"#utility.yul\":7490:7542   */\n      tag_337\n      jump\t// in\n    tag_491:\n        /* \"#utility.yul\":7480:7542   */\n      swap3\n      pop\n        /* \"#utility.yul\":7436:7552   */\n      pop\n        /* \"#utility.yul\":7591:7593   */\n      0x20\n        /* \"#utility.yul\":7617:7678   */\n      tag_492\n        /* \"#utility.yul\":7670:7677   */\n      dup6\n        /* \"#utility.yul\":7661:7667   */\n      dup3\n        /* \"#utility.yul\":7650:7659   */\n      dup7\n        /* \"#utility.yul\":7646:7668   */\n      add\n        /* \"#utility.yul\":7617:7678   */\n      tag_340\n      jump\t// in\n    tag_492:\n        /* \"#utility.yul\":7607:7678   */\n      swap2\n      pop\n        /* \"#utility.yul\":7562:7688   */\n      pop\n        /* \"#utility.yul\":7207:7695   */\n      swap3\n      pop\n      swap3\n      swap1\n      pop\n      jump\t// out\n        /* \"#utility.yul\":7701:8320   */\n    tag_52:\n        /* \"#utility.yul\":7778:7784   */\n      0x00\n        /* \"#utility.yul\":7786:7792   */\n      dup1\n        /* \"#utility.yul\":7794:7800   */\n      0x00\n        /* \"#utility.yul\":7843:7845   */\n      0x60\n        /* \"#utility.yul\":7831:7840   */\n      dup5\n        /* \"#utility.yul\":7822:7829   */\n      dup7\n        /* \"#utility.yul\":7818:7841   */\n      sub\n        /* \"#utility.yul\":7814:7846   */\n      slt\n        /* \"#utility.yul\":7811:7930   */\n      iszero\n      tag_494\n      jumpi\n        /* \"#utility.yul\":7849:7928   */\n      tag_495\n      tag_316\n      jump\t// in\n    tag_495:\n        /* \"#utility.yul\":7811:7930   */\n    tag_494:\n        /* \"#utility.yul\":7969:7970   */\n      0x00\n        /* \"#utility.yul\":7994:8047   */\n      tag_496\n        /* \"#utility.yul\":8039:8046   */\n      dup7\n        /* \"#utility.yul\":8030:8036   */\n      dup3\n        /* \"#utility.yul\":8019:8028   */\n      dup8\n        /* \"#utility.yul\":8015:8037   */\n      add\n        /* \"#utility.yul\":7994:8047   */\n      tag_321\n      jump\t// in\n    tag_496:\n        /* \"#utility.yul\":7984:8047   */\n      swap4\n      pop\n        /* \"#utility.yul\":7940:8057   */\n      pop\n        /* \"#utility.yul\":8096:8098   */\n      0x20\n        /* \"#utility.yul\":8122:8175   */\n      tag_497\n        /* \"#utility.yul\":8167:8174   */\n      dup7\n        /* \"#utility.yul\":8158:8164   */\n      dup3\n        /* \"#utility.yul\":8147:8156   */\n      dup8\n        /* \"#utility.yul\":8143:8165   */\n      add\n        /* \"#utility.yul\":8122:8175   */\n      tag_321\n      jump\t// in\n    tag_497:\n        /* \"#utility.yul\":8112:8175   */\n      swap3\n      pop\n        /* \"#utility.yul\":8067:8185   */\n      pop\n        /* \"#utility.yul\":8224:8226   */\n      0x40\n        /* \"#utility.yul\":8250:8303   */\n      tag_498\n        /* \"#utility.yul\":8295:8302   */\n      dup7\n        /* \"#utility.yul\":8286:8292   */\n      dup3\n        /* \"#utility.yul\":8275:8284   */\n      dup8\n        /* \"#utility.yul\":8271:8293   */\n      add\n        /* \"#utility.yul\":8250:8303   */\n      tag_324\n      jump\t// in\n    tag_498:\n        /* \"#utility.yul\":8240:8303   */\n      swap2\n      pop\n        /* \"#utility.yul\":8195:8313   */\n      pop\n        /* \"#utility.yul\":7701:8320   */\n      swap3\n      pop\n      swap3\n      pop\n      swap3\n      jump\t// out\n        /* \"#utility.yul\":8326:8655   */\n    tag_57:\n        /* \"#utility.yul\":8385:8391   */\n      0x00\n        /* \"#utility.yul\":8434:8436   */\n      0x20\n        /* \"#utility.yul\":8422:8431   */\n      dup3\n        /* \"#utility.yul\":8413:8420   */\n      dup5\n        /* \"#utility.yul\":8409:8432   */\n      sub\n        /* \"#utility.yul\":8405:8437   */\n      slt\n        /* \"#utility.yul\":8402:8521   */\n      iszero\n      tag_500\n      jumpi\n        /* \"#utility.yul\":8440:8519   */\n      tag_501\n      tag_316\n      jump\t// in\n    tag_501:\n        /* \"#utility.yul\":8402:8521   */\n    tag_500:\n        /* \"#utility.yul\":8560:8561   */\n      0x00\n        /* \"#utility.yul\":8585:8638   */\n      tag_502\n        /* \"#utility.yul\":8630:8637   */\n      dup5\n        /* \"#utility.yul\":8621:8627   */\n      dup3\n        /* \"#utility.yul\":8610:8619   */\n      dup6\n        /* \"#utility.yul\":8606:8628   */\n      add\n        /* \"#utility.yul\":8585:8638   */\n      tag_321\n      jump\t// in\n    tag_502:\n        /* \"#utility.yul\":8575:8638   */\n      swap2\n      pop\n        /* \"#utility.yul\":8531:8648   */\n      pop\n        /* \"#utility.yul\":8326:8655   */\n      swap3\n      swap2\n      pop\n      pop\n      jump\t// out\n        /* \"#utility.yul\":8661:8776   */\n    tag_341:\n        /* \"#utility.yul\":8746:8769   */\n      tag_504\n        /* \"#utility.yul\":8763:8768   */\n      dup2\n        /* \"#utility.yul\":8746:8769   */\n      tag_335\n      jump\t// in\n    tag_504:\n        /* \"#utility.yul\":8741:8744   */\n      dup3\n        /* \"#utility.yul\":8734:8770   */\n      mstore\n        /* \"#utility.yul\":8661:8776   */\n      pop\n      pop\n      jump\t// out\n        /* \"#utility.yul\":8782:9000   */\n    tag_60:\n        /* \"#utility.yul\":8873:8877   */\n      0x00\n        /* \"#utility.yul\":8911:8913   */\n      0x20\n        /* \"#utility.yul\":8900:8909   */\n      dup3\n        /* \"#utility.yul\":8896:8914   */\n      add\n        /* \"#utility.yul\":8888:8914   */\n      swap1\n      pop\n        /* \"#utility.yul\":8924:8993   */\n      tag_506\n        /* \"#utility.yul\":8990:8991   */\n      0x00\n        /* \"#utility.yul\":8979:8988   */\n      dup4\n        /* \"#utility.yul\":8975:8992   */\n      add\n        /* \"#utility.yul\":8966:8972   */\n      dup5\n        /* \"#utility.yul\":8924:8993   */\n      tag_341\n      jump\t// in\n    tag_506:\n        /* \"#utility.yul\":8782:9000   */\n      swap3\n      swap2\n      pop\n      pop\n      jump\t// out\n        /* \"#utility.yul\":9006:9092   */\n    tag_342:\n        /* \"#utility.yul\":9041:9048   */\n      0x00\n        /* \"#utility.yul\":9081:9085   */\n      0xff\n        /* \"#utility.yul\":9074:9079   */\n      dup3\n        /* \"#utility.yul\":9070:9086   */\n      and\n        /* \"#utility.yul\":9059:9086   */\n      swap1\n      pop\n        /* \"#utility.yul\":9006:9092   */\n      swap2\n      swap1\n      pop\n      jump\t// out\n        /* \"#utility.yul\":9098:9210   */\n    tag_343:\n        /* \"#utility.yul\":9181:9203   */\n      tag_509\n        /* \"#utility.yul\":9197:9202   */\n      dup2\n        /* \"#utility.yul\":9181:9203   */\n      tag_342\n      jump\t// in\n    tag_509:\n        /* \"#utility.yul\":9176:9179   */\n      dup3\n        /* \"#utility.yul\":9169:9204   */\n      mstore\n        /* \"#utility.yul\":9098:9210   */\n      pop\n      pop\n      jump\t// out\n        /* \"#utility.yul\":9216:9430   */\n    tag_64:\n        /* \"#utility.yul\":9305:9309   */\n      0x00\n        /* \"#utility.yul\":9343:9345   */\n      0x20\n        /* \"#utility.yul\":9332:9341   */\n      dup3\n        /* \"#utility.yul\":9328:9346   */\n      add\n        /* \"#utility.yul\":9320:9346   */\n      swap1\n      pop\n        /* \"#utility.yul\":9356:9423   */\n      tag_511\n        /* \"#utility.yul\":9420:9421   */\n      0x00\n        /* \"#utility.yul\":9409:9418   */\n      dup4\n        /* \"#utility.yul\":9405:9422   */\n      add\n        /* \"#utility.yul\":9396:9402   */\n      dup5\n        /* \"#utility.yul\":9356:9423   */\n      tag_343\n      jump\t// in\n    tag_511:\n        /* \"#utility.yul\":9216:9430   */\n      swap3\n      swap2\n      pop\n      pop\n      jump\t// out\n        /* \"#utility.yul\":9436:9554   */\n    tag_344:\n        /* \"#utility.yul\":9523:9547   */\n      tag_513\n        /* \"#utility.yul\":9541:9546   */\n      dup2\n        /* \"#utility.yul\":9523:9547   */\n      tag_319\n      jump\t// in\n    tag_513:\n        /* \"#utility.yul\":9518:9521   */\n      dup3\n        /* \"#utility.yul\":9511:9548   */\n      mstore\n        /* \"#utility.yul\":9436:9554   */\n      pop\n      pop\n      jump\t// out\n        /* \"#utility.yul\":9560:9782   */\n    tag_85:\n        /* \"#utility.yul\":9653:9657   */\n      0x00\n        /* \"#utility.yul\":9691:9693   */\n      0x20\n        /* \"#utility.yul\":9680:9689   */\n      dup3\n        /* \"#utility.yul\":9676:9694   */\n      add\n        /* \"#utility.yul\":9668:9694   */\n      swap1\n      pop\n        /* \"#utility.yul\":9704:9775   */\n      tag_515\n        /* \"#utility.yul\":9772:9773   */\n      0x00\n        /* \"#utility.yul\":9761:9770   */\n      dup4\n        /* \"#utility.yul\":9757:9774   */\n      add\n        /* \"#utility.yul\":9748:9754   */\n      dup5\n        /* \"#utility.yul\":9704:9775   */\n      tag_344\n      jump\t// in\n    tag_515:\n        /* \"#utility.yul\":9560:9782   */\n      swap3\n      swap2\n      pop\n      pop\n      jump\t// out\n        /* \"#utility.yul\":9788:10262   */\n    tag_105:\n        /* \"#utility.yul\":9856:9862   */\n      0x00\n        /* \"#utility.yul\":9864:9870   */\n      dup1\n        /* \"#utility.yul\":9913:9915   */\n      0x40\n        /* \"#utility.yul\":9901:9910   */\n      dup4\n        /* \"#utility.yul\":9892:9899   */\n      dup6\n        /* \"#utility.yul\":9888:9911   */\n      sub\n        /* \"#utility.yul\":9884:9916   */\n      slt\n        /* \"#utility.yul\":9881:10000   */\n      iszero\n      tag_517\n      jumpi\n        /* \"#utility.yul\":9919:9998   */\n      tag_518\n      tag_316\n      jump\t// in\n    tag_518:\n        /* \"#utility.yul\":9881:10000   */\n    tag_517:\n        /* \"#utility.yul\":10039:10040   */\n      0x00\n        /* \"#utility.yul\":10064:10117   */\n      tag_519\n        /* \"#utility.yul\":10109:10116   */\n      dup6\n        /* \"#utility.yul\":10100:10106   */\n      dup3\n        /* \"#utility.yul\":10089:10098   */\n      dup7\n        /* \"#utility.yul\":10085:10107   */\n      add\n        /* \"#utility.yul\":10064:10117   */\n      tag_321\n      jump\t// in\n    tag_519:\n        /* \"#utility.yul\":10054:10117   */\n      swap3\n      pop\n        /* \"#utility.yul\":10010:10127   */\n      pop\n        /* \"#utility.yul\":10166:10168   */\n      0x20\n        /* \"#utility.yul\":10192:10245   */\n      tag_520\n        /* \"#utility.yul\":10237:10244   */\n      dup6\n        /* \"#utility.yul\":10228:10234   */\n      dup3\n        /* \"#utility.yul\":10217:10226   */\n      dup7\n        /* \"#utility.yul\":10213:10235   */\n      add\n        /* \"#utility.yul\":10192:10245   */\n      tag_321\n      jump\t// in\n    tag_520:\n        /* \"#utility.yul\":10182:10245   */\n      swap2\n      pop\n        /* \"#utility.yul\":10137:10255   */\n      pop\n        /* \"#utility.yul\":9788:10262   */\n      swap3\n      pop\n      swap3\n      swap1\n      pop\n      jump\t// out\n        /* \"#utility.yul\":10268:10595   */\n    tag_110:\n        /* \"#utility.yul\":10326:10332   */\n      0x00\n        /* \"#utility.yul\":10375:10377   */\n      0x20\n        /* \"#utility.yul\":10363:10372   */\n      dup3\n        /* \"#utility.yul\":10354:10361   */\n      dup5\n        /* \"#utility.yul\":10350:10373   */\n      sub\n        /* \"#utility.yul\":10346:10378   */\n      slt\n        /* \"#utility.yul\":10343:10462   */\n      iszero\n      tag_522\n      jumpi\n        /* \"#utility.yul\":10381:10460   */\n      tag_523\n      tag_316\n      jump\t// in\n    tag_523:\n        /* \"#utility.yul\":10343:10462   */\n    tag_522:\n        /* \"#utility.yul\":10501:10502   */\n      0x00\n        /* \"#utility.yul\":10526:10578   */\n      tag_524\n        /* \"#utility.yul\":10570:10577   */\n      dup5\n        /* \"#utility.yul\":10561:10567   */\n      dup3\n        /* \"#utility.yul\":10550:10559   */\n      dup6\n        /* \"#utility.yul\":10546:10568   */\n      add\n        /* \"#utility.yul\":10526:10578   */\n      tag_337\n      jump\t// in\n    tag_524:\n        /* \"#utility.yul\":10516:10578   */\n      swap2\n      pop\n        /* \"#utility.yul\":10472:10588   */\n      pop\n        /* \"#utility.yul\":10268:10595   */\n      swap3\n      swap2\n      pop\n      pop\n      jump\t// out\n        /* \"#utility.yul\":10601:10715   */\n    tag_345:\n        /* \"#utility.yul\":10668:10674   */\n      0x00\n        /* \"#utility.yul\":10702:10707   */\n      dup2\n        /* \"#utility.yul\":10696:10708   */\n      mload\n        /* \"#utility.yul\":10686:10708   */\n      swap1\n      pop\n        /* \"#utility.yul\":10601:10715   */\n      swap2\n      swap1\n      pop\n      jump\t// out\n        /* \"#utility.yul\":10721:10895   */\n    tag_346:\n        /* \"#utility.yul\":10810:10821   */\n      0x00\n        /* \"#utility.yul\":10844:10850   */\n      dup3\n        /* \"#utility.yul\":10839:10842   */\n      dup3\n        /* \"#utility.yul\":10832:10851   */\n      mstore\n        /* \"#utility.yul\":10884:10888   */\n      0x20\n        /* \"#utility.yul\":10879:10882   */\n      dup3\n        /* \"#utility.yul\":10875:10889   */\n      add\n        /* \"#utility.yul\":10860:10889   */\n      swap1\n      pop\n        /* \"#utility.yul\":10721:10895   */\n      swap3\n      swap2\n      pop\n      pop\n      jump\t// out\n        /* \"#utility.yul\":10901:11033   */\n    tag_347:\n        /* \"#utility.yul\":10968:10972   */\n      0x00\n        /* \"#utility.yul\":10991:10994   */\n      dup2\n        /* \"#utility.yul\":10983:10994   */\n      swap1\n      pop\n        /* \"#utility.yul\":11021:11025   */\n      0x20\n        /* \"#utility.yul\":11016:11019   */\n      dup3\n        /* \"#utility.yul\":11012:11026   */\n      add\n        /* \"#utility.yul\":11004:11026   */\n      swap1\n      pop\n        /* \"#utility.yul\":10901:11033   */\n      swap2\n      swap1\n      pop\n      jump\t// out\n        /* \"#utility.yul\":11039:11147   */\n    tag_348:\n        /* \"#utility.yul\":11116:11140   */\n      tag_529\n        /* \"#utility.yul\":11134:11139   */\n      dup2\n        /* \"#utility.yul\":11116:11140   */\n      tag_319\n      jump\t// in\n    tag_529:\n        /* \"#utility.yul\":11111:11114   */\n      dup3\n        /* \"#utility.yul\":11104:11141   */\n      mstore\n        /* \"#utility.yul\":11039:11147   */\n      pop\n      pop\n      jump\t// out\n        /* \"#utility.yul\":11153:11332   */\n    tag_349:\n        /* \"#utility.yul\":11222:11232   */\n      0x00\n        /* \"#utility.yul\":11243:11289   */\n      tag_531\n        /* \"#utility.yul\":11285:11288   */\n      dup4\n        /* \"#utility.yul\":11277:11283   */\n      dup4\n        /* \"#utility.yul\":11243:11289   */\n      tag_348\n      jump\t// in\n    tag_531:\n        /* \"#utility.yul\":11321:11325   */\n      0x20\n        /* \"#utility.yul\":11316:11319   */\n      dup4\n        /* \"#utility.yul\":11312:11326   */\n      add\n        /* \"#utility.yul\":11298:11326   */\n      swap1\n      pop\n        /* \"#utility.yul\":11153:11332   */\n      swap3\n      swap2\n      pop\n      pop\n      jump\t// out\n        /* \"#utility.yul\":11338:11451   */\n    tag_350:\n        /* \"#utility.yul\":11408:11412   */\n      0x00\n        /* \"#utility.yul\":11440:11444   */\n      0x20\n        /* \"#utility.yul\":11435:11438   */\n      dup3\n        /* \"#utility.yul\":11431:11445   */\n      add\n        /* \"#utility.yul\":11423:11445   */\n      swap1\n      pop\n        /* \"#utility.yul\":11338:11451   */\n      swap2\n      swap1\n      pop\n      jump\t// out\n        /* \"#utility.yul\":11487:12199   */\n    tag_351:\n        /* \"#utility.yul\":11596:11599   */\n      0x00\n        /* \"#utility.yul\":11625:11679   */\n      tag_534\n        /* \"#utility.yul\":11673:11678   */\n      dup3\n        /* \"#utility.yul\":11625:11679   */\n      tag_345\n      jump\t// in\n    tag_534:\n        /* \"#utility.yul\":11695:11771   */\n      tag_535\n        /* \"#utility.yul\":11764:11770   */\n      dup2\n        /* \"#utility.yul\":11759:11762   */\n      dup6\n        /* \"#utility.yul\":11695:11771   */\n      tag_346\n      jump\t// in\n    tag_535:\n        /* \"#utility.yul\":11688:11771   */\n      swap4\n      pop\n        /* \"#utility.yul\":11795:11851   */\n      tag_536\n        /* \"#utility.yul\":11845:11850   */\n      dup4\n        /* \"#utility.yul\":11795:11851   */\n      tag_347\n      jump\t// in\n    tag_536:\n        /* \"#utility.yul\":11874:11881   */\n      dup1\n        /* \"#utility.yul\":11905:11906   */\n      0x00\n        /* \"#utility.yul\":11890:12174   */\n    tag_537:\n        /* \"#utility.yul\":11915:11921   */\n      dup4\n        /* \"#utility.yul\":11912:11913   */\n      dup2\n        /* \"#utility.yul\":11909:11922   */\n      lt\n        /* \"#utility.yul\":11890:12174   */\n      iszero\n      tag_539\n      jumpi\n        /* \"#utility.yul\":11991:11997   */\n      dup2\n        /* \"#utility.yul\":11985:11998   */\n      mload\n        /* \"#utility.yul\":12018:12081   */\n      tag_540\n        /* \"#utility.yul\":12077:12080   */\n      dup9\n        /* \"#utility.yul\":12062:12075   */\n      dup3\n        /* \"#utility.yul\":12018:12081   */\n      tag_349\n      jump\t// in\n    tag_540:\n        /* \"#utility.yul\":12011:12081   */\n      swap8\n      pop\n        /* \"#utility.yul\":12104:12164   */\n      tag_541\n        /* \"#utility.yul\":12157:12163   */\n      dup4\n        /* \"#utility.yul\":12104:12164   */\n      tag_350\n      jump\t// in\n    tag_541:\n        /* \"#utility.yul\":12094:12164   */\n      swap3\n      pop\n        /* \"#utility.yul\":11950:12174   */\n      pop\n        /* \"#utility.yul\":11937:11938   */\n      0x01\n        /* \"#utility.yul\":11934:11935   */\n      dup2\n        /* \"#utility.yul\":11930:11939   */\n      add\n        /* \"#utility.yul\":11925:11939   */\n      swap1\n      pop\n        /* \"#utility.yul\":11890:12174   */\n      jump(tag_537)\n    tag_539:\n        /* \"#utility.yul\":11894:11908   */\n      pop\n        /* \"#utility.yul\":12190:12193   */\n      dup6\n        /* \"#utility.yul\":12183:12193   */\n      swap4\n      pop\n        /* \"#utility.yul\":11601:12199   */\n      pop\n      pop\n      pop\n        /* \"#utility.yul\":11487:12199   */\n      swap3\n      swap2\n      pop\n      pop\n      jump\t// out\n        /* \"#utility.yul\":12205:12364   */\n    tag_352:\n        /* \"#utility.yul\":12279:12290   */\n      0x00\n        /* \"#utility.yul\":12313:12319   */\n      dup3\n        /* \"#utility.yul\":12308:12311   */\n      dup3\n        /* \"#utility.yul\":12301:12320   */\n      mstore\n        /* \"#utility.yul\":12353:12357   */\n      0x20\n        /* \"#utility.yul\":12348:12351   */\n      dup3\n        /* \"#utility.yul\":12344:12358   */\n      add\n        /* \"#utility.yul\":12329:12358   */\n      swap1\n      pop\n        /* \"#utility.yul\":12205:12364   */\n      swap3\n      swap2\n      pop\n      pop\n      jump\t// out\n        /* \"#utility.yul\":12370:12727   */\n    tag_353:\n        /* \"#utility.yul\":12448:12451   */\n      0x00\n        /* \"#utility.yul\":12476:12515   */\n      tag_544\n        /* \"#utility.yul\":12509:12514   */\n      dup3\n        /* \"#utility.yul\":12476:12515   */\n      tag_310\n      jump\t// in\n    tag_544:\n        /* \"#utility.yul\":12531:12592   */\n      tag_545\n        /* \"#utility.yul\":12585:12591   */\n      dup2\n        /* \"#utility.yul\":12580:12583   */\n      dup6\n        /* \"#utility.yul\":12531:12592   */\n      tag_352\n      jump\t// in\n    tag_545:\n        /* \"#utility.yul\":12524:12592   */\n      swap4\n      pop\n        /* \"#utility.yul\":12601:12666   */\n      tag_546\n        /* \"#utility.yul\":12659:12665   */\n      dup2\n        /* \"#utility.yul\":12654:12657   */\n      dup6\n        /* \"#utility.yul\":12647:12651   */\n      0x20\n        /* \"#utility.yul\":12640:12645   */\n      dup7\n        /* \"#utility.yul\":12636:12652   */\n      add\n        /* \"#utility.yul\":12601:12666   */\n      tag_312\n      jump\t// in\n    tag_546:\n        /* \"#utility.yul\":12691:12720   */\n      tag_547\n        /* \"#utility.yul\":12713:12719   */\n      dup2\n        /* \"#utility.yul\":12691:12720   */\n      tag_313\n      jump\t// in\n    tag_547:\n        /* \"#utility.yul\":12686:12689   */\n      dup5\n        /* \"#utility.yul\":12682:12721   */\n      add\n        /* \"#utility.yul\":12675:12721   */\n      swap2\n      pop\n        /* \"#utility.yul\":12452:12727   */\n      pop\n        /* \"#utility.yul\":12370:12727   */\n      swap3\n      swap2\n      pop\n      pop\n      jump\t// out\n        /* \"#utility.yul\":12733:12838   */\n    tag_354:\n        /* \"#utility.yul\":12808:12831   */\n      tag_549\n        /* \"#utility.yul\":12825:12830   */\n      dup2\n        /* \"#utility.yul\":12808:12831   */\n      tag_335\n      jump\t// in\n    tag_549:\n        /* \"#utility.yul\":12803:12806   */\n      dup3\n        /* \"#utility.yul\":12796:12832   */\n      mstore\n        /* \"#utility.yul\":12733:12838   */\n      pop\n      pop\n      jump\t// out\n        /* \"#utility.yul\":12844:12943   */\n    tag_355:\n        /* \"#utility.yul\":12915:12936   */\n      tag_551\n        /* \"#utility.yul\":12930:12935   */\n      dup2\n        /* \"#utility.yul\":12915:12936   */\n      tag_325\n      jump\t// in\n    tag_551:\n        /* \"#utility.yul\":12910:12913   */\n      dup3\n        /* \"#utility.yul\":12903:12937   */\n      mstore\n        /* \"#utility.yul\":12844:12943   */\n      pop\n      pop\n      jump\t// out\n        /* \"#utility.yul\":12993:14941   */\n    tag_356:\n        /* \"#utility.yul\":13112:13115   */\n      0x00\n        /* \"#utility.yul\":13148:13154   */\n      0x0120\n        /* \"#utility.yul\":13143:13146   */\n      dup4\n        /* \"#utility.yul\":13139:13155   */\n      add\n        /* \"#utility.yul\":13239:13243   */\n      0x00\n        /* \"#utility.yul\":13232:13237   */\n      dup4\n        /* \"#utility.yul\":13228:13244   */\n      add\n        /* \"#utility.yul\":13222:13245   */\n      mload\n        /* \"#utility.yul\":13292:13295   */\n      dup5\n        /* \"#utility.yul\":13286:13290   */\n      dup3\n        /* \"#utility.yul\":13282:13296   */\n      sub\n        /* \"#utility.yul\":13275:13279   */\n      0x00\n        /* \"#utility.yul\":13270:13273   */\n      dup7\n        /* \"#utility.yul\":13266:13280   */\n      add\n        /* \"#utility.yul\":13259:13297   */\n      mstore\n        /* \"#utility.yul\":13318:13421   */\n      tag_553\n        /* \"#utility.yul\":13416:13420   */\n      dup3\n        /* \"#utility.yul\":13402:13414   */\n      dup3\n        /* \"#utility.yul\":13318:13421   */\n      tag_351\n      jump\t// in\n    tag_553:\n        /* \"#utility.yul\":13310:13421   */\n      swap2\n      pop\n        /* \"#utility.yul\":13165:13432   */\n      pop\n        /* \"#utility.yul\":13519:13523   */\n      0x20\n        /* \"#utility.yul\":13512:13517   */\n      dup4\n        /* \"#utility.yul\":13508:13524   */\n      add\n        /* \"#utility.yul\":13502:13525   */\n      mload\n        /* \"#utility.yul\":13572:13575   */\n      dup5\n        /* \"#utility.yul\":13566:13570   */\n      dup3\n        /* \"#utility.yul\":13562:13576   */\n      sub\n        /* \"#utility.yul\":13555:13559   */\n      0x20\n        /* \"#utility.yul\":13550:13553   */\n      dup7\n        /* \"#utility.yul\":13546:13560   */\n      add\n        /* \"#utility.yul\":13539:13577   */\n      mstore\n        /* \"#utility.yul\":13598:13671   */\n      tag_554\n        /* \"#utility.yul\":13666:13670   */\n      dup3\n        /* \"#utility.yul\":13652:13664   */\n      dup3\n        /* \"#utility.yul\":13598:13671   */\n      tag_353\n      jump\t// in\n    tag_554:\n        /* \"#utility.yul\":13590:13671   */\n      swap2\n      pop\n        /* \"#utility.yul\":13442:13682   */\n      pop\n        /* \"#utility.yul\":13768:13772   */\n      0x40\n        /* \"#utility.yul\":13761:13766   */\n      dup4\n        /* \"#utility.yul\":13757:13773   */\n      add\n        /* \"#utility.yul\":13751:13774   */\n      mload\n        /* \"#utility.yul\":13787:13848   */\n      tag_555\n        /* \"#utility.yul\":13842:13846   */\n      0x40\n        /* \"#utility.yul\":13837:13840   */\n      dup7\n        /* \"#utility.yul\":13833:13847   */\n      add\n        /* \"#utility.yul\":13819:13831   */\n      dup3\n        /* \"#utility.yul\":13787:13848   */\n      tag_354\n      jump\t// in\n    tag_555:\n        /* \"#utility.yul\":13692:13858   */\n      pop\n        /* \"#utility.yul\":13948:13952   */\n      0x60\n        /* \"#utility.yul\":13941:13946   */\n      dup4\n        /* \"#utility.yul\":13937:13953   */\n      add\n        /* \"#utility.yul\":13931:13954   */\n      mload\n        /* \"#utility.yul\":13967:14028   */\n      tag_556\n        /* \"#utility.yul\":14022:14026   */\n      0x60\n        /* \"#utility.yul\":14017:14020   */\n      dup7\n        /* \"#utility.yul\":14013:14027   */\n      add\n        /* \"#utility.yul\":13999:14011   */\n      dup3\n        /* \"#utility.yul\":13967:14028   */\n      tag_354\n      jump\t// in\n    tag_556:\n        /* \"#utility.yul\":13868:14038   */\n      pop\n        /* \"#utility.yul\":14128:14132   */\n      0x80\n        /* \"#utility.yul\":14121:14126   */\n      dup4\n        /* \"#utility.yul\":14117:14133   */\n      add\n        /* \"#utility.yul\":14111:14134   */\n      mload\n        /* \"#utility.yul\":14147:14208   */\n      tag_557\n        /* \"#utility.yul\":14202:14206   */\n      0x80\n        /* \"#utility.yul\":14197:14200   */\n      dup7\n        /* \"#utility.yul\":14193:14207   */\n      add\n        /* \"#utility.yul\":14179:14191   */\n      dup3\n        /* \"#utility.yul\":14147:14208   */\n      tag_354\n      jump\t// in\n    tag_557:\n        /* \"#utility.yul\":14048:14218   */\n      pop\n        /* \"#utility.yul\":14306:14310   */\n      0xa0\n        /* \"#utility.yul\":14299:14304   */\n      dup4\n        /* \"#utility.yul\":14295:14311   */\n      add\n        /* \"#utility.yul\":14289:14312   */\n      mload\n        /* \"#utility.yul\":14325:14386   */\n      tag_558\n        /* \"#utility.yul\":14380:14384   */\n      0xa0\n        /* \"#utility.yul\":14375:14378   */\n      dup7\n        /* \"#utility.yul\":14371:14385   */\n      add\n        /* \"#utility.yul\":14357:14369   */\n      dup3\n        /* \"#utility.yul\":14325:14386   */\n      tag_354\n      jump\t// in\n    tag_558:\n        /* \"#utility.yul\":14228:14396   */\n      pop\n        /* \"#utility.yul\":14480:14484   */\n      0xc0\n        /* \"#utility.yul\":14473:14478   */\n      dup4\n        /* \"#utility.yul\":14469:14485   */\n      add\n        /* \"#utility.yul\":14463:14486   */\n      mload\n        /* \"#utility.yul\":14499:14560   */\n      tag_559\n        /* \"#utility.yul\":14554:14558   */\n      0xc0\n        /* \"#utility.yul\":14549:14552   */\n      dup7\n        /* \"#utility.yul\":14545:14559   */\n      add\n        /* \"#utility.yul\":14531:14543   */\n      dup3\n        /* \"#utility.yul\":14499:14560   */\n      tag_354\n      jump\t// in\n    tag_559:\n        /* \"#utility.yul\":14406:14570   */\n      pop\n        /* \"#utility.yul\":14654:14658   */\n      0xe0\n        /* \"#utility.yul\":14647:14652   */\n      dup4\n        /* \"#utility.yul\":14643:14659   */\n      add\n        /* \"#utility.yul\":14637:14660   */\n      mload\n        /* \"#utility.yul\":14673:14730   */\n      tag_560\n        /* \"#utility.yul\":14724:14728   */\n      0xe0\n        /* \"#utility.yul\":14719:14722   */\n      dup7\n        /* \"#utility.yul\":14715:14729   */\n      add\n        /* \"#utility.yul\":14701:14713   */\n      dup3\n        /* \"#utility.yul\":14673:14730   */\n      tag_355\n      jump\t// in\n    tag_560:\n        /* \"#utility.yul\":14580:14740   */\n      pop\n        /* \"#utility.yul\":14824:14830   */\n      0x0100\n        /* \"#utility.yul\":14817:14822   */\n      dup4\n        /* \"#utility.yul\":14813:14831   */\n      add\n        /* \"#utility.yul\":14807:14832   */\n      mload\n        /* \"#utility.yul\":14845:14904   */\n      tag_561\n        /* \"#utility.yul\":14896:14902   */\n      0x0100\n        /* \"#utility.yul\":14891:14894   */\n      dup7\n        /* \"#utility.yul\":14887:14903   */\n      add\n        /* \"#utility.yul\":14873:14885   */\n      dup3\n        /* \"#utility.yul\":14845:14904   */\n      tag_355\n      jump\t// in\n    tag_561:\n        /* \"#utility.yul\":14750:14914   */\n      pop\n        /* \"#utility.yul\":14931:14935   */\n      dup1\n        /* \"#utility.yul\":14924:14935   */\n      swap2\n      pop\n        /* \"#utility.yul\":13117:14941   */\n      pop\n        /* \"#utility.yul\":12993:14941   */\n      swap3\n      swap2\n      pop\n      pop\n      jump\t// out\n        /* \"#utility.yul\":14947:15320   */\n    tag_113:\n        /* \"#utility.yul\":15090:15094   */\n      0x00\n        /* \"#utility.yul\":15128:15130   */\n      0x20\n        /* \"#utility.yul\":15117:15126   */\n      dup3\n        /* \"#utility.yul\":15113:15131   */\n      add\n        /* \"#utility.yul\":15105:15131   */\n      swap1\n      pop\n        /* \"#utility.yul\":15177:15186   */\n      dup2\n        /* \"#utility.yul\":15171:15175   */\n      dup2\n        /* \"#utility.yul\":15167:15187   */\n      sub\n        /* \"#utility.yul\":15163:15164   */\n      0x00\n        /* \"#utility.yul\":15152:15161   */\n      dup4\n        /* \"#utility.yul\":15148:15165   */\n      add\n        /* \"#utility.yul\":15141:15188   */\n      mstore\n        /* \"#utility.yul\":15205:15313   */\n      tag_563\n        /* \"#utility.yul\":15308:15312   */\n      dup2\n        /* \"#utility.yul\":15299:15305   */\n      dup5\n        /* \"#utility.yul\":15205:15313   */\n      tag_356\n      jump\t// in\n    tag_563:\n        /* \"#utility.yul\":15197:15313   */\n      swap1\n      pop\n        /* \"#utility.yul\":14947:15320   */\n      swap3\n      swap2\n      pop\n      pop\n      jump\t// out\n        /* \"#utility.yul\":15326:15506   */\n    tag_357:\n        /* \"#utility.yul\":15374:15451   */\n      0x4e487b7100000000000000000000000000000000000000000000000000000000\n        /* \"#utility.yul\":15371:15372   */\n      0x00\n        /* \"#utility.yul\":15364:15452   */\n      mstore\n        /* \"#utility.yul\":15471:15475   */\n      0x22\n        /* \"#utility.yul\":15468:15469   */\n      0x04\n        /* \"#utility.yul\":15461:15476   */\n      mstore\n        /* \"#utility.yul\":15495:15499   */\n      0x24\n        /* \"#utility.yul\":15492:15493   */\n      0x00\n        /* \"#utility.yul\":15485:15500   */\n      revert\n        /* \"#utility.yul\":15512:15832   */\n    tag_116:\n        /* \"#utility.yul\":15556:15562   */\n      0x00\n        /* \"#utility.yul\":15593:15594   */\n      0x02\n        /* \"#utility.yul\":15587:15591   */\n      dup3\n        /* \"#utility.yul\":15583:15595   */\n      div\n        /* \"#utility.yul\":15573:15595   */\n      swap1\n      pop\n        /* \"#utility.yul\":15640:15641   */\n      0x01\n        /* \"#utility.yul\":15634:15638   */\n      dup3\n        /* \"#utility.yul\":15630:15642   */\n      and\n        /* \"#utility.yul\":15661:15679   */\n      dup1\n        /* \"#utility.yul\":15651:15732   */\n      tag_566\n      jumpi\n        /* \"#utility.yul\":15717:15721   */\n      0x7f\n        /* \"#utility.yul\":15709:15715   */\n      dup3\n        /* \"#utility.yul\":15705:15722   */\n      and\n        /* \"#utility.yul\":15695:15722   */\n      swap2\n      pop\n        /* \"#utility.yul\":15651:15732   */\n    tag_566:\n        /* \"#utility.yul\":15779:15781   */\n      0x20\n        /* \"#utility.yul\":15771:15777   */\n      dup3\n        /* \"#utility.yul\":15768:15782   */\n      lt\n        /* \"#utility.yul\":15748:15766   */\n      dup2\n        /* \"#utility.yul\":15745:15783   */\n      sub\n        /* \"#utility.yul\":15742:15826   */\n      tag_567\n      jumpi\n        /* \"#utility.yul\":15798:15816   */\n      tag_568\n      tag_357\n      jump\t// in\n    tag_568:\n        /* \"#utility.yul\":15742:15826   */\n    tag_567:\n        /* \"#utility.yul\":15563:15832   */\n      pop\n        /* \"#utility.yul\":15512:15832   */\n      swap2\n      swap1\n      pop\n      jump\t// out\n        /* \"#utility.yul\":15838:16061   */\n    tag_358:\n        /* \"#utility.yul\":15978:16012   */\n      0x4f6e6c7920746f6b656e20686f6c646572732063616e20637265617465206973\n        /* \"#utility.yul\":15974:15975   */\n      0x00\n        /* \"#utility.yul\":15966:15972   */\n      dup3\n        /* \"#utility.yul\":15962:15976   */\n      add\n        /* \"#utility.yul\":15955:16013   */\n      mstore\n        /* \"#utility.yul\":16047:16053   */\n      0x7375657300000000000000000000000000000000000000000000000000000000\n        /* \"#utility.yul\":16042:16044   */\n      0x20\n        /* \"#utility.yul\":16034:16040   */\n      dup3\n        /* \"#utility.yul\":16030:16045   */\n      add\n        /* \"#utility.yul\":16023:16054   */\n      mstore\n        /* \"#utility.yul\":15838:16061   */\n      pop\n      jump\t// out\n        /* \"#utility.yul\":16067:16433   */\n    tag_359:\n        /* \"#utility.yul\":16209:16212   */\n      0x00\n        /* \"#utility.yul\":16230:16297   */\n      tag_571\n        /* \"#utility.yul\":16294:16296   */\n      0x24\n        /* \"#utility.yul\":16289:16292   */\n      dup4\n        /* \"#utility.yul\":16230:16297   */\n      tag_311\n      jump\t// in\n    tag_571:\n        /* \"#utility.yul\":16223:16297   */\n      swap2\n      pop\n        /* \"#utility.yul\":16306:16399   */\n      tag_572\n        /* \"#utility.yul\":16395:16398   */\n      dup3\n        /* \"#utility.yul\":16306:16399   */\n      tag_358\n      jump\t// in\n    tag_572:\n        /* \"#utility.yul\":16424:16426   */\n      0x40\n        /* \"#utility.yul\":16419:16422   */\n      dup3\n        /* \"#utility.yul\":16415:16427   */\n      add\n        /* \"#utility.yul\":16408:16427   */\n      swap1\n      pop\n        /* \"#utility.yul\":16067:16433   */\n      swap2\n      swap1\n      pop\n      jump\t// out\n        /* \"#utility.yul\":16439:16858   */\n    tag_129:\n        /* \"#utility.yul\":16605:16609   */\n      0x00\n        /* \"#utility.yul\":16643:16645   */\n      0x20\n        /* \"#utility.yul\":16632:16641   */\n      dup3\n        /* \"#utility.yul\":16628:16646   */\n      add\n        /* \"#utility.yul\":16620:16646   */\n      swap1\n      pop\n        /* \"#utility.yul\":16692:16701   */\n      dup2\n        /* \"#utility.yul\":16686:16690   */\n      dup2\n        /* \"#utility.yul\":16682:16702   */\n      sub\n        /* \"#utility.yul\":16678:16679   */\n      0x00\n        /* \"#utility.yul\":16667:16676   */\n      dup4\n        /* \"#utility.yul\":16663:16680   */\n      add\n        /* \"#utility.yul\":16656:16703   */\n      mstore\n        /* \"#utility.yul\":16720:16851   */\n      tag_574\n        /* \"#utility.yul\":16846:16850   */\n      dup2\n        /* \"#utility.yul\":16720:16851   */\n      tag_359\n      jump\t// in\n    tag_574:\n        /* \"#utility.yul\":16712:16851   */\n      swap1\n      pop\n        /* \"#utility.yul\":16439:16858   */\n      swap2\n      swap1\n      pop\n      jump\t// out\n        /* \"#utility.yul\":16864:17107   */\n    tag_360:\n        /* \"#utility.yul\":17004:17038   */\n      0x51756f72756d2063616e6e6f742062652067726561746572207468616e207468\n        /* \"#utility.yul\":17000:17001   */\n      0x00\n        /* \"#utility.yul\":16992:16998   */\n      dup3\n        /* \"#utility.yul\":16988:17002   */\n      add\n        /* \"#utility.yul\":16981:17039   */\n      mstore\n        /* \"#utility.yul\":17073:17099   */\n      0x6520746f74616c206e756d626572206f6620746f6b656e730000000000000000\n        /* \"#utility.yul\":17068:17070   */\n      0x20\n        /* \"#utility.yul\":17060:17066   */\n      dup3\n        /* \"#utility.yul\":17056:17071   */\n      add\n        /* \"#utility.yul\":17049:17100   */\n      mstore\n        /* \"#utility.yul\":16864:17107   */\n      pop\n      jump\t// out\n        /* \"#utility.yul\":17113:17479   */\n    tag_361:\n        /* \"#utility.yul\":17255:17258   */\n      0x00\n        /* \"#utility.yul\":17276:17343   */\n      tag_577\n        /* \"#utility.yul\":17340:17342   */\n      0x38\n        /* \"#utility.yul\":17335:17338   */\n      dup4\n        /* \"#utility.yul\":17276:17343   */\n      tag_311\n      jump\t// in\n    tag_577:\n        /* \"#utility.yul\":17269:17343   */\n      swap2\n      pop\n        /* \"#utility.yul\":17352:17445   */\n      tag_578\n        /* \"#utility.yul\":17441:17444   */\n      dup3\n        /* \"#utility.yul\":17352:17445   */\n      tag_360\n      jump\t// in\n    tag_578:\n        /* \"#utility.yul\":17470:17472   */\n      0x40\n        /* \"#utility.yul\":17465:17468   */\n      dup3\n        /* \"#utility.yul\":17461:17473   */\n      add\n        /* \"#utility.yul\":17454:17473   */\n      swap1\n      pop\n        /* \"#utility.yul\":17113:17479   */\n      swap2\n      swap1\n      pop\n      jump\t// out\n        /* \"#utility.yul\":17485:17904   */\n    tag_133:\n        /* \"#utility.yul\":17651:17655   */\n      0x00\n        /* \"#utility.yul\":17689:17691   */\n      0x20\n        /* \"#utility.yul\":17678:17687   */\n      dup3\n        /* \"#utility.yul\":17674:17692   */\n      add\n        /* \"#utility.yul\":17666:17692   */\n      swap1\n      pop\n        /* \"#utility.yul\":17738:17747   */\n      dup2\n        /* \"#utility.yul\":17732:17736   */\n      dup2\n        /* \"#utility.yul\":17728:17748   */\n      sub\n        /* \"#utility.yul\":17724:17725   */\n      0x00\n        /* \"#utility.yul\":17713:17722   */\n      dup4\n        /* \"#utility.yul\":17709:17726   */\n      add\n        /* \"#utility.yul\":17702:17749   */\n      mstore\n        /* \"#utility.yul\":17766:17897   */\n      tag_580\n        /* \"#utility.yul\":17892:17896   */\n      dup2\n        /* \"#utility.yul\":17766:17897   */\n      tag_361\n      jump\t// in\n    tag_580:\n        /* \"#utility.yul\":17758:17897   */\n      swap1\n      pop\n        /* \"#utility.yul\":17485:17904   */\n      swap2\n      swap1\n      pop\n      jump\t// out\n        /* \"#utility.yul\":17910:18090   */\n    tag_137:\n        /* \"#utility.yul\":17958:18035   */\n      0x4e487b7100000000000000000000000000000000000000000000000000000000\n        /* \"#utility.yul\":17955:17956   */\n      0x00\n        /* \"#utility.yul\":17948:18036   */\n      mstore\n        /* \"#utility.yul\":18055:18059   */\n      0x32\n        /* \"#utility.yul\":18052:18053   */\n      0x04\n        /* \"#utility.yul\":18045:18060   */\n      mstore\n        /* \"#utility.yul\":18079:18083   */\n      0x24\n        /* \"#utility.yul\":18076:18077   */\n      0x00\n        /* \"#utility.yul\":18069:18084   */\n      revert\n        /* \"#utility.yul\":18096:18237   */\n    tag_362:\n        /* \"#utility.yul\":18145:18149   */\n      0x00\n        /* \"#utility.yul\":18168:18171   */\n      dup2\n        /* \"#utility.yul\":18160:18171   */\n      swap1\n      pop\n        /* \"#utility.yul\":18191:18194   */\n      dup2\n        /* \"#utility.yul\":18188:18189   */\n      0x00\n        /* \"#utility.yul\":18181:18195   */\n      mstore\n        /* \"#utility.yul\":18225:18229   */\n      0x20\n        /* \"#utility.yul\":18222:18223   */\n      0x00\n        /* \"#utility.yul\":18212:18230   */\n      keccak256\n        /* \"#utility.yul\":18204:18230   */\n      swap1\n      pop\n        /* \"#utility.yul\":18096:18237   */\n      swap2\n      swap1\n      pop\n      jump\t// out\n        /* \"#utility.yul\":18243:18336   */\n    tag_363:\n        /* \"#utility.yul\":18280:18286   */\n      0x00\n        /* \"#utility.yul\":18327:18329   */\n      0x20\n        /* \"#utility.yul\":18322:18324   */\n      0x1f\n        /* \"#utility.yul\":18315:18320   */\n      dup4\n        /* \"#utility.yul\":18311:18325   */\n      add\n        /* \"#utility.yul\":18307:18330   */\n      div\n        /* \"#utility.yul\":18297:18330   */\n      swap1\n      pop\n        /* \"#utility.yul\":18243:18336   */\n      swap2\n      swap1\n      pop\n      jump\t// out\n        /* \"#utility.yul\":18342:18449   */\n    tag_364:\n        /* \"#utility.yul\":18386:18394   */\n      0x00\n        /* \"#utility.yul\":18436:18441   */\n      dup3\n        /* \"#utility.yul\":18430:18434   */\n      dup3\n        /* \"#utility.yul\":18426:18442   */\n      shl\n        /* \"#utility.yul\":18405:18442   */\n      swap1\n      pop\n        /* \"#utility.yul\":18342:18449   */\n      swap3\n      swap2\n      pop\n      pop\n      jump\t// out\n        /* \"#utility.yul\":18455:18848   */\n    tag_365:\n        /* \"#utility.yul\":18524:18530   */\n      0x00\n        /* \"#utility.yul\":18574:18575   */\n      0x08\n        /* \"#utility.yul\":18562:18572   */\n      dup4\n        /* \"#utility.yul\":18558:18576   */\n      mul\n        /* \"#utility.yul\":18597:18694   */\n      tag_586\n        /* \"#utility.yul\":18627:18693   */\n      0xffffffffffffffffffffffffffffffffffffffffffffffffffffffffffffffff\n        /* \"#utility.yul\":18616:18625   */\n      dup3\n        /* \"#utility.yul\":18597:18694   */\n      tag_364\n      jump\t// in\n    tag_586:\n        /* \"#utility.yul\":18715:18754   */\n      tag_587\n        /* \"#utility.yul\":18745:18753   */\n      dup7\n        /* \"#utility.yul\":18734:18743   */\n      dup4\n        /* \"#utility.yul\":18715:18754   */\n      tag_364\n      jump\t// in\n    tag_587:\n        /* \"#utility.yul\":18703:18754   */\n      swap6\n      pop\n        /* \"#utility.yul\":18787:18791   */\n      dup1\n        /* \"#utility.yul\":18783:18792   */\n      not\n        /* \"#utility.yul\":18776:18781   */\n      dup5\n        /* \"#utility.yul\":18772:18793   */\n      and\n        /* \"#utility.yul\":18763:18793   */\n      swap4\n      pop\n        /* \"#utility.yul\":18836:18840   */\n      dup1\n        /* \"#utility.yul\":18826:18834   */\n      dup7\n        /* \"#utility.yul\":18822:18841   */\n      and\n        /* \"#utility.yul\":18815:18820   */\n      dup5\n        /* \"#utility.yul\":18812:18842   */\n      or\n        /* \"#utility.yul\":18802:18842   */\n      swap3\n      pop\n        /* \"#utility.yul\":18531:18848   */\n      pop\n      pop\n        /* \"#utility.yul\":18455:18848   */\n      swap4\n      swap3\n      pop\n      pop\n      pop\n      jump\t// out\n        /* \"#utility.yul\":18854:18914   */\n    tag_366:\n        /* \"#utility.yul\":18882:18885   */\n      0x00\n        /* \"#utility.yul\":18903:18908   */\n      dup2\n        /* \"#utility.yul\":18896:18908   */\n      swap1\n      pop\n        /* \"#utility.yul\":18854:18914   */\n      swap2\n      swap1\n      pop\n      jump\t// out\n        /* \"#utility.yul\":18920:19062   */\n    tag_367:\n        /* \"#utility.yul\":18970:18979   */\n      0x00\n        /* \"#utility.yul\":19003:19056   */\n      tag_590\n        /* \"#utility.yul\":19021:19055   */\n      tag_591\n        /* \"#utility.yul\":19030:19054   */\n      tag_592\n        /* \"#utility.yul\":19048:19053   */\n      dup5\n        /* \"#utility.yul\":19030:19054   */\n      tag_322\n      jump\t// in\n    tag_592:\n        /* \"#utility.yul\":19021:19055   */\n      tag_366\n      jump\t// in\n    tag_591:\n        /* \"#utility.yul\":19003:19056   */\n      tag_322\n      jump\t// in\n    tag_590:\n        /* \"#utility.yul\":18990:19056   */\n      swap1\n      pop\n        /* \"#utility.yul\":18920:19062   */\n      swap2\n      swap1\n      pop\n      jump\t// out\n        /* \"#utility.yul\":19068:19143   */\n    tag_368:\n        /* \"#utility.yul\":19111:19114   */\n      0x00\n        /* \"#utility.yul\":19132:19137   */\n      dup2\n        /* \"#utility.yul\":19125:19137   */\n      swap1\n      pop\n        /* \"#utility.yul\":19068:19143   */\n      swap2\n      swap1\n      pop\n      jump\t// out\n        /* \"#utility.yul\":19149:19418   */\n    tag_369:\n        /* \"#utility.yul\":19259:19298   */\n      tag_595\n        /* \"#utility.yul\":19290:19297   */\n      dup4\n        /* \"#utility.yul\":19259:19298   */\n      tag_367\n      jump\t// in\n    tag_595:\n        /* \"#utility.yul\":19320:19411   */\n      tag_596\n        /* \"#utility.yul\":19369:19410   */\n      tag_597\n        /* \"#utility.yul\":19393:19409   */\n      dup3\n        /* \"#utility.yul\":19369:19410   */\n      tag_368\n      jump\t// in\n    tag_597:\n        /* \"#utility.yul\":19361:19367   */\n      dup5\n        /* \"#utility.yul\":19354:19358   */\n      dup5\n        /* \"#utility.yul\":19348:19359   */\n      sload\n        /* \"#utility.yul\":19320:19411   */\n      tag_365\n      jump\t// in\n    tag_596:\n        /* \"#utility.yul\":19314:19318   */\n      dup3\n        /* \"#utility.yul\":19307:19412   */\n      sstore\n        /* \"#utility.yul\":19225:19418   */\n      pop\n        /* \"#utility.yul\":19149:19418   */\n      pop\n      pop\n      pop\n      jump\t// out\n        /* \"#utility.yul\":19424:19497   */\n    tag_370:\n        /* \"#utility.yul\":19469:19472   */\n      0x00\n        /* \"#utility.yul\":19424:19497   */\n      swap1\n      jump\t// out\n        /* \"#utility.yul\":19503:19692   */\n    tag_371:\n        /* \"#utility.yul\":19580:19612   */\n      tag_600\n      tag_370\n      jump\t// in\n    tag_600:\n        /* \"#utility.yul\":19621:19686   */\n      tag_601\n        /* \"#utility.yul\":19679:19685   */\n      dup2\n        /* \"#utility.yul\":19671:19677   */\n      dup5\n        /* \"#utility.yul\":19665:19669   */\n      dup5\n        /* \"#utility.yul\":19621:19686   */\n      tag_369\n      jump\t// in\n    tag_601:\n        /* \"#utility.yul\":19556:19692   */\n      pop\n        /* \"#utility.yul\":19503:19692   */\n      pop\n      pop\n      jump\t// out\n        /* \"#utility.yul\":19698:19884   */\n    tag_372:\n        /* \"#utility.yul\":19758:19878   */\n    tag_603:\n        /* \"#utility.yul\":19775:19778   */\n      dup2\n        /* \"#utility.yul\":19768:19773   */\n      dup2\n        /* \"#utility.yul\":19765:19779   */\n      lt\n        /* \"#utility.yul\":19758:19878   */\n      iszero\n      tag_605\n      jumpi\n        /* \"#utility.yul\":19829:19868   */\n      tag_606\n        /* \"#utility.yul\":19866:19867   */\n      0x00\n        /* \"#utility.yul\":19859:19864   */\n      dup3\n        /* \"#utility.yul\":19829:19868   */\n      tag_371\n      jump\t// in\n    tag_606:\n        /* \"#utility.yul\":19802:19803   */\n      0x01\n        /* \"#utility.yul\":19795:19800   */\n      dup2\n        /* \"#utility.yul\":19791:19804   */\n      add\n        /* \"#utility.yul\":19782:19804   */\n      swap1\n      pop\n        /* \"#utility.yul\":19758:19878   */\n      jump(tag_603)\n    tag_605:\n        /* \"#utility.yul\":19698:19884   */\n      pop\n      pop\n      jump\t// out\n        /* \"#utility.yul\":19890:20433   */\n    tag_373:\n        /* \"#utility.yul\":19991:19993   */\n      0x1f\n        /* \"#utility.yul\":19986:19989   */\n      dup3\n        /* \"#utility.yul\":19983:19994   */\n      gt\n        /* \"#utility.yul\":19980:20426   */\n      iszero\n      tag_608\n      jumpi\n        /* \"#utility.yul\":20025:20063   */\n      tag_609\n        /* \"#utility.yul\":20057:20062   */\n      dup2\n        /* \"#utility.yul\":20025:20063   */\n      tag_362\n      jump\t// in\n    tag_609:\n        /* \"#utility.yul\":20109:20138   */\n      tag_610\n        /* \"#utility.yul\":20127:20137   */\n      dup5\n        /* \"#utility.yul\":20109:20138   */\n      tag_363\n      jump\t// in\n    tag_610:\n        /* \"#utility.yul\":20099:20107   */\n      dup2\n        /* \"#utility.yul\":20095:20139   */\n      add\n        /* \"#utility.yul\":20292:20294   */\n      0x20\n        /* \"#utility.yul\":20280:20290   */\n      dup6\n        /* \"#utility.yul\":20277:20295   */\n      lt\n        /* \"#utility.yul\":20274:20323   */\n      iszero\n      tag_611\n      jumpi\n        /* \"#utility.yul\":20313:20321   */\n      dup2\n        /* \"#utility.yul\":20298:20321   */\n      swap1\n      pop\n        /* \"#utility.yul\":20274:20323   */\n    tag_611:\n        /* \"#utility.yul\":20336:20416   */\n      tag_612\n        /* \"#utility.yul\":20392:20414   */\n      tag_613\n        /* \"#utility.yul\":20410:20413   */\n      dup6\n        /* \"#utility.yul\":20392:20414   */\n      tag_363\n      jump\t// in\n    tag_613:\n        /* \"#utility.yul\":20382:20390   */\n      dup4\n        /* \"#utility.yul\":20378:20415   */\n      add\n        /* \"#utility.yul\":20365:20376   */\n      dup3\n        /* \"#utility.yul\":20336:20416   */\n      tag_372\n      jump\t// in\n    tag_612:\n        /* \"#utility.yul\":19995:20426   */\n      pop\n      pop\n        /* \"#utility.yul\":19980:20426   */\n    tag_608:\n        /* \"#utility.yul\":19890:20433   */\n      pop\n      pop\n      pop\n      jump\t// out\n        /* \"#utility.yul\":20439:20556   */\n    tag_374:\n        /* \"#utility.yul\":20493:20501   */\n      0x00\n        /* \"#utility.yul\":20543:20548   */\n      dup3\n        /* \"#utility.yul\":20537:20541   */\n      dup3\n        /* \"#utility.yul\":20533:20549   */\n      shr\n        /* \"#utility.yul\":20512:20549   */\n      swap1\n      pop\n        /* \"#utility.yul\":20439:20556   */\n      swap3\n      swap2\n      pop\n      pop\n      jump\t// out\n        /* \"#utility.yul\":20562:20731   */\n    tag_375:\n        /* \"#utility.yul\":20606:20612   */\n      0x00\n        /* \"#utility.yul\":20639:20690   */\n      tag_616\n        /* \"#utility.yul\":20687:20688   */\n      0x00\n        /* \"#utility.yul\":20683:20689   */\n      not\n        /* \"#utility.yul\":20675:20680   */\n      dup5\n        /* \"#utility.yul\":20672:20673   */\n      0x08\n        /* \"#utility.yul\":20668:20681   */\n      mul\n        /* \"#utility.yul\":20639:20690   */\n      tag_374\n      jump\t// in\n    tag_616:\n        /* \"#utility.yul\":20635:20691   */\n      not\n        /* \"#utility.yul\":20720:20724   */\n      dup1\n        /* \"#utility.yul\":20714:20718   */\n      dup4\n        /* \"#utility.yul\":20710:20725   */\n      and\n        /* \"#utility.yul\":20700:20725   */\n      swap2\n      pop\n        /* \"#utility.yul\":20613:20731   */\n      pop\n        /* \"#utility.yul\":20562:20731   */\n      swap3\n      swap2\n      pop\n      pop\n      jump\t// out\n        /* \"#utility.yul\":20736:21031   */\n    tag_376:\n        /* \"#utility.yul\":20812:20816   */\n      0x00\n        /* \"#utility.yul\":20958:20987   */\n      tag_618\n        /* \"#utility.yul\":20983:20986   */\n      dup4\n        /* \"#utility.yul\":20977:20981   */\n      dup4\n        /* \"#utility.yul\":20958:20987   */\n      tag_375\n      jump\t// in\n    tag_618:\n        /* \"#utility.yul\":20950:20987   */\n      swap2\n      pop\n        /* \"#utility.yul\":21020:21023   */\n      dup3\n        /* \"#utility.yul\":21017:21018   */\n      0x02\n        /* \"#utility.yul\":21013:21024   */\n      mul\n        /* \"#utility.yul\":21007:21011   */\n      dup3\n        /* \"#utility.yul\":21004:21025   */\n      or\n        /* \"#utility.yul\":20996:21025   */\n      swap1\n      pop\n        /* \"#utility.yul\":20736:21031   */\n      swap3\n      swap2\n      pop\n      pop\n      jump\t// out\n        /* \"#utility.yul\":21036:22431   */\n    tag_140:\n        /* \"#utility.yul\":21153:21190   */\n      tag_620\n        /* \"#utility.yul\":21186:21189   */\n      dup3\n        /* \"#utility.yul\":21153:21190   */\n      tag_310\n      jump\t// in\n    tag_620:\n        /* \"#utility.yul\":21255:21273   */\n      0xffffffffffffffff\n        /* \"#utility.yul\":21247:21253   */\n      dup2\n        /* \"#utility.yul\":21244:21274   */\n      gt\n        /* \"#utility.yul\":21241:21297   */\n      iszero\n      tag_621\n      jumpi\n        /* \"#utility.yul\":21277:21295   */\n      tag_622\n      tag_242\n      jump\t// in\n    tag_622:\n        /* \"#utility.yul\":21241:21297   */\n    tag_621:\n        /* \"#utility.yul\":21321:21359   */\n      tag_623\n        /* \"#utility.yul\":21353:21357   */\n      dup3\n        /* \"#utility.yul\":21347:21358   */\n      sload\n        /* \"#utility.yul\":21321:21359   */\n      tag_116\n      jump\t// in\n    tag_623:\n        /* \"#utility.yul\":21406:21473   */\n      tag_624\n        /* \"#utility.yul\":21466:21472   */\n      dup3\n        /* \"#utility.yul\":21458:21464   */\n      dup3\n        /* \"#utility.yul\":21452:21456   */\n      dup6\n        /* \"#utility.yul\":21406:21473   */\n      tag_373\n      jump\t// in\n    tag_624:\n        /* \"#utility.yul\":21500:21501   */\n      0x00\n        /* \"#utility.yul\":21524:21528   */\n      0x20\n        /* \"#utility.yul\":21511:21528   */\n      swap1\n      pop\n        /* \"#utility.yul\":21556:21558   */\n      0x1f\n        /* \"#utility.yul\":21548:21554   */\n      dup4\n        /* \"#utility.yul\":21545:21559   */\n      gt\n        /* \"#utility.yul\":21573:21574   */\n      0x01\n        /* \"#utility.yul\":21568:22186   */\n      dup2\n      eq\n      tag_626\n      jumpi\n        /* \"#utility.yul\":22230:22231   */\n      0x00\n        /* \"#utility.yul\":22247:22253   */\n      dup5\n        /* \"#utility.yul\":22244:22321   */\n      iszero\n      tag_627\n      jumpi\n        /* \"#utility.yul\":22296:22305   */\n      dup3\n        /* \"#utility.yul\":22291:22294   */\n      dup8\n        /* \"#utility.yul\":22287:22306   */\n      add\n        /* \"#utility.yul\":22281:22307   */\n      mload\n        /* \"#utility.yul\":22272:22307   */\n      swap1\n      pop\n        /* \"#utility.yul\":22244:22321   */\n    tag_627:\n        /* \"#utility.yul\":22347:22414   */\n      tag_628\n        /* \"#utility.yul\":22407:22413   */\n      dup6\n        /* \"#utility.yul\":22400:22405   */\n      dup3\n        /* \"#utility.yul\":22347:22414   */\n      tag_376\n      jump\t// in\n    tag_628:\n        /* \"#utility.yul\":22341:22345   */\n      dup7\n        /* \"#utility.yul\":22334:22415   */\n      sstore\n        /* \"#utility.yul\":22203:22425   */\n      pop\n        /* \"#utility.yul\":21538:22425   */\n      jump(tag_625)\n        /* \"#utility.yul\":21568:22186   */\n    tag_626:\n        /* \"#utility.yul\":21620:21624   */\n      0x1f\n        /* \"#utility.yul\":21616:21625   */\n      not\n        /* \"#utility.yul\":21608:21614   */\n      dup5\n        /* \"#utility.yul\":21604:21626   */\n      and\n        /* \"#utility.yul\":21654:21691   */\n      tag_629\n        /* \"#utility.yul\":21686:21690   */\n      dup7\n        /* \"#utility.yul\":21654:21691   */\n      tag_362\n      jump\t// in\n    tag_629:\n        /* \"#utility.yul\":21713:21714   */\n      0x00\n        /* \"#utility.yul\":21727:21935   */\n    tag_630:\n        /* \"#utility.yul\":21741:21748   */\n      dup3\n        /* \"#utility.yul\":21738:21739   */\n      dup2\n        /* \"#utility.yul\":21735:21749   */\n      lt\n        /* \"#utility.yul\":21727:21935   */\n      iszero\n      tag_632\n      jumpi\n        /* \"#utility.yul\":21820:21829   */\n      dup5\n        /* \"#utility.yul\":21815:21818   */\n      dup10\n        /* \"#utility.yul\":21811:21830   */\n      add\n        /* \"#utility.yul\":21805:21831   */\n      mload\n        /* \"#utility.yul\":21797:21803   */\n      dup3\n        /* \"#utility.yul\":21790:21832   */\n      sstore\n        /* \"#utility.yul\":21871:21872   */\n      0x01\n        /* \"#utility.yul\":21863:21869   */\n      dup3\n        /* \"#utility.yul\":21859:21873   */\n      add\n        /* \"#utility.yul\":21849:21873   */\n      swap2\n      pop\n        /* \"#utility.yul\":21918:21920   */\n      0x20\n        /* \"#utility.yul\":21907:21916   */\n      dup6\n        /* \"#utility.yul\":21903:21921   */\n      add\n        /* \"#utility.yul\":21890:21921   */\n      swap5\n      pop\n        /* \"#utility.yul\":21764:21768   */\n      0x20\n        /* \"#utility.yul\":21761:21762   */\n      dup2\n        /* \"#utility.yul\":21757:21769   */\n      add\n        /* \"#utility.yul\":21752:21769   */\n      swap1\n      pop\n        /* \"#utility.yul\":21727:21935   */\n      jump(tag_630)\n    tag_632:\n        /* \"#utility.yul\":21963:21969   */\n      dup7\n        /* \"#utility.yul\":21954:21961   */\n      dup4\n        /* \"#utility.yul\":21951:21970   */\n      lt\n        /* \"#utility.yul\":21948:22127   */\n      iszero\n      tag_633\n      jumpi\n        /* \"#utility.yul\":22021:22030   */\n      dup5\n        /* \"#utility.yul\":22016:22019   */\n      dup10\n        /* \"#utility.yul\":22012:22031   */\n      add\n        /* \"#utility.yul\":22006:22032   */\n      mload\n        /* \"#utility.yul\":22064:22112   */\n      tag_634\n        /* \"#utility.yul\":22106:22110   */\n      0x1f\n        /* \"#utility.yul\":22098:22104   */\n      dup10\n        /* \"#utility.yul\":22094:22111   */\n      and\n        /* \"#utility.yul\":22083:22092   */\n      dup3\n        /* \"#utility.yul\":22064:22112   */\n      tag_375\n      jump\t// in\n    tag_634:\n        /* \"#utility.yul\":22056:22062   */\n      dup4\n        /* \"#utility.yul\":22049:22113   */\n      sstore\n        /* \"#utility.yul\":21971:22127   */\n      pop\n        /* \"#utility.yul\":21948:22127   */\n    tag_633:\n        /* \"#utility.yul\":22173:22174   */\n      0x01\n        /* \"#utility.yul\":22169:22170   */\n      0x02\n        /* \"#utility.yul\":22161:22167   */\n      dup9\n        /* \"#utility.yul\":22157:22171   */\n      mul\n        /* \"#utility.yul\":22153:22175   */\n      add\n        /* \"#utility.yul\":22147:22151   */\n      dup9\n        /* \"#utility.yul\":22140:22176   */\n      sstore\n        /* \"#utility.yul\":21575:22186   */\n      pop\n      pop\n      pop\n        /* \"#utility.yul\":21538:22425   */\n    tag_625:\n      pop\n        /* \"#utility.yul\":21128:22431   */\n      pop\n      pop\n      pop\n        /* \"#utility.yul\":21036:22431   */\n      pop\n      pop\n      jump\t// out\n        /* \"#utility.yul\":22437:22618   */\n    tag_377:\n        /* \"#utility.yul\":22577:22610   */\n      0x566f74696e6720697320636c6f73656420666f72207468697320697373756500\n        /* \"#utility.yul\":22573:22574   */\n      0x00\n        /* \"#utility.yul\":22565:22571   */\n      dup3\n        /* \"#utility.yul\":22561:22575   */\n      add\n        /* \"#utility.yul\":22554:22611   */\n      mstore\n        /* \"#utility.yul\":22437:22618   */\n      pop\n      jump\t// out\n        /* \"#utility.yul\":22624:22990   */\n    tag_378:\n        /* \"#utility.yul\":22766:22769   */\n      0x00\n        /* \"#utility.yul\":22787:22854   */\n      tag_637\n        /* \"#utility.yul\":22851:22853   */\n      0x1f\n        /* \"#utility.yul\":22846:22849   */\n      dup4\n        /* \"#utility.yul\":22787:22854   */\n      tag_311\n      jump\t// in\n    tag_637:\n        /* \"#utility.yul\":22780:22854   */\n      swap2\n      pop\n        /* \"#utility.yul\":22863:22956   */\n      tag_638\n        /* \"#utility.yul\":22952:22955   */\n      dup3\n        /* \"#utility.yul\":22863:22956   */\n      tag_377\n      jump\t// in\n    tag_638:\n        /* \"#utility.yul\":22981:22983   */\n      0x20\n        /* \"#utility.yul\":22976:22979   */\n      dup3\n        /* \"#utility.yul\":22972:22984   */\n      add\n        /* \"#utility.yul\":22965:22984   */\n      swap1\n      pop\n        /* \"#utility.yul\":22624:22990   */\n      swap2\n      swap1\n      pop\n      jump\t// out\n        /* \"#utility.yul\":22996:23415   */\n    tag_148:\n        /* \"#utility.yul\":23162:23166   */\n      0x00\n        /* \"#utility.yul\":23200:23202   */\n      0x20\n        /* \"#utility.yul\":23189:23198   */\n      dup3\n        /* \"#utility.yul\":23185:23203   */\n      add\n        /* \"#utility.yul\":23177:23203   */\n      swap1\n      pop\n        /* \"#utility.yul\":23249:23258   */\n      dup2\n        /* \"#utility.yul\":23243:23247   */\n      dup2\n        /* \"#utility.yul\":23239:23259   */\n      sub\n        /* \"#utility.yul\":23235:23236   */\n      0x00\n        /* \"#utility.yul\":23224:23233   */\n      dup4\n        /* \"#utility.yul\":23220:23237   */\n      add\n        /* \"#utility.yul\":23213:23260   */\n      mstore\n        /* \"#utility.yul\":23277:23408   */\n      tag_640\n        /* \"#utility.yul\":23403:23407   */\n      dup2\n        /* \"#utility.yul\":23277:23408   */\n      tag_378\n      jump\t// in\n    tag_640:\n        /* \"#utility.yul\":23269:23408   */\n      swap1\n      pop\n        /* \"#utility.yul\":22996:23415   */\n      swap2\n      swap1\n      pop\n      jump\t// out\n        /* \"#utility.yul\":23421:23598   */\n    tag_379:\n        /* \"#utility.yul\":23561:23590   */\n      0x416c726561647920766f746564206f6e20746869732069737375650000000000\n        /* \"#utility.yul\":23557:23558   */\n      0x00\n        /* \"#utility.yul\":23549:23555   */\n      dup3\n        /* \"#utility.yul\":23545:23559   */\n      add\n        /* \"#utility.yul\":23538:23591   */\n      mstore\n        /* \"#utility.yul\":23421:23598   */\n      pop\n      jump\t// out\n        /* \"#utility.yul\":23604:23970   */\n    tag_380:\n        /* \"#utility.yul\":23746:23749   */\n      0x00\n        /* \"#utility.yul\":23767:23834   */\n      tag_643\n        /* \"#utility.yul\":23831:23833   */\n      0x1b\n        /* \"#utility.yul\":23826:23829   */\n      dup4\n        /* \"#utility.yul\":23767:23834   */\n      tag_311\n      jump\t// in\n    tag_643:\n        /* \"#utility.yul\":23760:23834   */\n      swap2\n      pop\n        /* \"#utility.yul\":23843:23936   */\n      tag_644\n        /* \"#utility.yul\":23932:23935   */\n      dup3\n        /* \"#utility.yul\":23843:23936   */\n      tag_379\n      jump\t// in\n    tag_644:\n        /* \"#utility.yul\":23961:23963   */\n      0x20\n        /* \"#utility.yul\":23956:23959   */\n      dup3\n        /* \"#utility.yul\":23952:23964   */\n      add\n        /* \"#utility.yul\":23945:23964   */\n      swap1\n      pop\n        /* \"#utility.yul\":23604:23970   */\n      swap2\n      swap1\n      pop\n      jump\t// out\n        /* \"#utility.yul\":23976:24395   */\n    tag_156:\n        /* \"#utility.yul\":24142:24146   */\n      0x00\n        /* \"#utility.yul\":24180:24182   */\n      0x20\n        /* \"#utility.yul\":24169:24178   */\n      dup3\n        /* \"#utility.yul\":24165:24183   */\n      add\n        /* \"#utility.yul\":24157:24183   */\n      swap1\n      pop\n        /* \"#utility.yul\":24229:24238   */\n      dup2\n        /* \"#utility.yul\":24223:24227   */\n      dup2\n        /* \"#utility.yul\":24219:24239   */\n      sub\n        /* \"#utility.yul\":24215:24216   */\n      0x00\n        /* \"#utility.yul\":24204:24213   */\n      dup4\n        /* \"#utility.yul\":24200:24217   */\n      add\n        /* \"#utility.yul\":24193:24240   */\n      mstore\n        /* \"#utility.yul\":24257:24388   */\n      tag_646\n        /* \"#utility.yul\":24383:24387   */\n      dup2\n        /* \"#utility.yul\":24257:24388   */\n      tag_380\n      jump\t// in\n    tag_646:\n        /* \"#utility.yul\":24249:24388   */\n      swap1\n      pop\n        /* \"#utility.yul\":23976:24395   */\n      swap2\n      swap1\n      pop\n      jump\t// out\n        /* \"#utility.yul\":24401:24581   */\n    tag_162:\n        /* \"#utility.yul\":24449:24526   */\n      0x4e487b7100000000000000000000000000000000000000000000000000000000\n        /* \"#utility.yul\":24446:24447   */\n      0x00\n        /* \"#utility.yul\":24439:24527   */\n      mstore\n        /* \"#utility.yul\":24546:24550   */\n      0x21\n        /* \"#utility.yul\":24543:24544   */\n      0x04\n        /* \"#utility.yul\":24536:24551   */\n      mstore\n        /* \"#utility.yul\":24570:24574   */\n      0x24\n        /* \"#utility.yul\":24567:24568   */\n      0x00\n        /* \"#utility.yul\":24560:24575   */\n      revert\n        /* \"#utility.yul\":24587:24767   */\n    tag_381:\n        /* \"#utility.yul\":24635:24712   */\n      0x4e487b7100000000000000000000000000000000000000000000000000000000\n        /* \"#utility.yul\":24632:24633   */\n      0x00\n        /* \"#utility.yul\":24625:24713   */\n      mstore\n        /* \"#utility.yul\":24732:24736   */\n      0x11\n        /* \"#utility.yul\":24729:24730   */\n      0x04\n        /* \"#utility.yul\":24722:24737   */\n      mstore\n        /* \"#utility.yul\":24756:24760   */\n      0x24\n        /* \"#utility.yul\":24753:24754   */\n      0x00\n        /* \"#utility.yul\":24746:24761   */\n      revert\n        /* \"#utility.yul\":24773:24968   */\n    tag_167:\n        /* \"#utility.yul\":24812:24815   */\n      0x00\n        /* \"#utility.yul\":24831:24850   */\n      tag_650\n        /* \"#utility.yul\":24848:24849   */\n      dup3\n        /* \"#utility.yul\":24831:24850   */\n      tag_335\n      jump\t// in\n    tag_650:\n        /* \"#utility.yul\":24826:24850   */\n      swap2\n      pop\n        /* \"#utility.yul\":24864:24883   */\n      tag_651\n        /* \"#utility.yul\":24881:24882   */\n      dup4\n        /* \"#utility.yul\":24864:24883   */\n      tag_335\n      jump\t// in\n    tag_651:\n        /* \"#utility.yul\":24859:24883   */\n      swap3\n      pop\n        /* \"#utility.yul\":24906:24907   */\n      dup3\n        /* \"#utility.yul\":24903:24904   */\n      dup3\n        /* \"#utility.yul\":24899:24908   */\n      add\n        /* \"#utility.yul\":24892:24908   */\n      swap1\n      pop\n        /* \"#utility.yul\":24929:24937   */\n      0xffffff\n        /* \"#utility.yul\":24924:24927   */\n      dup2\n        /* \"#utility.yul\":24921:24938   */\n      gt\n        /* \"#utility.yul\":24918:24961   */\n      iszero\n      tag_652\n      jumpi\n        /* \"#utility.yul\":24941:24959   */\n      tag_653\n      tag_381\n      jump\t// in\n    tag_653:\n        /* \"#utility.yul\":24918:24961   */\n    tag_652:\n        /* \"#utility.yul\":24773:24968   */\n      swap3\n      swap2\n      pop\n      pop\n      jump\t// out\n        /* \"#utility.yul\":24974:25143   */\n    tag_382:\n        /* \"#utility.yul\":25114:25135   */\n      0x496e76616c696420766f7465206f7074696f6e00000000000000000000000000\n        /* \"#utility.yul\":25110:25111   */\n      0x00\n        /* \"#utility.yul\":25102:25108   */\n      dup3\n        /* \"#utility.yul\":25098:25112   */\n      add\n        /* \"#utility.yul\":25091:25136   */\n      mstore\n        /* \"#utility.yul\":24974:25143   */\n      pop\n      jump\t// out\n        /* \"#utility.yul\":25149:25515   */\n    tag_383:\n        /* \"#utility.yul\":25291:25294   */\n      0x00\n        /* \"#utility.yul\":25312:25379   */\n      tag_656\n        /* \"#utility.yul\":25376:25378   */\n      0x13\n        /* \"#utility.yul\":25371:25374   */\n      dup4\n        /* \"#utility.yul\":25312:25379   */\n      tag_311\n      jump\t// in\n    tag_656:\n        /* \"#utility.yul\":25305:25379   */\n      swap2\n      pop\n        /* \"#utility.yul\":25388:25481   */\n      tag_657\n        /* \"#utility.yul\":25477:25480   */\n      dup3\n        /* \"#utility.yul\":25388:25481   */\n      tag_382\n      jump\t// in\n    tag_657:\n        /* \"#utility.yul\":25506:25508   */\n      0x20\n        /* \"#utility.yul\":25501:25504   */\n      dup3\n        /* \"#utility.yul\":25497:25509   */\n      add\n        /* \"#utility.yul\":25490:25509   */\n      swap1\n      pop\n        /* \"#utility.yul\":25149:25515   */\n      swap2\n      swap1\n      pop\n      jump\t// out\n        /* \"#utility.yul\":25521:25940   */\n    tag_184:\n        /* \"#utility.yul\":25687:25691   */\n      0x00\n        /* \"#utility.yul\":25725:25727   */\n      0x20\n        /* \"#utility.yul\":25714:25723   */\n      dup3\n        /* \"#utility.yul\":25710:25728   */\n      add\n        /* \"#utility.yul\":25702:25728   */\n      swap1\n      pop\n        /* \"#utility.yul\":25774:25783   */\n      dup2\n        /* \"#utility.yul\":25768:25772   */\n      dup2\n        /* \"#utility.yul\":25764:25784   */\n      sub\n        /* \"#utility.yul\":25760:25761   */\n      0x00\n        /* \"#utility.yul\":25749:25758   */\n      dup4\n        /* \"#utility.yul\":25745:25762   */\n      add\n        /* \"#utility.yul\":25738:25785   */\n      mstore\n        /* \"#utility.yul\":25802:25933   */\n      tag_659\n        /* \"#utility.yul\":25928:25932   */\n      dup2\n        /* \"#utility.yul\":25802:25933   */\n      tag_383\n      jump\t// in\n    tag_659:\n        /* \"#utility.yul\":25794:25933   */\n      swap1\n      pop\n        /* \"#utility.yul\":25521:25940   */\n      swap2\n      swap1\n      pop\n      jump\t// out\n        /* \"#utility.yul\":25946:26173   */\n    tag_384:\n        /* \"#utility.yul\":26086:26120   */\n      0x45524332303a207472616e7366657220616d6f756e7420657863656564732061\n        /* \"#utility.yul\":26082:26083   */\n      0x00\n        /* \"#utility.yul\":26074:26080   */\n      dup3\n        /* \"#utility.yul\":26070:26084   */\n      add\n        /* \"#utility.yul\":26063:26121   */\n      mstore\n        /* \"#utility.yul\":26155:26165   */\n      0x6c6c6f77616e6365000000000000000000000000000000000000000000000000\n        /* \"#utility.yul\":26150:26152   */\n      0x20\n        /* \"#utility.yul\":26142:26148   */\n      dup3\n        /* \"#utility.yul\":26138:26153   */\n      add\n        /* \"#utility.yul\":26131:26166   */\n      mstore\n        /* \"#utility.yul\":25946:26173   */\n      pop\n      jump\t// out\n        /* \"#utility.yul\":26179:26545   */\n    tag_385:\n        /* \"#utility.yul\":26321:26324   */\n      0x00\n        /* \"#utility.yul\":26342:26409   */\n      tag_662\n        /* \"#utility.yul\":26406:26408   */\n      0x28\n        /* \"#utility.yul\":26401:26404   */\n      dup4\n        /* \"#utility.yul\":26342:26409   */\n      tag_311\n      jump\t// in\n    tag_662:\n        /* \"#utility.yul\":26335:26409   */\n      swap2\n      pop\n        /* \"#utility.yul\":26418:26511   */\n      tag_663\n        /* \"#utility.yul\":26507:26510   */\n      dup3\n        /* \"#utility.yul\":26418:26511   */\n      tag_384\n      jump\t// in\n    tag_663:\n        /* \"#utility.yul\":26536:26538   */\n      0x40\n        /* \"#utility.yul\":26531:26534   */\n      dup3\n        /* \"#utility.yul\":26527:26539   */\n      add\n        /* \"#utility.yul\":26520:26539   */\n      swap1\n      pop\n        /* \"#utility.yul\":26179:26545   */\n      swap2\n      swap1\n      pop\n      jump\t// out\n        /* \"#utility.yul\":26551:26970   */\n    tag_196:\n        /* \"#utility.yul\":26717:26721   */\n      0x00\n        /* \"#utility.yul\":26755:26757   */\n      0x20\n        /* \"#utility.yul\":26744:26753   */\n      dup3\n        /* \"#utility.yul\":26740:26758   */\n      add\n        /* \"#utility.yul\":26732:26758   */\n      swap1\n      pop\n        /* \"#utility.yul\":26804:26813   */\n      dup2\n        /* \"#utility.yul\":26798:26802   */\n      dup2\n        /* \"#utility.yul\":26794:26814   */\n      sub\n        /* \"#utility.yul\":26790:26791   */\n      0x00\n        /* \"#utility.yul\":26779:26788   */\n      dup4\n        /* \"#utility.yul\":26775:26792   */\n      add\n        /* \"#utility.yul\":26768:26815   */\n      mstore\n        /* \"#utility.yul\":26832:26963   */\n      tag_665\n        /* \"#utility.yul\":26958:26962   */\n      dup2\n        /* \"#utility.yul\":26832:26963   */\n      tag_385\n      jump\t// in\n    tag_665:\n        /* \"#utility.yul\":26824:26963   */\n      swap1\n      pop\n        /* \"#utility.yul\":26551:26970   */\n      swap2\n      swap1\n      pop\n      jump\t// out\n        /* \"#utility.yul\":26976:27170   */\n    tag_200:\n        /* \"#utility.yul\":27016:27020   */\n      0x00\n        /* \"#utility.yul\":27036:27056   */\n      tag_667\n        /* \"#utility.yul\":27054:27055   */\n      dup3\n        /* \"#utility.yul\":27036:27056   */\n      tag_322\n      jump\t// in\n    tag_667:\n        /* \"#utility.yul\":27031:27056   */\n      swap2\n      pop\n        /* \"#utility.yul\":27070:27090   */\n      tag_668\n        /* \"#utility.yul\":27088:27089   */\n      dup4\n        /* \"#utility.yul\":27070:27090   */\n      tag_322\n      jump\t// in\n    tag_668:\n        /* \"#utility.yul\":27065:27090   */\n      swap3\n      pop\n        /* \"#utility.yul\":27114:27115   */\n      dup3\n        /* \"#utility.yul\":27111:27112   */\n      dup3\n        /* \"#utility.yul\":27107:27116   */\n      sub\n        /* \"#utility.yul\":27099:27116   */\n      swap1\n      pop\n        /* \"#utility.yul\":27138:27139   */\n      dup2\n        /* \"#utility.yul\":27132:27136   */\n      dup2\n        /* \"#utility.yul\":27129:27140   */\n      gt\n        /* \"#utility.yul\":27126:27163   */\n      iszero\n      tag_669\n      jumpi\n        /* \"#utility.yul\":27143:27161   */\n      tag_670\n      tag_381\n      jump\t// in\n    tag_670:\n        /* \"#utility.yul\":27126:27163   */\n    tag_669:\n        /* \"#utility.yul\":26976:27170   */\n      swap3\n      swap2\n      pop\n      pop\n      jump\t// out\n        /* \"#utility.yul\":27176:27367   */\n    tag_207:\n        /* \"#utility.yul\":27216:27219   */\n      0x00\n        /* \"#utility.yul\":27235:27255   */\n      tag_672\n        /* \"#utility.yul\":27253:27254   */\n      dup3\n        /* \"#utility.yul\":27235:27255   */\n      tag_322\n      jump\t// in\n    tag_672:\n        /* \"#utility.yul\":27230:27255   */\n      swap2\n      pop\n        /* \"#utility.yul\":27269:27289   */\n      tag_673\n        /* \"#utility.yul\":27287:27288   */\n      dup4\n        /* \"#utility.yul\":27269:27289   */\n      tag_322\n      jump\t// in\n    tag_673:\n        /* \"#utility.yul\":27264:27289   */\n      swap3\n      pop\n        /* \"#utility.yul\":27312:27313   */\n      dup3\n        /* \"#utility.yul\":27309:27310   */\n      dup3\n        /* \"#utility.yul\":27305:27314   */\n      add\n        /* \"#utility.yul\":27298:27314   */\n      swap1\n      pop\n        /* \"#utility.yul\":27333:27336   */\n      dup1\n        /* \"#utility.yul\":27330:27331   */\n      dup3\n        /* \"#utility.yul\":27327:27337   */\n      gt\n        /* \"#utility.yul\":27324:27360   */\n      iszero\n      tag_674\n      jumpi\n        /* \"#utility.yul\":27340:27358   */\n      tag_675\n      tag_381\n      jump\t// in\n    tag_675:\n        /* \"#utility.yul\":27324:27360   */\n    tag_674:\n        /* \"#utility.yul\":27176:27367   */\n      swap3\n      swap2\n      pop\n      pop\n      jump\t// out\n        /* \"#utility.yul\":27373:27597   */\n    tag_386:\n        /* \"#utility.yul\":27513:27547   */\n      0x45524332303a2064656372656173656420616c6c6f77616e63652062656c6f77\n        /* \"#utility.yul\":27509:27510   */\n      0x00\n        /* \"#utility.yul\":27501:27507   */\n      dup3\n        /* \"#utility.yul\":27497:27511   */\n      add\n        /* \"#utility.yul\":27490:27548   */\n      mstore\n        /* \"#utility.yul\":27582:27589   */\n      0x207a65726f000000000000000000000000000000000000000000000000000000\n        /* \"#utility.yul\":27577:27579   */\n      0x20\n        /* \"#utility.yul\":27569:27575   */\n      dup3\n        /* \"#utility.yul\":27565:27580   */\n      add\n        /* \"#utility.yul\":27558:27590   */\n      mstore\n        /* \"#utility.yul\":27373:27597   */\n      pop\n      jump\t// out\n        /* \"#utility.yul\":27603:27969   */\n    tag_387:\n        /* \"#utility.yul\":27745:27748   */\n      0x00\n        /* \"#utility.yul\":27766:27833   */\n      tag_678\n        /* \"#utility.yul\":27830:27832   */\n      0x25\n        /* \"#utility.yul\":27825:27828   */\n      dup4\n        /* \"#utility.yul\":27766:27833   */\n      tag_311\n      jump\t// in\n    tag_678:\n        /* \"#utility.yul\":27759:27833   */\n      swap2\n      pop\n        /* \"#utility.yul\":27842:27935   */\n      tag_679\n        /* \"#utility.yul\":27931:27934   */\n      dup3\n        /* \"#utility.yul\":27842:27935   */\n      tag_386\n      jump\t// in\n    tag_679:\n        /* \"#utility.yul\":27960:27962   */\n      0x40\n        /* \"#utility.yul\":27955:27958   */\n      dup3\n        /* \"#utility.yul\":27951:27963   */\n      add\n        /* \"#utility.yul\":27944:27963   */\n      swap1\n      pop\n        /* \"#utility.yul\":27603:27969   */\n      swap2\n      swap1\n      pop\n      jump\t// out\n        /* \"#utility.yul\":27975:28394   */\n    tag_224:\n        /* \"#utility.yul\":28141:28145   */\n      0x00\n        /* \"#utility.yul\":28179:28181   */\n      0x20\n        /* \"#utility.yul\":28168:28177   */\n      dup3\n        /* \"#utility.yul\":28164:28182   */\n      add\n        /* \"#utility.yul\":28156:28182   */\n      swap1\n      pop\n        /* \"#utility.yul\":28228:28237   */\n      dup2\n        /* \"#utility.yul\":28222:28226   */\n      dup2\n        /* \"#utility.yul\":28218:28238   */\n      sub\n        /* \"#utility.yul\":28214:28215   */\n      0x00\n        /* \"#utility.yul\":28203:28212   */\n      dup4\n        /* \"#utility.yul\":28199:28216   */\n      add\n        /* \"#utility.yul\":28192:28239   */\n      mstore\n        /* \"#utility.yul\":28256:28387   */\n      tag_681\n        /* \"#utility.yul\":28382:28386   */\n      dup2\n        /* \"#utility.yul\":28256:28387   */\n      tag_387\n      jump\t// in\n    tag_681:\n        /* \"#utility.yul\":28248:28387   */\n      swap1\n      pop\n        /* \"#utility.yul\":27975:28394   */\n      swap2\n      swap1\n      pop\n      jump\t// out\n        /* \"#utility.yul\":28400:28633   */\n    tag_253:\n        /* \"#utility.yul\":28439:28442   */\n      0x00\n        /* \"#utility.yul\":28462:28486   */\n      tag_683\n        /* \"#utility.yul\":28480:28485   */\n      dup3\n        /* \"#utility.yul\":28462:28486   */\n      tag_322\n      jump\t// in\n    tag_683:\n        /* \"#utility.yul\":28453:28486   */\n      swap2\n      pop\n        /* \"#utility.yul\":28508:28574   */\n      0xffffffffffffffffffffffffffffffffffffffffffffffffffffffffffffffff\n        /* \"#utility.yul\":28501:28506   */\n      dup3\n        /* \"#utility.yul\":28498:28575   */\n      sub\n        /* \"#utility.yul\":28495:28598   */\n      tag_684\n      jumpi\n        /* \"#utility.yul\":28578:28596   */\n      tag_685\n      tag_381\n      jump\t// in\n    tag_685:\n        /* \"#utility.yul\":28495:28598   */\n    tag_684:\n        /* \"#utility.yul\":28625:28626   */\n      0x01\n        /* \"#utility.yul\":28618:28623   */\n      dup3\n        /* \"#utility.yul\":28614:28627   */\n      add\n        /* \"#utility.yul\":28607:28627   */\n      swap1\n      pop\n        /* \"#utility.yul\":28400:28633   */\n      swap2\n      swap1\n      pop\n      jump\t// out\n        /* \"#utility.yul\":28639:28862   */\n    tag_388:\n        /* \"#utility.yul\":28779:28813   */\n      0x45524332303a20617070726f76652066726f6d20746865207a65726f20616464\n        /* \"#utility.yul\":28775:28776   */\n      0x00\n        /* \"#utility.yul\":28767:28773   */\n      dup3\n        /* \"#utility.yul\":28763:28777   */\n      add\n        /* \"#utility.yul\":28756:28814   */\n      mstore\n        /* \"#utility.yul\":28848:28854   */\n      0x7265737300000000000000000000000000000000000000000000000000000000\n        /* \"#utility.yul\":28843:28845   */\n      0x20\n        /* \"#utility.yul\":28835:28841   */\n      dup3\n        /* \"#utility.yul\":28831:28846   */\n      add\n        /* \"#utility.yul\":28824:28855   */\n      mstore\n        /* \"#utility.yul\":28639:28862   */\n      pop\n      jump\t// out\n        /* \"#utility.yul\":28868:29234   */\n    tag_389:\n        /* \"#utility.yul\":29010:29013   */\n      0x00\n        /* \"#utility.yul\":29031:29098   */\n      tag_688\n        /* \"#utility.yul\":29095:29097   */\n      0x24\n        /* \"#utility.yul\":29090:29093   */\n      dup4\n        /* \"#utility.yul\":29031:29098   */\n      tag_311\n      jump\t// in\n    tag_688:\n        /* \"#utility.yul\":29024:29098   */\n      swap2\n      pop\n        /* \"#utility.yul\":29107:29200   */\n      tag_689\n        /* \"#utility.yul\":29196:29199   */\n      dup3\n        /* \"#utility.yul\":29107:29200   */\n      tag_388\n      jump\t// in\n    tag_689:\n        /* \"#utility.yul\":29225:29227   */\n      0x40\n        /* \"#utility.yul\":29220:29223   */\n      dup3\n        /* \"#utility.yul\":29216:29228   */\n      add\n        /* \"#utility.yul\":29209:29228   */\n      swap1\n      pop\n        /* \"#utility.yul\":28868:29234   */\n      swap2\n      swap1\n      pop\n      jump\t// out\n        /* \"#utility.yul\":29240:29659   */\n    tag_263:\n        /* \"#utility.yul\":29406:29410   */\n      0x00\n        /* \"#utility.yul\":29444:29446   */\n      0x20\n        /* \"#utility.yul\":29433:29442   */\n      dup3\n        /* \"#utility.yul\":29429:29447   */\n      add\n        /* \"#utility.yul\":29421:29447   */\n      swap1\n      pop\n        /* \"#utility.yul\":29493:29502   */\n      dup2\n        /* \"#utility.yul\":29487:29491   */\n      dup2\n        /* \"#utility.yul\":29483:29503   */\n      sub\n        /* \"#utility.yul\":29479:29480   */\n      0x00\n        /* \"#utility.yul\":29468:29477   */\n      dup4\n        /* \"#utility.yul\":29464:29481   */\n      add\n        /* \"#utility.yul\":29457:29504   */\n      mstore\n        /* \"#utility.yul\":29521:29652   */\n      tag_691\n        /* \"#utility.yul\":29647:29651   */\n      dup2\n        /* \"#utility.yul\":29521:29652   */\n      tag_389\n      jump\t// in\n    tag_691:\n        /* \"#utility.yul\":29513:29652   */\n      swap1\n      pop\n        /* \"#utility.yul\":29240:29659   */\n      swap2\n      swap1\n      pop\n      jump\t// out\n        /* \"#utility.yul\":29665:29886   */\n    tag_390:\n        /* \"#utility.yul\":29805:29839   */\n      0x45524332303a20617070726f766520746f20746865207a65726f206164647265\n        /* \"#utility.yul\":29801:29802   */\n      0x00\n        /* \"#utility.yul\":29793:29799   */\n      dup3\n        /* \"#utility.yul\":29789:29803   */\n      add\n        /* \"#utility.yul\":29782:29840   */\n      mstore\n        /* \"#utility.yul\":29874:29878   */\n      0x7373000000000000000000000000000000000000000000000000000000000000\n        /* \"#utility.yul\":29869:29871   */\n      0x20\n        /* \"#utility.yul\":29861:29867   */\n      dup3\n        /* \"#utility.yul\":29857:29872   */\n      add\n        /* \"#utility.yul\":29850:29879   */\n      mstore\n        /* \"#utility.yul\":29665:29886   */\n      pop\n      jump\t// out\n        /* \"#utility.yul\":29892:30258   */\n    tag_391:\n        /* \"#utility.yul\":30034:30037   */\n      0x00\n        /* \"#utility.yul\":30055:30122   */\n      tag_694\n        /* \"#utility.yul\":30119:30121   */\n      0x22\n        /* \"#utility.yul\":30114:30117   */\n      dup4\n        /* \"#utility.yul\":30055:30122   */\n      tag_311\n      jump\t// in\n    tag_694:\n        /* \"#utility.yul\":30048:30122   */\n      swap2\n      pop\n        /* \"#utility.yul\":30131:30224   */\n      tag_695\n        /* \"#utility.yul\":30220:30223   */\n      dup3\n        /* \"#utility.yul\":30131:30224   */\n      tag_390\n      jump\t// in\n    tag_695:\n        /* \"#utility.yul\":30249:30251   */\n      0x40\n        /* \"#utility.yul\":30244:30247   */\n      dup3\n        /* \"#utility.yul\":30240:30252   */\n      add\n        /* \"#utility.yul\":30233:30252   */\n      swap1\n      pop\n        /* \"#utility.yul\":29892:30258   */\n      swap2\n      swap1\n      pop\n      jump\t// out\n        /* \"#utility.yul\":30264:30683   */\n    tag_266:\n        /* \"#utility.yul\":30430:30434   */\n      0x00\n        /* \"#utility.yul\":30468:30470   */\n      0x20\n        /* \"#utility.yul\":30457:30466   */\n      dup3\n        /* \"#utility.yul\":30453:30471   */\n      add\n        /* \"#utility.yul\":30445:30471   */\n      swap1\n      pop\n        /* \"#utility.yul\":30517:30526   */\n      dup2\n        /* \"#utility.yul\":30511:30515   */\n      dup2\n        /* \"#utility.yul\":30507:30527   */\n      sub\n        /* \"#utility.yul\":30503:30504   */\n      0x00\n        /* \"#utility.yul\":30492:30501   */\n      dup4\n        /* \"#utility.yul\":30488:30505   */\n      add\n        /* \"#utility.yul\":30481:30528   */\n      mstore\n        /* \"#utility.yul\":30545:30676   */\n      tag_697\n        /* \"#utility.yul\":30671:30675   */\n      dup2\n        /* \"#utility.yul\":30545:30676   */\n      tag_391\n      jump\t// in\n    tag_697:\n        /* \"#utility.yul\":30537:30676   */\n      swap1\n      pop\n        /* \"#utility.yul\":30264:30683   */\n      swap2\n      swap1\n      pop\n      jump\t// out\n        /* \"#utility.yul\":30689:30913   */\n    tag_392:\n        /* \"#utility.yul\":30829:30863   */\n      0x45524332303a207472616e736665722066726f6d20746865207a65726f206164\n        /* \"#utility.yul\":30825:30826   */\n      0x00\n        /* \"#utility.yul\":30817:30823   */\n      dup3\n        /* \"#utility.yul\":30813:30827   */\n      add\n        /* \"#utility.yul\":30806:30864   */\n      mstore\n        /* \"#utility.yul\":30898:30905   */\n      0x6472657373000000000000000000000000000000000000000000000000000000\n        /* \"#utility.yul\":30893:30895   */\n      0x20\n        /* \"#utility.yul\":30885:30891   */\n      dup3\n        /* \"#utility.yul\":30881:30896   */\n      add\n        /* \"#utility.yul\":30874:30906   */\n      mstore\n        /* \"#utility.yul\":30689:30913   */\n      pop\n      jump\t// out\n        /* \"#utility.yul\":30919:31285   */\n    tag_393:\n        /* \"#utility.yul\":31061:31064   */\n      0x00\n        /* \"#utility.yul\":31082:31149   */\n      tag_700\n        /* \"#utility.yul\":31146:31148   */\n      0x25\n        /* \"#utility.yul\":31141:31144   */\n      dup4\n        /* \"#utility.yul\":31082:31149   */\n      tag_311\n      jump\t// in\n    tag_700:\n        /* \"#utility.yul\":31075:31149   */\n      swap2\n      pop\n        /* \"#utility.yul\":31158:31251   */\n      tag_701\n        /* \"#utility.yul\":31247:31250   */\n      dup3\n        /* \"#utility.yul\":31158:31251   */\n      tag_392\n      jump\t// in\n    tag_701:\n        /* \"#utility.yul\":31276:31278   */\n      0x40\n        /* \"#utility.yul\":31271:31274   */\n      dup3\n        /* \"#utility.yul\":31267:31279   */\n      add\n        /* \"#utility.yul\":31260:31279   */\n      swap1\n      pop\n        /* \"#utility.yul\":30919:31285   */\n      swap2\n      swap1\n      pop\n      jump\t// out\n        /* \"#utility.yul\":31291:31710   */\n    tag_277:\n        /* \"#utility.yul\":31457:31461   */\n      0x00\n        /* \"#utility.yul\":31495:31497   */\n      0x20\n        /* \"#utility.yul\":31484:31493   */\n      dup3\n        /* \"#utility.yul\":31480:31498   */\n      add\n        /* \"#utility.yul\":31472:31498   */\n      swap1\n      pop\n        /* \"#utility.yul\":31544:31553   */\n      dup2\n        /* \"#utility.yul\":31538:31542   */\n      dup2\n        /* \"#utility.yul\":31534:31554   */\n      sub\n        /* \"#utility.yul\":31530:31531   */\n      0x00\n        /* \"#utility.yul\":31519:31528   */\n      dup4\n        /* \"#utility.yul\":31515:31532   */\n      add\n        /* \"#utility.yul\":31508:31555   */\n      mstore\n        /* \"#utility.yul\":31572:31703   */\n      tag_703\n        /* \"#utility.yul\":31698:31702   */\n      dup2\n        /* \"#utility.yul\":31572:31703   */\n      tag_393\n      jump\t// in\n    tag_703:\n        /* \"#utility.yul\":31564:31703   */\n      swap1\n      pop\n        /* \"#utility.yul\":31291:31710   */\n      swap2\n      swap1\n      pop\n      jump\t// out\n        /* \"#utility.yul\":31716:31938   */\n    tag_394:\n        /* \"#utility.yul\":31856:31890   */\n      0x45524332303a207472616e7366657220746f20746865207a65726f2061646472\n        /* \"#utility.yul\":31852:31853   */\n      0x00\n        /* \"#utility.yul\":31844:31850   */\n      dup3\n        /* \"#utility.yul\":31840:31854   */\n      add\n        /* \"#utility.yul\":31833:31891   */\n      mstore\n        /* \"#utility.yul\":31925:31930   */\n      0x6573730000000000000000000000000000000000000000000000000000000000\n        /* \"#utility.yul\":31920:31922   */\n      0x20\n        /* \"#utility.yul\":31912:31918   */\n      dup3\n        /* \"#utility.yul\":31908:31923   */\n      add\n        /* \"#utility.yul\":31901:31931   */\n      mstore\n        /* \"#utility.yul\":31716:31938   */\n      pop\n      jump\t// out\n        /* \"#utility.yul\":31944:32310   */\n    tag_395:\n        /* \"#utility.yul\":32086:32089   */\n      0x00\n        /* \"#utility.yul\":32107:32174   */\n      tag_706\n        /* \"#utility.yul\":32171:32173   */\n      0x23\n        /* \"#utility.yul\":32166:32169   */\n      dup4\n        /* \"#utility.yul\":32107:32174   */\n      tag_311\n      jump\t// in\n    tag_706:\n        /* \"#utility.yul\":32100:32174   */\n      swap2\n      pop\n        /* \"#utility.yul\":32183:32276   */\n      tag_707\n        /* \"#utility.yul\":32272:32275   */\n      dup3\n        /* \"#utility.yul\":32183:32276   */\n      tag_394\n      jump\t// in\n    tag_707:\n        /* \"#utility.yul\":32301:32303   */\n      0x40\n        /* \"#utility.yul\":32296:32299   */\n      dup3\n        /* \"#utility.yul\":32292:32304   */\n      add\n        /* \"#utility.yul\":32285:32304   */\n      swap1\n      pop\n        /* \"#utility.yul\":31944:32310   */\n      swap2\n      swap1\n      pop\n      jump\t// out\n        /* \"#utility.yul\":32316:32735   */\n    tag_280:\n        /* \"#utility.yul\":32482:32486   */\n      0x00\n        /* \"#utility.yul\":32520:32522   */\n      0x20\n        /* \"#utility.yul\":32509:32518   */\n      dup3\n        /* \"#utility.yul\":32505:32523   */\n      add\n        /* \"#utility.yul\":32497:32523   */\n      swap1\n      pop\n        /* \"#utility.yul\":32569:32578   */\n      dup2\n        /* \"#utility.yul\":32563:32567   */\n      dup2\n        /* \"#utility.yul\":32559:32579   */\n      sub\n        /* \"#utility.yul\":32555:32556   */\n      0x00\n        /* \"#utility.yul\":32544:32553   */\n      dup4\n        /* \"#utility.yul\":32540:32557   */\n      add\n        /* \"#utility.yul\":32533:32580   */\n      mstore\n        /* \"#utility.yul\":32597:32728   */\n      tag_709\n        /* \"#utility.yul\":32723:32727   */\n      dup2\n        /* \"#utility.yul\":32597:32728   */\n      tag_395\n      jump\t// in\n    tag_709:\n        /* \"#utility.yul\":32589:32728   */\n      swap1\n      pop\n        /* \"#utility.yul\":32316:32735   */\n      swap2\n      swap1\n      pop\n      jump\t// out\n        /* \"#utility.yul\":32741:32966   */\n    tag_396:\n        /* \"#utility.yul\":32881:32915   */\n      0x45524332303a207472616e7366657220616d6f756e7420657863656564732062\n        /* \"#utility.yul\":32877:32878   */\n      0x00\n        /* \"#utility.yul\":32869:32875   */\n      dup3\n        /* \"#utility.yul\":32865:32879   */\n      add\n        /* \"#utility.yul\":32858:32916   */\n      mstore\n        /* \"#utility.yul\":32950:32958   */\n      0x616c616e63650000000000000000000000000000000000000000000000000000\n        /* \"#utility.yul\":32945:32947   */\n      0x20\n        /* \"#utility.yul\":32937:32943   */\n      dup3\n        /* \"#utility.yul\":32933:32948   */\n      add\n        /* \"#utility.yul\":32926:32959   */\n      mstore\n        /* \"#utility.yul\":32741:32966   */\n      pop\n      jump\t// out\n        /* \"#utility.yul\":32972:33338   */\n    tag_397:\n        /* \"#utility.yul\":33114:33117   */\n      0x00\n        /* \"#utility.yul\":33135:33202   */\n      tag_712\n        /* \"#utility.yul\":33199:33201   */\n      0x26\n        /* \"#utility.yul\":33194:33197   */\n      dup4\n        /* \"#utility.yul\":33135:33202   */\n      tag_311\n      jump\t// in\n    tag_712:\n        /* \"#utility.yul\":33128:33202   */\n      swap2\n      pop\n        /* \"#utility.yul\":33211:33304   */\n      tag_713\n        /* \"#utility.yul\":33300:33303   */\n      dup3\n        /* \"#utility.yul\":33211:33304   */\n      tag_396\n      jump\t// in\n    tag_713:\n        /* \"#utility.yul\":33329:33331   */\n      0x40\n        /* \"#utility.yul\":33324:33327   */\n      dup3\n        /* \"#utility.yul\":33320:33332   */\n      add\n        /* \"#utility.yul\":33313:33332   */\n      swap1\n      pop\n        /* \"#utility.yul\":32972:33338   */\n      swap2\n      swap1\n      pop\n      jump\t// out\n        /* \"#utility.yul\":33344:33763   */\n    tag_285:\n        /* \"#utility.yul\":33510:33514   */\n      0x00\n        /* \"#utility.yul\":33548:33550   */\n      0x20\n        /* \"#utility.yul\":33537:33546   */\n      dup3\n        /* \"#utility.yul\":33533:33551   */\n      add\n        /* \"#utility.yul\":33525:33551   */\n      swap1\n      pop\n        /* \"#utility.yul\":33597:33606   */\n      dup2\n        /* \"#utility.yul\":33591:33595   */\n      dup2\n        /* \"#utility.yul\":33587:33607   */\n      sub\n        /* \"#utility.yul\":33583:33584   */\n      0x00\n        /* \"#utility.yul\":33572:33581   */\n      dup4\n        /* \"#utility.yul\":33568:33585   */\n      add\n        /* \"#utility.yul\":33561:33608   */\n      mstore\n        /* \"#utility.yul\":33625:33756   */\n      tag_715\n        /* \"#utility.yul\":33751:33755   */\n      dup2\n        /* \"#utility.yul\":33625:33756   */\n      tag_397\n      jump\t// in\n    tag_715:\n        /* \"#utility.yul\":33617:33756   */\n      swap1\n      pop\n        /* \"#utility.yul\":33344:33763   */\n      swap2\n      swap1\n      pop\n      jump\t// out\n        /* \"#utility.yul\":33769:33990   */\n    tag_398:\n        /* \"#utility.yul\":33909:33943   */\n      0x456e756d657261626c655365743a20696e646578206f7574206f6620626f756e\n        /* \"#utility.yul\":33905:33906   */\n      0x00\n        /* \"#utility.yul\":33897:33903   */\n      dup3\n        /* \"#utility.yul\":33893:33907   */\n      add\n        /* \"#utility.yul\":33886:33944   */\n      mstore\n        /* \"#utility.yul\":33978:33982   */\n      0x6473000000000000000000000000000000000000000000000000000000000000\n        /* \"#utility.yul\":33973:33975   */\n      0x20\n        /* \"#utility.yul\":33965:33971   */\n      dup3\n        /* \"#utility.yul\":33961:33976   */\n      add\n        /* \"#utility.yul\":33954:33983   */\n      mstore\n        /* \"#utility.yul\":33769:33990   */\n      pop\n      jump\t// out\n        /* \"#utility.yul\":33996:34362   */\n    tag_399:\n        /* \"#utility.yul\":34138:34141   */\n      0x00\n        /* \"#utility.yul\":34159:34226   */\n      tag_718\n        /* \"#utility.yul\":34223:34225   */\n      0x22\n        /* \"#utility.yul\":34218:34221   */\n      dup4\n        /* \"#utility.yul\":34159:34226   */\n      tag_311\n      jump\t// in\n    tag_718:\n        /* \"#utility.yul\":34152:34226   */\n      swap2\n      pop\n        /* \"#utility.yul\":34235:34328   */\n      tag_719\n        /* \"#utility.yul\":34324:34327   */\n      dup3\n        /* \"#utility.yul\":34235:34328   */\n      tag_398\n      jump\t// in\n    tag_719:\n        /* \"#utility.yul\":34353:34355   */\n      0x40\n        /* \"#utility.yul\":34348:34351   */\n      dup3\n        /* \"#utility.yul\":34344:34356   */\n      add\n        /* \"#utility.yul\":34337:34356   */\n      swap1\n      pop\n        /* \"#utility.yul\":33996:34362   */\n      swap2\n      swap1\n      pop\n      jump\t// out\n        /* \"#utility.yul\":34368:34787   */\n    tag_306:\n        /* \"#utility.yul\":34534:34538   */\n      0x00\n        /* \"#utility.yul\":34572:34574   */\n      0x20\n        /* \"#utility.yul\":34561:34570   */\n      dup3\n        /* \"#utility.yul\":34557:34575   */\n      add\n        /* \"#utility.yul\":34549:34575   */\n      swap1\n      pop\n        /* \"#utility.yul\":34621:34630   */\n      dup2\n        /* \"#utility.yul\":34615:34619   */\n      dup2\n        /* \"#utility.yul\":34611:34631   */\n      sub\n        /* \"#utility.yul\":34607:34608   */\n      0x00\n        /* \"#utility.yul\":34596:34605   */\n      dup4\n        /* \"#utility.yul\":34592:34609   */\n      add\n        /* \"#utility.yul\":34585:34632   */\n      mstore\n        /* \"#utility.yul\":34649:34780   */\n      tag_721\n        /* \"#utility.yul\":34775:34779   */\n      dup2\n        /* \"#utility.yul\":34649:34780   */\n      tag_399\n      jump\t// in\n    tag_721:\n        /* \"#utility.yul\":34641:34780   */\n      swap1\n      pop\n        /* \"#utility.yul\":34368:34787   */\n      swap2\n      swap1\n      pop\n      jump\t// out\n\n    auxdata: 0xa264697066735822122092eb1b02f1de81099b7e12857aaca04b64276ceb289454f5258bac0f11c53a2a64736f6c63430008110033\n}\n",
				"bytecode": {
					"linkReferences": {},
					"object": "60806040523480156200001157600080fd5b50604051620033ba380380620033ba83398181016040528101906200003791906200025a565b818181600390816200004a91906200052a565b5080600490816200005c91906200052a565b505050620f4240600560006101000a81548162ffffff021916908362ffffff1602179055506064600560036101000a81548162ffffff021916908362ffffff160217905550600960018160018154018082558091505003906000526020600020905050505062000611565b6000604051905090565b600080fd5b600080fd5b600080fd5b600080fd5b6000601f19601f8301169050919050565b7f4e487b7100000000000000000000000000000000000000000000000000000000600052604160045260246000fd5b6200013082620000e5565b810181811067ffffffffffffffff82111715620001525762000151620000f6565b5b80604052505050565b600062000167620000c7565b905062000175828262000125565b919050565b600067ffffffffffffffff821115620001985762000197620000f6565b5b620001a382620000e5565b9050602081019050919050565b60005b83811015620001d0578082015181840152602081019050620001b3565b60008484015250505050565b6000620001f3620001ed846200017a565b6200015b565b905082815260208101848484011115620002125762000211620000e0565b5b6200021f848285620001b0565b509392505050565b600082601f8301126200023f576200023e620000db565b5b815162000251848260208601620001dc565b91505092915050565b60008060408385031215620002745762000273620000d1565b5b600083015167ffffffffffffffff811115620002955762000294620000d6565b5b620002a38582860162000227565b925050602083015167ffffffffffffffff811115620002c757620002c6620000d6565b5b620002d58582860162000227565b9150509250929050565b600081519050919050565b7f4e487b7100000000000000000000000000000000000000000000000000000000600052602260045260246000fd5b600060028204905060018216806200033257607f821691505b602082108103620003485762000347620002ea565b5b50919050565b60008190508160005260206000209050919050565b60006020601f8301049050919050565b600082821b905092915050565b600060088302620003b27fffffffffffffffffffffffffffffffffffffffffffffffffffffffffffffffff8262000373565b620003be868362000373565b95508019841693508086168417925050509392505050565b6000819050919050565b6000819050919050565b60006200040b62000405620003ff84620003d6565b620003e0565b620003d6565b9050919050565b6000819050919050565b6200042783620003ea565b6200043f620004368262000412565b84845462000380565b825550505050565b600090565b6200045662000447565b620004638184846200041c565b505050565b5b818110156200048b576200047f6000826200044c565b60018101905062000469565b5050565b601f821115620004da57620004a4816200034e565b620004af8462000363565b81016020851015620004bf578190505b620004d7620004ce8562000363565b83018262000468565b50505b505050565b600082821c905092915050565b6000620004ff60001984600802620004df565b1980831691505092915050565b60006200051a8383620004ec565b9150826002028217905092915050565b6200053582620002df565b67ffffffffffffffff811115620005515762000550620000f6565b5b6200055d825462000319565b6200056a8282856200048f565b600060209050601f831160018114620005a257600084156200058d578287015190505b6200059985826200050c565b86555062000609565b601f198416620005b2866200034e565b60005b82811015620005dc57848901518255600182019150602085019450602081019050620005b5565b86831015620005fc5784890151620005f8601f891682620004ec565b8355505b6001600288020188555050505b505050505050565b612d9980620006216000396000f3fe608060405234801561001057600080fd5b50600436106101375760003560e01c806370a08231116100b85780639668ceb81161007c5780639668ceb814610366578063a457c2d714610384578063a9059cbb146103b4578063d5abeb01146103e4578063dd62ed3e14610402578063fca228421461043257610137565b806370a08231146102ac57806373b2e80e146102dc578063830953ab1461030c5780638da5cb5b1461032a57806395d89b411461034857610137565b806323b872dd116100ff57806323b872dd146101f457806327e235e314610224578063313ce5671461025457806339509351146102725780634e71d92d146102a257610137565b806306fdde031461013c578063095ea7b31461015a5780630c6a86151461018a57806318160ddd146101ba57806321e4c301146101d8575b600080fd5b610144610462565b6040516101519190611af2565b60405180910390f35b610174600480360381019061016f9190611bbc565b6104f4565b6040516101819190611c17565b60405180910390f35b6101a4600480360381019061019f9190611da2565b610512565b6040516101b19190611e0d565b60405180910390f35b6101c261067e565b6040516101cf9190611e0d565b60405180910390f35b6101f260048036038101906101ed9190611e4d565b610688565b005b61020e60048036038101906102099190611e8d565b610a89565b60405161021b9190611c17565b60405180910390f35b61023e60048036038101906102399190611ee0565b610b8a565b60405161024b9190611f1c565b60405180910390f35b61025c610bac565b6040516102699190611f53565b60405180910390f35b61028c60048036038101906102879190611bbc565b610bb5565b6040516102999190611c17565b60405180910390f35b6102aa610c61565b005b6102c660048036038101906102c19190611ee0565b610e7c565b6040516102d39190611e0d565b60405180910390f35b6102f660048036038101906102f19190611ee0565b610ec4565b6040516103039190611c17565b60405180910390f35b610314610ee4565b6040516103219190611f1c565b60405180910390f35b610332610ef9565b60405161033f9190611f7d565b60405180910390f35b610350610f1f565b60405161035d9190611af2565b60405180910390f35b61036e610fb1565b60405161037b9190611f1c565b60405180910390f35b61039e60048036038101906103999190611bbc565b610fc6565b6040516103ab9190611c17565b60405180910390f35b6103ce60048036038101906103c99190611bbc565b6110ba565b6040516103db9190611c17565b60405180910390f35b6103ec6110d8565b6040516103f99190611f1c565b60405180910390f35b61041c60048036038101906104179190611f98565b6110ed565b6040516104299190611e0d565b60405180910390f35b61044c60048036038101906104479190611fd8565b611174565b60405161045991906121f7565b60405180910390f35b60606003805461047190612248565b80601f016020809104026020016040519081016040528092919081815260200182805461049d90612248565b80156104ea5780601f106104bf576101008083540402835291602001916104ea565b820191906000526020600020905b8154815290600101906020018083116104cd57829003601f168201915b5050505050905090565b60006105086105016113ff565b8484611407565b6001905092915050565b600080600660003373ffffffffffffffffffffffffffffffffffffffff1673ffffffffffffffffffffffffffffffffffffffff16815260200190815260200160002060009054906101000a900462ffffff1662ffffff16116105a9576040517f08c379a00000000000000000000000000000000000000000000000000000000081526004016105a0906122eb565b60405180910390fd5b6105b161067e565b8262ffffff1611156105f8576040517f08c379a00000000000000000000000000000000000000000000000000000000081526004016105ef9061237d565b60405180910390fd5b60098054905090506009600181600181540180825580915050039060005260206000209050506000600982815481106106345761063361239d565b5b90600052602060002090600402019050838160020190816106559190612578565b508281600301600c6101000a81548162ffffff021916908362ffffff1602179055505092915050565b6000600254905090565b60098262ffffff16815481106106a1576106a061239d565b5b906000526020600020906004020160030160109054906101000a900460ff1615610700576040517f08c379a00000000000000000000000000000000000000000000000000000000081526004016106f790612696565b60405180910390fd5b61073c3360098462ffffff168154811061071d5761071c61239d565b5b90600052602060002090600402016000016115d090919063ffffffff16565b1561077c576040517f08c379a000000000000000000000000000000000000000000000000000000000815260040161077390612702565b60405180910390fd5b600060098362ffffff16815481106107975761079661239d565b5b906000526020600020906004020190506000600660003373ffffffffffffffffffffffffffffffffffffffff1673ffffffffffffffffffffffffffffffffffffffff16815260200190815260200160002060009054906101000a900462ffffff1690506001600281111561080e5761080d612722565b5b83600281111561082157610820612722565b5b0361086957808260030160008282829054906101000a900462ffffff166108489190612780565b92506101000a81548162ffffff021916908362ffffff160217905550610983565b6000600281111561087d5761087c612722565b5b8360028111156108905761088f612722565b5b036108d857808260030160038282829054906101000a900462ffffff166108b79190612780565b92506101000a81548162ffffff021916908362ffffff160217905550610982565b6002808111156108eb576108ea612722565b5b8360028111156108fe576108fd612722565b5b0361094657808260030160068282829054906101000a900462ffffff166109259190612780565b92506101000a81548162ffffff021916908362ffffff160217905550610981565b6040517f08c379a000000000000000000000000000000000000000000000000000000000815260040161097890612803565b60405180910390fd5b5b5b808260030160098282829054906101000a900462ffffff166109a59190612780565b92506101000a81548162ffffff021916908362ffffff1602179055506109d7338360000161160090919063ffffffff16565b5081600301600c9054906101000a900462ffffff1662ffffff168260030160099054906101000a900462ffffff1662ffffff1610610a835760018260030160106101000a81548160ff0219169083151502179055508160030160039054906101000a900462ffffff1662ffffff168260030160009054906101000a900462ffffff1662ffffff161115610a8257600182600301600f6101000a81548160ff0219169083151502179055505b5b50505050565b6000610a96848484611630565b6000600160008673ffffffffffffffffffffffffffffffffffffffff1673ffffffffffffffffffffffffffffffffffffffff1681526020019081526020016000206000610ae16113ff565b73ffffffffffffffffffffffffffffffffffffffff1673ffffffffffffffffffffffffffffffffffffffff16815260200190815260200160002054905082811015610b61576040517f08c379a0000000000000000000000000000000000000000000000000000000008152600401610b5890612895565b60405180910390fd5b610b7e85610b6d6113ff565b8584610b7991906128b5565b611407565b60019150509392505050565b60066020528060005260406000206000915054906101000a900462ffffff1681565b60006012905090565b6000610c57610bc26113ff565b848460016000610bd06113ff565b73ffffffffffffffffffffffffffffffffffffffff1673ffffffffffffffffffffffffffffffffffffffff16815260200190815260200160002060008873ffffffffffffffffffffffffffffffffffffffff1673ffffffffffffffffffffffffffffffffffffffff16815260200190815260200160002054610c5291906128e9565b611407565b6001905092915050565b600560009054906101000a900462ffffff1662ffffff16600560069054906101000a900462ffffff1662ffffff161115610cc7576040517fcbe2483100000000000000000000000000000000000000000000000000000000815260040160405180910390fd5b600760003373ffffffffffffffffffffffffffffffffffffffff1673ffffffffffffffffffffffffffffffffffffffff16815260200190815260200160002060009054906101000a900460ff1615610d4b576040517f0b1327a600000000000000000000000000000000000000000000000000000000815260040160405180910390fd5b600560039054906101000a900462ffffff16600660003373ffffffffffffffffffffffffffffffffffffffff1673ffffffffffffffffffffffffffffffffffffffff16815260200190815260200160002060008282829054906101000a900462ffffff16610db99190612780565b92506101000a81548162ffffff021916908362ffffff160217905550600560039054906101000a900462ffffff16600560068282829054906101000a900462ffffff16610e069190612780565b92506101000a81548162ffffff021916908362ffffff1602179055506001600760003373ffffffffffffffffffffffffffffffffffffffff1673ffffffffffffffffffffffffffffffffffffffff16815260200190815260200160002060006101000a81548160ff021916908315150217905550565b60008060008373ffffffffffffffffffffffffffffffffffffffff1673ffffffffffffffffffffffffffffffffffffffff168152602001908152602001600020549050919050565b60076020528060005260406000206000915054906101000a900460ff1681565b600560039054906101000a900462ffffff1681565b600860009054906101000a900473ffffffffffffffffffffffffffffffffffffffff1681565b606060048054610f2e90612248565b80601f0160208091040260200160405190810160405280929190818152602001828054610f5a90612248565b8015610fa75780601f10610f7c57610100808354040283529160200191610fa7565b820191906000526020600020905b815481529060010190602001808311610f8a57829003601f168201915b5050505050905090565b600560069054906101000a900462ffffff1681565b60008060016000610fd56113ff565b73ffffffffffffffffffffffffffffffffffffffff1673ffffffffffffffffffffffffffffffffffffffff16815260200190815260200160002060008573ffffffffffffffffffffffffffffffffffffffff1673ffffffffffffffffffffffffffffffffffffffff16815260200190815260200160002054905082811015611092576040517f08c379a00000000000000000000000000000000000000000000000000000000081526004016110899061298f565b60405180910390fd5b6110af61109d6113ff565b8585846110aa91906128b5565b611407565b600191505092915050565b60006110ce6110c76113ff565b8484611630565b6001905092915050565b600560009054906101000a900462ffffff1681565b6000600160008473ffffffffffffffffffffffffffffffffffffffff1673ffffffffffffffffffffffffffffffffffffffff16815260200190815260200160002060008373ffffffffffffffffffffffffffffffffffffffff1673ffffffffffffffffffffffffffffffffffffffff16815260200190815260200160002054905092915050565b61117c6119f9565b600060098362ffffff16815481106111975761119661239d565b5b9060005260206000209060040201905060006111b5826000016118ad565b67ffffffffffffffff8111156111ce576111cd611c3c565b5b6040519080825280602002602001820160405280156111fc5781602001602082028036833780820191505090505b50905060005b61120e836000016118ad565b81101561128b5761122b81846000016118c290919063ffffffff16565b82828151811061123e5761123d61239d565b5b602002602001019073ffffffffffffffffffffffffffffffffffffffff16908173ffffffffffffffffffffffffffffffffffffffff16815250508080611283906129af565b915050611202565b506040518061012001604052808281526020018360020180546112ad90612248565b80601f01602080910402602001604051908101604052809291908181526020018280546112d990612248565b80156113265780601f106112fb57610100808354040283529160200191611326565b820191906000526020600020905b81548152906001019060200180831161130957829003601f168201915b505050505081526020018360030160009054906101000a900462ffffff1662ffffff1681526020018360030160039054906101000a900462ffffff1662ffffff1681526020018360030160069054906101000a900462ffffff1662ffffff1681526020018360030160099054906101000a900462ffffff1662ffffff16815260200183600301600c9054906101000a900462ffffff1662ffffff16815260200183600301600f9054906101000a900460ff16151581526020018360030160109054906101000a900460ff16151581525092505050919050565b600033905090565b600073ffffffffffffffffffffffffffffffffffffffff168373ffffffffffffffffffffffffffffffffffffffff1603611476576040517f08c379a000000000000000000000000000000000000000000000000000000000815260040161146d90612a69565b60405180910390fd5b600073ffffffffffffffffffffffffffffffffffffffff168273ffffffffffffffffffffffffffffffffffffffff16036114e5576040517f08c379a00000000000000000000000000000000000000000000000000000000081526004016114dc90612afb565b60405180910390fd5b80600160008573ffffffffffffffffffffffffffffffffffffffff1673ffffffffffffffffffffffffffffffffffffffff16815260200190815260200160002060008473ffffffffffffffffffffffffffffffffffffffff1673ffffffffffffffffffffffffffffffffffffffff168152602001908152602001600020819055508173ffffffffffffffffffffffffffffffffffffffff168373ffffffffffffffffffffffffffffffffffffffff167f8c5be1e5ebec7d5bd14f71427d1e84f3dd0314c0f7b2291e5b200ac8c7c3b925836040516115c39190611e0d565b60405180910390a3505050565b60006115f8836000018373ffffffffffffffffffffffffffffffffffffffff1660001b6118dc565b905092915050565b6000611628836000018373ffffffffffffffffffffffffffffffffffffffff1660001b6118ff565b905092915050565b600073ffffffffffffffffffffffffffffffffffffffff168373ffffffffffffffffffffffffffffffffffffffff160361169f576040517f08c379a000000000000000000000000000000000000000000000000000000000815260040161169690612b8d565b60405180910390fd5b600073ffffffffffffffffffffffffffffffffffffffff168273ffffffffffffffffffffffffffffffffffffffff160361170e576040517f08c379a000000000000000000000000000000000000000000000000000000000815260040161170590612c1f565b60405180910390fd5b61171983838361196f565b60008060008573ffffffffffffffffffffffffffffffffffffffff1673ffffffffffffffffffffffffffffffffffffffff1681526020019081526020016000205490508181101561179f576040517f08c379a000000000000000000000000000000000000000000000000000000000815260040161179690612cb1565b60405180910390fd5b81816117ab91906128b5565b6000808673ffffffffffffffffffffffffffffffffffffffff1673ffffffffffffffffffffffffffffffffffffffff16815260200190815260200160002081905550816000808573ffffffffffffffffffffffffffffffffffffffff1673ffffffffffffffffffffffffffffffffffffffff168152602001908152602001600020600082825461183b91906128e9565b925050819055508273ffffffffffffffffffffffffffffffffffffffff168473ffffffffffffffffffffffffffffffffffffffff167fddf252ad1be2c89b69c2b068fc378daa952ba7f163c4a11628f55a4df523b3ef8460405161189f9190611e0d565b60405180910390a350505050565b60006118bb82600001611974565b9050919050565b60006118d18360000183611985565b60001c905092915050565b600080836001016000848152602001908152602001600020541415905092915050565b600061190b83836118dc565b611964578260000182908060018154018082558091505060019003906000526020600020016000909190919091505582600001805490508360010160008481526020019081526020016000208190555060019050611969565b600090505b92915050565b505050565b600081600001805490509050919050565b6000818360000180549050116119d0576040517f08c379a00000000000000000000000000000000000000000000000000000000081526004016119c790612d43565b60405180910390fd5b8260000182815481106119e6576119e561239d565b5b9060005260206000200154905092915050565b6040518061012001604052806060815260200160608152602001600062ffffff168152602001600062ffffff168152602001600062ffffff168152602001600062ffffff168152602001600062ffffff1681526020016000151581526020016000151581525090565b600081519050919050565b600082825260208201905092915050565b60005b83811015611a9c578082015181840152602081019050611a81565b60008484015250505050565b6000601f19601f8301169050919050565b6000611ac482611a62565b611ace8185611a6d565b9350611ade818560208601611a7e565b611ae781611aa8565b840191505092915050565b60006020820190508181036000830152611b0c8184611ab9565b905092915050565b6000604051905090565b600080fd5b600080fd5b600073ffffffffffffffffffffffffffffffffffffffff82169050919050565b6000611b5382611b28565b9050919050565b611b6381611b48565b8114611b6e57600080fd5b50565b600081359050611b8081611b5a565b92915050565b6000819050919050565b611b9981611b86565b8114611ba457600080fd5b50565b600081359050611bb681611b90565b92915050565b60008060408385031215611bd357611bd2611b1e565b5b6000611be185828601611b71565b9250506020611bf285828601611ba7565b9150509250929050565b60008115159050919050565b611c1181611bfc565b82525050565b6000602082019050611c2c6000830184611c08565b92915050565b600080fd5b600080fd5b7f4e487b7100000000000000000000000000000000000000000000000000000000600052604160045260246000fd5b611c7482611aa8565b810181811067ffffffffffffffff82111715611c9357611c92611c3c565b5b80604052505050565b6000611ca6611b14565b9050611cb28282611c6b565b919050565b600067ffffffffffffffff821115611cd257611cd1611c3c565b5b611cdb82611aa8565b9050602081019050919050565b82818337600083830152505050565b6000611d0a611d0584611cb7565b611c9c565b905082815260208101848484011115611d2657611d25611c37565b5b611d31848285611ce8565b509392505050565b600082601f830112611d4e57611d4d611c32565b5b8135611d5e848260208601611cf7565b91505092915050565b600062ffffff82169050919050565b611d7f81611d67565b8114611d8a57600080fd5b50565b600081359050611d9c81611d76565b92915050565b60008060408385031215611db957611db8611b1e565b5b600083013567ffffffffffffffff811115611dd757611dd6611b23565b5b611de385828601611d39565b9250506020611df485828601611d8d565b9150509250929050565b611e0781611b86565b82525050565b6000602082019050611e226000830184611dfe565b92915050565b60038110611e3557600080fd5b50565b600081359050611e4781611e28565b92915050565b60008060408385031215611e6457611e63611b1e565b5b6000611e7285828601611d8d565b9250506020611e8385828601611e38565b9150509250929050565b600080600060608486031215611ea657611ea5611b1e565b5b6000611eb486828701611b71565b9350506020611ec586828701611b71565b9250506040611ed686828701611ba7565b9150509250925092565b600060208284031215611ef657611ef5611b1e565b5b6000611f0484828501611b71565b91505092915050565b611f1681611d67565b82525050565b6000602082019050611f316000830184611f0d565b92915050565b600060ff82169050919050565b611f4d81611f37565b82525050565b6000602082019050611f686000830184611f44565b92915050565b611f7781611b48565b82525050565b6000602082019050611f926000830184611f6e565b92915050565b60008060408385031215611faf57611fae611b1e565b5b6000611fbd85828601611b71565b9250506020611fce85828601611b71565b9150509250929050565b600060208284031215611fee57611fed611b1e565b5b6000611ffc84828501611d8d565b91505092915050565b600081519050919050565b600082825260208201905092915050565b6000819050602082019050919050565b61203a81611b48565b82525050565b600061204c8383612031565b60208301905092915050565b6000602082019050919050565b600061207082612005565b61207a8185612010565b935061208583612021565b8060005b838110156120b657815161209d8882612040565b97506120a883612058565b925050600181019050612089565b5085935050505092915050565b600082825260208201905092915050565b60006120df82611a62565b6120e981856120c3565b93506120f9818560208601611a7e565b61210281611aa8565b840191505092915050565b61211681611d67565b82525050565b61212581611bfc565b82525050565b60006101208301600083015184820360008601526121498282612065565b9150506020830151848203602086015261216382826120d4565b9150506040830151612178604086018261210d565b50606083015161218b606086018261210d565b50608083015161219e608086018261210d565b5060a08301516121b160a086018261210d565b5060c08301516121c460c086018261210d565b5060e08301516121d760e086018261211c565b506101008301516121ec61010086018261211c565b508091505092915050565b60006020820190508181036000830152612211818461212b565b905092915050565b7f4e487b7100000000000000000000000000000000000000000000000000000000600052602260045260246000fd5b6000600282049050600182168061226057607f821691505b60208210810361227357612272612219565b5b50919050565b7f4f6e6c7920746f6b656e20686f6c646572732063616e2063726561746520697360008201527f7375657300000000000000000000000000000000000000000000000000000000602082015250565b60006122d5602483611a6d565b91506122e082612279565b604082019050919050565b60006020820190508181036000830152612304816122c8565b9050919050565b7f51756f72756d2063616e6e6f742062652067726561746572207468616e20746860008201527f6520746f74616c206e756d626572206f6620746f6b656e730000000000000000602082015250565b6000612367603883611a6d565b91506123728261230b565b604082019050919050565b600060208201905081810360008301526123968161235a565b9050919050565b7f4e487b7100000000000000000000000000000000000000000000000000000000600052603260045260246000fd5b60008190508160005260206000209050919050565b60006020601f8301049050919050565b600082821b905092915050565b60006008830261242e7fffffffffffffffffffffffffffffffffffffffffffffffffffffffffffffffff826123f1565b61243886836123f1565b95508019841693508086168417925050509392505050565b6000819050919050565b600061247561247061246b84611b86565b612450565b611b86565b9050919050565b6000819050919050565b61248f8361245a565b6124a361249b8261247c565b8484546123fe565b825550505050565b600090565b6124b86124ab565b6124c3818484612486565b505050565b5b818110156124e7576124dc6000826124b0565b6001810190506124c9565b5050565b601f82111561252c576124fd816123cc565b612506846123e1565b81016020851015612515578190505b612529612521856123e1565b8301826124c8565b50505b505050565b600082821c905092915050565b600061254f60001984600802612531565b1980831691505092915050565b6000612568838361253e565b9150826002028217905092915050565b61258182611a62565b67ffffffffffffffff81111561259a57612599611c3c565b5b6125a48254612248565b6125af8282856124eb565b600060209050601f8311600181146125e257600084156125d0578287015190505b6125da858261255c565b865550612642565b601f1984166125f0866123cc565b60005b82811015612618578489015182556001820191506020850194506020810190506125f3565b868310156126355784890151612631601f89168261253e565b8355505b6001600288020188555050505b505050505050565b7f566f74696e6720697320636c6f73656420666f72207468697320697373756500600082015250565b6000612680601f83611a6d565b915061268b8261264a565b602082019050919050565b600060208201905081810360008301526126af81612673565b9050919050565b7f416c726561647920766f746564206f6e20746869732069737375650000000000600082015250565b60006126ec601b83611a6d565b91506126f7826126b6565b602082019050919050565b6000602082019050818103600083015261271b816126df565b9050919050565b7f4e487b7100000000000000000000000000000000000000000000000000000000600052602160045260246000fd5b7f4e487b7100000000000000000000000000000000000000000000000000000000600052601160045260246000fd5b600061278b82611d67565b915061279683611d67565b9250828201905062ffffff8111156127b1576127b0612751565b5b92915050565b7f496e76616c696420766f7465206f7074696f6e00000000000000000000000000600082015250565b60006127ed601383611a6d565b91506127f8826127b7565b602082019050919050565b6000602082019050818103600083015261281c816127e0565b9050919050565b7f45524332303a207472616e7366657220616d6f756e742065786365656473206160008201527f6c6c6f77616e6365000000000000000000000000000000000000000000000000602082015250565b600061287f602883611a6d565b915061288a82612823565b604082019050919050565b600060208201905081810360008301526128ae81612872565b9050919050565b60006128c082611b86565b91506128cb83611b86565b92508282039050818111156128e3576128e2612751565b5b92915050565b60006128f482611b86565b91506128ff83611b86565b925082820190508082111561291757612916612751565b5b92915050565b7f45524332303a2064656372656173656420616c6c6f77616e63652062656c6f7760008201527f207a65726f000000000000000000000000000000000000000000000000000000602082015250565b6000612979602583611a6d565b91506129848261291d565b604082019050919050565b600060208201905081810360008301526129a88161296c565b9050919050565b60006129ba82611b86565b91507fffffffffffffffffffffffffffffffffffffffffffffffffffffffffffffffff82036129ec576129eb612751565b5b600182019050919050565b7f45524332303a20617070726f76652066726f6d20746865207a65726f2061646460008201527f7265737300000000000000000000000000000000000000000000000000000000602082015250565b6000612a53602483611a6d565b9150612a5e826129f7565b604082019050919050565b60006020820190508181036000830152612a8281612a46565b9050919050565b7f45524332303a20617070726f766520746f20746865207a65726f20616464726560008201527f7373000000000000000000000000000000000000000000000000000000000000602082015250565b6000612ae5602283611a6d565b9150612af082612a89565b604082019050919050565b60006020820190508181036000830152612b1481612ad8565b9050919050565b7f45524332303a207472616e736665722066726f6d20746865207a65726f20616460008201527f6472657373000000000000000000000000000000000000000000000000000000602082015250565b6000612b77602583611a6d565b9150612b8282612b1b565b604082019050919050565b60006020820190508181036000830152612ba681612b6a565b9050919050565b7f45524332303a207472616e7366657220746f20746865207a65726f206164647260008201527f6573730000000000000000000000000000000000000000000000000000000000602082015250565b6000612c09602383611a6d565b9150612c1482612bad565b604082019050919050565b60006020820190508181036000830152612c3881612bfc565b9050919050565b7f45524332303a207472616e7366657220616d6f756e742065786365656473206260008201527f616c616e63650000000000000000000000000000000000000000000000000000602082015250565b6000612c9b602683611a6d565b9150612ca682612c3f565b604082019050919050565b60006020820190508181036000830152612cca81612c8e565b9050919050565b7f456e756d657261626c655365743a20696e646578206f7574206f6620626f756e60008201527f6473000000000000000000000000000000000000000000000000000000000000602082015250565b6000612d2d602283611a6d565b9150612d3882612cd1565b604082019050919050565b60006020820190508181036000830152612d5c81612d20565b905091905056fea264697066735822122092eb1b02f1de81099b7e12857aaca04b64276ceb289454f5258bac0f11c53a2a64736f6c63430008110033",
					"opcodes": "PUSH1 0x80 PUSH1 0x40 MSTORE CALLVALUE DUP1 ISZERO PUSH3 0x11 JUMPI PUSH1 0x0 DUP1 REVERT JUMPDEST POP PUSH1 0x40 MLOAD PUSH3 0x33BA CODESIZE SUB DUP1 PUSH3 0x33BA DUP4 CODECOPY DUP2 DUP2 ADD PUSH1 0x40 MSTORE DUP2 ADD SWAP1 PUSH3 0x37 SWAP2 SWAP1 PUSH3 0x25A JUMP JUMPDEST DUP2 DUP2 DUP2 PUSH1 0x3 SWAP1 DUP2 PUSH3 0x4A SWAP2 SWAP1 PUSH3 0x52A JUMP JUMPDEST POP DUP1 PUSH1 0x4 SWAP1 DUP2 PUSH3 0x5C SWAP2 SWAP1 PUSH3 0x52A JUMP JUMPDEST POP POP POP PUSH3 0xF4240 PUSH1 0x5 PUSH1 0x0 PUSH2 0x100 EXP DUP2 SLOAD DUP2 PUSH3 0xFFFFFF MUL NOT AND SWAP1 DUP4 PUSH3 0xFFFFFF AND MUL OR SWAP1 SSTORE POP PUSH1 0x64 PUSH1 0x5 PUSH1 0x3 PUSH2 0x100 EXP DUP2 SLOAD DUP2 PUSH3 0xFFFFFF MUL NOT AND SWAP1 DUP4 PUSH3 0xFFFFFF AND MUL OR SWAP1 SSTORE POP PUSH1 0x9 PUSH1 0x1 DUP2 PUSH1 0x1 DUP2 SLOAD ADD DUP1 DUP3 SSTORE DUP1 SWAP2 POP POP SUB SWAP1 PUSH1 0x0 MSTORE PUSH1 0x20 PUSH1 0x0 KECCAK256 SWAP1 POP POP POP POP PUSH3 0x611 JUMP JUMPDEST PUSH1 0x0 PUSH1 0x40 MLOAD SWAP1 POP SWAP1 JUMP JUMPDEST PUSH1 0x0 DUP1 REVERT JUMPDEST PUSH1 0x0 DUP1 REVERT JUMPDEST PUSH1 0x0 DUP1 REVERT JUMPDEST PUSH1 0x0 DUP1 REVERT JUMPDEST PUSH1 0x0 PUSH1 0x1F NOT PUSH1 0x1F DUP4 ADD AND SWAP1 POP SWAP2 SWAP1 POP JUMP JUMPDEST PUSH32 0x4E487B7100000000000000000000000000000000000000000000000000000000 PUSH1 0x0 MSTORE PUSH1 0x41 PUSH1 0x4 MSTORE PUSH1 0x24 PUSH1 0x0 REVERT JUMPDEST PUSH3 0x130 DUP3 PUSH3 0xE5 JUMP JUMPDEST DUP2 ADD DUP2 DUP2 LT PUSH8 0xFFFFFFFFFFFFFFFF DUP3 GT OR ISZERO PUSH3 0x152 JUMPI PUSH3 0x151 PUSH3 0xF6 JUMP JUMPDEST JUMPDEST DUP1 PUSH1 0x40 MSTORE POP POP POP JUMP JUMPDEST PUSH1 0x0 PUSH3 0x167 PUSH3 0xC7 JUMP JUMPDEST SWAP1 POP PUSH3 0x175 DUP3 DUP3 PUSH3 0x125 JUMP JUMPDEST SWAP2 SWAP1 POP JUMP JUMPDEST PUSH1 0x0 PUSH8 0xFFFFFFFFFFFFFFFF DUP3 GT ISZERO PUSH3 0x198 JUMPI PUSH3 0x197 PUSH3 0xF6 JUMP JUMPDEST JUMPDEST PUSH3 0x1A3 DUP3 PUSH3 0xE5 JUMP JUMPDEST SWAP1 POP PUSH1 0x20 DUP2 ADD SWAP1 POP SWAP2 SWAP1 POP JUMP JUMPDEST PUSH1 0x0 JUMPDEST DUP4 DUP2 LT ISZERO PUSH3 0x1D0 JUMPI DUP1 DUP3 ADD MLOAD DUP2 DUP5 ADD MSTORE PUSH1 0x20 DUP2 ADD SWAP1 POP PUSH3 0x1B3 JUMP JUMPDEST PUSH1 0x0 DUP5 DUP5 ADD MSTORE POP POP POP POP JUMP JUMPDEST PUSH1 0x0 PUSH3 0x1F3 PUSH3 0x1ED DUP5 PUSH3 0x17A JUMP JUMPDEST PUSH3 0x15B JUMP JUMPDEST SWAP1 POP DUP3 DUP2 MSTORE PUSH1 0x20 DUP2 ADD DUP5 DUP5 DUP5 ADD GT ISZERO PUSH3 0x212 JUMPI PUSH3 0x211 PUSH3 0xE0 JUMP JUMPDEST JUMPDEST PUSH3 0x21F DUP5 DUP3 DUP6 PUSH3 0x1B0 JUMP JUMPDEST POP SWAP4 SWAP3 POP POP POP JUMP JUMPDEST PUSH1 0x0 DUP3 PUSH1 0x1F DUP4 ADD SLT PUSH3 0x23F JUMPI PUSH3 0x23E PUSH3 0xDB JUMP JUMPDEST JUMPDEST DUP2 MLOAD PUSH3 0x251 DUP5 DUP3 PUSH1 0x20 DUP7 ADD PUSH3 0x1DC JUMP JUMPDEST SWAP2 POP POP SWAP3 SWAP2 POP POP JUMP JUMPDEST PUSH1 0x0 DUP1 PUSH1 0x40 DUP4 DUP6 SUB SLT ISZERO PUSH3 0x274 JUMPI PUSH3 0x273 PUSH3 0xD1 JUMP JUMPDEST JUMPDEST PUSH1 0x0 DUP4 ADD MLOAD PUSH8 0xFFFFFFFFFFFFFFFF DUP2 GT ISZERO PUSH3 0x295 JUMPI PUSH3 0x294 PUSH3 0xD6 JUMP JUMPDEST JUMPDEST PUSH3 0x2A3 DUP6 DUP3 DUP7 ADD PUSH3 0x227 JUMP JUMPDEST SWAP3 POP POP PUSH1 0x20 DUP4 ADD MLOAD PUSH8 0xFFFFFFFFFFFFFFFF DUP2 GT ISZERO PUSH3 0x2C7 JUMPI PUSH3 0x2C6 PUSH3 0xD6 JUMP JUMPDEST JUMPDEST PUSH3 0x2D5 DUP6 DUP3 DUP7 ADD PUSH3 0x227 JUMP JUMPDEST SWAP2 POP POP SWAP3 POP SWAP3 SWAP1 POP JUMP JUMPDEST PUSH1 0x0 DUP2 MLOAD SWAP1 POP SWAP2 SWAP1 POP JUMP JUMPDEST PUSH32 0x4E487B7100000000000000000000000000000000000000000000000000000000 PUSH1 0x0 MSTORE PUSH1 0x22 PUSH1 0x4 MSTORE PUSH1 0x24 PUSH1 0x0 REVERT JUMPDEST PUSH1 0x0 PUSH1 0x2 DUP3 DIV SWAP1 POP PUSH1 0x1 DUP3 AND DUP1 PUSH3 0x332 JUMPI PUSH1 0x7F DUP3 AND SWAP2 POP JUMPDEST PUSH1 0x20 DUP3 LT DUP2 SUB PUSH3 0x348 JUMPI PUSH3 0x347 PUSH3 0x2EA JUMP JUMPDEST JUMPDEST POP SWAP2 SWAP1 POP JUMP JUMPDEST PUSH1 0x0 DUP2 SWAP1 POP DUP2 PUSH1 0x0 MSTORE PUSH1 0x20 PUSH1 0x0 KECCAK256 SWAP1 POP SWAP2 SWAP1 POP JUMP JUMPDEST PUSH1 0x0 PUSH1 0x20 PUSH1 0x1F DUP4 ADD DIV SWAP1 POP SWAP2 SWAP1 POP JUMP JUMPDEST PUSH1 0x0 DUP3 DUP3 SHL SWAP1 POP SWAP3 SWAP2 POP POP JUMP JUMPDEST PUSH1 0x0 PUSH1 0x8 DUP4 MUL PUSH3 0x3B2 PUSH32 0xFFFFFFFFFFFFFFFFFFFFFFFFFFFFFFFFFFFFFFFFFFFFFFFFFFFFFFFFFFFFFFFF DUP3 PUSH3 0x373 JUMP JUMPDEST PUSH3 0x3BE DUP7 DUP4 PUSH3 0x373 JUMP JUMPDEST SWAP6 POP DUP1 NOT DUP5 AND SWAP4 POP DUP1 DUP7 AND DUP5 OR SWAP3 POP POP POP SWAP4 SWAP3 POP POP POP JUMP JUMPDEST PUSH1 0x0 DUP2 SWAP1 POP SWAP2 SWAP1 POP JUMP JUMPDEST PUSH1 0x0 DUP2 SWAP1 POP SWAP2 SWAP1 POP JUMP JUMPDEST PUSH1 0x0 PUSH3 0x40B PUSH3 0x405 PUSH3 0x3FF DUP5 PUSH3 0x3D6 JUMP JUMPDEST PUSH3 0x3E0 JUMP JUMPDEST PUSH3 0x3D6 JUMP JUMPDEST SWAP1 POP SWAP2 SWAP1 POP JUMP JUMPDEST PUSH1 0x0 DUP2 SWAP1 POP SWAP2 SWAP1 POP JUMP JUMPDEST PUSH3 0x427 DUP4 PUSH3 0x3EA JUMP JUMPDEST PUSH3 0x43F PUSH3 0x436 DUP3 PUSH3 0x412 JUMP JUMPDEST DUP5 DUP5 SLOAD PUSH3 0x380 JUMP JUMPDEST DUP3 SSTORE POP POP POP POP JUMP JUMPDEST PUSH1 0x0 SWAP1 JUMP JUMPDEST PUSH3 0x456 PUSH3 0x447 JUMP JUMPDEST PUSH3 0x463 DUP2 DUP5 DUP5 PUSH3 0x41C JUMP JUMPDEST POP POP POP JUMP JUMPDEST JUMPDEST DUP2 DUP2 LT ISZERO PUSH3 0x48B JUMPI PUSH3 0x47F PUSH1 0x0 DUP3 PUSH3 0x44C JUMP JUMPDEST PUSH1 0x1 DUP2 ADD SWAP1 POP PUSH3 0x469 JUMP JUMPDEST POP POP JUMP JUMPDEST PUSH1 0x1F DUP3 GT ISZERO PUSH3 0x4DA JUMPI PUSH3 0x4A4 DUP2 PUSH3 0x34E JUMP JUMPDEST PUSH3 0x4AF DUP5 PUSH3 0x363 JUMP JUMPDEST DUP2 ADD PUSH1 0x20 DUP6 LT ISZERO PUSH3 0x4BF JUMPI DUP2 SWAP1 POP JUMPDEST PUSH3 0x4D7 PUSH3 0x4CE DUP6 PUSH3 0x363 JUMP JUMPDEST DUP4 ADD DUP3 PUSH3 0x468 JUMP JUMPDEST POP POP JUMPDEST POP POP POP JUMP JUMPDEST PUSH1 0x0 DUP3 DUP3 SHR SWAP1 POP SWAP3 SWAP2 POP POP JUMP JUMPDEST PUSH1 0x0 PUSH3 0x4FF PUSH1 0x0 NOT DUP5 PUSH1 0x8 MUL PUSH3 0x4DF JUMP JUMPDEST NOT DUP1 DUP4 AND SWAP2 POP POP SWAP3 SWAP2 POP POP JUMP JUMPDEST PUSH1 0x0 PUSH3 0x51A DUP4 DUP4 PUSH3 0x4EC JUMP JUMPDEST SWAP2 POP DUP3 PUSH1 0x2 MUL DUP3 OR SWAP1 POP SWAP3 SWAP2 POP POP JUMP JUMPDEST PUSH3 0x535 DUP3 PUSH3 0x2DF JUMP JUMPDEST PUSH8 0xFFFFFFFFFFFFFFFF DUP2 GT ISZERO PUSH3 0x551 JUMPI PUSH3 0x550 PUSH3 0xF6 JUMP JUMPDEST JUMPDEST PUSH3 0x55D DUP3 SLOAD PUSH3 0x319 JUMP JUMPDEST PUSH3 0x56A DUP3 DUP3 DUP6 PUSH3 0x48F JUMP JUMPDEST PUSH1 0x0 PUSH1 0x20 SWAP1 POP PUSH1 0x1F DUP4 GT PUSH1 0x1 DUP2 EQ PUSH3 0x5A2 JUMPI PUSH1 0x0 DUP5 ISZERO PUSH3 0x58D JUMPI DUP3 DUP8 ADD MLOAD SWAP1 POP JUMPDEST PUSH3 0x599 DUP6 DUP3 PUSH3 0x50C JUMP JUMPDEST DUP7 SSTORE POP PUSH3 0x609 JUMP JUMPDEST PUSH1 0x1F NOT DUP5 AND PUSH3 0x5B2 DUP7 PUSH3 0x34E JUMP JUMPDEST PUSH1 0x0 JUMPDEST DUP3 DUP2 LT ISZERO PUSH3 0x5DC JUMPI DUP5 DUP10 ADD MLOAD DUP3 SSTORE PUSH1 0x1 DUP3 ADD SWAP2 POP PUSH1 0x20 DUP6 ADD SWAP5 POP PUSH1 0x20 DUP2 ADD SWAP1 POP PUSH3 0x5B5 JUMP JUMPDEST DUP7 DUP4 LT ISZERO PUSH3 0x5FC JUMPI DUP5 DUP10 ADD MLOAD PUSH3 0x5F8 PUSH1 0x1F DUP10 AND DUP3 PUSH3 0x4EC JUMP JUMPDEST DUP4 SSTORE POP JUMPDEST PUSH1 0x1 PUSH1 0x2 DUP9 MUL ADD DUP9 SSTORE POP POP POP JUMPDEST POP POP POP POP POP POP JUMP JUMPDEST PUSH2 0x2D99 DUP1 PUSH3 0x621 PUSH1 0x0 CODECOPY PUSH1 0x0 RETURN INVALID PUSH1 0x80 PUSH1 0x40 MSTORE CALLVALUE DUP1 ISZERO PUSH2 0x10 JUMPI PUSH1 0x0 DUP1 REVERT JUMPDEST POP PUSH1 0x4 CALLDATASIZE LT PUSH2 0x137 JUMPI PUSH1 0x0 CALLDATALOAD PUSH1 0xE0 SHR DUP1 PUSH4 0x70A08231 GT PUSH2 0xB8 JUMPI DUP1 PUSH4 0x9668CEB8 GT PUSH2 0x7C JUMPI DUP1 PUSH4 0x9668CEB8 EQ PUSH2 0x366 JUMPI DUP1 PUSH4 0xA457C2D7 EQ PUSH2 0x384 JUMPI DUP1 PUSH4 0xA9059CBB EQ PUSH2 0x3B4 JUMPI DUP1 PUSH4 0xD5ABEB01 EQ PUSH2 0x3E4 JUMPI DUP1 PUSH4 0xDD62ED3E EQ PUSH2 0x402 JUMPI DUP1 PUSH4 0xFCA22842 EQ PUSH2 0x432 JUMPI PUSH2 0x137 JUMP JUMPDEST DUP1 PUSH4 0x70A08231 EQ PUSH2 0x2AC JUMPI DUP1 PUSH4 0x73B2E80E EQ PUSH2 0x2DC JUMPI DUP1 PUSH4 0x830953AB EQ PUSH2 0x30C JUMPI DUP1 PUSH4 0x8DA5CB5B EQ PUSH2 0x32A JUMPI DUP1 PUSH4 0x95D89B41 EQ PUSH2 0x348 JUMPI PUSH2 0x137 JUMP JUMPDEST DUP1 PUSH4 0x23B872DD GT PUSH2 0xFF JUMPI DUP1 PUSH4 0x23B872DD EQ PUSH2 0x1F4 JUMPI DUP1 PUSH4 0x27E235E3 EQ PUSH2 0x224 JUMPI DUP1 PUSH4 0x313CE567 EQ PUSH2 0x254 JUMPI DUP1 PUSH4 0x39509351 EQ PUSH2 0x272 JUMPI DUP1 PUSH4 0x4E71D92D EQ PUSH2 0x2A2 JUMPI PUSH2 0x137 JUMP JUMPDEST DUP1 PUSH4 0x6FDDE03 EQ PUSH2 0x13C JUMPI DUP1 PUSH4 0x95EA7B3 EQ PUSH2 0x15A JUMPI DUP1 PUSH4 0xC6A8615 EQ PUSH2 0x18A JUMPI DUP1 PUSH4 0x18160DDD EQ PUSH2 0x1BA JUMPI DUP1 PUSH4 0x21E4C301 EQ PUSH2 0x1D8 JUMPI JUMPDEST PUSH1 0x0 DUP1 REVERT JUMPDEST PUSH2 0x144 PUSH2 0x462 JUMP JUMPDEST PUSH1 0x40 MLOAD PUSH2 0x151 SWAP2 SWAP1 PUSH2 0x1AF2 JUMP JUMPDEST PUSH1 0x40 MLOAD DUP1 SWAP2 SUB SWAP1 RETURN JUMPDEST PUSH2 0x174 PUSH1 0x4 DUP1 CALLDATASIZE SUB DUP2 ADD SWAP1 PUSH2 0x16F SWAP2 SWAP1 PUSH2 0x1BBC JUMP JUMPDEST PUSH2 0x4F4 JUMP JUMPDEST PUSH1 0x40 MLOAD PUSH2 0x181 SWAP2 SWAP1 PUSH2 0x1C17 JUMP JUMPDEST PUSH1 0x40 MLOAD DUP1 SWAP2 SUB SWAP1 RETURN JUMPDEST PUSH2 0x1A4 PUSH1 0x4 DUP1 CALLDATASIZE SUB DUP2 ADD SWAP1 PUSH2 0x19F SWAP2 SWAP1 PUSH2 0x1DA2 JUMP JUMPDEST PUSH2 0x512 JUMP JUMPDEST PUSH1 0x40 MLOAD PUSH2 0x1B1 SWAP2 SWAP1 PUSH2 0x1E0D JUMP JUMPDEST PUSH1 0x40 MLOAD DUP1 SWAP2 SUB SWAP1 RETURN JUMPDEST PUSH2 0x1C2 PUSH2 0x67E JUMP JUMPDEST PUSH1 0x40 MLOAD PUSH2 0x1CF SWAP2 SWAP1 PUSH2 0x1E0D JUMP JUMPDEST PUSH1 0x40 MLOAD DUP1 SWAP2 SUB SWAP1 RETURN JUMPDEST PUSH2 0x1F2 PUSH1 0x4 DUP1 CALLDATASIZE SUB DUP2 ADD SWAP1 PUSH2 0x1ED SWAP2 SWAP1 PUSH2 0x1E4D JUMP JUMPDEST PUSH2 0x688 JUMP JUMPDEST STOP JUMPDEST PUSH2 0x20E PUSH1 0x4 DUP1 CALLDATASIZE SUB DUP2 ADD SWAP1 PUSH2 0x209 SWAP2 SWAP1 PUSH2 0x1E8D JUMP JUMPDEST PUSH2 0xA89 JUMP JUMPDEST PUSH1 0x40 MLOAD PUSH2 0x21B SWAP2 SWAP1 PUSH2 0x1C17 JUMP JUMPDEST PUSH1 0x40 MLOAD DUP1 SWAP2 SUB SWAP1 RETURN JUMPDEST PUSH2 0x23E PUSH1 0x4 DUP1 CALLDATASIZE SUB DUP2 ADD SWAP1 PUSH2 0x239 SWAP2 SWAP1 PUSH2 0x1EE0 JUMP JUMPDEST PUSH2 0xB8A JUMP JUMPDEST PUSH1 0x40 MLOAD PUSH2 0x24B SWAP2 SWAP1 PUSH2 0x1F1C JUMP JUMPDEST PUSH1 0x40 MLOAD DUP1 SWAP2 SUB SWAP1 RETURN JUMPDEST PUSH2 0x25C PUSH2 0xBAC JUMP JUMPDEST PUSH1 0x40 MLOAD PUSH2 0x269 SWAP2 SWAP1 PUSH2 0x1F53 JUMP JUMPDEST PUSH1 0x40 MLOAD DUP1 SWAP2 SUB SWAP1 RETURN JUMPDEST PUSH2 0x28C PUSH1 0x4 DUP1 CALLDATASIZE SUB DUP2 ADD SWAP1 PUSH2 0x287 SWAP2 SWAP1 PUSH2 0x1BBC JUMP JUMPDEST PUSH2 0xBB5 JUMP JUMPDEST PUSH1 0x40 MLOAD PUSH2 0x299 SWAP2 SWAP1 PUSH2 0x1C17 JUMP JUMPDEST PUSH1 0x40 MLOAD DUP1 SWAP2 SUB SWAP1 RETURN JUMPDEST PUSH2 0x2AA PUSH2 0xC61 JUMP JUMPDEST STOP JUMPDEST PUSH2 0x2C6 PUSH1 0x4 DUP1 CALLDATASIZE SUB DUP2 ADD SWAP1 PUSH2 0x2C1 SWAP2 SWAP1 PUSH2 0x1EE0 JUMP JUMPDEST PUSH2 0xE7C JUMP JUMPDEST PUSH1 0x40 MLOAD PUSH2 0x2D3 SWAP2 SWAP1 PUSH2 0x1E0D JUMP JUMPDEST PUSH1 0x40 MLOAD DUP1 SWAP2 SUB SWAP1 RETURN JUMPDEST PUSH2 0x2F6 PUSH1 0x4 DUP1 CALLDATASIZE SUB DUP2 ADD SWAP1 PUSH2 0x2F1 SWAP2 SWAP1 PUSH2 0x1EE0 JUMP JUMPDEST PUSH2 0xEC4 JUMP JUMPDEST PUSH1 0x40 MLOAD PUSH2 0x303 SWAP2 SWAP1 PUSH2 0x1C17 JUMP JUMPDEST PUSH1 0x40 MLOAD DUP1 SWAP2 SUB SWAP1 RETURN JUMPDEST PUSH2 0x314 PUSH2 0xEE4 JUMP JUMPDEST PUSH1 0x40 MLOAD PUSH2 0x321 SWAP2 SWAP1 PUSH2 0x1F1C JUMP JUMPDEST PUSH1 0x40 MLOAD DUP1 SWAP2 SUB SWAP1 RETURN JUMPDEST PUSH2 0x332 PUSH2 0xEF9 JUMP JUMPDEST PUSH1 0x40 MLOAD PUSH2 0x33F SWAP2 SWAP1 PUSH2 0x1F7D JUMP JUMPDEST PUSH1 0x40 MLOAD DUP1 SWAP2 SUB SWAP1 RETURN JUMPDEST PUSH2 0x350 PUSH2 0xF1F JUMP JUMPDEST PUSH1 0x40 MLOAD PUSH2 0x35D SWAP2 SWAP1 PUSH2 0x1AF2 JUMP JUMPDEST PUSH1 0x40 MLOAD DUP1 SWAP2 SUB SWAP1 RETURN JUMPDEST PUSH2 0x36E PUSH2 0xFB1 JUMP JUMPDEST PUSH1 0x40 MLOAD PUSH2 0x37B SWAP2 SWAP1 PUSH2 0x1F1C JUMP JUMPDEST PUSH1 0x40 MLOAD DUP1 SWAP2 SUB SWAP1 RETURN JUMPDEST PUSH2 0x39E PUSH1 0x4 DUP1 CALLDATASIZE SUB DUP2 ADD SWAP1 PUSH2 0x399 SWAP2 SWAP1 PUSH2 0x1BBC JUMP JUMPDEST PUSH2 0xFC6 JUMP JUMPDEST PUSH1 0x40 MLOAD PUSH2 0x3AB SWAP2 SWAP1 PUSH2 0x1C17 JUMP JUMPDEST PUSH1 0x40 MLOAD DUP1 SWAP2 SUB SWAP1 RETURN JUMPDEST PUSH2 0x3CE PUSH1 0x4 DUP1 CALLDATASIZE SUB DUP2 ADD SWAP1 PUSH2 0x3C9 SWAP2 SWAP1 PUSH2 0x1BBC JUMP JUMPDEST PUSH2 0x10BA JUMP JUMPDEST PUSH1 0x40 MLOAD PUSH2 0x3DB SWAP2 SWAP1 PUSH2 0x1C17 JUMP JUMPDEST PUSH1 0x40 MLOAD DUP1 SWAP2 SUB SWAP1 RETURN JUMPDEST PUSH2 0x3EC PUSH2 0x10D8 JUMP JUMPDEST PUSH1 0x40 MLOAD PUSH2 0x3F9 SWAP2 SWAP1 PUSH2 0x1F1C JUMP JUMPDEST PUSH1 0x40 MLOAD DUP1 SWAP2 SUB SWAP1 RETURN JUMPDEST PUSH2 0x41C PUSH1 0x4 DUP1 CALLDATASIZE SUB DUP2 ADD SWAP1 PUSH2 0x417 SWAP2 SWAP1 PUSH2 0x1F98 JUMP JUMPDEST PUSH2 0x10ED JUMP JUMPDEST PUSH1 0x40 MLOAD PUSH2 0x429 SWAP2 SWAP1 PUSH2 0x1E0D JUMP JUMPDEST PUSH1 0x40 MLOAD DUP1 SWAP2 SUB SWAP1 RETURN JUMPDEST PUSH2 0x44C PUSH1 0x4 DUP1 CALLDATASIZE SUB DUP2 ADD SWAP1 PUSH2 0x447 SWAP2 SWAP1 PUSH2 0x1FD8 JUMP JUMPDEST PUSH2 0x1174 JUMP JUMPDEST PUSH1 0x40 MLOAD PUSH2 0x459 SWAP2 SWAP1 PUSH2 0x21F7 JUMP JUMPDEST PUSH1 0x40 MLOAD DUP1 SWAP2 SUB SWAP1 RETURN JUMPDEST PUSH1 0x60 PUSH1 0x3 DUP1 SLOAD PUSH2 0x471 SWAP1 PUSH2 0x2248 JUMP JUMPDEST DUP1 PUSH1 0x1F ADD PUSH1 0x20 DUP1 SWAP2 DIV MUL PUSH1 0x20 ADD PUSH1 0x40 MLOAD SWAP1 DUP2 ADD PUSH1 0x40 MSTORE DUP1 SWAP3 SWAP2 SWAP1 DUP2 DUP2 MSTORE PUSH1 0x20 ADD DUP3 DUP1 SLOAD PUSH2 0x49D SWAP1 PUSH2 0x2248 JUMP JUMPDEST DUP1 ISZERO PUSH2 0x4EA JUMPI DUP1 PUSH1 0x1F LT PUSH2 0x4BF JUMPI PUSH2 0x100 DUP1 DUP4 SLOAD DIV MUL DUP4 MSTORE SWAP2 PUSH1 0x20 ADD SWAP2 PUSH2 0x4EA JUMP JUMPDEST DUP3 ADD SWAP2 SWAP1 PUSH1 0x0 MSTORE PUSH1 0x20 PUSH1 0x0 KECCAK256 SWAP1 JUMPDEST DUP2 SLOAD DUP2 MSTORE SWAP1 PUSH1 0x1 ADD SWAP1 PUSH1 0x20 ADD DUP1 DUP4 GT PUSH2 0x4CD JUMPI DUP3 SWAP1 SUB PUSH1 0x1F AND DUP3 ADD SWAP2 JUMPDEST POP POP POP POP POP SWAP1 POP SWAP1 JUMP JUMPDEST PUSH1 0x0 PUSH2 0x508 PUSH2 0x501 PUSH2 0x13FF JUMP JUMPDEST DUP5 DUP5 PUSH2 0x1407 JUMP JUMPDEST PUSH1 0x1 SWAP1 POP SWAP3 SWAP2 POP POP JUMP JUMPDEST PUSH1 0x0 DUP1 PUSH1 0x6 PUSH1 0x0 CALLER PUSH20 0xFFFFFFFFFFFFFFFFFFFFFFFFFFFFFFFFFFFFFFFF AND PUSH20 0xFFFFFFFFFFFFFFFFFFFFFFFFFFFFFFFFFFFFFFFF AND DUP2 MSTORE PUSH1 0x20 ADD SWAP1 DUP2 MSTORE PUSH1 0x20 ADD PUSH1 0x0 KECCAK256 PUSH1 0x0 SWAP1 SLOAD SWAP1 PUSH2 0x100 EXP SWAP1 DIV PUSH3 0xFFFFFF AND PUSH3 0xFFFFFF AND GT PUSH2 0x5A9 JUMPI PUSH1 0x40 MLOAD PUSH32 0x8C379A000000000000000000000000000000000000000000000000000000000 DUP2 MSTORE PUSH1 0x4 ADD PUSH2 0x5A0 SWAP1 PUSH2 0x22EB JUMP JUMPDEST PUSH1 0x40 MLOAD DUP1 SWAP2 SUB SWAP1 REVERT JUMPDEST PUSH2 0x5B1 PUSH2 0x67E JUMP JUMPDEST DUP3 PUSH3 0xFFFFFF AND GT ISZERO PUSH2 0x5F8 JUMPI PUSH1 0x40 MLOAD PUSH32 0x8C379A000000000000000000000000000000000000000000000000000000000 DUP2 MSTORE PUSH1 0x4 ADD PUSH2 0x5EF SWAP1 PUSH2 0x237D JUMP JUMPDEST PUSH1 0x40 MLOAD DUP1 SWAP2 SUB SWAP1 REVERT JUMPDEST PUSH1 0x9 DUP1 SLOAD SWAP1 POP SWAP1 POP PUSH1 0x9 PUSH1 0x1 DUP2 PUSH1 0x1 DUP2 SLOAD ADD DUP1 DUP3 SSTORE DUP1 SWAP2 POP POP SUB SWAP1 PUSH1 0x0 MSTORE PUSH1 0x20 PUSH1 0x0 KECCAK256 SWAP1 POP POP PUSH1 0x0 PUSH1 0x9 DUP3 DUP2 SLOAD DUP2 LT PUSH2 0x634 JUMPI PUSH2 0x633 PUSH2 0x239D JUMP JUMPDEST JUMPDEST SWAP1 PUSH1 0x0 MSTORE PUSH1 0x20 PUSH1 0x0 KECCAK256 SWAP1 PUSH1 0x4 MUL ADD SWAP1 POP DUP4 DUP2 PUSH1 0x2 ADD SWAP1 DUP2 PUSH2 0x655 SWAP2 SWAP1 PUSH2 0x2578 JUMP JUMPDEST POP DUP3 DUP2 PUSH1 0x3 ADD PUSH1 0xC PUSH2 0x100 EXP DUP2 SLOAD DUP2 PUSH3 0xFFFFFF MUL NOT AND SWAP1 DUP4 PUSH3 0xFFFFFF AND MUL OR SWAP1 SSTORE POP POP SWAP3 SWAP2 POP POP JUMP JUMPDEST PUSH1 0x0 PUSH1 0x2 SLOAD SWAP1 POP SWAP1 JUMP JUMPDEST PUSH1 0x9 DUP3 PUSH3 0xFFFFFF AND DUP2 SLOAD DUP2 LT PUSH2 0x6A1 JUMPI PUSH2 0x6A0 PUSH2 0x239D JUMP JUMPDEST JUMPDEST SWAP1 PUSH1 0x0 MSTORE PUSH1 0x20 PUSH1 0x0 KECCAK256 SWAP1 PUSH1 0x4 MUL ADD PUSH1 0x3 ADD PUSH1 0x10 SWAP1 SLOAD SWAP1 PUSH2 0x100 EXP SWAP1 DIV PUSH1 0xFF AND ISZERO PUSH2 0x700 JUMPI PUSH1 0x40 MLOAD PUSH32 0x8C379A000000000000000000000000000000000000000000000000000000000 DUP2 MSTORE PUSH1 0x4 ADD PUSH2 0x6F7 SWAP1 PUSH2 0x2696 JUMP JUMPDEST PUSH1 0x40 MLOAD DUP1 SWAP2 SUB SWAP1 REVERT JUMPDEST PUSH2 0x73C CALLER PUSH1 0x9 DUP5 PUSH3 0xFFFFFF AND DUP2 SLOAD DUP2 LT PUSH2 0x71D JUMPI PUSH2 0x71C PUSH2 0x239D JUMP JUMPDEST JUMPDEST SWAP1 PUSH1 0x0 MSTORE PUSH1 0x20 PUSH1 0x0 KECCAK256 SWAP1 PUSH1 0x4 MUL ADD PUSH1 0x0 ADD PUSH2 0x15D0 SWAP1 SWAP2 SWAP1 PUSH4 0xFFFFFFFF AND JUMP JUMPDEST ISZERO PUSH2 0x77C JUMPI PUSH1 0x40 MLOAD PUSH32 0x8C379A000000000000000000000000000000000000000000000000000000000 DUP2 MSTORE PUSH1 0x4 ADD PUSH2 0x773 SWAP1 PUSH2 0x2702 JUMP JUMPDEST PUSH1 0x40 MLOAD DUP1 SWAP2 SUB SWAP1 REVERT JUMPDEST PUSH1 0x0 PUSH1 0x9 DUP4 PUSH3 0xFFFFFF AND DUP2 SLOAD DUP2 LT PUSH2 0x797 JUMPI PUSH2 0x796 PUSH2 0x239D JUMP JUMPDEST JUMPDEST SWAP1 PUSH1 0x0 MSTORE PUSH1 0x20 PUSH1 0x0 KECCAK256 SWAP1 PUSH1 0x4 MUL ADD SWAP1 POP PUSH1 0x0 PUSH1 0x6 PUSH1 0x0 CALLER PUSH20 0xFFFFFFFFFFFFFFFFFFFFFFFFFFFFFFFFFFFFFFFF AND PUSH20 0xFFFFFFFFFFFFFFFFFFFFFFFFFFFFFFFFFFFFFFFF AND DUP2 MSTORE PUSH1 0x20 ADD SWAP1 DUP2 MSTORE PUSH1 0x20 ADD PUSH1 0x0 KECCAK256 PUSH1 0x0 SWAP1 SLOAD SWAP1 PUSH2 0x100 EXP SWAP1 DIV PUSH3 0xFFFFFF AND SWAP1 POP PUSH1 0x1 PUSH1 0x2 DUP2 GT ISZERO PUSH2 0x80E JUMPI PUSH2 0x80D PUSH2 0x2722 JUMP JUMPDEST JUMPDEST DUP4 PUSH1 0x2 DUP2 GT ISZERO PUSH2 0x821 JUMPI PUSH2 0x820 PUSH2 0x2722 JUMP JUMPDEST JUMPDEST SUB PUSH2 0x869 JUMPI DUP1 DUP3 PUSH1 0x3 ADD PUSH1 0x0 DUP3 DUP3 DUP3 SWAP1 SLOAD SWAP1 PUSH2 0x100 EXP SWAP1 DIV PUSH3 0xFFFFFF AND PUSH2 0x848 SWAP2 SWAP1 PUSH2 0x2780 JUMP JUMPDEST SWAP3 POP PUSH2 0x100 EXP DUP2 SLOAD DUP2 PUSH3 0xFFFFFF MUL NOT AND SWAP1 DUP4 PUSH3 0xFFFFFF AND MUL OR SWAP1 SSTORE POP PUSH2 0x983 JUMP JUMPDEST PUSH1 0x0 PUSH1 0x2 DUP2 GT ISZERO PUSH2 0x87D JUMPI PUSH2 0x87C PUSH2 0x2722 JUMP JUMPDEST JUMPDEST DUP4 PUSH1 0x2 DUP2 GT ISZERO PUSH2 0x890 JUMPI PUSH2 0x88F PUSH2 0x2722 JUMP JUMPDEST JUMPDEST SUB PUSH2 0x8D8 JUMPI DUP1 DUP3 PUSH1 0x3 ADD PUSH1 0x3 DUP3 DUP3 DUP3 SWAP1 SLOAD SWAP1 PUSH2 0x100 EXP SWAP1 DIV PUSH3 0xFFFFFF AND PUSH2 0x8B7 SWAP2 SWAP1 PUSH2 0x2780 JUMP JUMPDEST SWAP3 POP PUSH2 0x100 EXP DUP2 SLOAD DUP2 PUSH3 0xFFFFFF MUL NOT AND SWAP1 DUP4 PUSH3 0xFFFFFF AND MUL OR SWAP1 SSTORE POP PUSH2 0x982 JUMP JUMPDEST PUSH1 0x2 DUP1 DUP2 GT ISZERO PUSH2 0x8EB JUMPI PUSH2 0x8EA PUSH2 0x2722 JUMP JUMPDEST JUMPDEST DUP4 PUSH1 0x2 DUP2 GT ISZERO PUSH2 0x8FE JUMPI PUSH2 0x8FD PUSH2 0x2722 JUMP JUMPDEST JUMPDEST SUB PUSH2 0x946 JUMPI DUP1 DUP3 PUSH1 0x3 ADD PUSH1 0x6 DUP3 DUP3 DUP3 SWAP1 SLOAD SWAP1 PUSH2 0x100 EXP SWAP1 DIV PUSH3 0xFFFFFF AND PUSH2 0x925 SWAP2 SWAP1 PUSH2 0x2780 JUMP JUMPDEST SWAP3 POP PUSH2 0x100 EXP DUP2 SLOAD DUP2 PUSH3 0xFFFFFF MUL NOT AND SWAP1 DUP4 PUSH3 0xFFFFFF AND MUL OR SWAP1 SSTORE POP PUSH2 0x981 JUMP JUMPDEST PUSH1 0x40 MLOAD PUSH32 0x8C379A000000000000000000000000000000000000000000000000000000000 DUP2 MSTORE PUSH1 0x4 ADD PUSH2 0x978 SWAP1 PUSH2 0x2803 JUMP JUMPDEST PUSH1 0x40 MLOAD DUP1 SWAP2 SUB SWAP1 REVERT JUMPDEST JUMPDEST JUMPDEST DUP1 DUP3 PUSH1 0x3 ADD PUSH1 0x9 DUP3 DUP3 DUP3 SWAP1 SLOAD SWAP1 PUSH2 0x100 EXP SWAP1 DIV PUSH3 0xFFFFFF AND PUSH2 0x9A5 SWAP2 SWAP1 PUSH2 0x2780 JUMP JUMPDEST SWAP3 POP PUSH2 0x100 EXP DUP2 SLOAD DUP2 PUSH3 0xFFFFFF MUL NOT AND SWAP1 DUP4 PUSH3 0xFFFFFF AND MUL OR SWAP1 SSTORE POP PUSH2 0x9D7 CALLER DUP4 PUSH1 0x0 ADD PUSH2 0x1600 SWAP1 SWAP2 SWAP1 PUSH4 0xFFFFFFFF AND JUMP JUMPDEST POP DUP2 PUSH1 0x3 ADD PUSH1 0xC SWAP1 SLOAD SWAP1 PUSH2 0x100 EXP SWAP1 DIV PUSH3 0xFFFFFF AND PUSH3 0xFFFFFF AND DUP3 PUSH1 0x3 ADD PUSH1 0x9 SWAP1 SLOAD SWAP1 PUSH2 0x100 EXP SWAP1 DIV PUSH3 0xFFFFFF AND PUSH3 0xFFFFFF AND LT PUSH2 0xA83 JUMPI PUSH1 0x1 DUP3 PUSH1 0x3 ADD PUSH1 0x10 PUSH2 0x100 EXP DUP2 SLOAD DUP2 PUSH1 0xFF MUL NOT AND SWAP1 DUP4 ISZERO ISZERO MUL OR SWAP1 SSTORE POP DUP2 PUSH1 0x3 ADD PUSH1 0x3 SWAP1 SLOAD SWAP1 PUSH2 0x100 EXP SWAP1 DIV PUSH3 0xFFFFFF AND PUSH3 0xFFFFFF AND DUP3 PUSH1 0x3 ADD PUSH1 0x0 SWAP1 SLOAD SWAP1 PUSH2 0x100 EXP SWAP1 DIV PUSH3 0xFFFFFF AND PUSH3 0xFFFFFF AND GT ISZERO PUSH2 0xA82 JUMPI PUSH1 0x1 DUP3 PUSH1 0x3 ADD PUSH1 0xF PUSH2 0x100 EXP DUP2 SLOAD DUP2 PUSH1 0xFF MUL NOT AND SWAP1 DUP4 ISZERO ISZERO MUL OR SWAP1 SSTORE POP JUMPDEST JUMPDEST POP POP POP POP JUMP JUMPDEST PUSH1 0x0 PUSH2 0xA96 DUP5 DUP5 DUP5 PUSH2 0x1630 JUMP JUMPDEST PUSH1 0x0 PUSH1 0x1 PUSH1 0x0 DUP7 PUSH20 0xFFFFFFFFFFFFFFFFFFFFFFFFFFFFFFFFFFFFFFFF AND PUSH20 0xFFFFFFFFFFFFFFFFFFFFFFFFFFFFFFFFFFFFFFFF AND DUP2 MSTORE PUSH1 0x20 ADD SWAP1 DUP2 MSTORE PUSH1 0x20 ADD PUSH1 0x0 KECCAK256 PUSH1 0x0 PUSH2 0xAE1 PUSH2 0x13FF JUMP JUMPDEST PUSH20 0xFFFFFFFFFFFFFFFFFFFFFFFFFFFFFFFFFFFFFFFF AND PUSH20 0xFFFFFFFFFFFFFFFFFFFFFFFFFFFFFFFFFFFFFFFF AND DUP2 MSTORE PUSH1 0x20 ADD SWAP1 DUP2 MSTORE PUSH1 0x20 ADD PUSH1 0x0 KECCAK256 SLOAD SWAP1 POP DUP3 DUP2 LT ISZERO PUSH2 0xB61 JUMPI PUSH1 0x40 MLOAD PUSH32 0x8C379A000000000000000000000000000000000000000000000000000000000 DUP2 MSTORE PUSH1 0x4 ADD PUSH2 0xB58 SWAP1 PUSH2 0x2895 JUMP JUMPDEST PUSH1 0x40 MLOAD DUP1 SWAP2 SUB SWAP1 REVERT JUMPDEST PUSH2 0xB7E DUP6 PUSH2 0xB6D PUSH2 0x13FF JUMP JUMPDEST DUP6 DUP5 PUSH2 0xB79 SWAP2 SWAP1 PUSH2 0x28B5 JUMP JUMPDEST PUSH2 0x1407 JUMP JUMPDEST PUSH1 0x1 SWAP2 POP POP SWAP4 SWAP3 POP POP POP JUMP JUMPDEST PUSH1 0x6 PUSH1 0x20 MSTORE DUP1 PUSH1 0x0 MSTORE PUSH1 0x40 PUSH1 0x0 KECCAK256 PUSH1 0x0 SWAP2 POP SLOAD SWAP1 PUSH2 0x100 EXP SWAP1 DIV PUSH3 0xFFFFFF AND DUP2 JUMP JUMPDEST PUSH1 0x0 PUSH1 0x12 SWAP1 POP SWAP1 JUMP JUMPDEST PUSH1 0x0 PUSH2 0xC57 PUSH2 0xBC2 PUSH2 0x13FF JUMP JUMPDEST DUP5 DUP5 PUSH1 0x1 PUSH1 0x0 PUSH2 0xBD0 PUSH2 0x13FF JUMP JUMPDEST PUSH20 0xFFFFFFFFFFFFFFFFFFFFFFFFFFFFFFFFFFFFFFFF AND PUSH20 0xFFFFFFFFFFFFFFFFFFFFFFFFFFFFFFFFFFFFFFFF AND DUP2 MSTORE PUSH1 0x20 ADD SWAP1 DUP2 MSTORE PUSH1 0x20 ADD PUSH1 0x0 KECCAK256 PUSH1 0x0 DUP9 PUSH20 0xFFFFFFFFFFFFFFFFFFFFFFFFFFFFFFFFFFFFFFFF AND PUSH20 0xFFFFFFFFFFFFFFFFFFFFFFFFFFFFFFFFFFFFFFFF AND DUP2 MSTORE PUSH1 0x20 ADD SWAP1 DUP2 MSTORE PUSH1 0x20 ADD PUSH1 0x0 KECCAK256 SLOAD PUSH2 0xC52 SWAP2 SWAP1 PUSH2 0x28E9 JUMP JUMPDEST PUSH2 0x1407 JUMP JUMPDEST PUSH1 0x1 SWAP1 POP SWAP3 SWAP2 POP POP JUMP JUMPDEST PUSH1 0x5 PUSH1 0x0 SWAP1 SLOAD SWAP1 PUSH2 0x100 EXP SWAP1 DIV PUSH3 0xFFFFFF AND PUSH3 0xFFFFFF AND PUSH1 0x5 PUSH1 0x6 SWAP1 SLOAD SWAP1 PUSH2 0x100 EXP SWAP1 DIV PUSH3 0xFFFFFF AND PUSH3 0xFFFFFF AND GT ISZERO PUSH2 0xCC7 JUMPI PUSH1 0x40 MLOAD PUSH32 0xCBE2483100000000000000000000000000000000000000000000000000000000 DUP2 MSTORE PUSH1 0x4 ADD PUSH1 0x40 MLOAD DUP1 SWAP2 SUB SWAP1 REVERT JUMPDEST PUSH1 0x7 PUSH1 0x0 CALLER PUSH20 0xFFFFFFFFFFFFFFFFFFFFFFFFFFFFFFFFFFFFFFFF AND PUSH20 0xFFFFFFFFFFFFFFFFFFFFFFFFFFFFFFFFFFFFFFFF AND DUP2 MSTORE PUSH1 0x20 ADD SWAP1 DUP2 MSTORE PUSH1 0x20 ADD PUSH1 0x0 KECCAK256 PUSH1 0x0 SWAP1 SLOAD SWAP1 PUSH2 0x100 EXP SWAP1 DIV PUSH1 0xFF AND ISZERO PUSH2 0xD4B JUMPI PUSH1 0x40 MLOAD PUSH32 0xB1327A600000000000000000000000000000000000000000000000000000000 DUP2 MSTORE PUSH1 0x4 ADD PUSH1 0x40 MLOAD DUP1 SWAP2 SUB SWAP1 REVERT JUMPDEST PUSH1 0x5 PUSH1 0x3 SWAP1 SLOAD SWAP1 PUSH2 0x100 EXP SWAP1 DIV PUSH3 0xFFFFFF AND PUSH1 0x6 PUSH1 0x0 CALLER PUSH20 0xFFFFFFFFFFFFFFFFFFFFFFFFFFFFFFFFFFFFFFFF AND PUSH20 0xFFFFFFFFFFFFFFFFFFFFFFFFFFFFFFFFFFFFFFFF AND DUP2 MSTORE PUSH1 0x20 ADD SWAP1 DUP2 MSTORE PUSH1 0x20 ADD PUSH1 0x0 KECCAK256 PUSH1 0x0 DUP3 DUP3 DUP3 SWAP1 SLOAD SWAP1 PUSH2 0x100 EXP SWAP1 DIV PUSH3 0xFFFFFF AND PUSH2 0xDB9 SWAP2 SWAP1 PUSH2 0x2780 JUMP JUMPDEST SWAP3 POP PUSH2 0x100 EXP DUP2 SLOAD DUP2 PUSH3 0xFFFFFF MUL NOT AND SWAP1 DUP4 PUSH3 0xFFFFFF AND MUL OR SWAP1 SSTORE POP PUSH1 0x5 PUSH1 0x3 SWAP1 SLOAD SWAP1 PUSH2 0x100 EXP SWAP1 DIV PUSH3 0xFFFFFF AND PUSH1 0x5 PUSH1 0x6 DUP3 DUP3 DUP3 SWAP1 SLOAD SWAP1 PUSH2 0x100 EXP SWAP1 DIV PUSH3 0xFFFFFF AND PUSH2 0xE06 SWAP2 SWAP1 PUSH2 0x2780 JUMP JUMPDEST SWAP3 POP PUSH2 0x100 EXP DUP2 SLOAD DUP2 PUSH3 0xFFFFFF MUL NOT AND SWAP1 DUP4 PUSH3 0xFFFFFF AND MUL OR SWAP1 SSTORE POP PUSH1 0x1 PUSH1 0x7 PUSH1 0x0 CALLER PUSH20 0xFFFFFFFFFFFFFFFFFFFFFFFFFFFFFFFFFFFFFFFF AND PUSH20 0xFFFFFFFFFFFFFFFFFFFFFFFFFFFFFFFFFFFFFFFF AND DUP2 MSTORE PUSH1 0x20 ADD SWAP1 DUP2 MSTORE PUSH1 0x20 ADD PUSH1 0x0 KECCAK256 PUSH1 0x0 PUSH2 0x100 EXP DUP2 SLOAD DUP2 PUSH1 0xFF MUL NOT AND SWAP1 DUP4 ISZERO ISZERO MUL OR SWAP1 SSTORE POP JUMP JUMPDEST PUSH1 0x0 DUP1 PUSH1 0x0 DUP4 PUSH20 0xFFFFFFFFFFFFFFFFFFFFFFFFFFFFFFFFFFFFFFFF AND PUSH20 0xFFFFFFFFFFFFFFFFFFFFFFFFFFFFFFFFFFFFFFFF AND DUP2 MSTORE PUSH1 0x20 ADD SWAP1 DUP2 MSTORE PUSH1 0x20 ADD PUSH1 0x0 KECCAK256 SLOAD SWAP1 POP SWAP2 SWAP1 POP JUMP JUMPDEST PUSH1 0x7 PUSH1 0x20 MSTORE DUP1 PUSH1 0x0 MSTORE PUSH1 0x40 PUSH1 0x0 KECCAK256 PUSH1 0x0 SWAP2 POP SLOAD SWAP1 PUSH2 0x100 EXP SWAP1 DIV PUSH1 0xFF AND DUP2 JUMP JUMPDEST PUSH1 0x5 PUSH1 0x3 SWAP1 SLOAD SWAP1 PUSH2 0x100 EXP SWAP1 DIV PUSH3 0xFFFFFF AND DUP2 JUMP JUMPDEST PUSH1 0x8 PUSH1 0x0 SWAP1 SLOAD SWAP1 PUSH2 0x100 EXP SWAP1 DIV PUSH20 0xFFFFFFFFFFFFFFFFFFFFFFFFFFFFFFFFFFFFFFFF AND DUP2 JUMP JUMPDEST PUSH1 0x60 PUSH1 0x4 DUP1 SLOAD PUSH2 0xF2E SWAP1 PUSH2 0x2248 JUMP JUMPDEST DUP1 PUSH1 0x1F ADD PUSH1 0x20 DUP1 SWAP2 DIV MUL PUSH1 0x20 ADD PUSH1 0x40 MLOAD SWAP1 DUP2 ADD PUSH1 0x40 MSTORE DUP1 SWAP3 SWAP2 SWAP1 DUP2 DUP2 MSTORE PUSH1 0x20 ADD DUP3 DUP1 SLOAD PUSH2 0xF5A SWAP1 PUSH2 0x2248 JUMP JUMPDEST DUP1 ISZERO PUSH2 0xFA7 JUMPI DUP1 PUSH1 0x1F LT PUSH2 0xF7C JUMPI PUSH2 0x100 DUP1 DUP4 SLOAD DIV MUL DUP4 MSTORE SWAP2 PUSH1 0x20 ADD SWAP2 PUSH2 0xFA7 JUMP JUMPDEST DUP3 ADD SWAP2 SWAP1 PUSH1 0x0 MSTORE PUSH1 0x20 PUSH1 0x0 KECCAK256 SWAP1 JUMPDEST DUP2 SLOAD DUP2 MSTORE SWAP1 PUSH1 0x1 ADD SWAP1 PUSH1 0x20 ADD DUP1 DUP4 GT PUSH2 0xF8A JUMPI DUP3 SWAP1 SUB PUSH1 0x1F AND DUP3 ADD SWAP2 JUMPDEST POP POP POP POP POP SWAP1 POP SWAP1 JUMP JUMPDEST PUSH1 0x5 PUSH1 0x6 SWAP1 SLOAD SWAP1 PUSH2 0x100 EXP SWAP1 DIV PUSH3 0xFFFFFF AND DUP2 JUMP JUMPDEST PUSH1 0x0 DUP1 PUSH1 0x1 PUSH1 0x0 PUSH2 0xFD5 PUSH2 0x13FF JUMP JUMPDEST PUSH20 0xFFFFFFFFFFFFFFFFFFFFFFFFFFFFFFFFFFFFFFFF AND PUSH20 0xFFFFFFFFFFFFFFFFFFFFFFFFFFFFFFFFFFFFFFFF AND DUP2 MSTORE PUSH1 0x20 ADD SWAP1 DUP2 MSTORE PUSH1 0x20 ADD PUSH1 0x0 KECCAK256 PUSH1 0x0 DUP6 PUSH20 0xFFFFFFFFFFFFFFFFFFFFFFFFFFFFFFFFFFFFFFFF AND PUSH20 0xFFFFFFFFFFFFFFFFFFFFFFFFFFFFFFFFFFFFFFFF AND DUP2 MSTORE PUSH1 0x20 ADD SWAP1 DUP2 MSTORE PUSH1 0x20 ADD PUSH1 0x0 KECCAK256 SLOAD SWAP1 POP DUP3 DUP2 LT ISZERO PUSH2 0x1092 JUMPI PUSH1 0x40 MLOAD PUSH32 0x8C379A000000000000000000000000000000000000000000000000000000000 DUP2 MSTORE PUSH1 0x4 ADD PUSH2 0x1089 SWAP1 PUSH2 0x298F JUMP JUMPDEST PUSH1 0x40 MLOAD DUP1 SWAP2 SUB SWAP1 REVERT JUMPDEST PUSH2 0x10AF PUSH2 0x109D PUSH2 0x13FF JUMP JUMPDEST DUP6 DUP6 DUP5 PUSH2 0x10AA SWAP2 SWAP1 PUSH2 0x28B5 JUMP JUMPDEST PUSH2 0x1407 JUMP JUMPDEST PUSH1 0x1 SWAP2 POP POP SWAP3 SWAP2 POP POP JUMP JUMPDEST PUSH1 0x0 PUSH2 0x10CE PUSH2 0x10C7 PUSH2 0x13FF JUMP JUMPDEST DUP5 DUP5 PUSH2 0x1630 JUMP JUMPDEST PUSH1 0x1 SWAP1 POP SWAP3 SWAP2 POP POP JUMP JUMPDEST PUSH1 0x5 PUSH1 0x0 SWAP1 SLOAD SWAP1 PUSH2 0x100 EXP SWAP1 DIV PUSH3 0xFFFFFF AND DUP2 JUMP JUMPDEST PUSH1 0x0 PUSH1 0x1 PUSH1 0x0 DUP5 PUSH20 0xFFFFFFFFFFFFFFFFFFFFFFFFFFFFFFFFFFFFFFFF AND PUSH20 0xFFFFFFFFFFFFFFFFFFFFFFFFFFFFFFFFFFFFFFFF AND DUP2 MSTORE PUSH1 0x20 ADD SWAP1 DUP2 MSTORE PUSH1 0x20 ADD PUSH1 0x0 KECCAK256 PUSH1 0x0 DUP4 PUSH20 0xFFFFFFFFFFFFFFFFFFFFFFFFFFFFFFFFFFFFFFFF AND PUSH20 0xFFFFFFFFFFFFFFFFFFFFFFFFFFFFFFFFFFFFFFFF AND DUP2 MSTORE PUSH1 0x20 ADD SWAP1 DUP2 MSTORE PUSH1 0x20 ADD PUSH1 0x0 KECCAK256 SLOAD SWAP1 POP SWAP3 SWAP2 POP POP JUMP JUMPDEST PUSH2 0x117C PUSH2 0x19F9 JUMP JUMPDEST PUSH1 0x0 PUSH1 0x9 DUP4 PUSH3 0xFFFFFF AND DUP2 SLOAD DUP2 LT PUSH2 0x1197 JUMPI PUSH2 0x1196 PUSH2 0x239D JUMP JUMPDEST JUMPDEST SWAP1 PUSH1 0x0 MSTORE PUSH1 0x20 PUSH1 0x0 KECCAK256 SWAP1 PUSH1 0x4 MUL ADD SWAP1 POP PUSH1 0x0 PUSH2 0x11B5 DUP3 PUSH1 0x0 ADD PUSH2 0x18AD JUMP JUMPDEST PUSH8 0xFFFFFFFFFFFFFFFF DUP2 GT ISZERO PUSH2 0x11CE JUMPI PUSH2 0x11CD PUSH2 0x1C3C JUMP JUMPDEST JUMPDEST PUSH1 0x40 MLOAD SWAP1 DUP1 DUP3 MSTORE DUP1 PUSH1 0x20 MUL PUSH1 0x20 ADD DUP3 ADD PUSH1 0x40 MSTORE DUP1 ISZERO PUSH2 0x11FC JUMPI DUP2 PUSH1 0x20 ADD PUSH1 0x20 DUP3 MUL DUP1 CALLDATASIZE DUP4 CALLDATACOPY DUP1 DUP3 ADD SWAP2 POP POP SWAP1 POP JUMPDEST POP SWAP1 POP PUSH1 0x0 JUMPDEST PUSH2 0x120E DUP4 PUSH1 0x0 ADD PUSH2 0x18AD JUMP JUMPDEST DUP2 LT ISZERO PUSH2 0x128B JUMPI PUSH2 0x122B DUP2 DUP5 PUSH1 0x0 ADD PUSH2 0x18C2 SWAP1 SWAP2 SWAP1 PUSH4 0xFFFFFFFF AND JUMP JUMPDEST DUP3 DUP3 DUP2 MLOAD DUP2 LT PUSH2 0x123E JUMPI PUSH2 0x123D PUSH2 0x239D JUMP JUMPDEST JUMPDEST PUSH1 0x20 MUL PUSH1 0x20 ADD ADD SWAP1 PUSH20 0xFFFFFFFFFFFFFFFFFFFFFFFFFFFFFFFFFFFFFFFF AND SWAP1 DUP2 PUSH20 0xFFFFFFFFFFFFFFFFFFFFFFFFFFFFFFFFFFFFFFFF AND DUP2 MSTORE POP POP DUP1 DUP1 PUSH2 0x1283 SWAP1 PUSH2 0x29AF JUMP JUMPDEST SWAP2 POP POP PUSH2 0x1202 JUMP JUMPDEST POP PUSH1 0x40 MLOAD DUP1 PUSH2 0x120 ADD PUSH1 0x40 MSTORE DUP1 DUP3 DUP2 MSTORE PUSH1 0x20 ADD DUP4 PUSH1 0x2 ADD DUP1 SLOAD PUSH2 0x12AD SWAP1 PUSH2 0x2248 JUMP JUMPDEST DUP1 PUSH1 0x1F ADD PUSH1 0x20 DUP1 SWAP2 DIV MUL PUSH1 0x20 ADD PUSH1 0x40 MLOAD SWAP1 DUP2 ADD PUSH1 0x40 MSTORE DUP1 SWAP3 SWAP2 SWAP1 DUP2 DUP2 MSTORE PUSH1 0x20 ADD DUP3 DUP1 SLOAD PUSH2 0x12D9 SWAP1 PUSH2 0x2248 JUMP JUMPDEST DUP1 ISZERO PUSH2 0x1326 JUMPI DUP1 PUSH1 0x1F LT PUSH2 0x12FB JUMPI PUSH2 0x100 DUP1 DUP4 SLOAD DIV MUL DUP4 MSTORE SWAP2 PUSH1 0x20 ADD SWAP2 PUSH2 0x1326 JUMP JUMPDEST DUP3 ADD SWAP2 SWAP1 PUSH1 0x0 MSTORE PUSH1 0x20 PUSH1 0x0 KECCAK256 SWAP1 JUMPDEST DUP2 SLOAD DUP2 MSTORE SWAP1 PUSH1 0x1 ADD SWAP1 PUSH1 0x20 ADD DUP1 DUP4 GT PUSH2 0x1309 JUMPI DUP3 SWAP1 SUB PUSH1 0x1F AND DUP3 ADD SWAP2 JUMPDEST POP POP POP POP POP DUP2 MSTORE PUSH1 0x20 ADD DUP4 PUSH1 0x3 ADD PUSH1 0x0 SWAP1 SLOAD SWAP1 PUSH2 0x100 EXP SWAP1 DIV PUSH3 0xFFFFFF AND PUSH3 0xFFFFFF AND DUP2 MSTORE PUSH1 0x20 ADD DUP4 PUSH1 0x3 ADD PUSH1 0x3 SWAP1 SLOAD SWAP1 PUSH2 0x100 EXP SWAP1 DIV PUSH3 0xFFFFFF AND PUSH3 0xFFFFFF AND DUP2 MSTORE PUSH1 0x20 ADD DUP4 PUSH1 0x3 ADD PUSH1 0x6 SWAP1 SLOAD SWAP1 PUSH2 0x100 EXP SWAP1 DIV PUSH3 0xFFFFFF AND PUSH3 0xFFFFFF AND DUP2 MSTORE PUSH1 0x20 ADD DUP4 PUSH1 0x3 ADD PUSH1 0x9 SWAP1 SLOAD SWAP1 PUSH2 0x100 EXP SWAP1 DIV PUSH3 0xFFFFFF AND PUSH3 0xFFFFFF AND DUP2 MSTORE PUSH1 0x20 ADD DUP4 PUSH1 0x3 ADD PUSH1 0xC SWAP1 SLOAD SWAP1 PUSH2 0x100 EXP SWAP1 DIV PUSH3 0xFFFFFF AND PUSH3 0xFFFFFF AND DUP2 MSTORE PUSH1 0x20 ADD DUP4 PUSH1 0x3 ADD PUSH1 0xF SWAP1 SLOAD SWAP1 PUSH2 0x100 EXP SWAP1 DIV PUSH1 0xFF AND ISZERO ISZERO DUP2 MSTORE PUSH1 0x20 ADD DUP4 PUSH1 0x3 ADD PUSH1 0x10 SWAP1 SLOAD SWAP1 PUSH2 0x100 EXP SWAP1 DIV PUSH1 0xFF AND ISZERO ISZERO DUP2 MSTORE POP SWAP3 POP POP POP SWAP2 SWAP1 POP JUMP JUMPDEST PUSH1 0x0 CALLER SWAP1 POP SWAP1 JUMP JUMPDEST PUSH1 0x0 PUSH20 0xFFFFFFFFFFFFFFFFFFFFFFFFFFFFFFFFFFFFFFFF AND DUP4 PUSH20 0xFFFFFFFFFFFFFFFFFFFFFFFFFFFFFFFFFFFFFFFF AND SUB PUSH2 0x1476 JUMPI PUSH1 0x40 MLOAD PUSH32 0x8C379A000000000000000000000000000000000000000000000000000000000 DUP2 MSTORE PUSH1 0x4 ADD PUSH2 0x146D SWAP1 PUSH2 0x2A69 JUMP JUMPDEST PUSH1 0x40 MLOAD DUP1 SWAP2 SUB SWAP1 REVERT JUMPDEST PUSH1 0x0 PUSH20 0xFFFFFFFFFFFFFFFFFFFFFFFFFFFFFFFFFFFFFFFF AND DUP3 PUSH20 0xFFFFFFFFFFFFFFFFFFFFFFFFFFFFFFFFFFFFFFFF AND SUB PUSH2 0x14E5 JUMPI PUSH1 0x40 MLOAD PUSH32 0x8C379A000000000000000000000000000000000000000000000000000000000 DUP2 MSTORE PUSH1 0x4 ADD PUSH2 0x14DC SWAP1 PUSH2 0x2AFB JUMP JUMPDEST PUSH1 0x40 MLOAD DUP1 SWAP2 SUB SWAP1 REVERT JUMPDEST DUP1 PUSH1 0x1 PUSH1 0x0 DUP6 PUSH20 0xFFFFFFFFFFFFFFFFFFFFFFFFFFFFFFFFFFFFFFFF AND PUSH20 0xFFFFFFFFFFFFFFFFFFFFFFFFFFFFFFFFFFFFFFFF AND DUP2 MSTORE PUSH1 0x20 ADD SWAP1 DUP2 MSTORE PUSH1 0x20 ADD PUSH1 0x0 KECCAK256 PUSH1 0x0 DUP5 PUSH20 0xFFFFFFFFFFFFFFFFFFFFFFFFFFFFFFFFFFFFFFFF AND PUSH20 0xFFFFFFFFFFFFFFFFFFFFFFFFFFFFFFFFFFFFFFFF AND DUP2 MSTORE PUSH1 0x20 ADD SWAP1 DUP2 MSTORE PUSH1 0x20 ADD PUSH1 0x0 KECCAK256 DUP2 SWAP1 SSTORE POP DUP2 PUSH20 0xFFFFFFFFFFFFFFFFFFFFFFFFFFFFFFFFFFFFFFFF AND DUP4 PUSH20 0xFFFFFFFFFFFFFFFFFFFFFFFFFFFFFFFFFFFFFFFF AND PUSH32 0x8C5BE1E5EBEC7D5BD14F71427D1E84F3DD0314C0F7B2291E5B200AC8C7C3B925 DUP4 PUSH1 0x40 MLOAD PUSH2 0x15C3 SWAP2 SWAP1 PUSH2 0x1E0D JUMP JUMPDEST PUSH1 0x40 MLOAD DUP1 SWAP2 SUB SWAP1 LOG3 POP POP POP JUMP JUMPDEST PUSH1 0x0 PUSH2 0x15F8 DUP4 PUSH1 0x0 ADD DUP4 PUSH20 0xFFFFFFFFFFFFFFFFFFFFFFFFFFFFFFFFFFFFFFFF AND PUSH1 0x0 SHL PUSH2 0x18DC JUMP JUMPDEST SWAP1 POP SWAP3 SWAP2 POP POP JUMP JUMPDEST PUSH1 0x0 PUSH2 0x1628 DUP4 PUSH1 0x0 ADD DUP4 PUSH20 0xFFFFFFFFFFFFFFFFFFFFFFFFFFFFFFFFFFFFFFFF AND PUSH1 0x0 SHL PUSH2 0x18FF JUMP JUMPDEST SWAP1 POP SWAP3 SWAP2 POP POP JUMP JUMPDEST PUSH1 0x0 PUSH20 0xFFFFFFFFFFFFFFFFFFFFFFFFFFFFFFFFFFFFFFFF AND DUP4 PUSH20 0xFFFFFFFFFFFFFFFFFFFFFFFFFFFFFFFFFFFFFFFF AND SUB PUSH2 0x169F JUMPI PUSH1 0x40 MLOAD PUSH32 0x8C379A000000000000000000000000000000000000000000000000000000000 DUP2 MSTORE PUSH1 0x4 ADD PUSH2 0x1696 SWAP1 PUSH2 0x2B8D JUMP JUMPDEST PUSH1 0x40 MLOAD DUP1 SWAP2 SUB SWAP1 REVERT JUMPDEST PUSH1 0x0 PUSH20 0xFFFFFFFFFFFFFFFFFFFFFFFFFFFFFFFFFFFFFFFF AND DUP3 PUSH20 0xFFFFFFFFFFFFFFFFFFFFFFFFFFFFFFFFFFFFFFFF AND SUB PUSH2 0x170E JUMPI PUSH1 0x40 MLOAD PUSH32 0x8C379A000000000000000000000000000000000000000000000000000000000 DUP2 MSTORE PUSH1 0x4 ADD PUSH2 0x1705 SWAP1 PUSH2 0x2C1F JUMP JUMPDEST PUSH1 0x40 MLOAD DUP1 SWAP2 SUB SWAP1 REVERT JUMPDEST PUSH2 0x1719 DUP4 DUP4 DUP4 PUSH2 0x196F JUMP JUMPDEST PUSH1 0x0 DUP1 PUSH1 0x0 DUP6 PUSH20 0xFFFFFFFFFFFFFFFFFFFFFFFFFFFFFFFFFFFFFFFF AND PUSH20 0xFFFFFFFFFFFFFFFFFFFFFFFFFFFFFFFFFFFFFFFF AND DUP2 MSTORE PUSH1 0x20 ADD SWAP1 DUP2 MSTORE PUSH1 0x20 ADD PUSH1 0x0 KECCAK256 SLOAD SWAP1 POP DUP2 DUP2 LT ISZERO PUSH2 0x179F JUMPI PUSH1 0x40 MLOAD PUSH32 0x8C379A000000000000000000000000000000000000000000000000000000000 DUP2 MSTORE PUSH1 0x4 ADD PUSH2 0x1796 SWAP1 PUSH2 0x2CB1 JUMP JUMPDEST PUSH1 0x40 MLOAD DUP1 SWAP2 SUB SWAP1 REVERT JUMPDEST DUP2 DUP2 PUSH2 0x17AB SWAP2 SWAP1 PUSH2 0x28B5 JUMP JUMPDEST PUSH1 0x0 DUP1 DUP7 PUSH20 0xFFFFFFFFFFFFFFFFFFFFFFFFFFFFFFFFFFFFFFFF AND PUSH20 0xFFFFFFFFFFFFFFFFFFFFFFFFFFFFFFFFFFFFFFFF AND DUP2 MSTORE PUSH1 0x20 ADD SWAP1 DUP2 MSTORE PUSH1 0x20 ADD PUSH1 0x0 KECCAK256 DUP2 SWAP1 SSTORE POP DUP2 PUSH1 0x0 DUP1 DUP6 PUSH20 0xFFFFFFFFFFFFFFFFFFFFFFFFFFFFFFFFFFFFFFFF AND PUSH20 0xFFFFFFFFFFFFFFFFFFFFFFFFFFFFFFFFFFFFFFFF AND DUP2 MSTORE PUSH1 0x20 ADD SWAP1 DUP2 MSTORE PUSH1 0x20 ADD PUSH1 0x0 KECCAK256 PUSH1 0x0 DUP3 DUP3 SLOAD PUSH2 0x183B SWAP2 SWAP1 PUSH2 0x28E9 JUMP JUMPDEST SWAP3 POP POP DUP2 SWAP1 SSTORE POP DUP3 PUSH20 0xFFFFFFFFFFFFFFFFFFFFFFFFFFFFFFFFFFFFFFFF AND DUP5 PUSH20 0xFFFFFFFFFFFFFFFFFFFFFFFFFFFFFFFFFFFFFFFF AND PUSH32 0xDDF252AD1BE2C89B69C2B068FC378DAA952BA7F163C4A11628F55A4DF523B3EF DUP5 PUSH1 0x40 MLOAD PUSH2 0x189F SWAP2 SWAP1 PUSH2 0x1E0D JUMP JUMPDEST PUSH1 0x40 MLOAD DUP1 SWAP2 SUB SWAP1 LOG3 POP POP POP POP JUMP JUMPDEST PUSH1 0x0 PUSH2 0x18BB DUP3 PUSH1 0x0 ADD PUSH2 0x1974 JUMP JUMPDEST SWAP1 POP SWAP2 SWAP1 POP JUMP JUMPDEST PUSH1 0x0 PUSH2 0x18D1 DUP4 PUSH1 0x0 ADD DUP4 PUSH2 0x1985 JUMP JUMPDEST PUSH1 0x0 SHR SWAP1 POP SWAP3 SWAP2 POP POP JUMP JUMPDEST PUSH1 0x0 DUP1 DUP4 PUSH1 0x1 ADD PUSH1 0x0 DUP5 DUP2 MSTORE PUSH1 0x20 ADD SWAP1 DUP2 MSTORE PUSH1 0x20 ADD PUSH1 0x0 KECCAK256 SLOAD EQ ISZERO SWAP1 POP SWAP3 SWAP2 POP POP JUMP JUMPDEST PUSH1 0x0 PUSH2 0x190B DUP4 DUP4 PUSH2 0x18DC JUMP JUMPDEST PUSH2 0x1964 JUMPI DUP3 PUSH1 0x0 ADD DUP3 SWAP1 DUP1 PUSH1 0x1 DUP2 SLOAD ADD DUP1 DUP3 SSTORE DUP1 SWAP2 POP POP PUSH1 0x1 SWAP1 SUB SWAP1 PUSH1 0x0 MSTORE PUSH1 0x20 PUSH1 0x0 KECCAK256 ADD PUSH1 0x0 SWAP1 SWAP2 SWAP1 SWAP2 SWAP1 SWAP2 POP SSTORE DUP3 PUSH1 0x0 ADD DUP1 SLOAD SWAP1 POP DUP4 PUSH1 0x1 ADD PUSH1 0x0 DUP5 DUP2 MSTORE PUSH1 0x20 ADD SWAP1 DUP2 MSTORE PUSH1 0x20 ADD PUSH1 0x0 KECCAK256 DUP2 SWAP1 SSTORE POP PUSH1 0x1 SWAP1 POP PUSH2 0x1969 JUMP JUMPDEST PUSH1 0x0 SWAP1 POP JUMPDEST SWAP3 SWAP2 POP POP JUMP JUMPDEST POP POP POP JUMP JUMPDEST PUSH1 0x0 DUP2 PUSH1 0x0 ADD DUP1 SLOAD SWAP1 POP SWAP1 POP SWAP2 SWAP1 POP JUMP JUMPDEST PUSH1 0x0 DUP2 DUP4 PUSH1 0x0 ADD DUP1 SLOAD SWAP1 POP GT PUSH2 0x19D0 JUMPI PUSH1 0x40 MLOAD PUSH32 0x8C379A000000000000000000000000000000000000000000000000000000000 DUP2 MSTORE PUSH1 0x4 ADD PUSH2 0x19C7 SWAP1 PUSH2 0x2D43 JUMP JUMPDEST PUSH1 0x40 MLOAD DUP1 SWAP2 SUB SWAP1 REVERT JUMPDEST DUP3 PUSH1 0x0 ADD DUP3 DUP2 SLOAD DUP2 LT PUSH2 0x19E6 JUMPI PUSH2 0x19E5 PUSH2 0x239D JUMP JUMPDEST JUMPDEST SWAP1 PUSH1 0x0 MSTORE PUSH1 0x20 PUSH1 0x0 KECCAK256 ADD SLOAD SWAP1 POP SWAP3 SWAP2 POP POP JUMP JUMPDEST PUSH1 0x40 MLOAD DUP1 PUSH2 0x120 ADD PUSH1 0x40 MSTORE DUP1 PUSH1 0x60 DUP2 MSTORE PUSH1 0x20 ADD PUSH1 0x60 DUP2 MSTORE PUSH1 0x20 ADD PUSH1 0x0 PUSH3 0xFFFFFF AND DUP2 MSTORE PUSH1 0x20 ADD PUSH1 0x0 PUSH3 0xFFFFFF AND DUP2 MSTORE PUSH1 0x20 ADD PUSH1 0x0 PUSH3 0xFFFFFF AND DUP2 MSTORE PUSH1 0x20 ADD PUSH1 0x0 PUSH3 0xFFFFFF AND DUP2 MSTORE PUSH1 0x20 ADD PUSH1 0x0 PUSH3 0xFFFFFF AND DUP2 MSTORE PUSH1 0x20 ADD PUSH1 0x0 ISZERO ISZERO DUP2 MSTORE PUSH1 0x20 ADD PUSH1 0x0 ISZERO ISZERO DUP2 MSTORE POP SWAP1 JUMP JUMPDEST PUSH1 0x0 DUP2 MLOAD SWAP1 POP SWAP2 SWAP1 POP JUMP JUMPDEST PUSH1 0x0 DUP3 DUP3 MSTORE PUSH1 0x20 DUP3 ADD SWAP1 POP SWAP3 SWAP2 POP POP JUMP JUMPDEST PUSH1 0x0 JUMPDEST DUP4 DUP2 LT ISZERO PUSH2 0x1A9C JUMPI DUP1 DUP3 ADD MLOAD DUP2 DUP5 ADD MSTORE PUSH1 0x20 DUP2 ADD SWAP1 POP PUSH2 0x1A81 JUMP JUMPDEST PUSH1 0x0 DUP5 DUP5 ADD MSTORE POP POP POP POP JUMP JUMPDEST PUSH1 0x0 PUSH1 0x1F NOT PUSH1 0x1F DUP4 ADD AND SWAP1 POP SWAP2 SWAP1 POP JUMP JUMPDEST PUSH1 0x0 PUSH2 0x1AC4 DUP3 PUSH2 0x1A62 JUMP JUMPDEST PUSH2 0x1ACE DUP2 DUP6 PUSH2 0x1A6D JUMP JUMPDEST SWAP4 POP PUSH2 0x1ADE DUP2 DUP6 PUSH1 0x20 DUP7 ADD PUSH2 0x1A7E JUMP JUMPDEST PUSH2 0x1AE7 DUP2 PUSH2 0x1AA8 JUMP JUMPDEST DUP5 ADD SWAP2 POP POP SWAP3 SWAP2 POP POP JUMP JUMPDEST PUSH1 0x0 PUSH1 0x20 DUP3 ADD SWAP1 POP DUP2 DUP2 SUB PUSH1 0x0 DUP4 ADD MSTORE PUSH2 0x1B0C DUP2 DUP5 PUSH2 0x1AB9 JUMP JUMPDEST SWAP1 POP SWAP3 SWAP2 POP POP JUMP JUMPDEST PUSH1 0x0 PUSH1 0x40 MLOAD SWAP1 POP SWAP1 JUMP JUMPDEST PUSH1 0x0 DUP1 REVERT JUMPDEST PUSH1 0x0 DUP1 REVERT JUMPDEST PUSH1 0x0 PUSH20 0xFFFFFFFFFFFFFFFFFFFFFFFFFFFFFFFFFFFFFFFF DUP3 AND SWAP1 POP SWAP2 SWAP1 POP JUMP JUMPDEST PUSH1 0x0 PUSH2 0x1B53 DUP3 PUSH2 0x1B28 JUMP JUMPDEST SWAP1 POP SWAP2 SWAP1 POP JUMP JUMPDEST PUSH2 0x1B63 DUP2 PUSH2 0x1B48 JUMP JUMPDEST DUP2 EQ PUSH2 0x1B6E JUMPI PUSH1 0x0 DUP1 REVERT JUMPDEST POP JUMP JUMPDEST PUSH1 0x0 DUP2 CALLDATALOAD SWAP1 POP PUSH2 0x1B80 DUP2 PUSH2 0x1B5A JUMP JUMPDEST SWAP3 SWAP2 POP POP JUMP JUMPDEST PUSH1 0x0 DUP2 SWAP1 POP SWAP2 SWAP1 POP JUMP JUMPDEST PUSH2 0x1B99 DUP2 PUSH2 0x1B86 JUMP JUMPDEST DUP2 EQ PUSH2 0x1BA4 JUMPI PUSH1 0x0 DUP1 REVERT JUMPDEST POP JUMP JUMPDEST PUSH1 0x0 DUP2 CALLDATALOAD SWAP1 POP PUSH2 0x1BB6 DUP2 PUSH2 0x1B90 JUMP JUMPDEST SWAP3 SWAP2 POP POP JUMP JUMPDEST PUSH1 0x0 DUP1 PUSH1 0x40 DUP4 DUP6 SUB SLT ISZERO PUSH2 0x1BD3 JUMPI PUSH2 0x1BD2 PUSH2 0x1B1E JUMP JUMPDEST JUMPDEST PUSH1 0x0 PUSH2 0x1BE1 DUP6 DUP3 DUP7 ADD PUSH2 0x1B71 JUMP JUMPDEST SWAP3 POP POP PUSH1 0x20 PUSH2 0x1BF2 DUP6 DUP3 DUP7 ADD PUSH2 0x1BA7 JUMP JUMPDEST SWAP2 POP POP SWAP3 POP SWAP3 SWAP1 POP JUMP JUMPDEST PUSH1 0x0 DUP2 ISZERO ISZERO SWAP1 POP SWAP2 SWAP1 POP JUMP JUMPDEST PUSH2 0x1C11 DUP2 PUSH2 0x1BFC JUMP JUMPDEST DUP3 MSTORE POP POP JUMP JUMPDEST PUSH1 0x0 PUSH1 0x20 DUP3 ADD SWAP1 POP PUSH2 0x1C2C PUSH1 0x0 DUP4 ADD DUP5 PUSH2 0x1C08 JUMP JUMPDEST SWAP3 SWAP2 POP POP JUMP JUMPDEST PUSH1 0x0 DUP1 REVERT JUMPDEST PUSH1 0x0 DUP1 REVERT JUMPDEST PUSH32 0x4E487B7100000000000000000000000000000000000000000000000000000000 PUSH1 0x0 MSTORE PUSH1 0x41 PUSH1 0x4 MSTORE PUSH1 0x24 PUSH1 0x0 REVERT JUMPDEST PUSH2 0x1C74 DUP3 PUSH2 0x1AA8 JUMP JUMPDEST DUP2 ADD DUP2 DUP2 LT PUSH8 0xFFFFFFFFFFFFFFFF DUP3 GT OR ISZERO PUSH2 0x1C93 JUMPI PUSH2 0x1C92 PUSH2 0x1C3C JUMP JUMPDEST JUMPDEST DUP1 PUSH1 0x40 MSTORE POP POP POP JUMP JUMPDEST PUSH1 0x0 PUSH2 0x1CA6 PUSH2 0x1B14 JUMP JUMPDEST SWAP1 POP PUSH2 0x1CB2 DUP3 DUP3 PUSH2 0x1C6B JUMP JUMPDEST SWAP2 SWAP1 POP JUMP JUMPDEST PUSH1 0x0 PUSH8 0xFFFFFFFFFFFFFFFF DUP3 GT ISZERO PUSH2 0x1CD2 JUMPI PUSH2 0x1CD1 PUSH2 0x1C3C JUMP JUMPDEST JUMPDEST PUSH2 0x1CDB DUP3 PUSH2 0x1AA8 JUMP JUMPDEST SWAP1 POP PUSH1 0x20 DUP2 ADD SWAP1 POP SWAP2 SWAP1 POP JUMP JUMPDEST DUP3 DUP2 DUP4 CALLDATACOPY PUSH1 0x0 DUP4 DUP4 ADD MSTORE POP POP POP JUMP JUMPDEST PUSH1 0x0 PUSH2 0x1D0A PUSH2 0x1D05 DUP5 PUSH2 0x1CB7 JUMP JUMPDEST PUSH2 0x1C9C JUMP JUMPDEST SWAP1 POP DUP3 DUP2 MSTORE PUSH1 0x20 DUP2 ADD DUP5 DUP5 DUP5 ADD GT ISZERO PUSH2 0x1D26 JUMPI PUSH2 0x1D25 PUSH2 0x1C37 JUMP JUMPDEST JUMPDEST PUSH2 0x1D31 DUP5 DUP3 DUP6 PUSH2 0x1CE8 JUMP JUMPDEST POP SWAP4 SWAP3 POP POP POP JUMP JUMPDEST PUSH1 0x0 DUP3 PUSH1 0x1F DUP4 ADD SLT PUSH2 0x1D4E JUMPI PUSH2 0x1D4D PUSH2 0x1C32 JUMP JUMPDEST JUMPDEST DUP2 CALLDATALOAD PUSH2 0x1D5E DUP5 DUP3 PUSH1 0x20 DUP7 ADD PUSH2 0x1CF7 JUMP JUMPDEST SWAP2 POP POP SWAP3 SWAP2 POP POP JUMP JUMPDEST PUSH1 0x0 PUSH3 0xFFFFFF DUP3 AND SWAP1 POP SWAP2 SWAP1 POP JUMP JUMPDEST PUSH2 0x1D7F DUP2 PUSH2 0x1D67 JUMP JUMPDEST DUP2 EQ PUSH2 0x1D8A JUMPI PUSH1 0x0 DUP1 REVERT JUMPDEST POP JUMP JUMPDEST PUSH1 0x0 DUP2 CALLDATALOAD SWAP1 POP PUSH2 0x1D9C DUP2 PUSH2 0x1D76 JUMP JUMPDEST SWAP3 SWAP2 POP POP JUMP JUMPDEST PUSH1 0x0 DUP1 PUSH1 0x40 DUP4 DUP6 SUB SLT ISZERO PUSH2 0x1DB9 JUMPI PUSH2 0x1DB8 PUSH2 0x1B1E JUMP JUMPDEST JUMPDEST PUSH1 0x0 DUP4 ADD CALLDATALOAD PUSH8 0xFFFFFFFFFFFFFFFF DUP2 GT ISZERO PUSH2 0x1DD7 JUMPI PUSH2 0x1DD6 PUSH2 0x1B23 JUMP JUMPDEST JUMPDEST PUSH2 0x1DE3 DUP6 DUP3 DUP7 ADD PUSH2 0x1D39 JUMP JUMPDEST SWAP3 POP POP PUSH1 0x20 PUSH2 0x1DF4 DUP6 DUP3 DUP7 ADD PUSH2 0x1D8D JUMP JUMPDEST SWAP2 POP POP SWAP3 POP SWAP3 SWAP1 POP JUMP JUMPDEST PUSH2 0x1E07 DUP2 PUSH2 0x1B86 JUMP JUMPDEST DUP3 MSTORE POP POP JUMP JUMPDEST PUSH1 0x0 PUSH1 0x20 DUP3 ADD SWAP1 POP PUSH2 0x1E22 PUSH1 0x0 DUP4 ADD DUP5 PUSH2 0x1DFE JUMP JUMPDEST SWAP3 SWAP2 POP POP JUMP JUMPDEST PUSH1 0x3 DUP2 LT PUSH2 0x1E35 JUMPI PUSH1 0x0 DUP1 REVERT JUMPDEST POP JUMP JUMPDEST PUSH1 0x0 DUP2 CALLDATALOAD SWAP1 POP PUSH2 0x1E47 DUP2 PUSH2 0x1E28 JUMP JUMPDEST SWAP3 SWAP2 POP POP JUMP JUMPDEST PUSH1 0x0 DUP1 PUSH1 0x40 DUP4 DUP6 SUB SLT ISZERO PUSH2 0x1E64 JUMPI PUSH2 0x1E63 PUSH2 0x1B1E JUMP JUMPDEST JUMPDEST PUSH1 0x0 PUSH2 0x1E72 DUP6 DUP3 DUP7 ADD PUSH2 0x1D8D JUMP JUMPDEST SWAP3 POP POP PUSH1 0x20 PUSH2 0x1E83 DUP6 DUP3 DUP7 ADD PUSH2 0x1E38 JUMP JUMPDEST SWAP2 POP POP SWAP3 POP SWAP3 SWAP1 POP JUMP JUMPDEST PUSH1 0x0 DUP1 PUSH1 0x0 PUSH1 0x60 DUP5 DUP7 SUB SLT ISZERO PUSH2 0x1EA6 JUMPI PUSH2 0x1EA5 PUSH2 0x1B1E JUMP JUMPDEST JUMPDEST PUSH1 0x0 PUSH2 0x1EB4 DUP7 DUP3 DUP8 ADD PUSH2 0x1B71 JUMP JUMPDEST SWAP4 POP POP PUSH1 0x20 PUSH2 0x1EC5 DUP7 DUP3 DUP8 ADD PUSH2 0x1B71 JUMP JUMPDEST SWAP3 POP POP PUSH1 0x40 PUSH2 0x1ED6 DUP7 DUP3 DUP8 ADD PUSH2 0x1BA7 JUMP JUMPDEST SWAP2 POP POP SWAP3 POP SWAP3 POP SWAP3 JUMP JUMPDEST PUSH1 0x0 PUSH1 0x20 DUP3 DUP5 SUB SLT ISZERO PUSH2 0x1EF6 JUMPI PUSH2 0x1EF5 PUSH2 0x1B1E JUMP JUMPDEST JUMPDEST PUSH1 0x0 PUSH2 0x1F04 DUP5 DUP3 DUP6 ADD PUSH2 0x1B71 JUMP JUMPDEST SWAP2 POP POP SWAP3 SWAP2 POP POP JUMP JUMPDEST PUSH2 0x1F16 DUP2 PUSH2 0x1D67 JUMP JUMPDEST DUP3 MSTORE POP POP JUMP JUMPDEST PUSH1 0x0 PUSH1 0x20 DUP3 ADD SWAP1 POP PUSH2 0x1F31 PUSH1 0x0 DUP4 ADD DUP5 PUSH2 0x1F0D JUMP JUMPDEST SWAP3 SWAP2 POP POP JUMP JUMPDEST PUSH1 0x0 PUSH1 0xFF DUP3 AND SWAP1 POP SWAP2 SWAP1 POP JUMP JUMPDEST PUSH2 0x1F4D DUP2 PUSH2 0x1F37 JUMP JUMPDEST DUP3 MSTORE POP POP JUMP JUMPDEST PUSH1 0x0 PUSH1 0x20 DUP3 ADD SWAP1 POP PUSH2 0x1F68 PUSH1 0x0 DUP4 ADD DUP5 PUSH2 0x1F44 JUMP JUMPDEST SWAP3 SWAP2 POP POP JUMP JUMPDEST PUSH2 0x1F77 DUP2 PUSH2 0x1B48 JUMP JUMPDEST DUP3 MSTORE POP POP JUMP JUMPDEST PUSH1 0x0 PUSH1 0x20 DUP3 ADD SWAP1 POP PUSH2 0x1F92 PUSH1 0x0 DUP4 ADD DUP5 PUSH2 0x1F6E JUMP JUMPDEST SWAP3 SWAP2 POP POP JUMP JUMPDEST PUSH1 0x0 DUP1 PUSH1 0x40 DUP4 DUP6 SUB SLT ISZERO PUSH2 0x1FAF JUMPI PUSH2 0x1FAE PUSH2 0x1B1E JUMP JUMPDEST JUMPDEST PUSH1 0x0 PUSH2 0x1FBD DUP6 DUP3 DUP7 ADD PUSH2 0x1B71 JUMP JUMPDEST SWAP3 POP POP PUSH1 0x20 PUSH2 0x1FCE DUP6 DUP3 DUP7 ADD PUSH2 0x1B71 JUMP JUMPDEST SWAP2 POP POP SWAP3 POP SWAP3 SWAP1 POP JUMP JUMPDEST PUSH1 0x0 PUSH1 0x20 DUP3 DUP5 SUB SLT ISZERO PUSH2 0x1FEE JUMPI PUSH2 0x1FED PUSH2 0x1B1E JUMP JUMPDEST JUMPDEST PUSH1 0x0 PUSH2 0x1FFC DUP5 DUP3 DUP6 ADD PUSH2 0x1D8D JUMP JUMPDEST SWAP2 POP POP SWAP3 SWAP2 POP POP JUMP JUMPDEST PUSH1 0x0 DUP2 MLOAD SWAP1 POP SWAP2 SWAP1 POP JUMP JUMPDEST PUSH1 0x0 DUP3 DUP3 MSTORE PUSH1 0x20 DUP3 ADD SWAP1 POP SWAP3 SWAP2 POP POP JUMP JUMPDEST PUSH1 0x0 DUP2 SWAP1 POP PUSH1 0x20 DUP3 ADD SWAP1 POP SWAP2 SWAP1 POP JUMP JUMPDEST PUSH2 0x203A DUP2 PUSH2 0x1B48 JUMP JUMPDEST DUP3 MSTORE POP POP JUMP JUMPDEST PUSH1 0x0 PUSH2 0x204C DUP4 DUP4 PUSH2 0x2031 JUMP JUMPDEST PUSH1 0x20 DUP4 ADD SWAP1 POP SWAP3 SWAP2 POP POP JUMP JUMPDEST PUSH1 0x0 PUSH1 0x20 DUP3 ADD SWAP1 POP SWAP2 SWAP1 POP JUMP JUMPDEST PUSH1 0x0 PUSH2 0x2070 DUP3 PUSH2 0x2005 JUMP JUMPDEST PUSH2 0x207A DUP2 DUP6 PUSH2 0x2010 JUMP JUMPDEST SWAP4 POP PUSH2 0x2085 DUP4 PUSH2 0x2021 JUMP JUMPDEST DUP1 PUSH1 0x0 JUMPDEST DUP4 DUP2 LT ISZERO PUSH2 0x20B6 JUMPI DUP2 MLOAD PUSH2 0x209D DUP9 DUP3 PUSH2 0x2040 JUMP JUMPDEST SWAP8 POP PUSH2 0x20A8 DUP4 PUSH2 0x2058 JUMP JUMPDEST SWAP3 POP POP PUSH1 0x1 DUP2 ADD SWAP1 POP PUSH2 0x2089 JUMP JUMPDEST POP DUP6 SWAP4 POP POP POP POP SWAP3 SWAP2 POP POP JUMP JUMPDEST PUSH1 0x0 DUP3 DUP3 MSTORE PUSH1 0x20 DUP3 ADD SWAP1 POP SWAP3 SWAP2 POP POP JUMP JUMPDEST PUSH1 0x0 PUSH2 0x20DF DUP3 PUSH2 0x1A62 JUMP JUMPDEST PUSH2 0x20E9 DUP2 DUP6 PUSH2 0x20C3 JUMP JUMPDEST SWAP4 POP PUSH2 0x20F9 DUP2 DUP6 PUSH1 0x20 DUP7 ADD PUSH2 0x1A7E JUMP JUMPDEST PUSH2 0x2102 DUP2 PUSH2 0x1AA8 JUMP JUMPDEST DUP5 ADD SWAP2 POP POP SWAP3 SWAP2 POP POP JUMP JUMPDEST PUSH2 0x2116 DUP2 PUSH2 0x1D67 JUMP JUMPDEST DUP3 MSTORE POP POP JUMP JUMPDEST PUSH2 0x2125 DUP2 PUSH2 0x1BFC JUMP JUMPDEST DUP3 MSTORE POP POP JUMP JUMPDEST PUSH1 0x0 PUSH2 0x120 DUP4 ADD PUSH1 0x0 DUP4 ADD MLOAD DUP5 DUP3 SUB PUSH1 0x0 DUP7 ADD MSTORE PUSH2 0x2149 DUP3 DUP3 PUSH2 0x2065 JUMP JUMPDEST SWAP2 POP POP PUSH1 0x20 DUP4 ADD MLOAD DUP5 DUP3 SUB PUSH1 0x20 DUP7 ADD MSTORE PUSH2 0x2163 DUP3 DUP3 PUSH2 0x20D4 JUMP JUMPDEST SWAP2 POP POP PUSH1 0x40 DUP4 ADD MLOAD PUSH2 0x2178 PUSH1 0x40 DUP7 ADD DUP3 PUSH2 0x210D JUMP JUMPDEST POP PUSH1 0x60 DUP4 ADD MLOAD PUSH2 0x218B PUSH1 0x60 DUP7 ADD DUP3 PUSH2 0x210D JUMP JUMPDEST POP PUSH1 0x80 DUP4 ADD MLOAD PUSH2 0x219E PUSH1 0x80 DUP7 ADD DUP3 PUSH2 0x210D JUMP JUMPDEST POP PUSH1 0xA0 DUP4 ADD MLOAD PUSH2 0x21B1 PUSH1 0xA0 DUP7 ADD DUP3 PUSH2 0x210D JUMP JUMPDEST POP PUSH1 0xC0 DUP4 ADD MLOAD PUSH2 0x21C4 PUSH1 0xC0 DUP7 ADD DUP3 PUSH2 0x210D JUMP JUMPDEST POP PUSH1 0xE0 DUP4 ADD MLOAD PUSH2 0x21D7 PUSH1 0xE0 DUP7 ADD DUP3 PUSH2 0x211C JUMP JUMPDEST POP PUSH2 0x100 DUP4 ADD MLOAD PUSH2 0x21EC PUSH2 0x100 DUP7 ADD DUP3 PUSH2 0x211C JUMP JUMPDEST POP DUP1 SWAP2 POP POP SWAP3 SWAP2 POP POP JUMP JUMPDEST PUSH1 0x0 PUSH1 0x20 DUP3 ADD SWAP1 POP DUP2 DUP2 SUB PUSH1 0x0 DUP4 ADD MSTORE PUSH2 0x2211 DUP2 DUP5 PUSH2 0x212B JUMP JUMPDEST SWAP1 POP SWAP3 SWAP2 POP POP JUMP JUMPDEST PUSH32 0x4E487B7100000000000000000000000000000000000000000000000000000000 PUSH1 0x0 MSTORE PUSH1 0x22 PUSH1 0x4 MSTORE PUSH1 0x24 PUSH1 0x0 REVERT JUMPDEST PUSH1 0x0 PUSH1 0x2 DUP3 DIV SWAP1 POP PUSH1 0x1 DUP3 AND DUP1 PUSH2 0x2260 JUMPI PUSH1 0x7F DUP3 AND SWAP2 POP JUMPDEST PUSH1 0x20 DUP3 LT DUP2 SUB PUSH2 0x2273 JUMPI PUSH2 0x2272 PUSH2 0x2219 JUMP JUMPDEST JUMPDEST POP SWAP2 SWAP1 POP JUMP JUMPDEST PUSH32 0x4F6E6C7920746F6B656E20686F6C646572732063616E20637265617465206973 PUSH1 0x0 DUP3 ADD MSTORE PUSH32 0x7375657300000000000000000000000000000000000000000000000000000000 PUSH1 0x20 DUP3 ADD MSTORE POP JUMP JUMPDEST PUSH1 0x0 PUSH2 0x22D5 PUSH1 0x24 DUP4 PUSH2 0x1A6D JUMP JUMPDEST SWAP2 POP PUSH2 0x22E0 DUP3 PUSH2 0x2279 JUMP JUMPDEST PUSH1 0x40 DUP3 ADD SWAP1 POP SWAP2 SWAP1 POP JUMP JUMPDEST PUSH1 0x0 PUSH1 0x20 DUP3 ADD SWAP1 POP DUP2 DUP2 SUB PUSH1 0x0 DUP4 ADD MSTORE PUSH2 0x2304 DUP2 PUSH2 0x22C8 JUMP JUMPDEST SWAP1 POP SWAP2 SWAP1 POP JUMP JUMPDEST PUSH32 0x51756F72756D2063616E6E6F742062652067726561746572207468616E207468 PUSH1 0x0 DUP3 ADD MSTORE PUSH32 0x6520746F74616C206E756D626572206F6620746F6B656E730000000000000000 PUSH1 0x20 DUP3 ADD MSTORE POP JUMP JUMPDEST PUSH1 0x0 PUSH2 0x2367 PUSH1 0x38 DUP4 PUSH2 0x1A6D JUMP JUMPDEST SWAP2 POP PUSH2 0x2372 DUP3 PUSH2 0x230B JUMP JUMPDEST PUSH1 0x40 DUP3 ADD SWAP1 POP SWAP2 SWAP1 POP JUMP JUMPDEST PUSH1 0x0 PUSH1 0x20 DUP3 ADD SWAP1 POP DUP2 DUP2 SUB PUSH1 0x0 DUP4 ADD MSTORE PUSH2 0x2396 DUP2 PUSH2 0x235A JUMP JUMPDEST SWAP1 POP SWAP2 SWAP1 POP JUMP JUMPDEST PUSH32 0x4E487B7100000000000000000000000000000000000000000000000000000000 PUSH1 0x0 MSTORE PUSH1 0x32 PUSH1 0x4 MSTORE PUSH1 0x24 PUSH1 0x0 REVERT JUMPDEST PUSH1 0x0 DUP2 SWAP1 POP DUP2 PUSH1 0x0 MSTORE PUSH1 0x20 PUSH1 0x0 KECCAK256 SWAP1 POP SWAP2 SWAP1 POP JUMP JUMPDEST PUSH1 0x0 PUSH1 0x20 PUSH1 0x1F DUP4 ADD DIV SWAP1 POP SWAP2 SWAP1 POP JUMP JUMPDEST PUSH1 0x0 DUP3 DUP3 SHL SWAP1 POP SWAP3 SWAP2 POP POP JUMP JUMPDEST PUSH1 0x0 PUSH1 0x8 DUP4 MUL PUSH2 0x242E PUSH32 0xFFFFFFFFFFFFFFFFFFFFFFFFFFFFFFFFFFFFFFFFFFFFFFFFFFFFFFFFFFFFFFFF DUP3 PUSH2 0x23F1 JUMP JUMPDEST PUSH2 0x2438 DUP7 DUP4 PUSH2 0x23F1 JUMP JUMPDEST SWAP6 POP DUP1 NOT DUP5 AND SWAP4 POP DUP1 DUP7 AND DUP5 OR SWAP3 POP POP POP SWAP4 SWAP3 POP POP POP JUMP JUMPDEST PUSH1 0x0 DUP2 SWAP1 POP SWAP2 SWAP1 POP JUMP JUMPDEST PUSH1 0x0 PUSH2 0x2475 PUSH2 0x2470 PUSH2 0x246B DUP5 PUSH2 0x1B86 JUMP JUMPDEST PUSH2 0x2450 JUMP JUMPDEST PUSH2 0x1B86 JUMP JUMPDEST SWAP1 POP SWAP2 SWAP1 POP JUMP JUMPDEST PUSH1 0x0 DUP2 SWAP1 POP SWAP2 SWAP1 POP JUMP JUMPDEST PUSH2 0x248F DUP4 PUSH2 0x245A JUMP JUMPDEST PUSH2 0x24A3 PUSH2 0x249B DUP3 PUSH2 0x247C JUMP JUMPDEST DUP5 DUP5 SLOAD PUSH2 0x23FE JUMP JUMPDEST DUP3 SSTORE POP POP POP POP JUMP JUMPDEST PUSH1 0x0 SWAP1 JUMP JUMPDEST PUSH2 0x24B8 PUSH2 0x24AB JUMP JUMPDEST PUSH2 0x24C3 DUP2 DUP5 DUP5 PUSH2 0x2486 JUMP JUMPDEST POP POP POP JUMP JUMPDEST JUMPDEST DUP2 DUP2 LT ISZERO PUSH2 0x24E7 JUMPI PUSH2 0x24DC PUSH1 0x0 DUP3 PUSH2 0x24B0 JUMP JUMPDEST PUSH1 0x1 DUP2 ADD SWAP1 POP PUSH2 0x24C9 JUMP JUMPDEST POP POP JUMP JUMPDEST PUSH1 0x1F DUP3 GT ISZERO PUSH2 0x252C JUMPI PUSH2 0x24FD DUP2 PUSH2 0x23CC JUMP JUMPDEST PUSH2 0x2506 DUP5 PUSH2 0x23E1 JUMP JUMPDEST DUP2 ADD PUSH1 0x20 DUP6 LT ISZERO PUSH2 0x2515 JUMPI DUP2 SWAP1 POP JUMPDEST PUSH2 0x2529 PUSH2 0x2521 DUP6 PUSH2 0x23E1 JUMP JUMPDEST DUP4 ADD DUP3 PUSH2 0x24C8 JUMP JUMPDEST POP POP JUMPDEST POP POP POP JUMP JUMPDEST PUSH1 0x0 DUP3 DUP3 SHR SWAP1 POP SWAP3 SWAP2 POP POP JUMP JUMPDEST PUSH1 0x0 PUSH2 0x254F PUSH1 0x0 NOT DUP5 PUSH1 0x8 MUL PUSH2 0x2531 JUMP JUMPDEST NOT DUP1 DUP4 AND SWAP2 POP POP SWAP3 SWAP2 POP POP JUMP JUMPDEST PUSH1 0x0 PUSH2 0x2568 DUP4 DUP4 PUSH2 0x253E JUMP JUMPDEST SWAP2 POP DUP3 PUSH1 0x2 MUL DUP3 OR SWAP1 POP SWAP3 SWAP2 POP POP JUMP JUMPDEST PUSH2 0x2581 DUP3 PUSH2 0x1A62 JUMP JUMPDEST PUSH8 0xFFFFFFFFFFFFFFFF DUP2 GT ISZERO PUSH2 0x259A JUMPI PUSH2 0x2599 PUSH2 0x1C3C JUMP JUMPDEST JUMPDEST PUSH2 0x25A4 DUP3 SLOAD PUSH2 0x2248 JUMP JUMPDEST PUSH2 0x25AF DUP3 DUP3 DUP6 PUSH2 0x24EB JUMP JUMPDEST PUSH1 0x0 PUSH1 0x20 SWAP1 POP PUSH1 0x1F DUP4 GT PUSH1 0x1 DUP2 EQ PUSH2 0x25E2 JUMPI PUSH1 0x0 DUP5 ISZERO PUSH2 0x25D0 JUMPI DUP3 DUP8 ADD MLOAD SWAP1 POP JUMPDEST PUSH2 0x25DA DUP6 DUP3 PUSH2 0x255C JUMP JUMPDEST DUP7 SSTORE POP PUSH2 0x2642 JUMP JUMPDEST PUSH1 0x1F NOT DUP5 AND PUSH2 0x25F0 DUP7 PUSH2 0x23CC JUMP JUMPDEST PUSH1 0x0 JUMPDEST DUP3 DUP2 LT ISZERO PUSH2 0x2618 JUMPI DUP5 DUP10 ADD MLOAD DUP3 SSTORE PUSH1 0x1 DUP3 ADD SWAP2 POP PUSH1 0x20 DUP6 ADD SWAP5 POP PUSH1 0x20 DUP2 ADD SWAP1 POP PUSH2 0x25F3 JUMP JUMPDEST DUP7 DUP4 LT ISZERO PUSH2 0x2635 JUMPI DUP5 DUP10 ADD MLOAD PUSH2 0x2631 PUSH1 0x1F DUP10 AND DUP3 PUSH2 0x253E JUMP JUMPDEST DUP4 SSTORE POP JUMPDEST PUSH1 0x1 PUSH1 0x2 DUP9 MUL ADD DUP9 SSTORE POP POP POP JUMPDEST POP POP POP POP POP POP JUMP JUMPDEST PUSH32 0x566F74696E6720697320636C6F73656420666F72207468697320697373756500 PUSH1 0x0 DUP3 ADD MSTORE POP JUMP JUMPDEST PUSH1 0x0 PUSH2 0x2680 PUSH1 0x1F DUP4 PUSH2 0x1A6D JUMP JUMPDEST SWAP2 POP PUSH2 0x268B DUP3 PUSH2 0x264A JUMP JUMPDEST PUSH1 0x20 DUP3 ADD SWAP1 POP SWAP2 SWAP1 POP JUMP JUMPDEST PUSH1 0x0 PUSH1 0x20 DUP3 ADD SWAP1 POP DUP2 DUP2 SUB PUSH1 0x0 DUP4 ADD MSTORE PUSH2 0x26AF DUP2 PUSH2 0x2673 JUMP JUMPDEST SWAP1 POP SWAP2 SWAP1 POP JUMP JUMPDEST PUSH32 0x416C726561647920766F746564206F6E20746869732069737375650000000000 PUSH1 0x0 DUP3 ADD MSTORE POP JUMP JUMPDEST PUSH1 0x0 PUSH2 0x26EC PUSH1 0x1B DUP4 PUSH2 0x1A6D JUMP JUMPDEST SWAP2 POP PUSH2 0x26F7 DUP3 PUSH2 0x26B6 JUMP JUMPDEST PUSH1 0x20 DUP3 ADD SWAP1 POP SWAP2 SWAP1 POP JUMP JUMPDEST PUSH1 0x0 PUSH1 0x20 DUP3 ADD SWAP1 POP DUP2 DUP2 SUB PUSH1 0x0 DUP4 ADD MSTORE PUSH2 0x271B DUP2 PUSH2 0x26DF JUMP JUMPDEST SWAP1 POP SWAP2 SWAP1 POP JUMP JUMPDEST PUSH32 0x4E487B7100000000000000000000000000000000000000000000000000000000 PUSH1 0x0 MSTORE PUSH1 0x21 PUSH1 0x4 MSTORE PUSH1 0x24 PUSH1 0x0 REVERT JUMPDEST PUSH32 0x4E487B7100000000000000000000000000000000000000000000000000000000 PUSH1 0x0 MSTORE PUSH1 0x11 PUSH1 0x4 MSTORE PUSH1 0x24 PUSH1 0x0 REVERT JUMPDEST PUSH1 0x0 PUSH2 0x278B DUP3 PUSH2 0x1D67 JUMP JUMPDEST SWAP2 POP PUSH2 0x2796 DUP4 PUSH2 0x1D67 JUMP JUMPDEST SWAP3 POP DUP3 DUP3 ADD SWAP1 POP PUSH3 0xFFFFFF DUP2 GT ISZERO PUSH2 0x27B1 JUMPI PUSH2 0x27B0 PUSH2 0x2751 JUMP JUMPDEST JUMPDEST SWAP3 SWAP2 POP POP JUMP JUMPDEST PUSH32 0x496E76616C696420766F7465206F7074696F6E00000000000000000000000000 PUSH1 0x0 DUP3 ADD MSTORE POP JUMP JUMPDEST PUSH1 0x0 PUSH2 0x27ED PUSH1 0x13 DUP4 PUSH2 0x1A6D JUMP JUMPDEST SWAP2 POP PUSH2 0x27F8 DUP3 PUSH2 0x27B7 JUMP JUMPDEST PUSH1 0x20 DUP3 ADD SWAP1 POP SWAP2 SWAP1 POP JUMP JUMPDEST PUSH1 0x0 PUSH1 0x20 DUP3 ADD SWAP1 POP DUP2 DUP2 SUB PUSH1 0x0 DUP4 ADD MSTORE PUSH2 0x281C DUP2 PUSH2 0x27E0 JUMP JUMPDEST SWAP1 POP SWAP2 SWAP1 POP JUMP JUMPDEST PUSH32 0x45524332303A207472616E7366657220616D6F756E7420657863656564732061 PUSH1 0x0 DUP3 ADD MSTORE PUSH32 0x6C6C6F77616E6365000000000000000000000000000000000000000000000000 PUSH1 0x20 DUP3 ADD MSTORE POP JUMP JUMPDEST PUSH1 0x0 PUSH2 0x287F PUSH1 0x28 DUP4 PUSH2 0x1A6D JUMP JUMPDEST SWAP2 POP PUSH2 0x288A DUP3 PUSH2 0x2823 JUMP JUMPDEST PUSH1 0x40 DUP3 ADD SWAP1 POP SWAP2 SWAP1 POP JUMP JUMPDEST PUSH1 0x0 PUSH1 0x20 DUP3 ADD SWAP1 POP DUP2 DUP2 SUB PUSH1 0x0 DUP4 ADD MSTORE PUSH2 0x28AE DUP2 PUSH2 0x2872 JUMP JUMPDEST SWAP1 POP SWAP2 SWAP1 POP JUMP JUMPDEST PUSH1 0x0 PUSH2 0x28C0 DUP3 PUSH2 0x1B86 JUMP JUMPDEST SWAP2 POP PUSH2 0x28CB DUP4 PUSH2 0x1B86 JUMP JUMPDEST SWAP3 POP DUP3 DUP3 SUB SWAP1 POP DUP2 DUP2 GT ISZERO PUSH2 0x28E3 JUMPI PUSH2 0x28E2 PUSH2 0x2751 JUMP JUMPDEST JUMPDEST SWAP3 SWAP2 POP POP JUMP JUMPDEST PUSH1 0x0 PUSH2 0x28F4 DUP3 PUSH2 0x1B86 JUMP JUMPDEST SWAP2 POP PUSH2 0x28FF DUP4 PUSH2 0x1B86 JUMP JUMPDEST SWAP3 POP DUP3 DUP3 ADD SWAP1 POP DUP1 DUP3 GT ISZERO PUSH2 0x2917 JUMPI PUSH2 0x2916 PUSH2 0x2751 JUMP JUMPDEST JUMPDEST SWAP3 SWAP2 POP POP JUMP JUMPDEST PUSH32 0x45524332303A2064656372656173656420616C6C6F77616E63652062656C6F77 PUSH1 0x0 DUP3 ADD MSTORE PUSH32 0x207A65726F000000000000000000000000000000000000000000000000000000 PUSH1 0x20 DUP3 ADD MSTORE POP JUMP JUMPDEST PUSH1 0x0 PUSH2 0x2979 PUSH1 0x25 DUP4 PUSH2 0x1A6D JUMP JUMPDEST SWAP2 POP PUSH2 0x2984 DUP3 PUSH2 0x291D JUMP JUMPDEST PUSH1 0x40 DUP3 ADD SWAP1 POP SWAP2 SWAP1 POP JUMP JUMPDEST PUSH1 0x0 PUSH1 0x20 DUP3 ADD SWAP1 POP DUP2 DUP2 SUB PUSH1 0x0 DUP4 ADD MSTORE PUSH2 0x29A8 DUP2 PUSH2 0x296C JUMP JUMPDEST SWAP1 POP SWAP2 SWAP1 POP JUMP JUMPDEST PUSH1 0x0 PUSH2 0x29BA DUP3 PUSH2 0x1B86 JUMP JUMPDEST SWAP2 POP PUSH32 0xFFFFFFFFFFFFFFFFFFFFFFFFFFFFFFFFFFFFFFFFFFFFFFFFFFFFFFFFFFFFFFFF DUP3 SUB PUSH2 0x29EC JUMPI PUSH2 0x29EB PUSH2 0x2751 JUMP JUMPDEST JUMPDEST PUSH1 0x1 DUP3 ADD SWAP1 POP SWAP2 SWAP1 POP JUMP JUMPDEST PUSH32 0x45524332303A20617070726F76652066726F6D20746865207A65726F20616464 PUSH1 0x0 DUP3 ADD MSTORE PUSH32 0x7265737300000000000000000000000000000000000000000000000000000000 PUSH1 0x20 DUP3 ADD MSTORE POP JUMP JUMPDEST PUSH1 0x0 PUSH2 0x2A53 PUSH1 0x24 DUP4 PUSH2 0x1A6D JUMP JUMPDEST SWAP2 POP PUSH2 0x2A5E DUP3 PUSH2 0x29F7 JUMP JUMPDEST PUSH1 0x40 DUP3 ADD SWAP1 POP SWAP2 SWAP1 POP JUMP JUMPDEST PUSH1 0x0 PUSH1 0x20 DUP3 ADD SWAP1 POP DUP2 DUP2 SUB PUSH1 0x0 DUP4 ADD MSTORE PUSH2 0x2A82 DUP2 PUSH2 0x2A46 JUMP JUMPDEST SWAP1 POP SWAP2 SWAP1 POP JUMP JUMPDEST PUSH32 0x45524332303A20617070726F766520746F20746865207A65726F206164647265 PUSH1 0x0 DUP3 ADD MSTORE PUSH32 0x7373000000000000000000000000000000000000000000000000000000000000 PUSH1 0x20 DUP3 ADD MSTORE POP JUMP JUMPDEST PUSH1 0x0 PUSH2 0x2AE5 PUSH1 0x22 DUP4 PUSH2 0x1A6D JUMP JUMPDEST SWAP2 POP PUSH2 0x2AF0 DUP3 PUSH2 0x2A89 JUMP JUMPDEST PUSH1 0x40 DUP3 ADD SWAP1 POP SWAP2 SWAP1 POP JUMP JUMPDEST PUSH1 0x0 PUSH1 0x20 DUP3 ADD SWAP1 POP DUP2 DUP2 SUB PUSH1 0x0 DUP4 ADD MSTORE PUSH2 0x2B14 DUP2 PUSH2 0x2AD8 JUMP JUMPDEST SWAP1 POP SWAP2 SWAP1 POP JUMP JUMPDEST PUSH32 0x45524332303A207472616E736665722066726F6D20746865207A65726F206164 PUSH1 0x0 DUP3 ADD MSTORE PUSH32 0x6472657373000000000000000000000000000000000000000000000000000000 PUSH1 0x20 DUP3 ADD MSTORE POP JUMP JUMPDEST PUSH1 0x0 PUSH2 0x2B77 PUSH1 0x25 DUP4 PUSH2 0x1A6D JUMP JUMPDEST SWAP2 POP PUSH2 0x2B82 DUP3 PUSH2 0x2B1B JUMP JUMPDEST PUSH1 0x40 DUP3 ADD SWAP1 POP SWAP2 SWAP1 POP JUMP JUMPDEST PUSH1 0x0 PUSH1 0x20 DUP3 ADD SWAP1 POP DUP2 DUP2 SUB PUSH1 0x0 DUP4 ADD MSTORE PUSH2 0x2BA6 DUP2 PUSH2 0x2B6A JUMP JUMPDEST SWAP1 POP SWAP2 SWAP1 POP JUMP JUMPDEST PUSH32 0x45524332303A207472616E7366657220746F20746865207A65726F2061646472 PUSH1 0x0 DUP3 ADD MSTORE PUSH32 0x6573730000000000000000000000000000000000000000000000000000000000 PUSH1 0x20 DUP3 ADD MSTORE POP JUMP JUMPDEST PUSH1 0x0 PUSH2 0x2C09 PUSH1 0x23 DUP4 PUSH2 0x1A6D JUMP JUMPDEST SWAP2 POP PUSH2 0x2C14 DUP3 PUSH2 0x2BAD JUMP JUMPDEST PUSH1 0x40 DUP3 ADD SWAP1 POP SWAP2 SWAP1 POP JUMP JUMPDEST PUSH1 0x0 PUSH1 0x20 DUP3 ADD SWAP1 POP DUP2 DUP2 SUB PUSH1 0x0 DUP4 ADD MSTORE PUSH2 0x2C38 DUP2 PUSH2 0x2BFC JUMP JUMPDEST SWAP1 POP SWAP2 SWAP1 POP JUMP JUMPDEST PUSH32 0x45524332303A207472616E7366657220616D6F756E7420657863656564732062 PUSH1 0x0 DUP3 ADD MSTORE PUSH32 0x616C616E63650000000000000000000000000000000000000000000000000000 PUSH1 0x20 DUP3 ADD MSTORE POP JUMP JUMPDEST PUSH1 0x0 PUSH2 0x2C9B PUSH1 0x26 DUP4 PUSH2 0x1A6D JUMP JUMPDEST SWAP2 POP PUSH2 0x2CA6 DUP3 PUSH2 0x2C3F JUMP JUMPDEST PUSH1 0x40 DUP3 ADD SWAP1 POP SWAP2 SWAP1 POP JUMP JUMPDEST PUSH1 0x0 PUSH1 0x20 DUP3 ADD SWAP1 POP DUP2 DUP2 SUB PUSH1 0x0 DUP4 ADD MSTORE PUSH2 0x2CCA DUP2 PUSH2 0x2C8E JUMP JUMPDEST SWAP1 POP SWAP2 SWAP1 POP JUMP JUMPDEST PUSH32 0x456E756D657261626C655365743A20696E646578206F7574206F6620626F756E PUSH1 0x0 DUP3 ADD MSTORE PUSH32 0x6473000000000000000000000000000000000000000000000000000000000000 PUSH1 0x20 DUP3 ADD MSTORE POP JUMP JUMPDEST PUSH1 0x0 PUSH2 0x2D2D PUSH1 0x22 DUP4 PUSH2 0x1A6D JUMP JUMPDEST SWAP2 POP PUSH2 0x2D38 DUP3 PUSH2 0x2CD1 JUMP JUMPDEST PUSH1 0x40 DUP3 ADD SWAP1 POP SWAP2 SWAP1 POP JUMP JUMPDEST PUSH1 0x0 PUSH1 0x20 DUP3 ADD SWAP1 POP DUP2 DUP2 SUB PUSH1 0x0 DUP4 ADD MSTORE PUSH2 0x2D5C DUP2 PUSH2 0x2D20 JUMP JUMPDEST SWAP1 POP SWAP2 SWAP1 POP JUMP INVALID LOG2 PUSH5 0x6970667358 0x22 SLT KECCAK256 SWAP3 0xEB SHL MUL CALL 0xDE DUP2 MULMOD SWAP12 PUSH31 0x12857AACA04B64276CEB289454F5258BAC0F11C53A2A64736F6C6343000811 STOP CALLER "
				},
				"gasEstimates": {
					"creation": {
						"codeDepositCost": "2334600",
						"executionCost": "infinite",
						"totalCost": "infinite"
					},
					"external": {
						"allowance(address,address)": "infinite",
						"approve(address,uint256)": "infinite",
						"balanceOf(address)": "2864",
						"balances(address)": "2890",
						"claim()": "infinite",
						"claimAmount()": "2588",
						"claimedAmount()": "2543",
						"createIssue(string,uint24)": "infinite",
						"decimals()": "410",
						"decreaseAllowance(address,uint256)": "infinite",
						"getIssue(uint24)": "infinite",
						"hasClaimed(address)": "2890",
						"increaseAllowance(address,uint256)": "infinite",
						"maxSupply()": "2559",
						"name()": "infinite",
						"owner()": "2603",
						"symbol()": "infinite",
						"totalSupply()": "2527",
						"transfer(address,uint256)": "infinite",
						"transferFrom(address,address,uint256)": "infinite",
						"vote(uint24,uint8)": "infinite"
					}
				},
				"methodIdentifiers": {
					"allowance(address,address)": "dd62ed3e",
					"approve(address,uint256)": "095ea7b3",
					"balanceOf(address)": "70a08231",
					"balances(address)": "27e235e3",
					"claim()": "4e71d92d",
					"claimAmount()": "830953ab",
					"claimedAmount()": "9668ceb8",
					"createIssue(string,uint24)": "0c6a8615",
					"decimals()": "313ce567",
					"decreaseAllowance(address,uint256)": "a457c2d7",
					"getIssue(uint24)": "fca22842",
					"hasClaimed(address)": "73b2e80e",
					"increaseAllowance(address,uint256)": "39509351",
					"maxSupply()": "d5abeb01",
					"name()": "06fdde03",
					"owner()": "8da5cb5b",
					"symbol()": "95d89b41",
					"totalSupply()": "18160ddd",
					"transfer(address,uint256)": "a9059cbb",
					"transferFrom(address,address,uint256)": "23b872dd",
					"vote(uint24,uint8)": "21e4c301"
				}
			},
			"storageLayout": {
				"storage": [
					{
						"astId": 424,
						"contract": "contracts/WeightedVoting.sol:WeightedVoting",
						"label": "_balances",
						"offset": 0,
						"slot": "0",
						"type": "t_mapping(t_address,t_uint256)"
					},
					{
						"astId": 430,
						"contract": "contracts/WeightedVoting.sol:WeightedVoting",
						"label": "_allowances",
						"offset": 0,
						"slot": "1",
						"type": "t_mapping(t_address,t_mapping(t_address,t_uint256))"
					},
					{
						"astId": 432,
						"contract": "contracts/WeightedVoting.sol:WeightedVoting",
						"label": "_totalSupply",
						"offset": 0,
						"slot": "2",
						"type": "t_uint256"
					},
					{
						"astId": 434,
						"contract": "contracts/WeightedVoting.sol:WeightedVoting",
						"label": "_name",
						"offset": 0,
						"slot": "3",
						"type": "t_string_storage"
					},
					{
						"astId": 436,
						"contract": "contracts/WeightedVoting.sol:WeightedVoting",
						"label": "_symbol",
						"offset": 0,
						"slot": "4",
						"type": "t_string_storage"
					},
					{
						"astId": 55,
						"contract": "contracts/WeightedVoting.sol:WeightedVoting",
						"label": "maxSupply",
						"offset": 0,
						"slot": "5",
						"type": "t_uint24"
					},
					{
						"astId": 57,
						"contract": "contracts/WeightedVoting.sol:WeightedVoting",
						"label": "claimAmount",
						"offset": 3,
						"slot": "5",
						"type": "t_uint24"
					},
					{
						"astId": 59,
						"contract": "contracts/WeightedVoting.sol:WeightedVoting",
						"label": "claimedAmount",
						"offset": 6,
						"slot": "5",
						"type": "t_uint24"
					},
					{
						"astId": 63,
						"contract": "contracts/WeightedVoting.sol:WeightedVoting",
						"label": "balances",
						"offset": 0,
						"slot": "6",
						"type": "t_mapping(t_address,t_uint24)"
					},
					{
						"astId": 67,
						"contract": "contracts/WeightedVoting.sol:WeightedVoting",
						"label": "hasClaimed",
						"offset": 0,
						"slot": "7",
						"type": "t_mapping(t_address,t_bool)"
					},
					{
						"astId": 94,
						"contract": "contracts/WeightedVoting.sol:WeightedVoting",
						"label": "owner",
						"offset": 0,
						"slot": "8",
						"type": "t_address"
					},
					{
						"astId": 112,
						"contract": "contracts/WeightedVoting.sol:WeightedVoting",
						"label": "issues",
						"offset": 0,
						"slot": "9",
						"type": "t_array(t_struct(Issue)23_storage)dyn_storage"
					}
				],
				"types": {
					"t_address": {
						"encoding": "inplace",
						"label": "address",
						"numberOfBytes": "20"
					},
					"t_array(t_bytes32)dyn_storage": {
						"base": "t_bytes32",
						"encoding": "dynamic_array",
						"label": "bytes32[]",
						"numberOfBytes": "32"
					},
					"t_array(t_struct(Issue)23_storage)dyn_storage": {
						"base": "t_struct(Issue)23_storage",
						"encoding": "dynamic_array",
						"label": "struct Issue[]",
						"numberOfBytes": "32"
					},
					"t_bool": {
						"encoding": "inplace",
						"label": "bool",
						"numberOfBytes": "1"
					},
					"t_bytes32": {
						"encoding": "inplace",
						"label": "bytes32",
						"numberOfBytes": "32"
					},
					"t_mapping(t_address,t_bool)": {
						"encoding": "mapping",
						"key": "t_address",
						"label": "mapping(address => bool)",
						"numberOfBytes": "32",
						"value": "t_bool"
					},
					"t_mapping(t_address,t_mapping(t_address,t_uint256))": {
						"encoding": "mapping",
						"key": "t_address",
						"label": "mapping(address => mapping(address => uint256))",
						"numberOfBytes": "32",
						"value": "t_mapping(t_address,t_uint256)"
					},
					"t_mapping(t_address,t_uint24)": {
						"encoding": "mapping",
						"key": "t_address",
						"label": "mapping(address => uint24)",
						"numberOfBytes": "32",
						"value": "t_uint24"
					},
					"t_mapping(t_address,t_uint256)": {
						"encoding": "mapping",
						"key": "t_address",
						"label": "mapping(address => uint256)",
						"numberOfBytes": "32",
						"value": "t_uint256"
					},
					"t_mapping(t_bytes32,t_uint256)": {
						"encoding": "mapping",
						"key": "t_bytes32",
						"label": "mapping(bytes32 => uint256)",
						"numberOfBytes": "32",
						"value": "t_uint256"
					},
					"t_string_storage": {
						"encoding": "bytes",
						"label": "string",
						"numberOfBytes": "32"
					},
					"t_struct(AddressSet)1301_storage": {
						"encoding": "inplace",
						"label": "struct EnumerableSet.AddressSet",
						"members": [
							{
								"astId": 1300,
								"contract": "contracts/WeightedVoting.sol:WeightedVoting",
								"label": "_inner",
								"offset": 0,
								"slot": "0",
								"type": "t_struct(Set)1024_storage"
							}
						],
						"numberOfBytes": "64"
					},
					"t_struct(Issue)23_storage": {
						"encoding": "inplace",
						"label": "struct Issue",
						"members": [
							{
								"astId": 6,
								"contract": "contracts/WeightedVoting.sol:WeightedVoting",
								"label": "voters",
								"offset": 0,
								"slot": "0",
								"type": "t_struct(AddressSet)1301_storage"
							},
							{
								"astId": 8,
								"contract": "contracts/WeightedVoting.sol:WeightedVoting",
								"label": "issueDesc",
								"offset": 0,
								"slot": "2",
								"type": "t_string_storage"
							},
							{
								"astId": 10,
								"contract": "contracts/WeightedVoting.sol:WeightedVoting",
								"label": "votesFor",
								"offset": 0,
								"slot": "3",
								"type": "t_uint24"
							},
							{
								"astId": 12,
								"contract": "contracts/WeightedVoting.sol:WeightedVoting",
								"label": "votesAgainst",
								"offset": 3,
								"slot": "3",
								"type": "t_uint24"
							},
							{
								"astId": 14,
								"contract": "contracts/WeightedVoting.sol:WeightedVoting",
								"label": "votesAbstain",
								"offset": 6,
								"slot": "3",
								"type": "t_uint24"
							},
							{
								"astId": 16,
								"contract": "contracts/WeightedVoting.sol:WeightedVoting",
								"label": "totalVotes",
								"offset": 9,
								"slot": "3",
								"type": "t_uint24"
							},
							{
								"astId": 18,
								"contract": "contracts/WeightedVoting.sol:WeightedVoting",
								"label": "quorum",
								"offset": 12,
								"slot": "3",
								"type": "t_uint24"
							},
							{
								"astId": 20,
								"contract": "contracts/WeightedVoting.sol:WeightedVoting",
								"label": "passed",
								"offset": 15,
								"slot": "3",
								"type": "t_bool"
							},
							{
								"astId": 22,
								"contract": "contracts/WeightedVoting.sol:WeightedVoting",
								"label": "closed",
								"offset": 16,
								"slot": "3",
								"type": "t_bool"
							}
						],
						"numberOfBytes": "128"
					},
					"t_struct(Set)1024_storage": {
						"encoding": "inplace",
						"label": "struct EnumerableSet.Set",
						"members": [
							{
								"astId": 1019,
								"contract": "contracts/WeightedVoting.sol:WeightedVoting",
								"label": "_values",
								"offset": 0,
								"slot": "0",
								"type": "t_array(t_bytes32)dyn_storage"
							},
							{
								"astId": 1023,
								"contract": "contracts/WeightedVoting.sol:WeightedVoting",
								"label": "_indexes",
								"offset": 0,
								"slot": "1",
								"type": "t_mapping(t_bytes32,t_uint256)"
							}
						],
						"numberOfBytes": "64"
					},
					"t_uint24": {
						"encoding": "inplace",
						"label": "uint24",
						"numberOfBytes": "3"
					},
					"t_uint256": {
						"encoding": "inplace",
						"label": "uint256",
						"numberOfBytes": "32"
					}
				}
			},
			"userdoc": {
				"kind": "user",
				"methods": {},
				"version": 1
			}
		}
	}
}