{
	"contracts/WeightedVoting.sol": {
		"WeightedVoting": {
			"abi": [
				{
					"inputs": [
						{
							"internalType": "string",
							"name": "_name",
							"type": "string"
						},
						{
							"internalType": "string",
							"name": "_symbol",
							"type": "string"
						}
					],
					"stateMutability": "nonpayable",
					"type": "constructor"
				},
				{
					"inputs": [],
					"name": "AllTokensClaimed",
					"type": "error"
				},
				{
					"inputs": [],
					"name": "AlreadyVoted",
					"type": "error"
				},
				{
					"inputs": [
						{
							"internalType": "address",
							"name": "spender",
							"type": "address"
						},
						{
							"internalType": "uint256",
							"name": "allowance",
							"type": "uint256"
						},
						{
							"internalType": "uint256",
							"name": "needed",
							"type": "uint256"
						}
					],
					"name": "ERC20InsufficientAllowance",
					"type": "error"
				},
				{
					"inputs": [
						{
							"internalType": "address",
							"name": "sender",
							"type": "address"
						},
						{
							"internalType": "uint256",
							"name": "balance",
							"type": "uint256"
						},
						{
							"internalType": "uint256",
							"name": "needed",
							"type": "uint256"
						}
					],
					"name": "ERC20InsufficientBalance",
					"type": "error"
				},
				{
					"inputs": [
						{
							"internalType": "address",
							"name": "approver",
							"type": "address"
						}
					],
					"name": "ERC20InvalidApprover",
					"type": "error"
				},
				{
					"inputs": [
						{
							"internalType": "address",
							"name": "receiver",
							"type": "address"
						}
					],
					"name": "ERC20InvalidReceiver",
					"type": "error"
				},
				{
					"inputs": [
						{
							"internalType": "address",
							"name": "sender",
							"type": "address"
						}
					],
					"name": "ERC20InvalidSender",
					"type": "error"
				},
				{
					"inputs": [
						{
							"internalType": "address",
							"name": "spender",
							"type": "address"
						}
					],
					"name": "ERC20InvalidSpender",
					"type": "error"
				},
				{
					"inputs": [],
					"name": "NoTokensHeld",
					"type": "error"
				},
				{
					"inputs": [
						{
							"internalType": "uint24",
							"name": "quorum",
							"type": "uint24"
						}
					],
					"name": "QuorumTooHigh",
					"type": "error"
				},
				{
					"inputs": [],
					"name": "TokensClaimed",
					"type": "error"
				},
				{
					"inputs": [],
					"name": "VotingClosed",
					"type": "error"
				},
				{
					"anonymous": false,
					"inputs": [
						{
							"indexed": true,
							"internalType": "address",
							"name": "owner",
							"type": "address"
						},
						{
							"indexed": true,
							"internalType": "address",
							"name": "spender",
							"type": "address"
						},
						{
							"indexed": false,
							"internalType": "uint256",
							"name": "value",
							"type": "uint256"
						}
					],
					"name": "Approval",
					"type": "event"
				},
				{
					"anonymous": false,
					"inputs": [
						{
							"indexed": true,
							"internalType": "address",
							"name": "from",
							"type": "address"
						},
						{
							"indexed": true,
							"internalType": "address",
							"name": "to",
							"type": "address"
						},
						{
							"indexed": false,
							"internalType": "uint256",
							"name": "value",
							"type": "uint256"
						}
					],
					"name": "Transfer",
					"type": "event"
				},
				{
					"inputs": [
						{
							"internalType": "address",
							"name": "owner",
							"type": "address"
						},
						{
							"internalType": "address",
							"name": "spender",
							"type": "address"
						}
					],
					"name": "allowance",
					"outputs": [
						{
							"internalType": "uint256",
							"name": "",
							"type": "uint256"
						}
					],
					"stateMutability": "view",
					"type": "function"
				},
				{
					"inputs": [
						{
							"internalType": "address",
							"name": "spender",
							"type": "address"
						},
						{
							"internalType": "uint256",
							"name": "value",
							"type": "uint256"
						}
					],
					"name": "approve",
					"outputs": [
						{
							"internalType": "bool",
							"name": "",
							"type": "bool"
						}
					],
					"stateMutability": "nonpayable",
					"type": "function"
				},
				{
					"inputs": [
						{
							"internalType": "address",
							"name": "account",
							"type": "address"
						}
					],
					"name": "balanceOf",
					"outputs": [
						{
							"internalType": "uint256",
							"name": "",
							"type": "uint256"
						}
					],
					"stateMutability": "view",
					"type": "function"
				},
				{
					"inputs": [
						{
							"internalType": "address",
							"name": "",
							"type": "address"
						}
					],
					"name": "balances",
					"outputs": [
						{
							"internalType": "uint24",
							"name": "",
							"type": "uint24"
						}
					],
					"stateMutability": "view",
					"type": "function"
				},
				{
					"inputs": [],
					"name": "claim",
					"outputs": [],
					"stateMutability": "nonpayable",
					"type": "function"
				},
				{
					"inputs": [],
					"name": "claimAmount",
					"outputs": [
						{
							"internalType": "uint24",
							"name": "",
							"type": "uint24"
						}
					],
					"stateMutability": "view",
					"type": "function"
				},
				{
					"inputs": [],
					"name": "claimedAmount",
					"outputs": [
						{
							"internalType": "uint24",
							"name": "",
							"type": "uint24"
						}
					],
					"stateMutability": "view",
					"type": "function"
				},
				{
					"inputs": [
						{
							"internalType": "string",
							"name": "_issueDesc",
							"type": "string"
						},
						{
							"internalType": "uint24",
							"name": "_quorum",
							"type": "uint24"
						}
					],
					"name": "createIssue",
					"outputs": [
						{
							"internalType": "uint256",
							"name": "idx",
							"type": "uint256"
						}
					],
					"stateMutability": "nonpayable",
					"type": "function"
				},
				{
					"inputs": [],
					"name": "decimals",
					"outputs": [
						{
							"internalType": "uint8",
							"name": "",
							"type": "uint8"
						}
					],
					"stateMutability": "view",
					"type": "function"
				},
				{
					"inputs": [
						{
							"internalType": "uint24",
							"name": "_id",
							"type": "uint24"
						}
					],
					"name": "getIssue",
					"outputs": [
						{
							"components": [
								{
									"internalType": "address[]",
									"name": "voters",
									"type": "address[]"
								},
								{
									"internalType": "string",
									"name": "issueDesc",
									"type": "string"
								},
								{
									"internalType": "uint24",
									"name": "votesFor",
									"type": "uint24"
								},
								{
									"internalType": "uint24",
									"name": "votesAgainst",
									"type": "uint24"
								},
								{
									"internalType": "uint24",
									"name": "votesAbstain",
									"type": "uint24"
								},
								{
									"internalType": "uint24",
									"name": "totalVotes",
									"type": "uint24"
								},
								{
									"internalType": "uint24",
									"name": "quorum",
									"type": "uint24"
								},
								{
									"internalType": "bool",
									"name": "passed",
									"type": "bool"
								},
								{
									"internalType": "bool",
									"name": "closed",
									"type": "bool"
								}
							],
							"internalType": "struct WeightedVoting.IssueView",
							"name": "",
							"type": "tuple"
						}
					],
					"stateMutability": "view",
					"type": "function"
				},
				{
					"inputs": [
						{
							"internalType": "address",
							"name": "",
							"type": "address"
						}
					],
					"name": "hasClaimed",
					"outputs": [
						{
							"internalType": "bool",
							"name": "",
							"type": "bool"
						}
					],
					"stateMutability": "view",
					"type": "function"
				},
				{
					"inputs": [],
					"name": "maxSupply",
					"outputs": [
						{
							"internalType": "uint24",
							"name": "",
							"type": "uint24"
						}
					],
					"stateMutability": "view",
					"type": "function"
				},
				{
					"inputs": [],
					"name": "name",
					"outputs": [
						{
							"internalType": "string",
							"name": "",
							"type": "string"
						}
					],
					"stateMutability": "view",
					"type": "function"
				},
				{
					"inputs": [],
					"name": "owner",
					"outputs": [
						{
							"internalType": "address",
							"name": "",
							"type": "address"
						}
					],
					"stateMutability": "view",
					"type": "function"
				},
				{
					"inputs": [],
					"name": "symbol",
					"outputs": [
						{
							"internalType": "string",
							"name": "",
							"type": "string"
						}
					],
					"stateMutability": "view",
					"type": "function"
				},
				{
					"inputs": [],
					"name": "totalSupply",
					"outputs": [
						{
							"internalType": "uint256",
							"name": "",
							"type": "uint256"
						}
					],
					"stateMutability": "view",
					"type": "function"
				},
				{
					"inputs": [
						{
							"internalType": "address",
							"name": "to",
							"type": "address"
						},
						{
							"internalType": "uint256",
							"name": "value",
							"type": "uint256"
						}
					],
					"name": "transfer",
					"outputs": [
						{
							"internalType": "bool",
							"name": "",
							"type": "bool"
						}
					],
					"stateMutability": "nonpayable",
					"type": "function"
				},
				{
					"inputs": [
						{
							"internalType": "address",
							"name": "from",
							"type": "address"
						},
						{
							"internalType": "address",
							"name": "to",
							"type": "address"
						},
						{
							"internalType": "uint256",
							"name": "value",
							"type": "uint256"
						}
					],
					"name": "transferFrom",
					"outputs": [
						{
							"internalType": "bool",
							"name": "",
							"type": "bool"
						}
					],
					"stateMutability": "nonpayable",
					"type": "function"
				},
				{
					"inputs": [
						{
							"internalType": "uint24",
							"name": "_issueId",
							"type": "uint24"
						},
						{
							"internalType": "enum WeightedVoting.Votes",
							"name": "_vote",
							"type": "uint8"
						}
					],
					"name": "vote",
					"outputs": [],
					"stateMutability": "nonpayable",
					"type": "function"
				}
			],
			"devdoc": {
				"errors": {
					"ERC20InsufficientAllowance(address,uint256,uint256)": [
						{
							"details": "Indicates a failure with the `spender`’s `allowance`. Used in transfers.",
							"params": {
								"allowance": "Amount of tokens a `spender` is allowed to operate with.",
								"needed": "Minimum amount required to perform a transfer.",
								"spender": "Address that may be allowed to operate on tokens without being their owner."
							}
						}
					],
					"ERC20InsufficientBalance(address,uint256,uint256)": [
						{
							"details": "Indicates an error related to the current `balance` of a `sender`. Used in transfers.",
							"params": {
								"balance": "Current balance for the interacting account.",
								"needed": "Minimum amount required to perform a transfer.",
								"sender": "Address whose tokens are being transferred."
							}
						}
					],
					"ERC20InvalidApprover(address)": [
						{
							"details": "Indicates a failure with the `approver` of a token to be approved. Used in approvals.",
							"params": {
								"approver": "Address initiating an approval operation."
							}
						}
					],
					"ERC20InvalidReceiver(address)": [
						{
							"details": "Indicates a failure with the token `receiver`. Used in transfers.",
							"params": {
								"receiver": "Address to which tokens are being transferred."
							}
						}
					],
					"ERC20InvalidSender(address)": [
						{
							"details": "Indicates a failure with the token `sender`. Used in transfers.",
							"params": {
								"sender": "Address whose tokens are being transferred."
							}
						}
					],
					"ERC20InvalidSpender(address)": [
						{
							"details": "Indicates a failure with the `spender` to be approved. Used in approvals.",
							"params": {
								"spender": "Address that may be allowed to operate on tokens without being their owner."
							}
						}
					]
				},
				"events": {
					"Approval(address,address,uint256)": {
						"details": "Emitted when the allowance of a `spender` for an `owner` is set by a call to {approve}. `value` is the new allowance."
					},
					"Transfer(address,address,uint256)": {
						"details": "Emitted when `value` tokens are moved from one account (`from`) to another (`to`). Note that `value` may be zero."
					}
				},
				"kind": "dev",
				"methods": {
					"allowance(address,address)": {
						"details": "See {IERC20-allowance}."
					},
					"approve(address,uint256)": {
						"details": "See {IERC20-approve}. NOTE: If `value` is the maximum `uint256`, the allowance is not updated on `transferFrom`. This is semantically equivalent to an infinite approval. Requirements: - `spender` cannot be the zero address."
					},
					"balanceOf(address)": {
						"details": "See {IERC20-balanceOf}."
					},
					"decimals()": {
						"details": "Returns the number of decimals used to get its user representation. For example, if `decimals` equals `2`, a balance of `505` tokens should be displayed to a user as `5.05` (`505 / 10 ** 2`). Tokens usually opt for a value of 18, imitating the relationship between Ether and Wei. This is the default value returned by this function, unless it's overridden. NOTE: This information is only used for _display_ purposes: it in no way affects any of the arithmetic of the contract, including {IERC20-balanceOf} and {IERC20-transfer}."
					},
					"name()": {
						"details": "Returns the name of the token."
					},
					"symbol()": {
						"details": "Returns the symbol of the token, usually a shorter version of the name."
					},
					"totalSupply()": {
						"details": "See {IERC20-totalSupply}."
					},
					"transfer(address,uint256)": {
						"details": "See {IERC20-transfer}. Requirements: - `to` cannot be the zero address. - the caller must have a balance of at least `value`."
					},
					"transferFrom(address,address,uint256)": {
						"details": "See {IERC20-transferFrom}. Emits an {Approval} event indicating the updated allowance. This is not required by the EIP. See the note at the beginning of {ERC20}. NOTE: Does not update the allowance if the current allowance is the maximum `uint256`. Requirements: - `from` and `to` cannot be the zero address. - `from` must have a balance of at least `value`. - the caller must have allowance for ``from``'s tokens of at least `value`."
					}
				},
				"version": 1
			},
			"evm": {
				"assembly": "    /* \"contracts/WeightedVoting.sol\":181:4720  contract WeightedVoting is ERC20 {... */\n  mstore(0x40, 0x80)\n    /* \"contracts/WeightedVoting.sol\":1311:1570  constructor(... */\n  callvalue\n  dup1\n  iszero\n  tag_1\n  jumpi\n  0x00\n  dup1\n  revert\ntag_1:\n  pop\n  mload(0x40)\n  sub(codesize, bytecodeSize)\n  dup1\n  bytecodeSize\n  dup4\n  codecopy\n  dup2\n  dup2\n  add\n  0x40\n  mstore\n  dup2\n  add\n  swap1\n  tag_2\n  swap2\n  swap1\n  tag_3\n  jump\t// in\ntag_2:\n    /* \"contracts/WeightedVoting.sol\":1395:1400  _name */\n  dup2\n    /* \"contracts/WeightedVoting.sol\":1402:1409  _symbol */\n  dup2\n    /* \"@openzeppelin/contracts/token/ERC20/ERC20.sol\":1970:1975  name_ */\n  dup2\n    /* \"@openzeppelin/contracts/token/ERC20/ERC20.sol\":1962:1967  _name */\n  0x03\n    /* \"@openzeppelin/contracts/token/ERC20/ERC20.sol\":1962:1975  _name = name_ */\n  swap1\n  dup2\n  tag_7\n  swap2\n  swap1\n  tag_8\n  jump\t// in\ntag_7:\n  pop\n    /* \"@openzeppelin/contracts/token/ERC20/ERC20.sol\":1995:2002  symbol_ */\n  dup1\n    /* \"@openzeppelin/contracts/token/ERC20/ERC20.sol\":1985:1992  _symbol */\n  0x04\n    /* \"@openzeppelin/contracts/token/ERC20/ERC20.sol\":1985:2002  _symbol = symbol_ */\n  swap1\n  dup2\n  tag_9\n  swap2\n  swap1\n  tag_8\n  jump\t// in\ntag_9:\n  pop\n    /* \"@openzeppelin/contracts/token/ERC20/ERC20.sol\":1896:2009  constructor(string memory name_, string memory symbol_) {... */\n  pop\n  pop\n    /* \"contracts/WeightedVoting.sol\":1433:1442  1_000_000 */\n  0x0f4240\n    /* \"contracts/WeightedVoting.sol\":1421:1430  maxSupply */\n  0x05\n  0x00\n    /* \"contracts/WeightedVoting.sol\":1421:1442  maxSupply = 1_000_000 */\n  0x0100\n  exp\n  dup2\n  sload\n  dup2\n  0xffffff\n  mul\n  not\n  and\n  swap1\n  dup4\n  0xffffff\n  and\n  mul\n  or\n  swap1\n  sstore\n  pop\n    /* \"contracts/WeightedVoting.sol\":1466:1469  100 */\n  0x64\n    /* \"contracts/WeightedVoting.sol\":1452:1463  claimAmount */\n  0x05\n  0x03\n    /* \"contracts/WeightedVoting.sol\":1452:1469  claimAmount = 100 */\n  0x0100\n  exp\n  dup2\n  sload\n  dup2\n  0xffffff\n  mul\n  not\n  and\n  swap1\n  dup4\n  0xffffff\n  and\n  mul\n  or\n  swap1\n  sstore\n  pop\n    /* \"contracts/WeightedVoting.sol\":1550:1556  issues */\n  0x09\n    /* \"contracts/WeightedVoting.sol\":1550:1563  issues.push() */\n  0x01\n  dup2\n  0x01\n  dup2\n  sload\n  add\n  dup1\n  dup3\n  sstore\n  dup1\n  swap2\n  pop\n  pop\n  sub\n  swap1\n  0x00\n  mstore\n  keccak256(0x00, 0x20)\n  swap1\n  pop\n  pop\n    /* \"contracts/WeightedVoting.sol\":1311:1570  constructor(... */\n  pop\n  pop\n    /* \"contracts/WeightedVoting.sol\":181:4720  contract WeightedVoting is ERC20 {... */\n  jump(tag_12)\n    /* \"#utility.yul\":7:82   */\ntag_13:\n    /* \"#utility.yul\":40:46   */\n  0x00\n    /* \"#utility.yul\":73:75   */\n  0x40\n    /* \"#utility.yul\":67:76   */\n  mload\n    /* \"#utility.yul\":57:76   */\n  swap1\n  pop\n    /* \"#utility.yul\":7:82   */\n  swap1\n  jump\t// out\n    /* \"#utility.yul\":88:205   */\ntag_14:\n    /* \"#utility.yul\":197:198   */\n  0x00\n    /* \"#utility.yul\":194:195   */\n  dup1\n    /* \"#utility.yul\":187:199   */\n  revert\n    /* \"#utility.yul\":211:328   */\ntag_15:\n    /* \"#utility.yul\":320:321   */\n  0x00\n    /* \"#utility.yul\":317:318   */\n  dup1\n    /* \"#utility.yul\":310:322   */\n  revert\n    /* \"#utility.yul\":334:451   */\ntag_16:\n    /* \"#utility.yul\":443:444   */\n  0x00\n    /* \"#utility.yul\":440:441   */\n  dup1\n    /* \"#utility.yul\":433:445   */\n  revert\n    /* \"#utility.yul\":457:574   */\ntag_17:\n    /* \"#utility.yul\":566:567   */\n  0x00\n    /* \"#utility.yul\":563:564   */\n  dup1\n    /* \"#utility.yul\":556:568   */\n  revert\n    /* \"#utility.yul\":580:682   */\ntag_18:\n    /* \"#utility.yul\":621:627   */\n  0x00\n    /* \"#utility.yul\":672:674   */\n  0x1f\n    /* \"#utility.yul\":668:675   */\n  not\n    /* \"#utility.yul\":663:665   */\n  0x1f\n    /* \"#utility.yul\":656:661   */\n  dup4\n    /* \"#utility.yul\":652:666   */\n  add\n    /* \"#utility.yul\":648:676   */\n  and\n    /* \"#utility.yul\":638:676   */\n  swap1\n  pop\n    /* \"#utility.yul\":580:682   */\n  swap2\n  swap1\n  pop\n  jump\t// out\n    /* \"#utility.yul\":688:868   */\ntag_19:\n    /* \"#utility.yul\":736:813   */\n  0x4e487b7100000000000000000000000000000000000000000000000000000000\n    /* \"#utility.yul\":733:734   */\n  0x00\n    /* \"#utility.yul\":726:814   */\n  mstore\n    /* \"#utility.yul\":833:837   */\n  0x41\n    /* \"#utility.yul\":830:831   */\n  0x04\n    /* \"#utility.yul\":823:838   */\n  mstore\n    /* \"#utility.yul\":857:861   */\n  0x24\n    /* \"#utility.yul\":854:855   */\n  0x00\n    /* \"#utility.yul\":847:862   */\n  revert\n    /* \"#utility.yul\":874:1155   */\ntag_20:\n    /* \"#utility.yul\":957:984   */\n  tag_54\n    /* \"#utility.yul\":979:983   */\n  dup3\n    /* \"#utility.yul\":957:984   */\n  tag_18\n  jump\t// in\ntag_54:\n    /* \"#utility.yul\":949:955   */\n  dup2\n    /* \"#utility.yul\":945:985   */\n  add\n    /* \"#utility.yul\":1087:1093   */\n  dup2\n    /* \"#utility.yul\":1075:1085   */\n  dup2\n    /* \"#utility.yul\":1072:1094   */\n  lt\n    /* \"#utility.yul\":1051:1069   */\n  0xffffffffffffffff\n    /* \"#utility.yul\":1039:1049   */\n  dup3\n    /* \"#utility.yul\":1036:1070   */\n  gt\n    /* \"#utility.yul\":1033:1095   */\n  or\n    /* \"#utility.yul\":1030:1118   */\n  iszero\n  tag_55\n  jumpi\n    /* \"#utility.yul\":1098:1116   */\n  tag_56\n  tag_19\n  jump\t// in\ntag_56:\n    /* \"#utility.yul\":1030:1118   */\ntag_55:\n    /* \"#utility.yul\":1138:1148   */\n  dup1\n    /* \"#utility.yul\":1134:1136   */\n  0x40\n    /* \"#utility.yul\":1127:1149   */\n  mstore\n    /* \"#utility.yul\":917:1155   */\n  pop\n    /* \"#utility.yul\":874:1155   */\n  pop\n  pop\n  jump\t// out\n    /* \"#utility.yul\":1161:1290   */\ntag_21:\n    /* \"#utility.yul\":1195:1201   */\n  0x00\n    /* \"#utility.yul\":1222:1242   */\n  tag_58\n  tag_13\n  jump\t// in\ntag_58:\n    /* \"#utility.yul\":1212:1242   */\n  swap1\n  pop\n    /* \"#utility.yul\":1251:1284   */\n  tag_59\n    /* \"#utility.yul\":1279:1283   */\n  dup3\n    /* \"#utility.yul\":1271:1277   */\n  dup3\n    /* \"#utility.yul\":1251:1284   */\n  tag_20\n  jump\t// in\ntag_59:\n    /* \"#utility.yul\":1161:1290   */\n  swap2\n  swap1\n  pop\n  jump\t// out\n    /* \"#utility.yul\":1296:1604   */\ntag_22:\n    /* \"#utility.yul\":1358:1362   */\n  0x00\n    /* \"#utility.yul\":1448:1466   */\n  0xffffffffffffffff\n    /* \"#utility.yul\":1440:1446   */\n  dup3\n    /* \"#utility.yul\":1437:1467   */\n  gt\n    /* \"#utility.yul\":1434:1490   */\n  iszero\n  tag_61\n  jumpi\n    /* \"#utility.yul\":1470:1488   */\n  tag_62\n  tag_19\n  jump\t// in\ntag_62:\n    /* \"#utility.yul\":1434:1490   */\ntag_61:\n    /* \"#utility.yul\":1508:1537   */\n  tag_63\n    /* \"#utility.yul\":1530:1536   */\n  dup3\n    /* \"#utility.yul\":1508:1537   */\n  tag_18\n  jump\t// in\ntag_63:\n    /* \"#utility.yul\":1500:1537   */\n  swap1\n  pop\n    /* \"#utility.yul\":1592:1596   */\n  0x20\n    /* \"#utility.yul\":1586:1590   */\n  dup2\n    /* \"#utility.yul\":1582:1597   */\n  add\n    /* \"#utility.yul\":1574:1597   */\n  swap1\n  pop\n    /* \"#utility.yul\":1296:1604   */\n  swap2\n  swap1\n  pop\n  jump\t// out\n    /* \"#utility.yul\":1610:1856   */\ntag_23:\n    /* \"#utility.yul\":1691:1692   */\n  0x00\n    /* \"#utility.yul\":1701:1814   */\ntag_65:\n    /* \"#utility.yul\":1715:1721   */\n  dup4\n    /* \"#utility.yul\":1712:1713   */\n  dup2\n    /* \"#utility.yul\":1709:1722   */\n  lt\n    /* \"#utility.yul\":1701:1814   */\n  iszero\n  tag_67\n  jumpi\n    /* \"#utility.yul\":1800:1801   */\n  dup1\n    /* \"#utility.yul\":1795:1798   */\n  dup3\n    /* \"#utility.yul\":1791:1802   */\n  add\n    /* \"#utility.yul\":1785:1803   */\n  mload\n    /* \"#utility.yul\":1781:1782   */\n  dup2\n    /* \"#utility.yul\":1776:1779   */\n  dup5\n    /* \"#utility.yul\":1772:1783   */\n  add\n    /* \"#utility.yul\":1765:1804   */\n  mstore\n    /* \"#utility.yul\":1737:1739   */\n  0x20\n    /* \"#utility.yul\":1734:1735   */\n  dup2\n    /* \"#utility.yul\":1730:1740   */\n  add\n    /* \"#utility.yul\":1725:1740   */\n  swap1\n  pop\n    /* \"#utility.yul\":1701:1814   */\n  jump(tag_65)\ntag_67:\n    /* \"#utility.yul\":1848:1849   */\n  0x00\n    /* \"#utility.yul\":1839:1845   */\n  dup5\n    /* \"#utility.yul\":1834:1837   */\n  dup5\n    /* \"#utility.yul\":1830:1846   */\n  add\n    /* \"#utility.yul\":1823:1850   */\n  mstore\n    /* \"#utility.yul\":1672:1856   */\n  pop\n    /* \"#utility.yul\":1610:1856   */\n  pop\n  pop\n  pop\n  jump\t// out\n    /* \"#utility.yul\":1862:2296   */\ntag_24:\n    /* \"#utility.yul\":1951:1956   */\n  0x00\n    /* \"#utility.yul\":1976:2042   */\n  tag_69\n    /* \"#utility.yul\":1992:2041   */\n  tag_70\n    /* \"#utility.yul\":2034:2040   */\n  dup5\n    /* \"#utility.yul\":1992:2041   */\n  tag_22\n  jump\t// in\ntag_70:\n    /* \"#utility.yul\":1976:2042   */\n  tag_21\n  jump\t// in\ntag_69:\n    /* \"#utility.yul\":1967:2042   */\n  swap1\n  pop\n    /* \"#utility.yul\":2065:2071   */\n  dup3\n    /* \"#utility.yul\":2058:2063   */\n  dup2\n    /* \"#utility.yul\":2051:2072   */\n  mstore\n    /* \"#utility.yul\":2103:2107   */\n  0x20\n    /* \"#utility.yul\":2096:2101   */\n  dup2\n    /* \"#utility.yul\":2092:2108   */\n  add\n    /* \"#utility.yul\":2141:2144   */\n  dup5\n    /* \"#utility.yul\":2132:2138   */\n  dup5\n    /* \"#utility.yul\":2127:2130   */\n  dup5\n    /* \"#utility.yul\":2123:2139   */\n  add\n    /* \"#utility.yul\":2120:2145   */\n  gt\n    /* \"#utility.yul\":2117:2229   */\n  iszero\n  tag_71\n  jumpi\n    /* \"#utility.yul\":2148:2227   */\n  tag_72\n  tag_17\n  jump\t// in\ntag_72:\n    /* \"#utility.yul\":2117:2229   */\ntag_71:\n    /* \"#utility.yul\":2238:2290   */\n  tag_73\n    /* \"#utility.yul\":2283:2289   */\n  dup5\n    /* \"#utility.yul\":2278:2281   */\n  dup3\n    /* \"#utility.yul\":2273:2276   */\n  dup6\n    /* \"#utility.yul\":2238:2290   */\n  tag_23\n  jump\t// in\ntag_73:\n    /* \"#utility.yul\":1957:2296   */\n  pop\n    /* \"#utility.yul\":1862:2296   */\n  swap4\n  swap3\n  pop\n  pop\n  pop\n  jump\t// out\n    /* \"#utility.yul\":2316:2671   */\ntag_25:\n    /* \"#utility.yul\":2383:2388   */\n  0x00\n    /* \"#utility.yul\":2432:2435   */\n  dup3\n    /* \"#utility.yul\":2425:2429   */\n  0x1f\n    /* \"#utility.yul\":2417:2423   */\n  dup4\n    /* \"#utility.yul\":2413:2430   */\n  add\n    /* \"#utility.yul\":2409:2436   */\n  slt\n    /* \"#utility.yul\":2399:2521   */\n  tag_75\n  jumpi\n    /* \"#utility.yul\":2440:2519   */\n  tag_76\n  tag_16\n  jump\t// in\ntag_76:\n    /* \"#utility.yul\":2399:2521   */\ntag_75:\n    /* \"#utility.yul\":2550:2556   */\n  dup2\n    /* \"#utility.yul\":2544:2557   */\n  mload\n    /* \"#utility.yul\":2575:2665   */\n  tag_77\n    /* \"#utility.yul\":2661:2664   */\n  dup5\n    /* \"#utility.yul\":2653:2659   */\n  dup3\n    /* \"#utility.yul\":2646:2650   */\n  0x20\n    /* \"#utility.yul\":2638:2644   */\n  dup7\n    /* \"#utility.yul\":2634:2651   */\n  add\n    /* \"#utility.yul\":2575:2665   */\n  tag_24\n  jump\t// in\ntag_77:\n    /* \"#utility.yul\":2566:2665   */\n  swap2\n  pop\n    /* \"#utility.yul\":2389:2671   */\n  pop\n    /* \"#utility.yul\":2316:2671   */\n  swap3\n  swap2\n  pop\n  pop\n  jump\t// out\n    /* \"#utility.yul\":2677:3530   */\ntag_3:\n    /* \"#utility.yul\":2776:2782   */\n  0x00\n    /* \"#utility.yul\":2784:2790   */\n  dup1\n    /* \"#utility.yul\":2833:2835   */\n  0x40\n    /* \"#utility.yul\":2821:2830   */\n  dup4\n    /* \"#utility.yul\":2812:2819   */\n  dup6\n    /* \"#utility.yul\":2808:2831   */\n  sub\n    /* \"#utility.yul\":2804:2836   */\n  slt\n    /* \"#utility.yul\":2801:2920   */\n  iszero\n  tag_79\n  jumpi\n    /* \"#utility.yul\":2839:2918   */\n  tag_80\n  tag_14\n  jump\t// in\ntag_80:\n    /* \"#utility.yul\":2801:2920   */\ntag_79:\n    /* \"#utility.yul\":2980:2981   */\n  0x00\n    /* \"#utility.yul\":2969:2978   */\n  dup4\n    /* \"#utility.yul\":2965:2982   */\n  add\n    /* \"#utility.yul\":2959:2983   */\n  mload\n    /* \"#utility.yul\":3010:3028   */\n  0xffffffffffffffff\n    /* \"#utility.yul\":3002:3008   */\n  dup2\n    /* \"#utility.yul\":2999:3029   */\n  gt\n    /* \"#utility.yul\":2996:3113   */\n  iszero\n  tag_81\n  jumpi\n    /* \"#utility.yul\":3032:3111   */\n  tag_82\n  tag_15\n  jump\t// in\ntag_82:\n    /* \"#utility.yul\":2996:3113   */\ntag_81:\n    /* \"#utility.yul\":3137:3211   */\n  tag_83\n    /* \"#utility.yul\":3203:3210   */\n  dup6\n    /* \"#utility.yul\":3194:3200   */\n  dup3\n    /* \"#utility.yul\":3183:3192   */\n  dup7\n    /* \"#utility.yul\":3179:3201   */\n  add\n    /* \"#utility.yul\":3137:3211   */\n  tag_25\n  jump\t// in\ntag_83:\n    /* \"#utility.yul\":3127:3211   */\n  swap3\n  pop\n    /* \"#utility.yul\":2930:3221   */\n  pop\n    /* \"#utility.yul\":3281:3283   */\n  0x20\n    /* \"#utility.yul\":3270:3279   */\n  dup4\n    /* \"#utility.yul\":3266:3284   */\n  add\n    /* \"#utility.yul\":3260:3285   */\n  mload\n    /* \"#utility.yul\":3312:3330   */\n  0xffffffffffffffff\n    /* \"#utility.yul\":3304:3310   */\n  dup2\n    /* \"#utility.yul\":3301:3331   */\n  gt\n    /* \"#utility.yul\":3298:3415   */\n  iszero\n  tag_84\n  jumpi\n    /* \"#utility.yul\":3334:3413   */\n  tag_85\n  tag_15\n  jump\t// in\ntag_85:\n    /* \"#utility.yul\":3298:3415   */\ntag_84:\n    /* \"#utility.yul\":3439:3513   */\n  tag_86\n    /* \"#utility.yul\":3505:3512   */\n  dup6\n    /* \"#utility.yul\":3496:3502   */\n  dup3\n    /* \"#utility.yul\":3485:3494   */\n  dup7\n    /* \"#utility.yul\":3481:3503   */\n  add\n    /* \"#utility.yul\":3439:3513   */\n  tag_25\n  jump\t// in\ntag_86:\n    /* \"#utility.yul\":3429:3513   */\n  swap2\n  pop\n    /* \"#utility.yul\":3231:3523   */\n  pop\n    /* \"#utility.yul\":2677:3530   */\n  swap3\n  pop\n  swap3\n  swap1\n  pop\n  jump\t// out\n    /* \"#utility.yul\":3536:3635   */\ntag_26:\n    /* \"#utility.yul\":3588:3594   */\n  0x00\n    /* \"#utility.yul\":3622:3627   */\n  dup2\n    /* \"#utility.yul\":3616:3628   */\n  mload\n    /* \"#utility.yul\":3606:3628   */\n  swap1\n  pop\n    /* \"#utility.yul\":3536:3635   */\n  swap2\n  swap1\n  pop\n  jump\t// out\n    /* \"#utility.yul\":3641:3821   */\ntag_27:\n    /* \"#utility.yul\":3689:3766   */\n  0x4e487b7100000000000000000000000000000000000000000000000000000000\n    /* \"#utility.yul\":3686:3687   */\n  0x00\n    /* \"#utility.yul\":3679:3767   */\n  mstore\n    /* \"#utility.yul\":3786:3790   */\n  0x22\n    /* \"#utility.yul\":3783:3784   */\n  0x04\n    /* \"#utility.yul\":3776:3791   */\n  mstore\n    /* \"#utility.yul\":3810:3814   */\n  0x24\n    /* \"#utility.yul\":3807:3808   */\n  0x00\n    /* \"#utility.yul\":3800:3815   */\n  revert\n    /* \"#utility.yul\":3827:4147   */\ntag_28:\n    /* \"#utility.yul\":3871:3877   */\n  0x00\n    /* \"#utility.yul\":3908:3909   */\n  0x02\n    /* \"#utility.yul\":3902:3906   */\n  dup3\n    /* \"#utility.yul\":3898:3910   */\n  div\n    /* \"#utility.yul\":3888:3910   */\n  swap1\n  pop\n    /* \"#utility.yul\":3955:3956   */\n  0x01\n    /* \"#utility.yul\":3949:3953   */\n  dup3\n    /* \"#utility.yul\":3945:3957   */\n  and\n    /* \"#utility.yul\":3976:3994   */\n  dup1\n    /* \"#utility.yul\":3966:4047   */\n  tag_90\n  jumpi\n    /* \"#utility.yul\":4032:4036   */\n  0x7f\n    /* \"#utility.yul\":4024:4030   */\n  dup3\n    /* \"#utility.yul\":4020:4037   */\n  and\n    /* \"#utility.yul\":4010:4037   */\n  swap2\n  pop\n    /* \"#utility.yul\":3966:4047   */\ntag_90:\n    /* \"#utility.yul\":4094:4096   */\n  0x20\n    /* \"#utility.yul\":4086:4092   */\n  dup3\n    /* \"#utility.yul\":4083:4097   */\n  lt\n    /* \"#utility.yul\":4063:4081   */\n  dup2\n    /* \"#utility.yul\":4060:4098   */\n  sub\n    /* \"#utility.yul\":4057:4141   */\n  tag_91\n  jumpi\n    /* \"#utility.yul\":4113:4131   */\n  tag_92\n  tag_27\n  jump\t// in\ntag_92:\n    /* \"#utility.yul\":4057:4141   */\ntag_91:\n    /* \"#utility.yul\":3878:4147   */\n  pop\n    /* \"#utility.yul\":3827:4147   */\n  swap2\n  swap1\n  pop\n  jump\t// out\n    /* \"#utility.yul\":4153:4294   */\ntag_29:\n    /* \"#utility.yul\":4202:4206   */\n  0x00\n    /* \"#utility.yul\":4225:4228   */\n  dup2\n    /* \"#utility.yul\":4217:4228   */\n  swap1\n  pop\n    /* \"#utility.yul\":4248:4251   */\n  dup2\n    /* \"#utility.yul\":4245:4246   */\n  0x00\n    /* \"#utility.yul\":4238:4252   */\n  mstore\n    /* \"#utility.yul\":4282:4286   */\n  0x20\n    /* \"#utility.yul\":4279:4280   */\n  0x00\n    /* \"#utility.yul\":4269:4287   */\n  keccak256\n    /* \"#utility.yul\":4261:4287   */\n  swap1\n  pop\n    /* \"#utility.yul\":4153:4294   */\n  swap2\n  swap1\n  pop\n  jump\t// out\n    /* \"#utility.yul\":4300:4393   */\ntag_30:\n    /* \"#utility.yul\":4337:4343   */\n  0x00\n    /* \"#utility.yul\":4384:4386   */\n  0x20\n    /* \"#utility.yul\":4379:4381   */\n  0x1f\n    /* \"#utility.yul\":4372:4377   */\n  dup4\n    /* \"#utility.yul\":4368:4382   */\n  add\n    /* \"#utility.yul\":4364:4387   */\n  div\n    /* \"#utility.yul\":4354:4387   */\n  swap1\n  pop\n    /* \"#utility.yul\":4300:4393   */\n  swap2\n  swap1\n  pop\n  jump\t// out\n    /* \"#utility.yul\":4399:4506   */\ntag_31:\n    /* \"#utility.yul\":4443:4451   */\n  0x00\n    /* \"#utility.yul\":4493:4498   */\n  dup3\n    /* \"#utility.yul\":4487:4491   */\n  dup3\n    /* \"#utility.yul\":4483:4499   */\n  shl\n    /* \"#utility.yul\":4462:4499   */\n  swap1\n  pop\n    /* \"#utility.yul\":4399:4506   */\n  swap3\n  swap2\n  pop\n  pop\n  jump\t// out\n    /* \"#utility.yul\":4512:4905   */\ntag_32:\n    /* \"#utility.yul\":4581:4587   */\n  0x00\n    /* \"#utility.yul\":4631:4632   */\n  0x08\n    /* \"#utility.yul\":4619:4629   */\n  dup4\n    /* \"#utility.yul\":4615:4633   */\n  mul\n    /* \"#utility.yul\":4654:4751   */\n  tag_97\n    /* \"#utility.yul\":4684:4750   */\n  0xffffffffffffffffffffffffffffffffffffffffffffffffffffffffffffffff\n    /* \"#utility.yul\":4673:4682   */\n  dup3\n    /* \"#utility.yul\":4654:4751   */\n  tag_31\n  jump\t// in\ntag_97:\n    /* \"#utility.yul\":4772:4811   */\n  tag_98\n    /* \"#utility.yul\":4802:4810   */\n  dup7\n    /* \"#utility.yul\":4791:4800   */\n  dup4\n    /* \"#utility.yul\":4772:4811   */\n  tag_31\n  jump\t// in\ntag_98:\n    /* \"#utility.yul\":4760:4811   */\n  swap6\n  pop\n    /* \"#utility.yul\":4844:4848   */\n  dup1\n    /* \"#utility.yul\":4840:4849   */\n  not\n    /* \"#utility.yul\":4833:4838   */\n  dup5\n    /* \"#utility.yul\":4829:4850   */\n  and\n    /* \"#utility.yul\":4820:4850   */\n  swap4\n  pop\n    /* \"#utility.yul\":4893:4897   */\n  dup1\n    /* \"#utility.yul\":4883:4891   */\n  dup7\n    /* \"#utility.yul\":4879:4898   */\n  and\n    /* \"#utility.yul\":4872:4877   */\n  dup5\n    /* \"#utility.yul\":4869:4899   */\n  or\n    /* \"#utility.yul\":4859:4899   */\n  swap3\n  pop\n    /* \"#utility.yul\":4588:4905   */\n  pop\n  pop\n    /* \"#utility.yul\":4512:4905   */\n  swap4\n  swap3\n  pop\n  pop\n  pop\n  jump\t// out\n    /* \"#utility.yul\":4911:4988   */\ntag_33:\n    /* \"#utility.yul\":4948:4955   */\n  0x00\n    /* \"#utility.yul\":4977:4982   */\n  dup2\n    /* \"#utility.yul\":4966:4982   */\n  swap1\n  pop\n    /* \"#utility.yul\":4911:4988   */\n  swap2\n  swap1\n  pop\n  jump\t// out\n    /* \"#utility.yul\":4994:5054   */\ntag_34:\n    /* \"#utility.yul\":5022:5025   */\n  0x00\n    /* \"#utility.yul\":5043:5048   */\n  dup2\n    /* \"#utility.yul\":5036:5048   */\n  swap1\n  pop\n    /* \"#utility.yul\":4994:5054   */\n  swap2\n  swap1\n  pop\n  jump\t// out\n    /* \"#utility.yul\":5060:5202   */\ntag_35:\n    /* \"#utility.yul\":5110:5119   */\n  0x00\n    /* \"#utility.yul\":5143:5196   */\n  tag_102\n    /* \"#utility.yul\":5161:5195   */\n  tag_103\n    /* \"#utility.yul\":5170:5194   */\n  tag_104\n    /* \"#utility.yul\":5188:5193   */\n  dup5\n    /* \"#utility.yul\":5170:5194   */\n  tag_33\n  jump\t// in\ntag_104:\n    /* \"#utility.yul\":5161:5195   */\n  tag_34\n  jump\t// in\ntag_103:\n    /* \"#utility.yul\":5143:5196   */\n  tag_33\n  jump\t// in\ntag_102:\n    /* \"#utility.yul\":5130:5196   */\n  swap1\n  pop\n    /* \"#utility.yul\":5060:5202   */\n  swap2\n  swap1\n  pop\n  jump\t// out\n    /* \"#utility.yul\":5208:5283   */\ntag_36:\n    /* \"#utility.yul\":5251:5254   */\n  0x00\n    /* \"#utility.yul\":5272:5277   */\n  dup2\n    /* \"#utility.yul\":5265:5277   */\n  swap1\n  pop\n    /* \"#utility.yul\":5208:5283   */\n  swap2\n  swap1\n  pop\n  jump\t// out\n    /* \"#utility.yul\":5289:5558   */\ntag_37:\n    /* \"#utility.yul\":5399:5438   */\n  tag_107\n    /* \"#utility.yul\":5430:5437   */\n  dup4\n    /* \"#utility.yul\":5399:5438   */\n  tag_35\n  jump\t// in\ntag_107:\n    /* \"#utility.yul\":5460:5551   */\n  tag_108\n    /* \"#utility.yul\":5509:5550   */\n  tag_109\n    /* \"#utility.yul\":5533:5549   */\n  dup3\n    /* \"#utility.yul\":5509:5550   */\n  tag_36\n  jump\t// in\ntag_109:\n    /* \"#utility.yul\":5501:5507   */\n  dup5\n    /* \"#utility.yul\":5494:5498   */\n  dup5\n    /* \"#utility.yul\":5488:5499   */\n  sload\n    /* \"#utility.yul\":5460:5551   */\n  tag_32\n  jump\t// in\ntag_108:\n    /* \"#utility.yul\":5454:5458   */\n  dup3\n    /* \"#utility.yul\":5447:5552   */\n  sstore\n    /* \"#utility.yul\":5365:5558   */\n  pop\n    /* \"#utility.yul\":5289:5558   */\n  pop\n  pop\n  pop\n  jump\t// out\n    /* \"#utility.yul\":5564:5637   */\ntag_38:\n    /* \"#utility.yul\":5609:5612   */\n  0x00\n    /* \"#utility.yul\":5564:5637   */\n  swap1\n  jump\t// out\n    /* \"#utility.yul\":5643:5832   */\ntag_39:\n    /* \"#utility.yul\":5720:5752   */\n  tag_112\n  tag_38\n  jump\t// in\ntag_112:\n    /* \"#utility.yul\":5761:5826   */\n  tag_113\n    /* \"#utility.yul\":5819:5825   */\n  dup2\n    /* \"#utility.yul\":5811:5817   */\n  dup5\n    /* \"#utility.yul\":5805:5809   */\n  dup5\n    /* \"#utility.yul\":5761:5826   */\n  tag_37\n  jump\t// in\ntag_113:\n    /* \"#utility.yul\":5696:5832   */\n  pop\n    /* \"#utility.yul\":5643:5832   */\n  pop\n  pop\n  jump\t// out\n    /* \"#utility.yul\":5838:6024   */\ntag_40:\n    /* \"#utility.yul\":5898:6018   */\ntag_115:\n    /* \"#utility.yul\":5915:5918   */\n  dup2\n    /* \"#utility.yul\":5908:5913   */\n  dup2\n    /* \"#utility.yul\":5905:5919   */\n  lt\n    /* \"#utility.yul\":5898:6018   */\n  iszero\n  tag_117\n  jumpi\n    /* \"#utility.yul\":5969:6008   */\n  tag_118\n    /* \"#utility.yul\":6006:6007   */\n  0x00\n    /* \"#utility.yul\":5999:6004   */\n  dup3\n    /* \"#utility.yul\":5969:6008   */\n  tag_39\n  jump\t// in\ntag_118:\n    /* \"#utility.yul\":5942:5943   */\n  0x01\n    /* \"#utility.yul\":5935:5940   */\n  dup2\n    /* \"#utility.yul\":5931:5944   */\n  add\n    /* \"#utility.yul\":5922:5944   */\n  swap1\n  pop\n    /* \"#utility.yul\":5898:6018   */\n  jump(tag_115)\ntag_117:\n    /* \"#utility.yul\":5838:6024   */\n  pop\n  pop\n  jump\t// out\n    /* \"#utility.yul\":6030:6573   */\ntag_41:\n    /* \"#utility.yul\":6131:6133   */\n  0x1f\n    /* \"#utility.yul\":6126:6129   */\n  dup3\n    /* \"#utility.yul\":6123:6134   */\n  gt\n    /* \"#utility.yul\":6120:6566   */\n  iszero\n  tag_120\n  jumpi\n    /* \"#utility.yul\":6165:6203   */\n  tag_121\n    /* \"#utility.yul\":6197:6202   */\n  dup2\n    /* \"#utility.yul\":6165:6203   */\n  tag_29\n  jump\t// in\ntag_121:\n    /* \"#utility.yul\":6249:6278   */\n  tag_122\n    /* \"#utility.yul\":6267:6277   */\n  dup5\n    /* \"#utility.yul\":6249:6278   */\n  tag_30\n  jump\t// in\ntag_122:\n    /* \"#utility.yul\":6239:6247   */\n  dup2\n    /* \"#utility.yul\":6235:6279   */\n  add\n    /* \"#utility.yul\":6432:6434   */\n  0x20\n    /* \"#utility.yul\":6420:6430   */\n  dup6\n    /* \"#utility.yul\":6417:6435   */\n  lt\n    /* \"#utility.yul\":6414:6463   */\n  iszero\n  tag_123\n  jumpi\n    /* \"#utility.yul\":6453:6461   */\n  dup2\n    /* \"#utility.yul\":6438:6461   */\n  swap1\n  pop\n    /* \"#utility.yul\":6414:6463   */\ntag_123:\n    /* \"#utility.yul\":6476:6556   */\n  tag_124\n    /* \"#utility.yul\":6532:6554   */\n  tag_125\n    /* \"#utility.yul\":6550:6553   */\n  dup6\n    /* \"#utility.yul\":6532:6554   */\n  tag_30\n  jump\t// in\ntag_125:\n    /* \"#utility.yul\":6522:6530   */\n  dup4\n    /* \"#utility.yul\":6518:6555   */\n  add\n    /* \"#utility.yul\":6505:6516   */\n  dup3\n    /* \"#utility.yul\":6476:6556   */\n  tag_40\n  jump\t// in\ntag_124:\n    /* \"#utility.yul\":6135:6566   */\n  pop\n  pop\n    /* \"#utility.yul\":6120:6566   */\ntag_120:\n    /* \"#utility.yul\":6030:6573   */\n  pop\n  pop\n  pop\n  jump\t// out\n    /* \"#utility.yul\":6579:6696   */\ntag_42:\n    /* \"#utility.yul\":6633:6641   */\n  0x00\n    /* \"#utility.yul\":6683:6688   */\n  dup3\n    /* \"#utility.yul\":6677:6681   */\n  dup3\n    /* \"#utility.yul\":6673:6689   */\n  shr\n    /* \"#utility.yul\":6652:6689   */\n  swap1\n  pop\n    /* \"#utility.yul\":6579:6696   */\n  swap3\n  swap2\n  pop\n  pop\n  jump\t// out\n    /* \"#utility.yul\":6702:6871   */\ntag_43:\n    /* \"#utility.yul\":6746:6752   */\n  0x00\n    /* \"#utility.yul\":6779:6830   */\n  tag_128\n    /* \"#utility.yul\":6827:6828   */\n  0x00\n    /* \"#utility.yul\":6823:6829   */\n  not\n    /* \"#utility.yul\":6815:6820   */\n  dup5\n    /* \"#utility.yul\":6812:6813   */\n  0x08\n    /* \"#utility.yul\":6808:6821   */\n  mul\n    /* \"#utility.yul\":6779:6830   */\n  tag_42\n  jump\t// in\ntag_128:\n    /* \"#utility.yul\":6775:6831   */\n  not\n    /* \"#utility.yul\":6860:6864   */\n  dup1\n    /* \"#utility.yul\":6854:6858   */\n  dup4\n    /* \"#utility.yul\":6850:6865   */\n  and\n    /* \"#utility.yul\":6840:6865   */\n  swap2\n  pop\n    /* \"#utility.yul\":6753:6871   */\n  pop\n    /* \"#utility.yul\":6702:6871   */\n  swap3\n  swap2\n  pop\n  pop\n  jump\t// out\n    /* \"#utility.yul\":6876:7171   */\ntag_44:\n    /* \"#utility.yul\":6952:6956   */\n  0x00\n    /* \"#utility.yul\":7098:7127   */\n  tag_130\n    /* \"#utility.yul\":7123:7126   */\n  dup4\n    /* \"#utility.yul\":7117:7121   */\n  dup4\n    /* \"#utility.yul\":7098:7127   */\n  tag_43\n  jump\t// in\ntag_130:\n    /* \"#utility.yul\":7090:7127   */\n  swap2\n  pop\n    /* \"#utility.yul\":7160:7163   */\n  dup3\n    /* \"#utility.yul\":7157:7158   */\n  0x02\n    /* \"#utility.yul\":7153:7164   */\n  mul\n    /* \"#utility.yul\":7147:7151   */\n  dup3\n    /* \"#utility.yul\":7144:7165   */\n  or\n    /* \"#utility.yul\":7136:7165   */\n  swap1\n  pop\n    /* \"#utility.yul\":6876:7171   */\n  swap3\n  swap2\n  pop\n  pop\n  jump\t// out\n    /* \"#utility.yul\":7176:8571   */\ntag_8:\n    /* \"#utility.yul\":7293:7330   */\n  tag_132\n    /* \"#utility.yul\":7326:7329   */\n  dup3\n    /* \"#utility.yul\":7293:7330   */\n  tag_26\n  jump\t// in\ntag_132:\n    /* \"#utility.yul\":7395:7413   */\n  0xffffffffffffffff\n    /* \"#utility.yul\":7387:7393   */\n  dup2\n    /* \"#utility.yul\":7384:7414   */\n  gt\n    /* \"#utility.yul\":7381:7437   */\n  iszero\n  tag_133\n  jumpi\n    /* \"#utility.yul\":7417:7435   */\n  tag_134\n  tag_19\n  jump\t// in\ntag_134:\n    /* \"#utility.yul\":7381:7437   */\ntag_133:\n    /* \"#utility.yul\":7461:7499   */\n  tag_135\n    /* \"#utility.yul\":7493:7497   */\n  dup3\n    /* \"#utility.yul\":7487:7498   */\n  sload\n    /* \"#utility.yul\":7461:7499   */\n  tag_28\n  jump\t// in\ntag_135:\n    /* \"#utility.yul\":7546:7613   */\n  tag_136\n    /* \"#utility.yul\":7606:7612   */\n  dup3\n    /* \"#utility.yul\":7598:7604   */\n  dup3\n    /* \"#utility.yul\":7592:7596   */\n  dup6\n    /* \"#utility.yul\":7546:7613   */\n  tag_41\n  jump\t// in\ntag_136:\n    /* \"#utility.yul\":7640:7641   */\n  0x00\n    /* \"#utility.yul\":7664:7668   */\n  0x20\n    /* \"#utility.yul\":7651:7668   */\n  swap1\n  pop\n    /* \"#utility.yul\":7696:7698   */\n  0x1f\n    /* \"#utility.yul\":7688:7694   */\n  dup4\n    /* \"#utility.yul\":7685:7699   */\n  gt\n    /* \"#utility.yul\":7713:7714   */\n  0x01\n    /* \"#utility.yul\":7708:8326   */\n  dup2\n  eq\n  tag_138\n  jumpi\n    /* \"#utility.yul\":8370:8371   */\n  0x00\n    /* \"#utility.yul\":8387:8393   */\n  dup5\n    /* \"#utility.yul\":8384:8461   */\n  iszero\n  tag_139\n  jumpi\n    /* \"#utility.yul\":8436:8445   */\n  dup3\n    /* \"#utility.yul\":8431:8434   */\n  dup8\n    /* \"#utility.yul\":8427:8446   */\n  add\n    /* \"#utility.yul\":8421:8447   */\n  mload\n    /* \"#utility.yul\":8412:8447   */\n  swap1\n  pop\n    /* \"#utility.yul\":8384:8461   */\ntag_139:\n    /* \"#utility.yul\":8487:8554   */\n  tag_140\n    /* \"#utility.yul\":8547:8553   */\n  dup6\n    /* \"#utility.yul\":8540:8545   */\n  dup3\n    /* \"#utility.yul\":8487:8554   */\n  tag_44\n  jump\t// in\ntag_140:\n    /* \"#utility.yul\":8481:8485   */\n  dup7\n    /* \"#utility.yul\":8474:8555   */\n  sstore\n    /* \"#utility.yul\":8343:8565   */\n  pop\n    /* \"#utility.yul\":7678:8565   */\n  jump(tag_137)\n    /* \"#utility.yul\":7708:8326   */\ntag_138:\n    /* \"#utility.yul\":7760:7764   */\n  0x1f\n    /* \"#utility.yul\":7756:7765   */\n  not\n    /* \"#utility.yul\":7748:7754   */\n  dup5\n    /* \"#utility.yul\":7744:7766   */\n  and\n    /* \"#utility.yul\":7794:7831   */\n  tag_141\n    /* \"#utility.yul\":7826:7830   */\n  dup7\n    /* \"#utility.yul\":7794:7831   */\n  tag_29\n  jump\t// in\ntag_141:\n    /* \"#utility.yul\":7853:7854   */\n  0x00\n    /* \"#utility.yul\":7867:8075   */\ntag_142:\n    /* \"#utility.yul\":7881:7888   */\n  dup3\n    /* \"#utility.yul\":7878:7879   */\n  dup2\n    /* \"#utility.yul\":7875:7889   */\n  lt\n    /* \"#utility.yul\":7867:8075   */\n  iszero\n  tag_144\n  jumpi\n    /* \"#utility.yul\":7960:7969   */\n  dup5\n    /* \"#utility.yul\":7955:7958   */\n  dup10\n    /* \"#utility.yul\":7951:7970   */\n  add\n    /* \"#utility.yul\":7945:7971   */\n  mload\n    /* \"#utility.yul\":7937:7943   */\n  dup3\n    /* \"#utility.yul\":7930:7972   */\n  sstore\n    /* \"#utility.yul\":8011:8012   */\n  0x01\n    /* \"#utility.yul\":8003:8009   */\n  dup3\n    /* \"#utility.yul\":7999:8013   */\n  add\n    /* \"#utility.yul\":7989:8013   */\n  swap2\n  pop\n    /* \"#utility.yul\":8058:8060   */\n  0x20\n    /* \"#utility.yul\":8047:8056   */\n  dup6\n    /* \"#utility.yul\":8043:8061   */\n  add\n    /* \"#utility.yul\":8030:8061   */\n  swap5\n  pop\n    /* \"#utility.yul\":7904:7908   */\n  0x20\n    /* \"#utility.yul\":7901:7902   */\n  dup2\n    /* \"#utility.yul\":7897:7909   */\n  add\n    /* \"#utility.yul\":7892:7909   */\n  swap1\n  pop\n    /* \"#utility.yul\":7867:8075   */\n  jump(tag_142)\ntag_144:\n    /* \"#utility.yul\":8103:8109   */\n  dup7\n    /* \"#utility.yul\":8094:8101   */\n  dup4\n    /* \"#utility.yul\":8091:8110   */\n  lt\n    /* \"#utility.yul\":8088:8267   */\n  iszero\n  tag_145\n  jumpi\n    /* \"#utility.yul\":8161:8170   */\n  dup5\n    /* \"#utility.yul\":8156:8159   */\n  dup10\n    /* \"#utility.yul\":8152:8171   */\n  add\n    /* \"#utility.yul\":8146:8172   */\n  mload\n    /* \"#utility.yul\":8204:8252   */\n  tag_146\n    /* \"#utility.yul\":8246:8250   */\n  0x1f\n    /* \"#utility.yul\":8238:8244   */\n  dup10\n    /* \"#utility.yul\":8234:8251   */\n  and\n    /* \"#utility.yul\":8223:8232   */\n  dup3\n    /* \"#utility.yul\":8204:8252   */\n  tag_43\n  jump\t// in\ntag_146:\n    /* \"#utility.yul\":8196:8202   */\n  dup4\n    /* \"#utility.yul\":8189:8253   */\n  sstore\n    /* \"#utility.yul\":8111:8267   */\n  pop\n    /* \"#utility.yul\":8088:8267   */\ntag_145:\n    /* \"#utility.yul\":8313:8314   */\n  0x01\n    /* \"#utility.yul\":8309:8310   */\n  0x02\n    /* \"#utility.yul\":8301:8307   */\n  dup9\n    /* \"#utility.yul\":8297:8311   */\n  mul\n    /* \"#utility.yul\":8293:8315   */\n  add\n    /* \"#utility.yul\":8287:8291   */\n  dup9\n    /* \"#utility.yul\":8280:8316   */\n  sstore\n    /* \"#utility.yul\":7715:8326   */\n  pop\n  pop\n  pop\n    /* \"#utility.yul\":7678:8565   */\ntag_137:\n  pop\n    /* \"#utility.yul\":7268:8571   */\n  pop\n  pop\n  pop\n    /* \"#utility.yul\":7176:8571   */\n  pop\n  pop\n  jump\t// out\n    /* \"contracts/WeightedVoting.sol\":181:4720  contract WeightedVoting is ERC20 {... */\ntag_12:\n  dataSize(sub_0)\n  dup1\n  dataOffset(sub_0)\n  0x00\n  codecopy\n  0x00\n  return\nstop\n\nsub_0: assembly {\n        /* \"contracts/WeightedVoting.sol\":181:4720  contract WeightedVoting is ERC20 {... */\n      mstore(0x40, 0x80)\n      callvalue\n      dup1\n      iszero\n      tag_1\n      jumpi\n      0x00\n      dup1\n      revert\n    tag_1:\n      pop\n      jumpi(tag_2, lt(calldatasize, 0x04))\n      shr(0xe0, calldataload(0x00))\n      dup1\n      0x70a08231\n      gt\n      tag_22\n      jumpi\n      dup1\n      0x9668ceb8\n      gt\n      tag_23\n      jumpi\n      dup1\n      0x9668ceb8\n      eq\n      tag_17\n      jumpi\n      dup1\n      0xa9059cbb\n      eq\n      tag_18\n      jumpi\n      dup1\n      0xd5abeb01\n      eq\n      tag_19\n      jumpi\n      dup1\n      0xdd62ed3e\n      eq\n      tag_20\n      jumpi\n      dup1\n      0xfca22842\n      eq\n      tag_21\n      jumpi\n      jump(tag_2)\n    tag_23:\n      dup1\n      0x70a08231\n      eq\n      tag_12\n      jumpi\n      dup1\n      0x73b2e80e\n      eq\n      tag_13\n      jumpi\n      dup1\n      0x830953ab\n      eq\n      tag_14\n      jumpi\n      dup1\n      0x8da5cb5b\n      eq\n      tag_15\n      jumpi\n      dup1\n      0x95d89b41\n      eq\n      tag_16\n      jumpi\n      jump(tag_2)\n    tag_22:\n      dup1\n      0x21e4c301\n      gt\n      tag_24\n      jumpi\n      dup1\n      0x21e4c301\n      eq\n      tag_7\n      jumpi\n      dup1\n      0x23b872dd\n      eq\n      tag_8\n      jumpi\n      dup1\n      0x27e235e3\n      eq\n      tag_9\n      jumpi\n      dup1\n      0x313ce567\n      eq\n      tag_10\n      jumpi\n      dup1\n      0x4e71d92d\n      eq\n      tag_11\n      jumpi\n      jump(tag_2)\n    tag_24:\n      dup1\n      0x06fdde03\n      eq\n      tag_3\n      jumpi\n      dup1\n      0x095ea7b3\n      eq\n      tag_4\n      jumpi\n      dup1\n      0x0c6a8615\n      eq\n      tag_5\n      jumpi\n      dup1\n      0x18160ddd\n      eq\n      tag_6\n      jumpi\n    tag_2:\n      0x00\n      dup1\n      revert\n        /* \"@openzeppelin/contracts/token/ERC20/ERC20.sol\":2074:2163  function name() public view virtual returns (string memory) {... */\n    tag_3:\n      tag_25\n      tag_26\n      jump\t// in\n    tag_25:\n      mload(0x40)\n      tag_27\n      swap2\n      swap1\n      tag_28\n      jump\t// in\n    tag_27:\n      mload(0x40)\n      dup1\n      swap2\n      sub\n      swap1\n      return\n        /* \"@openzeppelin/contracts/token/ERC20/ERC20.sol\":4293:4479  function approve(address spender, uint256 value) public virtual returns (bool) {... */\n    tag_4:\n      tag_29\n      0x04\n      dup1\n      calldatasize\n      sub\n      dup2\n      add\n      swap1\n      tag_30\n      swap2\n      swap1\n      tag_31\n      jump\t// in\n    tag_30:\n      tag_32\n      jump\t// in\n    tag_29:\n      mload(0x40)\n      tag_33\n      swap2\n      swap1\n      tag_34\n      jump\t// in\n    tag_33:\n      mload(0x40)\n      dup1\n      swap2\n      sub\n      swap1\n      return\n        /* \"contracts/WeightedVoting.sol\":2193:2750  function createIssue(... */\n    tag_5:\n      tag_35\n      0x04\n      dup1\n      calldatasize\n      sub\n      dup2\n      add\n      swap1\n      tag_36\n      swap2\n      swap1\n      tag_37\n      jump\t// in\n    tag_36:\n      tag_38\n      jump\t// in\n    tag_35:\n      mload(0x40)\n      tag_39\n      swap2\n      swap1\n      tag_40\n      jump\t// in\n    tag_39:\n      mload(0x40)\n      dup1\n      swap2\n      sub\n      swap1\n      return\n        /* \"@openzeppelin/contracts/token/ERC20/ERC20.sol\":3144:3241  function totalSupply() public view virtual returns (uint256) {... */\n    tag_6:\n      tag_41\n      tag_42\n      jump\t// in\n    tag_41:\n      mload(0x40)\n      tag_43\n      swap2\n      swap1\n      tag_40\n      jump\t// in\n    tag_43:\n      mload(0x40)\n      dup1\n      swap2\n      sub\n      swap1\n      return\n        /* \"contracts/WeightedVoting.sol\":3437:4718  function vote(uint24 _issueId, Votes _vote) public {... */\n    tag_7:\n      tag_44\n      0x04\n      dup1\n      calldatasize\n      sub\n      dup2\n      add\n      swap1\n      tag_45\n      swap2\n      swap1\n      tag_46\n      jump\t// in\n    tag_45:\n      tag_47\n      jump\t// in\n    tag_44:\n      stop\n        /* \"@openzeppelin/contracts/token/ERC20/ERC20.sol\":5039:5283  function transferFrom(address from, address to, uint256 value) public virtual returns (bool) {... */\n    tag_8:\n      tag_48\n      0x04\n      dup1\n      calldatasize\n      sub\n      dup2\n      add\n      swap1\n      tag_49\n      swap2\n      swap1\n      tag_50\n      jump\t// in\n    tag_49:\n      tag_51\n      jump\t// in\n    tag_48:\n      mload(0x40)\n      tag_52\n      swap2\n      swap1\n      tag_34\n      jump\t// in\n    tag_52:\n      mload(0x40)\n      dup1\n      swap2\n      sub\n      swap1\n      return\n        /* \"contracts/WeightedVoting.sol\":1109:1151  mapping(address => uint24) public balances */\n    tag_9:\n      tag_53\n      0x04\n      dup1\n      calldatasize\n      sub\n      dup2\n      add\n      swap1\n      tag_54\n      swap2\n      swap1\n      tag_55\n      jump\t// in\n    tag_54:\n      tag_56\n      jump\t// in\n    tag_53:\n      mload(0x40)\n      tag_57\n      swap2\n      swap1\n      tag_58\n      jump\t// in\n    tag_57:\n      mload(0x40)\n      dup1\n      swap2\n      sub\n      swap1\n      return\n        /* \"@openzeppelin/contracts/token/ERC20/ERC20.sol\":3002:3084  function decimals() public view virtual returns (uint8) {... */\n    tag_10:\n      tag_59\n      tag_60\n      jump\t// in\n    tag_59:\n      mload(0x40)\n      tag_61\n      swap2\n      swap1\n      tag_62\n      jump\t// in\n    tag_61:\n      mload(0x40)\n      dup1\n      swap2\n      sub\n      swap1\n      return\n        /* \"contracts/WeightedVoting.sol\":1907:2187  function claim() public {... */\n    tag_11:\n      tag_63\n      tag_64\n      jump\t// in\n    tag_63:\n      stop\n        /* \"@openzeppelin/contracts/token/ERC20/ERC20.sol\":3299:3415  function balanceOf(address account) public view virtual returns (uint256) {... */\n    tag_12:\n      tag_65\n      0x04\n      dup1\n      calldatasize\n      sub\n      dup2\n      add\n      swap1\n      tag_66\n      swap2\n      swap1\n      tag_55\n      jump\t// in\n    tag_66:\n      tag_67\n      jump\t// in\n    tag_65:\n      mload(0x40)\n      tag_68\n      swap2\n      swap1\n      tag_40\n      jump\t// in\n    tag_68:\n      mload(0x40)\n      dup1\n      swap2\n      sub\n      swap1\n      return\n        /* \"contracts/WeightedVoting.sol\":1216:1258  mapping(address => bool) public hasClaimed */\n    tag_13:\n      tag_69\n      0x04\n      dup1\n      calldatasize\n      sub\n      dup2\n      add\n      swap1\n      tag_70\n      swap2\n      swap1\n      tag_55\n      jump\t// in\n    tag_70:\n      tag_71\n      jump\t// in\n    tag_69:\n      mload(0x40)\n      tag_72\n      swap2\n      swap1\n      tag_34\n      jump\t// in\n    tag_72:\n      mload(0x40)\n      dup1\n      swap2\n      sub\n      swap1\n      return\n        /* \"contracts/WeightedVoting.sol\":995:1020  uint24 public claimAmount */\n    tag_14:\n      tag_73\n      tag_74\n      jump\t// in\n    tag_73:\n      mload(0x40)\n      tag_75\n      swap2\n      swap1\n      tag_58\n      jump\t// in\n    tag_75:\n      mload(0x40)\n      dup1\n      swap2\n      sub\n      swap1\n      return\n        /* \"contracts/WeightedVoting.sol\":1633:1653  address public owner */\n    tag_15:\n      tag_76\n      tag_77\n      jump\t// in\n    tag_76:\n      mload(0x40)\n      tag_78\n      swap2\n      swap1\n      tag_79\n      jump\t// in\n    tag_78:\n      mload(0x40)\n      dup1\n      swap2\n      sub\n      swap1\n      return\n        /* \"@openzeppelin/contracts/token/ERC20/ERC20.sol\":2276:2369  function symbol() public view virtual returns (string memory) {... */\n    tag_16:\n      tag_80\n      tag_81\n      jump\t// in\n    tag_80:\n      mload(0x40)\n      tag_82\n      swap2\n      swap1\n      tag_28\n      jump\t// in\n    tag_82:\n      mload(0x40)\n      dup1\n      swap2\n      sub\n      swap1\n      return\n        /* \"contracts/WeightedVoting.sol\":1026:1053  uint24 public claimedAmount */\n    tag_17:\n      tag_83\n      tag_84\n      jump\t// in\n    tag_83:\n      mload(0x40)\n      tag_85\n      swap2\n      swap1\n      tag_58\n      jump\t// in\n    tag_85:\n      mload(0x40)\n      dup1\n      swap2\n      sub\n      swap1\n      return\n        /* \"@openzeppelin/contracts/token/ERC20/ERC20.sol\":3610:3788  function transfer(address to, uint256 value) public virtual returns (bool) {... */\n    tag_18:\n      tag_86\n      0x04\n      dup1\n      calldatasize\n      sub\n      dup2\n      add\n      swap1\n      tag_87\n      swap2\n      swap1\n      tag_31\n      jump\t// in\n    tag_87:\n      tag_88\n      jump\t// in\n    tag_86:\n      mload(0x40)\n      tag_89\n      swap2\n      swap1\n      tag_34\n      jump\t// in\n    tag_89:\n      mload(0x40)\n      dup1\n      swap2\n      sub\n      swap1\n      return\n        /* \"contracts/WeightedVoting.sol\":966:989  uint24 public maxSupply */\n    tag_19:\n      tag_90\n      tag_91\n      jump\t// in\n    tag_90:\n      mload(0x40)\n      tag_92\n      swap2\n      swap1\n      tag_58\n      jump\t// in\n    tag_92:\n      mload(0x40)\n      dup1\n      swap2\n      sub\n      swap1\n      return\n        /* \"@openzeppelin/contracts/token/ERC20/ERC20.sol\":3846:3986  function allowance(address owner, address spender) public view virtual returns (uint256) {... */\n    tag_20:\n      tag_93\n      0x04\n      dup1\n      calldatasize\n      sub\n      dup2\n      add\n      swap1\n      tag_94\n      swap2\n      swap1\n      tag_95\n      jump\t// in\n    tag_94:\n      tag_96\n      jump\t// in\n    tag_93:\n      mload(0x40)\n      tag_97\n      swap2\n      swap1\n      tag_40\n      jump\t// in\n    tag_97:\n      mload(0x40)\n      dup1\n      swap2\n      sub\n      swap1\n      return\n        /* \"contracts/WeightedVoting.sol\":2783:3431  function getIssue(uint24 _id) external view returns (IssueView memory) {... */\n    tag_21:\n      tag_98\n      0x04\n      dup1\n      calldatasize\n      sub\n      dup2\n      add\n      swap1\n      tag_99\n      swap2\n      swap1\n      tag_100\n      jump\t// in\n    tag_99:\n      tag_101\n      jump\t// in\n    tag_98:\n      mload(0x40)\n      tag_102\n      swap2\n      swap1\n      tag_103\n      jump\t// in\n    tag_102:\n      mload(0x40)\n      dup1\n      swap2\n      sub\n      swap1\n      return\n        /* \"@openzeppelin/contracts/token/ERC20/ERC20.sol\":2074:2163  function name() public view virtual returns (string memory) {... */\n    tag_26:\n        /* \"@openzeppelin/contracts/token/ERC20/ERC20.sol\":2119:2132  string memory */\n      0x60\n        /* \"@openzeppelin/contracts/token/ERC20/ERC20.sol\":2151:2156  _name */\n      0x03\n        /* \"@openzeppelin/contracts/token/ERC20/ERC20.sol\":2144:2156  return _name */\n      dup1\n      sload\n      tag_105\n      swap1\n      tag_106\n      jump\t// in\n    tag_105:\n      dup1\n      0x1f\n      add\n      0x20\n      dup1\n      swap2\n      div\n      mul\n      0x20\n      add\n      mload(0x40)\n      swap1\n      dup2\n      add\n      0x40\n      mstore\n      dup1\n      swap3\n      swap2\n      swap1\n      dup2\n      dup2\n      mstore\n      0x20\n      add\n      dup3\n      dup1\n      sload\n      tag_107\n      swap1\n      tag_106\n      jump\t// in\n    tag_107:\n      dup1\n      iszero\n      tag_108\n      jumpi\n      dup1\n      0x1f\n      lt\n      tag_109\n      jumpi\n      0x0100\n      dup1\n      dup4\n      sload\n      div\n      mul\n      dup4\n      mstore\n      swap2\n      0x20\n      add\n      swap2\n      jump(tag_108)\n    tag_109:\n      dup3\n      add\n      swap2\n      swap1\n      0x00\n      mstore\n      keccak256(0x00, 0x20)\n      swap1\n    tag_110:\n      dup2\n      sload\n      dup2\n      mstore\n      swap1\n      0x01\n      add\n      swap1\n      0x20\n      add\n      dup1\n      dup4\n      gt\n      tag_110\n      jumpi\n      dup3\n      swap1\n      sub\n      0x1f\n      and\n      dup3\n      add\n      swap2\n    tag_108:\n      pop\n      pop\n      pop\n      pop\n      pop\n      swap1\n      pop\n        /* \"@openzeppelin/contracts/token/ERC20/ERC20.sol\":2074:2163  function name() public view virtual returns (string memory) {... */\n      swap1\n      jump\t// out\n        /* \"@openzeppelin/contracts/token/ERC20/ERC20.sol\":4293:4479  function approve(address spender, uint256 value) public virtual returns (bool) {... */\n    tag_32:\n        /* \"@openzeppelin/contracts/token/ERC20/ERC20.sol\":4366:4370  bool */\n      0x00\n        /* \"@openzeppelin/contracts/token/ERC20/ERC20.sol\":4382:4395  address owner */\n      dup1\n        /* \"@openzeppelin/contracts/token/ERC20/ERC20.sol\":4398:4410  _msgSender() */\n      tag_112\n        /* \"@openzeppelin/contracts/token/ERC20/ERC20.sol\":4398:4408  _msgSender */\n      tag_113\n        /* \"@openzeppelin/contracts/token/ERC20/ERC20.sol\":4398:4410  _msgSender() */\n      jump\t// in\n    tag_112:\n        /* \"@openzeppelin/contracts/token/ERC20/ERC20.sol\":4382:4410  address owner = _msgSender() */\n      swap1\n      pop\n        /* \"@openzeppelin/contracts/token/ERC20/ERC20.sol\":4420:4451  _approve(owner, spender, value) */\n      tag_114\n        /* \"@openzeppelin/contracts/token/ERC20/ERC20.sol\":4429:4434  owner */\n      dup2\n        /* \"@openzeppelin/contracts/token/ERC20/ERC20.sol\":4436:4443  spender */\n      dup6\n        /* \"@openzeppelin/contracts/token/ERC20/ERC20.sol\":4445:4450  value */\n      dup6\n        /* \"@openzeppelin/contracts/token/ERC20/ERC20.sol\":4420:4428  _approve */\n      tag_115\n        /* \"@openzeppelin/contracts/token/ERC20/ERC20.sol\":4420:4451  _approve(owner, spender, value) */\n      jump\t// in\n    tag_114:\n        /* \"@openzeppelin/contracts/token/ERC20/ERC20.sol\":4468:4472  true */\n      0x01\n        /* \"@openzeppelin/contracts/token/ERC20/ERC20.sol\":4461:4472  return true */\n      swap2\n      pop\n      pop\n        /* \"@openzeppelin/contracts/token/ERC20/ERC20.sol\":4293:4479  function approve(address spender, uint256 value) public virtual returns (bool) {... */\n      swap3\n      swap2\n      pop\n      pop\n      jump\t// out\n        /* \"contracts/WeightedVoting.sol\":2193:2750  function createIssue(... */\n    tag_38:\n        /* \"contracts/WeightedVoting.sol\":2296:2307  uint256 idx */\n      0x00\n        /* \"contracts/WeightedVoting.sol\":2363:2364  0 */\n      dup1\n        /* \"contracts/WeightedVoting.sol\":2340:2348  balances */\n      0x06\n        /* \"contracts/WeightedVoting.sol\":2340:2360  balances[msg.sender] */\n      0x00\n        /* \"contracts/WeightedVoting.sol\":2349:2359  msg.sender */\n      caller\n        /* \"contracts/WeightedVoting.sol\":2340:2360  balances[msg.sender] */\n      0xffffffffffffffffffffffffffffffffffffffff\n      and\n      0xffffffffffffffffffffffffffffffffffffffff\n      and\n      dup2\n      mstore\n      0x20\n      add\n      swap1\n      dup2\n      mstore\n      0x20\n      add\n      0x00\n      keccak256\n      0x00\n      swap1\n      sload\n      swap1\n      0x0100\n      exp\n      swap1\n      div\n      0xffffff\n      and\n        /* \"contracts/WeightedVoting.sol\":2340:2364  balances[msg.sender] > 0 */\n      0xffffff\n      and\n      gt\n        /* \"contracts/WeightedVoting.sol\":2319:2426  require(... */\n      tag_117\n      jumpi\n      mload(0x40)\n      0x08c379a000000000000000000000000000000000000000000000000000000000\n      dup2\n      mstore\n      0x04\n      add\n      tag_118\n      swap1\n      tag_119\n      jump\t// in\n    tag_118:\n      mload(0x40)\n      dup1\n      swap2\n      sub\n      swap1\n      revert\n    tag_117:\n        /* \"contracts/WeightedVoting.sol\":2468:2481  totalSupply() */\n      tag_120\n        /* \"contracts/WeightedVoting.sol\":2468:2479  totalSupply */\n      tag_42\n        /* \"contracts/WeightedVoting.sol\":2468:2481  totalSupply() */\n      jump\t// in\n    tag_120:\n        /* \"contracts/WeightedVoting.sol\":2457:2464  _quorum */\n      dup3\n        /* \"contracts/WeightedVoting.sol\":2457:2481  _quorum <= totalSupply() */\n      0xffffff\n      and\n      gt\n      iszero\n        /* \"contracts/WeightedVoting.sol\":2436:2563  require(... */\n      tag_121\n      jumpi\n      mload(0x40)\n      0x08c379a000000000000000000000000000000000000000000000000000000000\n      dup2\n      mstore\n      0x04\n      add\n      tag_122\n      swap1\n      tag_123\n      jump\t// in\n    tag_122:\n      mload(0x40)\n      dup1\n      swap2\n      sub\n      swap1\n      revert\n    tag_121:\n        /* \"contracts/WeightedVoting.sol\":2580:2586  issues */\n      0x09\n        /* \"contracts/WeightedVoting.sol\":2580:2593  issues.length */\n      dup1\n      sload\n      swap1\n      pop\n        /* \"contracts/WeightedVoting.sol\":2574:2593  idx = issues.length */\n      swap1\n      pop\n        /* \"contracts/WeightedVoting.sol\":2603:2609  issues */\n      0x09\n        /* \"contracts/WeightedVoting.sol\":2603:2616  issues.push() */\n      0x01\n      dup2\n      0x01\n      dup2\n      sload\n      add\n      dup1\n      dup3\n      sstore\n      dup1\n      swap2\n      pop\n      pop\n      sub\n      swap1\n      0x00\n      mstore\n      keccak256(0x00, 0x20)\n      swap1\n      pop\n      pop\n        /* \"contracts/WeightedVoting.sol\":2626:2643  Issue storage iss */\n      0x00\n        /* \"contracts/WeightedVoting.sol\":2646:2652  issues */\n      0x09\n        /* \"contracts/WeightedVoting.sol\":2653:2656  idx */\n      dup3\n        /* \"contracts/WeightedVoting.sol\":2646:2657  issues[idx] */\n      dup2\n      sload\n      dup2\n      lt\n      tag_125\n      jumpi\n      tag_126\n      tag_127\n      jump\t// in\n    tag_126:\n    tag_125:\n      swap1\n      0x00\n      mstore\n      keccak256(0x00, 0x20)\n      swap1\n      0x04\n      mul\n      add\n        /* \"contracts/WeightedVoting.sol\":2626:2657  Issue storage iss = issues[idx] */\n      swap1\n      pop\n        /* \"contracts/WeightedVoting.sol\":2683:2693  _issueDesc */\n      dup4\n        /* \"contracts/WeightedVoting.sol\":2667:2670  iss */\n      dup2\n        /* \"contracts/WeightedVoting.sol\":2667:2680  iss.issueDesc */\n      0x02\n      add\n        /* \"contracts/WeightedVoting.sol\":2667:2693  iss.issueDesc = _issueDesc */\n      swap1\n      dup2\n      tag_129\n      swap2\n      swap1\n      tag_130\n      jump\t// in\n    tag_129:\n      pop\n        /* \"contracts/WeightedVoting.sol\":2716:2723  _quorum */\n      dup3\n        /* \"contracts/WeightedVoting.sol\":2703:2706  iss */\n      dup2\n        /* \"contracts/WeightedVoting.sol\":2703:2713  iss.quorum */\n      0x03\n      add\n      0x0c\n        /* \"contracts/WeightedVoting.sol\":2703:2723  iss.quorum = _quorum */\n      0x0100\n      exp\n      dup2\n      sload\n      dup2\n      0xffffff\n      mul\n      not\n      and\n      swap1\n      dup4\n      0xffffff\n      and\n      mul\n      or\n      swap1\n      sstore\n      pop\n        /* \"contracts/WeightedVoting.sol\":2733:2743  return idx */\n      pop\n        /* \"contracts/WeightedVoting.sol\":2193:2750  function createIssue(... */\n      swap3\n      swap2\n      pop\n      pop\n      jump\t// out\n        /* \"@openzeppelin/contracts/token/ERC20/ERC20.sol\":3144:3241  function totalSupply() public view virtual returns (uint256) {... */\n    tag_42:\n        /* \"@openzeppelin/contracts/token/ERC20/ERC20.sol\":3196:3203  uint256 */\n      0x00\n        /* \"@openzeppelin/contracts/token/ERC20/ERC20.sol\":3222:3234  _totalSupply */\n      sload(0x02)\n        /* \"@openzeppelin/contracts/token/ERC20/ERC20.sol\":3215:3234  return _totalSupply */\n      swap1\n      pop\n        /* \"@openzeppelin/contracts/token/ERC20/ERC20.sol\":3144:3241  function totalSupply() public view virtual returns (uint256) {... */\n      swap1\n      jump\t// out\n        /* \"contracts/WeightedVoting.sol\":3437:4718  function vote(uint24 _issueId, Votes _vote) public {... */\n    tag_47:\n        /* \"contracts/WeightedVoting.sol\":3553:3559  issues */\n      0x09\n        /* \"contracts/WeightedVoting.sol\":3560:3568  _issueId */\n      dup3\n        /* \"contracts/WeightedVoting.sol\":3553:3569  issues[_issueId] */\n      0xffffff\n      and\n      dup2\n      sload\n      dup2\n      lt\n      tag_133\n      jumpi\n      tag_134\n      tag_127\n      jump\t// in\n    tag_134:\n    tag_133:\n      swap1\n      0x00\n      mstore\n      keccak256(0x00, 0x20)\n      swap1\n      0x04\n      mul\n      add\n        /* \"contracts/WeightedVoting.sol\":3553:3576  issues[_issueId].closed */\n      0x03\n      add\n      0x10\n      swap1\n      sload\n      swap1\n      0x0100\n      exp\n      swap1\n      div\n      0xff\n      and\n        /* \"contracts/WeightedVoting.sol\":3552:3576  !issues[_issueId].closed */\n      iszero\n        /* \"contracts/WeightedVoting.sol\":3544:3612  require(!issues[_issueId].closed, \"Voting is closed for this issue\") */\n      tag_136\n      jumpi\n      mload(0x40)\n      0x08c379a000000000000000000000000000000000000000000000000000000000\n      dup2\n      mstore\n      0x04\n      add\n      tag_137\n      swap1\n      tag_138\n      jump\t// in\n    tag_137:\n      mload(0x40)\n      dup1\n      swap2\n      sub\n      swap1\n      revert\n    tag_136:\n        /* \"contracts/WeightedVoting.sol\":3710:3754  issues[_issueId].voters.contains(msg.sender) */\n      tag_139\n        /* \"contracts/WeightedVoting.sol\":3743:3753  msg.sender */\n      caller\n        /* \"contracts/WeightedVoting.sol\":3710:3716  issues */\n      0x09\n        /* \"contracts/WeightedVoting.sol\":3717:3725  _issueId */\n      dup5\n        /* \"contracts/WeightedVoting.sol\":3710:3726  issues[_issueId] */\n      0xffffff\n      and\n      dup2\n      sload\n      dup2\n      lt\n      tag_140\n      jumpi\n      tag_141\n      tag_127\n      jump\t// in\n    tag_141:\n    tag_140:\n      swap1\n      0x00\n      mstore\n      keccak256(0x00, 0x20)\n      swap1\n      0x04\n      mul\n      add\n        /* \"contracts/WeightedVoting.sol\":3710:3733  issues[_issueId].voters */\n      0x00\n      add\n        /* \"contracts/WeightedVoting.sol\":3710:3742  issues[_issueId].voters.contains */\n      tag_143\n      swap1\n        /* \"contracts/WeightedVoting.sol\":3710:3754  issues[_issueId].voters.contains(msg.sender) */\n      swap2\n      swap1\n      0xffffffff\n      and\n      jump\t// in\n    tag_139:\n        /* \"contracts/WeightedVoting.sol\":3709:3754  !issues[_issueId].voters.contains(msg.sender) */\n      iszero\n        /* \"contracts/WeightedVoting.sol\":3688:3807  require(... */\n      tag_144\n      jumpi\n      mload(0x40)\n      0x08c379a000000000000000000000000000000000000000000000000000000000\n      dup2\n      mstore\n      0x04\n      add\n      tag_145\n      swap1\n      tag_146\n      jump\t// in\n    tag_145:\n      mload(0x40)\n      dup1\n      swap2\n      sub\n      swap1\n      revert\n    tag_144:\n        /* \"contracts/WeightedVoting.sol\":3854:3873  Issue storage issue */\n      0x00\n        /* \"contracts/WeightedVoting.sol\":3876:3882  issues */\n      0x09\n        /* \"contracts/WeightedVoting.sol\":3883:3891  _issueId */\n      dup4\n        /* \"contracts/WeightedVoting.sol\":3876:3892  issues[_issueId] */\n      0xffffff\n      and\n      dup2\n      sload\n      dup2\n      lt\n      tag_147\n      jumpi\n      tag_148\n      tag_127\n      jump\t// in\n    tag_148:\n    tag_147:\n      swap1\n      0x00\n      mstore\n      keccak256(0x00, 0x20)\n      swap1\n      0x04\n      mul\n      add\n        /* \"contracts/WeightedVoting.sol\":3854:3892  Issue storage issue = issues[_issueId] */\n      swap1\n      pop\n        /* \"contracts/WeightedVoting.sol\":3902:3921  uint24 voterBalance */\n      0x00\n        /* \"contracts/WeightedVoting.sol\":3924:3932  balances */\n      0x06\n        /* \"contracts/WeightedVoting.sol\":3924:3944  balances[msg.sender] */\n      0x00\n        /* \"contracts/WeightedVoting.sol\":3933:3943  msg.sender */\n      caller\n        /* \"contracts/WeightedVoting.sol\":3924:3944  balances[msg.sender] */\n      0xffffffffffffffffffffffffffffffffffffffff\n      and\n      0xffffffffffffffffffffffffffffffffffffffff\n      and\n      dup2\n      mstore\n      0x20\n      add\n      swap1\n      dup2\n      mstore\n      0x20\n      add\n      0x00\n      keccak256\n      0x00\n      swap1\n      sload\n      swap1\n      0x0100\n      exp\n      swap1\n      div\n      0xffffff\n      and\n        /* \"contracts/WeightedVoting.sol\":3902:3944  uint24 voterBalance = balances[msg.sender] */\n      swap1\n      pop\n        /* \"contracts/WeightedVoting.sol\":3968:3977  Votes.FOR */\n      0x01\n        /* \"contracts/WeightedVoting.sol\":3959:3977  _vote == Votes.FOR */\n      0x02\n      dup2\n      gt\n      iszero\n      tag_150\n      jumpi\n      tag_151\n      tag_152\n      jump\t// in\n    tag_151:\n    tag_150:\n        /* \"contracts/WeightedVoting.sol\":3959:3964  _vote */\n      dup4\n        /* \"contracts/WeightedVoting.sol\":3959:3977  _vote == Votes.FOR */\n      0x02\n      dup2\n      gt\n      iszero\n      tag_153\n      jumpi\n      tag_154\n      tag_152\n      jump\t// in\n    tag_154:\n    tag_153:\n      sub\n        /* \"contracts/WeightedVoting.sol\":3955:4280  if (_vote == Votes.FOR) {... */\n      tag_155\n      jumpi\n        /* \"contracts/WeightedVoting.sol\":4011:4023  voterBalance */\n      dup1\n        /* \"contracts/WeightedVoting.sol\":3993:3998  issue */\n      dup3\n        /* \"contracts/WeightedVoting.sol\":3993:4007  issue.votesFor */\n      0x03\n      add\n      0x00\n        /* \"contracts/WeightedVoting.sol\":3993:4023  issue.votesFor += voterBalance */\n      dup3\n      dup3\n      dup3\n      swap1\n      sload\n      swap1\n      0x0100\n      exp\n      swap1\n      div\n      0xffffff\n      and\n      tag_156\n      swap2\n      swap1\n      tag_157\n      jump\t// in\n    tag_156:\n      swap3\n      pop\n      0x0100\n      exp\n      dup2\n      sload\n      dup2\n      0xffffff\n      mul\n      not\n      and\n      swap1\n      dup4\n      0xffffff\n      and\n      mul\n      or\n      swap1\n      sstore\n      pop\n        /* \"contracts/WeightedVoting.sol\":3955:4280  if (_vote == Votes.FOR) {... */\n      jump(tag_158)\n    tag_155:\n        /* \"contracts/WeightedVoting.sol\":4053:4066  Votes.AGAINST */\n      0x00\n        /* \"contracts/WeightedVoting.sol\":4044:4066  _vote == Votes.AGAINST */\n      0x02\n      dup2\n      gt\n      iszero\n      tag_159\n      jumpi\n      tag_160\n      tag_152\n      jump\t// in\n    tag_160:\n    tag_159:\n        /* \"contracts/WeightedVoting.sol\":4044:4049  _vote */\n      dup4\n        /* \"contracts/WeightedVoting.sol\":4044:4066  _vote == Votes.AGAINST */\n      0x02\n      dup2\n      gt\n      iszero\n      tag_161\n      jumpi\n      tag_162\n      tag_152\n      jump\t// in\n    tag_162:\n    tag_161:\n      sub\n        /* \"contracts/WeightedVoting.sol\":4040:4280  if (_vote == Votes.AGAINST) {... */\n      tag_163\n      jumpi\n        /* \"contracts/WeightedVoting.sol\":4104:4116  voterBalance */\n      dup1\n        /* \"contracts/WeightedVoting.sol\":4082:4087  issue */\n      dup3\n        /* \"contracts/WeightedVoting.sol\":4082:4100  issue.votesAgainst */\n      0x03\n      add\n      0x03\n        /* \"contracts/WeightedVoting.sol\":4082:4116  issue.votesAgainst += voterBalance */\n      dup3\n      dup3\n      dup3\n      swap1\n      sload\n      swap1\n      0x0100\n      exp\n      swap1\n      div\n      0xffffff\n      and\n      tag_164\n      swap2\n      swap1\n      tag_157\n      jump\t// in\n    tag_164:\n      swap3\n      pop\n      0x0100\n      exp\n      dup2\n      sload\n      dup2\n      0xffffff\n      mul\n      not\n      and\n      swap1\n      dup4\n      0xffffff\n      and\n      mul\n      or\n      swap1\n      sstore\n      pop\n        /* \"contracts/WeightedVoting.sol\":4040:4280  if (_vote == Votes.AGAINST) {... */\n      jump(tag_165)\n    tag_163:\n        /* \"contracts/WeightedVoting.sol\":4146:4159  Votes.ABSTAIN */\n      0x02\n        /* \"contracts/WeightedVoting.sol\":4137:4159  _vote == Votes.ABSTAIN */\n      dup1\n      dup2\n      gt\n      iszero\n      tag_166\n      jumpi\n      tag_167\n      tag_152\n      jump\t// in\n    tag_167:\n    tag_166:\n        /* \"contracts/WeightedVoting.sol\":4137:4142  _vote */\n      dup4\n        /* \"contracts/WeightedVoting.sol\":4137:4159  _vote == Votes.ABSTAIN */\n      0x02\n      dup2\n      gt\n      iszero\n      tag_168\n      jumpi\n      tag_169\n      tag_152\n      jump\t// in\n    tag_169:\n    tag_168:\n      sub\n        /* \"contracts/WeightedVoting.sol\":4133:4280  if (_vote == Votes.ABSTAIN) {... */\n      tag_170\n      jumpi\n        /* \"contracts/WeightedVoting.sol\":4197:4209  voterBalance */\n      dup1\n        /* \"contracts/WeightedVoting.sol\":4175:4180  issue */\n      dup3\n        /* \"contracts/WeightedVoting.sol\":4175:4193  issue.votesAbstain */\n      0x03\n      add\n      0x06\n        /* \"contracts/WeightedVoting.sol\":4175:4209  issue.votesAbstain += voterBalance */\n      dup3\n      dup3\n      dup3\n      swap1\n      sload\n      swap1\n      0x0100\n      exp\n      swap1\n      div\n      0xffffff\n      and\n      tag_171\n      swap2\n      swap1\n      tag_157\n      jump\t// in\n    tag_171:\n      swap3\n      pop\n      0x0100\n      exp\n      dup2\n      sload\n      dup2\n      0xffffff\n      mul\n      not\n      and\n      swap1\n      dup4\n      0xffffff\n      and\n      mul\n      or\n      swap1\n      sstore\n      pop\n        /* \"contracts/WeightedVoting.sol\":4133:4280  if (_vote == Votes.ABSTAIN) {... */\n      jump(tag_172)\n    tag_170:\n        /* \"contracts/WeightedVoting.sol\":4240:4269  revert(\"Invalid vote option\") */\n      mload(0x40)\n      0x08c379a000000000000000000000000000000000000000000000000000000000\n      dup2\n      mstore\n      0x04\n      add\n      tag_173\n      swap1\n      tag_174\n      jump\t// in\n    tag_173:\n      mload(0x40)\n      dup1\n      swap2\n      sub\n      swap1\n      revert\n        /* \"contracts/WeightedVoting.sol\":4133:4280  if (_vote == Votes.ABSTAIN) {... */\n    tag_172:\n        /* \"contracts/WeightedVoting.sol\":4040:4280  if (_vote == Votes.AGAINST) {... */\n    tag_165:\n        /* \"contracts/WeightedVoting.sol\":3955:4280  if (_vote == Votes.FOR) {... */\n    tag_158:\n        /* \"contracts/WeightedVoting.sol\":4360:4372  voterBalance */\n      dup1\n        /* \"contracts/WeightedVoting.sol\":4340:4345  issue */\n      dup3\n        /* \"contracts/WeightedVoting.sol\":4340:4356  issue.totalVotes */\n      0x03\n      add\n      0x09\n        /* \"contracts/WeightedVoting.sol\":4340:4372  issue.totalVotes += voterBalance */\n      dup3\n      dup3\n      dup3\n      swap1\n      sload\n      swap1\n      0x0100\n      exp\n      swap1\n      div\n      0xffffff\n      and\n      tag_175\n      swap2\n      swap1\n      tag_157\n      jump\t// in\n    tag_175:\n      swap3\n      pop\n      0x0100\n      exp\n      dup2\n      sload\n      dup2\n      0xffffff\n      mul\n      not\n      and\n      swap1\n      dup4\n      0xffffff\n      and\n      mul\n      or\n      swap1\n      sstore\n      pop\n        /* \"contracts/WeightedVoting.sol\":4382:4410  issue.voters.add(msg.sender) */\n      tag_176\n        /* \"contracts/WeightedVoting.sol\":4399:4409  msg.sender */\n      caller\n        /* \"contracts/WeightedVoting.sol\":4382:4387  issue */\n      dup4\n        /* \"contracts/WeightedVoting.sol\":4382:4394  issue.voters */\n      0x00\n      add\n        /* \"contracts/WeightedVoting.sol\":4382:4398  issue.voters.add */\n      tag_177\n      swap1\n        /* \"contracts/WeightedVoting.sol\":4382:4410  issue.voters.add(msg.sender) */\n      swap2\n      swap1\n      0xffffffff\n      and\n      jump\t// in\n    tag_176:\n      pop\n        /* \"contracts/WeightedVoting.sol\":4486:4491  issue */\n      dup2\n        /* \"contracts/WeightedVoting.sol\":4486:4498  issue.quorum */\n      0x03\n      add\n      0x0c\n      swap1\n      sload\n      swap1\n      0x0100\n      exp\n      swap1\n      div\n      0xffffff\n      and\n        /* \"contracts/WeightedVoting.sol\":4466:4498  issue.totalVotes >= issue.quorum */\n      0xffffff\n      and\n        /* \"contracts/WeightedVoting.sol\":4466:4471  issue */\n      dup3\n        /* \"contracts/WeightedVoting.sol\":4466:4482  issue.totalVotes */\n      0x03\n      add\n      0x09\n      swap1\n      sload\n      swap1\n      0x0100\n      exp\n      swap1\n      div\n      0xffffff\n      and\n        /* \"contracts/WeightedVoting.sol\":4466:4498  issue.totalVotes >= issue.quorum */\n      0xffffff\n      and\n      lt\n        /* \"contracts/WeightedVoting.sol\":4462:4712  if (issue.totalVotes >= issue.quorum) {... */\n      tag_178\n      jumpi\n        /* \"contracts/WeightedVoting.sol\":4529:4533  true */\n      0x01\n        /* \"contracts/WeightedVoting.sol\":4514:4519  issue */\n      dup3\n        /* \"contracts/WeightedVoting.sol\":4514:4526  issue.closed */\n      0x03\n      add\n      0x10\n        /* \"contracts/WeightedVoting.sol\":4514:4533  issue.closed = true */\n      0x0100\n      exp\n      dup2\n      sload\n      dup2\n      0xff\n      mul\n      not\n      and\n      swap1\n      dup4\n      iszero\n      iszero\n      mul\n      or\n      swap1\n      sstore\n      pop\n        /* \"contracts/WeightedVoting.sol\":4630:4635  issue */\n      dup2\n        /* \"contracts/WeightedVoting.sol\":4630:4648  issue.votesAgainst */\n      0x03\n      add\n      0x03\n      swap1\n      sload\n      swap1\n      0x0100\n      exp\n      swap1\n      div\n      0xffffff\n      and\n        /* \"contracts/WeightedVoting.sol\":4613:4648  issue.votesFor > issue.votesAgainst */\n      0xffffff\n      and\n        /* \"contracts/WeightedVoting.sol\":4613:4618  issue */\n      dup3\n        /* \"contracts/WeightedVoting.sol\":4613:4627  issue.votesFor */\n      0x03\n      add\n      0x00\n      swap1\n      sload\n      swap1\n      0x0100\n      exp\n      swap1\n      div\n      0xffffff\n      and\n        /* \"contracts/WeightedVoting.sol\":4613:4648  issue.votesFor > issue.votesAgainst */\n      0xffffff\n      and\n      gt\n        /* \"contracts/WeightedVoting.sol\":4609:4702  if (issue.votesFor > issue.votesAgainst) {... */\n      iszero\n      tag_179\n      jumpi\n        /* \"contracts/WeightedVoting.sol\":4683:4687  true */\n      0x01\n        /* \"contracts/WeightedVoting.sol\":4668:4673  issue */\n      dup3\n        /* \"contracts/WeightedVoting.sol\":4668:4680  issue.passed */\n      0x03\n      add\n      0x0f\n        /* \"contracts/WeightedVoting.sol\":4668:4687  issue.passed = true */\n      0x0100\n      exp\n      dup2\n      sload\n      dup2\n      0xff\n      mul\n      not\n      and\n      swap1\n      dup4\n      iszero\n      iszero\n      mul\n      or\n      swap1\n      sstore\n      pop\n        /* \"contracts/WeightedVoting.sol\":4609:4702  if (issue.votesFor > issue.votesAgainst) {... */\n    tag_179:\n        /* \"contracts/WeightedVoting.sol\":4462:4712  if (issue.totalVotes >= issue.quorum) {... */\n    tag_178:\n        /* \"contracts/WeightedVoting.sol\":3488:4718  {... */\n      pop\n      pop\n        /* \"contracts/WeightedVoting.sol\":3437:4718  function vote(uint24 _issueId, Votes _vote) public {... */\n      pop\n      pop\n      jump\t// out\n        /* \"@openzeppelin/contracts/token/ERC20/ERC20.sol\":5039:5283  function transferFrom(address from, address to, uint256 value) public virtual returns (bool) {... */\n    tag_51:\n        /* \"@openzeppelin/contracts/token/ERC20/ERC20.sol\":5126:5130  bool */\n      0x00\n        /* \"@openzeppelin/contracts/token/ERC20/ERC20.sol\":5142:5157  address spender */\n      dup1\n        /* \"@openzeppelin/contracts/token/ERC20/ERC20.sol\":5160:5172  _msgSender() */\n      tag_181\n        /* \"@openzeppelin/contracts/token/ERC20/ERC20.sol\":5160:5170  _msgSender */\n      tag_113\n        /* \"@openzeppelin/contracts/token/ERC20/ERC20.sol\":5160:5172  _msgSender() */\n      jump\t// in\n    tag_181:\n        /* \"@openzeppelin/contracts/token/ERC20/ERC20.sol\":5142:5172  address spender = _msgSender() */\n      swap1\n      pop\n        /* \"@openzeppelin/contracts/token/ERC20/ERC20.sol\":5182:5219  _spendAllowance(from, spender, value) */\n      tag_182\n        /* \"@openzeppelin/contracts/token/ERC20/ERC20.sol\":5198:5202  from */\n      dup6\n        /* \"@openzeppelin/contracts/token/ERC20/ERC20.sol\":5204:5211  spender */\n      dup3\n        /* \"@openzeppelin/contracts/token/ERC20/ERC20.sol\":5213:5218  value */\n      dup6\n        /* \"@openzeppelin/contracts/token/ERC20/ERC20.sol\":5182:5197  _spendAllowance */\n      tag_183\n        /* \"@openzeppelin/contracts/token/ERC20/ERC20.sol\":5182:5219  _spendAllowance(from, spender, value) */\n      jump\t// in\n    tag_182:\n        /* \"@openzeppelin/contracts/token/ERC20/ERC20.sol\":5229:5255  _transfer(from, to, value) */\n      tag_184\n        /* \"@openzeppelin/contracts/token/ERC20/ERC20.sol\":5239:5243  from */\n      dup6\n        /* \"@openzeppelin/contracts/token/ERC20/ERC20.sol\":5245:5247  to */\n      dup6\n        /* \"@openzeppelin/contracts/token/ERC20/ERC20.sol\":5249:5254  value */\n      dup6\n        /* \"@openzeppelin/contracts/token/ERC20/ERC20.sol\":5229:5238  _transfer */\n      tag_185\n        /* \"@openzeppelin/contracts/token/ERC20/ERC20.sol\":5229:5255  _transfer(from, to, value) */\n      jump\t// in\n    tag_184:\n        /* \"@openzeppelin/contracts/token/ERC20/ERC20.sol\":5272:5276  true */\n      0x01\n        /* \"@openzeppelin/contracts/token/ERC20/ERC20.sol\":5265:5276  return true */\n      swap2\n      pop\n      pop\n        /* \"@openzeppelin/contracts/token/ERC20/ERC20.sol\":5039:5283  function transferFrom(address from, address to, uint256 value) public virtual returns (bool) {... */\n      swap4\n      swap3\n      pop\n      pop\n      pop\n      jump\t// out\n        /* \"contracts/WeightedVoting.sol\":1109:1151  mapping(address => uint24) public balances */\n    tag_56:\n      mstore(0x20, 0x06)\n      dup1\n      0x00\n      mstore\n      keccak256(0x00, 0x40)\n      0x00\n      swap2\n      pop\n      sload\n      swap1\n      0x0100\n      exp\n      swap1\n      div\n      0xffffff\n      and\n      dup2\n      jump\t// out\n        /* \"@openzeppelin/contracts/token/ERC20/ERC20.sol\":3002:3084  function decimals() public view virtual returns (uint8) {... */\n    tag_60:\n        /* \"@openzeppelin/contracts/token/ERC20/ERC20.sol\":3051:3056  uint8 */\n      0x00\n        /* \"@openzeppelin/contracts/token/ERC20/ERC20.sol\":3075:3077  18 */\n      0x12\n        /* \"@openzeppelin/contracts/token/ERC20/ERC20.sol\":3068:3077  return 18 */\n      swap1\n      pop\n        /* \"@openzeppelin/contracts/token/ERC20/ERC20.sol\":3002:3084  function decimals() public view virtual returns (uint8) {... */\n      swap1\n      jump\t// out\n        /* \"contracts/WeightedVoting.sol\":1907:2187  function claim() public {... */\n    tag_64:\n        /* \"contracts/WeightedVoting.sol\":1961:1970  maxSupply */\n      0x05\n      0x00\n      swap1\n      sload\n      swap1\n      0x0100\n      exp\n      swap1\n      div\n      0xffffff\n      and\n        /* \"contracts/WeightedVoting.sol\":1945:1970  claimedAmount > maxSupply */\n      0xffffff\n      and\n        /* \"contracts/WeightedVoting.sol\":1945:1958  claimedAmount */\n      0x05\n      0x06\n      swap1\n      sload\n      swap1\n      0x0100\n      exp\n      swap1\n      div\n      0xffffff\n      and\n        /* \"contracts/WeightedVoting.sol\":1945:1970  claimedAmount > maxSupply */\n      0xffffff\n      and\n      gt\n        /* \"contracts/WeightedVoting.sol\":1941:1997  if (claimedAmount > maxSupply) revert AllTokensClaimed() */\n      iszero\n      tag_188\n      jumpi\n        /* \"contracts/WeightedVoting.sol\":1979:1997  AllTokensClaimed() */\n      mload(0x40)\n      0xcbe2483100000000000000000000000000000000000000000000000000000000\n      dup2\n      mstore\n      0x04\n      add\n      mload(0x40)\n      dup1\n      swap2\n      sub\n      swap1\n      revert\n        /* \"contracts/WeightedVoting.sol\":1941:1997  if (claimedAmount > maxSupply) revert AllTokensClaimed() */\n    tag_188:\n        /* \"contracts/WeightedVoting.sol\":2011:2021  hasClaimed */\n      0x07\n        /* \"contracts/WeightedVoting.sol\":2011:2033  hasClaimed[msg.sender] */\n      0x00\n        /* \"contracts/WeightedVoting.sol\":2022:2032  msg.sender */\n      caller\n        /* \"contracts/WeightedVoting.sol\":2011:2033  hasClaimed[msg.sender] */\n      0xffffffffffffffffffffffffffffffffffffffff\n      and\n      0xffffffffffffffffffffffffffffffffffffffff\n      and\n      dup2\n      mstore\n      0x20\n      add\n      swap1\n      dup2\n      mstore\n      0x20\n      add\n      0x00\n      keccak256\n      0x00\n      swap1\n      sload\n      swap1\n      0x0100\n      exp\n      swap1\n      div\n      0xff\n      and\n        /* \"contracts/WeightedVoting.sol\":2007:2057  if (hasClaimed[msg.sender]) revert TokensClaimed() */\n      iszero\n      tag_189\n      jumpi\n        /* \"contracts/WeightedVoting.sol\":2042:2057  TokensClaimed() */\n      mload(0x40)\n      0x0b1327a600000000000000000000000000000000000000000000000000000000\n      dup2\n      mstore\n      0x04\n      add\n      mload(0x40)\n      dup1\n      swap2\n      sub\n      swap1\n      revert\n        /* \"contracts/WeightedVoting.sol\":2007:2057  if (hasClaimed[msg.sender]) revert TokensClaimed() */\n    tag_189:\n        /* \"contracts/WeightedVoting.sol\":2092:2103  claimAmount */\n      0x05\n      0x03\n      swap1\n      sload\n      swap1\n      0x0100\n      exp\n      swap1\n      div\n      0xffffff\n      and\n        /* \"contracts/WeightedVoting.sol\":2068:2076  balances */\n      0x06\n        /* \"contracts/WeightedVoting.sol\":2068:2088  balances[msg.sender] */\n      0x00\n        /* \"contracts/WeightedVoting.sol\":2077:2087  msg.sender */\n      caller\n        /* \"contracts/WeightedVoting.sol\":2068:2088  balances[msg.sender] */\n      0xffffffffffffffffffffffffffffffffffffffff\n      and\n      0xffffffffffffffffffffffffffffffffffffffff\n      and\n      dup2\n      mstore\n      0x20\n      add\n      swap1\n      dup2\n      mstore\n      0x20\n      add\n      0x00\n      keccak256\n      0x00\n        /* \"contracts/WeightedVoting.sol\":2068:2103  balances[msg.sender] += claimAmount */\n      dup3\n      dup3\n      dup3\n      swap1\n      sload\n      swap1\n      0x0100\n      exp\n      swap1\n      div\n      0xffffff\n      and\n      tag_190\n      swap2\n      swap1\n      tag_157\n      jump\t// in\n    tag_190:\n      swap3\n      pop\n      0x0100\n      exp\n      dup2\n      sload\n      dup2\n      0xffffff\n      mul\n      not\n      and\n      swap1\n      dup4\n      0xffffff\n      and\n      mul\n      or\n      swap1\n      sstore\n      pop\n        /* \"contracts/WeightedVoting.sol\":2130:2141  claimAmount */\n      0x05\n      0x03\n      swap1\n      sload\n      swap1\n      0x0100\n      exp\n      swap1\n      div\n      0xffffff\n      and\n        /* \"contracts/WeightedVoting.sol\":2113:2126  claimedAmount */\n      0x05\n      0x06\n        /* \"contracts/WeightedVoting.sol\":2113:2141  claimedAmount += claimAmount */\n      dup3\n      dup3\n      dup3\n      swap1\n      sload\n      swap1\n      0x0100\n      exp\n      swap1\n      div\n      0xffffff\n      and\n      tag_191\n      swap2\n      swap1\n      tag_157\n      jump\t// in\n    tag_191:\n      swap3\n      pop\n      0x0100\n      exp\n      dup2\n      sload\n      dup2\n      0xffffff\n      mul\n      not\n      and\n      swap1\n      dup4\n      0xffffff\n      and\n      mul\n      or\n      swap1\n      sstore\n      pop\n        /* \"contracts/WeightedVoting.sol\":2176:2180  true */\n      0x01\n        /* \"contracts/WeightedVoting.sol\":2151:2161  hasClaimed */\n      0x07\n        /* \"contracts/WeightedVoting.sol\":2151:2173  hasClaimed[msg.sender] */\n      0x00\n        /* \"contracts/WeightedVoting.sol\":2162:2172  msg.sender */\n      caller\n        /* \"contracts/WeightedVoting.sol\":2151:2173  hasClaimed[msg.sender] */\n      0xffffffffffffffffffffffffffffffffffffffff\n      and\n      0xffffffffffffffffffffffffffffffffffffffff\n      and\n      dup2\n      mstore\n      0x20\n      add\n      swap1\n      dup2\n      mstore\n      0x20\n      add\n      0x00\n      keccak256\n      0x00\n        /* \"contracts/WeightedVoting.sol\":2151:2180  hasClaimed[msg.sender] = true */\n      0x0100\n      exp\n      dup2\n      sload\n      dup2\n      0xff\n      mul\n      not\n      and\n      swap1\n      dup4\n      iszero\n      iszero\n      mul\n      or\n      swap1\n      sstore\n      pop\n        /* \"contracts/WeightedVoting.sol\":1907:2187  function claim() public {... */\n      jump\t// out\n        /* \"@openzeppelin/contracts/token/ERC20/ERC20.sol\":3299:3415  function balanceOf(address account) public view virtual returns (uint256) {... */\n    tag_67:\n        /* \"@openzeppelin/contracts/token/ERC20/ERC20.sol\":3364:3371  uint256 */\n      0x00\n        /* \"@openzeppelin/contracts/token/ERC20/ERC20.sol\":3390:3399  _balances */\n      dup1\n        /* \"@openzeppelin/contracts/token/ERC20/ERC20.sol\":3390:3408  _balances[account] */\n      0x00\n        /* \"@openzeppelin/contracts/token/ERC20/ERC20.sol\":3400:3407  account */\n      dup4\n        /* \"@openzeppelin/contracts/token/ERC20/ERC20.sol\":3390:3408  _balances[account] */\n      0xffffffffffffffffffffffffffffffffffffffff\n      and\n      0xffffffffffffffffffffffffffffffffffffffff\n      and\n      dup2\n      mstore\n      0x20\n      add\n      swap1\n      dup2\n      mstore\n      0x20\n      add\n      0x00\n      keccak256\n      sload\n        /* \"@openzeppelin/contracts/token/ERC20/ERC20.sol\":3383:3408  return _balances[account] */\n      swap1\n      pop\n        /* \"@openzeppelin/contracts/token/ERC20/ERC20.sol\":3299:3415  function balanceOf(address account) public view virtual returns (uint256) {... */\n      swap2\n      swap1\n      pop\n      jump\t// out\n        /* \"contracts/WeightedVoting.sol\":1216:1258  mapping(address => bool) public hasClaimed */\n    tag_71:\n      mstore(0x20, 0x07)\n      dup1\n      0x00\n      mstore\n      keccak256(0x00, 0x40)\n      0x00\n      swap2\n      pop\n      sload\n      swap1\n      0x0100\n      exp\n      swap1\n      div\n      0xff\n      and\n      dup2\n      jump\t// out\n        /* \"contracts/WeightedVoting.sol\":995:1020  uint24 public claimAmount */\n    tag_74:\n      0x05\n      0x03\n      swap1\n      sload\n      swap1\n      0x0100\n      exp\n      swap1\n      div\n      0xffffff\n      and\n      dup2\n      jump\t// out\n        /* \"contracts/WeightedVoting.sol\":1633:1653  address public owner */\n    tag_77:\n      0x08\n      0x00\n      swap1\n      sload\n      swap1\n      0x0100\n      exp\n      swap1\n      div\n      0xffffffffffffffffffffffffffffffffffffffff\n      and\n      dup2\n      jump\t// out\n        /* \"@openzeppelin/contracts/token/ERC20/ERC20.sol\":2276:2369  function symbol() public view virtual returns (string memory) {... */\n    tag_81:\n        /* \"@openzeppelin/contracts/token/ERC20/ERC20.sol\":2323:2336  string memory */\n      0x60\n        /* \"@openzeppelin/contracts/token/ERC20/ERC20.sol\":2355:2362  _symbol */\n      0x04\n        /* \"@openzeppelin/contracts/token/ERC20/ERC20.sol\":2348:2362  return _symbol */\n      dup1\n      sload\n      tag_194\n      swap1\n      tag_106\n      jump\t// in\n    tag_194:\n      dup1\n      0x1f\n      add\n      0x20\n      dup1\n      swap2\n      div\n      mul\n      0x20\n      add\n      mload(0x40)\n      swap1\n      dup2\n      add\n      0x40\n      mstore\n      dup1\n      swap3\n      swap2\n      swap1\n      dup2\n      dup2\n      mstore\n      0x20\n      add\n      dup3\n      dup1\n      sload\n      tag_195\n      swap1\n      tag_106\n      jump\t// in\n    tag_195:\n      dup1\n      iszero\n      tag_196\n      jumpi\n      dup1\n      0x1f\n      lt\n      tag_197\n      jumpi\n      0x0100\n      dup1\n      dup4\n      sload\n      div\n      mul\n      dup4\n      mstore\n      swap2\n      0x20\n      add\n      swap2\n      jump(tag_196)\n    tag_197:\n      dup3\n      add\n      swap2\n      swap1\n      0x00\n      mstore\n      keccak256(0x00, 0x20)\n      swap1\n    tag_198:\n      dup2\n      sload\n      dup2\n      mstore\n      swap1\n      0x01\n      add\n      swap1\n      0x20\n      add\n      dup1\n      dup4\n      gt\n      tag_198\n      jumpi\n      dup3\n      swap1\n      sub\n      0x1f\n      and\n      dup3\n      add\n      swap2\n    tag_196:\n      pop\n      pop\n      pop\n      pop\n      pop\n      swap1\n      pop\n        /* \"@openzeppelin/contracts/token/ERC20/ERC20.sol\":2276:2369  function symbol() public view virtual returns (string memory) {... */\n      swap1\n      jump\t// out\n        /* \"contracts/WeightedVoting.sol\":1026:1053  uint24 public claimedAmount */\n    tag_84:\n      0x05\n      0x06\n      swap1\n      sload\n      swap1\n      0x0100\n      exp\n      swap1\n      div\n      0xffffff\n      and\n      dup2\n      jump\t// out\n        /* \"@openzeppelin/contracts/token/ERC20/ERC20.sol\":3610:3788  function transfer(address to, uint256 value) public virtual returns (bool) {... */\n    tag_88:\n        /* \"@openzeppelin/contracts/token/ERC20/ERC20.sol\":3679:3683  bool */\n      0x00\n        /* \"@openzeppelin/contracts/token/ERC20/ERC20.sol\":3695:3708  address owner */\n      dup1\n        /* \"@openzeppelin/contracts/token/ERC20/ERC20.sol\":3711:3723  _msgSender() */\n      tag_200\n        /* \"@openzeppelin/contracts/token/ERC20/ERC20.sol\":3711:3721  _msgSender */\n      tag_113\n        /* \"@openzeppelin/contracts/token/ERC20/ERC20.sol\":3711:3723  _msgSender() */\n      jump\t// in\n    tag_200:\n        /* \"@openzeppelin/contracts/token/ERC20/ERC20.sol\":3695:3723  address owner = _msgSender() */\n      swap1\n      pop\n        /* \"@openzeppelin/contracts/token/ERC20/ERC20.sol\":3733:3760  _transfer(owner, to, value) */\n      tag_201\n        /* \"@openzeppelin/contracts/token/ERC20/ERC20.sol\":3743:3748  owner */\n      dup2\n        /* \"@openzeppelin/contracts/token/ERC20/ERC20.sol\":3750:3752  to */\n      dup6\n        /* \"@openzeppelin/contracts/token/ERC20/ERC20.sol\":3754:3759  value */\n      dup6\n        /* \"@openzeppelin/contracts/token/ERC20/ERC20.sol\":3733:3742  _transfer */\n      tag_185\n        /* \"@openzeppelin/contracts/token/ERC20/ERC20.sol\":3733:3760  _transfer(owner, to, value) */\n      jump\t// in\n    tag_201:\n        /* \"@openzeppelin/contracts/token/ERC20/ERC20.sol\":3777:3781  true */\n      0x01\n        /* \"@openzeppelin/contracts/token/ERC20/ERC20.sol\":3770:3781  return true */\n      swap2\n      pop\n      pop\n        /* \"@openzeppelin/contracts/token/ERC20/ERC20.sol\":3610:3788  function transfer(address to, uint256 value) public virtual returns (bool) {... */\n      swap3\n      swap2\n      pop\n      pop\n      jump\t// out\n        /* \"contracts/WeightedVoting.sol\":966:989  uint24 public maxSupply */\n    tag_91:\n      0x05\n      0x00\n      swap1\n      sload\n      swap1\n      0x0100\n      exp\n      swap1\n      div\n      0xffffff\n      and\n      dup2\n      jump\t// out\n        /* \"@openzeppelin/contracts/token/ERC20/ERC20.sol\":3846:3986  function allowance(address owner, address spender) public view virtual returns (uint256) {... */\n    tag_96:\n        /* \"@openzeppelin/contracts/token/ERC20/ERC20.sol\":3926:3933  uint256 */\n      0x00\n        /* \"@openzeppelin/contracts/token/ERC20/ERC20.sol\":3952:3963  _allowances */\n      0x01\n        /* \"@openzeppelin/contracts/token/ERC20/ERC20.sol\":3952:3970  _allowances[owner] */\n      0x00\n        /* \"@openzeppelin/contracts/token/ERC20/ERC20.sol\":3964:3969  owner */\n      dup5\n        /* \"@openzeppelin/contracts/token/ERC20/ERC20.sol\":3952:3970  _allowances[owner] */\n      0xffffffffffffffffffffffffffffffffffffffff\n      and\n      0xffffffffffffffffffffffffffffffffffffffff\n      and\n      dup2\n      mstore\n      0x20\n      add\n      swap1\n      dup2\n      mstore\n      0x20\n      add\n      0x00\n      keccak256\n        /* \"@openzeppelin/contracts/token/ERC20/ERC20.sol\":3952:3979  _allowances[owner][spender] */\n      0x00\n        /* \"@openzeppelin/contracts/token/ERC20/ERC20.sol\":3971:3978  spender */\n      dup4\n        /* \"@openzeppelin/contracts/token/ERC20/ERC20.sol\":3952:3979  _allowances[owner][spender] */\n      0xffffffffffffffffffffffffffffffffffffffff\n      and\n      0xffffffffffffffffffffffffffffffffffffffff\n      and\n      dup2\n      mstore\n      0x20\n      add\n      swap1\n      dup2\n      mstore\n      0x20\n      add\n      0x00\n      keccak256\n      sload\n        /* \"@openzeppelin/contracts/token/ERC20/ERC20.sol\":3945:3979  return _allowances[owner][spender] */\n      swap1\n      pop\n        /* \"@openzeppelin/contracts/token/ERC20/ERC20.sol\":3846:3986  function allowance(address owner, address spender) public view virtual returns (uint256) {... */\n      swap3\n      swap2\n      pop\n      pop\n      jump\t// out\n        /* \"contracts/WeightedVoting.sol\":2783:3431  function getIssue(uint24 _id) external view returns (IssueView memory) {... */\n    tag_101:\n        /* \"contracts/WeightedVoting.sol\":2836:2852  IssueView memory */\n      tag_203\n      tag_204\n      jump\t// in\n    tag_203:\n        /* \"contracts/WeightedVoting.sol\":2864:2883  Issue storage issue */\n      0x00\n        /* \"contracts/WeightedVoting.sol\":2886:2892  issues */\n      0x09\n        /* \"contracts/WeightedVoting.sol\":2893:2896  _id */\n      dup4\n        /* \"contracts/WeightedVoting.sol\":2886:2897  issues[_id] */\n      0xffffff\n      and\n      dup2\n      sload\n      dup2\n      lt\n      tag_206\n      jumpi\n      tag_207\n      tag_127\n      jump\t// in\n    tag_207:\n    tag_206:\n      swap1\n      0x00\n      mstore\n      keccak256(0x00, 0x20)\n      swap1\n      0x04\n      mul\n      add\n        /* \"contracts/WeightedVoting.sol\":2864:2897  Issue storage issue = issues[_id] */\n      swap1\n      pop\n        /* \"contracts/WeightedVoting.sol\":2908:2931  address[] memory voters */\n      0x00\n        /* \"contracts/WeightedVoting.sol\":2948:2969  issue.voters.length() */\n      tag_209\n        /* \"contracts/WeightedVoting.sol\":2948:2953  issue */\n      dup3\n        /* \"contracts/WeightedVoting.sol\":2948:2960  issue.voters */\n      0x00\n      add\n        /* \"contracts/WeightedVoting.sol\":2948:2967  issue.voters.length */\n      tag_210\n        /* \"contracts/WeightedVoting.sol\":2948:2969  issue.voters.length() */\n      jump\t// in\n    tag_209:\n        /* \"contracts/WeightedVoting.sol\":2934:2970  new address[](issue.voters.length()) */\n      0xffffffffffffffff\n      dup2\n      gt\n      iszero\n      tag_211\n      jumpi\n      tag_212\n      tag_213\n      jump\t// in\n    tag_212:\n    tag_211:\n      mload(0x40)\n      swap1\n      dup1\n      dup3\n      mstore\n      dup1\n      0x20\n      mul\n      0x20\n      add\n      dup3\n      add\n      0x40\n      mstore\n      dup1\n      iszero\n      tag_214\n      jumpi\n      dup2\n      0x20\n      add\n      0x20\n      dup3\n      mul\n      dup1\n      calldatasize\n      dup4\n      calldatacopy\n      dup1\n      dup3\n      add\n      swap2\n      pop\n      pop\n      swap1\n      pop\n    tag_214:\n      pop\n        /* \"contracts/WeightedVoting.sol\":2908:2970  address[] memory voters = new address[](issue.voters.length()) */\n      swap1\n      pop\n        /* \"contracts/WeightedVoting.sol\":2985:2994  uint256 i */\n      0x00\n        /* \"contracts/WeightedVoting.sol\":2980:3087  for (uint256 i = 0; i < issue.voters.length(); i++) {... */\n    tag_215:\n        /* \"contracts/WeightedVoting.sol\":3004:3025  issue.voters.length() */\n      tag_218\n        /* \"contracts/WeightedVoting.sol\":3004:3009  issue */\n      dup4\n        /* \"contracts/WeightedVoting.sol\":3004:3016  issue.voters */\n      0x00\n      add\n        /* \"contracts/WeightedVoting.sol\":3004:3023  issue.voters.length */\n      tag_210\n        /* \"contracts/WeightedVoting.sol\":3004:3025  issue.voters.length() */\n      jump\t// in\n    tag_218:\n        /* \"contracts/WeightedVoting.sol\":3000:3001  i */\n      dup2\n        /* \"contracts/WeightedVoting.sol\":3000:3025  i < issue.voters.length() */\n      lt\n        /* \"contracts/WeightedVoting.sol\":2980:3087  for (uint256 i = 0; i < issue.voters.length(); i++) {... */\n      iszero\n      tag_216\n      jumpi\n        /* \"contracts/WeightedVoting.sol\":3058:3076  issue.voters.at(i) */\n      tag_219\n        /* \"contracts/WeightedVoting.sol\":3074:3075  i */\n      dup2\n        /* \"contracts/WeightedVoting.sol\":3058:3063  issue */\n      dup5\n        /* \"contracts/WeightedVoting.sol\":3058:3070  issue.voters */\n      0x00\n      add\n        /* \"contracts/WeightedVoting.sol\":3058:3073  issue.voters.at */\n      tag_220\n      swap1\n        /* \"contracts/WeightedVoting.sol\":3058:3076  issue.voters.at(i) */\n      swap2\n      swap1\n      0xffffffff\n      and\n      jump\t// in\n    tag_219:\n        /* \"contracts/WeightedVoting.sol\":3046:3052  voters */\n      dup3\n        /* \"contracts/WeightedVoting.sol\":3053:3054  i */\n      dup3\n        /* \"contracts/WeightedVoting.sol\":3046:3055  voters[i] */\n      dup2\n      mload\n      dup2\n      lt\n      tag_221\n      jumpi\n      tag_222\n      tag_127\n      jump\t// in\n    tag_222:\n    tag_221:\n      0x20\n      mul\n      0x20\n      add\n      add\n        /* \"contracts/WeightedVoting.sol\":3046:3076  voters[i] = issue.voters.at(i) */\n      swap1\n      0xffffffffffffffffffffffffffffffffffffffff\n      and\n      swap1\n      dup2\n      0xffffffffffffffffffffffffffffffffffffffff\n      and\n      dup2\n      mstore\n      pop\n      pop\n        /* \"contracts/WeightedVoting.sol\":3027:3030  i++ */\n      dup1\n      dup1\n      tag_223\n      swap1\n      tag_224\n      jump\t// in\n    tag_223:\n      swap2\n      pop\n      pop\n        /* \"contracts/WeightedVoting.sol\":2980:3087  for (uint256 i = 0; i < issue.voters.length(); i++) {... */\n      jump(tag_215)\n    tag_216:\n      pop\n        /* \"contracts/WeightedVoting.sol\":3116:3424  IssueView(... */\n      mload(0x40)\n      dup1\n      0x0120\n      add\n      0x40\n      mstore\n      dup1\n        /* \"contracts/WeightedVoting.sol\":3143:3149  voters */\n      dup3\n        /* \"contracts/WeightedVoting.sol\":3116:3424  IssueView(... */\n      dup2\n      mstore\n      0x20\n      add\n        /* \"contracts/WeightedVoting.sol\":3167:3172  issue */\n      dup4\n        /* \"contracts/WeightedVoting.sol\":3167:3182  issue.issueDesc */\n      0x02\n      add\n        /* \"contracts/WeightedVoting.sol\":3116:3424  IssueView(... */\n      dup1\n      sload\n      tag_225\n      swap1\n      tag_106\n      jump\t// in\n    tag_225:\n      dup1\n      0x1f\n      add\n      0x20\n      dup1\n      swap2\n      div\n      mul\n      0x20\n      add\n      mload(0x40)\n      swap1\n      dup2\n      add\n      0x40\n      mstore\n      dup1\n      swap3\n      swap2\n      swap1\n      dup2\n      dup2\n      mstore\n      0x20\n      add\n      dup3\n      dup1\n      sload\n      tag_226\n      swap1\n      tag_106\n      jump\t// in\n    tag_226:\n      dup1\n      iszero\n      tag_227\n      jumpi\n      dup1\n      0x1f\n      lt\n      tag_228\n      jumpi\n      0x0100\n      dup1\n      dup4\n      sload\n      div\n      mul\n      dup4\n      mstore\n      swap2\n      0x20\n      add\n      swap2\n      jump(tag_227)\n    tag_228:\n      dup3\n      add\n      swap2\n      swap1\n      0x00\n      mstore\n      keccak256(0x00, 0x20)\n      swap1\n    tag_229:\n      dup2\n      sload\n      dup2\n      mstore\n      swap1\n      0x01\n      add\n      swap1\n      0x20\n      add\n      dup1\n      dup4\n      gt\n      tag_229\n      jumpi\n      dup3\n      swap1\n      sub\n      0x1f\n      and\n      dup3\n      add\n      swap2\n    tag_227:\n      pop\n      pop\n      pop\n      pop\n      pop\n      dup2\n      mstore\n      0x20\n      add\n        /* \"contracts/WeightedVoting.sol\":3200:3205  issue */\n      dup4\n        /* \"contracts/WeightedVoting.sol\":3200:3214  issue.votesFor */\n      0x03\n      add\n      0x00\n      swap1\n      sload\n      swap1\n      0x0100\n      exp\n      swap1\n      div\n      0xffffff\n      and\n        /* \"contracts/WeightedVoting.sol\":3116:3424  IssueView(... */\n      0xffffff\n      and\n      dup2\n      mstore\n      0x20\n      add\n        /* \"contracts/WeightedVoting.sol\":3232:3237  issue */\n      dup4\n        /* \"contracts/WeightedVoting.sol\":3232:3250  issue.votesAgainst */\n      0x03\n      add\n      0x03\n      swap1\n      sload\n      swap1\n      0x0100\n      exp\n      swap1\n      div\n      0xffffff\n      and\n        /* \"contracts/WeightedVoting.sol\":3116:3424  IssueView(... */\n      0xffffff\n      and\n      dup2\n      mstore\n      0x20\n      add\n        /* \"contracts/WeightedVoting.sol\":3268:3273  issue */\n      dup4\n        /* \"contracts/WeightedVoting.sol\":3268:3286  issue.votesAbstain */\n      0x03\n      add\n      0x06\n      swap1\n      sload\n      swap1\n      0x0100\n      exp\n      swap1\n      div\n      0xffffff\n      and\n        /* \"contracts/WeightedVoting.sol\":3116:3424  IssueView(... */\n      0xffffff\n      and\n      dup2\n      mstore\n      0x20\n      add\n        /* \"contracts/WeightedVoting.sol\":3304:3309  issue */\n      dup4\n        /* \"contracts/WeightedVoting.sol\":3304:3320  issue.totalVotes */\n      0x03\n      add\n      0x09\n      swap1\n      sload\n      swap1\n      0x0100\n      exp\n      swap1\n      div\n      0xffffff\n      and\n        /* \"contracts/WeightedVoting.sol\":3116:3424  IssueView(... */\n      0xffffff\n      and\n      dup2\n      mstore\n      0x20\n      add\n        /* \"contracts/WeightedVoting.sol\":3338:3343  issue */\n      dup4\n        /* \"contracts/WeightedVoting.sol\":3338:3350  issue.quorum */\n      0x03\n      add\n      0x0c\n      swap1\n      sload\n      swap1\n      0x0100\n      exp\n      swap1\n      div\n      0xffffff\n      and\n        /* \"contracts/WeightedVoting.sol\":3116:3424  IssueView(... */\n      0xffffff\n      and\n      dup2\n      mstore\n      0x20\n      add\n        /* \"contracts/WeightedVoting.sol\":3368:3373  issue */\n      dup4\n        /* \"contracts/WeightedVoting.sol\":3368:3380  issue.passed */\n      0x03\n      add\n      0x0f\n      swap1\n      sload\n      swap1\n      0x0100\n      exp\n      swap1\n      div\n      0xff\n      and\n        /* \"contracts/WeightedVoting.sol\":3116:3424  IssueView(... */\n      iszero\n      iszero\n      dup2\n      mstore\n      0x20\n      add\n        /* \"contracts/WeightedVoting.sol\":3398:3403  issue */\n      dup4\n        /* \"contracts/WeightedVoting.sol\":3398:3410  issue.closed */\n      0x03\n      add\n      0x10\n      swap1\n      sload\n      swap1\n      0x0100\n      exp\n      swap1\n      div\n      0xff\n      and\n        /* \"contracts/WeightedVoting.sol\":3116:3424  IssueView(... */\n      iszero\n      iszero\n      dup2\n      mstore\n      pop\n        /* \"contracts/WeightedVoting.sol\":3097:3424  return... */\n      swap3\n      pop\n      pop\n      pop\n        /* \"contracts/WeightedVoting.sol\":2783:3431  function getIssue(uint24 _id) external view returns (IssueView memory) {... */\n      swap2\n      swap1\n      pop\n      jump\t// out\n        /* \"@openzeppelin/contracts/utils/Context.sol\":656:752  function _msgSender() internal view virtual returns (address) {... */\n    tag_113:\n        /* \"@openzeppelin/contracts/utils/Context.sol\":709:716  address */\n      0x00\n        /* \"@openzeppelin/contracts/utils/Context.sol\":735:745  msg.sender */\n      caller\n        /* \"@openzeppelin/contracts/utils/Context.sol\":728:745  return msg.sender */\n      swap1\n      pop\n        /* \"@openzeppelin/contracts/utils/Context.sol\":656:752  function _msgSender() internal view virtual returns (address) {... */\n      swap1\n      jump\t// out\n        /* \"@openzeppelin/contracts/token/ERC20/ERC20.sol\":8989:9117  function _approve(address owner, address spender, uint256 value) internal {... */\n    tag_115:\n        /* \"@openzeppelin/contracts/token/ERC20/ERC20.sol\":9073:9110  _approve(owner, spender, value, true) */\n      tag_232\n        /* \"@openzeppelin/contracts/token/ERC20/ERC20.sol\":9082:9087  owner */\n      dup4\n        /* \"@openzeppelin/contracts/token/ERC20/ERC20.sol\":9089:9096  spender */\n      dup4\n        /* \"@openzeppelin/contracts/token/ERC20/ERC20.sol\":9098:9103  value */\n      dup4\n        /* \"@openzeppelin/contracts/token/ERC20/ERC20.sol\":9105:9109  true */\n      0x01\n        /* \"@openzeppelin/contracts/token/ERC20/ERC20.sol\":9073:9081  _approve */\n      tag_233\n        /* \"@openzeppelin/contracts/token/ERC20/ERC20.sol\":9073:9110  _approve(owner, spender, value, true) */\n      jump\t// in\n    tag_232:\n        /* \"@openzeppelin/contracts/token/ERC20/ERC20.sol\":8989:9117  function _approve(address owner, address spender, uint256 value) internal {... */\n      pop\n      pop\n      pop\n      jump\t// out\n        /* \"@openzeppelin/contracts/utils/structs/EnumerableSet.sol\":8871:9036  function contains(AddressSet storage set, address value) internal view returns (bool) {... */\n    tag_143:\n        /* \"@openzeppelin/contracts/utils/structs/EnumerableSet.sol\":8951:8955  bool */\n      0x00\n        /* \"@openzeppelin/contracts/utils/structs/EnumerableSet.sol\":8974:9029  _contains(set._inner, bytes32(uint256(uint160(value)))) */\n      tag_235\n        /* \"@openzeppelin/contracts/utils/structs/EnumerableSet.sol\":8984:8987  set */\n      dup4\n        /* \"@openzeppelin/contracts/utils/structs/EnumerableSet.sol\":8984:8994  set._inner */\n      0x00\n      add\n        /* \"@openzeppelin/contracts/utils/structs/EnumerableSet.sol\":9020:9025  value */\n      dup4\n        /* \"@openzeppelin/contracts/utils/structs/EnumerableSet.sol\":9004:9027  uint256(uint160(value)) */\n      0xffffffffffffffffffffffffffffffffffffffff\n      and\n        /* \"@openzeppelin/contracts/utils/structs/EnumerableSet.sol\":8996:9028  bytes32(uint256(uint160(value))) */\n      0x00\n      shl\n        /* \"@openzeppelin/contracts/utils/structs/EnumerableSet.sol\":8974:8983  _contains */\n      tag_236\n        /* \"@openzeppelin/contracts/utils/structs/EnumerableSet.sol\":8974:9029  _contains(set._inner, bytes32(uint256(uint160(value)))) */\n      jump\t// in\n    tag_235:\n        /* \"@openzeppelin/contracts/utils/structs/EnumerableSet.sol\":8967:9029  return _contains(set._inner, bytes32(uint256(uint160(value)))) */\n      swap1\n      pop\n        /* \"@openzeppelin/contracts/utils/structs/EnumerableSet.sol\":8871:9036  function contains(AddressSet storage set, address value) internal view returns (bool) {... */\n      swap3\n      swap2\n      pop\n      pop\n      jump\t// out\n        /* \"@openzeppelin/contracts/utils/structs/EnumerableSet.sol\":8316:8466  function add(AddressSet storage set, address value) internal returns (bool) {... */\n    tag_177:\n        /* \"@openzeppelin/contracts/utils/structs/EnumerableSet.sol\":8386:8390  bool */\n      0x00\n        /* \"@openzeppelin/contracts/utils/structs/EnumerableSet.sol\":8409:8459  _add(set._inner, bytes32(uint256(uint160(value)))) */\n      tag_238\n        /* \"@openzeppelin/contracts/utils/structs/EnumerableSet.sol\":8414:8417  set */\n      dup4\n        /* \"@openzeppelin/contracts/utils/structs/EnumerableSet.sol\":8414:8424  set._inner */\n      0x00\n      add\n        /* \"@openzeppelin/contracts/utils/structs/EnumerableSet.sol\":8450:8455  value */\n      dup4\n        /* \"@openzeppelin/contracts/utils/structs/EnumerableSet.sol\":8434:8457  uint256(uint160(value)) */\n      0xffffffffffffffffffffffffffffffffffffffff\n      and\n        /* \"@openzeppelin/contracts/utils/structs/EnumerableSet.sol\":8426:8458  bytes32(uint256(uint160(value))) */\n      0x00\n      shl\n        /* \"@openzeppelin/contracts/utils/structs/EnumerableSet.sol\":8409:8413  _add */\n      tag_239\n        /* \"@openzeppelin/contracts/utils/structs/EnumerableSet.sol\":8409:8459  _add(set._inner, bytes32(uint256(uint160(value)))) */\n      jump\t// in\n    tag_238:\n        /* \"@openzeppelin/contracts/utils/structs/EnumerableSet.sol\":8402:8459  return _add(set._inner, bytes32(uint256(uint160(value)))) */\n      swap1\n      pop\n        /* \"@openzeppelin/contracts/utils/structs/EnumerableSet.sol\":8316:8466  function add(AddressSet storage set, address value) internal returns (bool) {... */\n      swap3\n      swap2\n      pop\n      pop\n      jump\t// out\n        /* \"@openzeppelin/contracts/token/ERC20/ERC20.sol\":10663:11140  function _spendAllowance(address owner, address spender, uint256 value) internal virtual {... */\n    tag_183:\n        /* \"@openzeppelin/contracts/token/ERC20/ERC20.sol\":10762:10786  uint256 currentAllowance */\n      0x00\n        /* \"@openzeppelin/contracts/token/ERC20/ERC20.sol\":10789:10814  allowance(owner, spender) */\n      tag_241\n        /* \"@openzeppelin/contracts/token/ERC20/ERC20.sol\":10799:10804  owner */\n      dup5\n        /* \"@openzeppelin/contracts/token/ERC20/ERC20.sol\":10806:10813  spender */\n      dup5\n        /* \"@openzeppelin/contracts/token/ERC20/ERC20.sol\":10789:10798  allowance */\n      tag_96\n        /* \"@openzeppelin/contracts/token/ERC20/ERC20.sol\":10789:10814  allowance(owner, spender) */\n      jump\t// in\n    tag_241:\n        /* \"@openzeppelin/contracts/token/ERC20/ERC20.sol\":10762:10814  uint256 currentAllowance = allowance(owner, spender) */\n      swap1\n      pop\n        /* \"@openzeppelin/contracts/token/ERC20/ERC20.sol\":10848:10865  type(uint256).max */\n      0xffffffffffffffffffffffffffffffffffffffffffffffffffffffffffffffff\n        /* \"@openzeppelin/contracts/token/ERC20/ERC20.sol\":10828:10844  currentAllowance */\n      dup2\n        /* \"@openzeppelin/contracts/token/ERC20/ERC20.sol\":10828:10865  currentAllowance != type(uint256).max */\n      eq\n        /* \"@openzeppelin/contracts/token/ERC20/ERC20.sol\":10824:11134  if (currentAllowance != type(uint256).max) {... */\n      tag_242\n      jumpi\n        /* \"@openzeppelin/contracts/token/ERC20/ERC20.sol\":10904:10909  value */\n      dup2\n        /* \"@openzeppelin/contracts/token/ERC20/ERC20.sol\":10885:10901  currentAllowance */\n      dup2\n        /* \"@openzeppelin/contracts/token/ERC20/ERC20.sol\":10885:10909  currentAllowance < value */\n      lt\n        /* \"@openzeppelin/contracts/token/ERC20/ERC20.sol\":10881:11011  if (currentAllowance < value) {... */\n      iszero\n      tag_243\n      jumpi\n        /* \"@openzeppelin/contracts/token/ERC20/ERC20.sol\":10963:10970  spender */\n      dup3\n        /* \"@openzeppelin/contracts/token/ERC20/ERC20.sol\":10972:10988  currentAllowance */\n      dup2\n        /* \"@openzeppelin/contracts/token/ERC20/ERC20.sol\":10990:10995  value */\n      dup4\n        /* \"@openzeppelin/contracts/token/ERC20/ERC20.sol\":10936:10996  ERC20InsufficientAllowance(spender, currentAllowance, value) */\n      mload(0x40)\n      0xfb8f41b200000000000000000000000000000000000000000000000000000000\n      dup2\n      mstore\n      0x04\n      add\n      tag_244\n      swap4\n      swap3\n      swap2\n      swap1\n      tag_245\n      jump\t// in\n    tag_244:\n      mload(0x40)\n      dup1\n      swap2\n      sub\n      swap1\n      revert\n        /* \"@openzeppelin/contracts/token/ERC20/ERC20.sol\":10881:11011  if (currentAllowance < value) {... */\n    tag_243:\n        /* \"@openzeppelin/contracts/token/ERC20/ERC20.sol\":11052:11109  _approve(owner, spender, currentAllowance - value, false) */\n      tag_246\n        /* \"@openzeppelin/contracts/token/ERC20/ERC20.sol\":11061:11066  owner */\n      dup5\n        /* \"@openzeppelin/contracts/token/ERC20/ERC20.sol\":11068:11075  spender */\n      dup5\n        /* \"@openzeppelin/contracts/token/ERC20/ERC20.sol\":11096:11101  value */\n      dup5\n        /* \"@openzeppelin/contracts/token/ERC20/ERC20.sol\":11077:11093  currentAllowance */\n      dup5\n        /* \"@openzeppelin/contracts/token/ERC20/ERC20.sol\":11077:11101  currentAllowance - value */\n      sub\n        /* \"@openzeppelin/contracts/token/ERC20/ERC20.sol\":11103:11108  false */\n      0x00\n        /* \"@openzeppelin/contracts/token/ERC20/ERC20.sol\":11052:11060  _approve */\n      tag_233\n        /* \"@openzeppelin/contracts/token/ERC20/ERC20.sol\":11052:11109  _approve(owner, spender, currentAllowance - value, false) */\n      jump\t// in\n    tag_246:\n        /* \"@openzeppelin/contracts/token/ERC20/ERC20.sol\":10824:11134  if (currentAllowance != type(uint256).max) {... */\n    tag_242:\n        /* \"@openzeppelin/contracts/token/ERC20/ERC20.sol\":10752:11140  {... */\n      pop\n        /* \"@openzeppelin/contracts/token/ERC20/ERC20.sol\":10663:11140  function _spendAllowance(address owner, address spender, uint256 value) internal virtual {... */\n      pop\n      pop\n      pop\n      jump\t// out\n        /* \"@openzeppelin/contracts/token/ERC20/ERC20.sol\":5656:5956  function _transfer(address from, address to, uint256 value) internal {... */\n    tag_185:\n        /* \"@openzeppelin/contracts/token/ERC20/ERC20.sol\":5755:5756  0 */\n      0x00\n        /* \"@openzeppelin/contracts/token/ERC20/ERC20.sol\":5739:5757  from == address(0) */\n      0xffffffffffffffffffffffffffffffffffffffff\n      and\n        /* \"@openzeppelin/contracts/token/ERC20/ERC20.sol\":5739:5743  from */\n      dup4\n        /* \"@openzeppelin/contracts/token/ERC20/ERC20.sol\":5739:5757  from == address(0) */\n      0xffffffffffffffffffffffffffffffffffffffff\n      and\n      sub\n        /* \"@openzeppelin/contracts/token/ERC20/ERC20.sol\":5735:5821  if (from == address(0)) {... */\n      tag_248\n      jumpi\n        /* \"@openzeppelin/contracts/token/ERC20/ERC20.sol\":5807:5808  0 */\n      0x00\n        /* \"@openzeppelin/contracts/token/ERC20/ERC20.sol\":5780:5810  ERC20InvalidSender(address(0)) */\n      mload(0x40)\n      0x96c6fd1e00000000000000000000000000000000000000000000000000000000\n      dup2\n      mstore\n      0x04\n      add\n      tag_249\n      swap2\n      swap1\n      tag_79\n      jump\t// in\n    tag_249:\n      mload(0x40)\n      dup1\n      swap2\n      sub\n      swap1\n      revert\n        /* \"@openzeppelin/contracts/token/ERC20/ERC20.sol\":5735:5821  if (from == address(0)) {... */\n    tag_248:\n        /* \"@openzeppelin/contracts/token/ERC20/ERC20.sol\":5848:5849  0 */\n      0x00\n        /* \"@openzeppelin/contracts/token/ERC20/ERC20.sol\":5834:5850  to == address(0) */\n      0xffffffffffffffffffffffffffffffffffffffff\n      and\n        /* \"@openzeppelin/contracts/token/ERC20/ERC20.sol\":5834:5836  to */\n      dup3\n        /* \"@openzeppelin/contracts/token/ERC20/ERC20.sol\":5834:5850  to == address(0) */\n      0xffffffffffffffffffffffffffffffffffffffff\n      and\n      sub\n        /* \"@openzeppelin/contracts/token/ERC20/ERC20.sol\":5830:5916  if (to == address(0)) {... */\n      tag_250\n      jumpi\n        /* \"@openzeppelin/contracts/token/ERC20/ERC20.sol\":5902:5903  0 */\n      0x00\n        /* \"@openzeppelin/contracts/token/ERC20/ERC20.sol\":5873:5905  ERC20InvalidReceiver(address(0)) */\n      mload(0x40)\n      0xec442f0500000000000000000000000000000000000000000000000000000000\n      dup2\n      mstore\n      0x04\n      add\n      tag_251\n      swap2\n      swap1\n      tag_79\n      jump\t// in\n    tag_251:\n      mload(0x40)\n      dup1\n      swap2\n      sub\n      swap1\n      revert\n        /* \"@openzeppelin/contracts/token/ERC20/ERC20.sol\":5830:5916  if (to == address(0)) {... */\n    tag_250:\n        /* \"@openzeppelin/contracts/token/ERC20/ERC20.sol\":5925:5949  _update(from, to, value) */\n      tag_252\n        /* \"@openzeppelin/contracts/token/ERC20/ERC20.sol\":5933:5937  from */\n      dup4\n        /* \"@openzeppelin/contracts/token/ERC20/ERC20.sol\":5939:5941  to */\n      dup4\n        /* \"@openzeppelin/contracts/token/ERC20/ERC20.sol\":5943:5948  value */\n      dup4\n        /* \"@openzeppelin/contracts/token/ERC20/ERC20.sol\":5925:5932  _update */\n      tag_253\n        /* \"@openzeppelin/contracts/token/ERC20/ERC20.sol\":5925:5949  _update(from, to, value) */\n      jump\t// in\n    tag_252:\n        /* \"@openzeppelin/contracts/token/ERC20/ERC20.sol\":5656:5956  function _transfer(address from, address to, uint256 value) internal {... */\n      pop\n      pop\n      pop\n      jump\t// out\n        /* \"@openzeppelin/contracts/utils/structs/EnumerableSet.sol\":9117:9232  function length(AddressSet storage set) internal view returns (uint256) {... */\n    tag_210:\n        /* \"@openzeppelin/contracts/utils/structs/EnumerableSet.sol\":9180:9187  uint256 */\n      0x00\n        /* \"@openzeppelin/contracts/utils/structs/EnumerableSet.sol\":9206:9225  _length(set._inner) */\n      tag_255\n        /* \"@openzeppelin/contracts/utils/structs/EnumerableSet.sol\":9214:9217  set */\n      dup3\n        /* \"@openzeppelin/contracts/utils/structs/EnumerableSet.sol\":9214:9224  set._inner */\n      0x00\n      add\n        /* \"@openzeppelin/contracts/utils/structs/EnumerableSet.sol\":9206:9213  _length */\n      tag_256\n        /* \"@openzeppelin/contracts/utils/structs/EnumerableSet.sol\":9206:9225  _length(set._inner) */\n      jump\t// in\n    tag_255:\n        /* \"@openzeppelin/contracts/utils/structs/EnumerableSet.sol\":9199:9225  return _length(set._inner) */\n      swap1\n      pop\n        /* \"@openzeppelin/contracts/utils/structs/EnumerableSet.sol\":9117:9232  function length(AddressSet storage set) internal view returns (uint256) {... */\n      swap2\n      swap1\n      pop\n      jump\t// out\n        /* \"@openzeppelin/contracts/utils/structs/EnumerableSet.sol\":9574:9730  function at(AddressSet storage set, uint256 index) internal view returns (address) {... */\n    tag_220:\n        /* \"@openzeppelin/contracts/utils/structs/EnumerableSet.sol\":9648:9655  address */\n      0x00\n        /* \"@openzeppelin/contracts/utils/structs/EnumerableSet.sol\":9698:9720  _at(set._inner, index) */\n      tag_258\n        /* \"@openzeppelin/contracts/utils/structs/EnumerableSet.sol\":9702:9705  set */\n      dup4\n        /* \"@openzeppelin/contracts/utils/structs/EnumerableSet.sol\":9702:9712  set._inner */\n      0x00\n      add\n        /* \"@openzeppelin/contracts/utils/structs/EnumerableSet.sol\":9714:9719  index */\n      dup4\n        /* \"@openzeppelin/contracts/utils/structs/EnumerableSet.sol\":9698:9701  _at */\n      tag_259\n        /* \"@openzeppelin/contracts/utils/structs/EnumerableSet.sol\":9698:9720  _at(set._inner, index) */\n      jump\t// in\n    tag_258:\n        /* \"@openzeppelin/contracts/utils/structs/EnumerableSet.sol\":9690:9721  uint256(_at(set._inner, index)) */\n      0x00\n      shr\n        /* \"@openzeppelin/contracts/utils/structs/EnumerableSet.sol\":9667:9723  return address(uint160(uint256(_at(set._inner, index)))) */\n      swap1\n      pop\n        /* \"@openzeppelin/contracts/utils/structs/EnumerableSet.sol\":9574:9730  function at(AddressSet storage set, uint256 index) internal view returns (address) {... */\n      swap3\n      swap2\n      pop\n      pop\n      jump\t// out\n        /* \"@openzeppelin/contracts/token/ERC20/ERC20.sol\":9949:10381  function _approve(address owner, address spender, uint256 value, bool emitEvent) internal virtual {... */\n    tag_233:\n        /* \"@openzeppelin/contracts/token/ERC20/ERC20.sol\":10078:10079  0 */\n      0x00\n        /* \"@openzeppelin/contracts/token/ERC20/ERC20.sol\":10061:10080  owner == address(0) */\n      0xffffffffffffffffffffffffffffffffffffffff\n      and\n        /* \"@openzeppelin/contracts/token/ERC20/ERC20.sol\":10061:10066  owner */\n      dup5\n        /* \"@openzeppelin/contracts/token/ERC20/ERC20.sol\":10061:10080  owner == address(0) */\n      0xffffffffffffffffffffffffffffffffffffffff\n      and\n      sub\n        /* \"@openzeppelin/contracts/token/ERC20/ERC20.sol\":10057:10146  if (owner == address(0)) {... */\n      tag_261\n      jumpi\n        /* \"@openzeppelin/contracts/token/ERC20/ERC20.sol\":10132:10133  0 */\n      0x00\n        /* \"@openzeppelin/contracts/token/ERC20/ERC20.sol\":10103:10135  ERC20InvalidApprover(address(0)) */\n      mload(0x40)\n      0xe602df0500000000000000000000000000000000000000000000000000000000\n      dup2\n      mstore\n      0x04\n      add\n      tag_262\n      swap2\n      swap1\n      tag_79\n      jump\t// in\n    tag_262:\n      mload(0x40)\n      dup1\n      swap2\n      sub\n      swap1\n      revert\n        /* \"@openzeppelin/contracts/token/ERC20/ERC20.sol\":10057:10146  if (owner == address(0)) {... */\n    tag_261:\n        /* \"@openzeppelin/contracts/token/ERC20/ERC20.sol\":10178:10179  0 */\n      0x00\n        /* \"@openzeppelin/contracts/token/ERC20/ERC20.sol\":10159:10180  spender == address(0) */\n      0xffffffffffffffffffffffffffffffffffffffff\n      and\n        /* \"@openzeppelin/contracts/token/ERC20/ERC20.sol\":10159:10166  spender */\n      dup4\n        /* \"@openzeppelin/contracts/token/ERC20/ERC20.sol\":10159:10180  spender == address(0) */\n      0xffffffffffffffffffffffffffffffffffffffff\n      and\n      sub\n        /* \"@openzeppelin/contracts/token/ERC20/ERC20.sol\":10155:10245  if (spender == address(0)) {... */\n      tag_263\n      jumpi\n        /* \"@openzeppelin/contracts/token/ERC20/ERC20.sol\":10231:10232  0 */\n      0x00\n        /* \"@openzeppelin/contracts/token/ERC20/ERC20.sol\":10203:10234  ERC20InvalidSpender(address(0)) */\n      mload(0x40)\n      0x94280d6200000000000000000000000000000000000000000000000000000000\n      dup2\n      mstore\n      0x04\n      add\n      tag_264\n      swap2\n      swap1\n      tag_79\n      jump\t// in\n    tag_264:\n      mload(0x40)\n      dup1\n      swap2\n      sub\n      swap1\n      revert\n        /* \"@openzeppelin/contracts/token/ERC20/ERC20.sol\":10155:10245  if (spender == address(0)) {... */\n    tag_263:\n        /* \"@openzeppelin/contracts/token/ERC20/ERC20.sol\":10284:10289  value */\n      dup2\n        /* \"@openzeppelin/contracts/token/ERC20/ERC20.sol\":10254:10265  _allowances */\n      0x01\n        /* \"@openzeppelin/contracts/token/ERC20/ERC20.sol\":10254:10272  _allowances[owner] */\n      0x00\n        /* \"@openzeppelin/contracts/token/ERC20/ERC20.sol\":10266:10271  owner */\n      dup7\n        /* \"@openzeppelin/contracts/token/ERC20/ERC20.sol\":10254:10272  _allowances[owner] */\n      0xffffffffffffffffffffffffffffffffffffffff\n      and\n      0xffffffffffffffffffffffffffffffffffffffff\n      and\n      dup2\n      mstore\n      0x20\n      add\n      swap1\n      dup2\n      mstore\n      0x20\n      add\n      0x00\n      keccak256\n        /* \"@openzeppelin/contracts/token/ERC20/ERC20.sol\":10254:10281  _allowances[owner][spender] */\n      0x00\n        /* \"@openzeppelin/contracts/token/ERC20/ERC20.sol\":10273:10280  spender */\n      dup6\n        /* \"@openzeppelin/contracts/token/ERC20/ERC20.sol\":10254:10281  _allowances[owner][spender] */\n      0xffffffffffffffffffffffffffffffffffffffff\n      and\n      0xffffffffffffffffffffffffffffffffffffffff\n      and\n      dup2\n      mstore\n      0x20\n      add\n      swap1\n      dup2\n      mstore\n      0x20\n      add\n      0x00\n      keccak256\n        /* \"@openzeppelin/contracts/token/ERC20/ERC20.sol\":10254:10289  _allowances[owner][spender] = value */\n      dup2\n      swap1\n      sstore\n      pop\n        /* \"@openzeppelin/contracts/token/ERC20/ERC20.sol\":10303:10312  emitEvent */\n      dup1\n        /* \"@openzeppelin/contracts/token/ERC20/ERC20.sol\":10299:10375  if (emitEvent) {... */\n      iszero\n      tag_265\n      jumpi\n        /* \"@openzeppelin/contracts/token/ERC20/ERC20.sol\":10349:10356  spender */\n      dup3\n        /* \"@openzeppelin/contracts/token/ERC20/ERC20.sol\":10333:10364  Approval(owner, spender, value) */\n      0xffffffffffffffffffffffffffffffffffffffff\n      and\n        /* \"@openzeppelin/contracts/token/ERC20/ERC20.sol\":10342:10347  owner */\n      dup5\n        /* \"@openzeppelin/contracts/token/ERC20/ERC20.sol\":10333:10364  Approval(owner, spender, value) */\n      0xffffffffffffffffffffffffffffffffffffffff\n      and\n      0x8c5be1e5ebec7d5bd14f71427d1e84f3dd0314c0f7b2291e5b200ac8c7c3b925\n        /* \"@openzeppelin/contracts/token/ERC20/ERC20.sol\":10358:10363  value */\n      dup5\n        /* \"@openzeppelin/contracts/token/ERC20/ERC20.sol\":10333:10364  Approval(owner, spender, value) */\n      mload(0x40)\n      tag_266\n      swap2\n      swap1\n      tag_40\n      jump\t// in\n    tag_266:\n      mload(0x40)\n      dup1\n      swap2\n      sub\n      swap1\n      log3\n        /* \"@openzeppelin/contracts/token/ERC20/ERC20.sol\":10299:10375  if (emitEvent) {... */\n    tag_265:\n        /* \"@openzeppelin/contracts/token/ERC20/ERC20.sol\":9949:10381  function _approve(address owner, address spender, uint256 value, bool emitEvent) internal virtual {... */\n      pop\n      pop\n      pop\n      pop\n      jump\t// out\n        /* \"@openzeppelin/contracts/utils/structs/EnumerableSet.sol\":4264:4393  function _contains(Set storage set, bytes32 value) private view returns (bool) {... */\n    tag_236:\n        /* \"@openzeppelin/contracts/utils/structs/EnumerableSet.sol\":4337:4341  bool */\n      0x00\n        /* \"@openzeppelin/contracts/utils/structs/EnumerableSet.sol\":4385:4386  0 */\n      dup1\n        /* \"@openzeppelin/contracts/utils/structs/EnumerableSet.sol\":4360:4363  set */\n      dup4\n        /* \"@openzeppelin/contracts/utils/structs/EnumerableSet.sol\":4360:4374  set._positions */\n      0x01\n      add\n        /* \"@openzeppelin/contracts/utils/structs/EnumerableSet.sol\":4360:4381  set._positions[value] */\n      0x00\n        /* \"@openzeppelin/contracts/utils/structs/EnumerableSet.sol\":4375:4380  value */\n      dup5\n        /* \"@openzeppelin/contracts/utils/structs/EnumerableSet.sol\":4360:4381  set._positions[value] */\n      dup2\n      mstore\n      0x20\n      add\n      swap1\n      dup2\n      mstore\n      0x20\n      add\n      0x00\n      keccak256\n      sload\n        /* \"@openzeppelin/contracts/utils/structs/EnumerableSet.sol\":4360:4386  set._positions[value] != 0 */\n      eq\n      iszero\n        /* \"@openzeppelin/contracts/utils/structs/EnumerableSet.sol\":4353:4386  return set._positions[value] != 0 */\n      swap1\n      pop\n        /* \"@openzeppelin/contracts/utils/structs/EnumerableSet.sol\":4264:4393  function _contains(Set storage set, bytes32 value) private view returns (bool) {... */\n      swap3\n      swap2\n      pop\n      pop\n      jump\t// out\n        /* \"@openzeppelin/contracts/utils/structs/EnumerableSet.sol\":2241:2647  function _add(Set storage set, bytes32 value) private returns (bool) {... */\n    tag_239:\n        /* \"@openzeppelin/contracts/utils/structs/EnumerableSet.sol\":2304:2308  bool */\n      0x00\n        /* \"@openzeppelin/contracts/utils/structs/EnumerableSet.sol\":2325:2346  _contains(set, value) */\n      tag_269\n        /* \"@openzeppelin/contracts/utils/structs/EnumerableSet.sol\":2335:2338  set */\n      dup4\n        /* \"@openzeppelin/contracts/utils/structs/EnumerableSet.sol\":2340:2345  value */\n      dup4\n        /* \"@openzeppelin/contracts/utils/structs/EnumerableSet.sol\":2325:2334  _contains */\n      tag_236\n        /* \"@openzeppelin/contracts/utils/structs/EnumerableSet.sol\":2325:2346  _contains(set, value) */\n      jump\t// in\n    tag_269:\n        /* \"@openzeppelin/contracts/utils/structs/EnumerableSet.sol\":2320:2641  if (!_contains(set, value)) {... */\n      tag_270\n      jumpi\n        /* \"@openzeppelin/contracts/utils/structs/EnumerableSet.sol\":2362:2365  set */\n      dup3\n        /* \"@openzeppelin/contracts/utils/structs/EnumerableSet.sol\":2362:2373  set._values */\n      0x00\n      add\n        /* \"@openzeppelin/contracts/utils/structs/EnumerableSet.sol\":2379:2384  value */\n      dup3\n        /* \"@openzeppelin/contracts/utils/structs/EnumerableSet.sol\":2362:2385  set._values.push(value) */\n      swap1\n      dup1\n      0x01\n      dup2\n      sload\n      add\n      dup1\n      dup3\n      sstore\n      dup1\n      swap2\n      pop\n      pop\n      0x01\n      swap1\n      sub\n      swap1\n      0x00\n      mstore\n      keccak256(0x00, 0x20)\n      add\n      0x00\n      swap1\n      swap2\n      swap1\n      swap2\n      swap1\n      swap2\n      pop\n      sstore\n        /* \"@openzeppelin/contracts/utils/structs/EnumerableSet.sol\":2544:2547  set */\n      dup3\n        /* \"@openzeppelin/contracts/utils/structs/EnumerableSet.sol\":2544:2555  set._values */\n      0x00\n      add\n        /* \"@openzeppelin/contracts/utils/structs/EnumerableSet.sol\":2544:2562  set._values.length */\n      dup1\n      sload\n      swap1\n      pop\n        /* \"@openzeppelin/contracts/utils/structs/EnumerableSet.sol\":2520:2523  set */\n      dup4\n        /* \"@openzeppelin/contracts/utils/structs/EnumerableSet.sol\":2520:2534  set._positions */\n      0x01\n      add\n        /* \"@openzeppelin/contracts/utils/structs/EnumerableSet.sol\":2520:2541  set._positions[value] */\n      0x00\n        /* \"@openzeppelin/contracts/utils/structs/EnumerableSet.sol\":2535:2540  value */\n      dup5\n        /* \"@openzeppelin/contracts/utils/structs/EnumerableSet.sol\":2520:2541  set._positions[value] */\n      dup2\n      mstore\n      0x20\n      add\n      swap1\n      dup2\n      mstore\n      0x20\n      add\n      0x00\n      keccak256\n        /* \"@openzeppelin/contracts/utils/structs/EnumerableSet.sol\":2520:2562  set._positions[value] = set._values.length */\n      dup2\n      swap1\n      sstore\n      pop\n        /* \"@openzeppelin/contracts/utils/structs/EnumerableSet.sol\":2583:2587  true */\n      0x01\n        /* \"@openzeppelin/contracts/utils/structs/EnumerableSet.sol\":2576:2587  return true */\n      swap1\n      pop\n      jump(tag_268)\n        /* \"@openzeppelin/contracts/utils/structs/EnumerableSet.sol\":2320:2641  if (!_contains(set, value)) {... */\n    tag_270:\n        /* \"@openzeppelin/contracts/utils/structs/EnumerableSet.sol\":2625:2630  false */\n      0x00\n        /* \"@openzeppelin/contracts/utils/structs/EnumerableSet.sol\":2618:2630  return false */\n      swap1\n      pop\n        /* \"@openzeppelin/contracts/utils/structs/EnumerableSet.sol\":2241:2647  function _add(Set storage set, bytes32 value) private returns (bool) {... */\n    tag_268:\n      swap3\n      swap2\n      pop\n      pop\n      jump\t// out\n        /* \"@openzeppelin/contracts/token/ERC20/ERC20.sol\":6271:7378  function _update(address from, address to, uint256 value) internal virtual {... */\n    tag_253:\n        /* \"@openzeppelin/contracts/token/ERC20/ERC20.sol\":6376:6377  0 */\n      0x00\n        /* \"@openzeppelin/contracts/token/ERC20/ERC20.sol\":6360:6378  from == address(0) */\n      0xffffffffffffffffffffffffffffffffffffffff\n      and\n        /* \"@openzeppelin/contracts/token/ERC20/ERC20.sol\":6360:6364  from */\n      dup4\n        /* \"@openzeppelin/contracts/token/ERC20/ERC20.sol\":6360:6378  from == address(0) */\n      0xffffffffffffffffffffffffffffffffffffffff\n      and\n      sub\n        /* \"@openzeppelin/contracts/token/ERC20/ERC20.sol\":6356:6896  if (from == address(0)) {... */\n      tag_274\n      jumpi\n        /* \"@openzeppelin/contracts/token/ERC20/ERC20.sol\":6512:6517  value */\n      dup1\n        /* \"@openzeppelin/contracts/token/ERC20/ERC20.sol\":6496:6508  _totalSupply */\n      0x02\n      0x00\n        /* \"@openzeppelin/contracts/token/ERC20/ERC20.sol\":6496:6517  _totalSupply += value */\n      dup3\n      dup3\n      sload\n      tag_275\n      swap2\n      swap1\n      tag_276\n      jump\t// in\n    tag_275:\n      swap3\n      pop\n      pop\n      dup2\n      swap1\n      sstore\n      pop\n        /* \"@openzeppelin/contracts/token/ERC20/ERC20.sol\":6356:6896  if (from == address(0)) {... */\n      jump(tag_277)\n    tag_274:\n        /* \"@openzeppelin/contracts/token/ERC20/ERC20.sol\":6548:6567  uint256 fromBalance */\n      0x00\n        /* \"@openzeppelin/contracts/token/ERC20/ERC20.sol\":6570:6579  _balances */\n      dup1\n        /* \"@openzeppelin/contracts/token/ERC20/ERC20.sol\":6570:6585  _balances[from] */\n      0x00\n        /* \"@openzeppelin/contracts/token/ERC20/ERC20.sol\":6580:6584  from */\n      dup6\n        /* \"@openzeppelin/contracts/token/ERC20/ERC20.sol\":6570:6585  _balances[from] */\n      0xffffffffffffffffffffffffffffffffffffffff\n      and\n      0xffffffffffffffffffffffffffffffffffffffff\n      and\n      dup2\n      mstore\n      0x20\n      add\n      swap1\n      dup2\n      mstore\n      0x20\n      add\n      0x00\n      keccak256\n      sload\n        /* \"@openzeppelin/contracts/token/ERC20/ERC20.sol\":6548:6585  uint256 fromBalance = _balances[from] */\n      swap1\n      pop\n        /* \"@openzeppelin/contracts/token/ERC20/ERC20.sol\":6617:6622  value */\n      dup2\n        /* \"@openzeppelin/contracts/token/ERC20/ERC20.sol\":6603:6614  fromBalance */\n      dup2\n        /* \"@openzeppelin/contracts/token/ERC20/ERC20.sol\":6603:6622  fromBalance < value */\n      lt\n        /* \"@openzeppelin/contracts/token/ERC20/ERC20.sol\":6599:6714  if (fromBalance < value) {... */\n      iszero\n      tag_278\n      jumpi\n        /* \"@openzeppelin/contracts/token/ERC20/ERC20.sol\":6674:6678  from */\n      dup4\n        /* \"@openzeppelin/contracts/token/ERC20/ERC20.sol\":6680:6691  fromBalance */\n      dup2\n        /* \"@openzeppelin/contracts/token/ERC20/ERC20.sol\":6693:6698  value */\n      dup4\n        /* \"@openzeppelin/contracts/token/ERC20/ERC20.sol\":6649:6699  ERC20InsufficientBalance(from, fromBalance, value) */\n      mload(0x40)\n      0xe450d38c00000000000000000000000000000000000000000000000000000000\n      dup2\n      mstore\n      0x04\n      add\n      tag_279\n      swap4\n      swap3\n      swap2\n      swap1\n      tag_245\n      jump\t// in\n    tag_279:\n      mload(0x40)\n      dup1\n      swap2\n      sub\n      swap1\n      revert\n        /* \"@openzeppelin/contracts/token/ERC20/ERC20.sol\":6599:6714  if (fromBalance < value) {... */\n    tag_278:\n        /* \"@openzeppelin/contracts/token/ERC20/ERC20.sol\":6866:6871  value */\n      dup2\n        /* \"@openzeppelin/contracts/token/ERC20/ERC20.sol\":6852:6863  fromBalance */\n      dup2\n        /* \"@openzeppelin/contracts/token/ERC20/ERC20.sol\":6852:6871  fromBalance - value */\n      sub\n        /* \"@openzeppelin/contracts/token/ERC20/ERC20.sol\":6834:6843  _balances */\n      0x00\n        /* \"@openzeppelin/contracts/token/ERC20/ERC20.sol\":6834:6849  _balances[from] */\n      dup1\n        /* \"@openzeppelin/contracts/token/ERC20/ERC20.sol\":6844:6848  from */\n      dup7\n        /* \"@openzeppelin/contracts/token/ERC20/ERC20.sol\":6834:6849  _balances[from] */\n      0xffffffffffffffffffffffffffffffffffffffff\n      and\n      0xffffffffffffffffffffffffffffffffffffffff\n      and\n      dup2\n      mstore\n      0x20\n      add\n      swap1\n      dup2\n      mstore\n      0x20\n      add\n      0x00\n      keccak256\n        /* \"@openzeppelin/contracts/token/ERC20/ERC20.sol\":6834:6871  _balances[from] = fromBalance - value */\n      dup2\n      swap1\n      sstore\n      pop\n        /* \"@openzeppelin/contracts/token/ERC20/ERC20.sol\":6534:6896  {... */\n      pop\n        /* \"@openzeppelin/contracts/token/ERC20/ERC20.sol\":6356:6896  if (from == address(0)) {... */\n    tag_277:\n        /* \"@openzeppelin/contracts/token/ERC20/ERC20.sol\":6924:6925  0 */\n      0x00\n        /* \"@openzeppelin/contracts/token/ERC20/ERC20.sol\":6910:6926  to == address(0) */\n      0xffffffffffffffffffffffffffffffffffffffff\n      and\n        /* \"@openzeppelin/contracts/token/ERC20/ERC20.sol\":6910:6912  to */\n      dup3\n        /* \"@openzeppelin/contracts/token/ERC20/ERC20.sol\":6910:6926  to == address(0) */\n      0xffffffffffffffffffffffffffffffffffffffff\n      and\n      sub\n        /* \"@openzeppelin/contracts/token/ERC20/ERC20.sol\":6906:7331  if (to == address(0)) {... */\n      tag_280\n      jumpi\n        /* \"@openzeppelin/contracts/token/ERC20/ERC20.sol\":7089:7094  value */\n      dup1\n        /* \"@openzeppelin/contracts/token/ERC20/ERC20.sol\":7073:7085  _totalSupply */\n      0x02\n      0x00\n        /* \"@openzeppelin/contracts/token/ERC20/ERC20.sol\":7073:7094  _totalSupply -= value */\n      dup3\n      dup3\n      sload\n      sub\n      swap3\n      pop\n      pop\n      dup2\n      swap1\n      sstore\n      pop\n        /* \"@openzeppelin/contracts/token/ERC20/ERC20.sol\":6906:7331  if (to == address(0)) {... */\n      jump(tag_281)\n    tag_280:\n        /* \"@openzeppelin/contracts/token/ERC20/ERC20.sol\":7301:7306  value */\n      dup1\n        /* \"@openzeppelin/contracts/token/ERC20/ERC20.sol\":7284:7293  _balances */\n      0x00\n        /* \"@openzeppelin/contracts/token/ERC20/ERC20.sol\":7284:7297  _balances[to] */\n      dup1\n        /* \"@openzeppelin/contracts/token/ERC20/ERC20.sol\":7294:7296  to */\n      dup5\n        /* \"@openzeppelin/contracts/token/ERC20/ERC20.sol\":7284:7297  _balances[to] */\n      0xffffffffffffffffffffffffffffffffffffffff\n      and\n      0xffffffffffffffffffffffffffffffffffffffff\n      and\n      dup2\n      mstore\n      0x20\n      add\n      swap1\n      dup2\n      mstore\n      0x20\n      add\n      0x00\n      keccak256\n      0x00\n        /* \"@openzeppelin/contracts/token/ERC20/ERC20.sol\":7284:7306  _balances[to] += value */\n      dup3\n      dup3\n      sload\n      add\n      swap3\n      pop\n      pop\n      dup2\n      swap1\n      sstore\n      pop\n        /* \"@openzeppelin/contracts/token/ERC20/ERC20.sol\":6906:7331  if (to == address(0)) {... */\n    tag_281:\n        /* \"@openzeppelin/contracts/token/ERC20/ERC20.sol\":7361:7363  to */\n      dup2\n        /* \"@openzeppelin/contracts/token/ERC20/ERC20.sol\":7346:7371  Transfer(from, to, value) */\n      0xffffffffffffffffffffffffffffffffffffffff\n      and\n        /* \"@openzeppelin/contracts/token/ERC20/ERC20.sol\":7355:7359  from */\n      dup4\n        /* \"@openzeppelin/contracts/token/ERC20/ERC20.sol\":7346:7371  Transfer(from, to, value) */\n      0xffffffffffffffffffffffffffffffffffffffff\n      and\n      0xddf252ad1be2c89b69c2b068fc378daa952ba7f163c4a11628f55a4df523b3ef\n        /* \"@openzeppelin/contracts/token/ERC20/ERC20.sol\":7365:7370  value */\n      dup4\n        /* \"@openzeppelin/contracts/token/ERC20/ERC20.sol\":7346:7371  Transfer(from, to, value) */\n      mload(0x40)\n      tag_282\n      swap2\n      swap1\n      tag_40\n      jump\t// in\n    tag_282:\n      mload(0x40)\n      dup1\n      swap2\n      sub\n      swap1\n      log3\n        /* \"@openzeppelin/contracts/token/ERC20/ERC20.sol\":6271:7378  function _update(address from, address to, uint256 value) internal virtual {... */\n      pop\n      pop\n      pop\n      jump\t// out\n        /* \"@openzeppelin/contracts/utils/structs/EnumerableSet.sol\":4474:4581  function _length(Set storage set) private view returns (uint256) {... */\n    tag_256:\n        /* \"@openzeppelin/contracts/utils/structs/EnumerableSet.sol\":4530:4537  uint256 */\n      0x00\n        /* \"@openzeppelin/contracts/utils/structs/EnumerableSet.sol\":4556:4559  set */\n      dup2\n        /* \"@openzeppelin/contracts/utils/structs/EnumerableSet.sol\":4556:4567  set._values */\n      0x00\n      add\n        /* \"@openzeppelin/contracts/utils/structs/EnumerableSet.sol\":4556:4574  set._values.length */\n      dup1\n      sload\n      swap1\n      pop\n        /* \"@openzeppelin/contracts/utils/structs/EnumerableSet.sol\":4549:4574  return set._values.length */\n      swap1\n      pop\n        /* \"@openzeppelin/contracts/utils/structs/EnumerableSet.sol\":4474:4581  function _length(Set storage set) private view returns (uint256) {... */\n      swap2\n      swap1\n      pop\n      jump\t// out\n        /* \"@openzeppelin/contracts/utils/structs/EnumerableSet.sol\":4923:5041  function _at(Set storage set, uint256 index) private view returns (bytes32) {... */\n    tag_259:\n        /* \"@openzeppelin/contracts/utils/structs/EnumerableSet.sol\":4990:4997  bytes32 */\n      0x00\n        /* \"@openzeppelin/contracts/utils/structs/EnumerableSet.sol\":5016:5019  set */\n      dup3\n        /* \"@openzeppelin/contracts/utils/structs/EnumerableSet.sol\":5016:5027  set._values */\n      0x00\n      add\n        /* \"@openzeppelin/contracts/utils/structs/EnumerableSet.sol\":5028:5033  index */\n      dup3\n        /* \"@openzeppelin/contracts/utils/structs/EnumerableSet.sol\":5016:5034  set._values[index] */\n      dup2\n      sload\n      dup2\n      lt\n      tag_285\n      jumpi\n      tag_286\n      tag_127\n      jump\t// in\n    tag_286:\n    tag_285:\n      swap1\n      0x00\n      mstore\n      keccak256(0x00, 0x20)\n      add\n      sload\n        /* \"@openzeppelin/contracts/utils/structs/EnumerableSet.sol\":5009:5034  return set._values[index] */\n      swap1\n      pop\n        /* \"@openzeppelin/contracts/utils/structs/EnumerableSet.sol\":4923:5041  function _at(Set storage set, uint256 index) private view returns (bytes32) {... */\n      swap3\n      swap2\n      pop\n      pop\n      jump\t// out\n    tag_204:\n      mload(0x40)\n      dup1\n      0x0120\n      add\n      0x40\n      mstore\n      dup1\n      0x60\n      dup2\n      mstore\n      0x20\n      add\n      0x60\n      dup2\n      mstore\n      0x20\n      add\n      and(0xffffff, 0x00)\n      dup2\n      mstore\n      0x20\n      add\n      and(0xffffff, 0x00)\n      dup2\n      mstore\n      0x20\n      add\n      and(0xffffff, 0x00)\n      dup2\n      mstore\n      0x20\n      add\n      and(0xffffff, 0x00)\n      dup2\n      mstore\n      0x20\n      add\n      and(0xffffff, 0x00)\n      dup2\n      mstore\n      0x20\n      add\n      iszero(iszero(0x00))\n      dup2\n      mstore\n      0x20\n      add\n      iszero(iszero(0x00))\n      dup2\n      mstore\n      pop\n      swap1\n      jump\t// out\n        /* \"#utility.yul\":7:106   */\n    tag_288:\n        /* \"#utility.yul\":59:65   */\n      0x00\n        /* \"#utility.yul\":93:98   */\n      dup2\n        /* \"#utility.yul\":87:99   */\n      mload\n        /* \"#utility.yul\":77:99   */\n      swap1\n      pop\n        /* \"#utility.yul\":7:106   */\n      swap2\n      swap1\n      pop\n      jump\t// out\n        /* \"#utility.yul\":112:281   */\n    tag_289:\n        /* \"#utility.yul\":196:207   */\n      0x00\n        /* \"#utility.yul\":230:236   */\n      dup3\n        /* \"#utility.yul\":225:228   */\n      dup3\n        /* \"#utility.yul\":218:237   */\n      mstore\n        /* \"#utility.yul\":270:274   */\n      0x20\n        /* \"#utility.yul\":265:268   */\n      dup3\n        /* \"#utility.yul\":261:275   */\n      add\n        /* \"#utility.yul\":246:275   */\n      swap1\n      pop\n        /* \"#utility.yul\":112:281   */\n      swap3\n      swap2\n      pop\n      pop\n      jump\t// out\n        /* \"#utility.yul\":287:533   */\n    tag_290:\n        /* \"#utility.yul\":368:369   */\n      0x00\n        /* \"#utility.yul\":378:491   */\n    tag_366:\n        /* \"#utility.yul\":392:398   */\n      dup4\n        /* \"#utility.yul\":389:390   */\n      dup2\n        /* \"#utility.yul\":386:399   */\n      lt\n        /* \"#utility.yul\":378:491   */\n      iszero\n      tag_368\n      jumpi\n        /* \"#utility.yul\":477:478   */\n      dup1\n        /* \"#utility.yul\":472:475   */\n      dup3\n        /* \"#utility.yul\":468:479   */\n      add\n        /* \"#utility.yul\":462:480   */\n      mload\n        /* \"#utility.yul\":458:459   */\n      dup2\n        /* \"#utility.yul\":453:456   */\n      dup5\n        /* \"#utility.yul\":449:460   */\n      add\n        /* \"#utility.yul\":442:481   */\n      mstore\n        /* \"#utility.yul\":414:416   */\n      0x20\n        /* \"#utility.yul\":411:412   */\n      dup2\n        /* \"#utility.yul\":407:417   */\n      add\n        /* \"#utility.yul\":402:417   */\n      swap1\n      pop\n        /* \"#utility.yul\":378:491   */\n      jump(tag_366)\n    tag_368:\n        /* \"#utility.yul\":525:526   */\n      0x00\n        /* \"#utility.yul\":516:522   */\n      dup5\n        /* \"#utility.yul\":511:514   */\n      dup5\n        /* \"#utility.yul\":507:523   */\n      add\n        /* \"#utility.yul\":500:527   */\n      mstore\n        /* \"#utility.yul\":349:533   */\n      pop\n        /* \"#utility.yul\":287:533   */\n      pop\n      pop\n      pop\n      jump\t// out\n        /* \"#utility.yul\":539:641   */\n    tag_291:\n        /* \"#utility.yul\":580:586   */\n      0x00\n        /* \"#utility.yul\":631:633   */\n      0x1f\n        /* \"#utility.yul\":627:634   */\n      not\n        /* \"#utility.yul\":622:624   */\n      0x1f\n        /* \"#utility.yul\":615:620   */\n      dup4\n        /* \"#utility.yul\":611:625   */\n      add\n        /* \"#utility.yul\":607:635   */\n      and\n        /* \"#utility.yul\":597:635   */\n      swap1\n      pop\n        /* \"#utility.yul\":539:641   */\n      swap2\n      swap1\n      pop\n      jump\t// out\n        /* \"#utility.yul\":647:1024   */\n    tag_292:\n        /* \"#utility.yul\":735:738   */\n      0x00\n        /* \"#utility.yul\":763:802   */\n      tag_371\n        /* \"#utility.yul\":796:801   */\n      dup3\n        /* \"#utility.yul\":763:802   */\n      tag_288\n      jump\t// in\n    tag_371:\n        /* \"#utility.yul\":818:889   */\n      tag_372\n        /* \"#utility.yul\":882:888   */\n      dup2\n        /* \"#utility.yul\":877:880   */\n      dup6\n        /* \"#utility.yul\":818:889   */\n      tag_289\n      jump\t// in\n    tag_372:\n        /* \"#utility.yul\":811:889   */\n      swap4\n      pop\n        /* \"#utility.yul\":898:963   */\n      tag_373\n        /* \"#utility.yul\":956:962   */\n      dup2\n        /* \"#utility.yul\":951:954   */\n      dup6\n        /* \"#utility.yul\":944:948   */\n      0x20\n        /* \"#utility.yul\":937:942   */\n      dup7\n        /* \"#utility.yul\":933:949   */\n      add\n        /* \"#utility.yul\":898:963   */\n      tag_290\n      jump\t// in\n    tag_373:\n        /* \"#utility.yul\":988:1017   */\n      tag_374\n        /* \"#utility.yul\":1010:1016   */\n      dup2\n        /* \"#utility.yul\":988:1017   */\n      tag_291\n      jump\t// in\n    tag_374:\n        /* \"#utility.yul\":983:986   */\n      dup5\n        /* \"#utility.yul\":979:1018   */\n      add\n        /* \"#utility.yul\":972:1018   */\n      swap2\n      pop\n        /* \"#utility.yul\":739:1024   */\n      pop\n        /* \"#utility.yul\":647:1024   */\n      swap3\n      swap2\n      pop\n      pop\n      jump\t// out\n        /* \"#utility.yul\":1030:1343   */\n    tag_28:\n        /* \"#utility.yul\":1143:1147   */\n      0x00\n        /* \"#utility.yul\":1181:1183   */\n      0x20\n        /* \"#utility.yul\":1170:1179   */\n      dup3\n        /* \"#utility.yul\":1166:1184   */\n      add\n        /* \"#utility.yul\":1158:1184   */\n      swap1\n      pop\n        /* \"#utility.yul\":1230:1239   */\n      dup2\n        /* \"#utility.yul\":1224:1228   */\n      dup2\n        /* \"#utility.yul\":1220:1240   */\n      sub\n        /* \"#utility.yul\":1216:1217   */\n      0x00\n        /* \"#utility.yul\":1205:1214   */\n      dup4\n        /* \"#utility.yul\":1201:1218   */\n      add\n        /* \"#utility.yul\":1194:1241   */\n      mstore\n        /* \"#utility.yul\":1258:1336   */\n      tag_376\n        /* \"#utility.yul\":1331:1335   */\n      dup2\n        /* \"#utility.yul\":1322:1328   */\n      dup5\n        /* \"#utility.yul\":1258:1336   */\n      tag_292\n      jump\t// in\n    tag_376:\n        /* \"#utility.yul\":1250:1336   */\n      swap1\n      pop\n        /* \"#utility.yul\":1030:1343   */\n      swap3\n      swap2\n      pop\n      pop\n      jump\t// out\n        /* \"#utility.yul\":1349:1424   */\n    tag_293:\n        /* \"#utility.yul\":1382:1388   */\n      0x00\n        /* \"#utility.yul\":1415:1417   */\n      0x40\n        /* \"#utility.yul\":1409:1418   */\n      mload\n        /* \"#utility.yul\":1399:1418   */\n      swap1\n      pop\n        /* \"#utility.yul\":1349:1424   */\n      swap1\n      jump\t// out\n        /* \"#utility.yul\":1430:1547   */\n    tag_294:\n        /* \"#utility.yul\":1539:1540   */\n      0x00\n        /* \"#utility.yul\":1536:1537   */\n      dup1\n        /* \"#utility.yul\":1529:1541   */\n      revert\n        /* \"#utility.yul\":1553:1670   */\n    tag_295:\n        /* \"#utility.yul\":1662:1663   */\n      0x00\n        /* \"#utility.yul\":1659:1660   */\n      dup1\n        /* \"#utility.yul\":1652:1664   */\n      revert\n        /* \"#utility.yul\":1676:1802   */\n    tag_296:\n        /* \"#utility.yul\":1713:1720   */\n      0x00\n        /* \"#utility.yul\":1753:1795   */\n      0xffffffffffffffffffffffffffffffffffffffff\n        /* \"#utility.yul\":1746:1751   */\n      dup3\n        /* \"#utility.yul\":1742:1796   */\n      and\n        /* \"#utility.yul\":1731:1796   */\n      swap1\n      pop\n        /* \"#utility.yul\":1676:1802   */\n      swap2\n      swap1\n      pop\n      jump\t// out\n        /* \"#utility.yul\":1808:1904   */\n    tag_297:\n        /* \"#utility.yul\":1845:1852   */\n      0x00\n        /* \"#utility.yul\":1874:1898   */\n      tag_382\n        /* \"#utility.yul\":1892:1897   */\n      dup3\n        /* \"#utility.yul\":1874:1898   */\n      tag_296\n      jump\t// in\n    tag_382:\n        /* \"#utility.yul\":1863:1898   */\n      swap1\n      pop\n        /* \"#utility.yul\":1808:1904   */\n      swap2\n      swap1\n      pop\n      jump\t// out\n        /* \"#utility.yul\":1910:2032   */\n    tag_298:\n        /* \"#utility.yul\":1983:2007   */\n      tag_384\n        /* \"#utility.yul\":2001:2006   */\n      dup2\n        /* \"#utility.yul\":1983:2007   */\n      tag_297\n      jump\t// in\n    tag_384:\n        /* \"#utility.yul\":1976:1981   */\n      dup2\n        /* \"#utility.yul\":1973:2008   */\n      eq\n        /* \"#utility.yul\":1963:2026   */\n      tag_385\n      jumpi\n        /* \"#utility.yul\":2022:2023   */\n      0x00\n        /* \"#utility.yul\":2019:2020   */\n      dup1\n        /* \"#utility.yul\":2012:2024   */\n      revert\n        /* \"#utility.yul\":1963:2026   */\n    tag_385:\n        /* \"#utility.yul\":1910:2032   */\n      pop\n      jump\t// out\n        /* \"#utility.yul\":2038:2177   */\n    tag_299:\n        /* \"#utility.yul\":2084:2089   */\n      0x00\n        /* \"#utility.yul\":2122:2128   */\n      dup2\n        /* \"#utility.yul\":2109:2129   */\n      calldataload\n        /* \"#utility.yul\":2100:2129   */\n      swap1\n      pop\n        /* \"#utility.yul\":2138:2171   */\n      tag_387\n        /* \"#utility.yul\":2165:2170   */\n      dup2\n        /* \"#utility.yul\":2138:2171   */\n      tag_298\n      jump\t// in\n    tag_387:\n        /* \"#utility.yul\":2038:2177   */\n      swap3\n      swap2\n      pop\n      pop\n      jump\t// out\n        /* \"#utility.yul\":2183:2260   */\n    tag_300:\n        /* \"#utility.yul\":2220:2227   */\n      0x00\n        /* \"#utility.yul\":2249:2254   */\n      dup2\n        /* \"#utility.yul\":2238:2254   */\n      swap1\n      pop\n        /* \"#utility.yul\":2183:2260   */\n      swap2\n      swap1\n      pop\n      jump\t// out\n        /* \"#utility.yul\":2266:2388   */\n    tag_301:\n        /* \"#utility.yul\":2339:2363   */\n      tag_390\n        /* \"#utility.yul\":2357:2362   */\n      dup2\n        /* \"#utility.yul\":2339:2363   */\n      tag_300\n      jump\t// in\n    tag_390:\n        /* \"#utility.yul\":2332:2337   */\n      dup2\n        /* \"#utility.yul\":2329:2364   */\n      eq\n        /* \"#utility.yul\":2319:2382   */\n      tag_391\n      jumpi\n        /* \"#utility.yul\":2378:2379   */\n      0x00\n        /* \"#utility.yul\":2375:2376   */\n      dup1\n        /* \"#utility.yul\":2368:2380   */\n      revert\n        /* \"#utility.yul\":2319:2382   */\n    tag_391:\n        /* \"#utility.yul\":2266:2388   */\n      pop\n      jump\t// out\n        /* \"#utility.yul\":2394:2533   */\n    tag_302:\n        /* \"#utility.yul\":2440:2445   */\n      0x00\n        /* \"#utility.yul\":2478:2484   */\n      dup2\n        /* \"#utility.yul\":2465:2485   */\n      calldataload\n        /* \"#utility.yul\":2456:2485   */\n      swap1\n      pop\n        /* \"#utility.yul\":2494:2527   */\n      tag_393\n        /* \"#utility.yul\":2521:2526   */\n      dup2\n        /* \"#utility.yul\":2494:2527   */\n      tag_301\n      jump\t// in\n    tag_393:\n        /* \"#utility.yul\":2394:2533   */\n      swap3\n      swap2\n      pop\n      pop\n      jump\t// out\n        /* \"#utility.yul\":2539:3013   */\n    tag_31:\n        /* \"#utility.yul\":2607:2613   */\n      0x00\n        /* \"#utility.yul\":2615:2621   */\n      dup1\n        /* \"#utility.yul\":2664:2666   */\n      0x40\n        /* \"#utility.yul\":2652:2661   */\n      dup4\n        /* \"#utility.yul\":2643:2650   */\n      dup6\n        /* \"#utility.yul\":2639:2662   */\n      sub\n        /* \"#utility.yul\":2635:2667   */\n      slt\n        /* \"#utility.yul\":2632:2751   */\n      iszero\n      tag_395\n      jumpi\n        /* \"#utility.yul\":2670:2749   */\n      tag_396\n      tag_294\n      jump\t// in\n    tag_396:\n        /* \"#utility.yul\":2632:2751   */\n    tag_395:\n        /* \"#utility.yul\":2790:2791   */\n      0x00\n        /* \"#utility.yul\":2815:2868   */\n      tag_397\n        /* \"#utility.yul\":2860:2867   */\n      dup6\n        /* \"#utility.yul\":2851:2857   */\n      dup3\n        /* \"#utility.yul\":2840:2849   */\n      dup7\n        /* \"#utility.yul\":2836:2858   */\n      add\n        /* \"#utility.yul\":2815:2868   */\n      tag_299\n      jump\t// in\n    tag_397:\n        /* \"#utility.yul\":2805:2868   */\n      swap3\n      pop\n        /* \"#utility.yul\":2761:2878   */\n      pop\n        /* \"#utility.yul\":2917:2919   */\n      0x20\n        /* \"#utility.yul\":2943:2996   */\n      tag_398\n        /* \"#utility.yul\":2988:2995   */\n      dup6\n        /* \"#utility.yul\":2979:2985   */\n      dup3\n        /* \"#utility.yul\":2968:2977   */\n      dup7\n        /* \"#utility.yul\":2964:2986   */\n      add\n        /* \"#utility.yul\":2943:2996   */\n      tag_302\n      jump\t// in\n    tag_398:\n        /* \"#utility.yul\":2933:2996   */\n      swap2\n      pop\n        /* \"#utility.yul\":2888:3006   */\n      pop\n        /* \"#utility.yul\":2539:3013   */\n      swap3\n      pop\n      swap3\n      swap1\n      pop\n      jump\t// out\n        /* \"#utility.yul\":3019:3109   */\n    tag_303:\n        /* \"#utility.yul\":3053:3060   */\n      0x00\n        /* \"#utility.yul\":3096:3101   */\n      dup2\n        /* \"#utility.yul\":3089:3102   */\n      iszero\n        /* \"#utility.yul\":3082:3103   */\n      iszero\n        /* \"#utility.yul\":3071:3103   */\n      swap1\n      pop\n        /* \"#utility.yul\":3019:3109   */\n      swap2\n      swap1\n      pop\n      jump\t// out\n        /* \"#utility.yul\":3115:3224   */\n    tag_304:\n        /* \"#utility.yul\":3196:3217   */\n      tag_401\n        /* \"#utility.yul\":3211:3216   */\n      dup2\n        /* \"#utility.yul\":3196:3217   */\n      tag_303\n      jump\t// in\n    tag_401:\n        /* \"#utility.yul\":3191:3194   */\n      dup3\n        /* \"#utility.yul\":3184:3218   */\n      mstore\n        /* \"#utility.yul\":3115:3224   */\n      pop\n      pop\n      jump\t// out\n        /* \"#utility.yul\":3230:3440   */\n    tag_34:\n        /* \"#utility.yul\":3317:3321   */\n      0x00\n        /* \"#utility.yul\":3355:3357   */\n      0x20\n        /* \"#utility.yul\":3344:3353   */\n      dup3\n        /* \"#utility.yul\":3340:3358   */\n      add\n        /* \"#utility.yul\":3332:3358   */\n      swap1\n      pop\n        /* \"#utility.yul\":3368:3433   */\n      tag_403\n        /* \"#utility.yul\":3430:3431   */\n      0x00\n        /* \"#utility.yul\":3419:3428   */\n      dup4\n        /* \"#utility.yul\":3415:3432   */\n      add\n        /* \"#utility.yul\":3406:3412   */\n      dup5\n        /* \"#utility.yul\":3368:3433   */\n      tag_304\n      jump\t// in\n    tag_403:\n        /* \"#utility.yul\":3230:3440   */\n      swap3\n      swap2\n      pop\n      pop\n      jump\t// out\n        /* \"#utility.yul\":3446:3563   */\n    tag_305:\n        /* \"#utility.yul\":3555:3556   */\n      0x00\n        /* \"#utility.yul\":3552:3553   */\n      dup1\n        /* \"#utility.yul\":3545:3557   */\n      revert\n        /* \"#utility.yul\":3569:3686   */\n    tag_306:\n        /* \"#utility.yul\":3678:3679   */\n      0x00\n        /* \"#utility.yul\":3675:3676   */\n      dup1\n        /* \"#utility.yul\":3668:3680   */\n      revert\n        /* \"#utility.yul\":3692:3872   */\n    tag_213:\n        /* \"#utility.yul\":3740:3817   */\n      0x4e487b7100000000000000000000000000000000000000000000000000000000\n        /* \"#utility.yul\":3737:3738   */\n      0x00\n        /* \"#utility.yul\":3730:3818   */\n      mstore\n        /* \"#utility.yul\":3837:3841   */\n      0x41\n        /* \"#utility.yul\":3834:3835   */\n      0x04\n        /* \"#utility.yul\":3827:3842   */\n      mstore\n        /* \"#utility.yul\":3861:3865   */\n      0x24\n        /* \"#utility.yul\":3858:3859   */\n      0x00\n        /* \"#utility.yul\":3851:3866   */\n      revert\n        /* \"#utility.yul\":3878:4159   */\n    tag_307:\n        /* \"#utility.yul\":3961:3988   */\n      tag_408\n        /* \"#utility.yul\":3983:3987   */\n      dup3\n        /* \"#utility.yul\":3961:3988   */\n      tag_291\n      jump\t// in\n    tag_408:\n        /* \"#utility.yul\":3953:3959   */\n      dup2\n        /* \"#utility.yul\":3949:3989   */\n      add\n        /* \"#utility.yul\":4091:4097   */\n      dup2\n        /* \"#utility.yul\":4079:4089   */\n      dup2\n        /* \"#utility.yul\":4076:4098   */\n      lt\n        /* \"#utility.yul\":4055:4073   */\n      0xffffffffffffffff\n        /* \"#utility.yul\":4043:4053   */\n      dup3\n        /* \"#utility.yul\":4040:4074   */\n      gt\n        /* \"#utility.yul\":4037:4099   */\n      or\n        /* \"#utility.yul\":4034:4122   */\n      iszero\n      tag_409\n      jumpi\n        /* \"#utility.yul\":4102:4120   */\n      tag_410\n      tag_213\n      jump\t// in\n    tag_410:\n        /* \"#utility.yul\":4034:4122   */\n    tag_409:\n        /* \"#utility.yul\":4142:4152   */\n      dup1\n        /* \"#utility.yul\":4138:4140   */\n      0x40\n        /* \"#utility.yul\":4131:4153   */\n      mstore\n        /* \"#utility.yul\":3921:4159   */\n      pop\n        /* \"#utility.yul\":3878:4159   */\n      pop\n      pop\n      jump\t// out\n        /* \"#utility.yul\":4165:4294   */\n    tag_308:\n        /* \"#utility.yul\":4199:4205   */\n      0x00\n        /* \"#utility.yul\":4226:4246   */\n      tag_412\n      tag_293\n      jump\t// in\n    tag_412:\n        /* \"#utility.yul\":4216:4246   */\n      swap1\n      pop\n        /* \"#utility.yul\":4255:4288   */\n      tag_413\n        /* \"#utility.yul\":4283:4287   */\n      dup3\n        /* \"#utility.yul\":4275:4281   */\n      dup3\n        /* \"#utility.yul\":4255:4288   */\n      tag_307\n      jump\t// in\n    tag_413:\n        /* \"#utility.yul\":4165:4294   */\n      swap2\n      swap1\n      pop\n      jump\t// out\n        /* \"#utility.yul\":4300:4608   */\n    tag_309:\n        /* \"#utility.yul\":4362:4366   */\n      0x00\n        /* \"#utility.yul\":4452:4470   */\n      0xffffffffffffffff\n        /* \"#utility.yul\":4444:4450   */\n      dup3\n        /* \"#utility.yul\":4441:4471   */\n      gt\n        /* \"#utility.yul\":4438:4494   */\n      iszero\n      tag_415\n      jumpi\n        /* \"#utility.yul\":4474:4492   */\n      tag_416\n      tag_213\n      jump\t// in\n    tag_416:\n        /* \"#utility.yul\":4438:4494   */\n    tag_415:\n        /* \"#utility.yul\":4512:4541   */\n      tag_417\n        /* \"#utility.yul\":4534:4540   */\n      dup3\n        /* \"#utility.yul\":4512:4541   */\n      tag_291\n      jump\t// in\n    tag_417:\n        /* \"#utility.yul\":4504:4541   */\n      swap1\n      pop\n        /* \"#utility.yul\":4596:4600   */\n      0x20\n        /* \"#utility.yul\":4590:4594   */\n      dup2\n        /* \"#utility.yul\":4586:4601   */\n      add\n        /* \"#utility.yul\":4578:4601   */\n      swap1\n      pop\n        /* \"#utility.yul\":4300:4608   */\n      swap2\n      swap1\n      pop\n      jump\t// out\n        /* \"#utility.yul\":4614:4760   */\n    tag_310:\n        /* \"#utility.yul\":4711:4717   */\n      dup3\n        /* \"#utility.yul\":4706:4709   */\n      dup2\n        /* \"#utility.yul\":4701:4704   */\n      dup4\n        /* \"#utility.yul\":4688:4718   */\n      calldatacopy\n        /* \"#utility.yul\":4752:4753   */\n      0x00\n        /* \"#utility.yul\":4743:4749   */\n      dup4\n        /* \"#utility.yul\":4738:4741   */\n      dup4\n        /* \"#utility.yul\":4734:4750   */\n      add\n        /* \"#utility.yul\":4727:4754   */\n      mstore\n        /* \"#utility.yul\":4614:4760   */\n      pop\n      pop\n      pop\n      jump\t// out\n        /* \"#utility.yul\":4766:5191   */\n    tag_311:\n        /* \"#utility.yul\":4844:4849   */\n      0x00\n        /* \"#utility.yul\":4869:4935   */\n      tag_420\n        /* \"#utility.yul\":4885:4934   */\n      tag_421\n        /* \"#utility.yul\":4927:4933   */\n      dup5\n        /* \"#utility.yul\":4885:4934   */\n      tag_309\n      jump\t// in\n    tag_421:\n        /* \"#utility.yul\":4869:4935   */\n      tag_308\n      jump\t// in\n    tag_420:\n        /* \"#utility.yul\":4860:4935   */\n      swap1\n      pop\n        /* \"#utility.yul\":4958:4964   */\n      dup3\n        /* \"#utility.yul\":4951:4956   */\n      dup2\n        /* \"#utility.yul\":4944:4965   */\n      mstore\n        /* \"#utility.yul\":4996:5000   */\n      0x20\n        /* \"#utility.yul\":4989:4994   */\n      dup2\n        /* \"#utility.yul\":4985:5001   */\n      add\n        /* \"#utility.yul\":5034:5037   */\n      dup5\n        /* \"#utility.yul\":5025:5031   */\n      dup5\n        /* \"#utility.yul\":5020:5023   */\n      dup5\n        /* \"#utility.yul\":5016:5032   */\n      add\n        /* \"#utility.yul\":5013:5038   */\n      gt\n        /* \"#utility.yul\":5010:5122   */\n      iszero\n      tag_422\n      jumpi\n        /* \"#utility.yul\":5041:5120   */\n      tag_423\n      tag_306\n      jump\t// in\n    tag_423:\n        /* \"#utility.yul\":5010:5122   */\n    tag_422:\n        /* \"#utility.yul\":5131:5185   */\n      tag_424\n        /* \"#utility.yul\":5178:5184   */\n      dup5\n        /* \"#utility.yul\":5173:5176   */\n      dup3\n        /* \"#utility.yul\":5168:5171   */\n      dup6\n        /* \"#utility.yul\":5131:5185   */\n      tag_310\n      jump\t// in\n    tag_424:\n        /* \"#utility.yul\":4850:5191   */\n      pop\n        /* \"#utility.yul\":4766:5191   */\n      swap4\n      swap3\n      pop\n      pop\n      pop\n      jump\t// out\n        /* \"#utility.yul\":5211:5551   */\n    tag_312:\n        /* \"#utility.yul\":5267:5272   */\n      0x00\n        /* \"#utility.yul\":5316:5319   */\n      dup3\n        /* \"#utility.yul\":5309:5313   */\n      0x1f\n        /* \"#utility.yul\":5301:5307   */\n      dup4\n        /* \"#utility.yul\":5297:5314   */\n      add\n        /* \"#utility.yul\":5293:5320   */\n      slt\n        /* \"#utility.yul\":5283:5405   */\n      tag_426\n      jumpi\n        /* \"#utility.yul\":5324:5403   */\n      tag_427\n      tag_305\n      jump\t// in\n    tag_427:\n        /* \"#utility.yul\":5283:5405   */\n    tag_426:\n        /* \"#utility.yul\":5441:5447   */\n      dup2\n        /* \"#utility.yul\":5428:5448   */\n      calldataload\n        /* \"#utility.yul\":5466:5545   */\n      tag_428\n        /* \"#utility.yul\":5541:5544   */\n      dup5\n        /* \"#utility.yul\":5533:5539   */\n      dup3\n        /* \"#utility.yul\":5526:5530   */\n      0x20\n        /* \"#utility.yul\":5518:5524   */\n      dup7\n        /* \"#utility.yul\":5514:5531   */\n      add\n        /* \"#utility.yul\":5466:5545   */\n      tag_311\n      jump\t// in\n    tag_428:\n        /* \"#utility.yul\":5457:5545   */\n      swap2\n      pop\n        /* \"#utility.yul\":5273:5551   */\n      pop\n        /* \"#utility.yul\":5211:5551   */\n      swap3\n      swap2\n      pop\n      pop\n      jump\t// out\n        /* \"#utility.yul\":5557:5648   */\n    tag_313:\n        /* \"#utility.yul\":5593:5600   */\n      0x00\n        /* \"#utility.yul\":5633:5641   */\n      0xffffff\n        /* \"#utility.yul\":5626:5631   */\n      dup3\n        /* \"#utility.yul\":5622:5642   */\n      and\n        /* \"#utility.yul\":5611:5642   */\n      swap1\n      pop\n        /* \"#utility.yul\":5557:5648   */\n      swap2\n      swap1\n      pop\n      jump\t// out\n        /* \"#utility.yul\":5654:5774   */\n    tag_314:\n        /* \"#utility.yul\":5726:5749   */\n      tag_431\n        /* \"#utility.yul\":5743:5748   */\n      dup2\n        /* \"#utility.yul\":5726:5749   */\n      tag_313\n      jump\t// in\n    tag_431:\n        /* \"#utility.yul\":5719:5724   */\n      dup2\n        /* \"#utility.yul\":5716:5750   */\n      eq\n        /* \"#utility.yul\":5706:5768   */\n      tag_432\n      jumpi\n        /* \"#utility.yul\":5764:5765   */\n      0x00\n        /* \"#utility.yul\":5761:5762   */\n      dup1\n        /* \"#utility.yul\":5754:5766   */\n      revert\n        /* \"#utility.yul\":5706:5768   */\n    tag_432:\n        /* \"#utility.yul\":5654:5774   */\n      pop\n      jump\t// out\n        /* \"#utility.yul\":5780:5917   */\n    tag_315:\n        /* \"#utility.yul\":5825:5830   */\n      0x00\n        /* \"#utility.yul\":5863:5869   */\n      dup2\n        /* \"#utility.yul\":5850:5870   */\n      calldataload\n        /* \"#utility.yul\":5841:5870   */\n      swap1\n      pop\n        /* \"#utility.yul\":5879:5911   */\n      tag_434\n        /* \"#utility.yul\":5905:5910   */\n      dup2\n        /* \"#utility.yul\":5879:5911   */\n      tag_314\n      jump\t// in\n    tag_434:\n        /* \"#utility.yul\":5780:5917   */\n      swap3\n      swap2\n      pop\n      pop\n      jump\t// out\n        /* \"#utility.yul\":5923:6575   */\n    tag_37:\n        /* \"#utility.yul\":6000:6006   */\n      0x00\n        /* \"#utility.yul\":6008:6014   */\n      dup1\n        /* \"#utility.yul\":6057:6059   */\n      0x40\n        /* \"#utility.yul\":6045:6054   */\n      dup4\n        /* \"#utility.yul\":6036:6043   */\n      dup6\n        /* \"#utility.yul\":6032:6055   */\n      sub\n        /* \"#utility.yul\":6028:6060   */\n      slt\n        /* \"#utility.yul\":6025:6144   */\n      iszero\n      tag_436\n      jumpi\n        /* \"#utility.yul\":6063:6142   */\n      tag_437\n      tag_294\n      jump\t// in\n    tag_437:\n        /* \"#utility.yul\":6025:6144   */\n    tag_436:\n        /* \"#utility.yul\":6211:6212   */\n      0x00\n        /* \"#utility.yul\":6200:6209   */\n      dup4\n        /* \"#utility.yul\":6196:6213   */\n      add\n        /* \"#utility.yul\":6183:6214   */\n      calldataload\n        /* \"#utility.yul\":6241:6259   */\n      0xffffffffffffffff\n        /* \"#utility.yul\":6233:6239   */\n      dup2\n        /* \"#utility.yul\":6230:6260   */\n      gt\n        /* \"#utility.yul\":6227:6344   */\n      iszero\n      tag_438\n      jumpi\n        /* \"#utility.yul\":6263:6342   */\n      tag_439\n      tag_295\n      jump\t// in\n    tag_439:\n        /* \"#utility.yul\":6227:6344   */\n    tag_438:\n        /* \"#utility.yul\":6368:6431   */\n      tag_440\n        /* \"#utility.yul\":6423:6430   */\n      dup6\n        /* \"#utility.yul\":6414:6420   */\n      dup3\n        /* \"#utility.yul\":6403:6412   */\n      dup7\n        /* \"#utility.yul\":6399:6421   */\n      add\n        /* \"#utility.yul\":6368:6431   */\n      tag_312\n      jump\t// in\n    tag_440:\n        /* \"#utility.yul\":6358:6431   */\n      swap3\n      pop\n        /* \"#utility.yul\":6154:6441   */\n      pop\n        /* \"#utility.yul\":6480:6482   */\n      0x20\n        /* \"#utility.yul\":6506:6558   */\n      tag_441\n        /* \"#utility.yul\":6550:6557   */\n      dup6\n        /* \"#utility.yul\":6541:6547   */\n      dup3\n        /* \"#utility.yul\":6530:6539   */\n      dup7\n        /* \"#utility.yul\":6526:6548   */\n      add\n        /* \"#utility.yul\":6506:6558   */\n      tag_315\n      jump\t// in\n    tag_441:\n        /* \"#utility.yul\":6496:6558   */\n      swap2\n      pop\n        /* \"#utility.yul\":6451:6568   */\n      pop\n        /* \"#utility.yul\":5923:6575   */\n      swap3\n      pop\n      swap3\n      swap1\n      pop\n      jump\t// out\n        /* \"#utility.yul\":6581:6699   */\n    tag_316:\n        /* \"#utility.yul\":6668:6692   */\n      tag_443\n        /* \"#utility.yul\":6686:6691   */\n      dup2\n        /* \"#utility.yul\":6668:6692   */\n      tag_300\n      jump\t// in\n    tag_443:\n        /* \"#utility.yul\":6663:6666   */\n      dup3\n        /* \"#utility.yul\":6656:6693   */\n      mstore\n        /* \"#utility.yul\":6581:6699   */\n      pop\n      pop\n      jump\t// out\n        /* \"#utility.yul\":6705:6927   */\n    tag_40:\n        /* \"#utility.yul\":6798:6802   */\n      0x00\n        /* \"#utility.yul\":6836:6838   */\n      0x20\n        /* \"#utility.yul\":6825:6834   */\n      dup3\n        /* \"#utility.yul\":6821:6839   */\n      add\n        /* \"#utility.yul\":6813:6839   */\n      swap1\n      pop\n        /* \"#utility.yul\":6849:6920   */\n      tag_445\n        /* \"#utility.yul\":6917:6918   */\n      0x00\n        /* \"#utility.yul\":6906:6915   */\n      dup4\n        /* \"#utility.yul\":6902:6919   */\n      add\n        /* \"#utility.yul\":6893:6899   */\n      dup5\n        /* \"#utility.yul\":6849:6920   */\n      tag_316\n      jump\t// in\n    tag_445:\n        /* \"#utility.yul\":6705:6927   */\n      swap3\n      swap2\n      pop\n      pop\n      jump\t// out\n        /* \"#utility.yul\":6933:7042   */\n    tag_317:\n        /* \"#utility.yul\":7016:7017   */\n      0x03\n        /* \"#utility.yul\":7009:7014   */\n      dup2\n        /* \"#utility.yul\":7006:7018   */\n      lt\n        /* \"#utility.yul\":6996:7036   */\n      tag_447\n      jumpi\n        /* \"#utility.yul\":7032:7033   */\n      0x00\n        /* \"#utility.yul\":7029:7030   */\n      dup1\n        /* \"#utility.yul\":7022:7034   */\n      revert\n        /* \"#utility.yul\":6996:7036   */\n    tag_447:\n        /* \"#utility.yul\":6933:7042   */\n      pop\n      jump\t// out\n        /* \"#utility.yul\":7048:7207   */\n    tag_318:\n        /* \"#utility.yul\":7104:7109   */\n      0x00\n        /* \"#utility.yul\":7142:7148   */\n      dup2\n        /* \"#utility.yul\":7129:7149   */\n      calldataload\n        /* \"#utility.yul\":7120:7149   */\n      swap1\n      pop\n        /* \"#utility.yul\":7158:7201   */\n      tag_449\n        /* \"#utility.yul\":7195:7200   */\n      dup2\n        /* \"#utility.yul\":7158:7201   */\n      tag_317\n      jump\t// in\n    tag_449:\n        /* \"#utility.yul\":7048:7207   */\n      swap3\n      swap2\n      pop\n      pop\n      jump\t// out\n        /* \"#utility.yul\":7213:7705   */\n    tag_46:\n        /* \"#utility.yul\":7290:7296   */\n      0x00\n        /* \"#utility.yul\":7298:7304   */\n      dup1\n        /* \"#utility.yul\":7347:7349   */\n      0x40\n        /* \"#utility.yul\":7335:7344   */\n      dup4\n        /* \"#utility.yul\":7326:7333   */\n      dup6\n        /* \"#utility.yul\":7322:7345   */\n      sub\n        /* \"#utility.yul\":7318:7350   */\n      slt\n        /* \"#utility.yul\":7315:7434   */\n      iszero\n      tag_451\n      jumpi\n        /* \"#utility.yul\":7353:7432   */\n      tag_452\n      tag_294\n      jump\t// in\n    tag_452:\n        /* \"#utility.yul\":7315:7434   */\n    tag_451:\n        /* \"#utility.yul\":7473:7474   */\n      0x00\n        /* \"#utility.yul\":7498:7550   */\n      tag_453\n        /* \"#utility.yul\":7542:7549   */\n      dup6\n        /* \"#utility.yul\":7533:7539   */\n      dup3\n        /* \"#utility.yul\":7522:7531   */\n      dup7\n        /* \"#utility.yul\":7518:7540   */\n      add\n        /* \"#utility.yul\":7498:7550   */\n      tag_315\n      jump\t// in\n    tag_453:\n        /* \"#utility.yul\":7488:7550   */\n      swap3\n      pop\n        /* \"#utility.yul\":7444:7560   */\n      pop\n        /* \"#utility.yul\":7599:7601   */\n      0x20\n        /* \"#utility.yul\":7625:7688   */\n      tag_454\n        /* \"#utility.yul\":7680:7687   */\n      dup6\n        /* \"#utility.yul\":7671:7677   */\n      dup3\n        /* \"#utility.yul\":7660:7669   */\n      dup7\n        /* \"#utility.yul\":7656:7678   */\n      add\n        /* \"#utility.yul\":7625:7688   */\n      tag_318\n      jump\t// in\n    tag_454:\n        /* \"#utility.yul\":7615:7688   */\n      swap2\n      pop\n        /* \"#utility.yul\":7570:7698   */\n      pop\n        /* \"#utility.yul\":7213:7705   */\n      swap3\n      pop\n      swap3\n      swap1\n      pop\n      jump\t// out\n        /* \"#utility.yul\":7711:8330   */\n    tag_50:\n        /* \"#utility.yul\":7788:7794   */\n      0x00\n        /* \"#utility.yul\":7796:7802   */\n      dup1\n        /* \"#utility.yul\":7804:7810   */\n      0x00\n        /* \"#utility.yul\":7853:7855   */\n      0x60\n        /* \"#utility.yul\":7841:7850   */\n      dup5\n        /* \"#utility.yul\":7832:7839   */\n      dup7\n        /* \"#utility.yul\":7828:7851   */\n      sub\n        /* \"#utility.yul\":7824:7856   */\n      slt\n        /* \"#utility.yul\":7821:7940   */\n      iszero\n      tag_456\n      jumpi\n        /* \"#utility.yul\":7859:7938   */\n      tag_457\n      tag_294\n      jump\t// in\n    tag_457:\n        /* \"#utility.yul\":7821:7940   */\n    tag_456:\n        /* \"#utility.yul\":7979:7980   */\n      0x00\n        /* \"#utility.yul\":8004:8057   */\n      tag_458\n        /* \"#utility.yul\":8049:8056   */\n      dup7\n        /* \"#utility.yul\":8040:8046   */\n      dup3\n        /* \"#utility.yul\":8029:8038   */\n      dup8\n        /* \"#utility.yul\":8025:8047   */\n      add\n        /* \"#utility.yul\":8004:8057   */\n      tag_299\n      jump\t// in\n    tag_458:\n        /* \"#utility.yul\":7994:8057   */\n      swap4\n      pop\n        /* \"#utility.yul\":7950:8067   */\n      pop\n        /* \"#utility.yul\":8106:8108   */\n      0x20\n        /* \"#utility.yul\":8132:8185   */\n      tag_459\n        /* \"#utility.yul\":8177:8184   */\n      dup7\n        /* \"#utility.yul\":8168:8174   */\n      dup3\n        /* \"#utility.yul\":8157:8166   */\n      dup8\n        /* \"#utility.yul\":8153:8175   */\n      add\n        /* \"#utility.yul\":8132:8185   */\n      tag_299\n      jump\t// in\n    tag_459:\n        /* \"#utility.yul\":8122:8185   */\n      swap3\n      pop\n        /* \"#utility.yul\":8077:8195   */\n      pop\n        /* \"#utility.yul\":8234:8236   */\n      0x40\n        /* \"#utility.yul\":8260:8313   */\n      tag_460\n        /* \"#utility.yul\":8305:8312   */\n      dup7\n        /* \"#utility.yul\":8296:8302   */\n      dup3\n        /* \"#utility.yul\":8285:8294   */\n      dup8\n        /* \"#utility.yul\":8281:8303   */\n      add\n        /* \"#utility.yul\":8260:8313   */\n      tag_302\n      jump\t// in\n    tag_460:\n        /* \"#utility.yul\":8250:8313   */\n      swap2\n      pop\n        /* \"#utility.yul\":8205:8323   */\n      pop\n        /* \"#utility.yul\":7711:8330   */\n      swap3\n      pop\n      swap3\n      pop\n      swap3\n      jump\t// out\n        /* \"#utility.yul\":8336:8665   */\n    tag_55:\n        /* \"#utility.yul\":8395:8401   */\n      0x00\n        /* \"#utility.yul\":8444:8446   */\n      0x20\n        /* \"#utility.yul\":8432:8441   */\n      dup3\n        /* \"#utility.yul\":8423:8430   */\n      dup5\n        /* \"#utility.yul\":8419:8442   */\n      sub\n        /* \"#utility.yul\":8415:8447   */\n      slt\n        /* \"#utility.yul\":8412:8531   */\n      iszero\n      tag_462\n      jumpi\n        /* \"#utility.yul\":8450:8529   */\n      tag_463\n      tag_294\n      jump\t// in\n    tag_463:\n        /* \"#utility.yul\":8412:8531   */\n    tag_462:\n        /* \"#utility.yul\":8570:8571   */\n      0x00\n        /* \"#utility.yul\":8595:8648   */\n      tag_464\n        /* \"#utility.yul\":8640:8647   */\n      dup5\n        /* \"#utility.yul\":8631:8637   */\n      dup3\n        /* \"#utility.yul\":8620:8629   */\n      dup6\n        /* \"#utility.yul\":8616:8638   */\n      add\n        /* \"#utility.yul\":8595:8648   */\n      tag_299\n      jump\t// in\n    tag_464:\n        /* \"#utility.yul\":8585:8648   */\n      swap2\n      pop\n        /* \"#utility.yul\":8541:8658   */\n      pop\n        /* \"#utility.yul\":8336:8665   */\n      swap3\n      swap2\n      pop\n      pop\n      jump\t// out\n        /* \"#utility.yul\":8671:8786   */\n    tag_319:\n        /* \"#utility.yul\":8756:8779   */\n      tag_466\n        /* \"#utility.yul\":8773:8778   */\n      dup2\n        /* \"#utility.yul\":8756:8779   */\n      tag_313\n      jump\t// in\n    tag_466:\n        /* \"#utility.yul\":8751:8754   */\n      dup3\n        /* \"#utility.yul\":8744:8780   */\n      mstore\n        /* \"#utility.yul\":8671:8786   */\n      pop\n      pop\n      jump\t// out\n        /* \"#utility.yul\":8792:9010   */\n    tag_58:\n        /* \"#utility.yul\":8883:8887   */\n      0x00\n        /* \"#utility.yul\":8921:8923   */\n      0x20\n        /* \"#utility.yul\":8910:8919   */\n      dup3\n        /* \"#utility.yul\":8906:8924   */\n      add\n        /* \"#utility.yul\":8898:8924   */\n      swap1\n      pop\n        /* \"#utility.yul\":8934:9003   */\n      tag_468\n        /* \"#utility.yul\":9000:9001   */\n      0x00\n        /* \"#utility.yul\":8989:8998   */\n      dup4\n        /* \"#utility.yul\":8985:9002   */\n      add\n        /* \"#utility.yul\":8976:8982   */\n      dup5\n        /* \"#utility.yul\":8934:9003   */\n      tag_319\n      jump\t// in\n    tag_468:\n        /* \"#utility.yul\":8792:9010   */\n      swap3\n      swap2\n      pop\n      pop\n      jump\t// out\n        /* \"#utility.yul\":9016:9102   */\n    tag_320:\n        /* \"#utility.yul\":9051:9058   */\n      0x00\n        /* \"#utility.yul\":9091:9095   */\n      0xff\n        /* \"#utility.yul\":9084:9089   */\n      dup3\n        /* \"#utility.yul\":9080:9096   */\n      and\n        /* \"#utility.yul\":9069:9096   */\n      swap1\n      pop\n        /* \"#utility.yul\":9016:9102   */\n      swap2\n      swap1\n      pop\n      jump\t// out\n        /* \"#utility.yul\":9108:9220   */\n    tag_321:\n        /* \"#utility.yul\":9191:9213   */\n      tag_471\n        /* \"#utility.yul\":9207:9212   */\n      dup2\n        /* \"#utility.yul\":9191:9213   */\n      tag_320\n      jump\t// in\n    tag_471:\n        /* \"#utility.yul\":9186:9189   */\n      dup3\n        /* \"#utility.yul\":9179:9214   */\n      mstore\n        /* \"#utility.yul\":9108:9220   */\n      pop\n      pop\n      jump\t// out\n        /* \"#utility.yul\":9226:9440   */\n    tag_62:\n        /* \"#utility.yul\":9315:9319   */\n      0x00\n        /* \"#utility.yul\":9353:9355   */\n      0x20\n        /* \"#utility.yul\":9342:9351   */\n      dup3\n        /* \"#utility.yul\":9338:9356   */\n      add\n        /* \"#utility.yul\":9330:9356   */\n      swap1\n      pop\n        /* \"#utility.yul\":9366:9433   */\n      tag_473\n        /* \"#utility.yul\":9430:9431   */\n      0x00\n        /* \"#utility.yul\":9419:9428   */\n      dup4\n        /* \"#utility.yul\":9415:9432   */\n      add\n        /* \"#utility.yul\":9406:9412   */\n      dup5\n        /* \"#utility.yul\":9366:9433   */\n      tag_321\n      jump\t// in\n    tag_473:\n        /* \"#utility.yul\":9226:9440   */\n      swap3\n      swap2\n      pop\n      pop\n      jump\t// out\n        /* \"#utility.yul\":9446:9564   */\n    tag_322:\n        /* \"#utility.yul\":9533:9557   */\n      tag_475\n        /* \"#utility.yul\":9551:9556   */\n      dup2\n        /* \"#utility.yul\":9533:9557   */\n      tag_297\n      jump\t// in\n    tag_475:\n        /* \"#utility.yul\":9528:9531   */\n      dup3\n        /* \"#utility.yul\":9521:9558   */\n      mstore\n        /* \"#utility.yul\":9446:9564   */\n      pop\n      pop\n      jump\t// out\n        /* \"#utility.yul\":9570:9792   */\n    tag_79:\n        /* \"#utility.yul\":9663:9667   */\n      0x00\n        /* \"#utility.yul\":9701:9703   */\n      0x20\n        /* \"#utility.yul\":9690:9699   */\n      dup3\n        /* \"#utility.yul\":9686:9704   */\n      add\n        /* \"#utility.yul\":9678:9704   */\n      swap1\n      pop\n        /* \"#utility.yul\":9714:9785   */\n      tag_477\n        /* \"#utility.yul\":9782:9783   */\n      0x00\n        /* \"#utility.yul\":9771:9780   */\n      dup4\n        /* \"#utility.yul\":9767:9784   */\n      add\n        /* \"#utility.yul\":9758:9764   */\n      dup5\n        /* \"#utility.yul\":9714:9785   */\n      tag_322\n      jump\t// in\n    tag_477:\n        /* \"#utility.yul\":9570:9792   */\n      swap3\n      swap2\n      pop\n      pop\n      jump\t// out\n        /* \"#utility.yul\":9798:10272   */\n    tag_95:\n        /* \"#utility.yul\":9866:9872   */\n      0x00\n        /* \"#utility.yul\":9874:9880   */\n      dup1\n        /* \"#utility.yul\":9923:9925   */\n      0x40\n        /* \"#utility.yul\":9911:9920   */\n      dup4\n        /* \"#utility.yul\":9902:9909   */\n      dup6\n        /* \"#utility.yul\":9898:9921   */\n      sub\n        /* \"#utility.yul\":9894:9926   */\n      slt\n        /* \"#utility.yul\":9891:10010   */\n      iszero\n      tag_479\n      jumpi\n        /* \"#utility.yul\":9929:10008   */\n      tag_480\n      tag_294\n      jump\t// in\n    tag_480:\n        /* \"#utility.yul\":9891:10010   */\n    tag_479:\n        /* \"#utility.yul\":10049:10050   */\n      0x00\n        /* \"#utility.yul\":10074:10127   */\n      tag_481\n        /* \"#utility.yul\":10119:10126   */\n      dup6\n        /* \"#utility.yul\":10110:10116   */\n      dup3\n        /* \"#utility.yul\":10099:10108   */\n      dup7\n        /* \"#utility.yul\":10095:10117   */\n      add\n        /* \"#utility.yul\":10074:10127   */\n      tag_299\n      jump\t// in\n    tag_481:\n        /* \"#utility.yul\":10064:10127   */\n      swap3\n      pop\n        /* \"#utility.yul\":10020:10137   */\n      pop\n        /* \"#utility.yul\":10176:10178   */\n      0x20\n        /* \"#utility.yul\":10202:10255   */\n      tag_482\n        /* \"#utility.yul\":10247:10254   */\n      dup6\n        /* \"#utility.yul\":10238:10244   */\n      dup3\n        /* \"#utility.yul\":10227:10236   */\n      dup7\n        /* \"#utility.yul\":10223:10245   */\n      add\n        /* \"#utility.yul\":10202:10255   */\n      tag_299\n      jump\t// in\n    tag_482:\n        /* \"#utility.yul\":10192:10255   */\n      swap2\n      pop\n        /* \"#utility.yul\":10147:10265   */\n      pop\n        /* \"#utility.yul\":9798:10272   */\n      swap3\n      pop\n      swap3\n      swap1\n      pop\n      jump\t// out\n        /* \"#utility.yul\":10278:10605   */\n    tag_100:\n        /* \"#utility.yul\":10336:10342   */\n      0x00\n        /* \"#utility.yul\":10385:10387   */\n      0x20\n        /* \"#utility.yul\":10373:10382   */\n      dup3\n        /* \"#utility.yul\":10364:10371   */\n      dup5\n        /* \"#utility.yul\":10360:10383   */\n      sub\n        /* \"#utility.yul\":10356:10388   */\n      slt\n        /* \"#utility.yul\":10353:10472   */\n      iszero\n      tag_484\n      jumpi\n        /* \"#utility.yul\":10391:10470   */\n      tag_485\n      tag_294\n      jump\t// in\n    tag_485:\n        /* \"#utility.yul\":10353:10472   */\n    tag_484:\n        /* \"#utility.yul\":10511:10512   */\n      0x00\n        /* \"#utility.yul\":10536:10588   */\n      tag_486\n        /* \"#utility.yul\":10580:10587   */\n      dup5\n        /* \"#utility.yul\":10571:10577   */\n      dup3\n        /* \"#utility.yul\":10560:10569   */\n      dup6\n        /* \"#utility.yul\":10556:10578   */\n      add\n        /* \"#utility.yul\":10536:10588   */\n      tag_315\n      jump\t// in\n    tag_486:\n        /* \"#utility.yul\":10526:10588   */\n      swap2\n      pop\n        /* \"#utility.yul\":10482:10598   */\n      pop\n        /* \"#utility.yul\":10278:10605   */\n      swap3\n      swap2\n      pop\n      pop\n      jump\t// out\n        /* \"#utility.yul\":10611:10725   */\n    tag_323:\n        /* \"#utility.yul\":10678:10684   */\n      0x00\n        /* \"#utility.yul\":10712:10717   */\n      dup2\n        /* \"#utility.yul\":10706:10718   */\n      mload\n        /* \"#utility.yul\":10696:10718   */\n      swap1\n      pop\n        /* \"#utility.yul\":10611:10725   */\n      swap2\n      swap1\n      pop\n      jump\t// out\n        /* \"#utility.yul\":10731:10905   */\n    tag_324:\n        /* \"#utility.yul\":10820:10831   */\n      0x00\n        /* \"#utility.yul\":10854:10860   */\n      dup3\n        /* \"#utility.yul\":10849:10852   */\n      dup3\n        /* \"#utility.yul\":10842:10861   */\n      mstore\n        /* \"#utility.yul\":10894:10898   */\n      0x20\n        /* \"#utility.yul\":10889:10892   */\n      dup3\n        /* \"#utility.yul\":10885:10899   */\n      add\n        /* \"#utility.yul\":10870:10899   */\n      swap1\n      pop\n        /* \"#utility.yul\":10731:10905   */\n      swap3\n      swap2\n      pop\n      pop\n      jump\t// out\n        /* \"#utility.yul\":10911:11043   */\n    tag_325:\n        /* \"#utility.yul\":10978:10982   */\n      0x00\n        /* \"#utility.yul\":11001:11004   */\n      dup2\n        /* \"#utility.yul\":10993:11004   */\n      swap1\n      pop\n        /* \"#utility.yul\":11031:11035   */\n      0x20\n        /* \"#utility.yul\":11026:11029   */\n      dup3\n        /* \"#utility.yul\":11022:11036   */\n      add\n        /* \"#utility.yul\":11014:11036   */\n      swap1\n      pop\n        /* \"#utility.yul\":10911:11043   */\n      swap2\n      swap1\n      pop\n      jump\t// out\n        /* \"#utility.yul\":11049:11157   */\n    tag_326:\n        /* \"#utility.yul\":11126:11150   */\n      tag_491\n        /* \"#utility.yul\":11144:11149   */\n      dup2\n        /* \"#utility.yul\":11126:11150   */\n      tag_297\n      jump\t// in\n    tag_491:\n        /* \"#utility.yul\":11121:11124   */\n      dup3\n        /* \"#utility.yul\":11114:11151   */\n      mstore\n        /* \"#utility.yul\":11049:11157   */\n      pop\n      pop\n      jump\t// out\n        /* \"#utility.yul\":11163:11342   */\n    tag_327:\n        /* \"#utility.yul\":11232:11242   */\n      0x00\n        /* \"#utility.yul\":11253:11299   */\n      tag_493\n        /* \"#utility.yul\":11295:11298   */\n      dup4\n        /* \"#utility.yul\":11287:11293   */\n      dup4\n        /* \"#utility.yul\":11253:11299   */\n      tag_326\n      jump\t// in\n    tag_493:\n        /* \"#utility.yul\":11331:11335   */\n      0x20\n        /* \"#utility.yul\":11326:11329   */\n      dup4\n        /* \"#utility.yul\":11322:11336   */\n      add\n        /* \"#utility.yul\":11308:11336   */\n      swap1\n      pop\n        /* \"#utility.yul\":11163:11342   */\n      swap3\n      swap2\n      pop\n      pop\n      jump\t// out\n        /* \"#utility.yul\":11348:11461   */\n    tag_328:\n        /* \"#utility.yul\":11418:11422   */\n      0x00\n        /* \"#utility.yul\":11450:11454   */\n      0x20\n        /* \"#utility.yul\":11445:11448   */\n      dup3\n        /* \"#utility.yul\":11441:11455   */\n      add\n        /* \"#utility.yul\":11433:11455   */\n      swap1\n      pop\n        /* \"#utility.yul\":11348:11461   */\n      swap2\n      swap1\n      pop\n      jump\t// out\n        /* \"#utility.yul\":11497:12209   */\n    tag_329:\n        /* \"#utility.yul\":11606:11609   */\n      0x00\n        /* \"#utility.yul\":11635:11689   */\n      tag_496\n        /* \"#utility.yul\":11683:11688   */\n      dup3\n        /* \"#utility.yul\":11635:11689   */\n      tag_323\n      jump\t// in\n    tag_496:\n        /* \"#utility.yul\":11705:11781   */\n      tag_497\n        /* \"#utility.yul\":11774:11780   */\n      dup2\n        /* \"#utility.yul\":11769:11772   */\n      dup6\n        /* \"#utility.yul\":11705:11781   */\n      tag_324\n      jump\t// in\n    tag_497:\n        /* \"#utility.yul\":11698:11781   */\n      swap4\n      pop\n        /* \"#utility.yul\":11805:11861   */\n      tag_498\n        /* \"#utility.yul\":11855:11860   */\n      dup4\n        /* \"#utility.yul\":11805:11861   */\n      tag_325\n      jump\t// in\n    tag_498:\n        /* \"#utility.yul\":11884:11891   */\n      dup1\n        /* \"#utility.yul\":11915:11916   */\n      0x00\n        /* \"#utility.yul\":11900:12184   */\n    tag_499:\n        /* \"#utility.yul\":11925:11931   */\n      dup4\n        /* \"#utility.yul\":11922:11923   */\n      dup2\n        /* \"#utility.yul\":11919:11932   */\n      lt\n        /* \"#utility.yul\":11900:12184   */\n      iszero\n      tag_501\n      jumpi\n        /* \"#utility.yul\":12001:12007   */\n      dup2\n        /* \"#utility.yul\":11995:12008   */\n      mload\n        /* \"#utility.yul\":12028:12091   */\n      tag_502\n        /* \"#utility.yul\":12087:12090   */\n      dup9\n        /* \"#utility.yul\":12072:12085   */\n      dup3\n        /* \"#utility.yul\":12028:12091   */\n      tag_327\n      jump\t// in\n    tag_502:\n        /* \"#utility.yul\":12021:12091   */\n      swap8\n      pop\n        /* \"#utility.yul\":12114:12174   */\n      tag_503\n        /* \"#utility.yul\":12167:12173   */\n      dup4\n        /* \"#utility.yul\":12114:12174   */\n      tag_328\n      jump\t// in\n    tag_503:\n        /* \"#utility.yul\":12104:12174   */\n      swap3\n      pop\n        /* \"#utility.yul\":11960:12184   */\n      pop\n        /* \"#utility.yul\":11947:11948   */\n      0x01\n        /* \"#utility.yul\":11944:11945   */\n      dup2\n        /* \"#utility.yul\":11940:11949   */\n      add\n        /* \"#utility.yul\":11935:11949   */\n      swap1\n      pop\n        /* \"#utility.yul\":11900:12184   */\n      jump(tag_499)\n    tag_501:\n        /* \"#utility.yul\":11904:11918   */\n      pop\n        /* \"#utility.yul\":12200:12203   */\n      dup6\n        /* \"#utility.yul\":12193:12203   */\n      swap4\n      pop\n        /* \"#utility.yul\":11611:12209   */\n      pop\n      pop\n      pop\n        /* \"#utility.yul\":11497:12209   */\n      swap3\n      swap2\n      pop\n      pop\n      jump\t// out\n        /* \"#utility.yul\":12215:12374   */\n    tag_330:\n        /* \"#utility.yul\":12289:12300   */\n      0x00\n        /* \"#utility.yul\":12323:12329   */\n      dup3\n        /* \"#utility.yul\":12318:12321   */\n      dup3\n        /* \"#utility.yul\":12311:12330   */\n      mstore\n        /* \"#utility.yul\":12363:12367   */\n      0x20\n        /* \"#utility.yul\":12358:12361   */\n      dup3\n        /* \"#utility.yul\":12354:12368   */\n      add\n        /* \"#utility.yul\":12339:12368   */\n      swap1\n      pop\n        /* \"#utility.yul\":12215:12374   */\n      swap3\n      swap2\n      pop\n      pop\n      jump\t// out\n        /* \"#utility.yul\":12380:12737   */\n    tag_331:\n        /* \"#utility.yul\":12458:12461   */\n      0x00\n        /* \"#utility.yul\":12486:12525   */\n      tag_506\n        /* \"#utility.yul\":12519:12524   */\n      dup3\n        /* \"#utility.yul\":12486:12525   */\n      tag_288\n      jump\t// in\n    tag_506:\n        /* \"#utility.yul\":12541:12602   */\n      tag_507\n        /* \"#utility.yul\":12595:12601   */\n      dup2\n        /* \"#utility.yul\":12590:12593   */\n      dup6\n        /* \"#utility.yul\":12541:12602   */\n      tag_330\n      jump\t// in\n    tag_507:\n        /* \"#utility.yul\":12534:12602   */\n      swap4\n      pop\n        /* \"#utility.yul\":12611:12676   */\n      tag_508\n        /* \"#utility.yul\":12669:12675   */\n      dup2\n        /* \"#utility.yul\":12664:12667   */\n      dup6\n        /* \"#utility.yul\":12657:12661   */\n      0x20\n        /* \"#utility.yul\":12650:12655   */\n      dup7\n        /* \"#utility.yul\":12646:12662   */\n      add\n        /* \"#utility.yul\":12611:12676   */\n      tag_290\n      jump\t// in\n    tag_508:\n        /* \"#utility.yul\":12701:12730   */\n      tag_509\n        /* \"#utility.yul\":12723:12729   */\n      dup2\n        /* \"#utility.yul\":12701:12730   */\n      tag_291\n      jump\t// in\n    tag_509:\n        /* \"#utility.yul\":12696:12699   */\n      dup5\n        /* \"#utility.yul\":12692:12731   */\n      add\n        /* \"#utility.yul\":12685:12731   */\n      swap2\n      pop\n        /* \"#utility.yul\":12462:12737   */\n      pop\n        /* \"#utility.yul\":12380:12737   */\n      swap3\n      swap2\n      pop\n      pop\n      jump\t// out\n        /* \"#utility.yul\":12743:12848   */\n    tag_332:\n        /* \"#utility.yul\":12818:12841   */\n      tag_511\n        /* \"#utility.yul\":12835:12840   */\n      dup2\n        /* \"#utility.yul\":12818:12841   */\n      tag_313\n      jump\t// in\n    tag_511:\n        /* \"#utility.yul\":12813:12816   */\n      dup3\n        /* \"#utility.yul\":12806:12842   */\n      mstore\n        /* \"#utility.yul\":12743:12848   */\n      pop\n      pop\n      jump\t// out\n        /* \"#utility.yul\":12854:12953   */\n    tag_333:\n        /* \"#utility.yul\":12925:12946   */\n      tag_513\n        /* \"#utility.yul\":12940:12945   */\n      dup2\n        /* \"#utility.yul\":12925:12946   */\n      tag_303\n      jump\t// in\n    tag_513:\n        /* \"#utility.yul\":12920:12923   */\n      dup3\n        /* \"#utility.yul\":12913:12947   */\n      mstore\n        /* \"#utility.yul\":12854:12953   */\n      pop\n      pop\n      jump\t// out\n        /* \"#utility.yul\":13033:14985   */\n    tag_334:\n        /* \"#utility.yul\":13156:13159   */\n      0x00\n        /* \"#utility.yul\":13192:13198   */\n      0x0120\n        /* \"#utility.yul\":13187:13190   */\n      dup4\n        /* \"#utility.yul\":13183:13199   */\n      add\n        /* \"#utility.yul\":13283:13287   */\n      0x00\n        /* \"#utility.yul\":13276:13281   */\n      dup4\n        /* \"#utility.yul\":13272:13288   */\n      add\n        /* \"#utility.yul\":13266:13289   */\n      mload\n        /* \"#utility.yul\":13336:13339   */\n      dup5\n        /* \"#utility.yul\":13330:13334   */\n      dup3\n        /* \"#utility.yul\":13326:13340   */\n      sub\n        /* \"#utility.yul\":13319:13323   */\n      0x00\n        /* \"#utility.yul\":13314:13317   */\n      dup7\n        /* \"#utility.yul\":13310:13324   */\n      add\n        /* \"#utility.yul\":13303:13341   */\n      mstore\n        /* \"#utility.yul\":13362:13465   */\n      tag_515\n        /* \"#utility.yul\":13460:13464   */\n      dup3\n        /* \"#utility.yul\":13446:13458   */\n      dup3\n        /* \"#utility.yul\":13362:13465   */\n      tag_329\n      jump\t// in\n    tag_515:\n        /* \"#utility.yul\":13354:13465   */\n      swap2\n      pop\n        /* \"#utility.yul\":13209:13476   */\n      pop\n        /* \"#utility.yul\":13563:13567   */\n      0x20\n        /* \"#utility.yul\":13556:13561   */\n      dup4\n        /* \"#utility.yul\":13552:13568   */\n      add\n        /* \"#utility.yul\":13546:13569   */\n      mload\n        /* \"#utility.yul\":13616:13619   */\n      dup5\n        /* \"#utility.yul\":13610:13614   */\n      dup3\n        /* \"#utility.yul\":13606:13620   */\n      sub\n        /* \"#utility.yul\":13599:13603   */\n      0x20\n        /* \"#utility.yul\":13594:13597   */\n      dup7\n        /* \"#utility.yul\":13590:13604   */\n      add\n        /* \"#utility.yul\":13583:13621   */\n      mstore\n        /* \"#utility.yul\":13642:13715   */\n      tag_516\n        /* \"#utility.yul\":13710:13714   */\n      dup3\n        /* \"#utility.yul\":13696:13708   */\n      dup3\n        /* \"#utility.yul\":13642:13715   */\n      tag_331\n      jump\t// in\n    tag_516:\n        /* \"#utility.yul\":13634:13715   */\n      swap2\n      pop\n        /* \"#utility.yul\":13486:13726   */\n      pop\n        /* \"#utility.yul\":13812:13816   */\n      0x40\n        /* \"#utility.yul\":13805:13810   */\n      dup4\n        /* \"#utility.yul\":13801:13817   */\n      add\n        /* \"#utility.yul\":13795:13818   */\n      mload\n        /* \"#utility.yul\":13831:13892   */\n      tag_517\n        /* \"#utility.yul\":13886:13890   */\n      0x40\n        /* \"#utility.yul\":13881:13884   */\n      dup7\n        /* \"#utility.yul\":13877:13891   */\n      add\n        /* \"#utility.yul\":13863:13875   */\n      dup3\n        /* \"#utility.yul\":13831:13892   */\n      tag_332\n      jump\t// in\n    tag_517:\n        /* \"#utility.yul\":13736:13902   */\n      pop\n        /* \"#utility.yul\":13992:13996   */\n      0x60\n        /* \"#utility.yul\":13985:13990   */\n      dup4\n        /* \"#utility.yul\":13981:13997   */\n      add\n        /* \"#utility.yul\":13975:13998   */\n      mload\n        /* \"#utility.yul\":14011:14072   */\n      tag_518\n        /* \"#utility.yul\":14066:14070   */\n      0x60\n        /* \"#utility.yul\":14061:14064   */\n      dup7\n        /* \"#utility.yul\":14057:14071   */\n      add\n        /* \"#utility.yul\":14043:14055   */\n      dup3\n        /* \"#utility.yul\":14011:14072   */\n      tag_332\n      jump\t// in\n    tag_518:\n        /* \"#utility.yul\":13912:14082   */\n      pop\n        /* \"#utility.yul\":14172:14176   */\n      0x80\n        /* \"#utility.yul\":14165:14170   */\n      dup4\n        /* \"#utility.yul\":14161:14177   */\n      add\n        /* \"#utility.yul\":14155:14178   */\n      mload\n        /* \"#utility.yul\":14191:14252   */\n      tag_519\n        /* \"#utility.yul\":14246:14250   */\n      0x80\n        /* \"#utility.yul\":14241:14244   */\n      dup7\n        /* \"#utility.yul\":14237:14251   */\n      add\n        /* \"#utility.yul\":14223:14235   */\n      dup3\n        /* \"#utility.yul\":14191:14252   */\n      tag_332\n      jump\t// in\n    tag_519:\n        /* \"#utility.yul\":14092:14262   */\n      pop\n        /* \"#utility.yul\":14350:14354   */\n      0xa0\n        /* \"#utility.yul\":14343:14348   */\n      dup4\n        /* \"#utility.yul\":14339:14355   */\n      add\n        /* \"#utility.yul\":14333:14356   */\n      mload\n        /* \"#utility.yul\":14369:14430   */\n      tag_520\n        /* \"#utility.yul\":14424:14428   */\n      0xa0\n        /* \"#utility.yul\":14419:14422   */\n      dup7\n        /* \"#utility.yul\":14415:14429   */\n      add\n        /* \"#utility.yul\":14401:14413   */\n      dup3\n        /* \"#utility.yul\":14369:14430   */\n      tag_332\n      jump\t// in\n    tag_520:\n        /* \"#utility.yul\":14272:14440   */\n      pop\n        /* \"#utility.yul\":14524:14528   */\n      0xc0\n        /* \"#utility.yul\":14517:14522   */\n      dup4\n        /* \"#utility.yul\":14513:14529   */\n      add\n        /* \"#utility.yul\":14507:14530   */\n      mload\n        /* \"#utility.yul\":14543:14604   */\n      tag_521\n        /* \"#utility.yul\":14598:14602   */\n      0xc0\n        /* \"#utility.yul\":14593:14596   */\n      dup7\n        /* \"#utility.yul\":14589:14603   */\n      add\n        /* \"#utility.yul\":14575:14587   */\n      dup3\n        /* \"#utility.yul\":14543:14604   */\n      tag_332\n      jump\t// in\n    tag_521:\n        /* \"#utility.yul\":14450:14614   */\n      pop\n        /* \"#utility.yul\":14698:14702   */\n      0xe0\n        /* \"#utility.yul\":14691:14696   */\n      dup4\n        /* \"#utility.yul\":14687:14703   */\n      add\n        /* \"#utility.yul\":14681:14704   */\n      mload\n        /* \"#utility.yul\":14717:14774   */\n      tag_522\n        /* \"#utility.yul\":14768:14772   */\n      0xe0\n        /* \"#utility.yul\":14763:14766   */\n      dup7\n        /* \"#utility.yul\":14759:14773   */\n      add\n        /* \"#utility.yul\":14745:14757   */\n      dup3\n        /* \"#utility.yul\":14717:14774   */\n      tag_333\n      jump\t// in\n    tag_522:\n        /* \"#utility.yul\":14624:14784   */\n      pop\n        /* \"#utility.yul\":14868:14874   */\n      0x0100\n        /* \"#utility.yul\":14861:14866   */\n      dup4\n        /* \"#utility.yul\":14857:14875   */\n      add\n        /* \"#utility.yul\":14851:14876   */\n      mload\n        /* \"#utility.yul\":14889:14948   */\n      tag_523\n        /* \"#utility.yul\":14940:14946   */\n      0x0100\n        /* \"#utility.yul\":14935:14938   */\n      dup7\n        /* \"#utility.yul\":14931:14947   */\n      add\n        /* \"#utility.yul\":14917:14929   */\n      dup3\n        /* \"#utility.yul\":14889:14948   */\n      tag_333\n      jump\t// in\n    tag_523:\n        /* \"#utility.yul\":14794:14958   */\n      pop\n        /* \"#utility.yul\":14975:14979   */\n      dup1\n        /* \"#utility.yul\":14968:14979   */\n      swap2\n      pop\n        /* \"#utility.yul\":13161:14985   */\n      pop\n        /* \"#utility.yul\":13033:14985   */\n      swap3\n      swap2\n      pop\n      pop\n      jump\t// out\n        /* \"#utility.yul\":14991:15372   */\n    tag_103:\n        /* \"#utility.yul\":15138:15142   */\n      0x00\n        /* \"#utility.yul\":15176:15178   */\n      0x20\n        /* \"#utility.yul\":15165:15174   */\n      dup3\n        /* \"#utility.yul\":15161:15179   */\n      add\n        /* \"#utility.yul\":15153:15179   */\n      swap1\n      pop\n        /* \"#utility.yul\":15225:15234   */\n      dup2\n        /* \"#utility.yul\":15219:15223   */\n      dup2\n        /* \"#utility.yul\":15215:15235   */\n      sub\n        /* \"#utility.yul\":15211:15212   */\n      0x00\n        /* \"#utility.yul\":15200:15209   */\n      dup4\n        /* \"#utility.yul\":15196:15213   */\n      add\n        /* \"#utility.yul\":15189:15236   */\n      mstore\n        /* \"#utility.yul\":15253:15365   */\n      tag_525\n        /* \"#utility.yul\":15360:15364   */\n      dup2\n        /* \"#utility.yul\":15351:15357   */\n      dup5\n        /* \"#utility.yul\":15253:15365   */\n      tag_334\n      jump\t// in\n    tag_525:\n        /* \"#utility.yul\":15245:15365   */\n      swap1\n      pop\n        /* \"#utility.yul\":14991:15372   */\n      swap3\n      swap2\n      pop\n      pop\n      jump\t// out\n        /* \"#utility.yul\":15378:15558   */\n    tag_335:\n        /* \"#utility.yul\":15426:15503   */\n      0x4e487b7100000000000000000000000000000000000000000000000000000000\n        /* \"#utility.yul\":15423:15424   */\n      0x00\n        /* \"#utility.yul\":15416:15504   */\n      mstore\n        /* \"#utility.yul\":15523:15527   */\n      0x22\n        /* \"#utility.yul\":15520:15521   */\n      0x04\n        /* \"#utility.yul\":15513:15528   */\n      mstore\n        /* \"#utility.yul\":15547:15551   */\n      0x24\n        /* \"#utility.yul\":15544:15545   */\n      0x00\n        /* \"#utility.yul\":15537:15552   */\n      revert\n        /* \"#utility.yul\":15564:15884   */\n    tag_106:\n        /* \"#utility.yul\":15608:15614   */\n      0x00\n        /* \"#utility.yul\":15645:15646   */\n      0x02\n        /* \"#utility.yul\":15639:15643   */\n      dup3\n        /* \"#utility.yul\":15635:15647   */\n      div\n        /* \"#utility.yul\":15625:15647   */\n      swap1\n      pop\n        /* \"#utility.yul\":15692:15693   */\n      0x01\n        /* \"#utility.yul\":15686:15690   */\n      dup3\n        /* \"#utility.yul\":15682:15694   */\n      and\n        /* \"#utility.yul\":15713:15731   */\n      dup1\n        /* \"#utility.yul\":15703:15784   */\n      tag_528\n      jumpi\n        /* \"#utility.yul\":15769:15773   */\n      0x7f\n        /* \"#utility.yul\":15761:15767   */\n      dup3\n        /* \"#utility.yul\":15757:15774   */\n      and\n        /* \"#utility.yul\":15747:15774   */\n      swap2\n      pop\n        /* \"#utility.yul\":15703:15784   */\n    tag_528:\n        /* \"#utility.yul\":15831:15833   */\n      0x20\n        /* \"#utility.yul\":15823:15829   */\n      dup3\n        /* \"#utility.yul\":15820:15834   */\n      lt\n        /* \"#utility.yul\":15800:15818   */\n      dup2\n        /* \"#utility.yul\":15797:15835   */\n      sub\n        /* \"#utility.yul\":15794:15878   */\n      tag_529\n      jumpi\n        /* \"#utility.yul\":15850:15868   */\n      tag_530\n      tag_335\n      jump\t// in\n    tag_530:\n        /* \"#utility.yul\":15794:15878   */\n    tag_529:\n        /* \"#utility.yul\":15615:15884   */\n      pop\n        /* \"#utility.yul\":15564:15884   */\n      swap2\n      swap1\n      pop\n      jump\t// out\n        /* \"#utility.yul\":15890:16113   */\n    tag_336:\n        /* \"#utility.yul\":16030:16064   */\n      0x4f6e6c7920746f6b656e20686f6c646572732063616e20637265617465206973\n        /* \"#utility.yul\":16026:16027   */\n      0x00\n        /* \"#utility.yul\":16018:16024   */\n      dup3\n        /* \"#utility.yul\":16014:16028   */\n      add\n        /* \"#utility.yul\":16007:16065   */\n      mstore\n        /* \"#utility.yul\":16099:16105   */\n      0x7375657300000000000000000000000000000000000000000000000000000000\n        /* \"#utility.yul\":16094:16096   */\n      0x20\n        /* \"#utility.yul\":16086:16092   */\n      dup3\n        /* \"#utility.yul\":16082:16097   */\n      add\n        /* \"#utility.yul\":16075:16106   */\n      mstore\n        /* \"#utility.yul\":15890:16113   */\n      pop\n      jump\t// out\n        /* \"#utility.yul\":16119:16485   */\n    tag_337:\n        /* \"#utility.yul\":16261:16264   */\n      0x00\n        /* \"#utility.yul\":16282:16349   */\n      tag_533\n        /* \"#utility.yul\":16346:16348   */\n      0x24\n        /* \"#utility.yul\":16341:16344   */\n      dup4\n        /* \"#utility.yul\":16282:16349   */\n      tag_289\n      jump\t// in\n    tag_533:\n        /* \"#utility.yul\":16275:16349   */\n      swap2\n      pop\n        /* \"#utility.yul\":16358:16451   */\n      tag_534\n        /* \"#utility.yul\":16447:16450   */\n      dup3\n        /* \"#utility.yul\":16358:16451   */\n      tag_336\n      jump\t// in\n    tag_534:\n        /* \"#utility.yul\":16476:16478   */\n      0x40\n        /* \"#utility.yul\":16471:16474   */\n      dup3\n        /* \"#utility.yul\":16467:16479   */\n      add\n        /* \"#utility.yul\":16460:16479   */\n      swap1\n      pop\n        /* \"#utility.yul\":16119:16485   */\n      swap2\n      swap1\n      pop\n      jump\t// out\n        /* \"#utility.yul\":16491:16910   */\n    tag_119:\n        /* \"#utility.yul\":16657:16661   */\n      0x00\n        /* \"#utility.yul\":16695:16697   */\n      0x20\n        /* \"#utility.yul\":16684:16693   */\n      dup3\n        /* \"#utility.yul\":16680:16698   */\n      add\n        /* \"#utility.yul\":16672:16698   */\n      swap1\n      pop\n        /* \"#utility.yul\":16744:16753   */\n      dup2\n        /* \"#utility.yul\":16738:16742   */\n      dup2\n        /* \"#utility.yul\":16734:16754   */\n      sub\n        /* \"#utility.yul\":16730:16731   */\n      0x00\n        /* \"#utility.yul\":16719:16728   */\n      dup4\n        /* \"#utility.yul\":16715:16732   */\n      add\n        /* \"#utility.yul\":16708:16755   */\n      mstore\n        /* \"#utility.yul\":16772:16903   */\n      tag_536\n        /* \"#utility.yul\":16898:16902   */\n      dup2\n        /* \"#utility.yul\":16772:16903   */\n      tag_337\n      jump\t// in\n    tag_536:\n        /* \"#utility.yul\":16764:16903   */\n      swap1\n      pop\n        /* \"#utility.yul\":16491:16910   */\n      swap2\n      swap1\n      pop\n      jump\t// out\n        /* \"#utility.yul\":16916:17159   */\n    tag_338:\n        /* \"#utility.yul\":17056:17090   */\n      0x51756f72756d2063616e6e6f742062652067726561746572207468616e207468\n        /* \"#utility.yul\":17052:17053   */\n      0x00\n        /* \"#utility.yul\":17044:17050   */\n      dup3\n        /* \"#utility.yul\":17040:17054   */\n      add\n        /* \"#utility.yul\":17033:17091   */\n      mstore\n        /* \"#utility.yul\":17125:17151   */\n      0x6520746f74616c206e756d626572206f6620746f6b656e730000000000000000\n        /* \"#utility.yul\":17120:17122   */\n      0x20\n        /* \"#utility.yul\":17112:17118   */\n      dup3\n        /* \"#utility.yul\":17108:17123   */\n      add\n        /* \"#utility.yul\":17101:17152   */\n      mstore\n        /* \"#utility.yul\":16916:17159   */\n      pop\n      jump\t// out\n        /* \"#utility.yul\":17165:17531   */\n    tag_339:\n        /* \"#utility.yul\":17307:17310   */\n      0x00\n        /* \"#utility.yul\":17328:17395   */\n      tag_539\n        /* \"#utility.yul\":17392:17394   */\n      0x38\n        /* \"#utility.yul\":17387:17390   */\n      dup4\n        /* \"#utility.yul\":17328:17395   */\n      tag_289\n      jump\t// in\n    tag_539:\n        /* \"#utility.yul\":17321:17395   */\n      swap2\n      pop\n        /* \"#utility.yul\":17404:17497   */\n      tag_540\n        /* \"#utility.yul\":17493:17496   */\n      dup3\n        /* \"#utility.yul\":17404:17497   */\n      tag_338\n      jump\t// in\n    tag_540:\n        /* \"#utility.yul\":17522:17524   */\n      0x40\n        /* \"#utility.yul\":17517:17520   */\n      dup3\n        /* \"#utility.yul\":17513:17525   */\n      add\n        /* \"#utility.yul\":17506:17525   */\n      swap1\n      pop\n        /* \"#utility.yul\":17165:17531   */\n      swap2\n      swap1\n      pop\n      jump\t// out\n        /* \"#utility.yul\":17537:17956   */\n    tag_123:\n        /* \"#utility.yul\":17703:17707   */\n      0x00\n        /* \"#utility.yul\":17741:17743   */\n      0x20\n        /* \"#utility.yul\":17730:17739   */\n      dup3\n        /* \"#utility.yul\":17726:17744   */\n      add\n        /* \"#utility.yul\":17718:17744   */\n      swap1\n      pop\n        /* \"#utility.yul\":17790:17799   */\n      dup2\n        /* \"#utility.yul\":17784:17788   */\n      dup2\n        /* \"#utility.yul\":17780:17800   */\n      sub\n        /* \"#utility.yul\":17776:17777   */\n      0x00\n        /* \"#utility.yul\":17765:17774   */\n      dup4\n        /* \"#utility.yul\":17761:17778   */\n      add\n        /* \"#utility.yul\":17754:17801   */\n      mstore\n        /* \"#utility.yul\":17818:17949   */\n      tag_542\n        /* \"#utility.yul\":17944:17948   */\n      dup2\n        /* \"#utility.yul\":17818:17949   */\n      tag_339\n      jump\t// in\n    tag_542:\n        /* \"#utility.yul\":17810:17949   */\n      swap1\n      pop\n        /* \"#utility.yul\":17537:17956   */\n      swap2\n      swap1\n      pop\n      jump\t// out\n        /* \"#utility.yul\":17962:18142   */\n    tag_127:\n        /* \"#utility.yul\":18010:18087   */\n      0x4e487b7100000000000000000000000000000000000000000000000000000000\n        /* \"#utility.yul\":18007:18008   */\n      0x00\n        /* \"#utility.yul\":18000:18088   */\n      mstore\n        /* \"#utility.yul\":18107:18111   */\n      0x32\n        /* \"#utility.yul\":18104:18105   */\n      0x04\n        /* \"#utility.yul\":18097:18112   */\n      mstore\n        /* \"#utility.yul\":18131:18135   */\n      0x24\n        /* \"#utility.yul\":18128:18129   */\n      0x00\n        /* \"#utility.yul\":18121:18136   */\n      revert\n        /* \"#utility.yul\":18148:18289   */\n    tag_340:\n        /* \"#utility.yul\":18197:18201   */\n      0x00\n        /* \"#utility.yul\":18220:18223   */\n      dup2\n        /* \"#utility.yul\":18212:18223   */\n      swap1\n      pop\n        /* \"#utility.yul\":18243:18246   */\n      dup2\n        /* \"#utility.yul\":18240:18241   */\n      0x00\n        /* \"#utility.yul\":18233:18247   */\n      mstore\n        /* \"#utility.yul\":18277:18281   */\n      0x20\n        /* \"#utility.yul\":18274:18275   */\n      0x00\n        /* \"#utility.yul\":18264:18282   */\n      keccak256\n        /* \"#utility.yul\":18256:18282   */\n      swap1\n      pop\n        /* \"#utility.yul\":18148:18289   */\n      swap2\n      swap1\n      pop\n      jump\t// out\n        /* \"#utility.yul\":18295:18388   */\n    tag_341:\n        /* \"#utility.yul\":18332:18338   */\n      0x00\n        /* \"#utility.yul\":18379:18381   */\n      0x20\n        /* \"#utility.yul\":18374:18376   */\n      0x1f\n        /* \"#utility.yul\":18367:18372   */\n      dup4\n        /* \"#utility.yul\":18363:18377   */\n      add\n        /* \"#utility.yul\":18359:18382   */\n      div\n        /* \"#utility.yul\":18349:18382   */\n      swap1\n      pop\n        /* \"#utility.yul\":18295:18388   */\n      swap2\n      swap1\n      pop\n      jump\t// out\n        /* \"#utility.yul\":18394:18501   */\n    tag_342:\n        /* \"#utility.yul\":18438:18446   */\n      0x00\n        /* \"#utility.yul\":18488:18493   */\n      dup3\n        /* \"#utility.yul\":18482:18486   */\n      dup3\n        /* \"#utility.yul\":18478:18494   */\n      shl\n        /* \"#utility.yul\":18457:18494   */\n      swap1\n      pop\n        /* \"#utility.yul\":18394:18501   */\n      swap3\n      swap2\n      pop\n      pop\n      jump\t// out\n        /* \"#utility.yul\":18507:18900   */\n    tag_343:\n        /* \"#utility.yul\":18576:18582   */\n      0x00\n        /* \"#utility.yul\":18626:18627   */\n      0x08\n        /* \"#utility.yul\":18614:18624   */\n      dup4\n        /* \"#utility.yul\":18610:18628   */\n      mul\n        /* \"#utility.yul\":18649:18746   */\n      tag_548\n        /* \"#utility.yul\":18679:18745   */\n      0xffffffffffffffffffffffffffffffffffffffffffffffffffffffffffffffff\n        /* \"#utility.yul\":18668:18677   */\n      dup3\n        /* \"#utility.yul\":18649:18746   */\n      tag_342\n      jump\t// in\n    tag_548:\n        /* \"#utility.yul\":18767:18806   */\n      tag_549\n        /* \"#utility.yul\":18797:18805   */\n      dup7\n        /* \"#utility.yul\":18786:18795   */\n      dup4\n        /* \"#utility.yul\":18767:18806   */\n      tag_342\n      jump\t// in\n    tag_549:\n        /* \"#utility.yul\":18755:18806   */\n      swap6\n      pop\n        /* \"#utility.yul\":18839:18843   */\n      dup1\n        /* \"#utility.yul\":18835:18844   */\n      not\n        /* \"#utility.yul\":18828:18833   */\n      dup5\n        /* \"#utility.yul\":18824:18845   */\n      and\n        /* \"#utility.yul\":18815:18845   */\n      swap4\n      pop\n        /* \"#utility.yul\":18888:18892   */\n      dup1\n        /* \"#utility.yul\":18878:18886   */\n      dup7\n        /* \"#utility.yul\":18874:18893   */\n      and\n        /* \"#utility.yul\":18867:18872   */\n      dup5\n        /* \"#utility.yul\":18864:18894   */\n      or\n        /* \"#utility.yul\":18854:18894   */\n      swap3\n      pop\n        /* \"#utility.yul\":18583:18900   */\n      pop\n      pop\n        /* \"#utility.yul\":18507:18900   */\n      swap4\n      swap3\n      pop\n      pop\n      pop\n      jump\t// out\n        /* \"#utility.yul\":18906:18966   */\n    tag_344:\n        /* \"#utility.yul\":18934:18937   */\n      0x00\n        /* \"#utility.yul\":18955:18960   */\n      dup2\n        /* \"#utility.yul\":18948:18960   */\n      swap1\n      pop\n        /* \"#utility.yul\":18906:18966   */\n      swap2\n      swap1\n      pop\n      jump\t// out\n        /* \"#utility.yul\":18972:19114   */\n    tag_345:\n        /* \"#utility.yul\":19022:19031   */\n      0x00\n        /* \"#utility.yul\":19055:19108   */\n      tag_552\n        /* \"#utility.yul\":19073:19107   */\n      tag_553\n        /* \"#utility.yul\":19082:19106   */\n      tag_554\n        /* \"#utility.yul\":19100:19105   */\n      dup5\n        /* \"#utility.yul\":19082:19106   */\n      tag_300\n      jump\t// in\n    tag_554:\n        /* \"#utility.yul\":19073:19107   */\n      tag_344\n      jump\t// in\n    tag_553:\n        /* \"#utility.yul\":19055:19108   */\n      tag_300\n      jump\t// in\n    tag_552:\n        /* \"#utility.yul\":19042:19108   */\n      swap1\n      pop\n        /* \"#utility.yul\":18972:19114   */\n      swap2\n      swap1\n      pop\n      jump\t// out\n        /* \"#utility.yul\":19120:19195   */\n    tag_346:\n        /* \"#utility.yul\":19163:19166   */\n      0x00\n        /* \"#utility.yul\":19184:19189   */\n      dup2\n        /* \"#utility.yul\":19177:19189   */\n      swap1\n      pop\n        /* \"#utility.yul\":19120:19195   */\n      swap2\n      swap1\n      pop\n      jump\t// out\n        /* \"#utility.yul\":19201:19470   */\n    tag_347:\n        /* \"#utility.yul\":19311:19350   */\n      tag_557\n        /* \"#utility.yul\":19342:19349   */\n      dup4\n        /* \"#utility.yul\":19311:19350   */\n      tag_345\n      jump\t// in\n    tag_557:\n        /* \"#utility.yul\":19372:19463   */\n      tag_558\n        /* \"#utility.yul\":19421:19462   */\n      tag_559\n        /* \"#utility.yul\":19445:19461   */\n      dup3\n        /* \"#utility.yul\":19421:19462   */\n      tag_346\n      jump\t// in\n    tag_559:\n        /* \"#utility.yul\":19413:19419   */\n      dup5\n        /* \"#utility.yul\":19406:19410   */\n      dup5\n        /* \"#utility.yul\":19400:19411   */\n      sload\n        /* \"#utility.yul\":19372:19463   */\n      tag_343\n      jump\t// in\n    tag_558:\n        /* \"#utility.yul\":19366:19370   */\n      dup3\n        /* \"#utility.yul\":19359:19464   */\n      sstore\n        /* \"#utility.yul\":19277:19470   */\n      pop\n        /* \"#utility.yul\":19201:19470   */\n      pop\n      pop\n      pop\n      jump\t// out\n        /* \"#utility.yul\":19476:19549   */\n    tag_348:\n        /* \"#utility.yul\":19521:19524   */\n      0x00\n        /* \"#utility.yul\":19476:19549   */\n      swap1\n      jump\t// out\n        /* \"#utility.yul\":19555:19744   */\n    tag_349:\n        /* \"#utility.yul\":19632:19664   */\n      tag_562\n      tag_348\n      jump\t// in\n    tag_562:\n        /* \"#utility.yul\":19673:19738   */\n      tag_563\n        /* \"#utility.yul\":19731:19737   */\n      dup2\n        /* \"#utility.yul\":19723:19729   */\n      dup5\n        /* \"#utility.yul\":19717:19721   */\n      dup5\n        /* \"#utility.yul\":19673:19738   */\n      tag_347\n      jump\t// in\n    tag_563:\n        /* \"#utility.yul\":19608:19744   */\n      pop\n        /* \"#utility.yul\":19555:19744   */\n      pop\n      pop\n      jump\t// out\n        /* \"#utility.yul\":19750:19936   */\n    tag_350:\n        /* \"#utility.yul\":19810:19930   */\n    tag_565:\n        /* \"#utility.yul\":19827:19830   */\n      dup2\n        /* \"#utility.yul\":19820:19825   */\n      dup2\n        /* \"#utility.yul\":19817:19831   */\n      lt\n        /* \"#utility.yul\":19810:19930   */\n      iszero\n      tag_567\n      jumpi\n        /* \"#utility.yul\":19881:19920   */\n      tag_568\n        /* \"#utility.yul\":19918:19919   */\n      0x00\n        /* \"#utility.yul\":19911:19916   */\n      dup3\n        /* \"#utility.yul\":19881:19920   */\n      tag_349\n      jump\t// in\n    tag_568:\n        /* \"#utility.yul\":19854:19855   */\n      0x01\n        /* \"#utility.yul\":19847:19852   */\n      dup2\n        /* \"#utility.yul\":19843:19856   */\n      add\n        /* \"#utility.yul\":19834:19856   */\n      swap1\n      pop\n        /* \"#utility.yul\":19810:19930   */\n      jump(tag_565)\n    tag_567:\n        /* \"#utility.yul\":19750:19936   */\n      pop\n      pop\n      jump\t// out\n        /* \"#utility.yul\":19942:20485   */\n    tag_351:\n        /* \"#utility.yul\":20043:20045   */\n      0x1f\n        /* \"#utility.yul\":20038:20041   */\n      dup3\n        /* \"#utility.yul\":20035:20046   */\n      gt\n        /* \"#utility.yul\":20032:20478   */\n      iszero\n      tag_570\n      jumpi\n        /* \"#utility.yul\":20077:20115   */\n      tag_571\n        /* \"#utility.yul\":20109:20114   */\n      dup2\n        /* \"#utility.yul\":20077:20115   */\n      tag_340\n      jump\t// in\n    tag_571:\n        /* \"#utility.yul\":20161:20190   */\n      tag_572\n        /* \"#utility.yul\":20179:20189   */\n      dup5\n        /* \"#utility.yul\":20161:20190   */\n      tag_341\n      jump\t// in\n    tag_572:\n        /* \"#utility.yul\":20151:20159   */\n      dup2\n        /* \"#utility.yul\":20147:20191   */\n      add\n        /* \"#utility.yul\":20344:20346   */\n      0x20\n        /* \"#utility.yul\":20332:20342   */\n      dup6\n        /* \"#utility.yul\":20329:20347   */\n      lt\n        /* \"#utility.yul\":20326:20375   */\n      iszero\n      tag_573\n      jumpi\n        /* \"#utility.yul\":20365:20373   */\n      dup2\n        /* \"#utility.yul\":20350:20373   */\n      swap1\n      pop\n        /* \"#utility.yul\":20326:20375   */\n    tag_573:\n        /* \"#utility.yul\":20388:20468   */\n      tag_574\n        /* \"#utility.yul\":20444:20466   */\n      tag_575\n        /* \"#utility.yul\":20462:20465   */\n      dup6\n        /* \"#utility.yul\":20444:20466   */\n      tag_341\n      jump\t// in\n    tag_575:\n        /* \"#utility.yul\":20434:20442   */\n      dup4\n        /* \"#utility.yul\":20430:20467   */\n      add\n        /* \"#utility.yul\":20417:20428   */\n      dup3\n        /* \"#utility.yul\":20388:20468   */\n      tag_350\n      jump\t// in\n    tag_574:\n        /* \"#utility.yul\":20047:20478   */\n      pop\n      pop\n        /* \"#utility.yul\":20032:20478   */\n    tag_570:\n        /* \"#utility.yul\":19942:20485   */\n      pop\n      pop\n      pop\n      jump\t// out\n        /* \"#utility.yul\":20491:20608   */\n    tag_352:\n        /* \"#utility.yul\":20545:20553   */\n      0x00\n        /* \"#utility.yul\":20595:20600   */\n      dup3\n        /* \"#utility.yul\":20589:20593   */\n      dup3\n        /* \"#utility.yul\":20585:20601   */\n      shr\n        /* \"#utility.yul\":20564:20601   */\n      swap1\n      pop\n        /* \"#utility.yul\":20491:20608   */\n      swap3\n      swap2\n      pop\n      pop\n      jump\t// out\n        /* \"#utility.yul\":20614:20783   */\n    tag_353:\n        /* \"#utility.yul\":20658:20664   */\n      0x00\n        /* \"#utility.yul\":20691:20742   */\n      tag_578\n        /* \"#utility.yul\":20739:20740   */\n      0x00\n        /* \"#utility.yul\":20735:20741   */\n      not\n        /* \"#utility.yul\":20727:20732   */\n      dup5\n        /* \"#utility.yul\":20724:20725   */\n      0x08\n        /* \"#utility.yul\":20720:20733   */\n      mul\n        /* \"#utility.yul\":20691:20742   */\n      tag_352\n      jump\t// in\n    tag_578:\n        /* \"#utility.yul\":20687:20743   */\n      not\n        /* \"#utility.yul\":20772:20776   */\n      dup1\n        /* \"#utility.yul\":20766:20770   */\n      dup4\n        /* \"#utility.yul\":20762:20777   */\n      and\n        /* \"#utility.yul\":20752:20777   */\n      swap2\n      pop\n        /* \"#utility.yul\":20665:20783   */\n      pop\n        /* \"#utility.yul\":20614:20783   */\n      swap3\n      swap2\n      pop\n      pop\n      jump\t// out\n        /* \"#utility.yul\":20788:21083   */\n    tag_354:\n        /* \"#utility.yul\":20864:20868   */\n      0x00\n        /* \"#utility.yul\":21010:21039   */\n      tag_580\n        /* \"#utility.yul\":21035:21038   */\n      dup4\n        /* \"#utility.yul\":21029:21033   */\n      dup4\n        /* \"#utility.yul\":21010:21039   */\n      tag_353\n      jump\t// in\n    tag_580:\n        /* \"#utility.yul\":21002:21039   */\n      swap2\n      pop\n        /* \"#utility.yul\":21072:21075   */\n      dup3\n        /* \"#utility.yul\":21069:21070   */\n      0x02\n        /* \"#utility.yul\":21065:21076   */\n      mul\n        /* \"#utility.yul\":21059:21063   */\n      dup3\n        /* \"#utility.yul\":21056:21077   */\n      or\n        /* \"#utility.yul\":21048:21077   */\n      swap1\n      pop\n        /* \"#utility.yul\":20788:21083   */\n      swap3\n      swap2\n      pop\n      pop\n      jump\t// out\n        /* \"#utility.yul\":21088:22483   */\n    tag_130:\n        /* \"#utility.yul\":21205:21242   */\n      tag_582\n        /* \"#utility.yul\":21238:21241   */\n      dup3\n        /* \"#utility.yul\":21205:21242   */\n      tag_288\n      jump\t// in\n    tag_582:\n        /* \"#utility.yul\":21307:21325   */\n      0xffffffffffffffff\n        /* \"#utility.yul\":21299:21305   */\n      dup2\n        /* \"#utility.yul\":21296:21326   */\n      gt\n        /* \"#utility.yul\":21293:21349   */\n      iszero\n      tag_583\n      jumpi\n        /* \"#utility.yul\":21329:21347   */\n      tag_584\n      tag_213\n      jump\t// in\n    tag_584:\n        /* \"#utility.yul\":21293:21349   */\n    tag_583:\n        /* \"#utility.yul\":21373:21411   */\n      tag_585\n        /* \"#utility.yul\":21405:21409   */\n      dup3\n        /* \"#utility.yul\":21399:21410   */\n      sload\n        /* \"#utility.yul\":21373:21411   */\n      tag_106\n      jump\t// in\n    tag_585:\n        /* \"#utility.yul\":21458:21525   */\n      tag_586\n        /* \"#utility.yul\":21518:21524   */\n      dup3\n        /* \"#utility.yul\":21510:21516   */\n      dup3\n        /* \"#utility.yul\":21504:21508   */\n      dup6\n        /* \"#utility.yul\":21458:21525   */\n      tag_351\n      jump\t// in\n    tag_586:\n        /* \"#utility.yul\":21552:21553   */\n      0x00\n        /* \"#utility.yul\":21576:21580   */\n      0x20\n        /* \"#utility.yul\":21563:21580   */\n      swap1\n      pop\n        /* \"#utility.yul\":21608:21610   */\n      0x1f\n        /* \"#utility.yul\":21600:21606   */\n      dup4\n        /* \"#utility.yul\":21597:21611   */\n      gt\n        /* \"#utility.yul\":21625:21626   */\n      0x01\n        /* \"#utility.yul\":21620:22238   */\n      dup2\n      eq\n      tag_588\n      jumpi\n        /* \"#utility.yul\":22282:22283   */\n      0x00\n        /* \"#utility.yul\":22299:22305   */\n      dup5\n        /* \"#utility.yul\":22296:22373   */\n      iszero\n      tag_589\n      jumpi\n        /* \"#utility.yul\":22348:22357   */\n      dup3\n        /* \"#utility.yul\":22343:22346   */\n      dup8\n        /* \"#utility.yul\":22339:22358   */\n      add\n        /* \"#utility.yul\":22333:22359   */\n      mload\n        /* \"#utility.yul\":22324:22359   */\n      swap1\n      pop\n        /* \"#utility.yul\":22296:22373   */\n    tag_589:\n        /* \"#utility.yul\":22399:22466   */\n      tag_590\n        /* \"#utility.yul\":22459:22465   */\n      dup6\n        /* \"#utility.yul\":22452:22457   */\n      dup3\n        /* \"#utility.yul\":22399:22466   */\n      tag_354\n      jump\t// in\n    tag_590:\n        /* \"#utility.yul\":22393:22397   */\n      dup7\n        /* \"#utility.yul\":22386:22467   */\n      sstore\n        /* \"#utility.yul\":22255:22477   */\n      pop\n        /* \"#utility.yul\":21590:22477   */\n      jump(tag_587)\n        /* \"#utility.yul\":21620:22238   */\n    tag_588:\n        /* \"#utility.yul\":21672:21676   */\n      0x1f\n        /* \"#utility.yul\":21668:21677   */\n      not\n        /* \"#utility.yul\":21660:21666   */\n      dup5\n        /* \"#utility.yul\":21656:21678   */\n      and\n        /* \"#utility.yul\":21706:21743   */\n      tag_591\n        /* \"#utility.yul\":21738:21742   */\n      dup7\n        /* \"#utility.yul\":21706:21743   */\n      tag_340\n      jump\t// in\n    tag_591:\n        /* \"#utility.yul\":21765:21766   */\n      0x00\n        /* \"#utility.yul\":21779:21987   */\n    tag_592:\n        /* \"#utility.yul\":21793:21800   */\n      dup3\n        /* \"#utility.yul\":21790:21791   */\n      dup2\n        /* \"#utility.yul\":21787:21801   */\n      lt\n        /* \"#utility.yul\":21779:21987   */\n      iszero\n      tag_594\n      jumpi\n        /* \"#utility.yul\":21872:21881   */\n      dup5\n        /* \"#utility.yul\":21867:21870   */\n      dup10\n        /* \"#utility.yul\":21863:21882   */\n      add\n        /* \"#utility.yul\":21857:21883   */\n      mload\n        /* \"#utility.yul\":21849:21855   */\n      dup3\n        /* \"#utility.yul\":21842:21884   */\n      sstore\n        /* \"#utility.yul\":21923:21924   */\n      0x01\n        /* \"#utility.yul\":21915:21921   */\n      dup3\n        /* \"#utility.yul\":21911:21925   */\n      add\n        /* \"#utility.yul\":21901:21925   */\n      swap2\n      pop\n        /* \"#utility.yul\":21970:21972   */\n      0x20\n        /* \"#utility.yul\":21959:21968   */\n      dup6\n        /* \"#utility.yul\":21955:21973   */\n      add\n        /* \"#utility.yul\":21942:21973   */\n      swap5\n      pop\n        /* \"#utility.yul\":21816:21820   */\n      0x20\n        /* \"#utility.yul\":21813:21814   */\n      dup2\n        /* \"#utility.yul\":21809:21821   */\n      add\n        /* \"#utility.yul\":21804:21821   */\n      swap1\n      pop\n        /* \"#utility.yul\":21779:21987   */\n      jump(tag_592)\n    tag_594:\n        /* \"#utility.yul\":22015:22021   */\n      dup7\n        /* \"#utility.yul\":22006:22013   */\n      dup4\n        /* \"#utility.yul\":22003:22022   */\n      lt\n        /* \"#utility.yul\":22000:22179   */\n      iszero\n      tag_595\n      jumpi\n        /* \"#utility.yul\":22073:22082   */\n      dup5\n        /* \"#utility.yul\":22068:22071   */\n      dup10\n        /* \"#utility.yul\":22064:22083   */\n      add\n        /* \"#utility.yul\":22058:22084   */\n      mload\n        /* \"#utility.yul\":22116:22164   */\n      tag_596\n        /* \"#utility.yul\":22158:22162   */\n      0x1f\n        /* \"#utility.yul\":22150:22156   */\n      dup10\n        /* \"#utility.yul\":22146:22163   */\n      and\n        /* \"#utility.yul\":22135:22144   */\n      dup3\n        /* \"#utility.yul\":22116:22164   */\n      tag_353\n      jump\t// in\n    tag_596:\n        /* \"#utility.yul\":22108:22114   */\n      dup4\n        /* \"#utility.yul\":22101:22165   */\n      sstore\n        /* \"#utility.yul\":22023:22179   */\n      pop\n        /* \"#utility.yul\":22000:22179   */\n    tag_595:\n        /* \"#utility.yul\":22225:22226   */\n      0x01\n        /* \"#utility.yul\":22221:22222   */\n      0x02\n        /* \"#utility.yul\":22213:22219   */\n      dup9\n        /* \"#utility.yul\":22209:22223   */\n      mul\n        /* \"#utility.yul\":22205:22227   */\n      add\n        /* \"#utility.yul\":22199:22203   */\n      dup9\n        /* \"#utility.yul\":22192:22228   */\n      sstore\n        /* \"#utility.yul\":21627:22238   */\n      pop\n      pop\n      pop\n        /* \"#utility.yul\":21590:22477   */\n    tag_587:\n      pop\n        /* \"#utility.yul\":21180:22483   */\n      pop\n      pop\n      pop\n        /* \"#utility.yul\":21088:22483   */\n      pop\n      pop\n      jump\t// out\n        /* \"#utility.yul\":22489:22670   */\n    tag_355:\n        /* \"#utility.yul\":22629:22662   */\n      0x566f74696e6720697320636c6f73656420666f72207468697320697373756500\n        /* \"#utility.yul\":22625:22626   */\n      0x00\n        /* \"#utility.yul\":22617:22623   */\n      dup3\n        /* \"#utility.yul\":22613:22627   */\n      add\n        /* \"#utility.yul\":22606:22663   */\n      mstore\n        /* \"#utility.yul\":22489:22670   */\n      pop\n      jump\t// out\n        /* \"#utility.yul\":22676:23042   */\n    tag_356:\n        /* \"#utility.yul\":22818:22821   */\n      0x00\n        /* \"#utility.yul\":22839:22906   */\n      tag_599\n        /* \"#utility.yul\":22903:22905   */\n      0x1f\n        /* \"#utility.yul\":22898:22901   */\n      dup4\n        /* \"#utility.yul\":22839:22906   */\n      tag_289\n      jump\t// in\n    tag_599:\n        /* \"#utility.yul\":22832:22906   */\n      swap2\n      pop\n        /* \"#utility.yul\":22915:23008   */\n      tag_600\n        /* \"#utility.yul\":23004:23007   */\n      dup3\n        /* \"#utility.yul\":22915:23008   */\n      tag_355\n      jump\t// in\n    tag_600:\n        /* \"#utility.yul\":23033:23035   */\n      0x20\n        /* \"#utility.yul\":23028:23031   */\n      dup3\n        /* \"#utility.yul\":23024:23036   */\n      add\n        /* \"#utility.yul\":23017:23036   */\n      swap1\n      pop\n        /* \"#utility.yul\":22676:23042   */\n      swap2\n      swap1\n      pop\n      jump\t// out\n        /* \"#utility.yul\":23048:23467   */\n    tag_138:\n        /* \"#utility.yul\":23214:23218   */\n      0x00\n        /* \"#utility.yul\":23252:23254   */\n      0x20\n        /* \"#utility.yul\":23241:23250   */\n      dup3\n        /* \"#utility.yul\":23237:23255   */\n      add\n        /* \"#utility.yul\":23229:23255   */\n      swap1\n      pop\n        /* \"#utility.yul\":23301:23310   */\n      dup2\n        /* \"#utility.yul\":23295:23299   */\n      dup2\n        /* \"#utility.yul\":23291:23311   */\n      sub\n        /* \"#utility.yul\":23287:23288   */\n      0x00\n        /* \"#utility.yul\":23276:23285   */\n      dup4\n        /* \"#utility.yul\":23272:23289   */\n      add\n        /* \"#utility.yul\":23265:23312   */\n      mstore\n        /* \"#utility.yul\":23329:23460   */\n      tag_602\n        /* \"#utility.yul\":23455:23459   */\n      dup2\n        /* \"#utility.yul\":23329:23460   */\n      tag_356\n      jump\t// in\n    tag_602:\n        /* \"#utility.yul\":23321:23460   */\n      swap1\n      pop\n        /* \"#utility.yul\":23048:23467   */\n      swap2\n      swap1\n      pop\n      jump\t// out\n        /* \"#utility.yul\":23473:23650   */\n    tag_357:\n        /* \"#utility.yul\":23613:23642   */\n      0x416c726561647920766f746564206f6e20746869732069737375650000000000\n        /* \"#utility.yul\":23609:23610   */\n      0x00\n        /* \"#utility.yul\":23601:23607   */\n      dup3\n        /* \"#utility.yul\":23597:23611   */\n      add\n        /* \"#utility.yul\":23590:23643   */\n      mstore\n        /* \"#utility.yul\":23473:23650   */\n      pop\n      jump\t// out\n        /* \"#utility.yul\":23656:24022   */\n    tag_358:\n        /* \"#utility.yul\":23798:23801   */\n      0x00\n        /* \"#utility.yul\":23819:23886   */\n      tag_605\n        /* \"#utility.yul\":23883:23885   */\n      0x1b\n        /* \"#utility.yul\":23878:23881   */\n      dup4\n        /* \"#utility.yul\":23819:23886   */\n      tag_289\n      jump\t// in\n    tag_605:\n        /* \"#utility.yul\":23812:23886   */\n      swap2\n      pop\n        /* \"#utility.yul\":23895:23988   */\n      tag_606\n        /* \"#utility.yul\":23984:23987   */\n      dup3\n        /* \"#utility.yul\":23895:23988   */\n      tag_357\n      jump\t// in\n    tag_606:\n        /* \"#utility.yul\":24013:24015   */\n      0x20\n        /* \"#utility.yul\":24008:24011   */\n      dup3\n        /* \"#utility.yul\":24004:24016   */\n      add\n        /* \"#utility.yul\":23997:24016   */\n      swap1\n      pop\n        /* \"#utility.yul\":23656:24022   */\n      swap2\n      swap1\n      pop\n      jump\t// out\n        /* \"#utility.yul\":24028:24447   */\n    tag_146:\n        /* \"#utility.yul\":24194:24198   */\n      0x00\n        /* \"#utility.yul\":24232:24234   */\n      0x20\n        /* \"#utility.yul\":24221:24230   */\n      dup3\n        /* \"#utility.yul\":24217:24235   */\n      add\n        /* \"#utility.yul\":24209:24235   */\n      swap1\n      pop\n        /* \"#utility.yul\":24281:24290   */\n      dup2\n        /* \"#utility.yul\":24275:24279   */\n      dup2\n        /* \"#utility.yul\":24271:24291   */\n      sub\n        /* \"#utility.yul\":24267:24268   */\n      0x00\n        /* \"#utility.yul\":24256:24265   */\n      dup4\n        /* \"#utility.yul\":24252:24269   */\n      add\n        /* \"#utility.yul\":24245:24292   */\n      mstore\n        /* \"#utility.yul\":24309:24440   */\n      tag_608\n        /* \"#utility.yul\":24435:24439   */\n      dup2\n        /* \"#utility.yul\":24309:24440   */\n      tag_358\n      jump\t// in\n    tag_608:\n        /* \"#utility.yul\":24301:24440   */\n      swap1\n      pop\n        /* \"#utility.yul\":24028:24447   */\n      swap2\n      swap1\n      pop\n      jump\t// out\n        /* \"#utility.yul\":24453:24633   */\n    tag_152:\n        /* \"#utility.yul\":24501:24578   */\n      0x4e487b7100000000000000000000000000000000000000000000000000000000\n        /* \"#utility.yul\":24498:24499   */\n      0x00\n        /* \"#utility.yul\":24491:24579   */\n      mstore\n        /* \"#utility.yul\":24598:24602   */\n      0x21\n        /* \"#utility.yul\":24595:24596   */\n      0x04\n        /* \"#utility.yul\":24588:24603   */\n      mstore\n        /* \"#utility.yul\":24622:24626   */\n      0x24\n        /* \"#utility.yul\":24619:24620   */\n      0x00\n        /* \"#utility.yul\":24612:24627   */\n      revert\n        /* \"#utility.yul\":24639:24819   */\n    tag_359:\n        /* \"#utility.yul\":24687:24764   */\n      0x4e487b7100000000000000000000000000000000000000000000000000000000\n        /* \"#utility.yul\":24684:24685   */\n      0x00\n        /* \"#utility.yul\":24677:24765   */\n      mstore\n        /* \"#utility.yul\":24784:24788   */\n      0x11\n        /* \"#utility.yul\":24781:24782   */\n      0x04\n        /* \"#utility.yul\":24774:24789   */\n      mstore\n        /* \"#utility.yul\":24808:24812   */\n      0x24\n        /* \"#utility.yul\":24805:24806   */\n      0x00\n        /* \"#utility.yul\":24798:24813   */\n      revert\n        /* \"#utility.yul\":24825:25020   */\n    tag_157:\n        /* \"#utility.yul\":24864:24867   */\n      0x00\n        /* \"#utility.yul\":24883:24902   */\n      tag_612\n        /* \"#utility.yul\":24900:24901   */\n      dup3\n        /* \"#utility.yul\":24883:24902   */\n      tag_313\n      jump\t// in\n    tag_612:\n        /* \"#utility.yul\":24878:24902   */\n      swap2\n      pop\n        /* \"#utility.yul\":24916:24935   */\n      tag_613\n        /* \"#utility.yul\":24933:24934   */\n      dup4\n        /* \"#utility.yul\":24916:24935   */\n      tag_313\n      jump\t// in\n    tag_613:\n        /* \"#utility.yul\":24911:24935   */\n      swap3\n      pop\n        /* \"#utility.yul\":24958:24959   */\n      dup3\n        /* \"#utility.yul\":24955:24956   */\n      dup3\n        /* \"#utility.yul\":24951:24960   */\n      add\n        /* \"#utility.yul\":24944:24960   */\n      swap1\n      pop\n        /* \"#utility.yul\":24981:24989   */\n      0xffffff\n        /* \"#utility.yul\":24976:24979   */\n      dup2\n        /* \"#utility.yul\":24973:24990   */\n      gt\n        /* \"#utility.yul\":24970:25013   */\n      iszero\n      tag_614\n      jumpi\n        /* \"#utility.yul\":24993:25011   */\n      tag_615\n      tag_359\n      jump\t// in\n    tag_615:\n        /* \"#utility.yul\":24970:25013   */\n    tag_614:\n        /* \"#utility.yul\":24825:25020   */\n      swap3\n      swap2\n      pop\n      pop\n      jump\t// out\n        /* \"#utility.yul\":25026:25195   */\n    tag_360:\n        /* \"#utility.yul\":25166:25187   */\n      0x496e76616c696420766f7465206f7074696f6e00000000000000000000000000\n        /* \"#utility.yul\":25162:25163   */\n      0x00\n        /* \"#utility.yul\":25154:25160   */\n      dup3\n        /* \"#utility.yul\":25150:25164   */\n      add\n        /* \"#utility.yul\":25143:25188   */\n      mstore\n        /* \"#utility.yul\":25026:25195   */\n      pop\n      jump\t// out\n        /* \"#utility.yul\":25201:25567   */\n    tag_361:\n        /* \"#utility.yul\":25343:25346   */\n      0x00\n        /* \"#utility.yul\":25364:25431   */\n      tag_618\n        /* \"#utility.yul\":25428:25430   */\n      0x13\n        /* \"#utility.yul\":25423:25426   */\n      dup4\n        /* \"#utility.yul\":25364:25431   */\n      tag_289\n      jump\t// in\n    tag_618:\n        /* \"#utility.yul\":25357:25431   */\n      swap2\n      pop\n        /* \"#utility.yul\":25440:25533   */\n      tag_619\n        /* \"#utility.yul\":25529:25532   */\n      dup3\n        /* \"#utility.yul\":25440:25533   */\n      tag_360\n      jump\t// in\n    tag_619:\n        /* \"#utility.yul\":25558:25560   */\n      0x20\n        /* \"#utility.yul\":25553:25556   */\n      dup3\n        /* \"#utility.yul\":25549:25561   */\n      add\n        /* \"#utility.yul\":25542:25561   */\n      swap1\n      pop\n        /* \"#utility.yul\":25201:25567   */\n      swap2\n      swap1\n      pop\n      jump\t// out\n        /* \"#utility.yul\":25573:25992   */\n    tag_174:\n        /* \"#utility.yul\":25739:25743   */\n      0x00\n        /* \"#utility.yul\":25777:25779   */\n      0x20\n        /* \"#utility.yul\":25766:25775   */\n      dup3\n        /* \"#utility.yul\":25762:25780   */\n      add\n        /* \"#utility.yul\":25754:25780   */\n      swap1\n      pop\n        /* \"#utility.yul\":25826:25835   */\n      dup2\n        /* \"#utility.yul\":25820:25824   */\n      dup2\n        /* \"#utility.yul\":25816:25836   */\n      sub\n        /* \"#utility.yul\":25812:25813   */\n      0x00\n        /* \"#utility.yul\":25801:25810   */\n      dup4\n        /* \"#utility.yul\":25797:25814   */\n      add\n        /* \"#utility.yul\":25790:25837   */\n      mstore\n        /* \"#utility.yul\":25854:25985   */\n      tag_621\n        /* \"#utility.yul\":25980:25984   */\n      dup2\n        /* \"#utility.yul\":25854:25985   */\n      tag_361\n      jump\t// in\n    tag_621:\n        /* \"#utility.yul\":25846:25985   */\n      swap1\n      pop\n        /* \"#utility.yul\":25573:25992   */\n      swap2\n      swap1\n      pop\n      jump\t// out\n        /* \"#utility.yul\":25998:26231   */\n    tag_224:\n        /* \"#utility.yul\":26037:26040   */\n      0x00\n        /* \"#utility.yul\":26060:26084   */\n      tag_623\n        /* \"#utility.yul\":26078:26083   */\n      dup3\n        /* \"#utility.yul\":26060:26084   */\n      tag_300\n      jump\t// in\n    tag_623:\n        /* \"#utility.yul\":26051:26084   */\n      swap2\n      pop\n        /* \"#utility.yul\":26106:26172   */\n      0xffffffffffffffffffffffffffffffffffffffffffffffffffffffffffffffff\n        /* \"#utility.yul\":26099:26104   */\n      dup3\n        /* \"#utility.yul\":26096:26173   */\n      sub\n        /* \"#utility.yul\":26093:26196   */\n      tag_624\n      jumpi\n        /* \"#utility.yul\":26176:26194   */\n      tag_625\n      tag_359\n      jump\t// in\n    tag_625:\n        /* \"#utility.yul\":26093:26196   */\n    tag_624:\n        /* \"#utility.yul\":26223:26224   */\n      0x01\n        /* \"#utility.yul\":26216:26221   */\n      dup3\n        /* \"#utility.yul\":26212:26225   */\n      add\n        /* \"#utility.yul\":26205:26225   */\n      swap1\n      pop\n        /* \"#utility.yul\":25998:26231   */\n      swap2\n      swap1\n      pop\n      jump\t// out\n        /* \"#utility.yul\":26237:26679   */\n    tag_245:\n        /* \"#utility.yul\":26386:26390   */\n      0x00\n        /* \"#utility.yul\":26424:26426   */\n      0x60\n        /* \"#utility.yul\":26413:26422   */\n      dup3\n        /* \"#utility.yul\":26409:26427   */\n      add\n        /* \"#utility.yul\":26401:26427   */\n      swap1\n      pop\n        /* \"#utility.yul\":26437:26508   */\n      tag_627\n        /* \"#utility.yul\":26505:26506   */\n      0x00\n        /* \"#utility.yul\":26494:26503   */\n      dup4\n        /* \"#utility.yul\":26490:26507   */\n      add\n        /* \"#utility.yul\":26481:26487   */\n      dup7\n        /* \"#utility.yul\":26437:26508   */\n      tag_322\n      jump\t// in\n    tag_627:\n        /* \"#utility.yul\":26518:26590   */\n      tag_628\n        /* \"#utility.yul\":26586:26588   */\n      0x20\n        /* \"#utility.yul\":26575:26584   */\n      dup4\n        /* \"#utility.yul\":26571:26589   */\n      add\n        /* \"#utility.yul\":26562:26568   */\n      dup6\n        /* \"#utility.yul\":26518:26590   */\n      tag_316\n      jump\t// in\n    tag_628:\n        /* \"#utility.yul\":26600:26672   */\n      tag_629\n        /* \"#utility.yul\":26668:26670   */\n      0x40\n        /* \"#utility.yul\":26657:26666   */\n      dup4\n        /* \"#utility.yul\":26653:26671   */\n      add\n        /* \"#utility.yul\":26644:26650   */\n      dup5\n        /* \"#utility.yul\":26600:26672   */\n      tag_316\n      jump\t// in\n    tag_629:\n        /* \"#utility.yul\":26237:26679   */\n      swap5\n      swap4\n      pop\n      pop\n      pop\n      pop\n      jump\t// out\n        /* \"#utility.yul\":26685:26876   */\n    tag_276:\n        /* \"#utility.yul\":26725:26728   */\n      0x00\n        /* \"#utility.yul\":26744:26764   */\n      tag_631\n        /* \"#utility.yul\":26762:26763   */\n      dup3\n        /* \"#utility.yul\":26744:26764   */\n      tag_300\n      jump\t// in\n    tag_631:\n        /* \"#utility.yul\":26739:26764   */\n      swap2\n      pop\n        /* \"#utility.yul\":26778:26798   */\n      tag_632\n        /* \"#utility.yul\":26796:26797   */\n      dup4\n        /* \"#utility.yul\":26778:26798   */\n      tag_300\n      jump\t// in\n    tag_632:\n        /* \"#utility.yul\":26773:26798   */\n      swap3\n      pop\n        /* \"#utility.yul\":26821:26822   */\n      dup3\n        /* \"#utility.yul\":26818:26819   */\n      dup3\n        /* \"#utility.yul\":26814:26823   */\n      add\n        /* \"#utility.yul\":26807:26823   */\n      swap1\n      pop\n        /* \"#utility.yul\":26842:26845   */\n      dup1\n        /* \"#utility.yul\":26839:26840   */\n      dup3\n        /* \"#utility.yul\":26836:26846   */\n      gt\n        /* \"#utility.yul\":26833:26869   */\n      iszero\n      tag_633\n      jumpi\n        /* \"#utility.yul\":26849:26867   */\n      tag_634\n      tag_359\n      jump\t// in\n    tag_634:\n        /* \"#utility.yul\":26833:26869   */\n    tag_633:\n        /* \"#utility.yul\":26685:26876   */\n      swap3\n      swap2\n      pop\n      pop\n      jump\t// out\n\n    auxdata: 0xa2646970667358221220d2c5df6a0c21512e1300312a26938541d40ddd30ae3781e7b95d327cf5c6af3164736f6c63430008140033\n}\n",
				"bytecode": {
					"linkReferences": {},
					"object": "608060405234801562000010575f80fd5b5060405162002c1e38038062002c1e833981810160405281019062000036919062000248565b8181816003908162000049919062000502565b5080600490816200005b919062000502565b505050620f424060055f6101000a81548162ffffff021916908362ffffff1602179055506064600560036101000a81548162ffffff021916908362ffffff160217905550600960018160018154018082558091505003905f5260205f209050505050620005e6565b5f604051905090565b5f80fd5b5f80fd5b5f80fd5b5f80fd5b5f601f19601f8301169050919050565b7f4e487b71000000000000000000000000000000000000000000000000000000005f52604160045260245ffd5b6200012482620000dc565b810181811067ffffffffffffffff82111715620001465762000145620000ec565b5b80604052505050565b5f6200015a620000c3565b905062000168828262000119565b919050565b5f67ffffffffffffffff8211156200018a5762000189620000ec565b5b6200019582620000dc565b9050602081019050919050565b5f5b83811015620001c1578082015181840152602081019050620001a4565b5f8484015250505050565b5f620001e2620001dc846200016d565b6200014f565b905082815260208101848484011115620002015762000200620000d8565b5b6200020e848285620001a2565b509392505050565b5f82601f8301126200022d576200022c620000d4565b5b81516200023f848260208601620001cc565b91505092915050565b5f8060408385031215620002615762000260620000cc565b5b5f83015167ffffffffffffffff811115620002815762000280620000d0565b5b6200028f8582860162000216565b925050602083015167ffffffffffffffff811115620002b357620002b2620000d0565b5b620002c18582860162000216565b9150509250929050565b5f81519050919050565b7f4e487b71000000000000000000000000000000000000000000000000000000005f52602260045260245ffd5b5f60028204905060018216806200031a57607f821691505b60208210810362000330576200032f620002d5565b5b50919050565b5f819050815f5260205f209050919050565b5f6020601f8301049050919050565b5f82821b905092915050565b5f60088302620003947fffffffffffffffffffffffffffffffffffffffffffffffffffffffffffffffff8262000357565b620003a0868362000357565b95508019841693508086168417925050509392505050565b5f819050919050565b5f819050919050565b5f620003ea620003e4620003de84620003b8565b620003c1565b620003b8565b9050919050565b5f819050919050565b6200040583620003ca565b6200041d6200041482620003f1565b84845462000363565b825550505050565b5f90565b6200043362000425565b62000440818484620003fa565b505050565b5b8181101562000467576200045b5f8262000429565b60018101905062000446565b5050565b601f821115620004b657620004808162000336565b6200048b8462000348565b810160208510156200049b578190505b620004b3620004aa8562000348565b83018262000445565b50505b505050565b5f82821c905092915050565b5f620004d85f1984600802620004bb565b1980831691505092915050565b5f620004f28383620004c7565b9150826002028217905092915050565b6200050d82620002cb565b67ffffffffffffffff811115620005295762000528620000ec565b5b62000535825462000302565b620005428282856200046b565b5f60209050601f83116001811462000578575f841562000563578287015190505b6200056f8582620004e5565b865550620005de565b601f198416620005888662000336565b5f5b82811015620005b1578489015182556001820191506020850194506020810190506200058a565b86831015620005d15784890151620005cd601f891682620004c7565b8355505b6001600288020188555050505b505050505050565b61262a80620005f45f395ff3fe608060405234801561000f575f80fd5b506004361061011f575f3560e01c806370a08231116100ab5780639668ceb81161006f5780639668ceb81461031d578063a9059cbb1461033b578063d5abeb011461036b578063dd62ed3e14610389578063fca22842146103b95761011f565b806370a082311461026357806373b2e80e14610293578063830953ab146102c35780638da5cb5b146102e157806395d89b41146102ff5761011f565b806321e4c301116100f257806321e4c301146101bf57806323b872dd146101db57806327e235e31461020b578063313ce5671461023b5780634e71d92d146102595761011f565b806306fdde0314610123578063095ea7b3146101415780630c6a86151461017157806318160ddd146101a1575b5f80fd5b61012b6103e9565b6040516101389190611887565b60405180910390f35b61015b60048036038101906101569190611945565b610479565b604051610168919061199d565b60405180910390f35b61018b60048036038101906101869190611b1a565b61049b565b6040516101989190611b83565b60405180910390f35b6101a96105fe565b6040516101b69190611b83565b60405180910390f35b6101d960048036038101906101d49190611bbf565b610607565b005b6101f560048036038101906101f09190611bfd565b6109f8565b604051610202919061199d565b60405180910390f35b61022560048036038101906102209190611c4d565b610a26565b6040516102329190611c87565b60405180910390f35b610243610a45565b6040516102509190611cbb565b60405180910390f35b610261610a4d565b005b61027d60048036038101906102789190611c4d565b610c5e565b60405161028a9190611b83565b60405180910390f35b6102ad60048036038101906102a89190611c4d565b610ca3565b6040516102ba919061199d565b60405180910390f35b6102cb610cc0565b6040516102d89190611c87565b60405180910390f35b6102e9610cd5565b6040516102f69190611ce3565b60405180910390f35b610307610cfa565b6040516103149190611887565b60405180910390f35b610325610d8a565b6040516103329190611c87565b60405180910390f35b61035560048036038101906103509190611945565b610d9f565b604051610362919061199d565b60405180910390f35b610373610dc1565b6040516103809190611c87565b60405180910390f35b6103a3600480360381019061039e9190611cfc565b610dd5565b6040516103b09190611b83565b60405180910390f35b6103d360048036038101906103ce9190611d3a565b610e57565b6040516103e09190611f4b565b60405180910390f35b6060600380546103f890611f98565b80601f016020809104026020016040519081016040528092919081815260200182805461042490611f98565b801561046f5780601f106104465761010080835404028352916020019161046f565b820191905f5260205f20905b81548152906001019060200180831161045257829003601f168201915b5050505050905090565b5f806104836110d7565b90506104908185856110de565b600191505092915050565b5f8060065f3373ffffffffffffffffffffffffffffffffffffffff1673ffffffffffffffffffffffffffffffffffffffff1681526020019081526020015f205f9054906101000a900462ffffff1662ffffff161161052e576040517f08c379a000000000000000000000000000000000000000000000000000000000815260040161052590612038565b60405180910390fd5b6105366105fe565b8262ffffff16111561057d576040517f08c379a0000000000000000000000000000000000000000000000000000000008152600401610574906120c6565b60405180910390fd5b6009805490509050600960018160018154018082558091505003905f5260205f209050505f600982815481106105b6576105b56120e4565b5b905f5260205f2090600402019050838160020190816105d591906122ae565b508281600301600c6101000a81548162ffffff021916908362ffffff1602179055505092915050565b5f600254905090565b60098262ffffff16815481106106205761061f6120e4565b5b905f5260205f20906004020160030160109054906101000a900460ff161561067d576040517f08c379a0000000000000000000000000000000000000000000000000000000008152600401610674906123c7565b60405180910390fd5b6106b63360098462ffffff168154811061069a576106996120e4565b5b905f5260205f2090600402015f016110f090919063ffffffff16565b156106f6576040517f08c379a00000000000000000000000000000000000000000000000000000000081526004016106ed9061242f565b60405180910390fd5b5f60098362ffffff16815481106107105761070f6120e4565b5b905f5260205f20906004020190505f60065f3373ffffffffffffffffffffffffffffffffffffffff1673ffffffffffffffffffffffffffffffffffffffff1681526020019081526020015f205f9054906101000a900462ffffff169050600160028111156107815761078061244d565b5b8360028111156107945761079361244d565b5b036107db5780826003015f8282829054906101000a900462ffffff166107ba91906124a7565b92506101000a81548162ffffff021916908362ffffff1602179055506108f4565b5f60028111156107ee576107ed61244d565b5b8360028111156108015761080061244d565b5b0361084957808260030160038282829054906101000a900462ffffff1661082891906124a7565b92506101000a81548162ffffff021916908362ffffff1602179055506108f3565b60028081111561085c5761085b61244d565b5b83600281111561086f5761086e61244d565b5b036108b757808260030160068282829054906101000a900462ffffff1661089691906124a7565b92506101000a81548162ffffff021916908362ffffff1602179055506108f2565b6040517f08c379a00000000000000000000000000000000000000000000000000000000081526004016108e990612527565b60405180910390fd5b5b5b808260030160098282829054906101000a900462ffffff1661091691906124a7565b92506101000a81548162ffffff021916908362ffffff16021790555061094733835f0161111d90919063ffffffff16565b5081600301600c9054906101000a900462ffffff1662ffffff168260030160099054906101000a900462ffffff1662ffffff16106109f25760018260030160106101000a81548160ff0219169083151502179055508160030160039054906101000a900462ffffff1662ffffff16826003015f9054906101000a900462ffffff1662ffffff1611156109f157600182600301600f6101000a81548160ff0219169083151502179055505b5b50505050565b5f80610a026110d7565b9050610a0f85828561114a565b610a1a8585856111dc565b60019150509392505050565b6006602052805f5260405f205f915054906101000a900462ffffff1681565b5f6012905090565b60055f9054906101000a900462ffffff1662ffffff16600560069054906101000a900462ffffff1662ffffff161115610ab2576040517fcbe2483100000000000000000000000000000000000000000000000000000000815260040160405180910390fd5b60075f3373ffffffffffffffffffffffffffffffffffffffff1673ffffffffffffffffffffffffffffffffffffffff1681526020019081526020015f205f9054906101000a900460ff1615610b33576040517f0b1327a600000000000000000000000000000000000000000000000000000000815260040160405180910390fd5b600560039054906101000a900462ffffff1660065f3373ffffffffffffffffffffffffffffffffffffffff1673ffffffffffffffffffffffffffffffffffffffff1681526020019081526020015f205f8282829054906101000a900462ffffff16610b9e91906124a7565b92506101000a81548162ffffff021916908362ffffff160217905550600560039054906101000a900462ffffff16600560068282829054906101000a900462ffffff16610beb91906124a7565b92506101000a81548162ffffff021916908362ffffff160217905550600160075f3373ffffffffffffffffffffffffffffffffffffffff1673ffffffffffffffffffffffffffffffffffffffff1681526020019081526020015f205f6101000a81548160ff021916908315150217905550565b5f805f8373ffffffffffffffffffffffffffffffffffffffff1673ffffffffffffffffffffffffffffffffffffffff1681526020019081526020015f20549050919050565b6007602052805f5260405f205f915054906101000a900460ff1681565b600560039054906101000a900462ffffff1681565b60085f9054906101000a900473ffffffffffffffffffffffffffffffffffffffff1681565b606060048054610d0990611f98565b80601f0160208091040260200160405190810160405280929190818152602001828054610d3590611f98565b8015610d805780601f10610d5757610100808354040283529160200191610d80565b820191905f5260205f20905b815481529060010190602001808311610d6357829003601f168201915b5050505050905090565b600560069054906101000a900462ffffff1681565b5f80610da96110d7565b9050610db68185856111dc565b600191505092915050565b60055f9054906101000a900462ffffff1681565b5f60015f8473ffffffffffffffffffffffffffffffffffffffff1673ffffffffffffffffffffffffffffffffffffffff1681526020019081526020015f205f8373ffffffffffffffffffffffffffffffffffffffff1673ffffffffffffffffffffffffffffffffffffffff1681526020019081526020015f2054905092915050565b610e5f61179b565b5f60098362ffffff1681548110610e7957610e786120e4565b5b905f5260205f20906004020190505f610e93825f016112cc565b67ffffffffffffffff811115610eac57610eab6119be565b5b604051908082528060200260200182016040528015610eda5781602001602082028036833780820191505090505b5090505f5b610eea835f016112cc565b811015610f6657610f0681845f016112df90919063ffffffff16565b828281518110610f1957610f186120e4565b5b602002602001019073ffffffffffffffffffffffffffffffffffffffff16908173ffffffffffffffffffffffffffffffffffffffff16815250508080610f5e90612545565b915050610edf565b50604051806101200160405280828152602001836002018054610f8890611f98565b80601f0160208091040260200160405190810160405280929190818152602001828054610fb490611f98565b8015610fff5780601f10610fd657610100808354040283529160200191610fff565b820191905f5260205f20905b815481529060010190602001808311610fe257829003601f168201915b50505050508152602001836003015f9054906101000a900462ffffff1662ffffff1681526020018360030160039054906101000a900462ffffff1662ffffff1681526020018360030160069054906101000a900462ffffff1662ffffff1681526020018360030160099054906101000a900462ffffff1662ffffff16815260200183600301600c9054906101000a900462ffffff1662ffffff16815260200183600301600f9054906101000a900460ff16151581526020018360030160109054906101000a900460ff16151581525092505050919050565b5f33905090565b6110eb83838360016112f6565b505050565b5f611115835f018373ffffffffffffffffffffffffffffffffffffffff165f1b6114c5565b905092915050565b5f611142835f018373ffffffffffffffffffffffffffffffffffffffff165f1b6114e5565b905092915050565b5f6111558484610dd5565b90507fffffffffffffffffffffffffffffffffffffffffffffffffffffffffffffffff81146111d657818110156111c7578281836040517ffb8f41b20000000000000000000000000000000000000000000000000000000081526004016111be9392919061258c565b60405180910390fd5b6111d584848484035f6112f6565b5b50505050565b5f73ffffffffffffffffffffffffffffffffffffffff168373ffffffffffffffffffffffffffffffffffffffff160361124c575f6040517f96c6fd1e0000000000000000000000000000000000000000000000000000000081526004016112439190611ce3565b60405180910390fd5b5f73ffffffffffffffffffffffffffffffffffffffff168273ffffffffffffffffffffffffffffffffffffffff16036112bc575f6040517fec442f050000000000000000000000000000000000000000000000000000000081526004016112b39190611ce3565b60405180910390fd5b6112c783838361154c565b505050565b5f6112d8825f01611765565b9050919050565b5f6112ec835f0183611774565b5f1c905092915050565b5f73ffffffffffffffffffffffffffffffffffffffff168473ffffffffffffffffffffffffffffffffffffffff1603611366575f6040517fe602df0500000000000000000000000000000000000000000000000000000000815260040161135d9190611ce3565b60405180910390fd5b5f73ffffffffffffffffffffffffffffffffffffffff168373ffffffffffffffffffffffffffffffffffffffff16036113d6575f6040517f94280d620000000000000000000000000000000000000000000000000000000081526004016113cd9190611ce3565b60405180910390fd5b8160015f8673ffffffffffffffffffffffffffffffffffffffff1673ffffffffffffffffffffffffffffffffffffffff1681526020019081526020015f205f8573ffffffffffffffffffffffffffffffffffffffff1673ffffffffffffffffffffffffffffffffffffffff1681526020019081526020015f208190555080156114bf578273ffffffffffffffffffffffffffffffffffffffff168473ffffffffffffffffffffffffffffffffffffffff167f8c5be1e5ebec7d5bd14f71427d1e84f3dd0314c0f7b2291e5b200ac8c7c3b925846040516114b69190611b83565b60405180910390a35b50505050565b5f80836001015f8481526020019081526020015f20541415905092915050565b5f6114f083836114c5565b61154257825f0182908060018154018082558091505060019003905f5260205f20015f9091909190915055825f0180549050836001015f8481526020019081526020015f208190555060019050611546565b5f90505b92915050565b5f73ffffffffffffffffffffffffffffffffffffffff168373ffffffffffffffffffffffffffffffffffffffff160361159c578060025f82825461159091906125c1565b9250508190555061166a565b5f805f8573ffffffffffffffffffffffffffffffffffffffff1673ffffffffffffffffffffffffffffffffffffffff1681526020019081526020015f2054905081811015611625578381836040517fe450d38c00000000000000000000000000000000000000000000000000000000815260040161161c9392919061258c565b60405180910390fd5b8181035f808673ffffffffffffffffffffffffffffffffffffffff1673ffffffffffffffffffffffffffffffffffffffff1681526020019081526020015f2081905550505b5f73ffffffffffffffffffffffffffffffffffffffff168273ffffffffffffffffffffffffffffffffffffffff16036116b1578060025f82825403925050819055506116fb565b805f808473ffffffffffffffffffffffffffffffffffffffff1673ffffffffffffffffffffffffffffffffffffffff1681526020019081526020015f205f82825401925050819055505b8173ffffffffffffffffffffffffffffffffffffffff168373ffffffffffffffffffffffffffffffffffffffff167fddf252ad1be2c89b69c2b068fc378daa952ba7f163c4a11628f55a4df523b3ef836040516117589190611b83565b60405180910390a3505050565b5f815f01805490509050919050565b5f825f01828154811061178a576117896120e4565b5b905f5260205f200154905092915050565b60405180610120016040528060608152602001606081526020015f62ffffff1681526020015f62ffffff1681526020015f62ffffff1681526020015f62ffffff1681526020015f62ffffff1681526020015f151581526020015f151581525090565b5f81519050919050565b5f82825260208201905092915050565b5f5b83811015611834578082015181840152602081019050611819565b5f8484015250505050565b5f601f19601f8301169050919050565b5f611859826117fd565b6118638185611807565b9350611873818560208601611817565b61187c8161183f565b840191505092915050565b5f6020820190508181035f83015261189f818461184f565b905092915050565b5f604051905090565b5f80fd5b5f80fd5b5f73ffffffffffffffffffffffffffffffffffffffff82169050919050565b5f6118e1826118b8565b9050919050565b6118f1816118d7565b81146118fb575f80fd5b50565b5f8135905061190c816118e8565b92915050565b5f819050919050565b61192481611912565b811461192e575f80fd5b50565b5f8135905061193f8161191b565b92915050565b5f806040838503121561195b5761195a6118b0565b5b5f611968858286016118fe565b925050602061197985828601611931565b9150509250929050565b5f8115159050919050565b61199781611983565b82525050565b5f6020820190506119b05f83018461198e565b92915050565b5f80fd5b5f80fd5b7f4e487b71000000000000000000000000000000000000000000000000000000005f52604160045260245ffd5b6119f48261183f565b810181811067ffffffffffffffff82111715611a1357611a126119be565b5b80604052505050565b5f611a256118a7565b9050611a3182826119eb565b919050565b5f67ffffffffffffffff821115611a5057611a4f6119be565b5b611a598261183f565b9050602081019050919050565b828183375f83830152505050565b5f611a86611a8184611a36565b611a1c565b905082815260208101848484011115611aa257611aa16119ba565b5b611aad848285611a66565b509392505050565b5f82601f830112611ac957611ac86119b6565b5b8135611ad9848260208601611a74565b91505092915050565b5f62ffffff82169050919050565b611af981611ae2565b8114611b03575f80fd5b50565b5f81359050611b1481611af0565b92915050565b5f8060408385031215611b3057611b2f6118b0565b5b5f83013567ffffffffffffffff811115611b4d57611b4c6118b4565b5b611b5985828601611ab5565b9250506020611b6a85828601611b06565b9150509250929050565b611b7d81611912565b82525050565b5f602082019050611b965f830184611b74565b92915050565b60038110611ba8575f80fd5b50565b5f81359050611bb981611b9c565b92915050565b5f8060408385031215611bd557611bd46118b0565b5b5f611be285828601611b06565b9250506020611bf385828601611bab565b9150509250929050565b5f805f60608486031215611c1457611c136118b0565b5b5f611c21868287016118fe565b9350506020611c32868287016118fe565b9250506040611c4386828701611931565b9150509250925092565b5f60208284031215611c6257611c616118b0565b5b5f611c6f848285016118fe565b91505092915050565b611c8181611ae2565b82525050565b5f602082019050611c9a5f830184611c78565b92915050565b5f60ff82169050919050565b611cb581611ca0565b82525050565b5f602082019050611cce5f830184611cac565b92915050565b611cdd816118d7565b82525050565b5f602082019050611cf65f830184611cd4565b92915050565b5f8060408385031215611d1257611d116118b0565b5b5f611d1f858286016118fe565b9250506020611d30858286016118fe565b9150509250929050565b5f60208284031215611d4f57611d4e6118b0565b5b5f611d5c84828501611b06565b91505092915050565b5f81519050919050565b5f82825260208201905092915050565b5f819050602082019050919050565b611d97816118d7565b82525050565b5f611da88383611d8e565b60208301905092915050565b5f602082019050919050565b5f611dca82611d65565b611dd48185611d6f565b9350611ddf83611d7f565b805f5b83811015611e0f578151611df68882611d9d565b9750611e0183611db4565b925050600181019050611de2565b5085935050505092915050565b5f82825260208201905092915050565b5f611e36826117fd565b611e408185611e1c565b9350611e50818560208601611817565b611e598161183f565b840191505092915050565b611e6d81611ae2565b82525050565b611e7c81611983565b82525050565b5f61012083015f8301518482035f860152611e9d8282611dc0565b91505060208301518482036020860152611eb78282611e2c565b9150506040830151611ecc6040860182611e64565b506060830151611edf6060860182611e64565b506080830151611ef26080860182611e64565b5060a0830151611f0560a0860182611e64565b5060c0830151611f1860c0860182611e64565b5060e0830151611f2b60e0860182611e73565b50610100830151611f40610100860182611e73565b508091505092915050565b5f6020820190508181035f830152611f638184611e82565b905092915050565b7f4e487b71000000000000000000000000000000000000000000000000000000005f52602260045260245ffd5b5f6002820490506001821680611faf57607f821691505b602082108103611fc257611fc1611f6b565b5b50919050565b7f4f6e6c7920746f6b656e20686f6c646572732063616e206372656174652069735f8201527f7375657300000000000000000000000000000000000000000000000000000000602082015250565b5f612022602483611807565b915061202d82611fc8565b604082019050919050565b5f6020820190508181035f83015261204f81612016565b9050919050565b7f51756f72756d2063616e6e6f742062652067726561746572207468616e2074685f8201527f6520746f74616c206e756d626572206f6620746f6b656e730000000000000000602082015250565b5f6120b0603883611807565b91506120bb82612056565b604082019050919050565b5f6020820190508181035f8301526120dd816120a4565b9050919050565b7f4e487b71000000000000000000000000000000000000000000000000000000005f52603260045260245ffd5b5f819050815f5260205f209050919050565b5f6020601f8301049050919050565b5f82821b905092915050565b5f6008830261216d7fffffffffffffffffffffffffffffffffffffffffffffffffffffffffffffffff82612132565b6121778683612132565b95508019841693508086168417925050509392505050565b5f819050919050565b5f6121b26121ad6121a884611912565b61218f565b611912565b9050919050565b5f819050919050565b6121cb83612198565b6121df6121d7826121b9565b84845461213e565b825550505050565b5f90565b6121f36121e7565b6121fe8184846121c2565b505050565b5b81811015612221576122165f826121eb565b600181019050612204565b5050565b601f8211156122665761223781612111565b61224084612123565b8101602085101561224f578190505b61226361225b85612123565b830182612203565b50505b505050565b5f82821c905092915050565b5f6122865f198460080261226b565b1980831691505092915050565b5f61229e8383612277565b9150826002028217905092915050565b6122b7826117fd565b67ffffffffffffffff8111156122d0576122cf6119be565b5b6122da8254611f98565b6122e5828285612225565b5f60209050601f831160018114612316575f8415612304578287015190505b61230e8582612293565b865550612375565b601f19841661232486612111565b5f5b8281101561234b57848901518255600182019150602085019450602081019050612326565b868310156123685784890151612364601f891682612277565b8355505b6001600288020188555050505b505050505050565b7f566f74696e6720697320636c6f73656420666f722074686973206973737565005f82015250565b5f6123b1601f83611807565b91506123bc8261237d565b602082019050919050565b5f6020820190508181035f8301526123de816123a5565b9050919050565b7f416c726561647920766f746564206f6e207468697320697373756500000000005f82015250565b5f612419601b83611807565b9150612424826123e5565b602082019050919050565b5f6020820190508181035f8301526124468161240d565b9050919050565b7f4e487b71000000000000000000000000000000000000000000000000000000005f52602160045260245ffd5b7f4e487b71000000000000000000000000000000000000000000000000000000005f52601160045260245ffd5b5f6124b182611ae2565b91506124bc83611ae2565b9250828201905062ffffff8111156124d7576124d661247a565b5b92915050565b7f496e76616c696420766f7465206f7074696f6e000000000000000000000000005f82015250565b5f612511601383611807565b915061251c826124dd565b602082019050919050565b5f6020820190508181035f83015261253e81612505565b9050919050565b5f61254f82611912565b91507fffffffffffffffffffffffffffffffffffffffffffffffffffffffffffffffff82036125815761258061247a565b5b600182019050919050565b5f60608201905061259f5f830186611cd4565b6125ac6020830185611b74565b6125b96040830184611b74565b949350505050565b5f6125cb82611912565b91506125d683611912565b92508282019050808211156125ee576125ed61247a565b5b9291505056fea2646970667358221220d2c5df6a0c21512e1300312a26938541d40ddd30ae3781e7b95d327cf5c6af3164736f6c63430008140033",
					"opcodes": "PUSH1 0x80 PUSH1 0x40 MSTORE CALLVALUE DUP1 ISZERO PUSH3 0x10 JUMPI PUSH0 DUP1 REVERT JUMPDEST POP PUSH1 0x40 MLOAD PUSH3 0x2C1E CODESIZE SUB DUP1 PUSH3 0x2C1E DUP4 CODECOPY DUP2 DUP2 ADD PUSH1 0x40 MSTORE DUP2 ADD SWAP1 PUSH3 0x36 SWAP2 SWAP1 PUSH3 0x248 JUMP JUMPDEST DUP2 DUP2 DUP2 PUSH1 0x3 SWAP1 DUP2 PUSH3 0x49 SWAP2 SWAP1 PUSH3 0x502 JUMP JUMPDEST POP DUP1 PUSH1 0x4 SWAP1 DUP2 PUSH3 0x5B SWAP2 SWAP1 PUSH3 0x502 JUMP JUMPDEST POP POP POP PUSH3 0xF4240 PUSH1 0x5 PUSH0 PUSH2 0x100 EXP DUP2 SLOAD DUP2 PUSH3 0xFFFFFF MUL NOT AND SWAP1 DUP4 PUSH3 0xFFFFFF AND MUL OR SWAP1 SSTORE POP PUSH1 0x64 PUSH1 0x5 PUSH1 0x3 PUSH2 0x100 EXP DUP2 SLOAD DUP2 PUSH3 0xFFFFFF MUL NOT AND SWAP1 DUP4 PUSH3 0xFFFFFF AND MUL OR SWAP1 SSTORE POP PUSH1 0x9 PUSH1 0x1 DUP2 PUSH1 0x1 DUP2 SLOAD ADD DUP1 DUP3 SSTORE DUP1 SWAP2 POP POP SUB SWAP1 PUSH0 MSTORE PUSH1 0x20 PUSH0 KECCAK256 SWAP1 POP POP POP POP PUSH3 0x5E6 JUMP JUMPDEST PUSH0 PUSH1 0x40 MLOAD SWAP1 POP SWAP1 JUMP JUMPDEST PUSH0 DUP1 REVERT JUMPDEST PUSH0 DUP1 REVERT JUMPDEST PUSH0 DUP1 REVERT JUMPDEST PUSH0 DUP1 REVERT JUMPDEST PUSH0 PUSH1 0x1F NOT PUSH1 0x1F DUP4 ADD AND SWAP1 POP SWAP2 SWAP1 POP JUMP JUMPDEST PUSH32 0x4E487B7100000000000000000000000000000000000000000000000000000000 PUSH0 MSTORE PUSH1 0x41 PUSH1 0x4 MSTORE PUSH1 0x24 PUSH0 REVERT JUMPDEST PUSH3 0x124 DUP3 PUSH3 0xDC JUMP JUMPDEST DUP2 ADD DUP2 DUP2 LT PUSH8 0xFFFFFFFFFFFFFFFF DUP3 GT OR ISZERO PUSH3 0x146 JUMPI PUSH3 0x145 PUSH3 0xEC JUMP JUMPDEST JUMPDEST DUP1 PUSH1 0x40 MSTORE POP POP POP JUMP JUMPDEST PUSH0 PUSH3 0x15A PUSH3 0xC3 JUMP JUMPDEST SWAP1 POP PUSH3 0x168 DUP3 DUP3 PUSH3 0x119 JUMP JUMPDEST SWAP2 SWAP1 POP JUMP JUMPDEST PUSH0 PUSH8 0xFFFFFFFFFFFFFFFF DUP3 GT ISZERO PUSH3 0x18A JUMPI PUSH3 0x189 PUSH3 0xEC JUMP JUMPDEST JUMPDEST PUSH3 0x195 DUP3 PUSH3 0xDC JUMP JUMPDEST SWAP1 POP PUSH1 0x20 DUP2 ADD SWAP1 POP SWAP2 SWAP1 POP JUMP JUMPDEST PUSH0 JUMPDEST DUP4 DUP2 LT ISZERO PUSH3 0x1C1 JUMPI DUP1 DUP3 ADD MLOAD DUP2 DUP5 ADD MSTORE PUSH1 0x20 DUP2 ADD SWAP1 POP PUSH3 0x1A4 JUMP JUMPDEST PUSH0 DUP5 DUP5 ADD MSTORE POP POP POP POP JUMP JUMPDEST PUSH0 PUSH3 0x1E2 PUSH3 0x1DC DUP5 PUSH3 0x16D JUMP JUMPDEST PUSH3 0x14F JUMP JUMPDEST SWAP1 POP DUP3 DUP2 MSTORE PUSH1 0x20 DUP2 ADD DUP5 DUP5 DUP5 ADD GT ISZERO PUSH3 0x201 JUMPI PUSH3 0x200 PUSH3 0xD8 JUMP JUMPDEST JUMPDEST PUSH3 0x20E DUP5 DUP3 DUP6 PUSH3 0x1A2 JUMP JUMPDEST POP SWAP4 SWAP3 POP POP POP JUMP JUMPDEST PUSH0 DUP3 PUSH1 0x1F DUP4 ADD SLT PUSH3 0x22D JUMPI PUSH3 0x22C PUSH3 0xD4 JUMP JUMPDEST JUMPDEST DUP2 MLOAD PUSH3 0x23F DUP5 DUP3 PUSH1 0x20 DUP7 ADD PUSH3 0x1CC JUMP JUMPDEST SWAP2 POP POP SWAP3 SWAP2 POP POP JUMP JUMPDEST PUSH0 DUP1 PUSH1 0x40 DUP4 DUP6 SUB SLT ISZERO PUSH3 0x261 JUMPI PUSH3 0x260 PUSH3 0xCC JUMP JUMPDEST JUMPDEST PUSH0 DUP4 ADD MLOAD PUSH8 0xFFFFFFFFFFFFFFFF DUP2 GT ISZERO PUSH3 0x281 JUMPI PUSH3 0x280 PUSH3 0xD0 JUMP JUMPDEST JUMPDEST PUSH3 0x28F DUP6 DUP3 DUP7 ADD PUSH3 0x216 JUMP JUMPDEST SWAP3 POP POP PUSH1 0x20 DUP4 ADD MLOAD PUSH8 0xFFFFFFFFFFFFFFFF DUP2 GT ISZERO PUSH3 0x2B3 JUMPI PUSH3 0x2B2 PUSH3 0xD0 JUMP JUMPDEST JUMPDEST PUSH3 0x2C1 DUP6 DUP3 DUP7 ADD PUSH3 0x216 JUMP JUMPDEST SWAP2 POP POP SWAP3 POP SWAP3 SWAP1 POP JUMP JUMPDEST PUSH0 DUP2 MLOAD SWAP1 POP SWAP2 SWAP1 POP JUMP JUMPDEST PUSH32 0x4E487B7100000000000000000000000000000000000000000000000000000000 PUSH0 MSTORE PUSH1 0x22 PUSH1 0x4 MSTORE PUSH1 0x24 PUSH0 REVERT JUMPDEST PUSH0 PUSH1 0x2 DUP3 DIV SWAP1 POP PUSH1 0x1 DUP3 AND DUP1 PUSH3 0x31A JUMPI PUSH1 0x7F DUP3 AND SWAP2 POP JUMPDEST PUSH1 0x20 DUP3 LT DUP2 SUB PUSH3 0x330 JUMPI PUSH3 0x32F PUSH3 0x2D5 JUMP JUMPDEST JUMPDEST POP SWAP2 SWAP1 POP JUMP JUMPDEST PUSH0 DUP2 SWAP1 POP DUP2 PUSH0 MSTORE PUSH1 0x20 PUSH0 KECCAK256 SWAP1 POP SWAP2 SWAP1 POP JUMP JUMPDEST PUSH0 PUSH1 0x20 PUSH1 0x1F DUP4 ADD DIV SWAP1 POP SWAP2 SWAP1 POP JUMP JUMPDEST PUSH0 DUP3 DUP3 SHL SWAP1 POP SWAP3 SWAP2 POP POP JUMP JUMPDEST PUSH0 PUSH1 0x8 DUP4 MUL PUSH3 0x394 PUSH32 0xFFFFFFFFFFFFFFFFFFFFFFFFFFFFFFFFFFFFFFFFFFFFFFFFFFFFFFFFFFFFFFFF DUP3 PUSH3 0x357 JUMP JUMPDEST PUSH3 0x3A0 DUP7 DUP4 PUSH3 0x357 JUMP JUMPDEST SWAP6 POP DUP1 NOT DUP5 AND SWAP4 POP DUP1 DUP7 AND DUP5 OR SWAP3 POP POP POP SWAP4 SWAP3 POP POP POP JUMP JUMPDEST PUSH0 DUP2 SWAP1 POP SWAP2 SWAP1 POP JUMP JUMPDEST PUSH0 DUP2 SWAP1 POP SWAP2 SWAP1 POP JUMP JUMPDEST PUSH0 PUSH3 0x3EA PUSH3 0x3E4 PUSH3 0x3DE DUP5 PUSH3 0x3B8 JUMP JUMPDEST PUSH3 0x3C1 JUMP JUMPDEST PUSH3 0x3B8 JUMP JUMPDEST SWAP1 POP SWAP2 SWAP1 POP JUMP JUMPDEST PUSH0 DUP2 SWAP1 POP SWAP2 SWAP1 POP JUMP JUMPDEST PUSH3 0x405 DUP4 PUSH3 0x3CA JUMP JUMPDEST PUSH3 0x41D PUSH3 0x414 DUP3 PUSH3 0x3F1 JUMP JUMPDEST DUP5 DUP5 SLOAD PUSH3 0x363 JUMP JUMPDEST DUP3 SSTORE POP POP POP POP JUMP JUMPDEST PUSH0 SWAP1 JUMP JUMPDEST PUSH3 0x433 PUSH3 0x425 JUMP JUMPDEST PUSH3 0x440 DUP2 DUP5 DUP5 PUSH3 0x3FA JUMP JUMPDEST POP POP POP JUMP JUMPDEST JUMPDEST DUP2 DUP2 LT ISZERO PUSH3 0x467 JUMPI PUSH3 0x45B PUSH0 DUP3 PUSH3 0x429 JUMP JUMPDEST PUSH1 0x1 DUP2 ADD SWAP1 POP PUSH3 0x446 JUMP JUMPDEST POP POP JUMP JUMPDEST PUSH1 0x1F DUP3 GT ISZERO PUSH3 0x4B6 JUMPI PUSH3 0x480 DUP2 PUSH3 0x336 JUMP JUMPDEST PUSH3 0x48B DUP5 PUSH3 0x348 JUMP JUMPDEST DUP2 ADD PUSH1 0x20 DUP6 LT ISZERO PUSH3 0x49B JUMPI DUP2 SWAP1 POP JUMPDEST PUSH3 0x4B3 PUSH3 0x4AA DUP6 PUSH3 0x348 JUMP JUMPDEST DUP4 ADD DUP3 PUSH3 0x445 JUMP JUMPDEST POP POP JUMPDEST POP POP POP JUMP JUMPDEST PUSH0 DUP3 DUP3 SHR SWAP1 POP SWAP3 SWAP2 POP POP JUMP JUMPDEST PUSH0 PUSH3 0x4D8 PUSH0 NOT DUP5 PUSH1 0x8 MUL PUSH3 0x4BB JUMP JUMPDEST NOT DUP1 DUP4 AND SWAP2 POP POP SWAP3 SWAP2 POP POP JUMP JUMPDEST PUSH0 PUSH3 0x4F2 DUP4 DUP4 PUSH3 0x4C7 JUMP JUMPDEST SWAP2 POP DUP3 PUSH1 0x2 MUL DUP3 OR SWAP1 POP SWAP3 SWAP2 POP POP JUMP JUMPDEST PUSH3 0x50D DUP3 PUSH3 0x2CB JUMP JUMPDEST PUSH8 0xFFFFFFFFFFFFFFFF DUP2 GT ISZERO PUSH3 0x529 JUMPI PUSH3 0x528 PUSH3 0xEC JUMP JUMPDEST JUMPDEST PUSH3 0x535 DUP3 SLOAD PUSH3 0x302 JUMP JUMPDEST PUSH3 0x542 DUP3 DUP3 DUP6 PUSH3 0x46B JUMP JUMPDEST PUSH0 PUSH1 0x20 SWAP1 POP PUSH1 0x1F DUP4 GT PUSH1 0x1 DUP2 EQ PUSH3 0x578 JUMPI PUSH0 DUP5 ISZERO PUSH3 0x563 JUMPI DUP3 DUP8 ADD MLOAD SWAP1 POP JUMPDEST PUSH3 0x56F DUP6 DUP3 PUSH3 0x4E5 JUMP JUMPDEST DUP7 SSTORE POP PUSH3 0x5DE JUMP JUMPDEST PUSH1 0x1F NOT DUP5 AND PUSH3 0x588 DUP7 PUSH3 0x336 JUMP JUMPDEST PUSH0 JUMPDEST DUP3 DUP2 LT ISZERO PUSH3 0x5B1 JUMPI DUP5 DUP10 ADD MLOAD DUP3 SSTORE PUSH1 0x1 DUP3 ADD SWAP2 POP PUSH1 0x20 DUP6 ADD SWAP5 POP PUSH1 0x20 DUP2 ADD SWAP1 POP PUSH3 0x58A JUMP JUMPDEST DUP7 DUP4 LT ISZERO PUSH3 0x5D1 JUMPI DUP5 DUP10 ADD MLOAD PUSH3 0x5CD PUSH1 0x1F DUP10 AND DUP3 PUSH3 0x4C7 JUMP JUMPDEST DUP4 SSTORE POP JUMPDEST PUSH1 0x1 PUSH1 0x2 DUP9 MUL ADD DUP9 SSTORE POP POP POP JUMPDEST POP POP POP POP POP POP JUMP JUMPDEST PUSH2 0x262A DUP1 PUSH3 0x5F4 PUSH0 CODECOPY PUSH0 RETURN INVALID PUSH1 0x80 PUSH1 0x40 MSTORE CALLVALUE DUP1 ISZERO PUSH2 0xF JUMPI PUSH0 DUP1 REVERT JUMPDEST POP PUSH1 0x4 CALLDATASIZE LT PUSH2 0x11F JUMPI PUSH0 CALLDATALOAD PUSH1 0xE0 SHR DUP1 PUSH4 0x70A08231 GT PUSH2 0xAB JUMPI DUP1 PUSH4 0x9668CEB8 GT PUSH2 0x6F JUMPI DUP1 PUSH4 0x9668CEB8 EQ PUSH2 0x31D JUMPI DUP1 PUSH4 0xA9059CBB EQ PUSH2 0x33B JUMPI DUP1 PUSH4 0xD5ABEB01 EQ PUSH2 0x36B JUMPI DUP1 PUSH4 0xDD62ED3E EQ PUSH2 0x389 JUMPI DUP1 PUSH4 0xFCA22842 EQ PUSH2 0x3B9 JUMPI PUSH2 0x11F JUMP JUMPDEST DUP1 PUSH4 0x70A08231 EQ PUSH2 0x263 JUMPI DUP1 PUSH4 0x73B2E80E EQ PUSH2 0x293 JUMPI DUP1 PUSH4 0x830953AB EQ PUSH2 0x2C3 JUMPI DUP1 PUSH4 0x8DA5CB5B EQ PUSH2 0x2E1 JUMPI DUP1 PUSH4 0x95D89B41 EQ PUSH2 0x2FF JUMPI PUSH2 0x11F JUMP JUMPDEST DUP1 PUSH4 0x21E4C301 GT PUSH2 0xF2 JUMPI DUP1 PUSH4 0x21E4C301 EQ PUSH2 0x1BF JUMPI DUP1 PUSH4 0x23B872DD EQ PUSH2 0x1DB JUMPI DUP1 PUSH4 0x27E235E3 EQ PUSH2 0x20B JUMPI DUP1 PUSH4 0x313CE567 EQ PUSH2 0x23B JUMPI DUP1 PUSH4 0x4E71D92D EQ PUSH2 0x259 JUMPI PUSH2 0x11F JUMP JUMPDEST DUP1 PUSH4 0x6FDDE03 EQ PUSH2 0x123 JUMPI DUP1 PUSH4 0x95EA7B3 EQ PUSH2 0x141 JUMPI DUP1 PUSH4 0xC6A8615 EQ PUSH2 0x171 JUMPI DUP1 PUSH4 0x18160DDD EQ PUSH2 0x1A1 JUMPI JUMPDEST PUSH0 DUP1 REVERT JUMPDEST PUSH2 0x12B PUSH2 0x3E9 JUMP JUMPDEST PUSH1 0x40 MLOAD PUSH2 0x138 SWAP2 SWAP1 PUSH2 0x1887 JUMP JUMPDEST PUSH1 0x40 MLOAD DUP1 SWAP2 SUB SWAP1 RETURN JUMPDEST PUSH2 0x15B PUSH1 0x4 DUP1 CALLDATASIZE SUB DUP2 ADD SWAP1 PUSH2 0x156 SWAP2 SWAP1 PUSH2 0x1945 JUMP JUMPDEST PUSH2 0x479 JUMP JUMPDEST PUSH1 0x40 MLOAD PUSH2 0x168 SWAP2 SWAP1 PUSH2 0x199D JUMP JUMPDEST PUSH1 0x40 MLOAD DUP1 SWAP2 SUB SWAP1 RETURN JUMPDEST PUSH2 0x18B PUSH1 0x4 DUP1 CALLDATASIZE SUB DUP2 ADD SWAP1 PUSH2 0x186 SWAP2 SWAP1 PUSH2 0x1B1A JUMP JUMPDEST PUSH2 0x49B JUMP JUMPDEST PUSH1 0x40 MLOAD PUSH2 0x198 SWAP2 SWAP1 PUSH2 0x1B83 JUMP JUMPDEST PUSH1 0x40 MLOAD DUP1 SWAP2 SUB SWAP1 RETURN JUMPDEST PUSH2 0x1A9 PUSH2 0x5FE JUMP JUMPDEST PUSH1 0x40 MLOAD PUSH2 0x1B6 SWAP2 SWAP1 PUSH2 0x1B83 JUMP JUMPDEST PUSH1 0x40 MLOAD DUP1 SWAP2 SUB SWAP1 RETURN JUMPDEST PUSH2 0x1D9 PUSH1 0x4 DUP1 CALLDATASIZE SUB DUP2 ADD SWAP1 PUSH2 0x1D4 SWAP2 SWAP1 PUSH2 0x1BBF JUMP JUMPDEST PUSH2 0x607 JUMP JUMPDEST STOP JUMPDEST PUSH2 0x1F5 PUSH1 0x4 DUP1 CALLDATASIZE SUB DUP2 ADD SWAP1 PUSH2 0x1F0 SWAP2 SWAP1 PUSH2 0x1BFD JUMP JUMPDEST PUSH2 0x9F8 JUMP JUMPDEST PUSH1 0x40 MLOAD PUSH2 0x202 SWAP2 SWAP1 PUSH2 0x199D JUMP JUMPDEST PUSH1 0x40 MLOAD DUP1 SWAP2 SUB SWAP1 RETURN JUMPDEST PUSH2 0x225 PUSH1 0x4 DUP1 CALLDATASIZE SUB DUP2 ADD SWAP1 PUSH2 0x220 SWAP2 SWAP1 PUSH2 0x1C4D JUMP JUMPDEST PUSH2 0xA26 JUMP JUMPDEST PUSH1 0x40 MLOAD PUSH2 0x232 SWAP2 SWAP1 PUSH2 0x1C87 JUMP JUMPDEST PUSH1 0x40 MLOAD DUP1 SWAP2 SUB SWAP1 RETURN JUMPDEST PUSH2 0x243 PUSH2 0xA45 JUMP JUMPDEST PUSH1 0x40 MLOAD PUSH2 0x250 SWAP2 SWAP1 PUSH2 0x1CBB JUMP JUMPDEST PUSH1 0x40 MLOAD DUP1 SWAP2 SUB SWAP1 RETURN JUMPDEST PUSH2 0x261 PUSH2 0xA4D JUMP JUMPDEST STOP JUMPDEST PUSH2 0x27D PUSH1 0x4 DUP1 CALLDATASIZE SUB DUP2 ADD SWAP1 PUSH2 0x278 SWAP2 SWAP1 PUSH2 0x1C4D JUMP JUMPDEST PUSH2 0xC5E JUMP JUMPDEST PUSH1 0x40 MLOAD PUSH2 0x28A SWAP2 SWAP1 PUSH2 0x1B83 JUMP JUMPDEST PUSH1 0x40 MLOAD DUP1 SWAP2 SUB SWAP1 RETURN JUMPDEST PUSH2 0x2AD PUSH1 0x4 DUP1 CALLDATASIZE SUB DUP2 ADD SWAP1 PUSH2 0x2A8 SWAP2 SWAP1 PUSH2 0x1C4D JUMP JUMPDEST PUSH2 0xCA3 JUMP JUMPDEST PUSH1 0x40 MLOAD PUSH2 0x2BA SWAP2 SWAP1 PUSH2 0x199D JUMP JUMPDEST PUSH1 0x40 MLOAD DUP1 SWAP2 SUB SWAP1 RETURN JUMPDEST PUSH2 0x2CB PUSH2 0xCC0 JUMP JUMPDEST PUSH1 0x40 MLOAD PUSH2 0x2D8 SWAP2 SWAP1 PUSH2 0x1C87 JUMP JUMPDEST PUSH1 0x40 MLOAD DUP1 SWAP2 SUB SWAP1 RETURN JUMPDEST PUSH2 0x2E9 PUSH2 0xCD5 JUMP JUMPDEST PUSH1 0x40 MLOAD PUSH2 0x2F6 SWAP2 SWAP1 PUSH2 0x1CE3 JUMP JUMPDEST PUSH1 0x40 MLOAD DUP1 SWAP2 SUB SWAP1 RETURN JUMPDEST PUSH2 0x307 PUSH2 0xCFA JUMP JUMPDEST PUSH1 0x40 MLOAD PUSH2 0x314 SWAP2 SWAP1 PUSH2 0x1887 JUMP JUMPDEST PUSH1 0x40 MLOAD DUP1 SWAP2 SUB SWAP1 RETURN JUMPDEST PUSH2 0x325 PUSH2 0xD8A JUMP JUMPDEST PUSH1 0x40 MLOAD PUSH2 0x332 SWAP2 SWAP1 PUSH2 0x1C87 JUMP JUMPDEST PUSH1 0x40 MLOAD DUP1 SWAP2 SUB SWAP1 RETURN JUMPDEST PUSH2 0x355 PUSH1 0x4 DUP1 CALLDATASIZE SUB DUP2 ADD SWAP1 PUSH2 0x350 SWAP2 SWAP1 PUSH2 0x1945 JUMP JUMPDEST PUSH2 0xD9F JUMP JUMPDEST PUSH1 0x40 MLOAD PUSH2 0x362 SWAP2 SWAP1 PUSH2 0x199D JUMP JUMPDEST PUSH1 0x40 MLOAD DUP1 SWAP2 SUB SWAP1 RETURN JUMPDEST PUSH2 0x373 PUSH2 0xDC1 JUMP JUMPDEST PUSH1 0x40 MLOAD PUSH2 0x380 SWAP2 SWAP1 PUSH2 0x1C87 JUMP JUMPDEST PUSH1 0x40 MLOAD DUP1 SWAP2 SUB SWAP1 RETURN JUMPDEST PUSH2 0x3A3 PUSH1 0x4 DUP1 CALLDATASIZE SUB DUP2 ADD SWAP1 PUSH2 0x39E SWAP2 SWAP1 PUSH2 0x1CFC JUMP JUMPDEST PUSH2 0xDD5 JUMP JUMPDEST PUSH1 0x40 MLOAD PUSH2 0x3B0 SWAP2 SWAP1 PUSH2 0x1B83 JUMP JUMPDEST PUSH1 0x40 MLOAD DUP1 SWAP2 SUB SWAP1 RETURN JUMPDEST PUSH2 0x3D3 PUSH1 0x4 DUP1 CALLDATASIZE SUB DUP2 ADD SWAP1 PUSH2 0x3CE SWAP2 SWAP1 PUSH2 0x1D3A JUMP JUMPDEST PUSH2 0xE57 JUMP JUMPDEST PUSH1 0x40 MLOAD PUSH2 0x3E0 SWAP2 SWAP1 PUSH2 0x1F4B JUMP JUMPDEST PUSH1 0x40 MLOAD DUP1 SWAP2 SUB SWAP1 RETURN JUMPDEST PUSH1 0x60 PUSH1 0x3 DUP1 SLOAD PUSH2 0x3F8 SWAP1 PUSH2 0x1F98 JUMP JUMPDEST DUP1 PUSH1 0x1F ADD PUSH1 0x20 DUP1 SWAP2 DIV MUL PUSH1 0x20 ADD PUSH1 0x40 MLOAD SWAP1 DUP2 ADD PUSH1 0x40 MSTORE DUP1 SWAP3 SWAP2 SWAP1 DUP2 DUP2 MSTORE PUSH1 0x20 ADD DUP3 DUP1 SLOAD PUSH2 0x424 SWAP1 PUSH2 0x1F98 JUMP JUMPDEST DUP1 ISZERO PUSH2 0x46F JUMPI DUP1 PUSH1 0x1F LT PUSH2 0x446 JUMPI PUSH2 0x100 DUP1 DUP4 SLOAD DIV MUL DUP4 MSTORE SWAP2 PUSH1 0x20 ADD SWAP2 PUSH2 0x46F JUMP JUMPDEST DUP3 ADD SWAP2 SWAP1 PUSH0 MSTORE PUSH1 0x20 PUSH0 KECCAK256 SWAP1 JUMPDEST DUP2 SLOAD DUP2 MSTORE SWAP1 PUSH1 0x1 ADD SWAP1 PUSH1 0x20 ADD DUP1 DUP4 GT PUSH2 0x452 JUMPI DUP3 SWAP1 SUB PUSH1 0x1F AND DUP3 ADD SWAP2 JUMPDEST POP POP POP POP POP SWAP1 POP SWAP1 JUMP JUMPDEST PUSH0 DUP1 PUSH2 0x483 PUSH2 0x10D7 JUMP JUMPDEST SWAP1 POP PUSH2 0x490 DUP2 DUP6 DUP6 PUSH2 0x10DE JUMP JUMPDEST PUSH1 0x1 SWAP2 POP POP SWAP3 SWAP2 POP POP JUMP JUMPDEST PUSH0 DUP1 PUSH1 0x6 PUSH0 CALLER PUSH20 0xFFFFFFFFFFFFFFFFFFFFFFFFFFFFFFFFFFFFFFFF AND PUSH20 0xFFFFFFFFFFFFFFFFFFFFFFFFFFFFFFFFFFFFFFFF AND DUP2 MSTORE PUSH1 0x20 ADD SWAP1 DUP2 MSTORE PUSH1 0x20 ADD PUSH0 KECCAK256 PUSH0 SWAP1 SLOAD SWAP1 PUSH2 0x100 EXP SWAP1 DIV PUSH3 0xFFFFFF AND PUSH3 0xFFFFFF AND GT PUSH2 0x52E JUMPI PUSH1 0x40 MLOAD PUSH32 0x8C379A000000000000000000000000000000000000000000000000000000000 DUP2 MSTORE PUSH1 0x4 ADD PUSH2 0x525 SWAP1 PUSH2 0x2038 JUMP JUMPDEST PUSH1 0x40 MLOAD DUP1 SWAP2 SUB SWAP1 REVERT JUMPDEST PUSH2 0x536 PUSH2 0x5FE JUMP JUMPDEST DUP3 PUSH3 0xFFFFFF AND GT ISZERO PUSH2 0x57D JUMPI PUSH1 0x40 MLOAD PUSH32 0x8C379A000000000000000000000000000000000000000000000000000000000 DUP2 MSTORE PUSH1 0x4 ADD PUSH2 0x574 SWAP1 PUSH2 0x20C6 JUMP JUMPDEST PUSH1 0x40 MLOAD DUP1 SWAP2 SUB SWAP1 REVERT JUMPDEST PUSH1 0x9 DUP1 SLOAD SWAP1 POP SWAP1 POP PUSH1 0x9 PUSH1 0x1 DUP2 PUSH1 0x1 DUP2 SLOAD ADD DUP1 DUP3 SSTORE DUP1 SWAP2 POP POP SUB SWAP1 PUSH0 MSTORE PUSH1 0x20 PUSH0 KECCAK256 SWAP1 POP POP PUSH0 PUSH1 0x9 DUP3 DUP2 SLOAD DUP2 LT PUSH2 0x5B6 JUMPI PUSH2 0x5B5 PUSH2 0x20E4 JUMP JUMPDEST JUMPDEST SWAP1 PUSH0 MSTORE PUSH1 0x20 PUSH0 KECCAK256 SWAP1 PUSH1 0x4 MUL ADD SWAP1 POP DUP4 DUP2 PUSH1 0x2 ADD SWAP1 DUP2 PUSH2 0x5D5 SWAP2 SWAP1 PUSH2 0x22AE JUMP JUMPDEST POP DUP3 DUP2 PUSH1 0x3 ADD PUSH1 0xC PUSH2 0x100 EXP DUP2 SLOAD DUP2 PUSH3 0xFFFFFF MUL NOT AND SWAP1 DUP4 PUSH3 0xFFFFFF AND MUL OR SWAP1 SSTORE POP POP SWAP3 SWAP2 POP POP JUMP JUMPDEST PUSH0 PUSH1 0x2 SLOAD SWAP1 POP SWAP1 JUMP JUMPDEST PUSH1 0x9 DUP3 PUSH3 0xFFFFFF AND DUP2 SLOAD DUP2 LT PUSH2 0x620 JUMPI PUSH2 0x61F PUSH2 0x20E4 JUMP JUMPDEST JUMPDEST SWAP1 PUSH0 MSTORE PUSH1 0x20 PUSH0 KECCAK256 SWAP1 PUSH1 0x4 MUL ADD PUSH1 0x3 ADD PUSH1 0x10 SWAP1 SLOAD SWAP1 PUSH2 0x100 EXP SWAP1 DIV PUSH1 0xFF AND ISZERO PUSH2 0x67D JUMPI PUSH1 0x40 MLOAD PUSH32 0x8C379A000000000000000000000000000000000000000000000000000000000 DUP2 MSTORE PUSH1 0x4 ADD PUSH2 0x674 SWAP1 PUSH2 0x23C7 JUMP JUMPDEST PUSH1 0x40 MLOAD DUP1 SWAP2 SUB SWAP1 REVERT JUMPDEST PUSH2 0x6B6 CALLER PUSH1 0x9 DUP5 PUSH3 0xFFFFFF AND DUP2 SLOAD DUP2 LT PUSH2 0x69A JUMPI PUSH2 0x699 PUSH2 0x20E4 JUMP JUMPDEST JUMPDEST SWAP1 PUSH0 MSTORE PUSH1 0x20 PUSH0 KECCAK256 SWAP1 PUSH1 0x4 MUL ADD PUSH0 ADD PUSH2 0x10F0 SWAP1 SWAP2 SWAP1 PUSH4 0xFFFFFFFF AND JUMP JUMPDEST ISZERO PUSH2 0x6F6 JUMPI PUSH1 0x40 MLOAD PUSH32 0x8C379A000000000000000000000000000000000000000000000000000000000 DUP2 MSTORE PUSH1 0x4 ADD PUSH2 0x6ED SWAP1 PUSH2 0x242F JUMP JUMPDEST PUSH1 0x40 MLOAD DUP1 SWAP2 SUB SWAP1 REVERT JUMPDEST PUSH0 PUSH1 0x9 DUP4 PUSH3 0xFFFFFF AND DUP2 SLOAD DUP2 LT PUSH2 0x710 JUMPI PUSH2 0x70F PUSH2 0x20E4 JUMP JUMPDEST JUMPDEST SWAP1 PUSH0 MSTORE PUSH1 0x20 PUSH0 KECCAK256 SWAP1 PUSH1 0x4 MUL ADD SWAP1 POP PUSH0 PUSH1 0x6 PUSH0 CALLER PUSH20 0xFFFFFFFFFFFFFFFFFFFFFFFFFFFFFFFFFFFFFFFF AND PUSH20 0xFFFFFFFFFFFFFFFFFFFFFFFFFFFFFFFFFFFFFFFF AND DUP2 MSTORE PUSH1 0x20 ADD SWAP1 DUP2 MSTORE PUSH1 0x20 ADD PUSH0 KECCAK256 PUSH0 SWAP1 SLOAD SWAP1 PUSH2 0x100 EXP SWAP1 DIV PUSH3 0xFFFFFF AND SWAP1 POP PUSH1 0x1 PUSH1 0x2 DUP2 GT ISZERO PUSH2 0x781 JUMPI PUSH2 0x780 PUSH2 0x244D JUMP JUMPDEST JUMPDEST DUP4 PUSH1 0x2 DUP2 GT ISZERO PUSH2 0x794 JUMPI PUSH2 0x793 PUSH2 0x244D JUMP JUMPDEST JUMPDEST SUB PUSH2 0x7DB JUMPI DUP1 DUP3 PUSH1 0x3 ADD PUSH0 DUP3 DUP3 DUP3 SWAP1 SLOAD SWAP1 PUSH2 0x100 EXP SWAP1 DIV PUSH3 0xFFFFFF AND PUSH2 0x7BA SWAP2 SWAP1 PUSH2 0x24A7 JUMP JUMPDEST SWAP3 POP PUSH2 0x100 EXP DUP2 SLOAD DUP2 PUSH3 0xFFFFFF MUL NOT AND SWAP1 DUP4 PUSH3 0xFFFFFF AND MUL OR SWAP1 SSTORE POP PUSH2 0x8F4 JUMP JUMPDEST PUSH0 PUSH1 0x2 DUP2 GT ISZERO PUSH2 0x7EE JUMPI PUSH2 0x7ED PUSH2 0x244D JUMP JUMPDEST JUMPDEST DUP4 PUSH1 0x2 DUP2 GT ISZERO PUSH2 0x801 JUMPI PUSH2 0x800 PUSH2 0x244D JUMP JUMPDEST JUMPDEST SUB PUSH2 0x849 JUMPI DUP1 DUP3 PUSH1 0x3 ADD PUSH1 0x3 DUP3 DUP3 DUP3 SWAP1 SLOAD SWAP1 PUSH2 0x100 EXP SWAP1 DIV PUSH3 0xFFFFFF AND PUSH2 0x828 SWAP2 SWAP1 PUSH2 0x24A7 JUMP JUMPDEST SWAP3 POP PUSH2 0x100 EXP DUP2 SLOAD DUP2 PUSH3 0xFFFFFF MUL NOT AND SWAP1 DUP4 PUSH3 0xFFFFFF AND MUL OR SWAP1 SSTORE POP PUSH2 0x8F3 JUMP JUMPDEST PUSH1 0x2 DUP1 DUP2 GT ISZERO PUSH2 0x85C JUMPI PUSH2 0x85B PUSH2 0x244D JUMP JUMPDEST JUMPDEST DUP4 PUSH1 0x2 DUP2 GT ISZERO PUSH2 0x86F JUMPI PUSH2 0x86E PUSH2 0x244D JUMP JUMPDEST JUMPDEST SUB PUSH2 0x8B7 JUMPI DUP1 DUP3 PUSH1 0x3 ADD PUSH1 0x6 DUP3 DUP3 DUP3 SWAP1 SLOAD SWAP1 PUSH2 0x100 EXP SWAP1 DIV PUSH3 0xFFFFFF AND PUSH2 0x896 SWAP2 SWAP1 PUSH2 0x24A7 JUMP JUMPDEST SWAP3 POP PUSH2 0x100 EXP DUP2 SLOAD DUP2 PUSH3 0xFFFFFF MUL NOT AND SWAP1 DUP4 PUSH3 0xFFFFFF AND MUL OR SWAP1 SSTORE POP PUSH2 0x8F2 JUMP JUMPDEST PUSH1 0x40 MLOAD PUSH32 0x8C379A000000000000000000000000000000000000000000000000000000000 DUP2 MSTORE PUSH1 0x4 ADD PUSH2 0x8E9 SWAP1 PUSH2 0x2527 JUMP JUMPDEST PUSH1 0x40 MLOAD DUP1 SWAP2 SUB SWAP1 REVERT JUMPDEST JUMPDEST JUMPDEST DUP1 DUP3 PUSH1 0x3 ADD PUSH1 0x9 DUP3 DUP3 DUP3 SWAP1 SLOAD SWAP1 PUSH2 0x100 EXP SWAP1 DIV PUSH3 0xFFFFFF AND PUSH2 0x916 SWAP2 SWAP1 PUSH2 0x24A7 JUMP JUMPDEST SWAP3 POP PUSH2 0x100 EXP DUP2 SLOAD DUP2 PUSH3 0xFFFFFF MUL NOT AND SWAP1 DUP4 PUSH3 0xFFFFFF AND MUL OR SWAP1 SSTORE POP PUSH2 0x947 CALLER DUP4 PUSH0 ADD PUSH2 0x111D SWAP1 SWAP2 SWAP1 PUSH4 0xFFFFFFFF AND JUMP JUMPDEST POP DUP2 PUSH1 0x3 ADD PUSH1 0xC SWAP1 SLOAD SWAP1 PUSH2 0x100 EXP SWAP1 DIV PUSH3 0xFFFFFF AND PUSH3 0xFFFFFF AND DUP3 PUSH1 0x3 ADD PUSH1 0x9 SWAP1 SLOAD SWAP1 PUSH2 0x100 EXP SWAP1 DIV PUSH3 0xFFFFFF AND PUSH3 0xFFFFFF AND LT PUSH2 0x9F2 JUMPI PUSH1 0x1 DUP3 PUSH1 0x3 ADD PUSH1 0x10 PUSH2 0x100 EXP DUP2 SLOAD DUP2 PUSH1 0xFF MUL NOT AND SWAP1 DUP4 ISZERO ISZERO MUL OR SWAP1 SSTORE POP DUP2 PUSH1 0x3 ADD PUSH1 0x3 SWAP1 SLOAD SWAP1 PUSH2 0x100 EXP SWAP1 DIV PUSH3 0xFFFFFF AND PUSH3 0xFFFFFF AND DUP3 PUSH1 0x3 ADD PUSH0 SWAP1 SLOAD SWAP1 PUSH2 0x100 EXP SWAP1 DIV PUSH3 0xFFFFFF AND PUSH3 0xFFFFFF AND GT ISZERO PUSH2 0x9F1 JUMPI PUSH1 0x1 DUP3 PUSH1 0x3 ADD PUSH1 0xF PUSH2 0x100 EXP DUP2 SLOAD DUP2 PUSH1 0xFF MUL NOT AND SWAP1 DUP4 ISZERO ISZERO MUL OR SWAP1 SSTORE POP JUMPDEST JUMPDEST POP POP POP POP JUMP JUMPDEST PUSH0 DUP1 PUSH2 0xA02 PUSH2 0x10D7 JUMP JUMPDEST SWAP1 POP PUSH2 0xA0F DUP6 DUP3 DUP6 PUSH2 0x114A JUMP JUMPDEST PUSH2 0xA1A DUP6 DUP6 DUP6 PUSH2 0x11DC JUMP JUMPDEST PUSH1 0x1 SWAP2 POP POP SWAP4 SWAP3 POP POP POP JUMP JUMPDEST PUSH1 0x6 PUSH1 0x20 MSTORE DUP1 PUSH0 MSTORE PUSH1 0x40 PUSH0 KECCAK256 PUSH0 SWAP2 POP SLOAD SWAP1 PUSH2 0x100 EXP SWAP1 DIV PUSH3 0xFFFFFF AND DUP2 JUMP JUMPDEST PUSH0 PUSH1 0x12 SWAP1 POP SWAP1 JUMP JUMPDEST PUSH1 0x5 PUSH0 SWAP1 SLOAD SWAP1 PUSH2 0x100 EXP SWAP1 DIV PUSH3 0xFFFFFF AND PUSH3 0xFFFFFF AND PUSH1 0x5 PUSH1 0x6 SWAP1 SLOAD SWAP1 PUSH2 0x100 EXP SWAP1 DIV PUSH3 0xFFFFFF AND PUSH3 0xFFFFFF AND GT ISZERO PUSH2 0xAB2 JUMPI PUSH1 0x40 MLOAD PUSH32 0xCBE2483100000000000000000000000000000000000000000000000000000000 DUP2 MSTORE PUSH1 0x4 ADD PUSH1 0x40 MLOAD DUP1 SWAP2 SUB SWAP1 REVERT JUMPDEST PUSH1 0x7 PUSH0 CALLER PUSH20 0xFFFFFFFFFFFFFFFFFFFFFFFFFFFFFFFFFFFFFFFF AND PUSH20 0xFFFFFFFFFFFFFFFFFFFFFFFFFFFFFFFFFFFFFFFF AND DUP2 MSTORE PUSH1 0x20 ADD SWAP1 DUP2 MSTORE PUSH1 0x20 ADD PUSH0 KECCAK256 PUSH0 SWAP1 SLOAD SWAP1 PUSH2 0x100 EXP SWAP1 DIV PUSH1 0xFF AND ISZERO PUSH2 0xB33 JUMPI PUSH1 0x40 MLOAD PUSH32 0xB1327A600000000000000000000000000000000000000000000000000000000 DUP2 MSTORE PUSH1 0x4 ADD PUSH1 0x40 MLOAD DUP1 SWAP2 SUB SWAP1 REVERT JUMPDEST PUSH1 0x5 PUSH1 0x3 SWAP1 SLOAD SWAP1 PUSH2 0x100 EXP SWAP1 DIV PUSH3 0xFFFFFF AND PUSH1 0x6 PUSH0 CALLER PUSH20 0xFFFFFFFFFFFFFFFFFFFFFFFFFFFFFFFFFFFFFFFF AND PUSH20 0xFFFFFFFFFFFFFFFFFFFFFFFFFFFFFFFFFFFFFFFF AND DUP2 MSTORE PUSH1 0x20 ADD SWAP1 DUP2 MSTORE PUSH1 0x20 ADD PUSH0 KECCAK256 PUSH0 DUP3 DUP3 DUP3 SWAP1 SLOAD SWAP1 PUSH2 0x100 EXP SWAP1 DIV PUSH3 0xFFFFFF AND PUSH2 0xB9E SWAP2 SWAP1 PUSH2 0x24A7 JUMP JUMPDEST SWAP3 POP PUSH2 0x100 EXP DUP2 SLOAD DUP2 PUSH3 0xFFFFFF MUL NOT AND SWAP1 DUP4 PUSH3 0xFFFFFF AND MUL OR SWAP1 SSTORE POP PUSH1 0x5 PUSH1 0x3 SWAP1 SLOAD SWAP1 PUSH2 0x100 EXP SWAP1 DIV PUSH3 0xFFFFFF AND PUSH1 0x5 PUSH1 0x6 DUP3 DUP3 DUP3 SWAP1 SLOAD SWAP1 PUSH2 0x100 EXP SWAP1 DIV PUSH3 0xFFFFFF AND PUSH2 0xBEB SWAP2 SWAP1 PUSH2 0x24A7 JUMP JUMPDEST SWAP3 POP PUSH2 0x100 EXP DUP2 SLOAD DUP2 PUSH3 0xFFFFFF MUL NOT AND SWAP1 DUP4 PUSH3 0xFFFFFF AND MUL OR SWAP1 SSTORE POP PUSH1 0x1 PUSH1 0x7 PUSH0 CALLER PUSH20 0xFFFFFFFFFFFFFFFFFFFFFFFFFFFFFFFFFFFFFFFF AND PUSH20 0xFFFFFFFFFFFFFFFFFFFFFFFFFFFFFFFFFFFFFFFF AND DUP2 MSTORE PUSH1 0x20 ADD SWAP1 DUP2 MSTORE PUSH1 0x20 ADD PUSH0 KECCAK256 PUSH0 PUSH2 0x100 EXP DUP2 SLOAD DUP2 PUSH1 0xFF MUL NOT AND SWAP1 DUP4 ISZERO ISZERO MUL OR SWAP1 SSTORE POP JUMP JUMPDEST PUSH0 DUP1 PUSH0 DUP4 PUSH20 0xFFFFFFFFFFFFFFFFFFFFFFFFFFFFFFFFFFFFFFFF AND PUSH20 0xFFFFFFFFFFFFFFFFFFFFFFFFFFFFFFFFFFFFFFFF AND DUP2 MSTORE PUSH1 0x20 ADD SWAP1 DUP2 MSTORE PUSH1 0x20 ADD PUSH0 KECCAK256 SLOAD SWAP1 POP SWAP2 SWAP1 POP JUMP JUMPDEST PUSH1 0x7 PUSH1 0x20 MSTORE DUP1 PUSH0 MSTORE PUSH1 0x40 PUSH0 KECCAK256 PUSH0 SWAP2 POP SLOAD SWAP1 PUSH2 0x100 EXP SWAP1 DIV PUSH1 0xFF AND DUP2 JUMP JUMPDEST PUSH1 0x5 PUSH1 0x3 SWAP1 SLOAD SWAP1 PUSH2 0x100 EXP SWAP1 DIV PUSH3 0xFFFFFF AND DUP2 JUMP JUMPDEST PUSH1 0x8 PUSH0 SWAP1 SLOAD SWAP1 PUSH2 0x100 EXP SWAP1 DIV PUSH20 0xFFFFFFFFFFFFFFFFFFFFFFFFFFFFFFFFFFFFFFFF AND DUP2 JUMP JUMPDEST PUSH1 0x60 PUSH1 0x4 DUP1 SLOAD PUSH2 0xD09 SWAP1 PUSH2 0x1F98 JUMP JUMPDEST DUP1 PUSH1 0x1F ADD PUSH1 0x20 DUP1 SWAP2 DIV MUL PUSH1 0x20 ADD PUSH1 0x40 MLOAD SWAP1 DUP2 ADD PUSH1 0x40 MSTORE DUP1 SWAP3 SWAP2 SWAP1 DUP2 DUP2 MSTORE PUSH1 0x20 ADD DUP3 DUP1 SLOAD PUSH2 0xD35 SWAP1 PUSH2 0x1F98 JUMP JUMPDEST DUP1 ISZERO PUSH2 0xD80 JUMPI DUP1 PUSH1 0x1F LT PUSH2 0xD57 JUMPI PUSH2 0x100 DUP1 DUP4 SLOAD DIV MUL DUP4 MSTORE SWAP2 PUSH1 0x20 ADD SWAP2 PUSH2 0xD80 JUMP JUMPDEST DUP3 ADD SWAP2 SWAP1 PUSH0 MSTORE PUSH1 0x20 PUSH0 KECCAK256 SWAP1 JUMPDEST DUP2 SLOAD DUP2 MSTORE SWAP1 PUSH1 0x1 ADD SWAP1 PUSH1 0x20 ADD DUP1 DUP4 GT PUSH2 0xD63 JUMPI DUP3 SWAP1 SUB PUSH1 0x1F AND DUP3 ADD SWAP2 JUMPDEST POP POP POP POP POP SWAP1 POP SWAP1 JUMP JUMPDEST PUSH1 0x5 PUSH1 0x6 SWAP1 SLOAD SWAP1 PUSH2 0x100 EXP SWAP1 DIV PUSH3 0xFFFFFF AND DUP2 JUMP JUMPDEST PUSH0 DUP1 PUSH2 0xDA9 PUSH2 0x10D7 JUMP JUMPDEST SWAP1 POP PUSH2 0xDB6 DUP2 DUP6 DUP6 PUSH2 0x11DC JUMP JUMPDEST PUSH1 0x1 SWAP2 POP POP SWAP3 SWAP2 POP POP JUMP JUMPDEST PUSH1 0x5 PUSH0 SWAP1 SLOAD SWAP1 PUSH2 0x100 EXP SWAP1 DIV PUSH3 0xFFFFFF AND DUP2 JUMP JUMPDEST PUSH0 PUSH1 0x1 PUSH0 DUP5 PUSH20 0xFFFFFFFFFFFFFFFFFFFFFFFFFFFFFFFFFFFFFFFF AND PUSH20 0xFFFFFFFFFFFFFFFFFFFFFFFFFFFFFFFFFFFFFFFF AND DUP2 MSTORE PUSH1 0x20 ADD SWAP1 DUP2 MSTORE PUSH1 0x20 ADD PUSH0 KECCAK256 PUSH0 DUP4 PUSH20 0xFFFFFFFFFFFFFFFFFFFFFFFFFFFFFFFFFFFFFFFF AND PUSH20 0xFFFFFFFFFFFFFFFFFFFFFFFFFFFFFFFFFFFFFFFF AND DUP2 MSTORE PUSH1 0x20 ADD SWAP1 DUP2 MSTORE PUSH1 0x20 ADD PUSH0 KECCAK256 SLOAD SWAP1 POP SWAP3 SWAP2 POP POP JUMP JUMPDEST PUSH2 0xE5F PUSH2 0x179B JUMP JUMPDEST PUSH0 PUSH1 0x9 DUP4 PUSH3 0xFFFFFF AND DUP2 SLOAD DUP2 LT PUSH2 0xE79 JUMPI PUSH2 0xE78 PUSH2 0x20E4 JUMP JUMPDEST JUMPDEST SWAP1 PUSH0 MSTORE PUSH1 0x20 PUSH0 KECCAK256 SWAP1 PUSH1 0x4 MUL ADD SWAP1 POP PUSH0 PUSH2 0xE93 DUP3 PUSH0 ADD PUSH2 0x12CC JUMP JUMPDEST PUSH8 0xFFFFFFFFFFFFFFFF DUP2 GT ISZERO PUSH2 0xEAC JUMPI PUSH2 0xEAB PUSH2 0x19BE JUMP JUMPDEST JUMPDEST PUSH1 0x40 MLOAD SWAP1 DUP1 DUP3 MSTORE DUP1 PUSH1 0x20 MUL PUSH1 0x20 ADD DUP3 ADD PUSH1 0x40 MSTORE DUP1 ISZERO PUSH2 0xEDA JUMPI DUP2 PUSH1 0x20 ADD PUSH1 0x20 DUP3 MUL DUP1 CALLDATASIZE DUP4 CALLDATACOPY DUP1 DUP3 ADD SWAP2 POP POP SWAP1 POP JUMPDEST POP SWAP1 POP PUSH0 JUMPDEST PUSH2 0xEEA DUP4 PUSH0 ADD PUSH2 0x12CC JUMP JUMPDEST DUP2 LT ISZERO PUSH2 0xF66 JUMPI PUSH2 0xF06 DUP2 DUP5 PUSH0 ADD PUSH2 0x12DF SWAP1 SWAP2 SWAP1 PUSH4 0xFFFFFFFF AND JUMP JUMPDEST DUP3 DUP3 DUP2 MLOAD DUP2 LT PUSH2 0xF19 JUMPI PUSH2 0xF18 PUSH2 0x20E4 JUMP JUMPDEST JUMPDEST PUSH1 0x20 MUL PUSH1 0x20 ADD ADD SWAP1 PUSH20 0xFFFFFFFFFFFFFFFFFFFFFFFFFFFFFFFFFFFFFFFF AND SWAP1 DUP2 PUSH20 0xFFFFFFFFFFFFFFFFFFFFFFFFFFFFFFFFFFFFFFFF AND DUP2 MSTORE POP POP DUP1 DUP1 PUSH2 0xF5E SWAP1 PUSH2 0x2545 JUMP JUMPDEST SWAP2 POP POP PUSH2 0xEDF JUMP JUMPDEST POP PUSH1 0x40 MLOAD DUP1 PUSH2 0x120 ADD PUSH1 0x40 MSTORE DUP1 DUP3 DUP2 MSTORE PUSH1 0x20 ADD DUP4 PUSH1 0x2 ADD DUP1 SLOAD PUSH2 0xF88 SWAP1 PUSH2 0x1F98 JUMP JUMPDEST DUP1 PUSH1 0x1F ADD PUSH1 0x20 DUP1 SWAP2 DIV MUL PUSH1 0x20 ADD PUSH1 0x40 MLOAD SWAP1 DUP2 ADD PUSH1 0x40 MSTORE DUP1 SWAP3 SWAP2 SWAP1 DUP2 DUP2 MSTORE PUSH1 0x20 ADD DUP3 DUP1 SLOAD PUSH2 0xFB4 SWAP1 PUSH2 0x1F98 JUMP JUMPDEST DUP1 ISZERO PUSH2 0xFFF JUMPI DUP1 PUSH1 0x1F LT PUSH2 0xFD6 JUMPI PUSH2 0x100 DUP1 DUP4 SLOAD DIV MUL DUP4 MSTORE SWAP2 PUSH1 0x20 ADD SWAP2 PUSH2 0xFFF JUMP JUMPDEST DUP3 ADD SWAP2 SWAP1 PUSH0 MSTORE PUSH1 0x20 PUSH0 KECCAK256 SWAP1 JUMPDEST DUP2 SLOAD DUP2 MSTORE SWAP1 PUSH1 0x1 ADD SWAP1 PUSH1 0x20 ADD DUP1 DUP4 GT PUSH2 0xFE2 JUMPI DUP3 SWAP1 SUB PUSH1 0x1F AND DUP3 ADD SWAP2 JUMPDEST POP POP POP POP POP DUP2 MSTORE PUSH1 0x20 ADD DUP4 PUSH1 0x3 ADD PUSH0 SWAP1 SLOAD SWAP1 PUSH2 0x100 EXP SWAP1 DIV PUSH3 0xFFFFFF AND PUSH3 0xFFFFFF AND DUP2 MSTORE PUSH1 0x20 ADD DUP4 PUSH1 0x3 ADD PUSH1 0x3 SWAP1 SLOAD SWAP1 PUSH2 0x100 EXP SWAP1 DIV PUSH3 0xFFFFFF AND PUSH3 0xFFFFFF AND DUP2 MSTORE PUSH1 0x20 ADD DUP4 PUSH1 0x3 ADD PUSH1 0x6 SWAP1 SLOAD SWAP1 PUSH2 0x100 EXP SWAP1 DIV PUSH3 0xFFFFFF AND PUSH3 0xFFFFFF AND DUP2 MSTORE PUSH1 0x20 ADD DUP4 PUSH1 0x3 ADD PUSH1 0x9 SWAP1 SLOAD SWAP1 PUSH2 0x100 EXP SWAP1 DIV PUSH3 0xFFFFFF AND PUSH3 0xFFFFFF AND DUP2 MSTORE PUSH1 0x20 ADD DUP4 PUSH1 0x3 ADD PUSH1 0xC SWAP1 SLOAD SWAP1 PUSH2 0x100 EXP SWAP1 DIV PUSH3 0xFFFFFF AND PUSH3 0xFFFFFF AND DUP2 MSTORE PUSH1 0x20 ADD DUP4 PUSH1 0x3 ADD PUSH1 0xF SWAP1 SLOAD SWAP1 PUSH2 0x100 EXP SWAP1 DIV PUSH1 0xFF AND ISZERO ISZERO DUP2 MSTORE PUSH1 0x20 ADD DUP4 PUSH1 0x3 ADD PUSH1 0x10 SWAP1 SLOAD SWAP1 PUSH2 0x100 EXP SWAP1 DIV PUSH1 0xFF AND ISZERO ISZERO DUP2 MSTORE POP SWAP3 POP POP POP SWAP2 SWAP1 POP JUMP JUMPDEST PUSH0 CALLER SWAP1 POP SWAP1 JUMP JUMPDEST PUSH2 0x10EB DUP4 DUP4 DUP4 PUSH1 0x1 PUSH2 0x12F6 JUMP JUMPDEST POP POP POP JUMP JUMPDEST PUSH0 PUSH2 0x1115 DUP4 PUSH0 ADD DUP4 PUSH20 0xFFFFFFFFFFFFFFFFFFFFFFFFFFFFFFFFFFFFFFFF AND PUSH0 SHL PUSH2 0x14C5 JUMP JUMPDEST SWAP1 POP SWAP3 SWAP2 POP POP JUMP JUMPDEST PUSH0 PUSH2 0x1142 DUP4 PUSH0 ADD DUP4 PUSH20 0xFFFFFFFFFFFFFFFFFFFFFFFFFFFFFFFFFFFFFFFF AND PUSH0 SHL PUSH2 0x14E5 JUMP JUMPDEST SWAP1 POP SWAP3 SWAP2 POP POP JUMP JUMPDEST PUSH0 PUSH2 0x1155 DUP5 DUP5 PUSH2 0xDD5 JUMP JUMPDEST SWAP1 POP PUSH32 0xFFFFFFFFFFFFFFFFFFFFFFFFFFFFFFFFFFFFFFFFFFFFFFFFFFFFFFFFFFFFFFFF DUP2 EQ PUSH2 0x11D6 JUMPI DUP2 DUP2 LT ISZERO PUSH2 0x11C7 JUMPI DUP3 DUP2 DUP4 PUSH1 0x40 MLOAD PUSH32 0xFB8F41B200000000000000000000000000000000000000000000000000000000 DUP2 MSTORE PUSH1 0x4 ADD PUSH2 0x11BE SWAP4 SWAP3 SWAP2 SWAP1 PUSH2 0x258C JUMP JUMPDEST PUSH1 0x40 MLOAD DUP1 SWAP2 SUB SWAP1 REVERT JUMPDEST PUSH2 0x11D5 DUP5 DUP5 DUP5 DUP5 SUB PUSH0 PUSH2 0x12F6 JUMP JUMPDEST JUMPDEST POP POP POP POP JUMP JUMPDEST PUSH0 PUSH20 0xFFFFFFFFFFFFFFFFFFFFFFFFFFFFFFFFFFFFFFFF AND DUP4 PUSH20 0xFFFFFFFFFFFFFFFFFFFFFFFFFFFFFFFFFFFFFFFF AND SUB PUSH2 0x124C JUMPI PUSH0 PUSH1 0x40 MLOAD PUSH32 0x96C6FD1E00000000000000000000000000000000000000000000000000000000 DUP2 MSTORE PUSH1 0x4 ADD PUSH2 0x1243 SWAP2 SWAP1 PUSH2 0x1CE3 JUMP JUMPDEST PUSH1 0x40 MLOAD DUP1 SWAP2 SUB SWAP1 REVERT JUMPDEST PUSH0 PUSH20 0xFFFFFFFFFFFFFFFFFFFFFFFFFFFFFFFFFFFFFFFF AND DUP3 PUSH20 0xFFFFFFFFFFFFFFFFFFFFFFFFFFFFFFFFFFFFFFFF AND SUB PUSH2 0x12BC JUMPI PUSH0 PUSH1 0x40 MLOAD PUSH32 0xEC442F0500000000000000000000000000000000000000000000000000000000 DUP2 MSTORE PUSH1 0x4 ADD PUSH2 0x12B3 SWAP2 SWAP1 PUSH2 0x1CE3 JUMP JUMPDEST PUSH1 0x40 MLOAD DUP1 SWAP2 SUB SWAP1 REVERT JUMPDEST PUSH2 0x12C7 DUP4 DUP4 DUP4 PUSH2 0x154C JUMP JUMPDEST POP POP POP JUMP JUMPDEST PUSH0 PUSH2 0x12D8 DUP3 PUSH0 ADD PUSH2 0x1765 JUMP JUMPDEST SWAP1 POP SWAP2 SWAP1 POP JUMP JUMPDEST PUSH0 PUSH2 0x12EC DUP4 PUSH0 ADD DUP4 PUSH2 0x1774 JUMP JUMPDEST PUSH0 SHR SWAP1 POP SWAP3 SWAP2 POP POP JUMP JUMPDEST PUSH0 PUSH20 0xFFFFFFFFFFFFFFFFFFFFFFFFFFFFFFFFFFFFFFFF AND DUP5 PUSH20 0xFFFFFFFFFFFFFFFFFFFFFFFFFFFFFFFFFFFFFFFF AND SUB PUSH2 0x1366 JUMPI PUSH0 PUSH1 0x40 MLOAD PUSH32 0xE602DF0500000000000000000000000000000000000000000000000000000000 DUP2 MSTORE PUSH1 0x4 ADD PUSH2 0x135D SWAP2 SWAP1 PUSH2 0x1CE3 JUMP JUMPDEST PUSH1 0x40 MLOAD DUP1 SWAP2 SUB SWAP1 REVERT JUMPDEST PUSH0 PUSH20 0xFFFFFFFFFFFFFFFFFFFFFFFFFFFFFFFFFFFFFFFF AND DUP4 PUSH20 0xFFFFFFFFFFFFFFFFFFFFFFFFFFFFFFFFFFFFFFFF AND SUB PUSH2 0x13D6 JUMPI PUSH0 PUSH1 0x40 MLOAD PUSH32 0x94280D6200000000000000000000000000000000000000000000000000000000 DUP2 MSTORE PUSH1 0x4 ADD PUSH2 0x13CD SWAP2 SWAP1 PUSH2 0x1CE3 JUMP JUMPDEST PUSH1 0x40 MLOAD DUP1 SWAP2 SUB SWAP1 REVERT JUMPDEST DUP2 PUSH1 0x1 PUSH0 DUP7 PUSH20 0xFFFFFFFFFFFFFFFFFFFFFFFFFFFFFFFFFFFFFFFF AND PUSH20 0xFFFFFFFFFFFFFFFFFFFFFFFFFFFFFFFFFFFFFFFF AND DUP2 MSTORE PUSH1 0x20 ADD SWAP1 DUP2 MSTORE PUSH1 0x20 ADD PUSH0 KECCAK256 PUSH0 DUP6 PUSH20 0xFFFFFFFFFFFFFFFFFFFFFFFFFFFFFFFFFFFFFFFF AND PUSH20 0xFFFFFFFFFFFFFFFFFFFFFFFFFFFFFFFFFFFFFFFF AND DUP2 MSTORE PUSH1 0x20 ADD SWAP1 DUP2 MSTORE PUSH1 0x20 ADD PUSH0 KECCAK256 DUP2 SWAP1 SSTORE POP DUP1 ISZERO PUSH2 0x14BF JUMPI DUP3 PUSH20 0xFFFFFFFFFFFFFFFFFFFFFFFFFFFFFFFFFFFFFFFF AND DUP5 PUSH20 0xFFFFFFFFFFFFFFFFFFFFFFFFFFFFFFFFFFFFFFFF AND PUSH32 0x8C5BE1E5EBEC7D5BD14F71427D1E84F3DD0314C0F7B2291E5B200AC8C7C3B925 DUP5 PUSH1 0x40 MLOAD PUSH2 0x14B6 SWAP2 SWAP1 PUSH2 0x1B83 JUMP JUMPDEST PUSH1 0x40 MLOAD DUP1 SWAP2 SUB SWAP1 LOG3 JUMPDEST POP POP POP POP JUMP JUMPDEST PUSH0 DUP1 DUP4 PUSH1 0x1 ADD PUSH0 DUP5 DUP2 MSTORE PUSH1 0x20 ADD SWAP1 DUP2 MSTORE PUSH1 0x20 ADD PUSH0 KECCAK256 SLOAD EQ ISZERO SWAP1 POP SWAP3 SWAP2 POP POP JUMP JUMPDEST PUSH0 PUSH2 0x14F0 DUP4 DUP4 PUSH2 0x14C5 JUMP JUMPDEST PUSH2 0x1542 JUMPI DUP3 PUSH0 ADD DUP3 SWAP1 DUP1 PUSH1 0x1 DUP2 SLOAD ADD DUP1 DUP3 SSTORE DUP1 SWAP2 POP POP PUSH1 0x1 SWAP1 SUB SWAP1 PUSH0 MSTORE PUSH1 0x20 PUSH0 KECCAK256 ADD PUSH0 SWAP1 SWAP2 SWAP1 SWAP2 SWAP1 SWAP2 POP SSTORE DUP3 PUSH0 ADD DUP1 SLOAD SWAP1 POP DUP4 PUSH1 0x1 ADD PUSH0 DUP5 DUP2 MSTORE PUSH1 0x20 ADD SWAP1 DUP2 MSTORE PUSH1 0x20 ADD PUSH0 KECCAK256 DUP2 SWAP1 SSTORE POP PUSH1 0x1 SWAP1 POP PUSH2 0x1546 JUMP JUMPDEST PUSH0 SWAP1 POP JUMPDEST SWAP3 SWAP2 POP POP JUMP JUMPDEST PUSH0 PUSH20 0xFFFFFFFFFFFFFFFFFFFFFFFFFFFFFFFFFFFFFFFF AND DUP4 PUSH20 0xFFFFFFFFFFFFFFFFFFFFFFFFFFFFFFFFFFFFFFFF AND SUB PUSH2 0x159C JUMPI DUP1 PUSH1 0x2 PUSH0 DUP3 DUP3 SLOAD PUSH2 0x1590 SWAP2 SWAP1 PUSH2 0x25C1 JUMP JUMPDEST SWAP3 POP POP DUP2 SWAP1 SSTORE POP PUSH2 0x166A JUMP JUMPDEST PUSH0 DUP1 PUSH0 DUP6 PUSH20 0xFFFFFFFFFFFFFFFFFFFFFFFFFFFFFFFFFFFFFFFF AND PUSH20 0xFFFFFFFFFFFFFFFFFFFFFFFFFFFFFFFFFFFFFFFF AND DUP2 MSTORE PUSH1 0x20 ADD SWAP1 DUP2 MSTORE PUSH1 0x20 ADD PUSH0 KECCAK256 SLOAD SWAP1 POP DUP2 DUP2 LT ISZERO PUSH2 0x1625 JUMPI DUP4 DUP2 DUP4 PUSH1 0x40 MLOAD PUSH32 0xE450D38C00000000000000000000000000000000000000000000000000000000 DUP2 MSTORE PUSH1 0x4 ADD PUSH2 0x161C SWAP4 SWAP3 SWAP2 SWAP1 PUSH2 0x258C JUMP JUMPDEST PUSH1 0x40 MLOAD DUP1 SWAP2 SUB SWAP1 REVERT JUMPDEST DUP2 DUP2 SUB PUSH0 DUP1 DUP7 PUSH20 0xFFFFFFFFFFFFFFFFFFFFFFFFFFFFFFFFFFFFFFFF AND PUSH20 0xFFFFFFFFFFFFFFFFFFFFFFFFFFFFFFFFFFFFFFFF AND DUP2 MSTORE PUSH1 0x20 ADD SWAP1 DUP2 MSTORE PUSH1 0x20 ADD PUSH0 KECCAK256 DUP2 SWAP1 SSTORE POP POP JUMPDEST PUSH0 PUSH20 0xFFFFFFFFFFFFFFFFFFFFFFFFFFFFFFFFFFFFFFFF AND DUP3 PUSH20 0xFFFFFFFFFFFFFFFFFFFFFFFFFFFFFFFFFFFFFFFF AND SUB PUSH2 0x16B1 JUMPI DUP1 PUSH1 0x2 PUSH0 DUP3 DUP3 SLOAD SUB SWAP3 POP POP DUP2 SWAP1 SSTORE POP PUSH2 0x16FB JUMP JUMPDEST DUP1 PUSH0 DUP1 DUP5 PUSH20 0xFFFFFFFFFFFFFFFFFFFFFFFFFFFFFFFFFFFFFFFF AND PUSH20 0xFFFFFFFFFFFFFFFFFFFFFFFFFFFFFFFFFFFFFFFF AND DUP2 MSTORE PUSH1 0x20 ADD SWAP1 DUP2 MSTORE PUSH1 0x20 ADD PUSH0 KECCAK256 PUSH0 DUP3 DUP3 SLOAD ADD SWAP3 POP POP DUP2 SWAP1 SSTORE POP JUMPDEST DUP2 PUSH20 0xFFFFFFFFFFFFFFFFFFFFFFFFFFFFFFFFFFFFFFFF AND DUP4 PUSH20 0xFFFFFFFFFFFFFFFFFFFFFFFFFFFFFFFFFFFFFFFF AND PUSH32 0xDDF252AD1BE2C89B69C2B068FC378DAA952BA7F163C4A11628F55A4DF523B3EF DUP4 PUSH1 0x40 MLOAD PUSH2 0x1758 SWAP2 SWAP1 PUSH2 0x1B83 JUMP JUMPDEST PUSH1 0x40 MLOAD DUP1 SWAP2 SUB SWAP1 LOG3 POP POP POP JUMP JUMPDEST PUSH0 DUP2 PUSH0 ADD DUP1 SLOAD SWAP1 POP SWAP1 POP SWAP2 SWAP1 POP JUMP JUMPDEST PUSH0 DUP3 PUSH0 ADD DUP3 DUP2 SLOAD DUP2 LT PUSH2 0x178A JUMPI PUSH2 0x1789 PUSH2 0x20E4 JUMP JUMPDEST JUMPDEST SWAP1 PUSH0 MSTORE PUSH1 0x20 PUSH0 KECCAK256 ADD SLOAD SWAP1 POP SWAP3 SWAP2 POP POP JUMP JUMPDEST PUSH1 0x40 MLOAD DUP1 PUSH2 0x120 ADD PUSH1 0x40 MSTORE DUP1 PUSH1 0x60 DUP2 MSTORE PUSH1 0x20 ADD PUSH1 0x60 DUP2 MSTORE PUSH1 0x20 ADD PUSH0 PUSH3 0xFFFFFF AND DUP2 MSTORE PUSH1 0x20 ADD PUSH0 PUSH3 0xFFFFFF AND DUP2 MSTORE PUSH1 0x20 ADD PUSH0 PUSH3 0xFFFFFF AND DUP2 MSTORE PUSH1 0x20 ADD PUSH0 PUSH3 0xFFFFFF AND DUP2 MSTORE PUSH1 0x20 ADD PUSH0 PUSH3 0xFFFFFF AND DUP2 MSTORE PUSH1 0x20 ADD PUSH0 ISZERO ISZERO DUP2 MSTORE PUSH1 0x20 ADD PUSH0 ISZERO ISZERO DUP2 MSTORE POP SWAP1 JUMP JUMPDEST PUSH0 DUP2 MLOAD SWAP1 POP SWAP2 SWAP1 POP JUMP JUMPDEST PUSH0 DUP3 DUP3 MSTORE PUSH1 0x20 DUP3 ADD SWAP1 POP SWAP3 SWAP2 POP POP JUMP JUMPDEST PUSH0 JUMPDEST DUP4 DUP2 LT ISZERO PUSH2 0x1834 JUMPI DUP1 DUP3 ADD MLOAD DUP2 DUP5 ADD MSTORE PUSH1 0x20 DUP2 ADD SWAP1 POP PUSH2 0x1819 JUMP JUMPDEST PUSH0 DUP5 DUP5 ADD MSTORE POP POP POP POP JUMP JUMPDEST PUSH0 PUSH1 0x1F NOT PUSH1 0x1F DUP4 ADD AND SWAP1 POP SWAP2 SWAP1 POP JUMP JUMPDEST PUSH0 PUSH2 0x1859 DUP3 PUSH2 0x17FD JUMP JUMPDEST PUSH2 0x1863 DUP2 DUP6 PUSH2 0x1807 JUMP JUMPDEST SWAP4 POP PUSH2 0x1873 DUP2 DUP6 PUSH1 0x20 DUP7 ADD PUSH2 0x1817 JUMP JUMPDEST PUSH2 0x187C DUP2 PUSH2 0x183F JUMP JUMPDEST DUP5 ADD SWAP2 POP POP SWAP3 SWAP2 POP POP JUMP JUMPDEST PUSH0 PUSH1 0x20 DUP3 ADD SWAP1 POP DUP2 DUP2 SUB PUSH0 DUP4 ADD MSTORE PUSH2 0x189F DUP2 DUP5 PUSH2 0x184F JUMP JUMPDEST SWAP1 POP SWAP3 SWAP2 POP POP JUMP JUMPDEST PUSH0 PUSH1 0x40 MLOAD SWAP1 POP SWAP1 JUMP JUMPDEST PUSH0 DUP1 REVERT JUMPDEST PUSH0 DUP1 REVERT JUMPDEST PUSH0 PUSH20 0xFFFFFFFFFFFFFFFFFFFFFFFFFFFFFFFFFFFFFFFF DUP3 AND SWAP1 POP SWAP2 SWAP1 POP JUMP JUMPDEST PUSH0 PUSH2 0x18E1 DUP3 PUSH2 0x18B8 JUMP JUMPDEST SWAP1 POP SWAP2 SWAP1 POP JUMP JUMPDEST PUSH2 0x18F1 DUP2 PUSH2 0x18D7 JUMP JUMPDEST DUP2 EQ PUSH2 0x18FB JUMPI PUSH0 DUP1 REVERT JUMPDEST POP JUMP JUMPDEST PUSH0 DUP2 CALLDATALOAD SWAP1 POP PUSH2 0x190C DUP2 PUSH2 0x18E8 JUMP JUMPDEST SWAP3 SWAP2 POP POP JUMP JUMPDEST PUSH0 DUP2 SWAP1 POP SWAP2 SWAP1 POP JUMP JUMPDEST PUSH2 0x1924 DUP2 PUSH2 0x1912 JUMP JUMPDEST DUP2 EQ PUSH2 0x192E JUMPI PUSH0 DUP1 REVERT JUMPDEST POP JUMP JUMPDEST PUSH0 DUP2 CALLDATALOAD SWAP1 POP PUSH2 0x193F DUP2 PUSH2 0x191B JUMP JUMPDEST SWAP3 SWAP2 POP POP JUMP JUMPDEST PUSH0 DUP1 PUSH1 0x40 DUP4 DUP6 SUB SLT ISZERO PUSH2 0x195B JUMPI PUSH2 0x195A PUSH2 0x18B0 JUMP JUMPDEST JUMPDEST PUSH0 PUSH2 0x1968 DUP6 DUP3 DUP7 ADD PUSH2 0x18FE JUMP JUMPDEST SWAP3 POP POP PUSH1 0x20 PUSH2 0x1979 DUP6 DUP3 DUP7 ADD PUSH2 0x1931 JUMP JUMPDEST SWAP2 POP POP SWAP3 POP SWAP3 SWAP1 POP JUMP JUMPDEST PUSH0 DUP2 ISZERO ISZERO SWAP1 POP SWAP2 SWAP1 POP JUMP JUMPDEST PUSH2 0x1997 DUP2 PUSH2 0x1983 JUMP JUMPDEST DUP3 MSTORE POP POP JUMP JUMPDEST PUSH0 PUSH1 0x20 DUP3 ADD SWAP1 POP PUSH2 0x19B0 PUSH0 DUP4 ADD DUP5 PUSH2 0x198E JUMP JUMPDEST SWAP3 SWAP2 POP POP JUMP JUMPDEST PUSH0 DUP1 REVERT JUMPDEST PUSH0 DUP1 REVERT JUMPDEST PUSH32 0x4E487B7100000000000000000000000000000000000000000000000000000000 PUSH0 MSTORE PUSH1 0x41 PUSH1 0x4 MSTORE PUSH1 0x24 PUSH0 REVERT JUMPDEST PUSH2 0x19F4 DUP3 PUSH2 0x183F JUMP JUMPDEST DUP2 ADD DUP2 DUP2 LT PUSH8 0xFFFFFFFFFFFFFFFF DUP3 GT OR ISZERO PUSH2 0x1A13 JUMPI PUSH2 0x1A12 PUSH2 0x19BE JUMP JUMPDEST JUMPDEST DUP1 PUSH1 0x40 MSTORE POP POP POP JUMP JUMPDEST PUSH0 PUSH2 0x1A25 PUSH2 0x18A7 JUMP JUMPDEST SWAP1 POP PUSH2 0x1A31 DUP3 DUP3 PUSH2 0x19EB JUMP JUMPDEST SWAP2 SWAP1 POP JUMP JUMPDEST PUSH0 PUSH8 0xFFFFFFFFFFFFFFFF DUP3 GT ISZERO PUSH2 0x1A50 JUMPI PUSH2 0x1A4F PUSH2 0x19BE JUMP JUMPDEST JUMPDEST PUSH2 0x1A59 DUP3 PUSH2 0x183F JUMP JUMPDEST SWAP1 POP PUSH1 0x20 DUP2 ADD SWAP1 POP SWAP2 SWAP1 POP JUMP JUMPDEST DUP3 DUP2 DUP4 CALLDATACOPY PUSH0 DUP4 DUP4 ADD MSTORE POP POP POP JUMP JUMPDEST PUSH0 PUSH2 0x1A86 PUSH2 0x1A81 DUP5 PUSH2 0x1A36 JUMP JUMPDEST PUSH2 0x1A1C JUMP JUMPDEST SWAP1 POP DUP3 DUP2 MSTORE PUSH1 0x20 DUP2 ADD DUP5 DUP5 DUP5 ADD GT ISZERO PUSH2 0x1AA2 JUMPI PUSH2 0x1AA1 PUSH2 0x19BA JUMP JUMPDEST JUMPDEST PUSH2 0x1AAD DUP5 DUP3 DUP6 PUSH2 0x1A66 JUMP JUMPDEST POP SWAP4 SWAP3 POP POP POP JUMP JUMPDEST PUSH0 DUP3 PUSH1 0x1F DUP4 ADD SLT PUSH2 0x1AC9 JUMPI PUSH2 0x1AC8 PUSH2 0x19B6 JUMP JUMPDEST JUMPDEST DUP2 CALLDATALOAD PUSH2 0x1AD9 DUP5 DUP3 PUSH1 0x20 DUP7 ADD PUSH2 0x1A74 JUMP JUMPDEST SWAP2 POP POP SWAP3 SWAP2 POP POP JUMP JUMPDEST PUSH0 PUSH3 0xFFFFFF DUP3 AND SWAP1 POP SWAP2 SWAP1 POP JUMP JUMPDEST PUSH2 0x1AF9 DUP2 PUSH2 0x1AE2 JUMP JUMPDEST DUP2 EQ PUSH2 0x1B03 JUMPI PUSH0 DUP1 REVERT JUMPDEST POP JUMP JUMPDEST PUSH0 DUP2 CALLDATALOAD SWAP1 POP PUSH2 0x1B14 DUP2 PUSH2 0x1AF0 JUMP JUMPDEST SWAP3 SWAP2 POP POP JUMP JUMPDEST PUSH0 DUP1 PUSH1 0x40 DUP4 DUP6 SUB SLT ISZERO PUSH2 0x1B30 JUMPI PUSH2 0x1B2F PUSH2 0x18B0 JUMP JUMPDEST JUMPDEST PUSH0 DUP4 ADD CALLDATALOAD PUSH8 0xFFFFFFFFFFFFFFFF DUP2 GT ISZERO PUSH2 0x1B4D JUMPI PUSH2 0x1B4C PUSH2 0x18B4 JUMP JUMPDEST JUMPDEST PUSH2 0x1B59 DUP6 DUP3 DUP7 ADD PUSH2 0x1AB5 JUMP JUMPDEST SWAP3 POP POP PUSH1 0x20 PUSH2 0x1B6A DUP6 DUP3 DUP7 ADD PUSH2 0x1B06 JUMP JUMPDEST SWAP2 POP POP SWAP3 POP SWAP3 SWAP1 POP JUMP JUMPDEST PUSH2 0x1B7D DUP2 PUSH2 0x1912 JUMP JUMPDEST DUP3 MSTORE POP POP JUMP JUMPDEST PUSH0 PUSH1 0x20 DUP3 ADD SWAP1 POP PUSH2 0x1B96 PUSH0 DUP4 ADD DUP5 PUSH2 0x1B74 JUMP JUMPDEST SWAP3 SWAP2 POP POP JUMP JUMPDEST PUSH1 0x3 DUP2 LT PUSH2 0x1BA8 JUMPI PUSH0 DUP1 REVERT JUMPDEST POP JUMP JUMPDEST PUSH0 DUP2 CALLDATALOAD SWAP1 POP PUSH2 0x1BB9 DUP2 PUSH2 0x1B9C JUMP JUMPDEST SWAP3 SWAP2 POP POP JUMP JUMPDEST PUSH0 DUP1 PUSH1 0x40 DUP4 DUP6 SUB SLT ISZERO PUSH2 0x1BD5 JUMPI PUSH2 0x1BD4 PUSH2 0x18B0 JUMP JUMPDEST JUMPDEST PUSH0 PUSH2 0x1BE2 DUP6 DUP3 DUP7 ADD PUSH2 0x1B06 JUMP JUMPDEST SWAP3 POP POP PUSH1 0x20 PUSH2 0x1BF3 DUP6 DUP3 DUP7 ADD PUSH2 0x1BAB JUMP JUMPDEST SWAP2 POP POP SWAP3 POP SWAP3 SWAP1 POP JUMP JUMPDEST PUSH0 DUP1 PUSH0 PUSH1 0x60 DUP5 DUP7 SUB SLT ISZERO PUSH2 0x1C14 JUMPI PUSH2 0x1C13 PUSH2 0x18B0 JUMP JUMPDEST JUMPDEST PUSH0 PUSH2 0x1C21 DUP7 DUP3 DUP8 ADD PUSH2 0x18FE JUMP JUMPDEST SWAP4 POP POP PUSH1 0x20 PUSH2 0x1C32 DUP7 DUP3 DUP8 ADD PUSH2 0x18FE JUMP JUMPDEST SWAP3 POP POP PUSH1 0x40 PUSH2 0x1C43 DUP7 DUP3 DUP8 ADD PUSH2 0x1931 JUMP JUMPDEST SWAP2 POP POP SWAP3 POP SWAP3 POP SWAP3 JUMP JUMPDEST PUSH0 PUSH1 0x20 DUP3 DUP5 SUB SLT ISZERO PUSH2 0x1C62 JUMPI PUSH2 0x1C61 PUSH2 0x18B0 JUMP JUMPDEST JUMPDEST PUSH0 PUSH2 0x1C6F DUP5 DUP3 DUP6 ADD PUSH2 0x18FE JUMP JUMPDEST SWAP2 POP POP SWAP3 SWAP2 POP POP JUMP JUMPDEST PUSH2 0x1C81 DUP2 PUSH2 0x1AE2 JUMP JUMPDEST DUP3 MSTORE POP POP JUMP JUMPDEST PUSH0 PUSH1 0x20 DUP3 ADD SWAP1 POP PUSH2 0x1C9A PUSH0 DUP4 ADD DUP5 PUSH2 0x1C78 JUMP JUMPDEST SWAP3 SWAP2 POP POP JUMP JUMPDEST PUSH0 PUSH1 0xFF DUP3 AND SWAP1 POP SWAP2 SWAP1 POP JUMP JUMPDEST PUSH2 0x1CB5 DUP2 PUSH2 0x1CA0 JUMP JUMPDEST DUP3 MSTORE POP POP JUMP JUMPDEST PUSH0 PUSH1 0x20 DUP3 ADD SWAP1 POP PUSH2 0x1CCE PUSH0 DUP4 ADD DUP5 PUSH2 0x1CAC JUMP JUMPDEST SWAP3 SWAP2 POP POP JUMP JUMPDEST PUSH2 0x1CDD DUP2 PUSH2 0x18D7 JUMP JUMPDEST DUP3 MSTORE POP POP JUMP JUMPDEST PUSH0 PUSH1 0x20 DUP3 ADD SWAP1 POP PUSH2 0x1CF6 PUSH0 DUP4 ADD DUP5 PUSH2 0x1CD4 JUMP JUMPDEST SWAP3 SWAP2 POP POP JUMP JUMPDEST PUSH0 DUP1 PUSH1 0x40 DUP4 DUP6 SUB SLT ISZERO PUSH2 0x1D12 JUMPI PUSH2 0x1D11 PUSH2 0x18B0 JUMP JUMPDEST JUMPDEST PUSH0 PUSH2 0x1D1F DUP6 DUP3 DUP7 ADD PUSH2 0x18FE JUMP JUMPDEST SWAP3 POP POP PUSH1 0x20 PUSH2 0x1D30 DUP6 DUP3 DUP7 ADD PUSH2 0x18FE JUMP JUMPDEST SWAP2 POP POP SWAP3 POP SWAP3 SWAP1 POP JUMP JUMPDEST PUSH0 PUSH1 0x20 DUP3 DUP5 SUB SLT ISZERO PUSH2 0x1D4F JUMPI PUSH2 0x1D4E PUSH2 0x18B0 JUMP JUMPDEST JUMPDEST PUSH0 PUSH2 0x1D5C DUP5 DUP3 DUP6 ADD PUSH2 0x1B06 JUMP JUMPDEST SWAP2 POP POP SWAP3 SWAP2 POP POP JUMP JUMPDEST PUSH0 DUP2 MLOAD SWAP1 POP SWAP2 SWAP1 POP JUMP JUMPDEST PUSH0 DUP3 DUP3 MSTORE PUSH1 0x20 DUP3 ADD SWAP1 POP SWAP3 SWAP2 POP POP JUMP JUMPDEST PUSH0 DUP2 SWAP1 POP PUSH1 0x20 DUP3 ADD SWAP1 POP SWAP2 SWAP1 POP JUMP JUMPDEST PUSH2 0x1D97 DUP2 PUSH2 0x18D7 JUMP JUMPDEST DUP3 MSTORE POP POP JUMP JUMPDEST PUSH0 PUSH2 0x1DA8 DUP4 DUP4 PUSH2 0x1D8E JUMP JUMPDEST PUSH1 0x20 DUP4 ADD SWAP1 POP SWAP3 SWAP2 POP POP JUMP JUMPDEST PUSH0 PUSH1 0x20 DUP3 ADD SWAP1 POP SWAP2 SWAP1 POP JUMP JUMPDEST PUSH0 PUSH2 0x1DCA DUP3 PUSH2 0x1D65 JUMP JUMPDEST PUSH2 0x1DD4 DUP2 DUP6 PUSH2 0x1D6F JUMP JUMPDEST SWAP4 POP PUSH2 0x1DDF DUP4 PUSH2 0x1D7F JUMP JUMPDEST DUP1 PUSH0 JUMPDEST DUP4 DUP2 LT ISZERO PUSH2 0x1E0F JUMPI DUP2 MLOAD PUSH2 0x1DF6 DUP9 DUP3 PUSH2 0x1D9D JUMP JUMPDEST SWAP8 POP PUSH2 0x1E01 DUP4 PUSH2 0x1DB4 JUMP JUMPDEST SWAP3 POP POP PUSH1 0x1 DUP2 ADD SWAP1 POP PUSH2 0x1DE2 JUMP JUMPDEST POP DUP6 SWAP4 POP POP POP POP SWAP3 SWAP2 POP POP JUMP JUMPDEST PUSH0 DUP3 DUP3 MSTORE PUSH1 0x20 DUP3 ADD SWAP1 POP SWAP3 SWAP2 POP POP JUMP JUMPDEST PUSH0 PUSH2 0x1E36 DUP3 PUSH2 0x17FD JUMP JUMPDEST PUSH2 0x1E40 DUP2 DUP6 PUSH2 0x1E1C JUMP JUMPDEST SWAP4 POP PUSH2 0x1E50 DUP2 DUP6 PUSH1 0x20 DUP7 ADD PUSH2 0x1817 JUMP JUMPDEST PUSH2 0x1E59 DUP2 PUSH2 0x183F JUMP JUMPDEST DUP5 ADD SWAP2 POP POP SWAP3 SWAP2 POP POP JUMP JUMPDEST PUSH2 0x1E6D DUP2 PUSH2 0x1AE2 JUMP JUMPDEST DUP3 MSTORE POP POP JUMP JUMPDEST PUSH2 0x1E7C DUP2 PUSH2 0x1983 JUMP JUMPDEST DUP3 MSTORE POP POP JUMP JUMPDEST PUSH0 PUSH2 0x120 DUP4 ADD PUSH0 DUP4 ADD MLOAD DUP5 DUP3 SUB PUSH0 DUP7 ADD MSTORE PUSH2 0x1E9D DUP3 DUP3 PUSH2 0x1DC0 JUMP JUMPDEST SWAP2 POP POP PUSH1 0x20 DUP4 ADD MLOAD DUP5 DUP3 SUB PUSH1 0x20 DUP7 ADD MSTORE PUSH2 0x1EB7 DUP3 DUP3 PUSH2 0x1E2C JUMP JUMPDEST SWAP2 POP POP PUSH1 0x40 DUP4 ADD MLOAD PUSH2 0x1ECC PUSH1 0x40 DUP7 ADD DUP3 PUSH2 0x1E64 JUMP JUMPDEST POP PUSH1 0x60 DUP4 ADD MLOAD PUSH2 0x1EDF PUSH1 0x60 DUP7 ADD DUP3 PUSH2 0x1E64 JUMP JUMPDEST POP PUSH1 0x80 DUP4 ADD MLOAD PUSH2 0x1EF2 PUSH1 0x80 DUP7 ADD DUP3 PUSH2 0x1E64 JUMP JUMPDEST POP PUSH1 0xA0 DUP4 ADD MLOAD PUSH2 0x1F05 PUSH1 0xA0 DUP7 ADD DUP3 PUSH2 0x1E64 JUMP JUMPDEST POP PUSH1 0xC0 DUP4 ADD MLOAD PUSH2 0x1F18 PUSH1 0xC0 DUP7 ADD DUP3 PUSH2 0x1E64 JUMP JUMPDEST POP PUSH1 0xE0 DUP4 ADD MLOAD PUSH2 0x1F2B PUSH1 0xE0 DUP7 ADD DUP3 PUSH2 0x1E73 JUMP JUMPDEST POP PUSH2 0x100 DUP4 ADD MLOAD PUSH2 0x1F40 PUSH2 0x100 DUP7 ADD DUP3 PUSH2 0x1E73 JUMP JUMPDEST POP DUP1 SWAP2 POP POP SWAP3 SWAP2 POP POP JUMP JUMPDEST PUSH0 PUSH1 0x20 DUP3 ADD SWAP1 POP DUP2 DUP2 SUB PUSH0 DUP4 ADD MSTORE PUSH2 0x1F63 DUP2 DUP5 PUSH2 0x1E82 JUMP JUMPDEST SWAP1 POP SWAP3 SWAP2 POP POP JUMP JUMPDEST PUSH32 0x4E487B7100000000000000000000000000000000000000000000000000000000 PUSH0 MSTORE PUSH1 0x22 PUSH1 0x4 MSTORE PUSH1 0x24 PUSH0 REVERT JUMPDEST PUSH0 PUSH1 0x2 DUP3 DIV SWAP1 POP PUSH1 0x1 DUP3 AND DUP1 PUSH2 0x1FAF JUMPI PUSH1 0x7F DUP3 AND SWAP2 POP JUMPDEST PUSH1 0x20 DUP3 LT DUP2 SUB PUSH2 0x1FC2 JUMPI PUSH2 0x1FC1 PUSH2 0x1F6B JUMP JUMPDEST JUMPDEST POP SWAP2 SWAP1 POP JUMP JUMPDEST PUSH32 0x4F6E6C7920746F6B656E20686F6C646572732063616E20637265617465206973 PUSH0 DUP3 ADD MSTORE PUSH32 0x7375657300000000000000000000000000000000000000000000000000000000 PUSH1 0x20 DUP3 ADD MSTORE POP JUMP JUMPDEST PUSH0 PUSH2 0x2022 PUSH1 0x24 DUP4 PUSH2 0x1807 JUMP JUMPDEST SWAP2 POP PUSH2 0x202D DUP3 PUSH2 0x1FC8 JUMP JUMPDEST PUSH1 0x40 DUP3 ADD SWAP1 POP SWAP2 SWAP1 POP JUMP JUMPDEST PUSH0 PUSH1 0x20 DUP3 ADD SWAP1 POP DUP2 DUP2 SUB PUSH0 DUP4 ADD MSTORE PUSH2 0x204F DUP2 PUSH2 0x2016 JUMP JUMPDEST SWAP1 POP SWAP2 SWAP1 POP JUMP JUMPDEST PUSH32 0x51756F72756D2063616E6E6F742062652067726561746572207468616E207468 PUSH0 DUP3 ADD MSTORE PUSH32 0x6520746F74616C206E756D626572206F6620746F6B656E730000000000000000 PUSH1 0x20 DUP3 ADD MSTORE POP JUMP JUMPDEST PUSH0 PUSH2 0x20B0 PUSH1 0x38 DUP4 PUSH2 0x1807 JUMP JUMPDEST SWAP2 POP PUSH2 0x20BB DUP3 PUSH2 0x2056 JUMP JUMPDEST PUSH1 0x40 DUP3 ADD SWAP1 POP SWAP2 SWAP1 POP JUMP JUMPDEST PUSH0 PUSH1 0x20 DUP3 ADD SWAP1 POP DUP2 DUP2 SUB PUSH0 DUP4 ADD MSTORE PUSH2 0x20DD DUP2 PUSH2 0x20A4 JUMP JUMPDEST SWAP1 POP SWAP2 SWAP1 POP JUMP JUMPDEST PUSH32 0x4E487B7100000000000000000000000000000000000000000000000000000000 PUSH0 MSTORE PUSH1 0x32 PUSH1 0x4 MSTORE PUSH1 0x24 PUSH0 REVERT JUMPDEST PUSH0 DUP2 SWAP1 POP DUP2 PUSH0 MSTORE PUSH1 0x20 PUSH0 KECCAK256 SWAP1 POP SWAP2 SWAP1 POP JUMP JUMPDEST PUSH0 PUSH1 0x20 PUSH1 0x1F DUP4 ADD DIV SWAP1 POP SWAP2 SWAP1 POP JUMP JUMPDEST PUSH0 DUP3 DUP3 SHL SWAP1 POP SWAP3 SWAP2 POP POP JUMP JUMPDEST PUSH0 PUSH1 0x8 DUP4 MUL PUSH2 0x216D PUSH32 0xFFFFFFFFFFFFFFFFFFFFFFFFFFFFFFFFFFFFFFFFFFFFFFFFFFFFFFFFFFFFFFFF DUP3 PUSH2 0x2132 JUMP JUMPDEST PUSH2 0x2177 DUP7 DUP4 PUSH2 0x2132 JUMP JUMPDEST SWAP6 POP DUP1 NOT DUP5 AND SWAP4 POP DUP1 DUP7 AND DUP5 OR SWAP3 POP POP POP SWAP4 SWAP3 POP POP POP JUMP JUMPDEST PUSH0 DUP2 SWAP1 POP SWAP2 SWAP1 POP JUMP JUMPDEST PUSH0 PUSH2 0x21B2 PUSH2 0x21AD PUSH2 0x21A8 DUP5 PUSH2 0x1912 JUMP JUMPDEST PUSH2 0x218F JUMP JUMPDEST PUSH2 0x1912 JUMP JUMPDEST SWAP1 POP SWAP2 SWAP1 POP JUMP JUMPDEST PUSH0 DUP2 SWAP1 POP SWAP2 SWAP1 POP JUMP JUMPDEST PUSH2 0x21CB DUP4 PUSH2 0x2198 JUMP JUMPDEST PUSH2 0x21DF PUSH2 0x21D7 DUP3 PUSH2 0x21B9 JUMP JUMPDEST DUP5 DUP5 SLOAD PUSH2 0x213E JUMP JUMPDEST DUP3 SSTORE POP POP POP POP JUMP JUMPDEST PUSH0 SWAP1 JUMP JUMPDEST PUSH2 0x21F3 PUSH2 0x21E7 JUMP JUMPDEST PUSH2 0x21FE DUP2 DUP5 DUP5 PUSH2 0x21C2 JUMP JUMPDEST POP POP POP JUMP JUMPDEST JUMPDEST DUP2 DUP2 LT ISZERO PUSH2 0x2221 JUMPI PUSH2 0x2216 PUSH0 DUP3 PUSH2 0x21EB JUMP JUMPDEST PUSH1 0x1 DUP2 ADD SWAP1 POP PUSH2 0x2204 JUMP JUMPDEST POP POP JUMP JUMPDEST PUSH1 0x1F DUP3 GT ISZERO PUSH2 0x2266 JUMPI PUSH2 0x2237 DUP2 PUSH2 0x2111 JUMP JUMPDEST PUSH2 0x2240 DUP5 PUSH2 0x2123 JUMP JUMPDEST DUP2 ADD PUSH1 0x20 DUP6 LT ISZERO PUSH2 0x224F JUMPI DUP2 SWAP1 POP JUMPDEST PUSH2 0x2263 PUSH2 0x225B DUP6 PUSH2 0x2123 JUMP JUMPDEST DUP4 ADD DUP3 PUSH2 0x2203 JUMP JUMPDEST POP POP JUMPDEST POP POP POP JUMP JUMPDEST PUSH0 DUP3 DUP3 SHR SWAP1 POP SWAP3 SWAP2 POP POP JUMP JUMPDEST PUSH0 PUSH2 0x2286 PUSH0 NOT DUP5 PUSH1 0x8 MUL PUSH2 0x226B JUMP JUMPDEST NOT DUP1 DUP4 AND SWAP2 POP POP SWAP3 SWAP2 POP POP JUMP JUMPDEST PUSH0 PUSH2 0x229E DUP4 DUP4 PUSH2 0x2277 JUMP JUMPDEST SWAP2 POP DUP3 PUSH1 0x2 MUL DUP3 OR SWAP1 POP SWAP3 SWAP2 POP POP JUMP JUMPDEST PUSH2 0x22B7 DUP3 PUSH2 0x17FD JUMP JUMPDEST PUSH8 0xFFFFFFFFFFFFFFFF DUP2 GT ISZERO PUSH2 0x22D0 JUMPI PUSH2 0x22CF PUSH2 0x19BE JUMP JUMPDEST JUMPDEST PUSH2 0x22DA DUP3 SLOAD PUSH2 0x1F98 JUMP JUMPDEST PUSH2 0x22E5 DUP3 DUP3 DUP6 PUSH2 0x2225 JUMP JUMPDEST PUSH0 PUSH1 0x20 SWAP1 POP PUSH1 0x1F DUP4 GT PUSH1 0x1 DUP2 EQ PUSH2 0x2316 JUMPI PUSH0 DUP5 ISZERO PUSH2 0x2304 JUMPI DUP3 DUP8 ADD MLOAD SWAP1 POP JUMPDEST PUSH2 0x230E DUP6 DUP3 PUSH2 0x2293 JUMP JUMPDEST DUP7 SSTORE POP PUSH2 0x2375 JUMP JUMPDEST PUSH1 0x1F NOT DUP5 AND PUSH2 0x2324 DUP7 PUSH2 0x2111 JUMP JUMPDEST PUSH0 JUMPDEST DUP3 DUP2 LT ISZERO PUSH2 0x234B JUMPI DUP5 DUP10 ADD MLOAD DUP3 SSTORE PUSH1 0x1 DUP3 ADD SWAP2 POP PUSH1 0x20 DUP6 ADD SWAP5 POP PUSH1 0x20 DUP2 ADD SWAP1 POP PUSH2 0x2326 JUMP JUMPDEST DUP7 DUP4 LT ISZERO PUSH2 0x2368 JUMPI DUP5 DUP10 ADD MLOAD PUSH2 0x2364 PUSH1 0x1F DUP10 AND DUP3 PUSH2 0x2277 JUMP JUMPDEST DUP4 SSTORE POP JUMPDEST PUSH1 0x1 PUSH1 0x2 DUP9 MUL ADD DUP9 SSTORE POP POP POP JUMPDEST POP POP POP POP POP POP JUMP JUMPDEST PUSH32 0x566F74696E6720697320636C6F73656420666F72207468697320697373756500 PUSH0 DUP3 ADD MSTORE POP JUMP JUMPDEST PUSH0 PUSH2 0x23B1 PUSH1 0x1F DUP4 PUSH2 0x1807 JUMP JUMPDEST SWAP2 POP PUSH2 0x23BC DUP3 PUSH2 0x237D JUMP JUMPDEST PUSH1 0x20 DUP3 ADD SWAP1 POP SWAP2 SWAP1 POP JUMP JUMPDEST PUSH0 PUSH1 0x20 DUP3 ADD SWAP1 POP DUP2 DUP2 SUB PUSH0 DUP4 ADD MSTORE PUSH2 0x23DE DUP2 PUSH2 0x23A5 JUMP JUMPDEST SWAP1 POP SWAP2 SWAP1 POP JUMP JUMPDEST PUSH32 0x416C726561647920766F746564206F6E20746869732069737375650000000000 PUSH0 DUP3 ADD MSTORE POP JUMP JUMPDEST PUSH0 PUSH2 0x2419 PUSH1 0x1B DUP4 PUSH2 0x1807 JUMP JUMPDEST SWAP2 POP PUSH2 0x2424 DUP3 PUSH2 0x23E5 JUMP JUMPDEST PUSH1 0x20 DUP3 ADD SWAP1 POP SWAP2 SWAP1 POP JUMP JUMPDEST PUSH0 PUSH1 0x20 DUP3 ADD SWAP1 POP DUP2 DUP2 SUB PUSH0 DUP4 ADD MSTORE PUSH2 0x2446 DUP2 PUSH2 0x240D JUMP JUMPDEST SWAP1 POP SWAP2 SWAP1 POP JUMP JUMPDEST PUSH32 0x4E487B7100000000000000000000000000000000000000000000000000000000 PUSH0 MSTORE PUSH1 0x21 PUSH1 0x4 MSTORE PUSH1 0x24 PUSH0 REVERT JUMPDEST PUSH32 0x4E487B7100000000000000000000000000000000000000000000000000000000 PUSH0 MSTORE PUSH1 0x11 PUSH1 0x4 MSTORE PUSH1 0x24 PUSH0 REVERT JUMPDEST PUSH0 PUSH2 0x24B1 DUP3 PUSH2 0x1AE2 JUMP JUMPDEST SWAP2 POP PUSH2 0x24BC DUP4 PUSH2 0x1AE2 JUMP JUMPDEST SWAP3 POP DUP3 DUP3 ADD SWAP1 POP PUSH3 0xFFFFFF DUP2 GT ISZERO PUSH2 0x24D7 JUMPI PUSH2 0x24D6 PUSH2 0x247A JUMP JUMPDEST JUMPDEST SWAP3 SWAP2 POP POP JUMP JUMPDEST PUSH32 0x496E76616C696420766F7465206F7074696F6E00000000000000000000000000 PUSH0 DUP3 ADD MSTORE POP JUMP JUMPDEST PUSH0 PUSH2 0x2511 PUSH1 0x13 DUP4 PUSH2 0x1807 JUMP JUMPDEST SWAP2 POP PUSH2 0x251C DUP3 PUSH2 0x24DD JUMP JUMPDEST PUSH1 0x20 DUP3 ADD SWAP1 POP SWAP2 SWAP1 POP JUMP JUMPDEST PUSH0 PUSH1 0x20 DUP3 ADD SWAP1 POP DUP2 DUP2 SUB PUSH0 DUP4 ADD MSTORE PUSH2 0x253E DUP2 PUSH2 0x2505 JUMP JUMPDEST SWAP1 POP SWAP2 SWAP1 POP JUMP JUMPDEST PUSH0 PUSH2 0x254F DUP3 PUSH2 0x1912 JUMP JUMPDEST SWAP2 POP PUSH32 0xFFFFFFFFFFFFFFFFFFFFFFFFFFFFFFFFFFFFFFFFFFFFFFFFFFFFFFFFFFFFFFFF DUP3 SUB PUSH2 0x2581 JUMPI PUSH2 0x2580 PUSH2 0x247A JUMP JUMPDEST JUMPDEST PUSH1 0x1 DUP3 ADD SWAP1 POP SWAP2 SWAP1 POP JUMP JUMPDEST PUSH0 PUSH1 0x60 DUP3 ADD SWAP1 POP PUSH2 0x259F PUSH0 DUP4 ADD DUP7 PUSH2 0x1CD4 JUMP JUMPDEST PUSH2 0x25AC PUSH1 0x20 DUP4 ADD DUP6 PUSH2 0x1B74 JUMP JUMPDEST PUSH2 0x25B9 PUSH1 0x40 DUP4 ADD DUP5 PUSH2 0x1B74 JUMP JUMPDEST SWAP5 SWAP4 POP POP POP POP JUMP JUMPDEST PUSH0 PUSH2 0x25CB DUP3 PUSH2 0x1912 JUMP JUMPDEST SWAP2 POP PUSH2 0x25D6 DUP4 PUSH2 0x1912 JUMP JUMPDEST SWAP3 POP DUP3 DUP3 ADD SWAP1 POP DUP1 DUP3 GT ISZERO PUSH2 0x25EE JUMPI PUSH2 0x25ED PUSH2 0x247A JUMP JUMPDEST JUMPDEST SWAP3 SWAP2 POP POP JUMP INVALID LOG2 PUSH5 0x6970667358 0x22 SLT KECCAK256 0xD2 0xC5 0xDF PUSH11 0xC21512E1300312A269385 COINBASE 0xD4 0xD 0xDD ADDRESS 0xAE CALLDATACOPY DUP2 0xE7 0xB9 0x5D ORIGIN PUSH29 0xF5C6AF3164736F6C634300081400330000000000000000000000000000 "
				},
				"gasEstimates": {
					"creation": {
						"codeDepositCost": "1954000",
						"executionCost": "infinite",
						"totalCost": "infinite"
					},
					"external": {
						"allowance(address,address)": "infinite",
						"approve(address,uint256)": "infinite",
						"balanceOf(address)": "2852",
						"balances(address)": "2900",
						"claim()": "infinite",
						"claimAmount()": "2584",
						"claimedAmount()": "2539",
						"createIssue(string,uint24)": "infinite",
						"decimals()": "427",
						"getIssue(uint24)": "infinite",
						"hasClaimed(address)": "2878",
						"maxSupply()": "2532",
						"name()": "infinite",
						"owner()": "2597",
						"symbol()": "infinite",
						"totalSupply()": "2522",
						"transfer(address,uint256)": "infinite",
						"transferFrom(address,address,uint256)": "infinite",
						"vote(uint24,uint8)": "infinite"
					}
				},
				"methodIdentifiers": {
					"allowance(address,address)": "dd62ed3e",
					"approve(address,uint256)": "095ea7b3",
					"balanceOf(address)": "70a08231",
					"balances(address)": "27e235e3",
					"claim()": "4e71d92d",
					"claimAmount()": "830953ab",
					"claimedAmount()": "9668ceb8",
					"createIssue(string,uint24)": "0c6a8615",
					"decimals()": "313ce567",
					"getIssue(uint24)": "fca22842",
					"hasClaimed(address)": "73b2e80e",
					"maxSupply()": "d5abeb01",
					"name()": "06fdde03",
					"owner()": "8da5cb5b",
					"symbol()": "95d89b41",
					"totalSupply()": "18160ddd",
					"transfer(address,uint256)": "a9059cbb",
					"transferFrom(address,address,uint256)": "23b872dd",
					"vote(uint24,uint8)": "21e4c301"
				}
			},
			"storageLayout": {
				"storage": [
					{
						"astId": 159,
						"contract": "contracts/WeightedVoting.sol:WeightedVoting",
						"label": "_balances",
						"offset": 0,
						"slot": "0",
						"type": "t_mapping(t_address,t_uint256)"
					},
					{
						"astId": 165,
						"contract": "contracts/WeightedVoting.sol:WeightedVoting",
						"label": "_allowances",
						"offset": 0,
						"slot": "1",
						"type": "t_mapping(t_address,t_mapping(t_address,t_uint256))"
					},
					{
						"astId": 167,
						"contract": "contracts/WeightedVoting.sol:WeightedVoting",
						"label": "_totalSupply",
						"offset": 0,
						"slot": "2",
						"type": "t_uint256"
					},
					{
						"astId": 169,
						"contract": "contracts/WeightedVoting.sol:WeightedVoting",
						"label": "_name",
						"offset": 0,
						"slot": "3",
						"type": "t_string_storage"
					},
					{
						"astId": 171,
						"contract": "contracts/WeightedVoting.sol:WeightedVoting",
						"label": "_symbol",
						"offset": 0,
						"slot": "4",
						"type": "t_string_storage"
					},
					{
						"astId": 1446,
						"contract": "contracts/WeightedVoting.sol:WeightedVoting",
						"label": "maxSupply",
						"offset": 0,
						"slot": "5",
						"type": "t_uint24"
					},
					{
						"astId": 1448,
						"contract": "contracts/WeightedVoting.sol:WeightedVoting",
						"label": "claimAmount",
						"offset": 3,
						"slot": "5",
						"type": "t_uint24"
					},
					{
						"astId": 1450,
						"contract": "contracts/WeightedVoting.sol:WeightedVoting",
						"label": "claimedAmount",
						"offset": 6,
						"slot": "5",
						"type": "t_uint24"
					},
					{
						"astId": 1454,
						"contract": "contracts/WeightedVoting.sol:WeightedVoting",
						"label": "balances",
						"offset": 0,
						"slot": "6",
						"type": "t_mapping(t_address,t_uint24)"
					},
					{
						"astId": 1458,
						"contract": "contracts/WeightedVoting.sol:WeightedVoting",
						"label": "hasClaimed",
						"offset": 0,
						"slot": "7",
						"type": "t_mapping(t_address,t_bool)"
					},
					{
						"astId": 1485,
						"contract": "contracts/WeightedVoting.sol:WeightedVoting",
						"label": "owner",
						"offset": 0,
						"slot": "8",
						"type": "t_address"
					},
					{
						"astId": 1503,
						"contract": "contracts/WeightedVoting.sol:WeightedVoting",
						"label": "issues",
						"offset": 0,
						"slot": "9",
						"type": "t_array(t_struct(Issue)1420_storage)dyn_storage"
					}
				],
				"types": {
					"t_address": {
						"encoding": "inplace",
						"label": "address",
						"numberOfBytes": "20"
					},
					"t_array(t_bytes32)dyn_storage": {
						"base": "t_bytes32",
						"encoding": "dynamic_array",
						"label": "bytes32[]",
						"numberOfBytes": "32"
					},
					"t_array(t_struct(Issue)1420_storage)dyn_storage": {
						"base": "t_struct(Issue)1420_storage",
						"encoding": "dynamic_array",
						"label": "struct WeightedVoting.Issue[]",
						"numberOfBytes": "32"
					},
					"t_bool": {
						"encoding": "inplace",
						"label": "bool",
						"numberOfBytes": "1"
					},
					"t_bytes32": {
						"encoding": "inplace",
						"label": "bytes32",
						"numberOfBytes": "32"
					},
					"t_mapping(t_address,t_bool)": {
						"encoding": "mapping",
						"key": "t_address",
						"label": "mapping(address => bool)",
						"numberOfBytes": "32",
						"value": "t_bool"
					},
					"t_mapping(t_address,t_mapping(t_address,t_uint256))": {
						"encoding": "mapping",
						"key": "t_address",
						"label": "mapping(address => mapping(address => uint256))",
						"numberOfBytes": "32",
						"value": "t_mapping(t_address,t_uint256)"
					},
					"t_mapping(t_address,t_uint24)": {
						"encoding": "mapping",
						"key": "t_address",
						"label": "mapping(address => uint24)",
						"numberOfBytes": "32",
						"value": "t_uint24"
					},
					"t_mapping(t_address,t_uint256)": {
						"encoding": "mapping",
						"key": "t_address",
						"label": "mapping(address => uint256)",
						"numberOfBytes": "32",
						"value": "t_uint256"
					},
					"t_mapping(t_bytes32,t_uint256)": {
						"encoding": "mapping",
						"key": "t_bytes32",
						"label": "mapping(bytes32 => uint256)",
						"numberOfBytes": "32",
						"value": "t_uint256"
					},
					"t_string_storage": {
						"encoding": "bytes",
						"label": "string",
						"numberOfBytes": "32"
					},
					"t_struct(AddressSet)1103_storage": {
						"encoding": "inplace",
						"label": "struct EnumerableSet.AddressSet",
						"members": [
							{
								"astId": 1102,
								"contract": "contracts/WeightedVoting.sol:WeightedVoting",
								"label": "_inner",
								"offset": 0,
								"slot": "0",
								"type": "t_struct(Set)788_storage"
							}
						],
						"numberOfBytes": "64"
					},
					"t_struct(Issue)1420_storage": {
						"encoding": "inplace",
						"label": "struct WeightedVoting.Issue",
						"members": [
							{
								"astId": 1403,
								"contract": "contracts/WeightedVoting.sol:WeightedVoting",
								"label": "voters",
								"offset": 0,
								"slot": "0",
								"type": "t_struct(AddressSet)1103_storage"
							},
							{
								"astId": 1405,
								"contract": "contracts/WeightedVoting.sol:WeightedVoting",
								"label": "issueDesc",
								"offset": 0,
								"slot": "2",
								"type": "t_string_storage"
							},
							{
								"astId": 1407,
								"contract": "contracts/WeightedVoting.sol:WeightedVoting",
								"label": "votesFor",
								"offset": 0,
								"slot": "3",
								"type": "t_uint24"
							},
							{
								"astId": 1409,
								"contract": "contracts/WeightedVoting.sol:WeightedVoting",
								"label": "votesAgainst",
								"offset": 3,
								"slot": "3",
								"type": "t_uint24"
							},
							{
								"astId": 1411,
								"contract": "contracts/WeightedVoting.sol:WeightedVoting",
								"label": "votesAbstain",
								"offset": 6,
								"slot": "3",
								"type": "t_uint24"
							},
							{
								"astId": 1413,
								"contract": "contracts/WeightedVoting.sol:WeightedVoting",
								"label": "totalVotes",
								"offset": 9,
								"slot": "3",
								"type": "t_uint24"
							},
							{
								"astId": 1415,
								"contract": "contracts/WeightedVoting.sol:WeightedVoting",
								"label": "quorum",
								"offset": 12,
								"slot": "3",
								"type": "t_uint24"
							},
							{
								"astId": 1417,
								"contract": "contracts/WeightedVoting.sol:WeightedVoting",
								"label": "passed",
								"offset": 15,
								"slot": "3",
								"type": "t_bool"
							},
							{
								"astId": 1419,
								"contract": "contracts/WeightedVoting.sol:WeightedVoting",
								"label": "closed",
								"offset": 16,
								"slot": "3",
								"type": "t_bool"
							}
						],
						"numberOfBytes": "128"
					},
					"t_struct(Set)788_storage": {
						"encoding": "inplace",
						"label": "struct EnumerableSet.Set",
						"members": [
							{
								"astId": 783,
								"contract": "contracts/WeightedVoting.sol:WeightedVoting",
								"label": "_values",
								"offset": 0,
								"slot": "0",
								"type": "t_array(t_bytes32)dyn_storage"
							},
							{
								"astId": 787,
								"contract": "contracts/WeightedVoting.sol:WeightedVoting",
								"label": "_positions",
								"offset": 0,
								"slot": "1",
								"type": "t_mapping(t_bytes32,t_uint256)"
							}
						],
						"numberOfBytes": "64"
					},
					"t_uint24": {
						"encoding": "inplace",
						"label": "uint24",
						"numberOfBytes": "3"
					},
					"t_uint256": {
						"encoding": "inplace",
						"label": "uint256",
						"numberOfBytes": "32"
					}
				}
			},
			"userdoc": {
				"kind": "user",
				"methods": {},
				"version": 1
			}
		}
	}
}