{
	"contracts/MinimalTokenExercise.sol": {
		"UnburnableToken": {
			"abi": [
				{
					"inputs": [],
					"stateMutability": "nonpayable",
					"type": "constructor"
				},
				{
					"inputs": [],
					"name": "TokensClaimed",
					"type": "error"
				},
				{
					"inputs": [
						{
							"internalType": "address",
							"name": "_to",
							"type": "address"
						}
					],
					"name": "UnsafeTransfer",
					"type": "error"
				},
				{
					"inputs": [
						{
							"internalType": "address",
							"name": "",
							"type": "address"
						}
					],
					"name": "balances",
					"outputs": [
						{
							"internalType": "uint256",
							"name": "",
							"type": "uint256"
						}
					],
					"stateMutability": "view",
					"type": "function"
				},
				{
					"inputs": [],
					"name": "claim",
					"outputs": [],
					"stateMutability": "nonpayable",
					"type": "function"
				},
				{
					"inputs": [],
					"name": "claimAmount",
					"outputs": [
						{
							"internalType": "uint256",
							"name": "",
							"type": "uint256"
						}
					],
					"stateMutability": "view",
					"type": "function"
				},
				{
					"inputs": [
						{
							"internalType": "address",
							"name": "",
							"type": "address"
						}
					],
					"name": "hasClaimed",
					"outputs": [
						{
							"internalType": "bool",
							"name": "",
							"type": "bool"
						}
					],
					"stateMutability": "view",
					"type": "function"
				},
				{
					"inputs": [
						{
							"internalType": "address",
							"name": "_to",
							"type": "address"
						},
						{
							"internalType": "uint256",
							"name": "_amount",
							"type": "uint256"
						}
					],
					"name": "safeTransfer",
					"outputs": [],
					"stateMutability": "nonpayable",
					"type": "function"
				},
				{
					"inputs": [],
					"name": "totalClaimed",
					"outputs": [
						{
							"internalType": "uint256",
							"name": "",
							"type": "uint256"
						}
					],
					"stateMutability": "view",
					"type": "function"
				},
				{
					"inputs": [],
					"name": "totalSupply",
					"outputs": [
						{
							"internalType": "uint256",
							"name": "",
							"type": "uint256"
						}
					],
					"stateMutability": "view",
					"type": "function"
				}
			],
			"devdoc": {
				"kind": "dev",
				"methods": {},
				"version": 1
			},
			"evm": {
				"assembly": "    /* \"contracts/MinimalTokenExercise.sol\":58:1543  contract UnburnableToken {... */\n  mstore(0x40, 0x80)\n    /* \"contracts/MinimalTokenExercise.sol\":393:475  constructor() {... */\n  callvalue\n  dup1\n  iszero\n  tag_1\n  jumpi\n  0x00\n  dup1\n  revert\ntag_1:\n  pop\n    /* \"contracts/MinimalTokenExercise.sol\":431:440  100000000 */\n  0x05f5e100\n    /* \"contracts/MinimalTokenExercise.sol\":417:428  totalSupply */\n  0x02\n    /* \"contracts/MinimalTokenExercise.sol\":417:440  totalSupply = 100000000 */\n  dup2\n  swap1\n  sstore\n  pop\n    /* \"contracts/MinimalTokenExercise.sol\":464:468  1000 */\n  0x03e8\n    /* \"contracts/MinimalTokenExercise.sol\":450:461  claimAmount */\n  0x04\n    /* \"contracts/MinimalTokenExercise.sol\":450:468  claimAmount = 1000 */\n  dup2\n  swap1\n  sstore\n  pop\n    /* \"contracts/MinimalTokenExercise.sol\":58:1543  contract UnburnableToken {... */\n  dataSize(sub_0)\n  dup1\n  dataOffset(sub_0)\n  0x00\n  codecopy\n  0x00\n  return\nstop\n\nsub_0: assembly {\n        /* \"contracts/MinimalTokenExercise.sol\":58:1543  contract UnburnableToken {... */\n      mstore(0x40, 0x80)\n      callvalue\n      dup1\n      iszero\n      tag_1\n      jumpi\n      0x00\n      dup1\n      revert\n    tag_1:\n      pop\n      jumpi(tag_2, lt(calldatasize, 0x04))\n      shr(0xe0, calldataload(0x00))\n      dup1\n      0x4e71d92d\n      gt\n      tag_10\n      jumpi\n      dup1\n      0x4e71d92d\n      eq\n      tag_6\n      jumpi\n      dup1\n      0x73b2e80e\n      eq\n      tag_7\n      jumpi\n      dup1\n      0x830953ab\n      eq\n      tag_8\n      jumpi\n      dup1\n      0xd54ad2a1\n      eq\n      tag_9\n      jumpi\n      jump(tag_2)\n    tag_10:\n      dup1\n      0x18160ddd\n      eq\n      tag_3\n      jumpi\n      dup1\n      0x27e235e3\n      eq\n      tag_4\n      jumpi\n      dup1\n      0x423f6cef\n      eq\n      tag_5\n      jumpi\n    tag_2:\n      0x00\n      dup1\n      revert\n        /* \"contracts/MinimalTokenExercise.sol\":295:321  uint256 public totalSupply */\n    tag_3:\n      tag_11\n      tag_12\n      jump\t// in\n    tag_11:\n      mload(0x40)\n      tag_13\n      swap2\n      swap1\n      tag_14\n      jump\t// in\n    tag_13:\n      mload(0x40)\n      dup1\n      swap2\n      sub\n      swap1\n      return\n        /* \"contracts/MinimalTokenExercise.sol\":138:181  mapping(address => uint256) public balances */\n    tag_4:\n      tag_15\n      0x04\n      dup1\n      calldatasize\n      sub\n      dup2\n      add\n      swap1\n      tag_16\n      swap2\n      swap1\n      tag_17\n      jump\t// in\n    tag_16:\n      tag_18\n      jump\t// in\n    tag_15:\n      mload(0x40)\n      tag_19\n      swap2\n      swap1\n      tag_14\n      jump\t// in\n    tag_19:\n      mload(0x40)\n      dup1\n      swap2\n      sub\n      swap1\n      return\n        /* \"contracts/MinimalTokenExercise.sol\":1078:1541  function safeTransfer(address _to, uint _amount) public {... */\n    tag_5:\n      tag_20\n      0x04\n      dup1\n      calldatasize\n      sub\n      dup2\n      add\n      swap1\n      tag_21\n      swap2\n      swap1\n      tag_22\n      jump\t// in\n    tag_21:\n      tag_23\n      jump\t// in\n    tag_20:\n      stop\n        /* \"contracts/MinimalTokenExercise.sol\":729:1007  function claim() public {... */\n    tag_6:\n      tag_24\n      tag_25\n      jump\t// in\n    tag_24:\n      stop\n        /* \"contracts/MinimalTokenExercise.sol\":246:288  mapping(address => bool) public hasClaimed */\n    tag_7:\n      tag_26\n      0x04\n      dup1\n      calldatasize\n      sub\n      dup2\n      add\n      swap1\n      tag_27\n      swap2\n      swap1\n      tag_17\n      jump\t// in\n    tag_27:\n      tag_28\n      jump\t// in\n    tag_26:\n      mload(0x40)\n      tag_29\n      swap2\n      swap1\n      tag_30\n      jump\t// in\n    tag_29:\n      mload(0x40)\n      dup1\n      swap2\n      sub\n      swap1\n      return\n        /* \"contracts/MinimalTokenExercise.sol\":360:386  uint256 public claimAmount */\n    tag_8:\n      tag_31\n      tag_32\n      jump\t// in\n    tag_31:\n      mload(0x40)\n      tag_33\n      swap2\n      swap1\n      tag_14\n      jump\t// in\n    tag_33:\n      mload(0x40)\n      dup1\n      swap2\n      sub\n      swap1\n      return\n        /* \"contracts/MinimalTokenExercise.sol\":327:354  uint256 public totalClaimed */\n    tag_9:\n      tag_34\n      tag_35\n      jump\t// in\n    tag_34:\n      mload(0x40)\n      tag_36\n      swap2\n      swap1\n      tag_14\n      jump\t// in\n    tag_36:\n      mload(0x40)\n      dup1\n      swap2\n      sub\n      swap1\n      return\n        /* \"contracts/MinimalTokenExercise.sol\":295:321  uint256 public totalSupply */\n    tag_12:\n      sload(0x02)\n      dup2\n      jump\t// out\n        /* \"contracts/MinimalTokenExercise.sol\":138:181  mapping(address => uint256) public balances */\n    tag_18:\n      mstore(0x20, 0x00)\n      dup1\n      0x00\n      mstore\n      keccak256(0x00, 0x40)\n      0x00\n      swap2\n      pop\n      swap1\n      pop\n      sload\n      dup2\n      jump\t// out\n        /* \"contracts/MinimalTokenExercise.sol\":1078:1541  function safeTransfer(address _to, uint _amount) public {... */\n    tag_23:\n        /* \"contracts/MinimalTokenExercise.sol\":1163:1164  0 */\n      0x00\n        /* \"contracts/MinimalTokenExercise.sol\":1148:1165  _to == address(0) */\n      0xffffffffffffffffffffffffffffffffffffffff\n      and\n        /* \"contracts/MinimalTokenExercise.sol\":1148:1151  _to */\n      dup3\n        /* \"contracts/MinimalTokenExercise.sol\":1148:1165  _to == address(0) */\n      0xffffffffffffffffffffffffffffffffffffffff\n      and\n      sub\n        /* \"contracts/MinimalTokenExercise.sol\":1144:1218  if (_to == address(0)) {... */\n      tag_38\n      jumpi\n        /* \"contracts/MinimalTokenExercise.sol\":1203:1206  _to */\n      dup2\n        /* \"contracts/MinimalTokenExercise.sol\":1188:1207  UnsafeTransfer(_to) */\n      mload(0x40)\n      0x6a86d24c00000000000000000000000000000000000000000000000000000000\n      dup2\n      mstore\n      0x04\n      add\n      tag_39\n      swap2\n      swap1\n      tag_40\n      jump\t// in\n    tag_39:\n      mload(0x40)\n      dup1\n      swap2\n      sub\n      swap1\n      revert\n        /* \"contracts/MinimalTokenExercise.sol\":1144:1218  if (_to == address(0)) {... */\n    tag_38:\n        /* \"contracts/MinimalTokenExercise.sol\":1227:1246  uint currentBalance */\n      0x00\n        /* \"contracts/MinimalTokenExercise.sol\":1249:1257  balances */\n      dup1\n        /* \"contracts/MinimalTokenExercise.sol\":1249:1269  balances[msg.sender] */\n      0x00\n        /* \"contracts/MinimalTokenExercise.sol\":1258:1268  msg.sender */\n      caller\n        /* \"contracts/MinimalTokenExercise.sol\":1249:1269  balances[msg.sender] */\n      0xffffffffffffffffffffffffffffffffffffffff\n      and\n      0xffffffffffffffffffffffffffffffffffffffff\n      and\n      dup2\n      mstore\n      0x20\n      add\n      swap1\n      dup2\n      mstore\n      0x20\n      add\n      0x00\n      keccak256\n      sload\n        /* \"contracts/MinimalTokenExercise.sol\":1227:1269  uint currentBalance = balances[msg.sender] */\n      swap1\n      pop\n        /* \"contracts/MinimalTokenExercise.sol\":1300:1307  _amount */\n      dup2\n        /* \"contracts/MinimalTokenExercise.sol\":1283:1297  currentBalance */\n      dup2\n        /* \"contracts/MinimalTokenExercise.sol\":1283:1307  currentBalance < _amount */\n      lt\n        /* \"contracts/MinimalTokenExercise.sol\":1279:1360  if (currentBalance < _amount) {... */\n      iszero\n      tag_41\n      jumpi\n        /* \"contracts/MinimalTokenExercise.sol\":1345:1348  _to */\n      dup3\n        /* \"contracts/MinimalTokenExercise.sol\":1330:1349  UnsafeTransfer(_to) */\n      mload(0x40)\n      0x6a86d24c00000000000000000000000000000000000000000000000000000000\n      dup2\n      mstore\n      0x04\n      add\n      tag_42\n      swap2\n      swap1\n      tag_40\n      jump\t// in\n    tag_42:\n      mload(0x40)\n      dup1\n      swap2\n      sub\n      swap1\n      revert\n        /* \"contracts/MinimalTokenExercise.sol\":1279:1360  if (currentBalance < _amount) {... */\n    tag_41:\n        /* \"contracts/MinimalTokenExercise.sol\":1389:1390  0 */\n      0x00\n        /* \"contracts/MinimalTokenExercise.sol\":1374:1377  _to */\n      dup4\n        /* \"contracts/MinimalTokenExercise.sol\":1374:1385  _to.balance */\n      0xffffffffffffffffffffffffffffffffffffffff\n      and\n      balance\n        /* \"contracts/MinimalTokenExercise.sol\":1374:1390  _to.balance == 0 */\n      sub\n        /* \"contracts/MinimalTokenExercise.sol\":1370:1443  if (_to.balance == 0) {... */\n      tag_43\n      jumpi\n        /* \"contracts/MinimalTokenExercise.sol\":1428:1431  _to */\n      dup3\n        /* \"contracts/MinimalTokenExercise.sol\":1413:1432  UnsafeTransfer(_to) */\n      mload(0x40)\n      0x6a86d24c00000000000000000000000000000000000000000000000000000000\n      dup2\n      mstore\n      0x04\n      add\n      tag_44\n      swap2\n      swap1\n      tag_40\n      jump\t// in\n    tag_44:\n      mload(0x40)\n      dup1\n      swap2\n      sub\n      swap1\n      revert\n        /* \"contracts/MinimalTokenExercise.sol\":1370:1443  if (_to.balance == 0) {... */\n    tag_43:\n        /* \"contracts/MinimalTokenExercise.sol\":1493:1500  _amount */\n      dup2\n        /* \"contracts/MinimalTokenExercise.sol\":1476:1490  currentBalance */\n      dup2\n        /* \"contracts/MinimalTokenExercise.sol\":1476:1500  currentBalance - _amount */\n      tag_45\n      swap2\n      swap1\n      tag_46\n      jump\t// in\n    tag_45:\n        /* \"contracts/MinimalTokenExercise.sol\":1453:1461  balances */\n      0x00\n        /* \"contracts/MinimalTokenExercise.sol\":1453:1473  balances[msg.sender] */\n      dup1\n        /* \"contracts/MinimalTokenExercise.sol\":1462:1472  msg.sender */\n      caller\n        /* \"contracts/MinimalTokenExercise.sol\":1453:1473  balances[msg.sender] */\n      0xffffffffffffffffffffffffffffffffffffffff\n      and\n      0xffffffffffffffffffffffffffffffffffffffff\n      and\n      dup2\n      mstore\n      0x20\n      add\n      swap1\n      dup2\n      mstore\n      0x20\n      add\n      0x00\n      keccak256\n        /* \"contracts/MinimalTokenExercise.sol\":1453:1500  balances[msg.sender] = currentBalance - _amount */\n      dup2\n      swap1\n      sstore\n      pop\n        /* \"contracts/MinimalTokenExercise.sol\":1527:1534  _amount */\n      dup2\n        /* \"contracts/MinimalTokenExercise.sol\":1510:1518  balances */\n      0x00\n        /* \"contracts/MinimalTokenExercise.sol\":1510:1523  balances[_to] */\n      dup1\n        /* \"contracts/MinimalTokenExercise.sol\":1519:1522  _to */\n      dup6\n        /* \"contracts/MinimalTokenExercise.sol\":1510:1523  balances[_to] */\n      0xffffffffffffffffffffffffffffffffffffffff\n      and\n      0xffffffffffffffffffffffffffffffffffffffff\n      and\n      dup2\n      mstore\n      0x20\n      add\n      swap1\n      dup2\n      mstore\n      0x20\n      add\n      0x00\n      keccak256\n      0x00\n        /* \"contracts/MinimalTokenExercise.sol\":1510:1534  balances[_to] += _amount */\n      dup3\n      dup3\n      sload\n      tag_47\n      swap2\n      swap1\n      tag_48\n      jump\t// in\n    tag_47:\n      swap3\n      pop\n      pop\n      dup2\n      swap1\n      sstore\n      pop\n        /* \"contracts/MinimalTokenExercise.sol\":1134:1541  {... */\n      pop\n        /* \"contracts/MinimalTokenExercise.sol\":1078:1541  function safeTransfer(address _to, uint _amount) public {... */\n      pop\n      pop\n      jump\t// out\n        /* \"contracts/MinimalTokenExercise.sol\":729:1007  function claim() public {... */\n    tag_25:\n        /* \"contracts/MinimalTokenExercise.sol\":786:797  totalSupply */\n      sload(0x02)\n        /* \"contracts/MinimalTokenExercise.sol\":771:783  totalClaimed */\n      sload(0x03)\n        /* \"contracts/MinimalTokenExercise.sol\":771:797  totalClaimed < totalSupply */\n      lt\n        /* \"contracts/MinimalTokenExercise.sol\":763:818  require(totalClaimed < totalSupply, \"AllTokensClaimed\") */\n      tag_50\n      jumpi\n      mload(0x40)\n      0x08c379a000000000000000000000000000000000000000000000000000000000\n      dup2\n      mstore\n      0x04\n      add\n      tag_51\n      swap1\n      tag_52\n      jump\t// in\n    tag_51:\n      mload(0x40)\n      dup1\n      swap2\n      sub\n      swap1\n      revert\n    tag_50:\n        /* \"contracts/MinimalTokenExercise.sol\":832:842  hasClaimed */\n      0x01\n        /* \"contracts/MinimalTokenExercise.sol\":832:854  hasClaimed[msg.sender] */\n      0x00\n        /* \"contracts/MinimalTokenExercise.sol\":843:853  msg.sender */\n      caller\n        /* \"contracts/MinimalTokenExercise.sol\":832:854  hasClaimed[msg.sender] */\n      0xffffffffffffffffffffffffffffffffffffffff\n      and\n      0xffffffffffffffffffffffffffffffffffffffff\n      and\n      dup2\n      mstore\n      0x20\n      add\n      swap1\n      dup2\n      mstore\n      0x20\n      add\n      0x00\n      keccak256\n      0x00\n      swap1\n      sload\n      swap1\n      0x0100\n      exp\n      swap1\n      div\n      0xff\n      and\n        /* \"contracts/MinimalTokenExercise.sol\":828:878  if (hasClaimed[msg.sender]) revert TokensClaimed() */\n      iszero\n      tag_53\n      jumpi\n        /* \"contracts/MinimalTokenExercise.sol\":863:878  TokensClaimed() */\n      mload(0x40)\n      0x0b1327a600000000000000000000000000000000000000000000000000000000\n      dup2\n      mstore\n      0x04\n      add\n      mload(0x40)\n      dup1\n      swap2\n      sub\n      swap1\n      revert\n        /* \"contracts/MinimalTokenExercise.sol\":828:878  if (hasClaimed[msg.sender]) revert TokensClaimed() */\n    tag_53:\n        /* \"contracts/MinimalTokenExercise.sol\":913:924  claimAmount */\n      sload(0x04)\n        /* \"contracts/MinimalTokenExercise.sol\":889:897  balances */\n      0x00\n        /* \"contracts/MinimalTokenExercise.sol\":889:909  balances[msg.sender] */\n      dup1\n        /* \"contracts/MinimalTokenExercise.sol\":898:908  msg.sender */\n      caller\n        /* \"contracts/MinimalTokenExercise.sol\":889:909  balances[msg.sender] */\n      0xffffffffffffffffffffffffffffffffffffffff\n      and\n      0xffffffffffffffffffffffffffffffffffffffff\n      and\n      dup2\n      mstore\n      0x20\n      add\n      swap1\n      dup2\n      mstore\n      0x20\n      add\n      0x00\n      keccak256\n      0x00\n        /* \"contracts/MinimalTokenExercise.sol\":889:924  balances[msg.sender] += claimAmount */\n      dup3\n      dup3\n      sload\n      tag_54\n      swap2\n      swap1\n      tag_48\n      jump\t// in\n    tag_54:\n      swap3\n      pop\n      pop\n      dup2\n      swap1\n      sstore\n      pop\n        /* \"contracts/MinimalTokenExercise.sol\":950:961  claimAmount */\n      sload(0x04)\n        /* \"contracts/MinimalTokenExercise.sol\":934:946  totalClaimed */\n      0x03\n      0x00\n        /* \"contracts/MinimalTokenExercise.sol\":934:961  totalClaimed += claimAmount */\n      dup3\n      dup3\n      sload\n      tag_55\n      swap2\n      swap1\n      tag_48\n      jump\t// in\n    tag_55:\n      swap3\n      pop\n      pop\n      dup2\n      swap1\n      sstore\n      pop\n        /* \"contracts/MinimalTokenExercise.sol\":996:1000  true */\n      0x01\n        /* \"contracts/MinimalTokenExercise.sol\":971:981  hasClaimed */\n      dup1\n        /* \"contracts/MinimalTokenExercise.sol\":971:993  hasClaimed[msg.sender] */\n      0x00\n        /* \"contracts/MinimalTokenExercise.sol\":982:992  msg.sender */\n      caller\n        /* \"contracts/MinimalTokenExercise.sol\":971:993  hasClaimed[msg.sender] */\n      0xffffffffffffffffffffffffffffffffffffffff\n      and\n      0xffffffffffffffffffffffffffffffffffffffff\n      and\n      dup2\n      mstore\n      0x20\n      add\n      swap1\n      dup2\n      mstore\n      0x20\n      add\n      0x00\n      keccak256\n      0x00\n        /* \"contracts/MinimalTokenExercise.sol\":971:1000  hasClaimed[msg.sender] = true */\n      0x0100\n      exp\n      dup2\n      sload\n      dup2\n      0xff\n      mul\n      not\n      and\n      swap1\n      dup4\n      iszero\n      iszero\n      mul\n      or\n      swap1\n      sstore\n      pop\n        /* \"contracts/MinimalTokenExercise.sol\":729:1007  function claim() public {... */\n      jump\t// out\n        /* \"contracts/MinimalTokenExercise.sol\":246:288  mapping(address => bool) public hasClaimed */\n    tag_28:\n      mstore(0x20, 0x01)\n      dup1\n      0x00\n      mstore\n      keccak256(0x00, 0x40)\n      0x00\n      swap2\n      pop\n      sload\n      swap1\n      0x0100\n      exp\n      swap1\n      div\n      0xff\n      and\n      dup2\n      jump\t// out\n        /* \"contracts/MinimalTokenExercise.sol\":360:386  uint256 public claimAmount */\n    tag_32:\n      sload(0x04)\n      dup2\n      jump\t// out\n        /* \"contracts/MinimalTokenExercise.sol\":327:354  uint256 public totalClaimed */\n    tag_35:\n      sload(0x03)\n      dup2\n      jump\t// out\n        /* \"#utility.yul\":7:84   */\n    tag_56:\n        /* \"#utility.yul\":44:51   */\n      0x00\n        /* \"#utility.yul\":73:78   */\n      dup2\n        /* \"#utility.yul\":62:78   */\n      swap1\n      pop\n        /* \"#utility.yul\":7:84   */\n      swap2\n      swap1\n      pop\n      jump\t// out\n        /* \"#utility.yul\":90:208   */\n    tag_57:\n        /* \"#utility.yul\":177:201   */\n      tag_77\n        /* \"#utility.yul\":195:200   */\n      dup2\n        /* \"#utility.yul\":177:201   */\n      tag_56\n      jump\t// in\n    tag_77:\n        /* \"#utility.yul\":172:175   */\n      dup3\n        /* \"#utility.yul\":165:202   */\n      mstore\n        /* \"#utility.yul\":90:208   */\n      pop\n      pop\n      jump\t// out\n        /* \"#utility.yul\":214:436   */\n    tag_14:\n        /* \"#utility.yul\":307:311   */\n      0x00\n        /* \"#utility.yul\":345:347   */\n      0x20\n        /* \"#utility.yul\":334:343   */\n      dup3\n        /* \"#utility.yul\":330:348   */\n      add\n        /* \"#utility.yul\":322:348   */\n      swap1\n      pop\n        /* \"#utility.yul\":358:429   */\n      tag_79\n        /* \"#utility.yul\":426:427   */\n      0x00\n        /* \"#utility.yul\":415:424   */\n      dup4\n        /* \"#utility.yul\":411:428   */\n      add\n        /* \"#utility.yul\":402:408   */\n      dup5\n        /* \"#utility.yul\":358:429   */\n      tag_57\n      jump\t// in\n    tag_79:\n        /* \"#utility.yul\":214:436   */\n      swap3\n      swap2\n      pop\n      pop\n      jump\t// out\n        /* \"#utility.yul\":523:640   */\n    tag_59:\n        /* \"#utility.yul\":632:633   */\n      0x00\n        /* \"#utility.yul\":629:630   */\n      dup1\n        /* \"#utility.yul\":622:634   */\n      revert\n        /* \"#utility.yul\":769:895   */\n    tag_61:\n        /* \"#utility.yul\":806:813   */\n      0x00\n        /* \"#utility.yul\":846:888   */\n      0xffffffffffffffffffffffffffffffffffffffff\n        /* \"#utility.yul\":839:844   */\n      dup3\n        /* \"#utility.yul\":835:889   */\n      and\n        /* \"#utility.yul\":824:889   */\n      swap1\n      pop\n        /* \"#utility.yul\":769:895   */\n      swap2\n      swap1\n      pop\n      jump\t// out\n        /* \"#utility.yul\":901:997   */\n    tag_62:\n        /* \"#utility.yul\":938:945   */\n      0x00\n        /* \"#utility.yul\":967:991   */\n      tag_85\n        /* \"#utility.yul\":985:990   */\n      dup3\n        /* \"#utility.yul\":967:991   */\n      tag_61\n      jump\t// in\n    tag_85:\n        /* \"#utility.yul\":956:991   */\n      swap1\n      pop\n        /* \"#utility.yul\":901:997   */\n      swap2\n      swap1\n      pop\n      jump\t// out\n        /* \"#utility.yul\":1003:1125   */\n    tag_63:\n        /* \"#utility.yul\":1076:1100   */\n      tag_87\n        /* \"#utility.yul\":1094:1099   */\n      dup2\n        /* \"#utility.yul\":1076:1100   */\n      tag_62\n      jump\t// in\n    tag_87:\n        /* \"#utility.yul\":1069:1074   */\n      dup2\n        /* \"#utility.yul\":1066:1101   */\n      eq\n        /* \"#utility.yul\":1056:1119   */\n      tag_88\n      jumpi\n        /* \"#utility.yul\":1115:1116   */\n      0x00\n        /* \"#utility.yul\":1112:1113   */\n      dup1\n        /* \"#utility.yul\":1105:1117   */\n      revert\n        /* \"#utility.yul\":1056:1119   */\n    tag_88:\n        /* \"#utility.yul\":1003:1125   */\n      pop\n      jump\t// out\n        /* \"#utility.yul\":1131:1270   */\n    tag_64:\n        /* \"#utility.yul\":1177:1182   */\n      0x00\n        /* \"#utility.yul\":1215:1221   */\n      dup2\n        /* \"#utility.yul\":1202:1222   */\n      calldataload\n        /* \"#utility.yul\":1193:1222   */\n      swap1\n      pop\n        /* \"#utility.yul\":1231:1264   */\n      tag_90\n        /* \"#utility.yul\":1258:1263   */\n      dup2\n        /* \"#utility.yul\":1231:1264   */\n      tag_63\n      jump\t// in\n    tag_90:\n        /* \"#utility.yul\":1131:1270   */\n      swap3\n      swap2\n      pop\n      pop\n      jump\t// out\n        /* \"#utility.yul\":1276:1605   */\n    tag_17:\n        /* \"#utility.yul\":1335:1341   */\n      0x00\n        /* \"#utility.yul\":1384:1386   */\n      0x20\n        /* \"#utility.yul\":1372:1381   */\n      dup3\n        /* \"#utility.yul\":1363:1370   */\n      dup5\n        /* \"#utility.yul\":1359:1382   */\n      sub\n        /* \"#utility.yul\":1355:1387   */\n      slt\n        /* \"#utility.yul\":1352:1471   */\n      iszero\n      tag_92\n      jumpi\n        /* \"#utility.yul\":1390:1469   */\n      tag_93\n      tag_59\n      jump\t// in\n    tag_93:\n        /* \"#utility.yul\":1352:1471   */\n    tag_92:\n        /* \"#utility.yul\":1510:1511   */\n      0x00\n        /* \"#utility.yul\":1535:1588   */\n      tag_94\n        /* \"#utility.yul\":1580:1587   */\n      dup5\n        /* \"#utility.yul\":1571:1577   */\n      dup3\n        /* \"#utility.yul\":1560:1569   */\n      dup6\n        /* \"#utility.yul\":1556:1578   */\n      add\n        /* \"#utility.yul\":1535:1588   */\n      tag_64\n      jump\t// in\n    tag_94:\n        /* \"#utility.yul\":1525:1588   */\n      swap2\n      pop\n        /* \"#utility.yul\":1481:1598   */\n      pop\n        /* \"#utility.yul\":1276:1605   */\n      swap3\n      swap2\n      pop\n      pop\n      jump\t// out\n        /* \"#utility.yul\":1611:1733   */\n    tag_65:\n        /* \"#utility.yul\":1684:1708   */\n      tag_96\n        /* \"#utility.yul\":1702:1707   */\n      dup2\n        /* \"#utility.yul\":1684:1708   */\n      tag_56\n      jump\t// in\n    tag_96:\n        /* \"#utility.yul\":1677:1682   */\n      dup2\n        /* \"#utility.yul\":1674:1709   */\n      eq\n        /* \"#utility.yul\":1664:1727   */\n      tag_97\n      jumpi\n        /* \"#utility.yul\":1723:1724   */\n      0x00\n        /* \"#utility.yul\":1720:1721   */\n      dup1\n        /* \"#utility.yul\":1713:1725   */\n      revert\n        /* \"#utility.yul\":1664:1727   */\n    tag_97:\n        /* \"#utility.yul\":1611:1733   */\n      pop\n      jump\t// out\n        /* \"#utility.yul\":1739:1878   */\n    tag_66:\n        /* \"#utility.yul\":1785:1790   */\n      0x00\n        /* \"#utility.yul\":1823:1829   */\n      dup2\n        /* \"#utility.yul\":1810:1830   */\n      calldataload\n        /* \"#utility.yul\":1801:1830   */\n      swap1\n      pop\n        /* \"#utility.yul\":1839:1872   */\n      tag_99\n        /* \"#utility.yul\":1866:1871   */\n      dup2\n        /* \"#utility.yul\":1839:1872   */\n      tag_65\n      jump\t// in\n    tag_99:\n        /* \"#utility.yul\":1739:1878   */\n      swap3\n      swap2\n      pop\n      pop\n      jump\t// out\n        /* \"#utility.yul\":1884:2358   */\n    tag_22:\n        /* \"#utility.yul\":1952:1958   */\n      0x00\n        /* \"#utility.yul\":1960:1966   */\n      dup1\n        /* \"#utility.yul\":2009:2011   */\n      0x40\n        /* \"#utility.yul\":1997:2006   */\n      dup4\n        /* \"#utility.yul\":1988:1995   */\n      dup6\n        /* \"#utility.yul\":1984:2007   */\n      sub\n        /* \"#utility.yul\":1980:2012   */\n      slt\n        /* \"#utility.yul\":1977:2096   */\n      iszero\n      tag_101\n      jumpi\n        /* \"#utility.yul\":2015:2094   */\n      tag_102\n      tag_59\n      jump\t// in\n    tag_102:\n        /* \"#utility.yul\":1977:2096   */\n    tag_101:\n        /* \"#utility.yul\":2135:2136   */\n      0x00\n        /* \"#utility.yul\":2160:2213   */\n      tag_103\n        /* \"#utility.yul\":2205:2212   */\n      dup6\n        /* \"#utility.yul\":2196:2202   */\n      dup3\n        /* \"#utility.yul\":2185:2194   */\n      dup7\n        /* \"#utility.yul\":2181:2203   */\n      add\n        /* \"#utility.yul\":2160:2213   */\n      tag_64\n      jump\t// in\n    tag_103:\n        /* \"#utility.yul\":2150:2213   */\n      swap3\n      pop\n        /* \"#utility.yul\":2106:2223   */\n      pop\n        /* \"#utility.yul\":2262:2264   */\n      0x20\n        /* \"#utility.yul\":2288:2341   */\n      tag_104\n        /* \"#utility.yul\":2333:2340   */\n      dup6\n        /* \"#utility.yul\":2324:2330   */\n      dup3\n        /* \"#utility.yul\":2313:2322   */\n      dup7\n        /* \"#utility.yul\":2309:2331   */\n      add\n        /* \"#utility.yul\":2288:2341   */\n      tag_66\n      jump\t// in\n    tag_104:\n        /* \"#utility.yul\":2278:2341   */\n      swap2\n      pop\n        /* \"#utility.yul\":2233:2351   */\n      pop\n        /* \"#utility.yul\":1884:2358   */\n      swap3\n      pop\n      swap3\n      swap1\n      pop\n      jump\t// out\n        /* \"#utility.yul\":2364:2454   */\n    tag_67:\n        /* \"#utility.yul\":2398:2405   */\n      0x00\n        /* \"#utility.yul\":2441:2446   */\n      dup2\n        /* \"#utility.yul\":2434:2447   */\n      iszero\n        /* \"#utility.yul\":2427:2448   */\n      iszero\n        /* \"#utility.yul\":2416:2448   */\n      swap1\n      pop\n        /* \"#utility.yul\":2364:2454   */\n      swap2\n      swap1\n      pop\n      jump\t// out\n        /* \"#utility.yul\":2460:2569   */\n    tag_68:\n        /* \"#utility.yul\":2541:2562   */\n      tag_107\n        /* \"#utility.yul\":2556:2561   */\n      dup2\n        /* \"#utility.yul\":2541:2562   */\n      tag_67\n      jump\t// in\n    tag_107:\n        /* \"#utility.yul\":2536:2539   */\n      dup3\n        /* \"#utility.yul\":2529:2563   */\n      mstore\n        /* \"#utility.yul\":2460:2569   */\n      pop\n      pop\n      jump\t// out\n        /* \"#utility.yul\":2575:2785   */\n    tag_30:\n        /* \"#utility.yul\":2662:2666   */\n      0x00\n        /* \"#utility.yul\":2700:2702   */\n      0x20\n        /* \"#utility.yul\":2689:2698   */\n      dup3\n        /* \"#utility.yul\":2685:2703   */\n      add\n        /* \"#utility.yul\":2677:2703   */\n      swap1\n      pop\n        /* \"#utility.yul\":2713:2778   */\n      tag_109\n        /* \"#utility.yul\":2775:2776   */\n      0x00\n        /* \"#utility.yul\":2764:2773   */\n      dup4\n        /* \"#utility.yul\":2760:2777   */\n      add\n        /* \"#utility.yul\":2751:2757   */\n      dup5\n        /* \"#utility.yul\":2713:2778   */\n      tag_68\n      jump\t// in\n    tag_109:\n        /* \"#utility.yul\":2575:2785   */\n      swap3\n      swap2\n      pop\n      pop\n      jump\t// out\n        /* \"#utility.yul\":2791:2909   */\n    tag_69:\n        /* \"#utility.yul\":2878:2902   */\n      tag_111\n        /* \"#utility.yul\":2896:2901   */\n      dup2\n        /* \"#utility.yul\":2878:2902   */\n      tag_62\n      jump\t// in\n    tag_111:\n        /* \"#utility.yul\":2873:2876   */\n      dup3\n        /* \"#utility.yul\":2866:2903   */\n      mstore\n        /* \"#utility.yul\":2791:2909   */\n      pop\n      pop\n      jump\t// out\n        /* \"#utility.yul\":2915:3137   */\n    tag_40:\n        /* \"#utility.yul\":3008:3012   */\n      0x00\n        /* \"#utility.yul\":3046:3048   */\n      0x20\n        /* \"#utility.yul\":3035:3044   */\n      dup3\n        /* \"#utility.yul\":3031:3049   */\n      add\n        /* \"#utility.yul\":3023:3049   */\n      swap1\n      pop\n        /* \"#utility.yul\":3059:3130   */\n      tag_113\n        /* \"#utility.yul\":3127:3128   */\n      0x00\n        /* \"#utility.yul\":3116:3125   */\n      dup4\n        /* \"#utility.yul\":3112:3129   */\n      add\n        /* \"#utility.yul\":3103:3109   */\n      dup5\n        /* \"#utility.yul\":3059:3130   */\n      tag_69\n      jump\t// in\n    tag_113:\n        /* \"#utility.yul\":2915:3137   */\n      swap3\n      swap2\n      pop\n      pop\n      jump\t// out\n        /* \"#utility.yul\":3143:3323   */\n    tag_70:\n        /* \"#utility.yul\":3191:3268   */\n      0x4e487b7100000000000000000000000000000000000000000000000000000000\n        /* \"#utility.yul\":3188:3189   */\n      0x00\n        /* \"#utility.yul\":3181:3269   */\n      mstore\n        /* \"#utility.yul\":3288:3292   */\n      0x11\n        /* \"#utility.yul\":3285:3286   */\n      0x04\n        /* \"#utility.yul\":3278:3293   */\n      mstore\n        /* \"#utility.yul\":3312:3316   */\n      0x24\n        /* \"#utility.yul\":3309:3310   */\n      0x00\n        /* \"#utility.yul\":3302:3317   */\n      revert\n        /* \"#utility.yul\":3329:3523   */\n    tag_46:\n        /* \"#utility.yul\":3369:3373   */\n      0x00\n        /* \"#utility.yul\":3389:3409   */\n      tag_116\n        /* \"#utility.yul\":3407:3408   */\n      dup3\n        /* \"#utility.yul\":3389:3409   */\n      tag_56\n      jump\t// in\n    tag_116:\n        /* \"#utility.yul\":3384:3409   */\n      swap2\n      pop\n        /* \"#utility.yul\":3423:3443   */\n      tag_117\n        /* \"#utility.yul\":3441:3442   */\n      dup4\n        /* \"#utility.yul\":3423:3443   */\n      tag_56\n      jump\t// in\n    tag_117:\n        /* \"#utility.yul\":3418:3443   */\n      swap3\n      pop\n        /* \"#utility.yul\":3467:3468   */\n      dup3\n        /* \"#utility.yul\":3464:3465   */\n      dup3\n        /* \"#utility.yul\":3460:3469   */\n      sub\n        /* \"#utility.yul\":3452:3469   */\n      swap1\n      pop\n        /* \"#utility.yul\":3491:3492   */\n      dup2\n        /* \"#utility.yul\":3485:3489   */\n      dup2\n        /* \"#utility.yul\":3482:3493   */\n      gt\n        /* \"#utility.yul\":3479:3516   */\n      iszero\n      tag_118\n      jumpi\n        /* \"#utility.yul\":3496:3514   */\n      tag_119\n      tag_70\n      jump\t// in\n    tag_119:\n        /* \"#utility.yul\":3479:3516   */\n    tag_118:\n        /* \"#utility.yul\":3329:3523   */\n      swap3\n      swap2\n      pop\n      pop\n      jump\t// out\n        /* \"#utility.yul\":3529:3720   */\n    tag_48:\n        /* \"#utility.yul\":3569:3572   */\n      0x00\n        /* \"#utility.yul\":3588:3608   */\n      tag_121\n        /* \"#utility.yul\":3606:3607   */\n      dup3\n        /* \"#utility.yul\":3588:3608   */\n      tag_56\n      jump\t// in\n    tag_121:\n        /* \"#utility.yul\":3583:3608   */\n      swap2\n      pop\n        /* \"#utility.yul\":3622:3642   */\n      tag_122\n        /* \"#utility.yul\":3640:3641   */\n      dup4\n        /* \"#utility.yul\":3622:3642   */\n      tag_56\n      jump\t// in\n    tag_122:\n        /* \"#utility.yul\":3617:3642   */\n      swap3\n      pop\n        /* \"#utility.yul\":3665:3666   */\n      dup3\n        /* \"#utility.yul\":3662:3663   */\n      dup3\n        /* \"#utility.yul\":3658:3667   */\n      add\n        /* \"#utility.yul\":3651:3667   */\n      swap1\n      pop\n        /* \"#utility.yul\":3686:3689   */\n      dup1\n        /* \"#utility.yul\":3683:3684   */\n      dup3\n        /* \"#utility.yul\":3680:3690   */\n      gt\n        /* \"#utility.yul\":3677:3713   */\n      iszero\n      tag_123\n      jumpi\n        /* \"#utility.yul\":3693:3711   */\n      tag_124\n      tag_70\n      jump\t// in\n    tag_124:\n        /* \"#utility.yul\":3677:3713   */\n    tag_123:\n        /* \"#utility.yul\":3529:3720   */\n      swap3\n      swap2\n      pop\n      pop\n      jump\t// out\n        /* \"#utility.yul\":3726:3895   */\n    tag_71:\n        /* \"#utility.yul\":3810:3821   */\n      0x00\n        /* \"#utility.yul\":3844:3850   */\n      dup3\n        /* \"#utility.yul\":3839:3842   */\n      dup3\n        /* \"#utility.yul\":3832:3851   */\n      mstore\n        /* \"#utility.yul\":3884:3888   */\n      0x20\n        /* \"#utility.yul\":3879:3882   */\n      dup3\n        /* \"#utility.yul\":3875:3889   */\n      add\n        /* \"#utility.yul\":3860:3889   */\n      swap1\n      pop\n        /* \"#utility.yul\":3726:3895   */\n      swap3\n      swap2\n      pop\n      pop\n      jump\t// out\n        /* \"#utility.yul\":3901:4067   */\n    tag_72:\n        /* \"#utility.yul\":4041:4059   */\n      0x416c6c546f6b656e73436c61696d656400000000000000000000000000000000\n        /* \"#utility.yul\":4037:4038   */\n      0x00\n        /* \"#utility.yul\":4029:4035   */\n      dup3\n        /* \"#utility.yul\":4025:4039   */\n      add\n        /* \"#utility.yul\":4018:4060   */\n      mstore\n        /* \"#utility.yul\":3901:4067   */\n      pop\n      jump\t// out\n        /* \"#utility.yul\":4073:4439   */\n    tag_73:\n        /* \"#utility.yul\":4215:4218   */\n      0x00\n        /* \"#utility.yul\":4236:4303   */\n      tag_128\n        /* \"#utility.yul\":4300:4302   */\n      0x10\n        /* \"#utility.yul\":4295:4298   */\n      dup4\n        /* \"#utility.yul\":4236:4303   */\n      tag_71\n      jump\t// in\n    tag_128:\n        /* \"#utility.yul\":4229:4303   */\n      swap2\n      pop\n        /* \"#utility.yul\":4312:4405   */\n      tag_129\n        /* \"#utility.yul\":4401:4404   */\n      dup3\n        /* \"#utility.yul\":4312:4405   */\n      tag_72\n      jump\t// in\n    tag_129:\n        /* \"#utility.yul\":4430:4432   */\n      0x20\n        /* \"#utility.yul\":4425:4428   */\n      dup3\n        /* \"#utility.yul\":4421:4433   */\n      add\n        /* \"#utility.yul\":4414:4433   */\n      swap1\n      pop\n        /* \"#utility.yul\":4073:4439   */\n      swap2\n      swap1\n      pop\n      jump\t// out\n        /* \"#utility.yul\":4445:4864   */\n    tag_52:\n        /* \"#utility.yul\":4611:4615   */\n      0x00\n        /* \"#utility.yul\":4649:4651   */\n      0x20\n        /* \"#utility.yul\":4638:4647   */\n      dup3\n        /* \"#utility.yul\":4634:4652   */\n      add\n        /* \"#utility.yul\":4626:4652   */\n      swap1\n      pop\n        /* \"#utility.yul\":4698:4707   */\n      dup2\n        /* \"#utility.yul\":4692:4696   */\n      dup2\n        /* \"#utility.yul\":4688:4708   */\n      sub\n        /* \"#utility.yul\":4684:4685   */\n      0x00\n        /* \"#utility.yul\":4673:4682   */\n      dup4\n        /* \"#utility.yul\":4669:4686   */\n      add\n        /* \"#utility.yul\":4662:4709   */\n      mstore\n        /* \"#utility.yul\":4726:4857   */\n      tag_131\n        /* \"#utility.yul\":4852:4856   */\n      dup2\n        /* \"#utility.yul\":4726:4857   */\n      tag_73\n      jump\t// in\n    tag_131:\n        /* \"#utility.yul\":4718:4857   */\n      swap1\n      pop\n        /* \"#utility.yul\":4445:4864   */\n      swap2\n      swap1\n      pop\n      jump\t// out\n\n    auxdata: 0xa26469706673582212209e4ccc0ef7d6d88811026d3bac85f44799a378c1878d331b6cd09a65698de8d664736f6c63430008170033\n}\n",
				"bytecode": {
					"linkReferences": {},
					"object": "608060405234801561000f575f80fd5b506305f5e1006002819055506103e86004819055506107de806100315f395ff3fe608060405234801561000f575f80fd5b506004361061007b575f3560e01c80634e71d92d116100595780634e71d92d146100e957806373b2e80e146100f3578063830953ab14610123578063d54ad2a1146101415761007b565b806318160ddd1461007f57806327e235e31461009d578063423f6cef146100cd575b5f80fd5b61008761015f565b6040516100949190610538565b60405180910390f35b6100b760048036038101906100b291906105af565b610165565b6040516100c49190610538565b60405180910390f35b6100e760048036038101906100e29190610604565b610179565b005b6100f161036c565b005b61010d600480360381019061010891906105af565b6104f7565b60405161011a919061065c565b60405180910390f35b61012b610514565b6040516101389190610538565b60405180910390f35b61014961051a565b6040516101569190610538565b60405180910390f35b60025481565b5f602052805f5260405f205f915090505481565b5f73ffffffffffffffffffffffffffffffffffffffff168273ffffffffffffffffffffffffffffffffffffffff16036101e957816040517f6a86d24c0000000000000000000000000000000000000000000000000000000081526004016101e09190610684565b60405180910390fd5b5f805f3373ffffffffffffffffffffffffffffffffffffffff1673ffffffffffffffffffffffffffffffffffffffff1681526020019081526020015f205490508181101561026e57826040517f6a86d24c0000000000000000000000000000000000000000000000000000000081526004016102659190610684565b60405180910390fd5b5f8373ffffffffffffffffffffffffffffffffffffffff1631036102c957826040517f6a86d24c0000000000000000000000000000000000000000000000000000000081526004016102c09190610684565b60405180910390fd5b81816102d591906106ca565b5f803373ffffffffffffffffffffffffffffffffffffffff1673ffffffffffffffffffffffffffffffffffffffff1681526020019081526020015f2081905550815f808573ffffffffffffffffffffffffffffffffffffffff1673ffffffffffffffffffffffffffffffffffffffff1681526020019081526020015f205f82825461036091906106fd565b92505081905550505050565b600254600354106103b2576040517f08c379a00000000000000000000000000000000000000000000000000000000081526004016103a99061078a565b60405180910390fd5b60015f3373ffffffffffffffffffffffffffffffffffffffff1673ffffffffffffffffffffffffffffffffffffffff1681526020019081526020015f205f9054906101000a900460ff1615610433576040517f0b1327a600000000000000000000000000000000000000000000000000000000815260040160405180910390fd5b6004545f803373ffffffffffffffffffffffffffffffffffffffff1673ffffffffffffffffffffffffffffffffffffffff1681526020019081526020015f205f82825461048091906106fd565b9250508190555060045460035f82825461049a91906106fd565b925050819055506001805f3373ffffffffffffffffffffffffffffffffffffffff1673ffffffffffffffffffffffffffffffffffffffff1681526020019081526020015f205f6101000a81548160ff021916908315150217905550565b6001602052805f5260405f205f915054906101000a900460ff1681565b60045481565b60035481565b5f819050919050565b61053281610520565b82525050565b5f60208201905061054b5f830184610529565b92915050565b5f80fd5b5f73ffffffffffffffffffffffffffffffffffffffff82169050919050565b5f61057e82610555565b9050919050565b61058e81610574565b8114610598575f80fd5b50565b5f813590506105a981610585565b92915050565b5f602082840312156105c4576105c3610551565b5b5f6105d18482850161059b565b91505092915050565b6105e381610520565b81146105ed575f80fd5b50565b5f813590506105fe816105da565b92915050565b5f806040838503121561061a57610619610551565b5b5f6106278582860161059b565b9250506020610638858286016105f0565b9150509250929050565b5f8115159050919050565b61065681610642565b82525050565b5f60208201905061066f5f83018461064d565b92915050565b61067e81610574565b82525050565b5f6020820190506106975f830184610675565b92915050565b7f4e487b71000000000000000000000000000000000000000000000000000000005f52601160045260245ffd5b5f6106d482610520565b91506106df83610520565b92508282039050818111156106f7576106f661069d565b5b92915050565b5f61070782610520565b915061071283610520565b925082820190508082111561072a5761072961069d565b5b92915050565b5f82825260208201905092915050565b7f416c6c546f6b656e73436c61696d6564000000000000000000000000000000005f82015250565b5f610774601083610730565b915061077f82610740565b602082019050919050565b5f6020820190508181035f8301526107a181610768565b905091905056fea26469706673582212209e4ccc0ef7d6d88811026d3bac85f44799a378c1878d331b6cd09a65698de8d664736f6c63430008170033",
					"opcodes": "PUSH1 0x80 PUSH1 0x40 MSTORE CALLVALUE DUP1 ISZERO PUSH2 0xF JUMPI PUSH0 DUP1 REVERT JUMPDEST POP PUSH4 0x5F5E100 PUSH1 0x2 DUP2 SWAP1 SSTORE POP PUSH2 0x3E8 PUSH1 0x4 DUP2 SWAP1 SSTORE POP PUSH2 0x7DE DUP1 PUSH2 0x31 PUSH0 CODECOPY PUSH0 RETURN INVALID PUSH1 0x80 PUSH1 0x40 MSTORE CALLVALUE DUP1 ISZERO PUSH2 0xF JUMPI PUSH0 DUP1 REVERT JUMPDEST POP PUSH1 0x4 CALLDATASIZE LT PUSH2 0x7B JUMPI PUSH0 CALLDATALOAD PUSH1 0xE0 SHR DUP1 PUSH4 0x4E71D92D GT PUSH2 0x59 JUMPI DUP1 PUSH4 0x4E71D92D EQ PUSH2 0xE9 JUMPI DUP1 PUSH4 0x73B2E80E EQ PUSH2 0xF3 JUMPI DUP1 PUSH4 0x830953AB EQ PUSH2 0x123 JUMPI DUP1 PUSH4 0xD54AD2A1 EQ PUSH2 0x141 JUMPI PUSH2 0x7B JUMP JUMPDEST DUP1 PUSH4 0x18160DDD EQ PUSH2 0x7F JUMPI DUP1 PUSH4 0x27E235E3 EQ PUSH2 0x9D JUMPI DUP1 PUSH4 0x423F6CEF EQ PUSH2 0xCD JUMPI JUMPDEST PUSH0 DUP1 REVERT JUMPDEST PUSH2 0x87 PUSH2 0x15F JUMP JUMPDEST PUSH1 0x40 MLOAD PUSH2 0x94 SWAP2 SWAP1 PUSH2 0x538 JUMP JUMPDEST PUSH1 0x40 MLOAD DUP1 SWAP2 SUB SWAP1 RETURN JUMPDEST PUSH2 0xB7 PUSH1 0x4 DUP1 CALLDATASIZE SUB DUP2 ADD SWAP1 PUSH2 0xB2 SWAP2 SWAP1 PUSH2 0x5AF JUMP JUMPDEST PUSH2 0x165 JUMP JUMPDEST PUSH1 0x40 MLOAD PUSH2 0xC4 SWAP2 SWAP1 PUSH2 0x538 JUMP JUMPDEST PUSH1 0x40 MLOAD DUP1 SWAP2 SUB SWAP1 RETURN JUMPDEST PUSH2 0xE7 PUSH1 0x4 DUP1 CALLDATASIZE SUB DUP2 ADD SWAP1 PUSH2 0xE2 SWAP2 SWAP1 PUSH2 0x604 JUMP JUMPDEST PUSH2 0x179 JUMP JUMPDEST STOP JUMPDEST PUSH2 0xF1 PUSH2 0x36C JUMP JUMPDEST STOP JUMPDEST PUSH2 0x10D PUSH1 0x4 DUP1 CALLDATASIZE SUB DUP2 ADD SWAP1 PUSH2 0x108 SWAP2 SWAP1 PUSH2 0x5AF JUMP JUMPDEST PUSH2 0x4F7 JUMP JUMPDEST PUSH1 0x40 MLOAD PUSH2 0x11A SWAP2 SWAP1 PUSH2 0x65C JUMP JUMPDEST PUSH1 0x40 MLOAD DUP1 SWAP2 SUB SWAP1 RETURN JUMPDEST PUSH2 0x12B PUSH2 0x514 JUMP JUMPDEST PUSH1 0x40 MLOAD PUSH2 0x138 SWAP2 SWAP1 PUSH2 0x538 JUMP JUMPDEST PUSH1 0x40 MLOAD DUP1 SWAP2 SUB SWAP1 RETURN JUMPDEST PUSH2 0x149 PUSH2 0x51A JUMP JUMPDEST PUSH1 0x40 MLOAD PUSH2 0x156 SWAP2 SWAP1 PUSH2 0x538 JUMP JUMPDEST PUSH1 0x40 MLOAD DUP1 SWAP2 SUB SWAP1 RETURN JUMPDEST PUSH1 0x2 SLOAD DUP2 JUMP JUMPDEST PUSH0 PUSH1 0x20 MSTORE DUP1 PUSH0 MSTORE PUSH1 0x40 PUSH0 KECCAK256 PUSH0 SWAP2 POP SWAP1 POP SLOAD DUP2 JUMP JUMPDEST PUSH0 PUSH20 0xFFFFFFFFFFFFFFFFFFFFFFFFFFFFFFFFFFFFFFFF AND DUP3 PUSH20 0xFFFFFFFFFFFFFFFFFFFFFFFFFFFFFFFFFFFFFFFF AND SUB PUSH2 0x1E9 JUMPI DUP2 PUSH1 0x40 MLOAD PUSH32 0x6A86D24C00000000000000000000000000000000000000000000000000000000 DUP2 MSTORE PUSH1 0x4 ADD PUSH2 0x1E0 SWAP2 SWAP1 PUSH2 0x684 JUMP JUMPDEST PUSH1 0x40 MLOAD DUP1 SWAP2 SUB SWAP1 REVERT JUMPDEST PUSH0 DUP1 PUSH0 CALLER PUSH20 0xFFFFFFFFFFFFFFFFFFFFFFFFFFFFFFFFFFFFFFFF AND PUSH20 0xFFFFFFFFFFFFFFFFFFFFFFFFFFFFFFFFFFFFFFFF AND DUP2 MSTORE PUSH1 0x20 ADD SWAP1 DUP2 MSTORE PUSH1 0x20 ADD PUSH0 KECCAK256 SLOAD SWAP1 POP DUP2 DUP2 LT ISZERO PUSH2 0x26E JUMPI DUP3 PUSH1 0x40 MLOAD PUSH32 0x6A86D24C00000000000000000000000000000000000000000000000000000000 DUP2 MSTORE PUSH1 0x4 ADD PUSH2 0x265 SWAP2 SWAP1 PUSH2 0x684 JUMP JUMPDEST PUSH1 0x40 MLOAD DUP1 SWAP2 SUB SWAP1 REVERT JUMPDEST PUSH0 DUP4 PUSH20 0xFFFFFFFFFFFFFFFFFFFFFFFFFFFFFFFFFFFFFFFF AND BALANCE SUB PUSH2 0x2C9 JUMPI DUP3 PUSH1 0x40 MLOAD PUSH32 0x6A86D24C00000000000000000000000000000000000000000000000000000000 DUP2 MSTORE PUSH1 0x4 ADD PUSH2 0x2C0 SWAP2 SWAP1 PUSH2 0x684 JUMP JUMPDEST PUSH1 0x40 MLOAD DUP1 SWAP2 SUB SWAP1 REVERT JUMPDEST DUP2 DUP2 PUSH2 0x2D5 SWAP2 SWAP1 PUSH2 0x6CA JUMP JUMPDEST PUSH0 DUP1 CALLER PUSH20 0xFFFFFFFFFFFFFFFFFFFFFFFFFFFFFFFFFFFFFFFF AND PUSH20 0xFFFFFFFFFFFFFFFFFFFFFFFFFFFFFFFFFFFFFFFF AND DUP2 MSTORE PUSH1 0x20 ADD SWAP1 DUP2 MSTORE PUSH1 0x20 ADD PUSH0 KECCAK256 DUP2 SWAP1 SSTORE POP DUP2 PUSH0 DUP1 DUP6 PUSH20 0xFFFFFFFFFFFFFFFFFFFFFFFFFFFFFFFFFFFFFFFF AND PUSH20 0xFFFFFFFFFFFFFFFFFFFFFFFFFFFFFFFFFFFFFFFF AND DUP2 MSTORE PUSH1 0x20 ADD SWAP1 DUP2 MSTORE PUSH1 0x20 ADD PUSH0 KECCAK256 PUSH0 DUP3 DUP3 SLOAD PUSH2 0x360 SWAP2 SWAP1 PUSH2 0x6FD JUMP JUMPDEST SWAP3 POP POP DUP2 SWAP1 SSTORE POP POP POP POP JUMP JUMPDEST PUSH1 0x2 SLOAD PUSH1 0x3 SLOAD LT PUSH2 0x3B2 JUMPI PUSH1 0x40 MLOAD PUSH32 0x8C379A000000000000000000000000000000000000000000000000000000000 DUP2 MSTORE PUSH1 0x4 ADD PUSH2 0x3A9 SWAP1 PUSH2 0x78A JUMP JUMPDEST PUSH1 0x40 MLOAD DUP1 SWAP2 SUB SWAP1 REVERT JUMPDEST PUSH1 0x1 PUSH0 CALLER PUSH20 0xFFFFFFFFFFFFFFFFFFFFFFFFFFFFFFFFFFFFFFFF AND PUSH20 0xFFFFFFFFFFFFFFFFFFFFFFFFFFFFFFFFFFFFFFFF AND DUP2 MSTORE PUSH1 0x20 ADD SWAP1 DUP2 MSTORE PUSH1 0x20 ADD PUSH0 KECCAK256 PUSH0 SWAP1 SLOAD SWAP1 PUSH2 0x100 EXP SWAP1 DIV PUSH1 0xFF AND ISZERO PUSH2 0x433 JUMPI PUSH1 0x40 MLOAD PUSH32 0xB1327A600000000000000000000000000000000000000000000000000000000 DUP2 MSTORE PUSH1 0x4 ADD PUSH1 0x40 MLOAD DUP1 SWAP2 SUB SWAP1 REVERT JUMPDEST PUSH1 0x4 SLOAD PUSH0 DUP1 CALLER PUSH20 0xFFFFFFFFFFFFFFFFFFFFFFFFFFFFFFFFFFFFFFFF AND PUSH20 0xFFFFFFFFFFFFFFFFFFFFFFFFFFFFFFFFFFFFFFFF AND DUP2 MSTORE PUSH1 0x20 ADD SWAP1 DUP2 MSTORE PUSH1 0x20 ADD PUSH0 KECCAK256 PUSH0 DUP3 DUP3 SLOAD PUSH2 0x480 SWAP2 SWAP1 PUSH2 0x6FD JUMP JUMPDEST SWAP3 POP POP DUP2 SWAP1 SSTORE POP PUSH1 0x4 SLOAD PUSH1 0x3 PUSH0 DUP3 DUP3 SLOAD PUSH2 0x49A SWAP2 SWAP1 PUSH2 0x6FD JUMP JUMPDEST SWAP3 POP POP DUP2 SWAP1 SSTORE POP PUSH1 0x1 DUP1 PUSH0 CALLER PUSH20 0xFFFFFFFFFFFFFFFFFFFFFFFFFFFFFFFFFFFFFFFF AND PUSH20 0xFFFFFFFFFFFFFFFFFFFFFFFFFFFFFFFFFFFFFFFF AND DUP2 MSTORE PUSH1 0x20 ADD SWAP1 DUP2 MSTORE PUSH1 0x20 ADD PUSH0 KECCAK256 PUSH0 PUSH2 0x100 EXP DUP2 SLOAD DUP2 PUSH1 0xFF MUL NOT AND SWAP1 DUP4 ISZERO ISZERO MUL OR SWAP1 SSTORE POP JUMP JUMPDEST PUSH1 0x1 PUSH1 0x20 MSTORE DUP1 PUSH0 MSTORE PUSH1 0x40 PUSH0 KECCAK256 PUSH0 SWAP2 POP SLOAD SWAP1 PUSH2 0x100 EXP SWAP1 DIV PUSH1 0xFF AND DUP2 JUMP JUMPDEST PUSH1 0x4 SLOAD DUP2 JUMP JUMPDEST PUSH1 0x3 SLOAD DUP2 JUMP JUMPDEST PUSH0 DUP2 SWAP1 POP SWAP2 SWAP1 POP JUMP JUMPDEST PUSH2 0x532 DUP2 PUSH2 0x520 JUMP JUMPDEST DUP3 MSTORE POP POP JUMP JUMPDEST PUSH0 PUSH1 0x20 DUP3 ADD SWAP1 POP PUSH2 0x54B PUSH0 DUP4 ADD DUP5 PUSH2 0x529 JUMP JUMPDEST SWAP3 SWAP2 POP POP JUMP JUMPDEST PUSH0 DUP1 REVERT JUMPDEST PUSH0 PUSH20 0xFFFFFFFFFFFFFFFFFFFFFFFFFFFFFFFFFFFFFFFF DUP3 AND SWAP1 POP SWAP2 SWAP1 POP JUMP JUMPDEST PUSH0 PUSH2 0x57E DUP3 PUSH2 0x555 JUMP JUMPDEST SWAP1 POP SWAP2 SWAP1 POP JUMP JUMPDEST PUSH2 0x58E DUP2 PUSH2 0x574 JUMP JUMPDEST DUP2 EQ PUSH2 0x598 JUMPI PUSH0 DUP1 REVERT JUMPDEST POP JUMP JUMPDEST PUSH0 DUP2 CALLDATALOAD SWAP1 POP PUSH2 0x5A9 DUP2 PUSH2 0x585 JUMP JUMPDEST SWAP3 SWAP2 POP POP JUMP JUMPDEST PUSH0 PUSH1 0x20 DUP3 DUP5 SUB SLT ISZERO PUSH2 0x5C4 JUMPI PUSH2 0x5C3 PUSH2 0x551 JUMP JUMPDEST JUMPDEST PUSH0 PUSH2 0x5D1 DUP5 DUP3 DUP6 ADD PUSH2 0x59B JUMP JUMPDEST SWAP2 POP POP SWAP3 SWAP2 POP POP JUMP JUMPDEST PUSH2 0x5E3 DUP2 PUSH2 0x520 JUMP JUMPDEST DUP2 EQ PUSH2 0x5ED JUMPI PUSH0 DUP1 REVERT JUMPDEST POP JUMP JUMPDEST PUSH0 DUP2 CALLDATALOAD SWAP1 POP PUSH2 0x5FE DUP2 PUSH2 0x5DA JUMP JUMPDEST SWAP3 SWAP2 POP POP JUMP JUMPDEST PUSH0 DUP1 PUSH1 0x40 DUP4 DUP6 SUB SLT ISZERO PUSH2 0x61A JUMPI PUSH2 0x619 PUSH2 0x551 JUMP JUMPDEST JUMPDEST PUSH0 PUSH2 0x627 DUP6 DUP3 DUP7 ADD PUSH2 0x59B JUMP JUMPDEST SWAP3 POP POP PUSH1 0x20 PUSH2 0x638 DUP6 DUP3 DUP7 ADD PUSH2 0x5F0 JUMP JUMPDEST SWAP2 POP POP SWAP3 POP SWAP3 SWAP1 POP JUMP JUMPDEST PUSH0 DUP2 ISZERO ISZERO SWAP1 POP SWAP2 SWAP1 POP JUMP JUMPDEST PUSH2 0x656 DUP2 PUSH2 0x642 JUMP JUMPDEST DUP3 MSTORE POP POP JUMP JUMPDEST PUSH0 PUSH1 0x20 DUP3 ADD SWAP1 POP PUSH2 0x66F PUSH0 DUP4 ADD DUP5 PUSH2 0x64D JUMP JUMPDEST SWAP3 SWAP2 POP POP JUMP JUMPDEST PUSH2 0x67E DUP2 PUSH2 0x574 JUMP JUMPDEST DUP3 MSTORE POP POP JUMP JUMPDEST PUSH0 PUSH1 0x20 DUP3 ADD SWAP1 POP PUSH2 0x697 PUSH0 DUP4 ADD DUP5 PUSH2 0x675 JUMP JUMPDEST SWAP3 SWAP2 POP POP JUMP JUMPDEST PUSH32 0x4E487B7100000000000000000000000000000000000000000000000000000000 PUSH0 MSTORE PUSH1 0x11 PUSH1 0x4 MSTORE PUSH1 0x24 PUSH0 REVERT JUMPDEST PUSH0 PUSH2 0x6D4 DUP3 PUSH2 0x520 JUMP JUMPDEST SWAP2 POP PUSH2 0x6DF DUP4 PUSH2 0x520 JUMP JUMPDEST SWAP3 POP DUP3 DUP3 SUB SWAP1 POP DUP2 DUP2 GT ISZERO PUSH2 0x6F7 JUMPI PUSH2 0x6F6 PUSH2 0x69D JUMP JUMPDEST JUMPDEST SWAP3 SWAP2 POP POP JUMP JUMPDEST PUSH0 PUSH2 0x707 DUP3 PUSH2 0x520 JUMP JUMPDEST SWAP2 POP PUSH2 0x712 DUP4 PUSH2 0x520 JUMP JUMPDEST SWAP3 POP DUP3 DUP3 ADD SWAP1 POP DUP1 DUP3 GT ISZERO PUSH2 0x72A JUMPI PUSH2 0x729 PUSH2 0x69D JUMP JUMPDEST JUMPDEST SWAP3 SWAP2 POP POP JUMP JUMPDEST PUSH0 DUP3 DUP3 MSTORE PUSH1 0x20 DUP3 ADD SWAP1 POP SWAP3 SWAP2 POP POP JUMP JUMPDEST PUSH32 0x416C6C546F6B656E73436C61696D656400000000000000000000000000000000 PUSH0 DUP3 ADD MSTORE POP JUMP JUMPDEST PUSH0 PUSH2 0x774 PUSH1 0x10 DUP4 PUSH2 0x730 JUMP JUMPDEST SWAP2 POP PUSH2 0x77F DUP3 PUSH2 0x740 JUMP JUMPDEST PUSH1 0x20 DUP3 ADD SWAP1 POP SWAP2 SWAP1 POP JUMP JUMPDEST PUSH0 PUSH1 0x20 DUP3 ADD SWAP1 POP DUP2 DUP2 SUB PUSH0 DUP4 ADD MSTORE PUSH2 0x7A1 DUP2 PUSH2 0x768 JUMP JUMPDEST SWAP1 POP SWAP2 SWAP1 POP JUMP INVALID LOG2 PUSH5 0x6970667358 0x22 SLT KECCAK256 SWAP15 0x4C 0xCC 0xE 0xF7 0xD6 0xD8 DUP9 GT MUL PUSH14 0x3BAC85F44799A378C1878D331B6C 0xD0 SWAP11 PUSH6 0x698DE8D66473 PUSH16 0x6C634300081700330000000000000000 "
				},
				"gasEstimates": {
					"creation": {
						"codeDepositCost": "402800",
						"executionCost": "44662",
						"totalCost": "447462"
					},
					"external": {
						"balances(address)": "2824",
						"claim()": "infinite",
						"claimAmount()": "2469",
						"hasClaimed(address)": "2855",
						"safeTransfer(address,uint256)": "infinite",
						"totalClaimed()": "2491",
						"totalSupply()": "2426"
					}
				},
				"methodIdentifiers": {
					"balances(address)": "27e235e3",
					"claim()": "4e71d92d",
					"claimAmount()": "830953ab",
					"hasClaimed(address)": "73b2e80e",
					"safeTransfer(address,uint256)": "423f6cef",
					"totalClaimed()": "d54ad2a1",
					"totalSupply()": "18160ddd"
				}
			},
			"storageLayout": {
				"storage": [
					{
						"astId": 5,
						"contract": "contracts/MinimalTokenExercise.sol:UnburnableToken",
						"label": "balances",
						"offset": 0,
						"slot": "0",
						"type": "t_mapping(t_address,t_uint256)"
					},
					{
						"astId": 9,
						"contract": "contracts/MinimalTokenExercise.sol:UnburnableToken",
						"label": "hasClaimed",
						"offset": 0,
						"slot": "1",
						"type": "t_mapping(t_address,t_bool)"
					},
					{
						"astId": 11,
						"contract": "contracts/MinimalTokenExercise.sol:UnburnableToken",
						"label": "totalSupply",
						"offset": 0,
						"slot": "2",
						"type": "t_uint256"
					},
					{
						"astId": 13,
						"contract": "contracts/MinimalTokenExercise.sol:UnburnableToken",
						"label": "totalClaimed",
						"offset": 0,
						"slot": "3",
						"type": "t_uint256"
					},
					{
						"astId": 15,
						"contract": "contracts/MinimalTokenExercise.sol:UnburnableToken",
						"label": "claimAmount",
						"offset": 0,
						"slot": "4",
						"type": "t_uint256"
					}
				],
				"types": {
					"t_address": {
						"encoding": "inplace",
						"label": "address",
						"numberOfBytes": "20"
					},
					"t_bool": {
						"encoding": "inplace",
						"label": "bool",
						"numberOfBytes": "1"
					},
					"t_mapping(t_address,t_bool)": {
						"encoding": "mapping",
						"key": "t_address",
						"label": "mapping(address => bool)",
						"numberOfBytes": "32",
						"value": "t_bool"
					},
					"t_mapping(t_address,t_uint256)": {
						"encoding": "mapping",
						"key": "t_address",
						"label": "mapping(address => uint256)",
						"numberOfBytes": "32",
						"value": "t_uint256"
					},
					"t_uint256": {
						"encoding": "inplace",
						"label": "uint256",
						"numberOfBytes": "32"
					}
				}
			},
			"userdoc": {
				"kind": "user",
				"methods": {},
				"version": 1
			}
		}
	}
}