{
	"contracts/ImportsExercise.sol": {
		"ImportsExercise": {
			"abi": [
				{
					"inputs": [],
					"name": "Haiku",
					"outputs": [
						{
							"internalType": "string",
							"name": "line1",
							"type": "string"
						},
						{
							"internalType": "string",
							"name": "line2",
							"type": "string"
						},
						{
							"internalType": "string",
							"name": "line3",
							"type": "string"
						}
					],
					"stateMutability": "view",
					"type": "function"
				},
				{
					"inputs": [],
					"name": "getHaiku",
					"outputs": [
						{
							"components": [
								{
									"internalType": "string",
									"name": "line1",
									"type": "string"
								},
								{
									"internalType": "string",
									"name": "line2",
									"type": "string"
								},
								{
									"internalType": "string",
									"name": "line3",
									"type": "string"
								}
							],
							"internalType": "struct SillyStringUtils.Haiku",
							"name": "",
							"type": "tuple"
						}
					],
					"stateMutability": "view",
					"type": "function"
				},
				{
					"inputs": [
						{
							"internalType": "string",
							"name": "_line1",
							"type": "string"
						},
						{
							"internalType": "string",
							"name": "_line2",
							"type": "string"
						},
						{
							"internalType": "string",
							"name": "_line3",
							"type": "string"
						}
					],
					"name": "saveHaiku",
					"outputs": [],
					"stateMutability": "nonpayable",
					"type": "function"
				},
				{
					"inputs": [],
					"name": "shruggieHaiku",
					"outputs": [
						{
							"components": [
								{
									"internalType": "string",
									"name": "line1",
									"type": "string"
								},
								{
									"internalType": "string",
									"name": "line2",
									"type": "string"
								},
								{
									"internalType": "string",
									"name": "line3",
									"type": "string"
								}
							],
							"internalType": "struct SillyStringUtils.Haiku",
							"name": "",
							"type": "tuple"
						}
					],
					"stateMutability": "view",
					"type": "function"
				}
			],
			"devdoc": {
				"kind": "dev",
				"methods": {},
				"version": 1
			},
			"evm": {
				"assembly": "    /* \"contracts/ImportsExercise.sol\":151:1014  contract ImportsExercise {... */\n  mstore(0x40, 0x80)\n  callvalue\n  dup1\n  iszero\n  tag_1\n  jumpi\n  0x00\n  dup1\n  revert\ntag_1:\n  pop\n  dataSize(sub_0)\n  dup1\n  dataOffset(sub_0)\n  0x00\n  codecopy\n  0x00\n  return\nstop\n\nsub_0: assembly {\n        /* \"contracts/ImportsExercise.sol\":151:1014  contract ImportsExercise {... */\n      mstore(0x40, 0x80)\n      callvalue\n      dup1\n      iszero\n      tag_1\n      jumpi\n      0x00\n      dup1\n      revert\n    tag_1:\n      pop\n      jumpi(tag_2, lt(calldatasize, 0x04))\n      shr(0xe0, calldataload(0x00))\n      dup1\n      0x25eb69a9\n      eq\n      tag_3\n      jumpi\n      dup1\n      0x2cecf5e2\n      eq\n      tag_4\n      jumpi\n      dup1\n      0x583dc769\n      eq\n      tag_5\n      jumpi\n      dup1\n      0x8346cbef\n      eq\n      tag_6\n      jumpi\n    tag_2:\n      0x00\n      dup1\n      revert\n        /* \"contracts/ImportsExercise.sol\":531:632  function getHaiku() public view returns (SillyStringUtils.Haiku memory) {... */\n    tag_3:\n      tag_7\n      tag_8\n      jump\t// in\n    tag_7:\n      mload(0x40)\n      tag_9\n      swap2\n      swap1\n      tag_10\n      jump\t// in\n    tag_9:\n      mload(0x40)\n      dup1\n      swap2\n      sub\n      swap1\n      return\n        /* \"contracts/ImportsExercise.sol\":221:256  SillyStringUtils.Haiku public Haiku */\n    tag_4:\n      tag_11\n      tag_12\n      jump\t// in\n    tag_11:\n      mload(0x40)\n      tag_13\n      swap4\n      swap3\n      swap2\n      swap1\n      tag_14\n      jump\t// in\n    tag_13:\n      mload(0x40)\n      dup1\n      swap2\n      sub\n      swap1\n      return\n        /* \"contracts/ImportsExercise.sol\":263:525  function saveHaiku(... */\n    tag_5:\n      tag_15\n      0x04\n      dup1\n      calldatasize\n      sub\n      dup2\n      add\n      swap1\n      tag_16\n      swap2\n      swap1\n      tag_17\n      jump\t// in\n    tag_16:\n      tag_18\n      jump\t// in\n    tag_15:\n      stop\n        /* \"contracts/ImportsExercise.sol\":639:1012  function shruggieHaiku() public view returns (SillyStringUtils.Haiku memory) {... */\n    tag_6:\n      tag_19\n      tag_20\n      jump\t// in\n    tag_19:\n      mload(0x40)\n      tag_21\n      swap2\n      swap1\n      tag_10\n      jump\t// in\n    tag_21:\n      mload(0x40)\n      dup1\n      swap2\n      sub\n      swap1\n      return\n        /* \"contracts/ImportsExercise.sol\":531:632  function getHaiku() public view returns (SillyStringUtils.Haiku memory) {... */\n    tag_8:\n        /* \"contracts/ImportsExercise.sol\":572:601  SillyStringUtils.Haiku memory */\n      tag_22\n      tag_23\n      jump\t// in\n    tag_22:\n        /* \"contracts/ImportsExercise.sol\":620:625  Haiku */\n      0x00\n        /* \"contracts/ImportsExercise.sol\":613:625  return Haiku */\n      mload(0x40)\n      dup1\n      0x60\n      add\n      0x40\n      mstore\n      swap1\n      dup2\n      0x00\n      dup3\n      add\n      dup1\n      sload\n      tag_25\n      swap1\n      tag_26\n      jump\t// in\n    tag_25:\n      dup1\n      0x1f\n      add\n      0x20\n      dup1\n      swap2\n      div\n      mul\n      0x20\n      add\n      mload(0x40)\n      swap1\n      dup2\n      add\n      0x40\n      mstore\n      dup1\n      swap3\n      swap2\n      swap1\n      dup2\n      dup2\n      mstore\n      0x20\n      add\n      dup3\n      dup1\n      sload\n      tag_27\n      swap1\n      tag_26\n      jump\t// in\n    tag_27:\n      dup1\n      iszero\n      tag_28\n      jumpi\n      dup1\n      0x1f\n      lt\n      tag_29\n      jumpi\n      0x0100\n      dup1\n      dup4\n      sload\n      div\n      mul\n      dup4\n      mstore\n      swap2\n      0x20\n      add\n      swap2\n      jump(tag_28)\n    tag_29:\n      dup3\n      add\n      swap2\n      swap1\n      0x00\n      mstore\n      keccak256(0x00, 0x20)\n      swap1\n    tag_30:\n      dup2\n      sload\n      dup2\n      mstore\n      swap1\n      0x01\n      add\n      swap1\n      0x20\n      add\n      dup1\n      dup4\n      gt\n      tag_30\n      jumpi\n      dup3\n      swap1\n      sub\n      0x1f\n      and\n      dup3\n      add\n      swap2\n    tag_28:\n      pop\n      pop\n      pop\n      pop\n      pop\n      dup2\n      mstore\n      0x20\n      add\n      0x01\n      dup3\n      add\n      dup1\n      sload\n      tag_31\n      swap1\n      tag_26\n      jump\t// in\n    tag_31:\n      dup1\n      0x1f\n      add\n      0x20\n      dup1\n      swap2\n      div\n      mul\n      0x20\n      add\n      mload(0x40)\n      swap1\n      dup2\n      add\n      0x40\n      mstore\n      dup1\n      swap3\n      swap2\n      swap1\n      dup2\n      dup2\n      mstore\n      0x20\n      add\n      dup3\n      dup1\n      sload\n      tag_32\n      swap1\n      tag_26\n      jump\t// in\n    tag_32:\n      dup1\n      iszero\n      tag_33\n      jumpi\n      dup1\n      0x1f\n      lt\n      tag_34\n      jumpi\n      0x0100\n      dup1\n      dup4\n      sload\n      div\n      mul\n      dup4\n      mstore\n      swap2\n      0x20\n      add\n      swap2\n      jump(tag_33)\n    tag_34:\n      dup3\n      add\n      swap2\n      swap1\n      0x00\n      mstore\n      keccak256(0x00, 0x20)\n      swap1\n    tag_35:\n      dup2\n      sload\n      dup2\n      mstore\n      swap1\n      0x01\n      add\n      swap1\n      0x20\n      add\n      dup1\n      dup4\n      gt\n      tag_35\n      jumpi\n      dup3\n      swap1\n      sub\n      0x1f\n      and\n      dup3\n      add\n      swap2\n    tag_33:\n      pop\n      pop\n      pop\n      pop\n      pop\n      dup2\n      mstore\n      0x20\n      add\n      0x02\n      dup3\n      add\n      dup1\n      sload\n      tag_36\n      swap1\n      tag_26\n      jump\t// in\n    tag_36:\n      dup1\n      0x1f\n      add\n      0x20\n      dup1\n      swap2\n      div\n      mul\n      0x20\n      add\n      mload(0x40)\n      swap1\n      dup2\n      add\n      0x40\n      mstore\n      dup1\n      swap3\n      swap2\n      swap1\n      dup2\n      dup2\n      mstore\n      0x20\n      add\n      dup3\n      dup1\n      sload\n      tag_37\n      swap1\n      tag_26\n      jump\t// in\n    tag_37:\n      dup1\n      iszero\n      tag_38\n      jumpi\n      dup1\n      0x1f\n      lt\n      tag_39\n      jumpi\n      0x0100\n      dup1\n      dup4\n      sload\n      div\n      mul\n      dup4\n      mstore\n      swap2\n      0x20\n      add\n      swap2\n      jump(tag_38)\n    tag_39:\n      dup3\n      add\n      swap2\n      swap1\n      0x00\n      mstore\n      keccak256(0x00, 0x20)\n      swap1\n    tag_40:\n      dup2\n      sload\n      dup2\n      mstore\n      swap1\n      0x01\n      add\n      swap1\n      0x20\n      add\n      dup1\n      dup4\n      gt\n      tag_40\n      jumpi\n      dup3\n      swap1\n      sub\n      0x1f\n      and\n      dup3\n      add\n      swap2\n    tag_38:\n      pop\n      pop\n      pop\n      pop\n      pop\n      dup2\n      mstore\n      pop\n      pop\n      swap1\n      pop\n        /* \"contracts/ImportsExercise.sol\":531:632  function getHaiku() public view returns (SillyStringUtils.Haiku memory) {... */\n      swap1\n      jump\t// out\n        /* \"contracts/ImportsExercise.sol\":221:256  SillyStringUtils.Haiku public Haiku */\n    tag_12:\n      0x00\n      dup1\n      0x00\n      add\n      dup1\n      sload\n      tag_41\n      swap1\n      tag_26\n      jump\t// in\n    tag_41:\n      dup1\n      0x1f\n      add\n      0x20\n      dup1\n      swap2\n      div\n      mul\n      0x20\n      add\n      mload(0x40)\n      swap1\n      dup2\n      add\n      0x40\n      mstore\n      dup1\n      swap3\n      swap2\n      swap1\n      dup2\n      dup2\n      mstore\n      0x20\n      add\n      dup3\n      dup1\n      sload\n      tag_42\n      swap1\n      tag_26\n      jump\t// in\n    tag_42:\n      dup1\n      iszero\n      tag_43\n      jumpi\n      dup1\n      0x1f\n      lt\n      tag_44\n      jumpi\n      0x0100\n      dup1\n      dup4\n      sload\n      div\n      mul\n      dup4\n      mstore\n      swap2\n      0x20\n      add\n      swap2\n      jump(tag_43)\n    tag_44:\n      dup3\n      add\n      swap2\n      swap1\n      0x00\n      mstore\n      keccak256(0x00, 0x20)\n      swap1\n    tag_45:\n      dup2\n      sload\n      dup2\n      mstore\n      swap1\n      0x01\n      add\n      swap1\n      0x20\n      add\n      dup1\n      dup4\n      gt\n      tag_45\n      jumpi\n      dup3\n      swap1\n      sub\n      0x1f\n      and\n      dup3\n      add\n      swap2\n    tag_43:\n      pop\n      pop\n      pop\n      pop\n      pop\n      swap1\n      dup1\n      0x01\n      add\n      dup1\n      sload\n      tag_46\n      swap1\n      tag_26\n      jump\t// in\n    tag_46:\n      dup1\n      0x1f\n      add\n      0x20\n      dup1\n      swap2\n      div\n      mul\n      0x20\n      add\n      mload(0x40)\n      swap1\n      dup2\n      add\n      0x40\n      mstore\n      dup1\n      swap3\n      swap2\n      swap1\n      dup2\n      dup2\n      mstore\n      0x20\n      add\n      dup3\n      dup1\n      sload\n      tag_47\n      swap1\n      tag_26\n      jump\t// in\n    tag_47:\n      dup1\n      iszero\n      tag_48\n      jumpi\n      dup1\n      0x1f\n      lt\n      tag_49\n      jumpi\n      0x0100\n      dup1\n      dup4\n      sload\n      div\n      mul\n      dup4\n      mstore\n      swap2\n      0x20\n      add\n      swap2\n      jump(tag_48)\n    tag_49:\n      dup3\n      add\n      swap2\n      swap1\n      0x00\n      mstore\n      keccak256(0x00, 0x20)\n      swap1\n    tag_50:\n      dup2\n      sload\n      dup2\n      mstore\n      swap1\n      0x01\n      add\n      swap1\n      0x20\n      add\n      dup1\n      dup4\n      gt\n      tag_50\n      jumpi\n      dup3\n      swap1\n      sub\n      0x1f\n      and\n      dup3\n      add\n      swap2\n    tag_48:\n      pop\n      pop\n      pop\n      pop\n      pop\n      swap1\n      dup1\n      0x02\n      add\n      dup1\n      sload\n      tag_51\n      swap1\n      tag_26\n      jump\t// in\n    tag_51:\n      dup1\n      0x1f\n      add\n      0x20\n      dup1\n      swap2\n      div\n      mul\n      0x20\n      add\n      mload(0x40)\n      swap1\n      dup2\n      add\n      0x40\n      mstore\n      dup1\n      swap3\n      swap2\n      swap1\n      dup2\n      dup2\n      mstore\n      0x20\n      add\n      dup3\n      dup1\n      sload\n      tag_52\n      swap1\n      tag_26\n      jump\t// in\n    tag_52:\n      dup1\n      iszero\n      tag_53\n      jumpi\n      dup1\n      0x1f\n      lt\n      tag_54\n      jumpi\n      0x0100\n      dup1\n      dup4\n      sload\n      div\n      mul\n      dup4\n      mstore\n      swap2\n      0x20\n      add\n      swap2\n      jump(tag_53)\n    tag_54:\n      dup3\n      add\n      swap2\n      swap1\n      0x00\n      mstore\n      keccak256(0x00, 0x20)\n      swap1\n    tag_55:\n      dup2\n      sload\n      dup2\n      mstore\n      swap1\n      0x01\n      add\n      swap1\n      0x20\n      add\n      dup1\n      dup4\n      gt\n      tag_55\n      jumpi\n      dup3\n      swap1\n      sub\n      0x1f\n      and\n      dup3\n      add\n      swap2\n    tag_53:\n      pop\n      pop\n      pop\n      pop\n      pop\n      swap1\n      pop\n      dup4\n      jump\t// out\n        /* \"contracts/ImportsExercise.sol\":263:525  function saveHaiku(... */\n    tag_18:\n        /* \"contracts/ImportsExercise.sol\":403:518  SillyStringUtils.Haiku({... */\n      mload(0x40)\n      dup1\n      0x60\n      add\n      0x40\n      mstore\n      dup1\n        /* \"contracts/ImportsExercise.sol\":447:453  _line1 */\n      dup5\n        /* \"contracts/ImportsExercise.sol\":403:518  SillyStringUtils.Haiku({... */\n      dup2\n      mstore\n      0x20\n      add\n        /* \"contracts/ImportsExercise.sol\":474:480  _line2 */\n      dup4\n        /* \"contracts/ImportsExercise.sol\":403:518  SillyStringUtils.Haiku({... */\n      dup2\n      mstore\n      0x20\n      add\n        /* \"contracts/ImportsExercise.sol\":501:507  _line3 */\n      dup3\n        /* \"contracts/ImportsExercise.sol\":403:518  SillyStringUtils.Haiku({... */\n      dup2\n      mstore\n      pop\n        /* \"contracts/ImportsExercise.sol\":395:400  Haiku */\n      0x00\n        /* \"contracts/ImportsExercise.sol\":395:518  Haiku = SillyStringUtils.Haiku({... */\n      dup1\n      dup3\n      add\n      mload\n      dup2\n      0x00\n      add\n      swap1\n      dup2\n      tag_57\n      swap2\n      swap1\n      tag_58\n      jump\t// in\n    tag_57:\n      pop\n      0x20\n      dup3\n      add\n      mload\n      dup2\n      0x01\n      add\n      swap1\n      dup2\n      tag_59\n      swap2\n      swap1\n      tag_58\n      jump\t// in\n    tag_59:\n      pop\n      0x40\n      dup3\n      add\n      mload\n      dup2\n      0x02\n      add\n      swap1\n      dup2\n      tag_60\n      swap2\n      swap1\n      tag_58\n      jump\t// in\n    tag_60:\n      pop\n      swap1\n      pop\n      pop\n        /* \"contracts/ImportsExercise.sol\":263:525  function saveHaiku(... */\n      pop\n      pop\n      pop\n      jump\t// out\n        /* \"contracts/ImportsExercise.sol\":639:1012  function shruggieHaiku() public view returns (SillyStringUtils.Haiku memory) {... */\n    tag_20:\n        /* \"contracts/ImportsExercise.sol\":685:714  SillyStringUtils.Haiku memory */\n      tag_61\n      tag_23\n      jump\t// in\n    tag_61:\n        /* \"contracts/ImportsExercise.sol\":726:773  SillyStringUtils.Haiku memory shruggieHaikuCopy */\n      0x00\n        /* \"contracts/ImportsExercise.sol\":776:781  Haiku */\n      dup1\n        /* \"contracts/ImportsExercise.sol\":726:781  SillyStringUtils.Haiku memory shruggieHaikuCopy = Haiku */\n      mload(0x40)\n      dup1\n      0x60\n      add\n      0x40\n      mstore\n      swap1\n      dup2\n      0x00\n      dup3\n      add\n      dup1\n      sload\n      tag_63\n      swap1\n      tag_26\n      jump\t// in\n    tag_63:\n      dup1\n      0x1f\n      add\n      0x20\n      dup1\n      swap2\n      div\n      mul\n      0x20\n      add\n      mload(0x40)\n      swap1\n      dup2\n      add\n      0x40\n      mstore\n      dup1\n      swap3\n      swap2\n      swap1\n      dup2\n      dup2\n      mstore\n      0x20\n      add\n      dup3\n      dup1\n      sload\n      tag_64\n      swap1\n      tag_26\n      jump\t// in\n    tag_64:\n      dup1\n      iszero\n      tag_65\n      jumpi\n      dup1\n      0x1f\n      lt\n      tag_66\n      jumpi\n      0x0100\n      dup1\n      dup4\n      sload\n      div\n      mul\n      dup4\n      mstore\n      swap2\n      0x20\n      add\n      swap2\n      jump(tag_65)\n    tag_66:\n      dup3\n      add\n      swap2\n      swap1\n      0x00\n      mstore\n      keccak256(0x00, 0x20)\n      swap1\n    tag_67:\n      dup2\n      sload\n      dup2\n      mstore\n      swap1\n      0x01\n      add\n      swap1\n      0x20\n      add\n      dup1\n      dup4\n      gt\n      tag_67\n      jumpi\n      dup3\n      swap1\n      sub\n      0x1f\n      and\n      dup3\n      add\n      swap2\n    tag_65:\n      pop\n      pop\n      pop\n      pop\n      pop\n      dup2\n      mstore\n      0x20\n      add\n      0x01\n      dup3\n      add\n      dup1\n      sload\n      tag_68\n      swap1\n      tag_26\n      jump\t// in\n    tag_68:\n      dup1\n      0x1f\n      add\n      0x20\n      dup1\n      swap2\n      div\n      mul\n      0x20\n      add\n      mload(0x40)\n      swap1\n      dup2\n      add\n      0x40\n      mstore\n      dup1\n      swap3\n      swap2\n      swap1\n      dup2\n      dup2\n      mstore\n      0x20\n      add\n      dup3\n      dup1\n      sload\n      tag_69\n      swap1\n      tag_26\n      jump\t// in\n    tag_69:\n      dup1\n      iszero\n      tag_70\n      jumpi\n      dup1\n      0x1f\n      lt\n      tag_71\n      jumpi\n      0x0100\n      dup1\n      dup4\n      sload\n      div\n      mul\n      dup4\n      mstore\n      swap2\n      0x20\n      add\n      swap2\n      jump(tag_70)\n    tag_71:\n      dup3\n      add\n      swap2\n      swap1\n      0x00\n      mstore\n      keccak256(0x00, 0x20)\n      swap1\n    tag_72:\n      dup2\n      sload\n      dup2\n      mstore\n      swap1\n      0x01\n      add\n      swap1\n      0x20\n      add\n      dup1\n      dup4\n      gt\n      tag_72\n      jumpi\n      dup3\n      swap1\n      sub\n      0x1f\n      and\n      dup3\n      add\n      swap2\n    tag_70:\n      pop\n      pop\n      pop\n      pop\n      pop\n      dup2\n      mstore\n      0x20\n      add\n      0x02\n      dup3\n      add\n      dup1\n      sload\n      tag_73\n      swap1\n      tag_26\n      jump\t// in\n    tag_73:\n      dup1\n      0x1f\n      add\n      0x20\n      dup1\n      swap2\n      div\n      mul\n      0x20\n      add\n      mload(0x40)\n      swap1\n      dup2\n      add\n      0x40\n      mstore\n      dup1\n      swap3\n      swap2\n      swap1\n      dup2\n      dup2\n      mstore\n      0x20\n      add\n      dup3\n      dup1\n      sload\n      tag_74\n      swap1\n      tag_26\n      jump\t// in\n    tag_74:\n      dup1\n      iszero\n      tag_75\n      jumpi\n      dup1\n      0x1f\n      lt\n      tag_76\n      jumpi\n      0x0100\n      dup1\n      dup4\n      sload\n      div\n      mul\n      dup4\n      mstore\n      swap2\n      0x20\n      add\n      swap2\n      jump(tag_75)\n    tag_76:\n      dup3\n      add\n      swap2\n      swap1\n      0x00\n      mstore\n      keccak256(0x00, 0x20)\n      swap1\n    tag_77:\n      dup2\n      sload\n      dup2\n      mstore\n      swap1\n      0x01\n      add\n      swap1\n      0x20\n      add\n      dup1\n      dup4\n      gt\n      tag_77\n      jumpi\n      dup3\n      swap1\n      sub\n      0x1f\n      and\n      dup3\n      add\n      swap2\n    tag_75:\n      pop\n      pop\n      pop\n      pop\n      pop\n      dup2\n      mstore\n      pop\n      pop\n      swap1\n      pop\n        /* \"contracts/ImportsExercise.sol\":936:970  shruggieHaikuCopy.line3.shruggie() */\n      tag_78\n        /* \"contracts/ImportsExercise.sol\":936:953  shruggieHaikuCopy */\n      dup2\n        /* \"contracts/ImportsExercise.sol\":936:959  shruggieHaikuCopy.line3 */\n      0x40\n      add\n      mload\n        /* \"contracts/ImportsExercise.sol\":936:968  shruggieHaikuCopy.line3.shruggie */\n      tag_79\n        /* \"contracts/ImportsExercise.sol\":936:970  shruggieHaikuCopy.line3.shruggie() */\n      jump\t// in\n    tag_78:\n        /* \"contracts/ImportsExercise.sol\":910:927  shruggieHaikuCopy */\n      dup2\n        /* \"contracts/ImportsExercise.sol\":910:933  shruggieHaikuCopy.line3 */\n      0x40\n      add\n        /* \"contracts/ImportsExercise.sol\":910:970  shruggieHaikuCopy.line3 = shruggieHaikuCopy.line3.shruggie() */\n      dup2\n      swap1\n      mstore\n      pop\n        /* \"contracts/ImportsExercise.sol\":988:1005  shruggieHaikuCopy */\n      dup1\n        /* \"contracts/ImportsExercise.sol\":981:1005  return shruggieHaikuCopy */\n      swap2\n      pop\n      pop\n        /* \"contracts/ImportsExercise.sol\":639:1012  function shruggieHaiku() public view returns (SillyStringUtils.Haiku memory) {... */\n      swap1\n      jump\t// out\n        /* \"https://github.com/tadams95/Base-Camp/blob/master/contracts/SillyStringsUtils.sol\":183:322  function shruggie(string memory _input) internal pure returns (string memory) {... */\n    tag_79:\n        /* \"https://github.com/tadams95/Base-Camp/blob/master/contracts/SillyStringsUtils.sol\":246:259  string memory */\n      0x60\n        /* \"https://github.com/tadams95/Base-Camp/blob/master/contracts/SillyStringsUtils.sol\":292:298  _input */\n      dup2\n        /* \"https://github.com/tadams95/Base-Camp/blob/master/contracts/SillyStringsUtils.sol\":278:315  string.concat(_input, unicode\" 🤷\") */\n      add(0x20, mload(0x40))\n      tag_81\n      swap2\n      swap1\n      tag_82\n      jump\t// in\n    tag_81:\n      mload(0x40)\n      0x20\n      dup2\n      dup4\n      sub\n      sub\n      dup2\n      mstore\n      swap1\n      0x40\n      mstore\n        /* \"https://github.com/tadams95/Base-Camp/blob/master/contracts/SillyStringsUtils.sol\":271:315  return string.concat(_input, unicode\" 🤷\") */\n      swap1\n      pop\n        /* \"https://github.com/tadams95/Base-Camp/blob/master/contracts/SillyStringsUtils.sol\":183:322  function shruggie(string memory _input) internal pure returns (string memory) {... */\n      swap2\n      swap1\n      pop\n      jump\t// out\n    tag_23:\n      mload(0x40)\n      dup1\n      0x60\n      add\n      0x40\n      mstore\n      dup1\n      0x60\n      dup2\n      mstore\n      0x20\n      add\n      0x60\n      dup2\n      mstore\n      0x20\n      add\n      0x60\n      dup2\n      mstore\n      pop\n      swap1\n      jump\t// out\n        /* \"#utility.yul\":7:106   */\n    tag_83:\n        /* \"#utility.yul\":59:65   */\n      0x00\n        /* \"#utility.yul\":93:98   */\n      dup2\n        /* \"#utility.yul\":87:99   */\n      mload\n        /* \"#utility.yul\":77:99   */\n      swap1\n      pop\n        /* \"#utility.yul\":7:106   */\n      swap2\n      swap1\n      pop\n      jump\t// out\n        /* \"#utility.yul\":112:271   */\n    tag_84:\n        /* \"#utility.yul\":186:197   */\n      0x00\n        /* \"#utility.yul\":220:226   */\n      dup3\n        /* \"#utility.yul\":215:218   */\n      dup3\n        /* \"#utility.yul\":208:227   */\n      mstore\n        /* \"#utility.yul\":260:264   */\n      0x20\n        /* \"#utility.yul\":255:258   */\n      dup3\n        /* \"#utility.yul\":251:265   */\n      add\n        /* \"#utility.yul\":236:265   */\n      swap1\n      pop\n        /* \"#utility.yul\":112:271   */\n      swap3\n      swap2\n      pop\n      pop\n      jump\t// out\n        /* \"#utility.yul\":277:523   */\n    tag_85:\n        /* \"#utility.yul\":358:359   */\n      0x00\n        /* \"#utility.yul\":368:481   */\n    tag_127:\n        /* \"#utility.yul\":382:388   */\n      dup4\n        /* \"#utility.yul\":379:380   */\n      dup2\n        /* \"#utility.yul\":376:389   */\n      lt\n        /* \"#utility.yul\":368:481   */\n      iszero\n      tag_129\n      jumpi\n        /* \"#utility.yul\":467:468   */\n      dup1\n        /* \"#utility.yul\":462:465   */\n      dup3\n        /* \"#utility.yul\":458:469   */\n      add\n        /* \"#utility.yul\":452:470   */\n      mload\n        /* \"#utility.yul\":448:449   */\n      dup2\n        /* \"#utility.yul\":443:446   */\n      dup5\n        /* \"#utility.yul\":439:450   */\n      add\n        /* \"#utility.yul\":432:471   */\n      mstore\n        /* \"#utility.yul\":404:406   */\n      0x20\n        /* \"#utility.yul\":401:402   */\n      dup2\n        /* \"#utility.yul\":397:407   */\n      add\n        /* \"#utility.yul\":392:407   */\n      swap1\n      pop\n        /* \"#utility.yul\":368:481   */\n      jump(tag_127)\n    tag_129:\n        /* \"#utility.yul\":515:516   */\n      0x00\n        /* \"#utility.yul\":506:512   */\n      dup5\n        /* \"#utility.yul\":501:504   */\n      dup5\n        /* \"#utility.yul\":497:513   */\n      add\n        /* \"#utility.yul\":490:517   */\n      mstore\n        /* \"#utility.yul\":339:523   */\n      pop\n        /* \"#utility.yul\":277:523   */\n      pop\n      pop\n      pop\n      jump\t// out\n        /* \"#utility.yul\":529:631   */\n    tag_86:\n        /* \"#utility.yul\":570:576   */\n      0x00\n        /* \"#utility.yul\":621:623   */\n      0x1f\n        /* \"#utility.yul\":617:624   */\n      not\n        /* \"#utility.yul\":612:614   */\n      0x1f\n        /* \"#utility.yul\":605:610   */\n      dup4\n        /* \"#utility.yul\":601:615   */\n      add\n        /* \"#utility.yul\":597:625   */\n      and\n        /* \"#utility.yul\":587:625   */\n      swap1\n      pop\n        /* \"#utility.yul\":529:631   */\n      swap2\n      swap1\n      pop\n      jump\t// out\n        /* \"#utility.yul\":637:994   */\n    tag_87:\n        /* \"#utility.yul\":715:718   */\n      0x00\n        /* \"#utility.yul\":743:782   */\n      tag_132\n        /* \"#utility.yul\":776:781   */\n      dup3\n        /* \"#utility.yul\":743:782   */\n      tag_83\n      jump\t// in\n    tag_132:\n        /* \"#utility.yul\":798:859   */\n      tag_133\n        /* \"#utility.yul\":852:858   */\n      dup2\n        /* \"#utility.yul\":847:850   */\n      dup6\n        /* \"#utility.yul\":798:859   */\n      tag_84\n      jump\t// in\n    tag_133:\n        /* \"#utility.yul\":791:859   */\n      swap4\n      pop\n        /* \"#utility.yul\":868:933   */\n      tag_134\n        /* \"#utility.yul\":926:932   */\n      dup2\n        /* \"#utility.yul\":921:924   */\n      dup6\n        /* \"#utility.yul\":914:918   */\n      0x20\n        /* \"#utility.yul\":907:912   */\n      dup7\n        /* \"#utility.yul\":903:919   */\n      add\n        /* \"#utility.yul\":868:933   */\n      tag_85\n      jump\t// in\n    tag_134:\n        /* \"#utility.yul\":958:987   */\n      tag_135\n        /* \"#utility.yul\":980:986   */\n      dup2\n        /* \"#utility.yul\":958:987   */\n      tag_86\n      jump\t// in\n    tag_135:\n        /* \"#utility.yul\":953:956   */\n      dup5\n        /* \"#utility.yul\":949:988   */\n      add\n        /* \"#utility.yul\":942:988   */\n      swap2\n      pop\n        /* \"#utility.yul\":719:994   */\n      pop\n        /* \"#utility.yul\":637:994   */\n      swap3\n      swap2\n      pop\n      pop\n      jump\t// out\n        /* \"#utility.yul\":1070:1987   */\n    tag_88:\n        /* \"#utility.yul\":1181:1184   */\n      0x00\n        /* \"#utility.yul\":1217:1221   */\n      0x60\n        /* \"#utility.yul\":1212:1215   */\n      dup4\n        /* \"#utility.yul\":1208:1222   */\n      add\n        /* \"#utility.yul\":1305:1309   */\n      0x00\n        /* \"#utility.yul\":1298:1303   */\n      dup4\n        /* \"#utility.yul\":1294:1310   */\n      add\n        /* \"#utility.yul\":1288:1311   */\n      mload\n        /* \"#utility.yul\":1358:1361   */\n      dup5\n        /* \"#utility.yul\":1352:1356   */\n      dup3\n        /* \"#utility.yul\":1348:1362   */\n      sub\n        /* \"#utility.yul\":1341:1345   */\n      0x00\n        /* \"#utility.yul\":1336:1339   */\n      dup7\n        /* \"#utility.yul\":1332:1346   */\n      add\n        /* \"#utility.yul\":1325:1363   */\n      mstore\n        /* \"#utility.yul\":1384:1457   */\n      tag_137\n        /* \"#utility.yul\":1452:1456   */\n      dup3\n        /* \"#utility.yul\":1438:1450   */\n      dup3\n        /* \"#utility.yul\":1384:1457   */\n      tag_87\n      jump\t// in\n    tag_137:\n        /* \"#utility.yul\":1376:1457   */\n      swap2\n      pop\n        /* \"#utility.yul\":1232:1468   */\n      pop\n        /* \"#utility.yul\":1551:1555   */\n      0x20\n        /* \"#utility.yul\":1544:1549   */\n      dup4\n        /* \"#utility.yul\":1540:1556   */\n      add\n        /* \"#utility.yul\":1534:1557   */\n      mload\n        /* \"#utility.yul\":1604:1607   */\n      dup5\n        /* \"#utility.yul\":1598:1602   */\n      dup3\n        /* \"#utility.yul\":1594:1608   */\n      sub\n        /* \"#utility.yul\":1587:1591   */\n      0x20\n        /* \"#utility.yul\":1582:1585   */\n      dup7\n        /* \"#utility.yul\":1578:1592   */\n      add\n        /* \"#utility.yul\":1571:1609   */\n      mstore\n        /* \"#utility.yul\":1630:1703   */\n      tag_138\n        /* \"#utility.yul\":1698:1702   */\n      dup3\n        /* \"#utility.yul\":1684:1696   */\n      dup3\n        /* \"#utility.yul\":1630:1703   */\n      tag_87\n      jump\t// in\n    tag_138:\n        /* \"#utility.yul\":1622:1703   */\n      swap2\n      pop\n        /* \"#utility.yul\":1478:1714   */\n      pop\n        /* \"#utility.yul\":1797:1801   */\n      0x40\n        /* \"#utility.yul\":1790:1795   */\n      dup4\n        /* \"#utility.yul\":1786:1802   */\n      add\n        /* \"#utility.yul\":1780:1803   */\n      mload\n        /* \"#utility.yul\":1850:1853   */\n      dup5\n        /* \"#utility.yul\":1844:1848   */\n      dup3\n        /* \"#utility.yul\":1840:1854   */\n      sub\n        /* \"#utility.yul\":1833:1837   */\n      0x40\n        /* \"#utility.yul\":1828:1831   */\n      dup7\n        /* \"#utility.yul\":1824:1838   */\n      add\n        /* \"#utility.yul\":1817:1855   */\n      mstore\n        /* \"#utility.yul\":1876:1949   */\n      tag_139\n        /* \"#utility.yul\":1944:1948   */\n      dup3\n        /* \"#utility.yul\":1930:1942   */\n      dup3\n        /* \"#utility.yul\":1876:1949   */\n      tag_87\n      jump\t// in\n    tag_139:\n        /* \"#utility.yul\":1868:1949   */\n      swap2\n      pop\n        /* \"#utility.yul\":1724:1960   */\n      pop\n        /* \"#utility.yul\":1977:1981   */\n      dup1\n        /* \"#utility.yul\":1970:1981   */\n      swap2\n      pop\n        /* \"#utility.yul\":1186:1987   */\n      pop\n        /* \"#utility.yul\":1070:1987   */\n      swap3\n      swap2\n      pop\n      pop\n      jump\t// out\n        /* \"#utility.yul\":1993:2350   */\n    tag_10:\n        /* \"#utility.yul\":2128:2132   */\n      0x00\n        /* \"#utility.yul\":2166:2168   */\n      0x20\n        /* \"#utility.yul\":2155:2164   */\n      dup3\n        /* \"#utility.yul\":2151:2169   */\n      add\n        /* \"#utility.yul\":2143:2169   */\n      swap1\n      pop\n        /* \"#utility.yul\":2215:2224   */\n      dup2\n        /* \"#utility.yul\":2209:2213   */\n      dup2\n        /* \"#utility.yul\":2205:2225   */\n      sub\n        /* \"#utility.yul\":2201:2202   */\n      0x00\n        /* \"#utility.yul\":2190:2199   */\n      dup4\n        /* \"#utility.yul\":2186:2203   */\n      add\n        /* \"#utility.yul\":2179:2226   */\n      mstore\n        /* \"#utility.yul\":2243:2343   */\n      tag_141\n        /* \"#utility.yul\":2338:2342   */\n      dup2\n        /* \"#utility.yul\":2329:2335   */\n      dup5\n        /* \"#utility.yul\":2243:2343   */\n      tag_88\n      jump\t// in\n    tag_141:\n        /* \"#utility.yul\":2235:2343   */\n      swap1\n      pop\n        /* \"#utility.yul\":1993:2350   */\n      swap3\n      swap2\n      pop\n      pop\n      jump\t// out\n        /* \"#utility.yul\":2356:2525   */\n    tag_89:\n        /* \"#utility.yul\":2440:2451   */\n      0x00\n        /* \"#utility.yul\":2474:2480   */\n      dup3\n        /* \"#utility.yul\":2469:2472   */\n      dup3\n        /* \"#utility.yul\":2462:2481   */\n      mstore\n        /* \"#utility.yul\":2514:2518   */\n      0x20\n        /* \"#utility.yul\":2509:2512   */\n      dup3\n        /* \"#utility.yul\":2505:2519   */\n      add\n        /* \"#utility.yul\":2490:2519   */\n      swap1\n      pop\n        /* \"#utility.yul\":2356:2525   */\n      swap3\n      swap2\n      pop\n      pop\n      jump\t// out\n        /* \"#utility.yul\":2531:2908   */\n    tag_90:\n        /* \"#utility.yul\":2619:2622   */\n      0x00\n        /* \"#utility.yul\":2647:2686   */\n      tag_144\n        /* \"#utility.yul\":2680:2685   */\n      dup3\n        /* \"#utility.yul\":2647:2686   */\n      tag_83\n      jump\t// in\n    tag_144:\n        /* \"#utility.yul\":2702:2773   */\n      tag_145\n        /* \"#utility.yul\":2766:2772   */\n      dup2\n        /* \"#utility.yul\":2761:2764   */\n      dup6\n        /* \"#utility.yul\":2702:2773   */\n      tag_89\n      jump\t// in\n    tag_145:\n        /* \"#utility.yul\":2695:2773   */\n      swap4\n      pop\n        /* \"#utility.yul\":2782:2847   */\n      tag_146\n        /* \"#utility.yul\":2840:2846   */\n      dup2\n        /* \"#utility.yul\":2835:2838   */\n      dup6\n        /* \"#utility.yul\":2828:2832   */\n      0x20\n        /* \"#utility.yul\":2821:2826   */\n      dup7\n        /* \"#utility.yul\":2817:2833   */\n      add\n        /* \"#utility.yul\":2782:2847   */\n      tag_85\n      jump\t// in\n    tag_146:\n        /* \"#utility.yul\":2872:2901   */\n      tag_147\n        /* \"#utility.yul\":2894:2900   */\n      dup2\n        /* \"#utility.yul\":2872:2901   */\n      tag_86\n      jump\t// in\n    tag_147:\n        /* \"#utility.yul\":2867:2870   */\n      dup5\n        /* \"#utility.yul\":2863:2902   */\n      add\n        /* \"#utility.yul\":2856:2902   */\n      swap2\n      pop\n        /* \"#utility.yul\":2623:2908   */\n      pop\n        /* \"#utility.yul\":2531:2908   */\n      swap3\n      swap2\n      pop\n      pop\n      jump\t// out\n        /* \"#utility.yul\":2914:3629   */\n    tag_14:\n        /* \"#utility.yul\":3123:3127   */\n      0x00\n        /* \"#utility.yul\":3161:3163   */\n      0x60\n        /* \"#utility.yul\":3150:3159   */\n      dup3\n        /* \"#utility.yul\":3146:3164   */\n      add\n        /* \"#utility.yul\":3138:3164   */\n      swap1\n      pop\n        /* \"#utility.yul\":3210:3219   */\n      dup2\n        /* \"#utility.yul\":3204:3208   */\n      dup2\n        /* \"#utility.yul\":3200:3220   */\n      sub\n        /* \"#utility.yul\":3196:3197   */\n      0x00\n        /* \"#utility.yul\":3185:3194   */\n      dup4\n        /* \"#utility.yul\":3181:3198   */\n      add\n        /* \"#utility.yul\":3174:3221   */\n      mstore\n        /* \"#utility.yul\":3238:3316   */\n      tag_149\n        /* \"#utility.yul\":3311:3315   */\n      dup2\n        /* \"#utility.yul\":3302:3308   */\n      dup7\n        /* \"#utility.yul\":3238:3316   */\n      tag_90\n      jump\t// in\n    tag_149:\n        /* \"#utility.yul\":3230:3316   */\n      swap1\n      pop\n        /* \"#utility.yul\":3363:3372   */\n      dup2\n        /* \"#utility.yul\":3357:3361   */\n      dup2\n        /* \"#utility.yul\":3353:3373   */\n      sub\n        /* \"#utility.yul\":3348:3350   */\n      0x20\n        /* \"#utility.yul\":3337:3346   */\n      dup4\n        /* \"#utility.yul\":3333:3351   */\n      add\n        /* \"#utility.yul\":3326:3374   */\n      mstore\n        /* \"#utility.yul\":3391:3469   */\n      tag_150\n        /* \"#utility.yul\":3464:3468   */\n      dup2\n        /* \"#utility.yul\":3455:3461   */\n      dup6\n        /* \"#utility.yul\":3391:3469   */\n      tag_90\n      jump\t// in\n    tag_150:\n        /* \"#utility.yul\":3383:3469   */\n      swap1\n      pop\n        /* \"#utility.yul\":3516:3525   */\n      dup2\n        /* \"#utility.yul\":3510:3514   */\n      dup2\n        /* \"#utility.yul\":3506:3526   */\n      sub\n        /* \"#utility.yul\":3501:3503   */\n      0x40\n        /* \"#utility.yul\":3490:3499   */\n      dup4\n        /* \"#utility.yul\":3486:3504   */\n      add\n        /* \"#utility.yul\":3479:3527   */\n      mstore\n        /* \"#utility.yul\":3544:3622   */\n      tag_151\n        /* \"#utility.yul\":3617:3621   */\n      dup2\n        /* \"#utility.yul\":3608:3614   */\n      dup5\n        /* \"#utility.yul\":3544:3622   */\n      tag_90\n      jump\t// in\n    tag_151:\n        /* \"#utility.yul\":3536:3622   */\n      swap1\n      pop\n        /* \"#utility.yul\":2914:3629   */\n      swap5\n      swap4\n      pop\n      pop\n      pop\n      pop\n      jump\t// out\n        /* \"#utility.yul\":3635:3710   */\n    tag_91:\n        /* \"#utility.yul\":3668:3674   */\n      0x00\n        /* \"#utility.yul\":3701:3703   */\n      0x40\n        /* \"#utility.yul\":3695:3704   */\n      mload\n        /* \"#utility.yul\":3685:3704   */\n      swap1\n      pop\n        /* \"#utility.yul\":3635:3710   */\n      swap1\n      jump\t// out\n        /* \"#utility.yul\":3716:3833   */\n    tag_92:\n        /* \"#utility.yul\":3825:3826   */\n      0x00\n        /* \"#utility.yul\":3822:3823   */\n      dup1\n        /* \"#utility.yul\":3815:3827   */\n      revert\n        /* \"#utility.yul\":3839:3956   */\n    tag_93:\n        /* \"#utility.yul\":3948:3949   */\n      0x00\n        /* \"#utility.yul\":3945:3946   */\n      dup1\n        /* \"#utility.yul\":3938:3950   */\n      revert\n        /* \"#utility.yul\":3962:4079   */\n    tag_94:\n        /* \"#utility.yul\":4071:4072   */\n      0x00\n        /* \"#utility.yul\":4068:4069   */\n      dup1\n        /* \"#utility.yul\":4061:4073   */\n      revert\n        /* \"#utility.yul\":4085:4202   */\n    tag_95:\n        /* \"#utility.yul\":4194:4195   */\n      0x00\n        /* \"#utility.yul\":4191:4192   */\n      dup1\n        /* \"#utility.yul\":4184:4196   */\n      revert\n        /* \"#utility.yul\":4208:4388   */\n    tag_96:\n        /* \"#utility.yul\":4256:4333   */\n      0x4e487b7100000000000000000000000000000000000000000000000000000000\n        /* \"#utility.yul\":4253:4254   */\n      0x00\n        /* \"#utility.yul\":4246:4334   */\n      mstore\n        /* \"#utility.yul\":4353:4357   */\n      0x41\n        /* \"#utility.yul\":4350:4351   */\n      0x04\n        /* \"#utility.yul\":4343:4358   */\n      mstore\n        /* \"#utility.yul\":4377:4381   */\n      0x24\n        /* \"#utility.yul\":4374:4375   */\n      0x00\n        /* \"#utility.yul\":4367:4382   */\n      revert\n        /* \"#utility.yul\":4394:4675   */\n    tag_97:\n        /* \"#utility.yul\":4477:4504   */\n      tag_159\n        /* \"#utility.yul\":4499:4503   */\n      dup3\n        /* \"#utility.yul\":4477:4504   */\n      tag_86\n      jump\t// in\n    tag_159:\n        /* \"#utility.yul\":4469:4475   */\n      dup2\n        /* \"#utility.yul\":4465:4505   */\n      add\n        /* \"#utility.yul\":4607:4613   */\n      dup2\n        /* \"#utility.yul\":4595:4605   */\n      dup2\n        /* \"#utility.yul\":4592:4614   */\n      lt\n        /* \"#utility.yul\":4571:4589   */\n      0xffffffffffffffff\n        /* \"#utility.yul\":4559:4569   */\n      dup3\n        /* \"#utility.yul\":4556:4590   */\n      gt\n        /* \"#utility.yul\":4553:4615   */\n      or\n        /* \"#utility.yul\":4550:4638   */\n      iszero\n      tag_160\n      jumpi\n        /* \"#utility.yul\":4618:4636   */\n      tag_161\n      tag_96\n      jump\t// in\n    tag_161:\n        /* \"#utility.yul\":4550:4638   */\n    tag_160:\n        /* \"#utility.yul\":4658:4668   */\n      dup1\n        /* \"#utility.yul\":4654:4656   */\n      0x40\n        /* \"#utility.yul\":4647:4669   */\n      mstore\n        /* \"#utility.yul\":4437:4675   */\n      pop\n        /* \"#utility.yul\":4394:4675   */\n      pop\n      pop\n      jump\t// out\n        /* \"#utility.yul\":4681:4810   */\n    tag_98:\n        /* \"#utility.yul\":4715:4721   */\n      0x00\n        /* \"#utility.yul\":4742:4762   */\n      tag_163\n      tag_91\n      jump\t// in\n    tag_163:\n        /* \"#utility.yul\":4732:4762   */\n      swap1\n      pop\n        /* \"#utility.yul\":4771:4804   */\n      tag_164\n        /* \"#utility.yul\":4799:4803   */\n      dup3\n        /* \"#utility.yul\":4791:4797   */\n      dup3\n        /* \"#utility.yul\":4771:4804   */\n      tag_97\n      jump\t// in\n    tag_164:\n        /* \"#utility.yul\":4681:4810   */\n      swap2\n      swap1\n      pop\n      jump\t// out\n        /* \"#utility.yul\":4816:5124   */\n    tag_99:\n        /* \"#utility.yul\":4878:4882   */\n      0x00\n        /* \"#utility.yul\":4968:4986   */\n      0xffffffffffffffff\n        /* \"#utility.yul\":4960:4966   */\n      dup3\n        /* \"#utility.yul\":4957:4987   */\n      gt\n        /* \"#utility.yul\":4954:5010   */\n      iszero\n      tag_166\n      jumpi\n        /* \"#utility.yul\":4990:5008   */\n      tag_167\n      tag_96\n      jump\t// in\n    tag_167:\n        /* \"#utility.yul\":4954:5010   */\n    tag_166:\n        /* \"#utility.yul\":5028:5057   */\n      tag_168\n        /* \"#utility.yul\":5050:5056   */\n      dup3\n        /* \"#utility.yul\":5028:5057   */\n      tag_86\n      jump\t// in\n    tag_168:\n        /* \"#utility.yul\":5020:5057   */\n      swap1\n      pop\n        /* \"#utility.yul\":5112:5116   */\n      0x20\n        /* \"#utility.yul\":5106:5110   */\n      dup2\n        /* \"#utility.yul\":5102:5117   */\n      add\n        /* \"#utility.yul\":5094:5117   */\n      swap1\n      pop\n        /* \"#utility.yul\":4816:5124   */\n      swap2\n      swap1\n      pop\n      jump\t// out\n        /* \"#utility.yul\":5130:5276   */\n    tag_100:\n        /* \"#utility.yul\":5227:5233   */\n      dup3\n        /* \"#utility.yul\":5222:5225   */\n      dup2\n        /* \"#utility.yul\":5217:5220   */\n      dup4\n        /* \"#utility.yul\":5204:5234   */\n      calldatacopy\n        /* \"#utility.yul\":5268:5269   */\n      0x00\n        /* \"#utility.yul\":5259:5265   */\n      dup4\n        /* \"#utility.yul\":5254:5257   */\n      dup4\n        /* \"#utility.yul\":5250:5266   */\n      add\n        /* \"#utility.yul\":5243:5270   */\n      mstore\n        /* \"#utility.yul\":5130:5276   */\n      pop\n      pop\n      pop\n      jump\t// out\n        /* \"#utility.yul\":5282:5707   */\n    tag_101:\n        /* \"#utility.yul\":5360:5365   */\n      0x00\n        /* \"#utility.yul\":5385:5451   */\n      tag_171\n        /* \"#utility.yul\":5401:5450   */\n      tag_172\n        /* \"#utility.yul\":5443:5449   */\n      dup5\n        /* \"#utility.yul\":5401:5450   */\n      tag_99\n      jump\t// in\n    tag_172:\n        /* \"#utility.yul\":5385:5451   */\n      tag_98\n      jump\t// in\n    tag_171:\n        /* \"#utility.yul\":5376:5451   */\n      swap1\n      pop\n        /* \"#utility.yul\":5474:5480   */\n      dup3\n        /* \"#utility.yul\":5467:5472   */\n      dup2\n        /* \"#utility.yul\":5460:5481   */\n      mstore\n        /* \"#utility.yul\":5512:5516   */\n      0x20\n        /* \"#utility.yul\":5505:5510   */\n      dup2\n        /* \"#utility.yul\":5501:5517   */\n      add\n        /* \"#utility.yul\":5550:5553   */\n      dup5\n        /* \"#utility.yul\":5541:5547   */\n      dup5\n        /* \"#utility.yul\":5536:5539   */\n      dup5\n        /* \"#utility.yul\":5532:5548   */\n      add\n        /* \"#utility.yul\":5529:5554   */\n      gt\n        /* \"#utility.yul\":5526:5638   */\n      iszero\n      tag_173\n      jumpi\n        /* \"#utility.yul\":5557:5636   */\n      tag_174\n      tag_95\n      jump\t// in\n    tag_174:\n        /* \"#utility.yul\":5526:5638   */\n    tag_173:\n        /* \"#utility.yul\":5647:5701   */\n      tag_175\n        /* \"#utility.yul\":5694:5700   */\n      dup5\n        /* \"#utility.yul\":5689:5692   */\n      dup3\n        /* \"#utility.yul\":5684:5687   */\n      dup6\n        /* \"#utility.yul\":5647:5701   */\n      tag_100\n      jump\t// in\n    tag_175:\n        /* \"#utility.yul\":5366:5707   */\n      pop\n        /* \"#utility.yul\":5282:5707   */\n      swap4\n      swap3\n      pop\n      pop\n      pop\n      jump\t// out\n        /* \"#utility.yul\":5727:6067   */\n    tag_102:\n        /* \"#utility.yul\":5783:5788   */\n      0x00\n        /* \"#utility.yul\":5832:5835   */\n      dup3\n        /* \"#utility.yul\":5825:5829   */\n      0x1f\n        /* \"#utility.yul\":5817:5823   */\n      dup4\n        /* \"#utility.yul\":5813:5830   */\n      add\n        /* \"#utility.yul\":5809:5836   */\n      slt\n        /* \"#utility.yul\":5799:5921   */\n      tag_177\n      jumpi\n        /* \"#utility.yul\":5840:5919   */\n      tag_178\n      tag_94\n      jump\t// in\n    tag_178:\n        /* \"#utility.yul\":5799:5921   */\n    tag_177:\n        /* \"#utility.yul\":5957:5963   */\n      dup2\n        /* \"#utility.yul\":5944:5964   */\n      calldataload\n        /* \"#utility.yul\":5982:6061   */\n      tag_179\n        /* \"#utility.yul\":6057:6060   */\n      dup5\n        /* \"#utility.yul\":6049:6055   */\n      dup3\n        /* \"#utility.yul\":6042:6046   */\n      0x20\n        /* \"#utility.yul\":6034:6040   */\n      dup7\n        /* \"#utility.yul\":6030:6047   */\n      add\n        /* \"#utility.yul\":5982:6061   */\n      tag_101\n      jump\t// in\n    tag_179:\n        /* \"#utility.yul\":5973:6061   */\n      swap2\n      pop\n        /* \"#utility.yul\":5789:6067   */\n      pop\n        /* \"#utility.yul\":5727:6067   */\n      swap3\n      swap2\n      pop\n      pop\n      jump\t// out\n        /* \"#utility.yul\":6073:7232   */\n    tag_17:\n        /* \"#utility.yul\":6180:6186   */\n      0x00\n        /* \"#utility.yul\":6188:6194   */\n      dup1\n        /* \"#utility.yul\":6196:6202   */\n      0x00\n        /* \"#utility.yul\":6245:6247   */\n      0x60\n        /* \"#utility.yul\":6233:6242   */\n      dup5\n        /* \"#utility.yul\":6224:6231   */\n      dup7\n        /* \"#utility.yul\":6220:6243   */\n      sub\n        /* \"#utility.yul\":6216:6248   */\n      slt\n        /* \"#utility.yul\":6213:6332   */\n      iszero\n      tag_181\n      jumpi\n        /* \"#utility.yul\":6251:6330   */\n      tag_182\n      tag_92\n      jump\t// in\n    tag_182:\n        /* \"#utility.yul\":6213:6332   */\n    tag_181:\n        /* \"#utility.yul\":6399:6400   */\n      0x00\n        /* \"#utility.yul\":6388:6397   */\n      dup5\n        /* \"#utility.yul\":6384:6401   */\n      add\n        /* \"#utility.yul\":6371:6402   */\n      calldataload\n        /* \"#utility.yul\":6429:6447   */\n      0xffffffffffffffff\n        /* \"#utility.yul\":6421:6427   */\n      dup2\n        /* \"#utility.yul\":6418:6448   */\n      gt\n        /* \"#utility.yul\":6415:6532   */\n      iszero\n      tag_183\n      jumpi\n        /* \"#utility.yul\":6451:6530   */\n      tag_184\n      tag_93\n      jump\t// in\n    tag_184:\n        /* \"#utility.yul\":6415:6532   */\n    tag_183:\n        /* \"#utility.yul\":6556:6619   */\n      tag_185\n        /* \"#utility.yul\":6611:6618   */\n      dup7\n        /* \"#utility.yul\":6602:6608   */\n      dup3\n        /* \"#utility.yul\":6591:6600   */\n      dup8\n        /* \"#utility.yul\":6587:6609   */\n      add\n        /* \"#utility.yul\":6556:6619   */\n      tag_102\n      jump\t// in\n    tag_185:\n        /* \"#utility.yul\":6546:6619   */\n      swap4\n      pop\n        /* \"#utility.yul\":6342:6629   */\n      pop\n        /* \"#utility.yul\":6696:6698   */\n      0x20\n        /* \"#utility.yul\":6685:6694   */\n      dup5\n        /* \"#utility.yul\":6681:6699   */\n      add\n        /* \"#utility.yul\":6668:6700   */\n      calldataload\n        /* \"#utility.yul\":6727:6745   */\n      0xffffffffffffffff\n        /* \"#utility.yul\":6719:6725   */\n      dup2\n        /* \"#utility.yul\":6716:6746   */\n      gt\n        /* \"#utility.yul\":6713:6830   */\n      iszero\n      tag_186\n      jumpi\n        /* \"#utility.yul\":6749:6828   */\n      tag_187\n      tag_93\n      jump\t// in\n    tag_187:\n        /* \"#utility.yul\":6713:6830   */\n    tag_186:\n        /* \"#utility.yul\":6854:6917   */\n      tag_188\n        /* \"#utility.yul\":6909:6916   */\n      dup7\n        /* \"#utility.yul\":6900:6906   */\n      dup3\n        /* \"#utility.yul\":6889:6898   */\n      dup8\n        /* \"#utility.yul\":6885:6907   */\n      add\n        /* \"#utility.yul\":6854:6917   */\n      tag_102\n      jump\t// in\n    tag_188:\n        /* \"#utility.yul\":6844:6917   */\n      swap3\n      pop\n        /* \"#utility.yul\":6639:6927   */\n      pop\n        /* \"#utility.yul\":6994:6996   */\n      0x40\n        /* \"#utility.yul\":6983:6992   */\n      dup5\n        /* \"#utility.yul\":6979:6997   */\n      add\n        /* \"#utility.yul\":6966:6998   */\n      calldataload\n        /* \"#utility.yul\":7025:7043   */\n      0xffffffffffffffff\n        /* \"#utility.yul\":7017:7023   */\n      dup2\n        /* \"#utility.yul\":7014:7044   */\n      gt\n        /* \"#utility.yul\":7011:7128   */\n      iszero\n      tag_189\n      jumpi\n        /* \"#utility.yul\":7047:7126   */\n      tag_190\n      tag_93\n      jump\t// in\n    tag_190:\n        /* \"#utility.yul\":7011:7128   */\n    tag_189:\n        /* \"#utility.yul\":7152:7215   */\n      tag_191\n        /* \"#utility.yul\":7207:7214   */\n      dup7\n        /* \"#utility.yul\":7198:7204   */\n      dup3\n        /* \"#utility.yul\":7187:7196   */\n      dup8\n        /* \"#utility.yul\":7183:7205   */\n      add\n        /* \"#utility.yul\":7152:7215   */\n      tag_102\n      jump\t// in\n    tag_191:\n        /* \"#utility.yul\":7142:7215   */\n      swap2\n      pop\n        /* \"#utility.yul\":6937:7225   */\n      pop\n        /* \"#utility.yul\":6073:7232   */\n      swap3\n      pop\n      swap3\n      pop\n      swap3\n      jump\t// out\n        /* \"#utility.yul\":7238:7418   */\n    tag_103:\n        /* \"#utility.yul\":7286:7363   */\n      0x4e487b7100000000000000000000000000000000000000000000000000000000\n        /* \"#utility.yul\":7283:7284   */\n      0x00\n        /* \"#utility.yul\":7276:7364   */\n      mstore\n        /* \"#utility.yul\":7383:7387   */\n      0x22\n        /* \"#utility.yul\":7380:7381   */\n      0x04\n        /* \"#utility.yul\":7373:7388   */\n      mstore\n        /* \"#utility.yul\":7407:7411   */\n      0x24\n        /* \"#utility.yul\":7404:7405   */\n      0x00\n        /* \"#utility.yul\":7397:7412   */\n      revert\n        /* \"#utility.yul\":7424:7744   */\n    tag_26:\n        /* \"#utility.yul\":7468:7474   */\n      0x00\n        /* \"#utility.yul\":7505:7506   */\n      0x02\n        /* \"#utility.yul\":7499:7503   */\n      dup3\n        /* \"#utility.yul\":7495:7507   */\n      div\n        /* \"#utility.yul\":7485:7507   */\n      swap1\n      pop\n        /* \"#utility.yul\":7552:7553   */\n      0x01\n        /* \"#utility.yul\":7546:7550   */\n      dup3\n        /* \"#utility.yul\":7542:7554   */\n      and\n        /* \"#utility.yul\":7573:7591   */\n      dup1\n        /* \"#utility.yul\":7563:7644   */\n      tag_194\n      jumpi\n        /* \"#utility.yul\":7629:7633   */\n      0x7f\n        /* \"#utility.yul\":7621:7627   */\n      dup3\n        /* \"#utility.yul\":7617:7634   */\n      and\n        /* \"#utility.yul\":7607:7634   */\n      swap2\n      pop\n        /* \"#utility.yul\":7563:7644   */\n    tag_194:\n        /* \"#utility.yul\":7691:7693   */\n      0x20\n        /* \"#utility.yul\":7683:7689   */\n      dup3\n        /* \"#utility.yul\":7680:7694   */\n      lt\n        /* \"#utility.yul\":7660:7678   */\n      dup2\n        /* \"#utility.yul\":7657:7695   */\n      sub\n        /* \"#utility.yul\":7654:7738   */\n      tag_195\n      jumpi\n        /* \"#utility.yul\":7710:7728   */\n      tag_196\n      tag_103\n      jump\t// in\n    tag_196:\n        /* \"#utility.yul\":7654:7738   */\n    tag_195:\n        /* \"#utility.yul\":7475:7744   */\n      pop\n        /* \"#utility.yul\":7424:7744   */\n      swap2\n      swap1\n      pop\n      jump\t// out\n        /* \"#utility.yul\":7750:7891   */\n    tag_104:\n        /* \"#utility.yul\":7799:7803   */\n      0x00\n        /* \"#utility.yul\":7822:7825   */\n      dup2\n        /* \"#utility.yul\":7814:7825   */\n      swap1\n      pop\n        /* \"#utility.yul\":7845:7848   */\n      dup2\n        /* \"#utility.yul\":7842:7843   */\n      0x00\n        /* \"#utility.yul\":7835:7849   */\n      mstore\n        /* \"#utility.yul\":7879:7883   */\n      0x20\n        /* \"#utility.yul\":7876:7877   */\n      0x00\n        /* \"#utility.yul\":7866:7884   */\n      keccak256\n        /* \"#utility.yul\":7858:7884   */\n      swap1\n      pop\n        /* \"#utility.yul\":7750:7891   */\n      swap2\n      swap1\n      pop\n      jump\t// out\n        /* \"#utility.yul\":7897:7990   */\n    tag_105:\n        /* \"#utility.yul\":7934:7940   */\n      0x00\n        /* \"#utility.yul\":7981:7983   */\n      0x20\n        /* \"#utility.yul\":7976:7978   */\n      0x1f\n        /* \"#utility.yul\":7969:7974   */\n      dup4\n        /* \"#utility.yul\":7965:7979   */\n      add\n        /* \"#utility.yul\":7961:7984   */\n      div\n        /* \"#utility.yul\":7951:7984   */\n      swap1\n      pop\n        /* \"#utility.yul\":7897:7990   */\n      swap2\n      swap1\n      pop\n      jump\t// out\n        /* \"#utility.yul\":7996:8103   */\n    tag_106:\n        /* \"#utility.yul\":8040:8048   */\n      0x00\n        /* \"#utility.yul\":8090:8095   */\n      dup3\n        /* \"#utility.yul\":8084:8088   */\n      dup3\n        /* \"#utility.yul\":8080:8096   */\n      shl\n        /* \"#utility.yul\":8059:8096   */\n      swap1\n      pop\n        /* \"#utility.yul\":7996:8103   */\n      swap3\n      swap2\n      pop\n      pop\n      jump\t// out\n        /* \"#utility.yul\":8109:8502   */\n    tag_107:\n        /* \"#utility.yul\":8178:8184   */\n      0x00\n        /* \"#utility.yul\":8228:8229   */\n      0x08\n        /* \"#utility.yul\":8216:8226   */\n      dup4\n        /* \"#utility.yul\":8212:8230   */\n      mul\n        /* \"#utility.yul\":8251:8348   */\n      tag_201\n        /* \"#utility.yul\":8281:8347   */\n      0xffffffffffffffffffffffffffffffffffffffffffffffffffffffffffffffff\n        /* \"#utility.yul\":8270:8279   */\n      dup3\n        /* \"#utility.yul\":8251:8348   */\n      tag_106\n      jump\t// in\n    tag_201:\n        /* \"#utility.yul\":8369:8408   */\n      tag_202\n        /* \"#utility.yul\":8399:8407   */\n      dup7\n        /* \"#utility.yul\":8388:8397   */\n      dup4\n        /* \"#utility.yul\":8369:8408   */\n      tag_106\n      jump\t// in\n    tag_202:\n        /* \"#utility.yul\":8357:8408   */\n      swap6\n      pop\n        /* \"#utility.yul\":8441:8445   */\n      dup1\n        /* \"#utility.yul\":8437:8446   */\n      not\n        /* \"#utility.yul\":8430:8435   */\n      dup5\n        /* \"#utility.yul\":8426:8447   */\n      and\n        /* \"#utility.yul\":8417:8447   */\n      swap4\n      pop\n        /* \"#utility.yul\":8490:8494   */\n      dup1\n        /* \"#utility.yul\":8480:8488   */\n      dup7\n        /* \"#utility.yul\":8476:8495   */\n      and\n        /* \"#utility.yul\":8469:8474   */\n      dup5\n        /* \"#utility.yul\":8466:8496   */\n      or\n        /* \"#utility.yul\":8456:8496   */\n      swap3\n      pop\n        /* \"#utility.yul\":8185:8502   */\n      pop\n      pop\n        /* \"#utility.yul\":8109:8502   */\n      swap4\n      swap3\n      pop\n      pop\n      pop\n      jump\t// out\n        /* \"#utility.yul\":8508:8585   */\n    tag_108:\n        /* \"#utility.yul\":8545:8552   */\n      0x00\n        /* \"#utility.yul\":8574:8579   */\n      dup2\n        /* \"#utility.yul\":8563:8579   */\n      swap1\n      pop\n        /* \"#utility.yul\":8508:8585   */\n      swap2\n      swap1\n      pop\n      jump\t// out\n        /* \"#utility.yul\":8591:8651   */\n    tag_109:\n        /* \"#utility.yul\":8619:8622   */\n      0x00\n        /* \"#utility.yul\":8640:8645   */\n      dup2\n        /* \"#utility.yul\":8633:8645   */\n      swap1\n      pop\n        /* \"#utility.yul\":8591:8651   */\n      swap2\n      swap1\n      pop\n      jump\t// out\n        /* \"#utility.yul\":8657:8799   */\n    tag_110:\n        /* \"#utility.yul\":8707:8716   */\n      0x00\n        /* \"#utility.yul\":8740:8793   */\n      tag_206\n        /* \"#utility.yul\":8758:8792   */\n      tag_207\n        /* \"#utility.yul\":8767:8791   */\n      tag_208\n        /* \"#utility.yul\":8785:8790   */\n      dup5\n        /* \"#utility.yul\":8767:8791   */\n      tag_108\n      jump\t// in\n    tag_208:\n        /* \"#utility.yul\":8758:8792   */\n      tag_109\n      jump\t// in\n    tag_207:\n        /* \"#utility.yul\":8740:8793   */\n      tag_108\n      jump\t// in\n    tag_206:\n        /* \"#utility.yul\":8727:8793   */\n      swap1\n      pop\n        /* \"#utility.yul\":8657:8799   */\n      swap2\n      swap1\n      pop\n      jump\t// out\n        /* \"#utility.yul\":8805:8880   */\n    tag_111:\n        /* \"#utility.yul\":8848:8851   */\n      0x00\n        /* \"#utility.yul\":8869:8874   */\n      dup2\n        /* \"#utility.yul\":8862:8874   */\n      swap1\n      pop\n        /* \"#utility.yul\":8805:8880   */\n      swap2\n      swap1\n      pop\n      jump\t// out\n        /* \"#utility.yul\":8886:9155   */\n    tag_112:\n        /* \"#utility.yul\":8996:9035   */\n      tag_211\n        /* \"#utility.yul\":9027:9034   */\n      dup4\n        /* \"#utility.yul\":8996:9035   */\n      tag_110\n      jump\t// in\n    tag_211:\n        /* \"#utility.yul\":9057:9148   */\n      tag_212\n        /* \"#utility.yul\":9106:9147   */\n      tag_213\n        /* \"#utility.yul\":9130:9146   */\n      dup3\n        /* \"#utility.yul\":9106:9147   */\n      tag_111\n      jump\t// in\n    tag_213:\n        /* \"#utility.yul\":9098:9104   */\n      dup5\n        /* \"#utility.yul\":9091:9095   */\n      dup5\n        /* \"#utility.yul\":9085:9096   */\n      sload\n        /* \"#utility.yul\":9057:9148   */\n      tag_107\n      jump\t// in\n    tag_212:\n        /* \"#utility.yul\":9051:9055   */\n      dup3\n        /* \"#utility.yul\":9044:9149   */\n      sstore\n        /* \"#utility.yul\":8962:9155   */\n      pop\n        /* \"#utility.yul\":8886:9155   */\n      pop\n      pop\n      pop\n      jump\t// out\n        /* \"#utility.yul\":9161:9234   */\n    tag_113:\n        /* \"#utility.yul\":9206:9209   */\n      0x00\n        /* \"#utility.yul\":9161:9234   */\n      swap1\n      jump\t// out\n        /* \"#utility.yul\":9240:9429   */\n    tag_114:\n        /* \"#utility.yul\":9317:9349   */\n      tag_216\n      tag_113\n      jump\t// in\n    tag_216:\n        /* \"#utility.yul\":9358:9423   */\n      tag_217\n        /* \"#utility.yul\":9416:9422   */\n      dup2\n        /* \"#utility.yul\":9408:9414   */\n      dup5\n        /* \"#utility.yul\":9402:9406   */\n      dup5\n        /* \"#utility.yul\":9358:9423   */\n      tag_112\n      jump\t// in\n    tag_217:\n        /* \"#utility.yul\":9293:9429   */\n      pop\n        /* \"#utility.yul\":9240:9429   */\n      pop\n      pop\n      jump\t// out\n        /* \"#utility.yul\":9435:9621   */\n    tag_115:\n        /* \"#utility.yul\":9495:9615   */\n    tag_219:\n        /* \"#utility.yul\":9512:9515   */\n      dup2\n        /* \"#utility.yul\":9505:9510   */\n      dup2\n        /* \"#utility.yul\":9502:9516   */\n      lt\n        /* \"#utility.yul\":9495:9615   */\n      iszero\n      tag_221\n      jumpi\n        /* \"#utility.yul\":9566:9605   */\n      tag_222\n        /* \"#utility.yul\":9603:9604   */\n      0x00\n        /* \"#utility.yul\":9596:9601   */\n      dup3\n        /* \"#utility.yul\":9566:9605   */\n      tag_114\n      jump\t// in\n    tag_222:\n        /* \"#utility.yul\":9539:9540   */\n      0x01\n        /* \"#utility.yul\":9532:9537   */\n      dup2\n        /* \"#utility.yul\":9528:9541   */\n      add\n        /* \"#utility.yul\":9519:9541   */\n      swap1\n      pop\n        /* \"#utility.yul\":9495:9615   */\n      jump(tag_219)\n    tag_221:\n        /* \"#utility.yul\":9435:9621   */\n      pop\n      pop\n      jump\t// out\n        /* \"#utility.yul\":9627:10170   */\n    tag_116:\n        /* \"#utility.yul\":9728:9730   */\n      0x1f\n        /* \"#utility.yul\":9723:9726   */\n      dup3\n        /* \"#utility.yul\":9720:9731   */\n      gt\n        /* \"#utility.yul\":9717:10163   */\n      iszero\n      tag_224\n      jumpi\n        /* \"#utility.yul\":9762:9800   */\n      tag_225\n        /* \"#utility.yul\":9794:9799   */\n      dup2\n        /* \"#utility.yul\":9762:9800   */\n      tag_104\n      jump\t// in\n    tag_225:\n        /* \"#utility.yul\":9846:9875   */\n      tag_226\n        /* \"#utility.yul\":9864:9874   */\n      dup5\n        /* \"#utility.yul\":9846:9875   */\n      tag_105\n      jump\t// in\n    tag_226:\n        /* \"#utility.yul\":9836:9844   */\n      dup2\n        /* \"#utility.yul\":9832:9876   */\n      add\n        /* \"#utility.yul\":10029:10031   */\n      0x20\n        /* \"#utility.yul\":10017:10027   */\n      dup6\n        /* \"#utility.yul\":10014:10032   */\n      lt\n        /* \"#utility.yul\":10011:10060   */\n      iszero\n      tag_227\n      jumpi\n        /* \"#utility.yul\":10050:10058   */\n      dup2\n        /* \"#utility.yul\":10035:10058   */\n      swap1\n      pop\n        /* \"#utility.yul\":10011:10060   */\n    tag_227:\n        /* \"#utility.yul\":10073:10153   */\n      tag_228\n        /* \"#utility.yul\":10129:10151   */\n      tag_229\n        /* \"#utility.yul\":10147:10150   */\n      dup6\n        /* \"#utility.yul\":10129:10151   */\n      tag_105\n      jump\t// in\n    tag_229:\n        /* \"#utility.yul\":10119:10127   */\n      dup4\n        /* \"#utility.yul\":10115:10152   */\n      add\n        /* \"#utility.yul\":10102:10113   */\n      dup3\n        /* \"#utility.yul\":10073:10153   */\n      tag_115\n      jump\t// in\n    tag_228:\n        /* \"#utility.yul\":9732:10163   */\n      pop\n      pop\n        /* \"#utility.yul\":9717:10163   */\n    tag_224:\n        /* \"#utility.yul\":9627:10170   */\n      pop\n      pop\n      pop\n      jump\t// out\n        /* \"#utility.yul\":10176:10293   */\n    tag_117:\n        /* \"#utility.yul\":10230:10238   */\n      0x00\n        /* \"#utility.yul\":10280:10285   */\n      dup3\n        /* \"#utility.yul\":10274:10278   */\n      dup3\n        /* \"#utility.yul\":10270:10286   */\n      shr\n        /* \"#utility.yul\":10249:10286   */\n      swap1\n      pop\n        /* \"#utility.yul\":10176:10293   */\n      swap3\n      swap2\n      pop\n      pop\n      jump\t// out\n        /* \"#utility.yul\":10299:10468   */\n    tag_118:\n        /* \"#utility.yul\":10343:10349   */\n      0x00\n        /* \"#utility.yul\":10376:10427   */\n      tag_232\n        /* \"#utility.yul\":10424:10425   */\n      0x00\n        /* \"#utility.yul\":10420:10426   */\n      not\n        /* \"#utility.yul\":10412:10417   */\n      dup5\n        /* \"#utility.yul\":10409:10410   */\n      0x08\n        /* \"#utility.yul\":10405:10418   */\n      mul\n        /* \"#utility.yul\":10376:10427   */\n      tag_117\n      jump\t// in\n    tag_232:\n        /* \"#utility.yul\":10372:10428   */\n      not\n        /* \"#utility.yul\":10457:10461   */\n      dup1\n        /* \"#utility.yul\":10451:10455   */\n      dup4\n        /* \"#utility.yul\":10447:10462   */\n      and\n        /* \"#utility.yul\":10437:10462   */\n      swap2\n      pop\n        /* \"#utility.yul\":10350:10468   */\n      pop\n        /* \"#utility.yul\":10299:10468   */\n      swap3\n      swap2\n      pop\n      pop\n      jump\t// out\n        /* \"#utility.yul\":10473:10768   */\n    tag_119:\n        /* \"#utility.yul\":10549:10553   */\n      0x00\n        /* \"#utility.yul\":10695:10724   */\n      tag_234\n        /* \"#utility.yul\":10720:10723   */\n      dup4\n        /* \"#utility.yul\":10714:10718   */\n      dup4\n        /* \"#utility.yul\":10695:10724   */\n      tag_118\n      jump\t// in\n    tag_234:\n        /* \"#utility.yul\":10687:10724   */\n      swap2\n      pop\n        /* \"#utility.yul\":10757:10760   */\n      dup3\n        /* \"#utility.yul\":10754:10755   */\n      0x02\n        /* \"#utility.yul\":10750:10761   */\n      mul\n        /* \"#utility.yul\":10744:10748   */\n      dup3\n        /* \"#utility.yul\":10741:10762   */\n      or\n        /* \"#utility.yul\":10733:10762   */\n      swap1\n      pop\n        /* \"#utility.yul\":10473:10768   */\n      swap3\n      swap2\n      pop\n      pop\n      jump\t// out\n        /* \"#utility.yul\":10773:12168   */\n    tag_58:\n        /* \"#utility.yul\":10890:10927   */\n      tag_236\n        /* \"#utility.yul\":10923:10926   */\n      dup3\n        /* \"#utility.yul\":10890:10927   */\n      tag_83\n      jump\t// in\n    tag_236:\n        /* \"#utility.yul\":10992:11010   */\n      0xffffffffffffffff\n        /* \"#utility.yul\":10984:10990   */\n      dup2\n        /* \"#utility.yul\":10981:11011   */\n      gt\n        /* \"#utility.yul\":10978:11034   */\n      iszero\n      tag_237\n      jumpi\n        /* \"#utility.yul\":11014:11032   */\n      tag_238\n      tag_96\n      jump\t// in\n    tag_238:\n        /* \"#utility.yul\":10978:11034   */\n    tag_237:\n        /* \"#utility.yul\":11058:11096   */\n      tag_239\n        /* \"#utility.yul\":11090:11094   */\n      dup3\n        /* \"#utility.yul\":11084:11095   */\n      sload\n        /* \"#utility.yul\":11058:11096   */\n      tag_26\n      jump\t// in\n    tag_239:\n        /* \"#utility.yul\":11143:11210   */\n      tag_240\n        /* \"#utility.yul\":11203:11209   */\n      dup3\n        /* \"#utility.yul\":11195:11201   */\n      dup3\n        /* \"#utility.yul\":11189:11193   */\n      dup6\n        /* \"#utility.yul\":11143:11210   */\n      tag_116\n      jump\t// in\n    tag_240:\n        /* \"#utility.yul\":11237:11238   */\n      0x00\n        /* \"#utility.yul\":11261:11265   */\n      0x20\n        /* \"#utility.yul\":11248:11265   */\n      swap1\n      pop\n        /* \"#utility.yul\":11293:11295   */\n      0x1f\n        /* \"#utility.yul\":11285:11291   */\n      dup4\n        /* \"#utility.yul\":11282:11296   */\n      gt\n        /* \"#utility.yul\":11310:11311   */\n      0x01\n        /* \"#utility.yul\":11305:11923   */\n      dup2\n      eq\n      tag_242\n      jumpi\n        /* \"#utility.yul\":11967:11968   */\n      0x00\n        /* \"#utility.yul\":11984:11990   */\n      dup5\n        /* \"#utility.yul\":11981:12058   */\n      iszero\n      tag_243\n      jumpi\n        /* \"#utility.yul\":12033:12042   */\n      dup3\n        /* \"#utility.yul\":12028:12031   */\n      dup8\n        /* \"#utility.yul\":12024:12043   */\n      add\n        /* \"#utility.yul\":12018:12044   */\n      mload\n        /* \"#utility.yul\":12009:12044   */\n      swap1\n      pop\n        /* \"#utility.yul\":11981:12058   */\n    tag_243:\n        /* \"#utility.yul\":12084:12151   */\n      tag_244\n        /* \"#utility.yul\":12144:12150   */\n      dup6\n        /* \"#utility.yul\":12137:12142   */\n      dup3\n        /* \"#utility.yul\":12084:12151   */\n      tag_119\n      jump\t// in\n    tag_244:\n        /* \"#utility.yul\":12078:12082   */\n      dup7\n        /* \"#utility.yul\":12071:12152   */\n      sstore\n        /* \"#utility.yul\":11940:12162   */\n      pop\n        /* \"#utility.yul\":11275:12162   */\n      jump(tag_241)\n        /* \"#utility.yul\":11305:11923   */\n    tag_242:\n        /* \"#utility.yul\":11357:11361   */\n      0x1f\n        /* \"#utility.yul\":11353:11362   */\n      not\n        /* \"#utility.yul\":11345:11351   */\n      dup5\n        /* \"#utility.yul\":11341:11363   */\n      and\n        /* \"#utility.yul\":11391:11428   */\n      tag_245\n        /* \"#utility.yul\":11423:11427   */\n      dup7\n        /* \"#utility.yul\":11391:11428   */\n      tag_104\n      jump\t// in\n    tag_245:\n        /* \"#utility.yul\":11450:11451   */\n      0x00\n        /* \"#utility.yul\":11464:11672   */\n    tag_246:\n        /* \"#utility.yul\":11478:11485   */\n      dup3\n        /* \"#utility.yul\":11475:11476   */\n      dup2\n        /* \"#utility.yul\":11472:11486   */\n      lt\n        /* \"#utility.yul\":11464:11672   */\n      iszero\n      tag_248\n      jumpi\n        /* \"#utility.yul\":11557:11566   */\n      dup5\n        /* \"#utility.yul\":11552:11555   */\n      dup10\n        /* \"#utility.yul\":11548:11567   */\n      add\n        /* \"#utility.yul\":11542:11568   */\n      mload\n        /* \"#utility.yul\":11534:11540   */\n      dup3\n        /* \"#utility.yul\":11527:11569   */\n      sstore\n        /* \"#utility.yul\":11608:11609   */\n      0x01\n        /* \"#utility.yul\":11600:11606   */\n      dup3\n        /* \"#utility.yul\":11596:11610   */\n      add\n        /* \"#utility.yul\":11586:11610   */\n      swap2\n      pop\n        /* \"#utility.yul\":11655:11657   */\n      0x20\n        /* \"#utility.yul\":11644:11653   */\n      dup6\n        /* \"#utility.yul\":11640:11658   */\n      add\n        /* \"#utility.yul\":11627:11658   */\n      swap5\n      pop\n        /* \"#utility.yul\":11501:11505   */\n      0x20\n        /* \"#utility.yul\":11498:11499   */\n      dup2\n        /* \"#utility.yul\":11494:11506   */\n      add\n        /* \"#utility.yul\":11489:11506   */\n      swap1\n      pop\n        /* \"#utility.yul\":11464:11672   */\n      jump(tag_246)\n    tag_248:\n        /* \"#utility.yul\":11700:11706   */\n      dup7\n        /* \"#utility.yul\":11691:11698   */\n      dup4\n        /* \"#utility.yul\":11688:11707   */\n      lt\n        /* \"#utility.yul\":11685:11864   */\n      iszero\n      tag_249\n      jumpi\n        /* \"#utility.yul\":11758:11767   */\n      dup5\n        /* \"#utility.yul\":11753:11756   */\n      dup10\n        /* \"#utility.yul\":11749:11768   */\n      add\n        /* \"#utility.yul\":11743:11769   */\n      mload\n        /* \"#utility.yul\":11801:11849   */\n      tag_250\n        /* \"#utility.yul\":11843:11847   */\n      0x1f\n        /* \"#utility.yul\":11835:11841   */\n      dup10\n        /* \"#utility.yul\":11831:11848   */\n      and\n        /* \"#utility.yul\":11820:11829   */\n      dup3\n        /* \"#utility.yul\":11801:11849   */\n      tag_118\n      jump\t// in\n    tag_250:\n        /* \"#utility.yul\":11793:11799   */\n      dup4\n        /* \"#utility.yul\":11786:11850   */\n      sstore\n        /* \"#utility.yul\":11708:11864   */\n      pop\n        /* \"#utility.yul\":11685:11864   */\n    tag_249:\n        /* \"#utility.yul\":11910:11911   */\n      0x01\n        /* \"#utility.yul\":11906:11907   */\n      0x02\n        /* \"#utility.yul\":11898:11904   */\n      dup9\n        /* \"#utility.yul\":11894:11908   */\n      mul\n        /* \"#utility.yul\":11890:11912   */\n      add\n        /* \"#utility.yul\":11884:11888   */\n      dup9\n        /* \"#utility.yul\":11877:11913   */\n      sstore\n        /* \"#utility.yul\":11312:11923   */\n      pop\n      pop\n      pop\n        /* \"#utility.yul\":11275:12162   */\n    tag_241:\n      pop\n        /* \"#utility.yul\":10865:12168   */\n      pop\n      pop\n      pop\n        /* \"#utility.yul\":10773:12168   */\n      pop\n      pop\n      jump\t// out\n        /* \"#utility.yul\":12174:12322   */\n    tag_120:\n        /* \"#utility.yul\":12276:12287   */\n      0x00\n        /* \"#utility.yul\":12313:12316   */\n      dup2\n        /* \"#utility.yul\":12298:12316   */\n      swap1\n      pop\n        /* \"#utility.yul\":12174:12322   */\n      swap3\n      swap2\n      pop\n      pop\n      jump\t// out\n        /* \"#utility.yul\":12328:12718   */\n    tag_121:\n        /* \"#utility.yul\":12434:12437   */\n      0x00\n        /* \"#utility.yul\":12462:12501   */\n      tag_253\n        /* \"#utility.yul\":12495:12500   */\n      dup3\n        /* \"#utility.yul\":12462:12501   */\n      tag_83\n      jump\t// in\n    tag_253:\n        /* \"#utility.yul\":12517:12606   */\n      tag_254\n        /* \"#utility.yul\":12599:12605   */\n      dup2\n        /* \"#utility.yul\":12594:12597   */\n      dup6\n        /* \"#utility.yul\":12517:12606   */\n      tag_120\n      jump\t// in\n    tag_254:\n        /* \"#utility.yul\":12510:12606   */\n      swap4\n      pop\n        /* \"#utility.yul\":12615:12680   */\n      tag_255\n        /* \"#utility.yul\":12673:12679   */\n      dup2\n        /* \"#utility.yul\":12668:12671   */\n      dup6\n        /* \"#utility.yul\":12661:12665   */\n      0x20\n        /* \"#utility.yul\":12654:12659   */\n      dup7\n        /* \"#utility.yul\":12650:12666   */\n      add\n        /* \"#utility.yul\":12615:12680   */\n      tag_85\n      jump\t// in\n    tag_255:\n        /* \"#utility.yul\":12705:12711   */\n      dup1\n        /* \"#utility.yul\":12700:12703   */\n      dup5\n        /* \"#utility.yul\":12696:12712   */\n      add\n        /* \"#utility.yul\":12689:12712   */\n      swap2\n      pop\n        /* \"#utility.yul\":12438:12718   */\n      pop\n        /* \"#utility.yul\":12328:12718   */\n      swap3\n      swap2\n      pop\n      pop\n      jump\t// out\n        /* \"#utility.yul\":12724:12965   */\n    tag_122:\n        /* \"#utility.yul\":12892:12958   */\n      0x20f09fa4b7000000000000000000000000000000000000000000000000000000\n        /* \"#utility.yul\":12887:12890   */\n      dup2\n        /* \"#utility.yul\":12880:12959   */\n      mstore\n        /* \"#utility.yul\":12724:12965   */\n      pop\n      jump\t// out\n        /* \"#utility.yul\":12971:13510   */\n    tag_82:\n        /* \"#utility.yul\":13193:13196   */\n      0x00\n        /* \"#utility.yul\":13215:13310   */\n      tag_258\n        /* \"#utility.yul\":13306:13309   */\n      dup3\n        /* \"#utility.yul\":13297:13303   */\n      dup5\n        /* \"#utility.yul\":13215:13310   */\n      tag_121\n      jump\t// in\n    tag_258:\n        /* \"#utility.yul\":13208:13310   */\n      swap2\n      pop\n        /* \"#utility.yul\":13320:13457   */\n      tag_259\n        /* \"#utility.yul\":13453:13456   */\n      dup3\n        /* \"#utility.yul\":13320:13457   */\n      tag_122\n      jump\t// in\n    tag_259:\n        /* \"#utility.yul\":13482:13483   */\n      0x05\n        /* \"#utility.yul\":13477:13480   */\n      dup3\n        /* \"#utility.yul\":13473:13484   */\n      add\n        /* \"#utility.yul\":13466:13484   */\n      swap2\n      pop\n        /* \"#utility.yul\":13501:13504   */\n      dup2\n        /* \"#utility.yul\":13494:13504   */\n      swap1\n      pop\n        /* \"#utility.yul\":12971:13510   */\n      swap3\n      swap2\n      pop\n      pop\n      jump\t// out\n\n    auxdata: 0xa264697066735822122088762450ee81ca08f0bcc440efce36f4fd16f201d7e12b46ef2e6e3046d0439264736f6c63430008110033\n}\n",
				"bytecode": {
					"linkReferences": {},
					"object": "608060405234801561001057600080fd5b50610e1f806100206000396000f3fe608060405234801561001057600080fd5b506004361061004c5760003560e01c806325eb69a9146100515780632cecf5e21461006f578063583dc7691461008f5780638346cbef146100ab575b600080fd5b6100596100c9565b60405161006691906107d1565b60405180910390f35b610077610299565b6040516100869392919061083d565b60405180910390f35b6100a960048036038101906100a491906109d2565b610449565b005b6100b36104af565b6040516100c091906107d1565b60405180910390f35b6100d16106c2565b60006040518060600160405290816000820180546100ee90610aa8565b80601f016020809104026020016040519081016040528092919081815260200182805461011a90610aa8565b80156101675780601f1061013c57610100808354040283529160200191610167565b820191906000526020600020905b81548152906001019060200180831161014a57829003601f168201915b5050505050815260200160018201805461018090610aa8565b80601f01602080910402602001604051908101604052809291908181526020018280546101ac90610aa8565b80156101f95780601f106101ce576101008083540402835291602001916101f9565b820191906000526020600020905b8154815290600101906020018083116101dc57829003601f168201915b5050505050815260200160028201805461021290610aa8565b80601f016020809104026020016040519081016040528092919081815260200182805461023e90610aa8565b801561028b5780601f106102605761010080835404028352916020019161028b565b820191906000526020600020905b81548152906001019060200180831161026e57829003601f168201915b505050505081525050905090565b60008060000180546102aa90610aa8565b80601f01602080910402602001604051908101604052809291908181526020018280546102d690610aa8565b80156103235780601f106102f857610100808354040283529160200191610323565b820191906000526020600020905b81548152906001019060200180831161030657829003601f168201915b50505050509080600101805461033890610aa8565b80601f016020809104026020016040519081016040528092919081815260200182805461036490610aa8565b80156103b15780601f10610386576101008083540402835291602001916103b1565b820191906000526020600020905b81548152906001019060200180831161039457829003601f168201915b5050505050908060020180546103c690610aa8565b80601f01602080910402602001604051908101604052809291908181526020018280546103f290610aa8565b801561043f5780601f106104145761010080835404028352916020019161043f565b820191906000526020600020905b81548152906001019060200180831161042257829003601f168201915b5050505050905083565b60405180606001604052808481526020018381526020018281525060008082015181600001908161047a9190610c8f565b5060208201518160010190816104909190610c8f565b5060408201518160020190816104a69190610c8f565b50905050505050565b6104b76106c2565b6000806040518060600160405290816000820180546104d590610aa8565b80601f016020809104026020016040519081016040528092919081815260200182805461050190610aa8565b801561054e5780601f106105235761010080835404028352916020019161054e565b820191906000526020600020905b81548152906001019060200180831161053157829003601f168201915b5050505050815260200160018201805461056790610aa8565b80601f016020809104026020016040519081016040528092919081815260200182805461059390610aa8565b80156105e05780601f106105b5576101008083540402835291602001916105e0565b820191906000526020600020905b8154815290600101906020018083116105c357829003601f168201915b505050505081526020016002820180546105f990610aa8565b80601f016020809104026020016040519081016040528092919081815260200182805461062590610aa8565b80156106725780601f1061064757610100808354040283529160200191610672565b820191906000526020600020905b81548152906001019060200180831161065557829003601f168201915b505050505081525050905061068a8160400151610699565b81604001819052508091505090565b6060816040516020016106ac9190610dc3565b6040516020818303038152906040529050919050565b60405180606001604052806060815260200160608152602001606081525090565b600081519050919050565b600082825260208201905092915050565b60005b8381101561071d578082015181840152602081019050610702565b60008484015250505050565b6000601f19601f8301169050919050565b6000610745826106e3565b61074f81856106ee565b935061075f8185602086016106ff565b61076881610729565b840191505092915050565b60006060830160008301518482036000860152610790828261073a565b915050602083015184820360208601526107aa828261073a565b915050604083015184820360408601526107c4828261073a565b9150508091505092915050565b600060208201905081810360008301526107eb8184610773565b905092915050565b600082825260208201905092915050565b600061080f826106e3565b61081981856107f3565b93506108298185602086016106ff565b61083281610729565b840191505092915050565b600060608201905081810360008301526108578186610804565b9050818103602083015261086b8185610804565b9050818103604083015261087f8184610804565b9050949350505050565b6000604051905090565b600080fd5b600080fd5b600080fd5b600080fd5b7f4e487b7100000000000000000000000000000000000000000000000000000000600052604160045260246000fd5b6108df82610729565b810181811067ffffffffffffffff821117156108fe576108fd6108a7565b5b80604052505050565b6000610911610889565b905061091d82826108d6565b919050565b600067ffffffffffffffff82111561093d5761093c6108a7565b5b61094682610729565b9050602081019050919050565b82818337600083830152505050565b600061097561097084610922565b610907565b905082815260208101848484011115610991576109906108a2565b5b61099c848285610953565b509392505050565b600082601f8301126109b9576109b861089d565b5b81356109c9848260208601610962565b91505092915050565b6000806000606084860312156109eb576109ea610893565b5b600084013567ffffffffffffffff811115610a0957610a08610898565b5b610a15868287016109a4565b935050602084013567ffffffffffffffff811115610a3657610a35610898565b5b610a42868287016109a4565b925050604084013567ffffffffffffffff811115610a6357610a62610898565b5b610a6f868287016109a4565b9150509250925092565b7f4e487b7100000000000000000000000000000000000000000000000000000000600052602260045260246000fd5b60006002820490506001821680610ac057607f821691505b602082108103610ad357610ad2610a79565b5b50919050565b60008190508160005260206000209050919050565b60006020601f8301049050919050565b600082821b905092915050565b600060088302610b3b7fffffffffffffffffffffffffffffffffffffffffffffffffffffffffffffffff82610afe565b610b458683610afe565b95508019841693508086168417925050509392505050565b6000819050919050565b6000819050919050565b6000610b8c610b87610b8284610b5d565b610b67565b610b5d565b9050919050565b6000819050919050565b610ba683610b71565b610bba610bb282610b93565b848454610b0b565b825550505050565b600090565b610bcf610bc2565b610bda818484610b9d565b505050565b5b81811015610bfe57610bf3600082610bc7565b600181019050610be0565b5050565b601f821115610c4357610c1481610ad9565b610c1d84610aee565b81016020851015610c2c578190505b610c40610c3885610aee565b830182610bdf565b50505b505050565b600082821c905092915050565b6000610c6660001984600802610c48565b1980831691505092915050565b6000610c7f8383610c55565b9150826002028217905092915050565b610c98826106e3565b67ffffffffffffffff811115610cb157610cb06108a7565b5b610cbb8254610aa8565b610cc6828285610c02565b600060209050601f831160018114610cf95760008415610ce7578287015190505b610cf18582610c73565b865550610d59565b601f198416610d0786610ad9565b60005b82811015610d2f57848901518255600182019150602085019450602081019050610d0a565b86831015610d4c5784890151610d48601f891682610c55565b8355505b6001600288020188555050505b505050505050565b600081905092915050565b6000610d77826106e3565b610d818185610d61565b9350610d918185602086016106ff565b80840191505092915050565b7f20f09fa4b7000000000000000000000000000000000000000000000000000000815250565b6000610dcf8284610d6c565b9150610dda82610d9d565b6005820191508190509291505056fea264697066735822122088762450ee81ca08f0bcc440efce36f4fd16f201d7e12b46ef2e6e3046d0439264736f6c63430008110033",
					"opcodes": "PUSH1 0x80 PUSH1 0x40 MSTORE CALLVALUE DUP1 ISZERO PUSH2 0x10 JUMPI PUSH1 0x0 DUP1 REVERT JUMPDEST POP PUSH2 0xE1F DUP1 PUSH2 0x20 PUSH1 0x0 CODECOPY PUSH1 0x0 RETURN INVALID PUSH1 0x80 PUSH1 0x40 MSTORE CALLVALUE DUP1 ISZERO PUSH2 0x10 JUMPI PUSH1 0x0 DUP1 REVERT JUMPDEST POP PUSH1 0x4 CALLDATASIZE LT PUSH2 0x4C JUMPI PUSH1 0x0 CALLDATALOAD PUSH1 0xE0 SHR DUP1 PUSH4 0x25EB69A9 EQ PUSH2 0x51 JUMPI DUP1 PUSH4 0x2CECF5E2 EQ PUSH2 0x6F JUMPI DUP1 PUSH4 0x583DC769 EQ PUSH2 0x8F JUMPI DUP1 PUSH4 0x8346CBEF EQ PUSH2 0xAB JUMPI JUMPDEST PUSH1 0x0 DUP1 REVERT JUMPDEST PUSH2 0x59 PUSH2 0xC9 JUMP JUMPDEST PUSH1 0x40 MLOAD PUSH2 0x66 SWAP2 SWAP1 PUSH2 0x7D1 JUMP JUMPDEST PUSH1 0x40 MLOAD DUP1 SWAP2 SUB SWAP1 RETURN JUMPDEST PUSH2 0x77 PUSH2 0x299 JUMP JUMPDEST PUSH1 0x40 MLOAD PUSH2 0x86 SWAP4 SWAP3 SWAP2 SWAP1 PUSH2 0x83D JUMP JUMPDEST PUSH1 0x40 MLOAD DUP1 SWAP2 SUB SWAP1 RETURN JUMPDEST PUSH2 0xA9 PUSH1 0x4 DUP1 CALLDATASIZE SUB DUP2 ADD SWAP1 PUSH2 0xA4 SWAP2 SWAP1 PUSH2 0x9D2 JUMP JUMPDEST PUSH2 0x449 JUMP JUMPDEST STOP JUMPDEST PUSH2 0xB3 PUSH2 0x4AF JUMP JUMPDEST PUSH1 0x40 MLOAD PUSH2 0xC0 SWAP2 SWAP1 PUSH2 0x7D1 JUMP JUMPDEST PUSH1 0x40 MLOAD DUP1 SWAP2 SUB SWAP1 RETURN JUMPDEST PUSH2 0xD1 PUSH2 0x6C2 JUMP JUMPDEST PUSH1 0x0 PUSH1 0x40 MLOAD DUP1 PUSH1 0x60 ADD PUSH1 0x40 MSTORE SWAP1 DUP2 PUSH1 0x0 DUP3 ADD DUP1 SLOAD PUSH2 0xEE SWAP1 PUSH2 0xAA8 JUMP JUMPDEST DUP1 PUSH1 0x1F ADD PUSH1 0x20 DUP1 SWAP2 DIV MUL PUSH1 0x20 ADD PUSH1 0x40 MLOAD SWAP1 DUP2 ADD PUSH1 0x40 MSTORE DUP1 SWAP3 SWAP2 SWAP1 DUP2 DUP2 MSTORE PUSH1 0x20 ADD DUP3 DUP1 SLOAD PUSH2 0x11A SWAP1 PUSH2 0xAA8 JUMP JUMPDEST DUP1 ISZERO PUSH2 0x167 JUMPI DUP1 PUSH1 0x1F LT PUSH2 0x13C JUMPI PUSH2 0x100 DUP1 DUP4 SLOAD DIV MUL DUP4 MSTORE SWAP2 PUSH1 0x20 ADD SWAP2 PUSH2 0x167 JUMP JUMPDEST DUP3 ADD SWAP2 SWAP1 PUSH1 0x0 MSTORE PUSH1 0x20 PUSH1 0x0 KECCAK256 SWAP1 JUMPDEST DUP2 SLOAD DUP2 MSTORE SWAP1 PUSH1 0x1 ADD SWAP1 PUSH1 0x20 ADD DUP1 DUP4 GT PUSH2 0x14A JUMPI DUP3 SWAP1 SUB PUSH1 0x1F AND DUP3 ADD SWAP2 JUMPDEST POP POP POP POP POP DUP2 MSTORE PUSH1 0x20 ADD PUSH1 0x1 DUP3 ADD DUP1 SLOAD PUSH2 0x180 SWAP1 PUSH2 0xAA8 JUMP JUMPDEST DUP1 PUSH1 0x1F ADD PUSH1 0x20 DUP1 SWAP2 DIV MUL PUSH1 0x20 ADD PUSH1 0x40 MLOAD SWAP1 DUP2 ADD PUSH1 0x40 MSTORE DUP1 SWAP3 SWAP2 SWAP1 DUP2 DUP2 MSTORE PUSH1 0x20 ADD DUP3 DUP1 SLOAD PUSH2 0x1AC SWAP1 PUSH2 0xAA8 JUMP JUMPDEST DUP1 ISZERO PUSH2 0x1F9 JUMPI DUP1 PUSH1 0x1F LT PUSH2 0x1CE JUMPI PUSH2 0x100 DUP1 DUP4 SLOAD DIV MUL DUP4 MSTORE SWAP2 PUSH1 0x20 ADD SWAP2 PUSH2 0x1F9 JUMP JUMPDEST DUP3 ADD SWAP2 SWAP1 PUSH1 0x0 MSTORE PUSH1 0x20 PUSH1 0x0 KECCAK256 SWAP1 JUMPDEST DUP2 SLOAD DUP2 MSTORE SWAP1 PUSH1 0x1 ADD SWAP1 PUSH1 0x20 ADD DUP1 DUP4 GT PUSH2 0x1DC JUMPI DUP3 SWAP1 SUB PUSH1 0x1F AND DUP3 ADD SWAP2 JUMPDEST POP POP POP POP POP DUP2 MSTORE PUSH1 0x20 ADD PUSH1 0x2 DUP3 ADD DUP1 SLOAD PUSH2 0x212 SWAP1 PUSH2 0xAA8 JUMP JUMPDEST DUP1 PUSH1 0x1F ADD PUSH1 0x20 DUP1 SWAP2 DIV MUL PUSH1 0x20 ADD PUSH1 0x40 MLOAD SWAP1 DUP2 ADD PUSH1 0x40 MSTORE DUP1 SWAP3 SWAP2 SWAP1 DUP2 DUP2 MSTORE PUSH1 0x20 ADD DUP3 DUP1 SLOAD PUSH2 0x23E SWAP1 PUSH2 0xAA8 JUMP JUMPDEST DUP1 ISZERO PUSH2 0x28B JUMPI DUP1 PUSH1 0x1F LT PUSH2 0x260 JUMPI PUSH2 0x100 DUP1 DUP4 SLOAD DIV MUL DUP4 MSTORE SWAP2 PUSH1 0x20 ADD SWAP2 PUSH2 0x28B JUMP JUMPDEST DUP3 ADD SWAP2 SWAP1 PUSH1 0x0 MSTORE PUSH1 0x20 PUSH1 0x0 KECCAK256 SWAP1 JUMPDEST DUP2 SLOAD DUP2 MSTORE SWAP1 PUSH1 0x1 ADD SWAP1 PUSH1 0x20 ADD DUP1 DUP4 GT PUSH2 0x26E JUMPI DUP3 SWAP1 SUB PUSH1 0x1F AND DUP3 ADD SWAP2 JUMPDEST POP POP POP POP POP DUP2 MSTORE POP POP SWAP1 POP SWAP1 JUMP JUMPDEST PUSH1 0x0 DUP1 PUSH1 0x0 ADD DUP1 SLOAD PUSH2 0x2AA SWAP1 PUSH2 0xAA8 JUMP JUMPDEST DUP1 PUSH1 0x1F ADD PUSH1 0x20 DUP1 SWAP2 DIV MUL PUSH1 0x20 ADD PUSH1 0x40 MLOAD SWAP1 DUP2 ADD PUSH1 0x40 MSTORE DUP1 SWAP3 SWAP2 SWAP1 DUP2 DUP2 MSTORE PUSH1 0x20 ADD DUP3 DUP1 SLOAD PUSH2 0x2D6 SWAP1 PUSH2 0xAA8 JUMP JUMPDEST DUP1 ISZERO PUSH2 0x323 JUMPI DUP1 PUSH1 0x1F LT PUSH2 0x2F8 JUMPI PUSH2 0x100 DUP1 DUP4 SLOAD DIV MUL DUP4 MSTORE SWAP2 PUSH1 0x20 ADD SWAP2 PUSH2 0x323 JUMP JUMPDEST DUP3 ADD SWAP2 SWAP1 PUSH1 0x0 MSTORE PUSH1 0x20 PUSH1 0x0 KECCAK256 SWAP1 JUMPDEST DUP2 SLOAD DUP2 MSTORE SWAP1 PUSH1 0x1 ADD SWAP1 PUSH1 0x20 ADD DUP1 DUP4 GT PUSH2 0x306 JUMPI DUP3 SWAP1 SUB PUSH1 0x1F AND DUP3 ADD SWAP2 JUMPDEST POP POP POP POP POP SWAP1 DUP1 PUSH1 0x1 ADD DUP1 SLOAD PUSH2 0x338 SWAP1 PUSH2 0xAA8 JUMP JUMPDEST DUP1 PUSH1 0x1F ADD PUSH1 0x20 DUP1 SWAP2 DIV MUL PUSH1 0x20 ADD PUSH1 0x40 MLOAD SWAP1 DUP2 ADD PUSH1 0x40 MSTORE DUP1 SWAP3 SWAP2 SWAP1 DUP2 DUP2 MSTORE PUSH1 0x20 ADD DUP3 DUP1 SLOAD PUSH2 0x364 SWAP1 PUSH2 0xAA8 JUMP JUMPDEST DUP1 ISZERO PUSH2 0x3B1 JUMPI DUP1 PUSH1 0x1F LT PUSH2 0x386 JUMPI PUSH2 0x100 DUP1 DUP4 SLOAD DIV MUL DUP4 MSTORE SWAP2 PUSH1 0x20 ADD SWAP2 PUSH2 0x3B1 JUMP JUMPDEST DUP3 ADD SWAP2 SWAP1 PUSH1 0x0 MSTORE PUSH1 0x20 PUSH1 0x0 KECCAK256 SWAP1 JUMPDEST DUP2 SLOAD DUP2 MSTORE SWAP1 PUSH1 0x1 ADD SWAP1 PUSH1 0x20 ADD DUP1 DUP4 GT PUSH2 0x394 JUMPI DUP3 SWAP1 SUB PUSH1 0x1F AND DUP3 ADD SWAP2 JUMPDEST POP POP POP POP POP SWAP1 DUP1 PUSH1 0x2 ADD DUP1 SLOAD PUSH2 0x3C6 SWAP1 PUSH2 0xAA8 JUMP JUMPDEST DUP1 PUSH1 0x1F ADD PUSH1 0x20 DUP1 SWAP2 DIV MUL PUSH1 0x20 ADD PUSH1 0x40 MLOAD SWAP1 DUP2 ADD PUSH1 0x40 MSTORE DUP1 SWAP3 SWAP2 SWAP1 DUP2 DUP2 MSTORE PUSH1 0x20 ADD DUP3 DUP1 SLOAD PUSH2 0x3F2 SWAP1 PUSH2 0xAA8 JUMP JUMPDEST DUP1 ISZERO PUSH2 0x43F JUMPI DUP1 PUSH1 0x1F LT PUSH2 0x414 JUMPI PUSH2 0x100 DUP1 DUP4 SLOAD DIV MUL DUP4 MSTORE SWAP2 PUSH1 0x20 ADD SWAP2 PUSH2 0x43F JUMP JUMPDEST DUP3 ADD SWAP2 SWAP1 PUSH1 0x0 MSTORE PUSH1 0x20 PUSH1 0x0 KECCAK256 SWAP1 JUMPDEST DUP2 SLOAD DUP2 MSTORE SWAP1 PUSH1 0x1 ADD SWAP1 PUSH1 0x20 ADD DUP1 DUP4 GT PUSH2 0x422 JUMPI DUP3 SWAP1 SUB PUSH1 0x1F AND DUP3 ADD SWAP2 JUMPDEST POP POP POP POP POP SWAP1 POP DUP4 JUMP JUMPDEST PUSH1 0x40 MLOAD DUP1 PUSH1 0x60 ADD PUSH1 0x40 MSTORE DUP1 DUP5 DUP2 MSTORE PUSH1 0x20 ADD DUP4 DUP2 MSTORE PUSH1 0x20 ADD DUP3 DUP2 MSTORE POP PUSH1 0x0 DUP1 DUP3 ADD MLOAD DUP2 PUSH1 0x0 ADD SWAP1 DUP2 PUSH2 0x47A SWAP2 SWAP1 PUSH2 0xC8F JUMP JUMPDEST POP PUSH1 0x20 DUP3 ADD MLOAD DUP2 PUSH1 0x1 ADD SWAP1 DUP2 PUSH2 0x490 SWAP2 SWAP1 PUSH2 0xC8F JUMP JUMPDEST POP PUSH1 0x40 DUP3 ADD MLOAD DUP2 PUSH1 0x2 ADD SWAP1 DUP2 PUSH2 0x4A6 SWAP2 SWAP1 PUSH2 0xC8F JUMP JUMPDEST POP SWAP1 POP POP POP POP POP JUMP JUMPDEST PUSH2 0x4B7 PUSH2 0x6C2 JUMP JUMPDEST PUSH1 0x0 DUP1 PUSH1 0x40 MLOAD DUP1 PUSH1 0x60 ADD PUSH1 0x40 MSTORE SWAP1 DUP2 PUSH1 0x0 DUP3 ADD DUP1 SLOAD PUSH2 0x4D5 SWAP1 PUSH2 0xAA8 JUMP JUMPDEST DUP1 PUSH1 0x1F ADD PUSH1 0x20 DUP1 SWAP2 DIV MUL PUSH1 0x20 ADD PUSH1 0x40 MLOAD SWAP1 DUP2 ADD PUSH1 0x40 MSTORE DUP1 SWAP3 SWAP2 SWAP1 DUP2 DUP2 MSTORE PUSH1 0x20 ADD DUP3 DUP1 SLOAD PUSH2 0x501 SWAP1 PUSH2 0xAA8 JUMP JUMPDEST DUP1 ISZERO PUSH2 0x54E JUMPI DUP1 PUSH1 0x1F LT PUSH2 0x523 JUMPI PUSH2 0x100 DUP1 DUP4 SLOAD DIV MUL DUP4 MSTORE SWAP2 PUSH1 0x20 ADD SWAP2 PUSH2 0x54E JUMP JUMPDEST DUP3 ADD SWAP2 SWAP1 PUSH1 0x0 MSTORE PUSH1 0x20 PUSH1 0x0 KECCAK256 SWAP1 JUMPDEST DUP2 SLOAD DUP2 MSTORE SWAP1 PUSH1 0x1 ADD SWAP1 PUSH1 0x20 ADD DUP1 DUP4 GT PUSH2 0x531 JUMPI DUP3 SWAP1 SUB PUSH1 0x1F AND DUP3 ADD SWAP2 JUMPDEST POP POP POP POP POP DUP2 MSTORE PUSH1 0x20 ADD PUSH1 0x1 DUP3 ADD DUP1 SLOAD PUSH2 0x567 SWAP1 PUSH2 0xAA8 JUMP JUMPDEST DUP1 PUSH1 0x1F ADD PUSH1 0x20 DUP1 SWAP2 DIV MUL PUSH1 0x20 ADD PUSH1 0x40 MLOAD SWAP1 DUP2 ADD PUSH1 0x40 MSTORE DUP1 SWAP3 SWAP2 SWAP1 DUP2 DUP2 MSTORE PUSH1 0x20 ADD DUP3 DUP1 SLOAD PUSH2 0x593 SWAP1 PUSH2 0xAA8 JUMP JUMPDEST DUP1 ISZERO PUSH2 0x5E0 JUMPI DUP1 PUSH1 0x1F LT PUSH2 0x5B5 JUMPI PUSH2 0x100 DUP1 DUP4 SLOAD DIV MUL DUP4 MSTORE SWAP2 PUSH1 0x20 ADD SWAP2 PUSH2 0x5E0 JUMP JUMPDEST DUP3 ADD SWAP2 SWAP1 PUSH1 0x0 MSTORE PUSH1 0x20 PUSH1 0x0 KECCAK256 SWAP1 JUMPDEST DUP2 SLOAD DUP2 MSTORE SWAP1 PUSH1 0x1 ADD SWAP1 PUSH1 0x20 ADD DUP1 DUP4 GT PUSH2 0x5C3 JUMPI DUP3 SWAP1 SUB PUSH1 0x1F AND DUP3 ADD SWAP2 JUMPDEST POP POP POP POP POP DUP2 MSTORE PUSH1 0x20 ADD PUSH1 0x2 DUP3 ADD DUP1 SLOAD PUSH2 0x5F9 SWAP1 PUSH2 0xAA8 JUMP JUMPDEST DUP1 PUSH1 0x1F ADD PUSH1 0x20 DUP1 SWAP2 DIV MUL PUSH1 0x20 ADD PUSH1 0x40 MLOAD SWAP1 DUP2 ADD PUSH1 0x40 MSTORE DUP1 SWAP3 SWAP2 SWAP1 DUP2 DUP2 MSTORE PUSH1 0x20 ADD DUP3 DUP1 SLOAD PUSH2 0x625 SWAP1 PUSH2 0xAA8 JUMP JUMPDEST DUP1 ISZERO PUSH2 0x672 JUMPI DUP1 PUSH1 0x1F LT PUSH2 0x647 JUMPI PUSH2 0x100 DUP1 DUP4 SLOAD DIV MUL DUP4 MSTORE SWAP2 PUSH1 0x20 ADD SWAP2 PUSH2 0x672 JUMP JUMPDEST DUP3 ADD SWAP2 SWAP1 PUSH1 0x0 MSTORE PUSH1 0x20 PUSH1 0x0 KECCAK256 SWAP1 JUMPDEST DUP2 SLOAD DUP2 MSTORE SWAP1 PUSH1 0x1 ADD SWAP1 PUSH1 0x20 ADD DUP1 DUP4 GT PUSH2 0x655 JUMPI DUP3 SWAP1 SUB PUSH1 0x1F AND DUP3 ADD SWAP2 JUMPDEST POP POP POP POP POP DUP2 MSTORE POP POP SWAP1 POP PUSH2 0x68A DUP2 PUSH1 0x40 ADD MLOAD PUSH2 0x699 JUMP JUMPDEST DUP2 PUSH1 0x40 ADD DUP2 SWAP1 MSTORE POP DUP1 SWAP2 POP POP SWAP1 JUMP JUMPDEST PUSH1 0x60 DUP2 PUSH1 0x40 MLOAD PUSH1 0x20 ADD PUSH2 0x6AC SWAP2 SWAP1 PUSH2 0xDC3 JUMP JUMPDEST PUSH1 0x40 MLOAD PUSH1 0x20 DUP2 DUP4 SUB SUB DUP2 MSTORE SWAP1 PUSH1 0x40 MSTORE SWAP1 POP SWAP2 SWAP1 POP JUMP JUMPDEST PUSH1 0x40 MLOAD DUP1 PUSH1 0x60 ADD PUSH1 0x40 MSTORE DUP1 PUSH1 0x60 DUP2 MSTORE PUSH1 0x20 ADD PUSH1 0x60 DUP2 MSTORE PUSH1 0x20 ADD PUSH1 0x60 DUP2 MSTORE POP SWAP1 JUMP JUMPDEST PUSH1 0x0 DUP2 MLOAD SWAP1 POP SWAP2 SWAP1 POP JUMP JUMPDEST PUSH1 0x0 DUP3 DUP3 MSTORE PUSH1 0x20 DUP3 ADD SWAP1 POP SWAP3 SWAP2 POP POP JUMP JUMPDEST PUSH1 0x0 JUMPDEST DUP4 DUP2 LT ISZERO PUSH2 0x71D JUMPI DUP1 DUP3 ADD MLOAD DUP2 DUP5 ADD MSTORE PUSH1 0x20 DUP2 ADD SWAP1 POP PUSH2 0x702 JUMP JUMPDEST PUSH1 0x0 DUP5 DUP5 ADD MSTORE POP POP POP POP JUMP JUMPDEST PUSH1 0x0 PUSH1 0x1F NOT PUSH1 0x1F DUP4 ADD AND SWAP1 POP SWAP2 SWAP1 POP JUMP JUMPDEST PUSH1 0x0 PUSH2 0x745 DUP3 PUSH2 0x6E3 JUMP JUMPDEST PUSH2 0x74F DUP2 DUP6 PUSH2 0x6EE JUMP JUMPDEST SWAP4 POP PUSH2 0x75F DUP2 DUP6 PUSH1 0x20 DUP7 ADD PUSH2 0x6FF JUMP JUMPDEST PUSH2 0x768 DUP2 PUSH2 0x729 JUMP JUMPDEST DUP5 ADD SWAP2 POP POP SWAP3 SWAP2 POP POP JUMP JUMPDEST PUSH1 0x0 PUSH1 0x60 DUP4 ADD PUSH1 0x0 DUP4 ADD MLOAD DUP5 DUP3 SUB PUSH1 0x0 DUP7 ADD MSTORE PUSH2 0x790 DUP3 DUP3 PUSH2 0x73A JUMP JUMPDEST SWAP2 POP POP PUSH1 0x20 DUP4 ADD MLOAD DUP5 DUP3 SUB PUSH1 0x20 DUP7 ADD MSTORE PUSH2 0x7AA DUP3 DUP3 PUSH2 0x73A JUMP JUMPDEST SWAP2 POP POP PUSH1 0x40 DUP4 ADD MLOAD DUP5 DUP3 SUB PUSH1 0x40 DUP7 ADD MSTORE PUSH2 0x7C4 DUP3 DUP3 PUSH2 0x73A JUMP JUMPDEST SWAP2 POP POP DUP1 SWAP2 POP POP SWAP3 SWAP2 POP POP JUMP JUMPDEST PUSH1 0x0 PUSH1 0x20 DUP3 ADD SWAP1 POP DUP2 DUP2 SUB PUSH1 0x0 DUP4 ADD MSTORE PUSH2 0x7EB DUP2 DUP5 PUSH2 0x773 JUMP JUMPDEST SWAP1 POP SWAP3 SWAP2 POP POP JUMP JUMPDEST PUSH1 0x0 DUP3 DUP3 MSTORE PUSH1 0x20 DUP3 ADD SWAP1 POP SWAP3 SWAP2 POP POP JUMP JUMPDEST PUSH1 0x0 PUSH2 0x80F DUP3 PUSH2 0x6E3 JUMP JUMPDEST PUSH2 0x819 DUP2 DUP6 PUSH2 0x7F3 JUMP JUMPDEST SWAP4 POP PUSH2 0x829 DUP2 DUP6 PUSH1 0x20 DUP7 ADD PUSH2 0x6FF JUMP JUMPDEST PUSH2 0x832 DUP2 PUSH2 0x729 JUMP JUMPDEST DUP5 ADD SWAP2 POP POP SWAP3 SWAP2 POP POP JUMP JUMPDEST PUSH1 0x0 PUSH1 0x60 DUP3 ADD SWAP1 POP DUP2 DUP2 SUB PUSH1 0x0 DUP4 ADD MSTORE PUSH2 0x857 DUP2 DUP7 PUSH2 0x804 JUMP JUMPDEST SWAP1 POP DUP2 DUP2 SUB PUSH1 0x20 DUP4 ADD MSTORE PUSH2 0x86B DUP2 DUP6 PUSH2 0x804 JUMP JUMPDEST SWAP1 POP DUP2 DUP2 SUB PUSH1 0x40 DUP4 ADD MSTORE PUSH2 0x87F DUP2 DUP5 PUSH2 0x804 JUMP JUMPDEST SWAP1 POP SWAP5 SWAP4 POP POP POP POP JUMP JUMPDEST PUSH1 0x0 PUSH1 0x40 MLOAD SWAP1 POP SWAP1 JUMP JUMPDEST PUSH1 0x0 DUP1 REVERT JUMPDEST PUSH1 0x0 DUP1 REVERT JUMPDEST PUSH1 0x0 DUP1 REVERT JUMPDEST PUSH1 0x0 DUP1 REVERT JUMPDEST PUSH32 0x4E487B7100000000000000000000000000000000000000000000000000000000 PUSH1 0x0 MSTORE PUSH1 0x41 PUSH1 0x4 MSTORE PUSH1 0x24 PUSH1 0x0 REVERT JUMPDEST PUSH2 0x8DF DUP3 PUSH2 0x729 JUMP JUMPDEST DUP2 ADD DUP2 DUP2 LT PUSH8 0xFFFFFFFFFFFFFFFF DUP3 GT OR ISZERO PUSH2 0x8FE JUMPI PUSH2 0x8FD PUSH2 0x8A7 JUMP JUMPDEST JUMPDEST DUP1 PUSH1 0x40 MSTORE POP POP POP JUMP JUMPDEST PUSH1 0x0 PUSH2 0x911 PUSH2 0x889 JUMP JUMPDEST SWAP1 POP PUSH2 0x91D DUP3 DUP3 PUSH2 0x8D6 JUMP JUMPDEST SWAP2 SWAP1 POP JUMP JUMPDEST PUSH1 0x0 PUSH8 0xFFFFFFFFFFFFFFFF DUP3 GT ISZERO PUSH2 0x93D JUMPI PUSH2 0x93C PUSH2 0x8A7 JUMP JUMPDEST JUMPDEST PUSH2 0x946 DUP3 PUSH2 0x729 JUMP JUMPDEST SWAP1 POP PUSH1 0x20 DUP2 ADD SWAP1 POP SWAP2 SWAP1 POP JUMP JUMPDEST DUP3 DUP2 DUP4 CALLDATACOPY PUSH1 0x0 DUP4 DUP4 ADD MSTORE POP POP POP JUMP JUMPDEST PUSH1 0x0 PUSH2 0x975 PUSH2 0x970 DUP5 PUSH2 0x922 JUMP JUMPDEST PUSH2 0x907 JUMP JUMPDEST SWAP1 POP DUP3 DUP2 MSTORE PUSH1 0x20 DUP2 ADD DUP5 DUP5 DUP5 ADD GT ISZERO PUSH2 0x991 JUMPI PUSH2 0x990 PUSH2 0x8A2 JUMP JUMPDEST JUMPDEST PUSH2 0x99C DUP5 DUP3 DUP6 PUSH2 0x953 JUMP JUMPDEST POP SWAP4 SWAP3 POP POP POP JUMP JUMPDEST PUSH1 0x0 DUP3 PUSH1 0x1F DUP4 ADD SLT PUSH2 0x9B9 JUMPI PUSH2 0x9B8 PUSH2 0x89D JUMP JUMPDEST JUMPDEST DUP2 CALLDATALOAD PUSH2 0x9C9 DUP5 DUP3 PUSH1 0x20 DUP7 ADD PUSH2 0x962 JUMP JUMPDEST SWAP2 POP POP SWAP3 SWAP2 POP POP JUMP JUMPDEST PUSH1 0x0 DUP1 PUSH1 0x0 PUSH1 0x60 DUP5 DUP7 SUB SLT ISZERO PUSH2 0x9EB JUMPI PUSH2 0x9EA PUSH2 0x893 JUMP JUMPDEST JUMPDEST PUSH1 0x0 DUP5 ADD CALLDATALOAD PUSH8 0xFFFFFFFFFFFFFFFF DUP2 GT ISZERO PUSH2 0xA09 JUMPI PUSH2 0xA08 PUSH2 0x898 JUMP JUMPDEST JUMPDEST PUSH2 0xA15 DUP7 DUP3 DUP8 ADD PUSH2 0x9A4 JUMP JUMPDEST SWAP4 POP POP PUSH1 0x20 DUP5 ADD CALLDATALOAD PUSH8 0xFFFFFFFFFFFFFFFF DUP2 GT ISZERO PUSH2 0xA36 JUMPI PUSH2 0xA35 PUSH2 0x898 JUMP JUMPDEST JUMPDEST PUSH2 0xA42 DUP7 DUP3 DUP8 ADD PUSH2 0x9A4 JUMP JUMPDEST SWAP3 POP POP PUSH1 0x40 DUP5 ADD CALLDATALOAD PUSH8 0xFFFFFFFFFFFFFFFF DUP2 GT ISZERO PUSH2 0xA63 JUMPI PUSH2 0xA62 PUSH2 0x898 JUMP JUMPDEST JUMPDEST PUSH2 0xA6F DUP7 DUP3 DUP8 ADD PUSH2 0x9A4 JUMP JUMPDEST SWAP2 POP POP SWAP3 POP SWAP3 POP SWAP3 JUMP JUMPDEST PUSH32 0x4E487B7100000000000000000000000000000000000000000000000000000000 PUSH1 0x0 MSTORE PUSH1 0x22 PUSH1 0x4 MSTORE PUSH1 0x24 PUSH1 0x0 REVERT JUMPDEST PUSH1 0x0 PUSH1 0x2 DUP3 DIV SWAP1 POP PUSH1 0x1 DUP3 AND DUP1 PUSH2 0xAC0 JUMPI PUSH1 0x7F DUP3 AND SWAP2 POP JUMPDEST PUSH1 0x20 DUP3 LT DUP2 SUB PUSH2 0xAD3 JUMPI PUSH2 0xAD2 PUSH2 0xA79 JUMP JUMPDEST JUMPDEST POP SWAP2 SWAP1 POP JUMP JUMPDEST PUSH1 0x0 DUP2 SWAP1 POP DUP2 PUSH1 0x0 MSTORE PUSH1 0x20 PUSH1 0x0 KECCAK256 SWAP1 POP SWAP2 SWAP1 POP JUMP JUMPDEST PUSH1 0x0 PUSH1 0x20 PUSH1 0x1F DUP4 ADD DIV SWAP1 POP SWAP2 SWAP1 POP JUMP JUMPDEST PUSH1 0x0 DUP3 DUP3 SHL SWAP1 POP SWAP3 SWAP2 POP POP JUMP JUMPDEST PUSH1 0x0 PUSH1 0x8 DUP4 MUL PUSH2 0xB3B PUSH32 0xFFFFFFFFFFFFFFFFFFFFFFFFFFFFFFFFFFFFFFFFFFFFFFFFFFFFFFFFFFFFFFFF DUP3 PUSH2 0xAFE JUMP JUMPDEST PUSH2 0xB45 DUP7 DUP4 PUSH2 0xAFE JUMP JUMPDEST SWAP6 POP DUP1 NOT DUP5 AND SWAP4 POP DUP1 DUP7 AND DUP5 OR SWAP3 POP POP POP SWAP4 SWAP3 POP POP POP JUMP JUMPDEST PUSH1 0x0 DUP2 SWAP1 POP SWAP2 SWAP1 POP JUMP JUMPDEST PUSH1 0x0 DUP2 SWAP1 POP SWAP2 SWAP1 POP JUMP JUMPDEST PUSH1 0x0 PUSH2 0xB8C PUSH2 0xB87 PUSH2 0xB82 DUP5 PUSH2 0xB5D JUMP JUMPDEST PUSH2 0xB67 JUMP JUMPDEST PUSH2 0xB5D JUMP JUMPDEST SWAP1 POP SWAP2 SWAP1 POP JUMP JUMPDEST PUSH1 0x0 DUP2 SWAP1 POP SWAP2 SWAP1 POP JUMP JUMPDEST PUSH2 0xBA6 DUP4 PUSH2 0xB71 JUMP JUMPDEST PUSH2 0xBBA PUSH2 0xBB2 DUP3 PUSH2 0xB93 JUMP JUMPDEST DUP5 DUP5 SLOAD PUSH2 0xB0B JUMP JUMPDEST DUP3 SSTORE POP POP POP POP JUMP JUMPDEST PUSH1 0x0 SWAP1 JUMP JUMPDEST PUSH2 0xBCF PUSH2 0xBC2 JUMP JUMPDEST PUSH2 0xBDA DUP2 DUP5 DUP5 PUSH2 0xB9D JUMP JUMPDEST POP POP POP JUMP JUMPDEST JUMPDEST DUP2 DUP2 LT ISZERO PUSH2 0xBFE JUMPI PUSH2 0xBF3 PUSH1 0x0 DUP3 PUSH2 0xBC7 JUMP JUMPDEST PUSH1 0x1 DUP2 ADD SWAP1 POP PUSH2 0xBE0 JUMP JUMPDEST POP POP JUMP JUMPDEST PUSH1 0x1F DUP3 GT ISZERO PUSH2 0xC43 JUMPI PUSH2 0xC14 DUP2 PUSH2 0xAD9 JUMP JUMPDEST PUSH2 0xC1D DUP5 PUSH2 0xAEE JUMP JUMPDEST DUP2 ADD PUSH1 0x20 DUP6 LT ISZERO PUSH2 0xC2C JUMPI DUP2 SWAP1 POP JUMPDEST PUSH2 0xC40 PUSH2 0xC38 DUP6 PUSH2 0xAEE JUMP JUMPDEST DUP4 ADD DUP3 PUSH2 0xBDF JUMP JUMPDEST POP POP JUMPDEST POP POP POP JUMP JUMPDEST PUSH1 0x0 DUP3 DUP3 SHR SWAP1 POP SWAP3 SWAP2 POP POP JUMP JUMPDEST PUSH1 0x0 PUSH2 0xC66 PUSH1 0x0 NOT DUP5 PUSH1 0x8 MUL PUSH2 0xC48 JUMP JUMPDEST NOT DUP1 DUP4 AND SWAP2 POP POP SWAP3 SWAP2 POP POP JUMP JUMPDEST PUSH1 0x0 PUSH2 0xC7F DUP4 DUP4 PUSH2 0xC55 JUMP JUMPDEST SWAP2 POP DUP3 PUSH1 0x2 MUL DUP3 OR SWAP1 POP SWAP3 SWAP2 POP POP JUMP JUMPDEST PUSH2 0xC98 DUP3 PUSH2 0x6E3 JUMP JUMPDEST PUSH8 0xFFFFFFFFFFFFFFFF DUP2 GT ISZERO PUSH2 0xCB1 JUMPI PUSH2 0xCB0 PUSH2 0x8A7 JUMP JUMPDEST JUMPDEST PUSH2 0xCBB DUP3 SLOAD PUSH2 0xAA8 JUMP JUMPDEST PUSH2 0xCC6 DUP3 DUP3 DUP6 PUSH2 0xC02 JUMP JUMPDEST PUSH1 0x0 PUSH1 0x20 SWAP1 POP PUSH1 0x1F DUP4 GT PUSH1 0x1 DUP2 EQ PUSH2 0xCF9 JUMPI PUSH1 0x0 DUP5 ISZERO PUSH2 0xCE7 JUMPI DUP3 DUP8 ADD MLOAD SWAP1 POP JUMPDEST PUSH2 0xCF1 DUP6 DUP3 PUSH2 0xC73 JUMP JUMPDEST DUP7 SSTORE POP PUSH2 0xD59 JUMP JUMPDEST PUSH1 0x1F NOT DUP5 AND PUSH2 0xD07 DUP7 PUSH2 0xAD9 JUMP JUMPDEST PUSH1 0x0 JUMPDEST DUP3 DUP2 LT ISZERO PUSH2 0xD2F JUMPI DUP5 DUP10 ADD MLOAD DUP3 SSTORE PUSH1 0x1 DUP3 ADD SWAP2 POP PUSH1 0x20 DUP6 ADD SWAP5 POP PUSH1 0x20 DUP2 ADD SWAP1 POP PUSH2 0xD0A JUMP JUMPDEST DUP7 DUP4 LT ISZERO PUSH2 0xD4C JUMPI DUP5 DUP10 ADD MLOAD PUSH2 0xD48 PUSH1 0x1F DUP10 AND DUP3 PUSH2 0xC55 JUMP JUMPDEST DUP4 SSTORE POP JUMPDEST PUSH1 0x1 PUSH1 0x2 DUP9 MUL ADD DUP9 SSTORE POP POP POP JUMPDEST POP POP POP POP POP POP JUMP JUMPDEST PUSH1 0x0 DUP2 SWAP1 POP SWAP3 SWAP2 POP POP JUMP JUMPDEST PUSH1 0x0 PUSH2 0xD77 DUP3 PUSH2 0x6E3 JUMP JUMPDEST PUSH2 0xD81 DUP2 DUP6 PUSH2 0xD61 JUMP JUMPDEST SWAP4 POP PUSH2 0xD91 DUP2 DUP6 PUSH1 0x20 DUP7 ADD PUSH2 0x6FF JUMP JUMPDEST DUP1 DUP5 ADD SWAP2 POP POP SWAP3 SWAP2 POP POP JUMP JUMPDEST PUSH32 0x20F09FA4B7000000000000000000000000000000000000000000000000000000 DUP2 MSTORE POP JUMP JUMPDEST PUSH1 0x0 PUSH2 0xDCF DUP3 DUP5 PUSH2 0xD6C JUMP JUMPDEST SWAP2 POP PUSH2 0xDDA DUP3 PUSH2 0xD9D JUMP JUMPDEST PUSH1 0x5 DUP3 ADD SWAP2 POP DUP2 SWAP1 POP SWAP3 SWAP2 POP POP JUMP INVALID LOG2 PUSH5 0x6970667358 0x22 SLT KECCAK256 DUP9 PUSH23 0x2450EE81CA08F0BCC440EFCE36F4FD16F201D7E12B46EF 0x2E PUSH15 0x3046D0439264736F6C634300081100 CALLER "
				},
				"gasEstimates": {
					"creation": {
						"codeDepositCost": "723000",
						"executionCost": "753",
						"totalCost": "723753"
					},
					"external": {
						"Haiku()": "infinite",
						"getHaiku()": "infinite",
						"saveHaiku(string,string,string)": "infinite",
						"shruggieHaiku()": "infinite"
					}
				},
				"methodIdentifiers": {
					"Haiku()": "2cecf5e2",
					"getHaiku()": "25eb69a9",
					"saveHaiku(string,string,string)": "583dc769",
					"shruggieHaiku()": "8346cbef"
				}
			},
			"storageLayout": {
				"storage": [
					{
						"astId": 8,
						"contract": "contracts/ImportsExercise.sol:ImportsExercise",
						"label": "Haiku",
						"offset": 0,
						"slot": "0",
						"type": "t_struct(Haiku)71_storage"
					}
				],
				"types": {
					"t_string_storage": {
						"encoding": "bytes",
						"label": "string",
						"numberOfBytes": "32"
					},
					"t_struct(Haiku)71_storage": {
						"encoding": "inplace",
						"label": "struct SillyStringUtils.Haiku",
						"members": [
							{
								"astId": 66,
								"contract": "contracts/ImportsExercise.sol:ImportsExercise",
								"label": "line1",
								"offset": 0,
								"slot": "0",
								"type": "t_string_storage"
							},
							{
								"astId": 68,
								"contract": "contracts/ImportsExercise.sol:ImportsExercise",
								"label": "line2",
								"offset": 0,
								"slot": "1",
								"type": "t_string_storage"
							},
							{
								"astId": 70,
								"contract": "contracts/ImportsExercise.sol:ImportsExercise",
								"label": "line3",
								"offset": 0,
								"slot": "2",
								"type": "t_string_storage"
							}
						],
						"numberOfBytes": "96"
					}
				}
			},
			"userdoc": {
				"kind": "user",
				"methods": {},
				"version": 1
			}
		}
	}
}