{
	"contracts/ErrorTriageExercise.sol": {
		"ErrorTriageExercise": {
			"abi": [
				{
					"inputs": [
						{
							"internalType": "uint256",
							"name": "_base",
							"type": "uint256"
						},
						{
							"internalType": "int256",
							"name": "_modifier",
							"type": "int256"
						}
					],
					"name": "ModifierCausesOverflow",
					"type": "error"
				},
				{
					"inputs": [
						{
							"internalType": "uint256",
							"name": "_num",
							"type": "uint256"
						}
					],
					"name": "addToArr",
					"outputs": [],
					"stateMutability": "nonpayable",
					"type": "function"
				},
				{
					"inputs": [
						{
							"internalType": "uint256",
							"name": "_base",
							"type": "uint256"
						},
						{
							"internalType": "int256",
							"name": "_modifier",
							"type": "int256"
						}
					],
					"name": "applyModifier",
					"outputs": [
						{
							"internalType": "uint256",
							"name": "",
							"type": "uint256"
						}
					],
					"stateMutability": "pure",
					"type": "function"
				},
				{
					"inputs": [
						{
							"internalType": "uint256",
							"name": "_a",
							"type": "uint256"
						},
						{
							"internalType": "uint256",
							"name": "_b",
							"type": "uint256"
						},
						{
							"internalType": "uint256",
							"name": "_c",
							"type": "uint256"
						},
						{
							"internalType": "uint256",
							"name": "_d",
							"type": "uint256"
						}
					],
					"name": "diffWithNeighbor",
					"outputs": [
						{
							"internalType": "uint256[]",
							"name": "",
							"type": "uint256[]"
						}
					],
					"stateMutability": "pure",
					"type": "function"
				},
				{
					"inputs": [],
					"name": "getArr",
					"outputs": [
						{
							"internalType": "uint256[]",
							"name": "",
							"type": "uint256[]"
						}
					],
					"stateMutability": "view",
					"type": "function"
				},
				{
					"inputs": [],
					"name": "popWithReturn",
					"outputs": [
						{
							"internalType": "uint256",
							"name": "",
							"type": "uint256"
						}
					],
					"stateMutability": "nonpayable",
					"type": "function"
				},
				{
					"inputs": [],
					"name": "resetArr",
					"outputs": [],
					"stateMutability": "nonpayable",
					"type": "function"
				}
			],
			"devdoc": {
				"kind": "dev",
				"methods": {},
				"version": 1
			},
			"evm": {
				"assembly": "    /* \"contracts/ErrorTriageExercise.sol\":59:2221  contract ErrorTriageExercise {... */\n  mstore(0x40, 0x80)\n  callvalue\n  dup1\n  iszero\n  tag_1\n  jumpi\n  0x00\n  dup1\n  revert\ntag_1:\n  pop\n  dataSize(sub_0)\n  dup1\n  dataOffset(sub_0)\n  0x00\n  codecopy\n  0x00\n  return\nstop\n\nsub_0: assembly {\n        /* \"contracts/ErrorTriageExercise.sol\":59:2221  contract ErrorTriageExercise {... */\n      mstore(0x40, 0x80)\n      callvalue\n      dup1\n      iszero\n      tag_1\n      jumpi\n      0x00\n      dup1\n      revert\n    tag_1:\n      pop\n      jumpi(tag_2, lt(calldatasize, 0x04))\n      shr(0xe0, calldataload(0x00))\n      dup1\n      0x1abe2ac2\n      eq\n      tag_3\n      jumpi\n      dup1\n      0x29432314\n      eq\n      tag_4\n      jumpi\n      dup1\n      0x64529db5\n      eq\n      tag_5\n      jumpi\n      dup1\n      0xe1819ff9\n      eq\n      tag_6\n      jumpi\n      dup1\n      0xf74e51ea\n      eq\n      tag_7\n      jumpi\n      dup1\n      0xfb8cbced\n      eq\n      tag_8\n      jumpi\n    tag_2:\n      0x00\n      dup1\n      revert\n        /* \"contracts/ErrorTriageExercise.sol\":1637:1934  function popWithReturn() public returns (uint256) {... */\n    tag_3:\n      tag_9\n      tag_10\n      jump\t// in\n    tag_9:\n      mload(0x40)\n      tag_11\n      swap2\n      swap1\n      tag_12\n      jump\t// in\n    tag_11:\n      mload(0x40)\n      dup1\n      swap2\n      sub\n      swap1\n      return\n        /* \"contracts/ErrorTriageExercise.sol\":283:937  function diffWithNeighbor(... */\n    tag_4:\n      tag_13\n      0x04\n      dup1\n      calldatasize\n      sub\n      dup2\n      add\n      swap1\n      tag_14\n      swap2\n      swap1\n      tag_15\n      jump\t// in\n    tag_14:\n      tag_16\n      jump\t// in\n    tag_13:\n      mload(0x40)\n      tag_17\n      swap2\n      swap1\n      tag_18\n      jump\t// in\n    tag_17:\n      mload(0x40)\n      dup1\n      swap2\n      sub\n      swap1\n      return\n        /* \"contracts/ErrorTriageExercise.sol\":2165:2219  function resetArr() public {... */\n    tag_5:\n      tag_19\n      tag_20\n      jump\t// in\n    tag_19:\n      stop\n        /* \"contracts/ErrorTriageExercise.sol\":1999:2069  function addToArr(uint256 _num) public {... */\n    tag_6:\n      tag_21\n      0x04\n      dup1\n      calldatasize\n      sub\n      dup2\n      add\n      swap1\n      tag_22\n      swap2\n      swap1\n      tag_23\n      jump\t// in\n    tag_22:\n      tag_24\n      jump\t// in\n    tag_21:\n      stop\n        /* \"contracts/ErrorTriageExercise.sol\":1158:1453  function applyModifier(... */\n    tag_7:\n      tag_25\n      0x04\n      dup1\n      calldatasize\n      sub\n      dup2\n      add\n      swap1\n      tag_26\n      swap2\n      swap1\n      tag_27\n      jump\t// in\n    tag_26:\n      tag_28\n      jump\t// in\n    tag_25:\n      mload(0x40)\n      tag_29\n      swap2\n      swap1\n      tag_12\n      jump\t// in\n    tag_29:\n      mload(0x40)\n      dup1\n      swap2\n      sub\n      swap1\n      return\n        /* \"contracts/ErrorTriageExercise.sol\":2075:2159  function getArr() public view returns (uint256[] memory) {... */\n    tag_8:\n      tag_30\n      tag_31\n      jump\t// in\n    tag_30:\n      mload(0x40)\n      tag_32\n      swap2\n      swap1\n      tag_18\n      jump\t// in\n    tag_32:\n      mload(0x40)\n      dup1\n      swap2\n      sub\n      swap1\n      return\n        /* \"contracts/ErrorTriageExercise.sol\":1637:1934  function popWithReturn() public returns (uint256) {... */\n    tag_10:\n        /* \"contracts/ErrorTriageExercise.sol\":1678:1685  uint256 */\n      0x00\n        /* \"contracts/ErrorTriageExercise.sol\":1718:1719  0 */\n      dup1\n        /* \"contracts/ErrorTriageExercise.sol\":1705:1708  arr */\n      0x00\n        /* \"contracts/ErrorTriageExercise.sol\":1705:1715  arr.length */\n      dup1\n      sload\n      swap1\n      pop\n        /* \"contracts/ErrorTriageExercise.sol\":1705:1719  arr.length > 0 */\n      gt\n        /* \"contracts/ErrorTriageExercise.sol\":1697:1738  require(arr.length > 0, \"Array is empty\") */\n      tag_34\n      jumpi\n      mload(0x40)\n      0x08c379a000000000000000000000000000000000000000000000000000000000\n      dup2\n      mstore\n      0x04\n      add\n      tag_35\n      swap1\n      tag_36\n      jump\t// in\n    tag_35:\n      mload(0x40)\n      dup1\n      swap2\n      sub\n      swap1\n      revert\n    tag_34:\n        /* \"contracts/ErrorTriageExercise.sol\":1749:1762  uint256 index */\n      0x00\n        /* \"contracts/ErrorTriageExercise.sol\":1778:1779  1 */\n      0x01\n        /* \"contracts/ErrorTriageExercise.sol\":1765:1768  arr */\n      0x00\n        /* \"contracts/ErrorTriageExercise.sol\":1765:1775  arr.length */\n      dup1\n      sload\n      swap1\n      pop\n        /* \"contracts/ErrorTriageExercise.sol\":1765:1779  arr.length - 1 */\n      tag_37\n      swap2\n      swap1\n      tag_38\n      jump\t// in\n    tag_37:\n        /* \"contracts/ErrorTriageExercise.sol\":1749:1779  uint256 index = arr.length - 1 */\n      swap1\n      pop\n        /* \"contracts/ErrorTriageExercise.sol\":1789:1808  uint256 poppedValue */\n      0x00\n        /* \"contracts/ErrorTriageExercise.sol\":1811:1814  arr */\n      dup1\n        /* \"contracts/ErrorTriageExercise.sol\":1815:1820  index */\n      dup3\n        /* \"contracts/ErrorTriageExercise.sol\":1811:1821  arr[index] */\n      dup2\n      sload\n      dup2\n      lt\n      tag_39\n      jumpi\n      tag_40\n      tag_41\n      jump\t// in\n    tag_40:\n    tag_39:\n      swap1\n      0x00\n      mstore\n      keccak256(0x00, 0x20)\n      add\n      sload\n        /* \"contracts/ErrorTriageExercise.sol\":1789:1821  uint256 poppedValue = arr[index] */\n      swap1\n      pop\n        /* \"contracts/ErrorTriageExercise.sol\":1889:1892  arr */\n      0x00\n        /* \"contracts/ErrorTriageExercise.sol\":1889:1898  arr.pop() */\n      dup1\n      sload\n      dup1\n      tag_43\n      jumpi\n      tag_44\n      tag_45\n      jump\t// in\n    tag_44:\n    tag_43:\n      0x01\n      swap1\n      sub\n      dup2\n      dup2\n      swap1\n      0x00\n      mstore\n      keccak256(0x00, 0x20)\n      add\n      0x00\n      swap1\n      sstore\n      swap1\n      sstore\n        /* \"contracts/ErrorTriageExercise.sol\":1916:1927  poppedValue */\n      dup1\n        /* \"contracts/ErrorTriageExercise.sol\":1909:1927  return poppedValue */\n      swap3\n      pop\n      pop\n      pop\n        /* \"contracts/ErrorTriageExercise.sol\":1637:1934  function popWithReturn() public returns (uint256) {... */\n      swap1\n      jump\t// out\n        /* \"contracts/ErrorTriageExercise.sol\":283:937  function diffWithNeighbor(... */\n    tag_16:\n        /* \"contracts/ErrorTriageExercise.sol\":416:432  uint256[] memory */\n      0x60\n        /* \"contracts/ErrorTriageExercise.sol\":444:468  uint256[] memory results */\n      0x00\n        /* \"contracts/ErrorTriageExercise.sol\":485:486  3 */\n      0x03\n        /* \"contracts/ErrorTriageExercise.sol\":471:487  new uint256[](3) */\n      0xffffffffffffffff\n      dup2\n      gt\n      iszero\n      tag_48\n      jumpi\n      tag_49\n      tag_50\n      jump\t// in\n    tag_49:\n    tag_48:\n      mload(0x40)\n      swap1\n      dup1\n      dup3\n      mstore\n      dup1\n      0x20\n      mul\n      0x20\n      add\n      dup3\n      add\n      0x40\n      mstore\n      dup1\n      iszero\n      tag_51\n      jumpi\n      dup2\n      0x20\n      add\n      0x20\n      dup3\n      mul\n      dup1\n      calldatasize\n      dup4\n      calldatacopy\n      dup1\n      dup3\n      add\n      swap2\n      pop\n      pop\n      swap1\n      pop\n    tag_51:\n      pop\n        /* \"contracts/ErrorTriageExercise.sol\":444:487  uint256[] memory results = new uint256[](3) */\n      swap1\n      pop\n        /* \"contracts/ErrorTriageExercise.sol\":568:570  _b */\n      dup5\n        /* \"contracts/ErrorTriageExercise.sol\":563:565  _a */\n      dup7\n        /* \"contracts/ErrorTriageExercise.sol\":563:570  _a > _b */\n      gt\n        /* \"contracts/ErrorTriageExercise.sol\":559:668  if (_a > _b) {... */\n      iszero\n      tag_52\n      jumpi\n        /* \"contracts/ErrorTriageExercise.sol\":604:606  _b */\n      dup5\n        /* \"contracts/ErrorTriageExercise.sol\":599:601  _a */\n      dup7\n        /* \"contracts/ErrorTriageExercise.sol\":599:606  _a - _b */\n      tag_53\n      swap2\n      swap1\n      tag_38\n      jump\t// in\n    tag_53:\n        /* \"contracts/ErrorTriageExercise.sol\":586:593  results */\n      dup2\n        /* \"contracts/ErrorTriageExercise.sol\":594:595  0 */\n      0x00\n        /* \"contracts/ErrorTriageExercise.sol\":586:596  results[0] */\n      dup2\n      mload\n      dup2\n      lt\n      tag_54\n      jumpi\n      tag_55\n      tag_41\n      jump\t// in\n    tag_55:\n    tag_54:\n      0x20\n      mul\n      0x20\n      add\n      add\n        /* \"contracts/ErrorTriageExercise.sol\":586:606  results[0] = _a - _b */\n      dup2\n      dup2\n      mstore\n      pop\n      pop\n        /* \"contracts/ErrorTriageExercise.sol\":559:668  if (_a > _b) {... */\n      jump(tag_56)\n    tag_52:\n        /* \"contracts/ErrorTriageExercise.sol\":655:657  _a */\n      dup6\n        /* \"contracts/ErrorTriageExercise.sol\":650:652  _b */\n      dup6\n        /* \"contracts/ErrorTriageExercise.sol\":650:657  _b - _a */\n      tag_57\n      swap2\n      swap1\n      tag_38\n      jump\t// in\n    tag_57:\n        /* \"contracts/ErrorTriageExercise.sol\":637:644  results */\n      dup2\n        /* \"contracts/ErrorTriageExercise.sol\":645:646  0 */\n      0x00\n        /* \"contracts/ErrorTriageExercise.sol\":637:647  results[0] */\n      dup2\n      mload\n      dup2\n      lt\n      tag_58\n      jumpi\n      tag_59\n      tag_41\n      jump\t// in\n    tag_59:\n    tag_58:\n      0x20\n      mul\n      0x20\n      add\n      add\n        /* \"contracts/ErrorTriageExercise.sol\":637:657  results[0] = _b - _a */\n      dup2\n      dup2\n      mstore\n      pop\n      pop\n        /* \"contracts/ErrorTriageExercise.sol\":559:668  if (_a > _b) {... */\n    tag_56:\n        /* \"contracts/ErrorTriageExercise.sol\":687:689  _c */\n      dup4\n        /* \"contracts/ErrorTriageExercise.sol\":682:684  _b */\n      dup6\n        /* \"contracts/ErrorTriageExercise.sol\":682:689  _b > _c */\n      gt\n        /* \"contracts/ErrorTriageExercise.sol\":678:787  if (_b > _c) {... */\n      iszero\n      tag_60\n      jumpi\n        /* \"contracts/ErrorTriageExercise.sol\":723:725  _c */\n      dup4\n        /* \"contracts/ErrorTriageExercise.sol\":718:720  _b */\n      dup6\n        /* \"contracts/ErrorTriageExercise.sol\":718:725  _b - _c */\n      tag_61\n      swap2\n      swap1\n      tag_38\n      jump\t// in\n    tag_61:\n        /* \"contracts/ErrorTriageExercise.sol\":705:712  results */\n      dup2\n        /* \"contracts/ErrorTriageExercise.sol\":713:714  1 */\n      0x01\n        /* \"contracts/ErrorTriageExercise.sol\":705:715  results[1] */\n      dup2\n      mload\n      dup2\n      lt\n      tag_62\n      jumpi\n      tag_63\n      tag_41\n      jump\t// in\n    tag_63:\n    tag_62:\n      0x20\n      mul\n      0x20\n      add\n      add\n        /* \"contracts/ErrorTriageExercise.sol\":705:725  results[1] = _b - _c */\n      dup2\n      dup2\n      mstore\n      pop\n      pop\n        /* \"contracts/ErrorTriageExercise.sol\":678:787  if (_b > _c) {... */\n      jump(tag_64)\n    tag_60:\n        /* \"contracts/ErrorTriageExercise.sol\":774:776  _b */\n      dup5\n        /* \"contracts/ErrorTriageExercise.sol\":769:771  _c */\n      dup5\n        /* \"contracts/ErrorTriageExercise.sol\":769:776  _c - _b */\n      tag_65\n      swap2\n      swap1\n      tag_38\n      jump\t// in\n    tag_65:\n        /* \"contracts/ErrorTriageExercise.sol\":756:763  results */\n      dup2\n        /* \"contracts/ErrorTriageExercise.sol\":764:765  1 */\n      0x01\n        /* \"contracts/ErrorTriageExercise.sol\":756:766  results[1] */\n      dup2\n      mload\n      dup2\n      lt\n      tag_66\n      jumpi\n      tag_67\n      tag_41\n      jump\t// in\n    tag_67:\n    tag_66:\n      0x20\n      mul\n      0x20\n      add\n      add\n        /* \"contracts/ErrorTriageExercise.sol\":756:776  results[1] = _c - _b */\n      dup2\n      dup2\n      mstore\n      pop\n      pop\n        /* \"contracts/ErrorTriageExercise.sol\":678:787  if (_b > _c) {... */\n    tag_64:\n        /* \"contracts/ErrorTriageExercise.sol\":806:808  _d */\n      dup3\n        /* \"contracts/ErrorTriageExercise.sol\":801:803  _c */\n      dup5\n        /* \"contracts/ErrorTriageExercise.sol\":801:808  _c > _d */\n      gt\n        /* \"contracts/ErrorTriageExercise.sol\":797:906  if (_c > _d) {... */\n      iszero\n      tag_68\n      jumpi\n        /* \"contracts/ErrorTriageExercise.sol\":842:844  _d */\n      dup3\n        /* \"contracts/ErrorTriageExercise.sol\":837:839  _c */\n      dup5\n        /* \"contracts/ErrorTriageExercise.sol\":837:844  _c - _d */\n      tag_69\n      swap2\n      swap1\n      tag_38\n      jump\t// in\n    tag_69:\n        /* \"contracts/ErrorTriageExercise.sol\":824:831  results */\n      dup2\n        /* \"contracts/ErrorTriageExercise.sol\":832:833  2 */\n      0x02\n        /* \"contracts/ErrorTriageExercise.sol\":824:834  results[2] */\n      dup2\n      mload\n      dup2\n      lt\n      tag_70\n      jumpi\n      tag_71\n      tag_41\n      jump\t// in\n    tag_71:\n    tag_70:\n      0x20\n      mul\n      0x20\n      add\n      add\n        /* \"contracts/ErrorTriageExercise.sol\":824:844  results[2] = _c - _d */\n      dup2\n      dup2\n      mstore\n      pop\n      pop\n        /* \"contracts/ErrorTriageExercise.sol\":797:906  if (_c > _d) {... */\n      jump(tag_72)\n    tag_68:\n        /* \"contracts/ErrorTriageExercise.sol\":893:895  _c */\n      dup4\n        /* \"contracts/ErrorTriageExercise.sol\":888:890  _d */\n      dup4\n        /* \"contracts/ErrorTriageExercise.sol\":888:895  _d - _c */\n      tag_73\n      swap2\n      swap1\n      tag_38\n      jump\t// in\n    tag_73:\n        /* \"contracts/ErrorTriageExercise.sol\":875:882  results */\n      dup2\n        /* \"contracts/ErrorTriageExercise.sol\":883:884  2 */\n      0x02\n        /* \"contracts/ErrorTriageExercise.sol\":875:885  results[2] */\n      dup2\n      mload\n      dup2\n      lt\n      tag_74\n      jumpi\n      tag_75\n      tag_41\n      jump\t// in\n    tag_75:\n    tag_74:\n      0x20\n      mul\n      0x20\n      add\n      add\n        /* \"contracts/ErrorTriageExercise.sol\":875:895  results[2] = _d - _c */\n      dup2\n      dup2\n      mstore\n      pop\n      pop\n        /* \"contracts/ErrorTriageExercise.sol\":797:906  if (_c > _d) {... */\n    tag_72:\n        /* \"contracts/ErrorTriageExercise.sol\":923:930  results */\n      dup1\n        /* \"contracts/ErrorTriageExercise.sol\":916:930  return results */\n      swap2\n      pop\n      pop\n        /* \"contracts/ErrorTriageExercise.sol\":283:937  function diffWithNeighbor(... */\n      swap5\n      swap4\n      pop\n      pop\n      pop\n      pop\n      jump\t// out\n        /* \"contracts/ErrorTriageExercise.sol\":2165:2219  function resetArr() public {... */\n    tag_20:\n        /* \"contracts/ErrorTriageExercise.sol\":2209:2212  arr */\n      0x00\n      dup1\n        /* \"contracts/ErrorTriageExercise.sol\":2202:2212  delete arr */\n      tag_77\n      swap2\n      swap1\n      tag_78\n      jump\t// in\n    tag_77:\n        /* \"contracts/ErrorTriageExercise.sol\":2165:2219  function resetArr() public {... */\n      jump\t// out\n        /* \"contracts/ErrorTriageExercise.sol\":1999:2069  function addToArr(uint256 _num) public {... */\n    tag_24:\n        /* \"contracts/ErrorTriageExercise.sol\":2048:2051  arr */\n      0x00\n        /* \"contracts/ErrorTriageExercise.sol\":2057:2061  _num */\n      dup2\n        /* \"contracts/ErrorTriageExercise.sol\":2048:2062  arr.push(_num) */\n      swap1\n      dup1\n      0x01\n      dup2\n      sload\n      add\n      dup1\n      dup3\n      sstore\n      dup1\n      swap2\n      pop\n      pop\n      0x01\n      swap1\n      sub\n      swap1\n      0x00\n      mstore\n      keccak256(0x00, 0x20)\n      add\n      0x00\n      swap1\n      swap2\n      swap1\n      swap2\n      swap1\n      swap2\n      pop\n      sstore\n        /* \"contracts/ErrorTriageExercise.sol\":1999:2069  function addToArr(uint256 _num) public {... */\n      pop\n      jump\t// out\n        /* \"contracts/ErrorTriageExercise.sol\":1158:1453  function applyModifier(... */\n    tag_28:\n        /* \"contracts/ErrorTriageExercise.sol\":1251:1255  uint */\n      0x00\n        /* \"contracts/ErrorTriageExercise.sol\":1283:1284  0 */\n      dup1\n        /* \"contracts/ErrorTriageExercise.sol\":1271:1280  _modifier */\n      dup3\n        /* \"contracts/ErrorTriageExercise.sol\":1271:1284  _modifier > 0 */\n      sgt\n        /* \"contracts/ErrorTriageExercise.sol\":1271:1328  _modifier > 0 && type(uint).max - _base < uint(_modifier) */\n      dup1\n      iszero\n      tag_82\n      jumpi\n      pop\n        /* \"contracts/ErrorTriageExercise.sol\":1318:1327  _modifier */\n      dup2\n        /* \"contracts/ErrorTriageExercise.sol\":1305:1310  _base */\n      dup4\n        /* \"contracts/ErrorTriageExercise.sol\":1288:1302  type(uint).max */\n      0xffffffffffffffffffffffffffffffffffffffffffffffffffffffffffffffff\n        /* \"contracts/ErrorTriageExercise.sol\":1288:1310  type(uint).max - _base */\n      tag_83\n      swap2\n      swap1\n      tag_38\n      jump\t// in\n    tag_83:\n        /* \"contracts/ErrorTriageExercise.sol\":1288:1328  type(uint).max - _base < uint(_modifier) */\n      lt\n        /* \"contracts/ErrorTriageExercise.sol\":1271:1328  _modifier > 0 && type(uint).max - _base < uint(_modifier) */\n    tag_82:\n        /* \"contracts/ErrorTriageExercise.sol\":1267:1402  if (_modifier > 0 && type(uint).max - _base < uint(_modifier)) {... */\n      iszero\n      tag_84\n      jumpi\n        /* \"contracts/ErrorTriageExercise.sol\":1374:1379  _base */\n      dup3\n        /* \"contracts/ErrorTriageExercise.sol\":1381:1390  _modifier */\n      dup3\n        /* \"contracts/ErrorTriageExercise.sol\":1351:1391  ModifierCausesOverflow(_base, _modifier) */\n      mload(0x40)\n      0xe07c808900000000000000000000000000000000000000000000000000000000\n      dup2\n      mstore\n      0x04\n      add\n      tag_85\n      swap3\n      swap2\n      swap1\n      tag_86\n      jump\t// in\n    tag_85:\n      mload(0x40)\n      dup1\n      swap2\n      sub\n      swap1\n      revert\n        /* \"contracts/ErrorTriageExercise.sol\":1267:1402  if (_modifier > 0 && type(uint).max - _base < uint(_modifier)) {... */\n    tag_84:\n        /* \"contracts/ErrorTriageExercise.sol\":1436:1445  _modifier */\n      dup2\n        /* \"contracts/ErrorTriageExercise.sol\":1427:1432  _base */\n      dup4\n        /* \"contracts/ErrorTriageExercise.sol\":1423:1445  int(_base) + _modifier */\n      tag_87\n      swap2\n      swap1\n      tag_88\n      jump\t// in\n    tag_87:\n        /* \"contracts/ErrorTriageExercise.sol\":1411:1446  return uint(int(_base) + _modifier) */\n      swap1\n      pop\n        /* \"contracts/ErrorTriageExercise.sol\":1158:1453  function applyModifier(... */\n      swap3\n      swap2\n      pop\n      pop\n      jump\t// out\n        /* \"contracts/ErrorTriageExercise.sol\":2075:2159  function getArr() public view returns (uint256[] memory) {... */\n    tag_31:\n        /* \"contracts/ErrorTriageExercise.sol\":2114:2130  uint256[] memory */\n      0x60\n        /* \"contracts/ErrorTriageExercise.sol\":2149:2152  arr */\n      0x00\n        /* \"contracts/ErrorTriageExercise.sol\":2142:2152  return arr */\n      dup1\n      sload\n      dup1\n      0x20\n      mul\n      0x20\n      add\n      mload(0x40)\n      swap1\n      dup2\n      add\n      0x40\n      mstore\n      dup1\n      swap3\n      swap2\n      swap1\n      dup2\n      dup2\n      mstore\n      0x20\n      add\n      dup3\n      dup1\n      sload\n      dup1\n      iszero\n      tag_90\n      jumpi\n      0x20\n      mul\n      dup3\n      add\n      swap2\n      swap1\n      0x00\n      mstore\n      keccak256(0x00, 0x20)\n      swap1\n    tag_91:\n      dup2\n      sload\n      dup2\n      mstore\n      0x20\n      add\n      swap1\n      0x01\n      add\n      swap1\n      dup1\n      dup4\n      gt\n      tag_91\n      jumpi\n    tag_90:\n      pop\n      pop\n      pop\n      pop\n      pop\n      swap1\n      pop\n        /* \"contracts/ErrorTriageExercise.sol\":2075:2159  function getArr() public view returns (uint256[] memory) {... */\n      swap1\n      jump\t// out\n    tag_78:\n      pop\n      dup1\n      sload\n      0x00\n      dup3\n      sstore\n      swap1\n      0x00\n      mstore\n      keccak256(0x00, 0x20)\n      swap1\n      dup2\n      add\n      swap1\n      tag_93\n      swap2\n      swap1\n      tag_94\n      jump\t// in\n    tag_93:\n      pop\n      jump\t// out\n    tag_94:\n    tag_95:\n      dup1\n      dup3\n      gt\n      iszero\n      tag_96\n      jumpi\n      0x00\n      dup2\n      0x00\n      swap1\n      sstore\n      pop\n      0x01\n      add\n      jump(tag_95)\n    tag_96:\n      pop\n      swap1\n      jump\t// out\n        /* \"#utility.yul\":7:84   */\n    tag_97:\n        /* \"#utility.yul\":44:51   */\n      0x00\n        /* \"#utility.yul\":73:78   */\n      dup2\n        /* \"#utility.yul\":62:78   */\n      swap1\n      pop\n        /* \"#utility.yul\":7:84   */\n      swap2\n      swap1\n      pop\n      jump\t// out\n        /* \"#utility.yul\":90:208   */\n    tag_98:\n        /* \"#utility.yul\":177:201   */\n      tag_122\n        /* \"#utility.yul\":195:200   */\n      dup2\n        /* \"#utility.yul\":177:201   */\n      tag_97\n      jump\t// in\n    tag_122:\n        /* \"#utility.yul\":172:175   */\n      dup3\n        /* \"#utility.yul\":165:202   */\n      mstore\n        /* \"#utility.yul\":90:208   */\n      pop\n      pop\n      jump\t// out\n        /* \"#utility.yul\":214:436   */\n    tag_12:\n        /* \"#utility.yul\":307:311   */\n      0x00\n        /* \"#utility.yul\":345:347   */\n      0x20\n        /* \"#utility.yul\":334:343   */\n      dup3\n        /* \"#utility.yul\":330:348   */\n      add\n        /* \"#utility.yul\":322:348   */\n      swap1\n      pop\n        /* \"#utility.yul\":358:429   */\n      tag_124\n        /* \"#utility.yul\":426:427   */\n      0x00\n        /* \"#utility.yul\":415:424   */\n      dup4\n        /* \"#utility.yul\":411:428   */\n      add\n        /* \"#utility.yul\":402:408   */\n      dup5\n        /* \"#utility.yul\":358:429   */\n      tag_98\n      jump\t// in\n    tag_124:\n        /* \"#utility.yul\":214:436   */\n      swap3\n      swap2\n      pop\n      pop\n      jump\t// out\n        /* \"#utility.yul\":523:640   */\n    tag_100:\n        /* \"#utility.yul\":632:633   */\n      0x00\n        /* \"#utility.yul\":629:630   */\n      dup1\n        /* \"#utility.yul\":622:634   */\n      revert\n        /* \"#utility.yul\":769:891   */\n    tag_102:\n        /* \"#utility.yul\":842:866   */\n      tag_129\n        /* \"#utility.yul\":860:865   */\n      dup2\n        /* \"#utility.yul\":842:866   */\n      tag_97\n      jump\t// in\n    tag_129:\n        /* \"#utility.yul\":835:840   */\n      dup2\n        /* \"#utility.yul\":832:867   */\n      eq\n        /* \"#utility.yul\":822:885   */\n      tag_130\n      jumpi\n        /* \"#utility.yul\":881:882   */\n      0x00\n        /* \"#utility.yul\":878:879   */\n      dup1\n        /* \"#utility.yul\":871:883   */\n      revert\n        /* \"#utility.yul\":822:885   */\n    tag_130:\n        /* \"#utility.yul\":769:891   */\n      pop\n      jump\t// out\n        /* \"#utility.yul\":897:1036   */\n    tag_103:\n        /* \"#utility.yul\":943:948   */\n      0x00\n        /* \"#utility.yul\":981:987   */\n      dup2\n        /* \"#utility.yul\":968:988   */\n      calldataload\n        /* \"#utility.yul\":959:988   */\n      swap1\n      pop\n        /* \"#utility.yul\":997:1030   */\n      tag_132\n        /* \"#utility.yul\":1024:1029   */\n      dup2\n        /* \"#utility.yul\":997:1030   */\n      tag_102\n      jump\t// in\n    tag_132:\n        /* \"#utility.yul\":897:1036   */\n      swap3\n      swap2\n      pop\n      pop\n      jump\t// out\n        /* \"#utility.yul\":1042:1807   */\n    tag_15:\n        /* \"#utility.yul\":1128:1134   */\n      0x00\n        /* \"#utility.yul\":1136:1142   */\n      dup1\n        /* \"#utility.yul\":1144:1150   */\n      0x00\n        /* \"#utility.yul\":1152:1158   */\n      dup1\n        /* \"#utility.yul\":1201:1204   */\n      0x80\n        /* \"#utility.yul\":1189:1198   */\n      dup6\n        /* \"#utility.yul\":1180:1187   */\n      dup8\n        /* \"#utility.yul\":1176:1199   */\n      sub\n        /* \"#utility.yul\":1172:1205   */\n      slt\n        /* \"#utility.yul\":1169:1289   */\n      iszero\n      tag_134\n      jumpi\n        /* \"#utility.yul\":1208:1287   */\n      tag_135\n      tag_100\n      jump\t// in\n    tag_135:\n        /* \"#utility.yul\":1169:1289   */\n    tag_134:\n        /* \"#utility.yul\":1328:1329   */\n      0x00\n        /* \"#utility.yul\":1353:1406   */\n      tag_136\n        /* \"#utility.yul\":1398:1405   */\n      dup8\n        /* \"#utility.yul\":1389:1395   */\n      dup3\n        /* \"#utility.yul\":1378:1387   */\n      dup9\n        /* \"#utility.yul\":1374:1396   */\n      add\n        /* \"#utility.yul\":1353:1406   */\n      tag_103\n      jump\t// in\n    tag_136:\n        /* \"#utility.yul\":1343:1406   */\n      swap5\n      pop\n        /* \"#utility.yul\":1299:1416   */\n      pop\n        /* \"#utility.yul\":1455:1457   */\n      0x20\n        /* \"#utility.yul\":1481:1534   */\n      tag_137\n        /* \"#utility.yul\":1526:1533   */\n      dup8\n        /* \"#utility.yul\":1517:1523   */\n      dup3\n        /* \"#utility.yul\":1506:1515   */\n      dup9\n        /* \"#utility.yul\":1502:1524   */\n      add\n        /* \"#utility.yul\":1481:1534   */\n      tag_103\n      jump\t// in\n    tag_137:\n        /* \"#utility.yul\":1471:1534   */\n      swap4\n      pop\n        /* \"#utility.yul\":1426:1544   */\n      pop\n        /* \"#utility.yul\":1583:1585   */\n      0x40\n        /* \"#utility.yul\":1609:1662   */\n      tag_138\n        /* \"#utility.yul\":1654:1661   */\n      dup8\n        /* \"#utility.yul\":1645:1651   */\n      dup3\n        /* \"#utility.yul\":1634:1643   */\n      dup9\n        /* \"#utility.yul\":1630:1652   */\n      add\n        /* \"#utility.yul\":1609:1662   */\n      tag_103\n      jump\t// in\n    tag_138:\n        /* \"#utility.yul\":1599:1662   */\n      swap3\n      pop\n        /* \"#utility.yul\":1554:1672   */\n      pop\n        /* \"#utility.yul\":1711:1713   */\n      0x60\n        /* \"#utility.yul\":1737:1790   */\n      tag_139\n        /* \"#utility.yul\":1782:1789   */\n      dup8\n        /* \"#utility.yul\":1773:1779   */\n      dup3\n        /* \"#utility.yul\":1762:1771   */\n      dup9\n        /* \"#utility.yul\":1758:1780   */\n      add\n        /* \"#utility.yul\":1737:1790   */\n      tag_103\n      jump\t// in\n    tag_139:\n        /* \"#utility.yul\":1727:1790   */\n      swap2\n      pop\n        /* \"#utility.yul\":1682:1800   */\n      pop\n        /* \"#utility.yul\":1042:1807   */\n      swap3\n      swap6\n      swap2\n      swap5\n      pop\n      swap3\n      pop\n      jump\t// out\n        /* \"#utility.yul\":1813:1927   */\n    tag_104:\n        /* \"#utility.yul\":1880:1886   */\n      0x00\n        /* \"#utility.yul\":1914:1919   */\n      dup2\n        /* \"#utility.yul\":1908:1920   */\n      mload\n        /* \"#utility.yul\":1898:1920   */\n      swap1\n      pop\n        /* \"#utility.yul\":1813:1927   */\n      swap2\n      swap1\n      pop\n      jump\t// out\n        /* \"#utility.yul\":1933:2117   */\n    tag_105:\n        /* \"#utility.yul\":2032:2043   */\n      0x00\n        /* \"#utility.yul\":2066:2072   */\n      dup3\n        /* \"#utility.yul\":2061:2064   */\n      dup3\n        /* \"#utility.yul\":2054:2073   */\n      mstore\n        /* \"#utility.yul\":2106:2110   */\n      0x20\n        /* \"#utility.yul\":2101:2104   */\n      dup3\n        /* \"#utility.yul\":2097:2111   */\n      add\n        /* \"#utility.yul\":2082:2111   */\n      swap1\n      pop\n        /* \"#utility.yul\":1933:2117   */\n      swap3\n      swap2\n      pop\n      pop\n      jump\t// out\n        /* \"#utility.yul\":2123:2255   */\n    tag_106:\n        /* \"#utility.yul\":2190:2194   */\n      0x00\n        /* \"#utility.yul\":2213:2216   */\n      dup2\n        /* \"#utility.yul\":2205:2216   */\n      swap1\n      pop\n        /* \"#utility.yul\":2243:2247   */\n      0x20\n        /* \"#utility.yul\":2238:2241   */\n      dup3\n        /* \"#utility.yul\":2234:2248   */\n      add\n        /* \"#utility.yul\":2226:2248   */\n      swap1\n      pop\n        /* \"#utility.yul\":2123:2255   */\n      swap2\n      swap1\n      pop\n      jump\t// out\n        /* \"#utility.yul\":2261:2369   */\n    tag_107:\n        /* \"#utility.yul\":2338:2362   */\n      tag_144\n        /* \"#utility.yul\":2356:2361   */\n      dup2\n        /* \"#utility.yul\":2338:2362   */\n      tag_97\n      jump\t// in\n    tag_144:\n        /* \"#utility.yul\":2333:2336   */\n      dup3\n        /* \"#utility.yul\":2326:2363   */\n      mstore\n        /* \"#utility.yul\":2261:2369   */\n      pop\n      pop\n      jump\t// out\n        /* \"#utility.yul\":2375:2554   */\n    tag_108:\n        /* \"#utility.yul\":2444:2454   */\n      0x00\n        /* \"#utility.yul\":2465:2511   */\n      tag_146\n        /* \"#utility.yul\":2507:2510   */\n      dup4\n        /* \"#utility.yul\":2499:2505   */\n      dup4\n        /* \"#utility.yul\":2465:2511   */\n      tag_107\n      jump\t// in\n    tag_146:\n        /* \"#utility.yul\":2543:2547   */\n      0x20\n        /* \"#utility.yul\":2538:2541   */\n      dup4\n        /* \"#utility.yul\":2534:2548   */\n      add\n        /* \"#utility.yul\":2520:2548   */\n      swap1\n      pop\n        /* \"#utility.yul\":2375:2554   */\n      swap3\n      swap2\n      pop\n      pop\n      jump\t// out\n        /* \"#utility.yul\":2560:2673   */\n    tag_109:\n        /* \"#utility.yul\":2630:2634   */\n      0x00\n        /* \"#utility.yul\":2662:2666   */\n      0x20\n        /* \"#utility.yul\":2657:2660   */\n      dup3\n        /* \"#utility.yul\":2653:2667   */\n      add\n        /* \"#utility.yul\":2645:2667   */\n      swap1\n      pop\n        /* \"#utility.yul\":2560:2673   */\n      swap2\n      swap1\n      pop\n      jump\t// out\n        /* \"#utility.yul\":2709:3441   */\n    tag_110:\n        /* \"#utility.yul\":2828:2831   */\n      0x00\n        /* \"#utility.yul\":2857:2911   */\n      tag_149\n        /* \"#utility.yul\":2905:2910   */\n      dup3\n        /* \"#utility.yul\":2857:2911   */\n      tag_104\n      jump\t// in\n    tag_149:\n        /* \"#utility.yul\":2927:3013   */\n      tag_150\n        /* \"#utility.yul\":3006:3012   */\n      dup2\n        /* \"#utility.yul\":3001:3004   */\n      dup6\n        /* \"#utility.yul\":2927:3013   */\n      tag_105\n      jump\t// in\n    tag_150:\n        /* \"#utility.yul\":2920:3013   */\n      swap4\n      pop\n        /* \"#utility.yul\":3037:3093   */\n      tag_151\n        /* \"#utility.yul\":3087:3092   */\n      dup4\n        /* \"#utility.yul\":3037:3093   */\n      tag_106\n      jump\t// in\n    tag_151:\n        /* \"#utility.yul\":3116:3123   */\n      dup1\n        /* \"#utility.yul\":3147:3148   */\n      0x00\n        /* \"#utility.yul\":3132:3416   */\n    tag_152:\n        /* \"#utility.yul\":3157:3163   */\n      dup4\n        /* \"#utility.yul\":3154:3155   */\n      dup2\n        /* \"#utility.yul\":3151:3164   */\n      lt\n        /* \"#utility.yul\":3132:3416   */\n      iszero\n      tag_154\n      jumpi\n        /* \"#utility.yul\":3233:3239   */\n      dup2\n        /* \"#utility.yul\":3227:3240   */\n      mload\n        /* \"#utility.yul\":3260:3323   */\n      tag_155\n        /* \"#utility.yul\":3319:3322   */\n      dup9\n        /* \"#utility.yul\":3304:3317   */\n      dup3\n        /* \"#utility.yul\":3260:3323   */\n      tag_108\n      jump\t// in\n    tag_155:\n        /* \"#utility.yul\":3253:3323   */\n      swap8\n      pop\n        /* \"#utility.yul\":3346:3406   */\n      tag_156\n        /* \"#utility.yul\":3399:3405   */\n      dup4\n        /* \"#utility.yul\":3346:3406   */\n      tag_109\n      jump\t// in\n    tag_156:\n        /* \"#utility.yul\":3336:3406   */\n      swap3\n      pop\n        /* \"#utility.yul\":3192:3416   */\n      pop\n        /* \"#utility.yul\":3179:3180   */\n      0x01\n        /* \"#utility.yul\":3176:3177   */\n      dup2\n        /* \"#utility.yul\":3172:3181   */\n      add\n        /* \"#utility.yul\":3167:3181   */\n      swap1\n      pop\n        /* \"#utility.yul\":3132:3416   */\n      jump(tag_152)\n    tag_154:\n        /* \"#utility.yul\":3136:3150   */\n      pop\n        /* \"#utility.yul\":3432:3435   */\n      dup6\n        /* \"#utility.yul\":3425:3435   */\n      swap4\n      pop\n        /* \"#utility.yul\":2833:3441   */\n      pop\n      pop\n      pop\n        /* \"#utility.yul\":2709:3441   */\n      swap3\n      swap2\n      pop\n      pop\n      jump\t// out\n        /* \"#utility.yul\":3447:3820   */\n    tag_18:\n        /* \"#utility.yul\":3590:3594   */\n      0x00\n        /* \"#utility.yul\":3628:3630   */\n      0x20\n        /* \"#utility.yul\":3617:3626   */\n      dup3\n        /* \"#utility.yul\":3613:3631   */\n      add\n        /* \"#utility.yul\":3605:3631   */\n      swap1\n      pop\n        /* \"#utility.yul\":3677:3686   */\n      dup2\n        /* \"#utility.yul\":3671:3675   */\n      dup2\n        /* \"#utility.yul\":3667:3687   */\n      sub\n        /* \"#utility.yul\":3663:3664   */\n      0x00\n        /* \"#utility.yul\":3652:3661   */\n      dup4\n        /* \"#utility.yul\":3648:3665   */\n      add\n        /* \"#utility.yul\":3641:3688   */\n      mstore\n        /* \"#utility.yul\":3705:3813   */\n      tag_158\n        /* \"#utility.yul\":3808:3812   */\n      dup2\n        /* \"#utility.yul\":3799:3805   */\n      dup5\n        /* \"#utility.yul\":3705:3813   */\n      tag_110\n      jump\t// in\n    tag_158:\n        /* \"#utility.yul\":3697:3813   */\n      swap1\n      pop\n        /* \"#utility.yul\":3447:3820   */\n      swap3\n      swap2\n      pop\n      pop\n      jump\t// out\n        /* \"#utility.yul\":3826:4155   */\n    tag_23:\n        /* \"#utility.yul\":3885:3891   */\n      0x00\n        /* \"#utility.yul\":3934:3936   */\n      0x20\n        /* \"#utility.yul\":3922:3931   */\n      dup3\n        /* \"#utility.yul\":3913:3920   */\n      dup5\n        /* \"#utility.yul\":3909:3932   */\n      sub\n        /* \"#utility.yul\":3905:3937   */\n      slt\n        /* \"#utility.yul\":3902:4021   */\n      iszero\n      tag_160\n      jumpi\n        /* \"#utility.yul\":3940:4019   */\n      tag_161\n      tag_100\n      jump\t// in\n    tag_161:\n        /* \"#utility.yul\":3902:4021   */\n    tag_160:\n        /* \"#utility.yul\":4060:4061   */\n      0x00\n        /* \"#utility.yul\":4085:4138   */\n      tag_162\n        /* \"#utility.yul\":4130:4137   */\n      dup5\n        /* \"#utility.yul\":4121:4127   */\n      dup3\n        /* \"#utility.yul\":4110:4119   */\n      dup6\n        /* \"#utility.yul\":4106:4128   */\n      add\n        /* \"#utility.yul\":4085:4138   */\n      tag_103\n      jump\t// in\n    tag_162:\n        /* \"#utility.yul\":4075:4138   */\n      swap2\n      pop\n        /* \"#utility.yul\":4031:4148   */\n      pop\n        /* \"#utility.yul\":3826:4155   */\n      swap3\n      swap2\n      pop\n      pop\n      jump\t// out\n        /* \"#utility.yul\":4161:4237   */\n    tag_111:\n        /* \"#utility.yul\":4197:4204   */\n      0x00\n        /* \"#utility.yul\":4226:4231   */\n      dup2\n        /* \"#utility.yul\":4215:4231   */\n      swap1\n      pop\n        /* \"#utility.yul\":4161:4237   */\n      swap2\n      swap1\n      pop\n      jump\t// out\n        /* \"#utility.yul\":4243:4363   */\n    tag_112:\n        /* \"#utility.yul\":4315:4338   */\n      tag_165\n        /* \"#utility.yul\":4332:4337   */\n      dup2\n        /* \"#utility.yul\":4315:4338   */\n      tag_111\n      jump\t// in\n    tag_165:\n        /* \"#utility.yul\":4308:4313   */\n      dup2\n        /* \"#utility.yul\":4305:4339   */\n      eq\n        /* \"#utility.yul\":4295:4357   */\n      tag_166\n      jumpi\n        /* \"#utility.yul\":4353:4354   */\n      0x00\n        /* \"#utility.yul\":4350:4351   */\n      dup1\n        /* \"#utility.yul\":4343:4355   */\n      revert\n        /* \"#utility.yul\":4295:4357   */\n    tag_166:\n        /* \"#utility.yul\":4243:4363   */\n      pop\n      jump\t// out\n        /* \"#utility.yul\":4369:4506   */\n    tag_113:\n        /* \"#utility.yul\":4414:4419   */\n      0x00\n        /* \"#utility.yul\":4452:4458   */\n      dup2\n        /* \"#utility.yul\":4439:4459   */\n      calldataload\n        /* \"#utility.yul\":4430:4459   */\n      swap1\n      pop\n        /* \"#utility.yul\":4468:4500   */\n      tag_168\n        /* \"#utility.yul\":4494:4499   */\n      dup2\n        /* \"#utility.yul\":4468:4500   */\n      tag_112\n      jump\t// in\n    tag_168:\n        /* \"#utility.yul\":4369:4506   */\n      swap3\n      swap2\n      pop\n      pop\n      jump\t// out\n        /* \"#utility.yul\":4512:4984   */\n    tag_27:\n        /* \"#utility.yul\":4579:4585   */\n      0x00\n        /* \"#utility.yul\":4587:4593   */\n      dup1\n        /* \"#utility.yul\":4636:4638   */\n      0x40\n        /* \"#utility.yul\":4624:4633   */\n      dup4\n        /* \"#utility.yul\":4615:4622   */\n      dup6\n        /* \"#utility.yul\":4611:4634   */\n      sub\n        /* \"#utility.yul\":4607:4639   */\n      slt\n        /* \"#utility.yul\":4604:4723   */\n      iszero\n      tag_170\n      jumpi\n        /* \"#utility.yul\":4642:4721   */\n      tag_171\n      tag_100\n      jump\t// in\n    tag_171:\n        /* \"#utility.yul\":4604:4723   */\n    tag_170:\n        /* \"#utility.yul\":4762:4763   */\n      0x00\n        /* \"#utility.yul\":4787:4840   */\n      tag_172\n        /* \"#utility.yul\":4832:4839   */\n      dup6\n        /* \"#utility.yul\":4823:4829   */\n      dup3\n        /* \"#utility.yul\":4812:4821   */\n      dup7\n        /* \"#utility.yul\":4808:4830   */\n      add\n        /* \"#utility.yul\":4787:4840   */\n      tag_103\n      jump\t// in\n    tag_172:\n        /* \"#utility.yul\":4777:4840   */\n      swap3\n      pop\n        /* \"#utility.yul\":4733:4850   */\n      pop\n        /* \"#utility.yul\":4889:4891   */\n      0x20\n        /* \"#utility.yul\":4915:4967   */\n      tag_173\n        /* \"#utility.yul\":4959:4966   */\n      dup6\n        /* \"#utility.yul\":4950:4956   */\n      dup3\n        /* \"#utility.yul\":4939:4948   */\n      dup7\n        /* \"#utility.yul\":4935:4957   */\n      add\n        /* \"#utility.yul\":4915:4967   */\n      tag_113\n      jump\t// in\n    tag_173:\n        /* \"#utility.yul\":4905:4967   */\n      swap2\n      pop\n        /* \"#utility.yul\":4860:4977   */\n      pop\n        /* \"#utility.yul\":4512:4984   */\n      swap3\n      pop\n      swap3\n      swap1\n      pop\n      jump\t// out\n        /* \"#utility.yul\":4990:5159   */\n    tag_114:\n        /* \"#utility.yul\":5074:5085   */\n      0x00\n        /* \"#utility.yul\":5108:5114   */\n      dup3\n        /* \"#utility.yul\":5103:5106   */\n      dup3\n        /* \"#utility.yul\":5096:5115   */\n      mstore\n        /* \"#utility.yul\":5148:5152   */\n      0x20\n        /* \"#utility.yul\":5143:5146   */\n      dup3\n        /* \"#utility.yul\":5139:5153   */\n      add\n        /* \"#utility.yul\":5124:5153   */\n      swap1\n      pop\n        /* \"#utility.yul\":4990:5159   */\n      swap3\n      swap2\n      pop\n      pop\n      jump\t// out\n        /* \"#utility.yul\":5165:5329   */\n    tag_115:\n        /* \"#utility.yul\":5305:5321   */\n      0x417272617920697320656d707479000000000000000000000000000000000000\n        /* \"#utility.yul\":5301:5302   */\n      0x00\n        /* \"#utility.yul\":5293:5299   */\n      dup3\n        /* \"#utility.yul\":5289:5303   */\n      add\n        /* \"#utility.yul\":5282:5322   */\n      mstore\n        /* \"#utility.yul\":5165:5329   */\n      pop\n      jump\t// out\n        /* \"#utility.yul\":5335:5701   */\n    tag_116:\n        /* \"#utility.yul\":5477:5480   */\n      0x00\n        /* \"#utility.yul\":5498:5565   */\n      tag_177\n        /* \"#utility.yul\":5562:5564   */\n      0x0e\n        /* \"#utility.yul\":5557:5560   */\n      dup4\n        /* \"#utility.yul\":5498:5565   */\n      tag_114\n      jump\t// in\n    tag_177:\n        /* \"#utility.yul\":5491:5565   */\n      swap2\n      pop\n        /* \"#utility.yul\":5574:5667   */\n      tag_178\n        /* \"#utility.yul\":5663:5666   */\n      dup3\n        /* \"#utility.yul\":5574:5667   */\n      tag_115\n      jump\t// in\n    tag_178:\n        /* \"#utility.yul\":5692:5694   */\n      0x20\n        /* \"#utility.yul\":5687:5690   */\n      dup3\n        /* \"#utility.yul\":5683:5695   */\n      add\n        /* \"#utility.yul\":5676:5695   */\n      swap1\n      pop\n        /* \"#utility.yul\":5335:5701   */\n      swap2\n      swap1\n      pop\n      jump\t// out\n        /* \"#utility.yul\":5707:6126   */\n    tag_36:\n        /* \"#utility.yul\":5873:5877   */\n      0x00\n        /* \"#utility.yul\":5911:5913   */\n      0x20\n        /* \"#utility.yul\":5900:5909   */\n      dup3\n        /* \"#utility.yul\":5896:5914   */\n      add\n        /* \"#utility.yul\":5888:5914   */\n      swap1\n      pop\n        /* \"#utility.yul\":5960:5969   */\n      dup2\n        /* \"#utility.yul\":5954:5958   */\n      dup2\n        /* \"#utility.yul\":5950:5970   */\n      sub\n        /* \"#utility.yul\":5946:5947   */\n      0x00\n        /* \"#utility.yul\":5935:5944   */\n      dup4\n        /* \"#utility.yul\":5931:5948   */\n      add\n        /* \"#utility.yul\":5924:5971   */\n      mstore\n        /* \"#utility.yul\":5988:6119   */\n      tag_180\n        /* \"#utility.yul\":6114:6118   */\n      dup2\n        /* \"#utility.yul\":5988:6119   */\n      tag_116\n      jump\t// in\n    tag_180:\n        /* \"#utility.yul\":5980:6119   */\n      swap1\n      pop\n        /* \"#utility.yul\":5707:6126   */\n      swap2\n      swap1\n      pop\n      jump\t// out\n        /* \"#utility.yul\":6132:6312   */\n    tag_117:\n        /* \"#utility.yul\":6180:6257   */\n      0x4e487b7100000000000000000000000000000000000000000000000000000000\n        /* \"#utility.yul\":6177:6178   */\n      0x00\n        /* \"#utility.yul\":6170:6258   */\n      mstore\n        /* \"#utility.yul\":6277:6281   */\n      0x11\n        /* \"#utility.yul\":6274:6275   */\n      0x04\n        /* \"#utility.yul\":6267:6282   */\n      mstore\n        /* \"#utility.yul\":6301:6305   */\n      0x24\n        /* \"#utility.yul\":6298:6299   */\n      0x00\n        /* \"#utility.yul\":6291:6306   */\n      revert\n        /* \"#utility.yul\":6318:6512   */\n    tag_38:\n        /* \"#utility.yul\":6358:6362   */\n      0x00\n        /* \"#utility.yul\":6378:6398   */\n      tag_183\n        /* \"#utility.yul\":6396:6397   */\n      dup3\n        /* \"#utility.yul\":6378:6398   */\n      tag_97\n      jump\t// in\n    tag_183:\n        /* \"#utility.yul\":6373:6398   */\n      swap2\n      pop\n        /* \"#utility.yul\":6412:6432   */\n      tag_184\n        /* \"#utility.yul\":6430:6431   */\n      dup4\n        /* \"#utility.yul\":6412:6432   */\n      tag_97\n      jump\t// in\n    tag_184:\n        /* \"#utility.yul\":6407:6432   */\n      swap3\n      pop\n        /* \"#utility.yul\":6456:6457   */\n      dup3\n        /* \"#utility.yul\":6453:6454   */\n      dup3\n        /* \"#utility.yul\":6449:6458   */\n      sub\n        /* \"#utility.yul\":6441:6458   */\n      swap1\n      pop\n        /* \"#utility.yul\":6480:6481   */\n      dup2\n        /* \"#utility.yul\":6474:6478   */\n      dup2\n        /* \"#utility.yul\":6471:6482   */\n      gt\n        /* \"#utility.yul\":6468:6505   */\n      iszero\n      tag_185\n      jumpi\n        /* \"#utility.yul\":6485:6503   */\n      tag_186\n      tag_117\n      jump\t// in\n    tag_186:\n        /* \"#utility.yul\":6468:6505   */\n    tag_185:\n        /* \"#utility.yul\":6318:6512   */\n      swap3\n      swap2\n      pop\n      pop\n      jump\t// out\n        /* \"#utility.yul\":6518:6698   */\n    tag_41:\n        /* \"#utility.yul\":6566:6643   */\n      0x4e487b7100000000000000000000000000000000000000000000000000000000\n        /* \"#utility.yul\":6563:6564   */\n      0x00\n        /* \"#utility.yul\":6556:6644   */\n      mstore\n        /* \"#utility.yul\":6663:6667   */\n      0x32\n        /* \"#utility.yul\":6660:6661   */\n      0x04\n        /* \"#utility.yul\":6653:6668   */\n      mstore\n        /* \"#utility.yul\":6687:6691   */\n      0x24\n        /* \"#utility.yul\":6684:6685   */\n      0x00\n        /* \"#utility.yul\":6677:6692   */\n      revert\n        /* \"#utility.yul\":6704:6884   */\n    tag_45:\n        /* \"#utility.yul\":6752:6829   */\n      0x4e487b7100000000000000000000000000000000000000000000000000000000\n        /* \"#utility.yul\":6749:6750   */\n      0x00\n        /* \"#utility.yul\":6742:6830   */\n      mstore\n        /* \"#utility.yul\":6849:6853   */\n      0x31\n        /* \"#utility.yul\":6846:6847   */\n      0x04\n        /* \"#utility.yul\":6839:6854   */\n      mstore\n        /* \"#utility.yul\":6873:6877   */\n      0x24\n        /* \"#utility.yul\":6870:6871   */\n      0x00\n        /* \"#utility.yul\":6863:6878   */\n      revert\n        /* \"#utility.yul\":6890:7070   */\n    tag_50:\n        /* \"#utility.yul\":6938:7015   */\n      0x4e487b7100000000000000000000000000000000000000000000000000000000\n        /* \"#utility.yul\":6935:6936   */\n      0x00\n        /* \"#utility.yul\":6928:7016   */\n      mstore\n        /* \"#utility.yul\":7035:7039   */\n      0x41\n        /* \"#utility.yul\":7032:7033   */\n      0x04\n        /* \"#utility.yul\":7025:7040   */\n      mstore\n        /* \"#utility.yul\":7059:7063   */\n      0x24\n        /* \"#utility.yul\":7056:7057   */\n      0x00\n        /* \"#utility.yul\":7049:7064   */\n      revert\n        /* \"#utility.yul\":7076:7191   */\n    tag_118:\n        /* \"#utility.yul\":7161:7184   */\n      tag_191\n        /* \"#utility.yul\":7178:7183   */\n      dup2\n        /* \"#utility.yul\":7161:7184   */\n      tag_111\n      jump\t// in\n    tag_191:\n        /* \"#utility.yul\":7156:7159   */\n      dup3\n        /* \"#utility.yul\":7149:7185   */\n      mstore\n        /* \"#utility.yul\":7076:7191   */\n      pop\n      pop\n      jump\t// out\n        /* \"#utility.yul\":7197:7525   */\n    tag_86:\n        /* \"#utility.yul\":7316:7320   */\n      0x00\n        /* \"#utility.yul\":7354:7356   */\n      0x40\n        /* \"#utility.yul\":7343:7352   */\n      dup3\n        /* \"#utility.yul\":7339:7357   */\n      add\n        /* \"#utility.yul\":7331:7357   */\n      swap1\n      pop\n        /* \"#utility.yul\":7367:7438   */\n      tag_193\n        /* \"#utility.yul\":7435:7436   */\n      0x00\n        /* \"#utility.yul\":7424:7433   */\n      dup4\n        /* \"#utility.yul\":7420:7437   */\n      add\n        /* \"#utility.yul\":7411:7417   */\n      dup6\n        /* \"#utility.yul\":7367:7438   */\n      tag_98\n      jump\t// in\n    tag_193:\n        /* \"#utility.yul\":7448:7518   */\n      tag_194\n        /* \"#utility.yul\":7514:7516   */\n      0x20\n        /* \"#utility.yul\":7503:7512   */\n      dup4\n        /* \"#utility.yul\":7499:7517   */\n      add\n        /* \"#utility.yul\":7490:7496   */\n      dup5\n        /* \"#utility.yul\":7448:7518   */\n      tag_118\n      jump\t// in\n    tag_194:\n        /* \"#utility.yul\":7197:7525   */\n      swap4\n      swap3\n      pop\n      pop\n      pop\n      jump\t// out\n        /* \"#utility.yul\":7531:7906   */\n    tag_88:\n        /* \"#utility.yul\":7570:7573   */\n      0x00\n        /* \"#utility.yul\":7589:7608   */\n      tag_196\n        /* \"#utility.yul\":7606:7607   */\n      dup3\n        /* \"#utility.yul\":7589:7608   */\n      tag_111\n      jump\t// in\n    tag_196:\n        /* \"#utility.yul\":7584:7608   */\n      swap2\n      pop\n        /* \"#utility.yul\":7622:7641   */\n      tag_197\n        /* \"#utility.yul\":7639:7640   */\n      dup4\n        /* \"#utility.yul\":7622:7641   */\n      tag_111\n      jump\t// in\n    tag_197:\n        /* \"#utility.yul\":7617:7641   */\n      swap3\n      pop\n        /* \"#utility.yul\":7664:7665   */\n      dup3\n        /* \"#utility.yul\":7661:7662   */\n      dup3\n        /* \"#utility.yul\":7657:7666   */\n      add\n        /* \"#utility.yul\":7650:7666   */\n      swap1\n      pop\n        /* \"#utility.yul\":7862:7863   */\n      dup3\n        /* \"#utility.yul\":7857:7860   */\n      dup2\n        /* \"#utility.yul\":7853:7864   */\n      slt\n        /* \"#utility.yul\":7846:7865   */\n      iszero\n        /* \"#utility.yul\":7842:7843   */\n      0x00\n        /* \"#utility.yul\":7839:7840   */\n      dup4\n        /* \"#utility.yul\":7835:7844   */\n      slt\n        /* \"#utility.yul\":7831:7866   */\n      and\n        /* \"#utility.yul\":7814:7815   */\n      dup4\n        /* \"#utility.yul\":7809:7812   */\n      dup3\n        /* \"#utility.yul\":7805:7816   */\n      slt\n        /* \"#utility.yul\":7800:7801   */\n      0x00\n        /* \"#utility.yul\":7797:7798   */\n      dup5\n        /* \"#utility.yul\":7793:7802   */\n      slt\n        /* \"#utility.yul\":7786:7803   */\n      iszero\n        /* \"#utility.yul\":7782:7817   */\n      and\n        /* \"#utility.yul\":7766:7876   */\n      or\n        /* \"#utility.yul\":7763:7899   */\n      iszero\n      tag_198\n      jumpi\n        /* \"#utility.yul\":7879:7897   */\n      tag_199\n      tag_117\n      jump\t// in\n    tag_199:\n        /* \"#utility.yul\":7763:7899   */\n    tag_198:\n        /* \"#utility.yul\":7531:7906   */\n      swap3\n      swap2\n      pop\n      pop\n      jump\t// out\n\n    auxdata: 0xa2646970667358221220a2fc0b3b45b6e62bf2b24f1f4a891d610b113ecb4c672e3e51b0e3e0757db82c64736f6c63430008110033\n}\n",
				"bytecode": {
					"linkReferences": {},
					"object": "608060405234801561001057600080fd5b5061093a806100206000396000f3fe608060405234801561001057600080fd5b50600436106100625760003560e01c80631abe2ac214610067578063294323141461008557806364529db5146100b5578063e1819ff9146100bf578063f74e51ea146100db578063fb8cbced1461010b575b600080fd5b61006f610129565b60405161007c91906104e5565b60405180910390f35b61009f600480360381019061009a9190610531565b6101da565b6040516100ac9190610656565b60405180910390f35b6100bd610368565b005b6100d960048036038101906100d49190610678565b610377565b005b6100f560048036038101906100f091906106db565b6103a3565b60405161010291906104e5565b60405180910390f35b610113610436565b6040516101209190610656565b60405180910390f35b60008060008054905011610172576040517f08c379a000000000000000000000000000000000000000000000000000000000815260040161016990610778565b60405180910390fd5b6000600160008054905061018691906107c7565b9050600080828154811061019d5761019c6107fb565b5b9060005260206000200154905060008054806101bc576101bb61082a565b5b60019003818190600052602060002001600090559055809250505090565b60606000600367ffffffffffffffff8111156101f9576101f8610859565b5b6040519080825280602002602001820160405280156102275781602001602082028036833780820191505090505b5090508486111561026357848661023e91906107c7565b81600081518110610252576102516107fb565b5b602002602001018181525050610290565b858561026f91906107c7565b81600081518110610283576102826107fb565b5b6020026020010181815250505b838511156102c95783856102a491906107c7565b816001815181106102b8576102b76107fb565b5b6020026020010181815250506102f6565b84846102d591906107c7565b816001815181106102e9576102e86107fb565b5b6020026020010181815250505b8284111561032f57828461030a91906107c7565b8160028151811061031e5761031d6107fb565b5b60200260200101818152505061035c565b838361033b91906107c7565b8160028151811061034f5761034e6107fb565b5b6020026020010181815250505b80915050949350505050565b600080610375919061048e565b565b600081908060018154018082558091505060019003906000526020600020016000909190919091505550565b600080821380156103de575081837fffffffffffffffffffffffffffffffffffffffffffffffffffffffffffffffff6103dc91906107c7565b105b156104225782826040517fe07c8089000000000000000000000000000000000000000000000000000000008152600401610419929190610897565b60405180910390fd5b818361042e91906108c0565b905092915050565b6060600080548060200260200160405190810160405280929190818152602001828054801561048457602002820191906000526020600020905b815481526020019060010190808311610470575b5050505050905090565b50805460008255906000526020600020908101906104ac91906104af565b50565b5b808211156104c85760008160009055506001016104b0565b5090565b6000819050919050565b6104df816104cc565b82525050565b60006020820190506104fa60008301846104d6565b92915050565b600080fd5b61050e816104cc565b811461051957600080fd5b50565b60008135905061052b81610505565b92915050565b6000806000806080858703121561054b5761054a610500565b5b60006105598782880161051c565b945050602061056a8782880161051c565b935050604061057b8782880161051c565b925050606061058c8782880161051c565b91505092959194509250565b600081519050919050565b600082825260208201905092915050565b6000819050602082019050919050565b6105cd816104cc565b82525050565b60006105df83836105c4565b60208301905092915050565b6000602082019050919050565b600061060382610598565b61060d81856105a3565b9350610618836105b4565b8060005b8381101561064957815161063088826105d3565b975061063b836105eb565b92505060018101905061061c565b5085935050505092915050565b6000602082019050818103600083015261067081846105f8565b905092915050565b60006020828403121561068e5761068d610500565b5b600061069c8482850161051c565b91505092915050565b6000819050919050565b6106b8816106a5565b81146106c357600080fd5b50565b6000813590506106d5816106af565b92915050565b600080604083850312156106f2576106f1610500565b5b60006107008582860161051c565b9250506020610711858286016106c6565b9150509250929050565b600082825260208201905092915050565b7f417272617920697320656d707479000000000000000000000000000000000000600082015250565b6000610762600e8361071b565b915061076d8261072c565b602082019050919050565b6000602082019050818103600083015261079181610755565b9050919050565b7f4e487b7100000000000000000000000000000000000000000000000000000000600052601160045260246000fd5b60006107d2826104cc565b91506107dd836104cc565b92508282039050818111156107f5576107f4610798565b5b92915050565b7f4e487b7100000000000000000000000000000000000000000000000000000000600052603260045260246000fd5b7f4e487b7100000000000000000000000000000000000000000000000000000000600052603160045260246000fd5b7f4e487b7100000000000000000000000000000000000000000000000000000000600052604160045260246000fd5b610891816106a5565b82525050565b60006040820190506108ac60008301856104d6565b6108b96020830184610888565b9392505050565b60006108cb826106a5565b91506108d6836106a5565b9250828201905082811215600083121683821260008412151617156108fe576108fd610798565b5b9291505056fea2646970667358221220a2fc0b3b45b6e62bf2b24f1f4a891d610b113ecb4c672e3e51b0e3e0757db82c64736f6c63430008110033",
					"opcodes": "PUSH1 0x80 PUSH1 0x40 MSTORE CALLVALUE DUP1 ISZERO PUSH2 0x10 JUMPI PUSH1 0x0 DUP1 REVERT JUMPDEST POP PUSH2 0x93A DUP1 PUSH2 0x20 PUSH1 0x0 CODECOPY PUSH1 0x0 RETURN INVALID PUSH1 0x80 PUSH1 0x40 MSTORE CALLVALUE DUP1 ISZERO PUSH2 0x10 JUMPI PUSH1 0x0 DUP1 REVERT JUMPDEST POP PUSH1 0x4 CALLDATASIZE LT PUSH2 0x62 JUMPI PUSH1 0x0 CALLDATALOAD PUSH1 0xE0 SHR DUP1 PUSH4 0x1ABE2AC2 EQ PUSH2 0x67 JUMPI DUP1 PUSH4 0x29432314 EQ PUSH2 0x85 JUMPI DUP1 PUSH4 0x64529DB5 EQ PUSH2 0xB5 JUMPI DUP1 PUSH4 0xE1819FF9 EQ PUSH2 0xBF JUMPI DUP1 PUSH4 0xF74E51EA EQ PUSH2 0xDB JUMPI DUP1 PUSH4 0xFB8CBCED EQ PUSH2 0x10B JUMPI JUMPDEST PUSH1 0x0 DUP1 REVERT JUMPDEST PUSH2 0x6F PUSH2 0x129 JUMP JUMPDEST PUSH1 0x40 MLOAD PUSH2 0x7C SWAP2 SWAP1 PUSH2 0x4E5 JUMP JUMPDEST PUSH1 0x40 MLOAD DUP1 SWAP2 SUB SWAP1 RETURN JUMPDEST PUSH2 0x9F PUSH1 0x4 DUP1 CALLDATASIZE SUB DUP2 ADD SWAP1 PUSH2 0x9A SWAP2 SWAP1 PUSH2 0x531 JUMP JUMPDEST PUSH2 0x1DA JUMP JUMPDEST PUSH1 0x40 MLOAD PUSH2 0xAC SWAP2 SWAP1 PUSH2 0x656 JUMP JUMPDEST PUSH1 0x40 MLOAD DUP1 SWAP2 SUB SWAP1 RETURN JUMPDEST PUSH2 0xBD PUSH2 0x368 JUMP JUMPDEST STOP JUMPDEST PUSH2 0xD9 PUSH1 0x4 DUP1 CALLDATASIZE SUB DUP2 ADD SWAP1 PUSH2 0xD4 SWAP2 SWAP1 PUSH2 0x678 JUMP JUMPDEST PUSH2 0x377 JUMP JUMPDEST STOP JUMPDEST PUSH2 0xF5 PUSH1 0x4 DUP1 CALLDATASIZE SUB DUP2 ADD SWAP1 PUSH2 0xF0 SWAP2 SWAP1 PUSH2 0x6DB JUMP JUMPDEST PUSH2 0x3A3 JUMP JUMPDEST PUSH1 0x40 MLOAD PUSH2 0x102 SWAP2 SWAP1 PUSH2 0x4E5 JUMP JUMPDEST PUSH1 0x40 MLOAD DUP1 SWAP2 SUB SWAP1 RETURN JUMPDEST PUSH2 0x113 PUSH2 0x436 JUMP JUMPDEST PUSH1 0x40 MLOAD PUSH2 0x120 SWAP2 SWAP1 PUSH2 0x656 JUMP JUMPDEST PUSH1 0x40 MLOAD DUP1 SWAP2 SUB SWAP1 RETURN JUMPDEST PUSH1 0x0 DUP1 PUSH1 0x0 DUP1 SLOAD SWAP1 POP GT PUSH2 0x172 JUMPI PUSH1 0x40 MLOAD PUSH32 0x8C379A000000000000000000000000000000000000000000000000000000000 DUP2 MSTORE PUSH1 0x4 ADD PUSH2 0x169 SWAP1 PUSH2 0x778 JUMP JUMPDEST PUSH1 0x40 MLOAD DUP1 SWAP2 SUB SWAP1 REVERT JUMPDEST PUSH1 0x0 PUSH1 0x1 PUSH1 0x0 DUP1 SLOAD SWAP1 POP PUSH2 0x186 SWAP2 SWAP1 PUSH2 0x7C7 JUMP JUMPDEST SWAP1 POP PUSH1 0x0 DUP1 DUP3 DUP2 SLOAD DUP2 LT PUSH2 0x19D JUMPI PUSH2 0x19C PUSH2 0x7FB JUMP JUMPDEST JUMPDEST SWAP1 PUSH1 0x0 MSTORE PUSH1 0x20 PUSH1 0x0 KECCAK256 ADD SLOAD SWAP1 POP PUSH1 0x0 DUP1 SLOAD DUP1 PUSH2 0x1BC JUMPI PUSH2 0x1BB PUSH2 0x82A JUMP JUMPDEST JUMPDEST PUSH1 0x1 SWAP1 SUB DUP2 DUP2 SWAP1 PUSH1 0x0 MSTORE PUSH1 0x20 PUSH1 0x0 KECCAK256 ADD PUSH1 0x0 SWAP1 SSTORE SWAP1 SSTORE DUP1 SWAP3 POP POP POP SWAP1 JUMP JUMPDEST PUSH1 0x60 PUSH1 0x0 PUSH1 0x3 PUSH8 0xFFFFFFFFFFFFFFFF DUP2 GT ISZERO PUSH2 0x1F9 JUMPI PUSH2 0x1F8 PUSH2 0x859 JUMP JUMPDEST JUMPDEST PUSH1 0x40 MLOAD SWAP1 DUP1 DUP3 MSTORE DUP1 PUSH1 0x20 MUL PUSH1 0x20 ADD DUP3 ADD PUSH1 0x40 MSTORE DUP1 ISZERO PUSH2 0x227 JUMPI DUP2 PUSH1 0x20 ADD PUSH1 0x20 DUP3 MUL DUP1 CALLDATASIZE DUP4 CALLDATACOPY DUP1 DUP3 ADD SWAP2 POP POP SWAP1 POP JUMPDEST POP SWAP1 POP DUP5 DUP7 GT ISZERO PUSH2 0x263 JUMPI DUP5 DUP7 PUSH2 0x23E SWAP2 SWAP1 PUSH2 0x7C7 JUMP JUMPDEST DUP2 PUSH1 0x0 DUP2 MLOAD DUP2 LT PUSH2 0x252 JUMPI PUSH2 0x251 PUSH2 0x7FB JUMP JUMPDEST JUMPDEST PUSH1 0x20 MUL PUSH1 0x20 ADD ADD DUP2 DUP2 MSTORE POP POP PUSH2 0x290 JUMP JUMPDEST DUP6 DUP6 PUSH2 0x26F SWAP2 SWAP1 PUSH2 0x7C7 JUMP JUMPDEST DUP2 PUSH1 0x0 DUP2 MLOAD DUP2 LT PUSH2 0x283 JUMPI PUSH2 0x282 PUSH2 0x7FB JUMP JUMPDEST JUMPDEST PUSH1 0x20 MUL PUSH1 0x20 ADD ADD DUP2 DUP2 MSTORE POP POP JUMPDEST DUP4 DUP6 GT ISZERO PUSH2 0x2C9 JUMPI DUP4 DUP6 PUSH2 0x2A4 SWAP2 SWAP1 PUSH2 0x7C7 JUMP JUMPDEST DUP2 PUSH1 0x1 DUP2 MLOAD DUP2 LT PUSH2 0x2B8 JUMPI PUSH2 0x2B7 PUSH2 0x7FB JUMP JUMPDEST JUMPDEST PUSH1 0x20 MUL PUSH1 0x20 ADD ADD DUP2 DUP2 MSTORE POP POP PUSH2 0x2F6 JUMP JUMPDEST DUP5 DUP5 PUSH2 0x2D5 SWAP2 SWAP1 PUSH2 0x7C7 JUMP JUMPDEST DUP2 PUSH1 0x1 DUP2 MLOAD DUP2 LT PUSH2 0x2E9 JUMPI PUSH2 0x2E8 PUSH2 0x7FB JUMP JUMPDEST JUMPDEST PUSH1 0x20 MUL PUSH1 0x20 ADD ADD DUP2 DUP2 MSTORE POP POP JUMPDEST DUP3 DUP5 GT ISZERO PUSH2 0x32F JUMPI DUP3 DUP5 PUSH2 0x30A SWAP2 SWAP1 PUSH2 0x7C7 JUMP JUMPDEST DUP2 PUSH1 0x2 DUP2 MLOAD DUP2 LT PUSH2 0x31E JUMPI PUSH2 0x31D PUSH2 0x7FB JUMP JUMPDEST JUMPDEST PUSH1 0x20 MUL PUSH1 0x20 ADD ADD DUP2 DUP2 MSTORE POP POP PUSH2 0x35C JUMP JUMPDEST DUP4 DUP4 PUSH2 0x33B SWAP2 SWAP1 PUSH2 0x7C7 JUMP JUMPDEST DUP2 PUSH1 0x2 DUP2 MLOAD DUP2 LT PUSH2 0x34F JUMPI PUSH2 0x34E PUSH2 0x7FB JUMP JUMPDEST JUMPDEST PUSH1 0x20 MUL PUSH1 0x20 ADD ADD DUP2 DUP2 MSTORE POP POP JUMPDEST DUP1 SWAP2 POP POP SWAP5 SWAP4 POP POP POP POP JUMP JUMPDEST PUSH1 0x0 DUP1 PUSH2 0x375 SWAP2 SWAP1 PUSH2 0x48E JUMP JUMPDEST JUMP JUMPDEST PUSH1 0x0 DUP2 SWAP1 DUP1 PUSH1 0x1 DUP2 SLOAD ADD DUP1 DUP3 SSTORE DUP1 SWAP2 POP POP PUSH1 0x1 SWAP1 SUB SWAP1 PUSH1 0x0 MSTORE PUSH1 0x20 PUSH1 0x0 KECCAK256 ADD PUSH1 0x0 SWAP1 SWAP2 SWAP1 SWAP2 SWAP1 SWAP2 POP SSTORE POP JUMP JUMPDEST PUSH1 0x0 DUP1 DUP3 SGT DUP1 ISZERO PUSH2 0x3DE JUMPI POP DUP2 DUP4 PUSH32 0xFFFFFFFFFFFFFFFFFFFFFFFFFFFFFFFFFFFFFFFFFFFFFFFFFFFFFFFFFFFFFFFF PUSH2 0x3DC SWAP2 SWAP1 PUSH2 0x7C7 JUMP JUMPDEST LT JUMPDEST ISZERO PUSH2 0x422 JUMPI DUP3 DUP3 PUSH1 0x40 MLOAD PUSH32 0xE07C808900000000000000000000000000000000000000000000000000000000 DUP2 MSTORE PUSH1 0x4 ADD PUSH2 0x419 SWAP3 SWAP2 SWAP1 PUSH2 0x897 JUMP JUMPDEST PUSH1 0x40 MLOAD DUP1 SWAP2 SUB SWAP1 REVERT JUMPDEST DUP2 DUP4 PUSH2 0x42E SWAP2 SWAP1 PUSH2 0x8C0 JUMP JUMPDEST SWAP1 POP SWAP3 SWAP2 POP POP JUMP JUMPDEST PUSH1 0x60 PUSH1 0x0 DUP1 SLOAD DUP1 PUSH1 0x20 MUL PUSH1 0x20 ADD PUSH1 0x40 MLOAD SWAP1 DUP2 ADD PUSH1 0x40 MSTORE DUP1 SWAP3 SWAP2 SWAP1 DUP2 DUP2 MSTORE PUSH1 0x20 ADD DUP3 DUP1 SLOAD DUP1 ISZERO PUSH2 0x484 JUMPI PUSH1 0x20 MUL DUP3 ADD SWAP2 SWAP1 PUSH1 0x0 MSTORE PUSH1 0x20 PUSH1 0x0 KECCAK256 SWAP1 JUMPDEST DUP2 SLOAD DUP2 MSTORE PUSH1 0x20 ADD SWAP1 PUSH1 0x1 ADD SWAP1 DUP1 DUP4 GT PUSH2 0x470 JUMPI JUMPDEST POP POP POP POP POP SWAP1 POP SWAP1 JUMP JUMPDEST POP DUP1 SLOAD PUSH1 0x0 DUP3 SSTORE SWAP1 PUSH1 0x0 MSTORE PUSH1 0x20 PUSH1 0x0 KECCAK256 SWAP1 DUP2 ADD SWAP1 PUSH2 0x4AC SWAP2 SWAP1 PUSH2 0x4AF JUMP JUMPDEST POP JUMP JUMPDEST JUMPDEST DUP1 DUP3 GT ISZERO PUSH2 0x4C8 JUMPI PUSH1 0x0 DUP2 PUSH1 0x0 SWAP1 SSTORE POP PUSH1 0x1 ADD PUSH2 0x4B0 JUMP JUMPDEST POP SWAP1 JUMP JUMPDEST PUSH1 0x0 DUP2 SWAP1 POP SWAP2 SWAP1 POP JUMP JUMPDEST PUSH2 0x4DF DUP2 PUSH2 0x4CC JUMP JUMPDEST DUP3 MSTORE POP POP JUMP JUMPDEST PUSH1 0x0 PUSH1 0x20 DUP3 ADD SWAP1 POP PUSH2 0x4FA PUSH1 0x0 DUP4 ADD DUP5 PUSH2 0x4D6 JUMP JUMPDEST SWAP3 SWAP2 POP POP JUMP JUMPDEST PUSH1 0x0 DUP1 REVERT JUMPDEST PUSH2 0x50E DUP2 PUSH2 0x4CC JUMP JUMPDEST DUP2 EQ PUSH2 0x519 JUMPI PUSH1 0x0 DUP1 REVERT JUMPDEST POP JUMP JUMPDEST PUSH1 0x0 DUP2 CALLDATALOAD SWAP1 POP PUSH2 0x52B DUP2 PUSH2 0x505 JUMP JUMPDEST SWAP3 SWAP2 POP POP JUMP JUMPDEST PUSH1 0x0 DUP1 PUSH1 0x0 DUP1 PUSH1 0x80 DUP6 DUP8 SUB SLT ISZERO PUSH2 0x54B JUMPI PUSH2 0x54A PUSH2 0x500 JUMP JUMPDEST JUMPDEST PUSH1 0x0 PUSH2 0x559 DUP8 DUP3 DUP9 ADD PUSH2 0x51C JUMP JUMPDEST SWAP5 POP POP PUSH1 0x20 PUSH2 0x56A DUP8 DUP3 DUP9 ADD PUSH2 0x51C JUMP JUMPDEST SWAP4 POP POP PUSH1 0x40 PUSH2 0x57B DUP8 DUP3 DUP9 ADD PUSH2 0x51C JUMP JUMPDEST SWAP3 POP POP PUSH1 0x60 PUSH2 0x58C DUP8 DUP3 DUP9 ADD PUSH2 0x51C JUMP JUMPDEST SWAP2 POP POP SWAP3 SWAP6 SWAP2 SWAP5 POP SWAP3 POP JUMP JUMPDEST PUSH1 0x0 DUP2 MLOAD SWAP1 POP SWAP2 SWAP1 POP JUMP JUMPDEST PUSH1 0x0 DUP3 DUP3 MSTORE PUSH1 0x20 DUP3 ADD SWAP1 POP SWAP3 SWAP2 POP POP JUMP JUMPDEST PUSH1 0x0 DUP2 SWAP1 POP PUSH1 0x20 DUP3 ADD SWAP1 POP SWAP2 SWAP1 POP JUMP JUMPDEST PUSH2 0x5CD DUP2 PUSH2 0x4CC JUMP JUMPDEST DUP3 MSTORE POP POP JUMP JUMPDEST PUSH1 0x0 PUSH2 0x5DF DUP4 DUP4 PUSH2 0x5C4 JUMP JUMPDEST PUSH1 0x20 DUP4 ADD SWAP1 POP SWAP3 SWAP2 POP POP JUMP JUMPDEST PUSH1 0x0 PUSH1 0x20 DUP3 ADD SWAP1 POP SWAP2 SWAP1 POP JUMP JUMPDEST PUSH1 0x0 PUSH2 0x603 DUP3 PUSH2 0x598 JUMP JUMPDEST PUSH2 0x60D DUP2 DUP6 PUSH2 0x5A3 JUMP JUMPDEST SWAP4 POP PUSH2 0x618 DUP4 PUSH2 0x5B4 JUMP JUMPDEST DUP1 PUSH1 0x0 JUMPDEST DUP4 DUP2 LT ISZERO PUSH2 0x649 JUMPI DUP2 MLOAD PUSH2 0x630 DUP9 DUP3 PUSH2 0x5D3 JUMP JUMPDEST SWAP8 POP PUSH2 0x63B DUP4 PUSH2 0x5EB JUMP JUMPDEST SWAP3 POP POP PUSH1 0x1 DUP2 ADD SWAP1 POP PUSH2 0x61C JUMP JUMPDEST POP DUP6 SWAP4 POP POP POP POP SWAP3 SWAP2 POP POP JUMP JUMPDEST PUSH1 0x0 PUSH1 0x20 DUP3 ADD SWAP1 POP DUP2 DUP2 SUB PUSH1 0x0 DUP4 ADD MSTORE PUSH2 0x670 DUP2 DUP5 PUSH2 0x5F8 JUMP JUMPDEST SWAP1 POP SWAP3 SWAP2 POP POP JUMP JUMPDEST PUSH1 0x0 PUSH1 0x20 DUP3 DUP5 SUB SLT ISZERO PUSH2 0x68E JUMPI PUSH2 0x68D PUSH2 0x500 JUMP JUMPDEST JUMPDEST PUSH1 0x0 PUSH2 0x69C DUP5 DUP3 DUP6 ADD PUSH2 0x51C JUMP JUMPDEST SWAP2 POP POP SWAP3 SWAP2 POP POP JUMP JUMPDEST PUSH1 0x0 DUP2 SWAP1 POP SWAP2 SWAP1 POP JUMP JUMPDEST PUSH2 0x6B8 DUP2 PUSH2 0x6A5 JUMP JUMPDEST DUP2 EQ PUSH2 0x6C3 JUMPI PUSH1 0x0 DUP1 REVERT JUMPDEST POP JUMP JUMPDEST PUSH1 0x0 DUP2 CALLDATALOAD SWAP1 POP PUSH2 0x6D5 DUP2 PUSH2 0x6AF JUMP JUMPDEST SWAP3 SWAP2 POP POP JUMP JUMPDEST PUSH1 0x0 DUP1 PUSH1 0x40 DUP4 DUP6 SUB SLT ISZERO PUSH2 0x6F2 JUMPI PUSH2 0x6F1 PUSH2 0x500 JUMP JUMPDEST JUMPDEST PUSH1 0x0 PUSH2 0x700 DUP6 DUP3 DUP7 ADD PUSH2 0x51C JUMP JUMPDEST SWAP3 POP POP PUSH1 0x20 PUSH2 0x711 DUP6 DUP3 DUP7 ADD PUSH2 0x6C6 JUMP JUMPDEST SWAP2 POP POP SWAP3 POP SWAP3 SWAP1 POP JUMP JUMPDEST PUSH1 0x0 DUP3 DUP3 MSTORE PUSH1 0x20 DUP3 ADD SWAP1 POP SWAP3 SWAP2 POP POP JUMP JUMPDEST PUSH32 0x417272617920697320656D707479000000000000000000000000000000000000 PUSH1 0x0 DUP3 ADD MSTORE POP JUMP JUMPDEST PUSH1 0x0 PUSH2 0x762 PUSH1 0xE DUP4 PUSH2 0x71B JUMP JUMPDEST SWAP2 POP PUSH2 0x76D DUP3 PUSH2 0x72C JUMP JUMPDEST PUSH1 0x20 DUP3 ADD SWAP1 POP SWAP2 SWAP1 POP JUMP JUMPDEST PUSH1 0x0 PUSH1 0x20 DUP3 ADD SWAP1 POP DUP2 DUP2 SUB PUSH1 0x0 DUP4 ADD MSTORE PUSH2 0x791 DUP2 PUSH2 0x755 JUMP JUMPDEST SWAP1 POP SWAP2 SWAP1 POP JUMP JUMPDEST PUSH32 0x4E487B7100000000000000000000000000000000000000000000000000000000 PUSH1 0x0 MSTORE PUSH1 0x11 PUSH1 0x4 MSTORE PUSH1 0x24 PUSH1 0x0 REVERT JUMPDEST PUSH1 0x0 PUSH2 0x7D2 DUP3 PUSH2 0x4CC JUMP JUMPDEST SWAP2 POP PUSH2 0x7DD DUP4 PUSH2 0x4CC JUMP JUMPDEST SWAP3 POP DUP3 DUP3 SUB SWAP1 POP DUP2 DUP2 GT ISZERO PUSH2 0x7F5 JUMPI PUSH2 0x7F4 PUSH2 0x798 JUMP JUMPDEST JUMPDEST SWAP3 SWAP2 POP POP JUMP JUMPDEST PUSH32 0x4E487B7100000000000000000000000000000000000000000000000000000000 PUSH1 0x0 MSTORE PUSH1 0x32 PUSH1 0x4 MSTORE PUSH1 0x24 PUSH1 0x0 REVERT JUMPDEST PUSH32 0x4E487B7100000000000000000000000000000000000000000000000000000000 PUSH1 0x0 MSTORE PUSH1 0x31 PUSH1 0x4 MSTORE PUSH1 0x24 PUSH1 0x0 REVERT JUMPDEST PUSH32 0x4E487B7100000000000000000000000000000000000000000000000000000000 PUSH1 0x0 MSTORE PUSH1 0x41 PUSH1 0x4 MSTORE PUSH1 0x24 PUSH1 0x0 REVERT JUMPDEST PUSH2 0x891 DUP2 PUSH2 0x6A5 JUMP JUMPDEST DUP3 MSTORE POP POP JUMP JUMPDEST PUSH1 0x0 PUSH1 0x40 DUP3 ADD SWAP1 POP PUSH2 0x8AC PUSH1 0x0 DUP4 ADD DUP6 PUSH2 0x4D6 JUMP JUMPDEST PUSH2 0x8B9 PUSH1 0x20 DUP4 ADD DUP5 PUSH2 0x888 JUMP JUMPDEST SWAP4 SWAP3 POP POP POP JUMP JUMPDEST PUSH1 0x0 PUSH2 0x8CB DUP3 PUSH2 0x6A5 JUMP JUMPDEST SWAP2 POP PUSH2 0x8D6 DUP4 PUSH2 0x6A5 JUMP JUMPDEST SWAP3 POP DUP3 DUP3 ADD SWAP1 POP DUP3 DUP2 SLT ISZERO PUSH1 0x0 DUP4 SLT AND DUP4 DUP3 SLT PUSH1 0x0 DUP5 SLT ISZERO AND OR ISZERO PUSH2 0x8FE JUMPI PUSH2 0x8FD PUSH2 0x798 JUMP JUMPDEST JUMPDEST SWAP3 SWAP2 POP POP JUMP INVALID LOG2 PUSH5 0x6970667358 0x22 SLT KECCAK256 LOG2 0xFC SIGNEXTEND EXTCODESIZE GASLIMIT 0xB6 0xE6 0x2B CALLCODE 0xB2 0x4F 0x1F 0x4A DUP10 SAR PUSH2 0xB11 RETURNDATACOPY 0xCB 0x4C PUSH8 0x2E3E51B0E3E0757D 0xB8 0x2C PUSH5 0x736F6C6343 STOP ADDMOD GT STOP CALLER "
				},
				"gasEstimates": {
					"creation": {
						"codeDepositCost": "472400",
						"executionCost": "505",
						"totalCost": "472905"
					},
					"external": {
						"addToArr(uint256)": "46873",
						"applyModifier(uint256,int256)": "infinite",
						"diffWithNeighbor(uint256,uint256,uint256,uint256)": "infinite",
						"getArr()": "infinite",
						"popWithReturn()": "infinite",
						"resetArr()": "infinite"
					}
				},
				"methodIdentifiers": {
					"addToArr(uint256)": "e1819ff9",
					"applyModifier(uint256,int256)": "f74e51ea",
					"diffWithNeighbor(uint256,uint256,uint256,uint256)": "29432314",
					"getArr()": "fb8cbced",
					"popWithReturn()": "1abe2ac2",
					"resetArr()": "64529db5"
				}
			},
			"storageLayout": {
				"storage": [
					{
						"astId": 150,
						"contract": "contracts/ErrorTriageExercise.sol:ErrorTriageExercise",
						"label": "arr",
						"offset": 0,
						"slot": "0",
						"type": "t_array(t_uint256)dyn_storage"
					}
				],
				"types": {
					"t_array(t_uint256)dyn_storage": {
						"base": "t_uint256",
						"encoding": "dynamic_array",
						"label": "uint256[]",
						"numberOfBytes": "32"
					},
					"t_uint256": {
						"encoding": "inplace",
						"label": "uint256",
						"numberOfBytes": "32"
					}
				}
			},
			"userdoc": {
				"errors": {
					"ModifierCausesOverflow(uint256,int256)": [
						{
							"notice": "Changes the _base by the value of _modifier.  Base is always > 1000.  Modifiers can be between positive and negative 100;"
						}
					]
				},
				"kind": "user",
				"methods": {
					"diffWithNeighbor(uint256,uint256,uint256,uint256)": {
						"notice": "Finds the difference between each uint with its neighbor (a to b, b to c, etc.) and returns a uint array with the absolute integer difference of each pairing."
					}
				},
				"version": 1
			}
		}
	}
}