{
  "address": "0xE9b3A1b1731115cc35d06C40caA375111b9bF80B",
  "abi": [
    {
      "inputs": [
        {
          "internalType": "uint256",
          "name": "_unlockTime",
          "type": "uint256"
        }
      ],
      "stateMutability": "payable",
      "type": "constructor"
    },
    {
      "anonymous": false,
      "inputs": [
        {
          "indexed": false,
          "internalType": "uint256",
          "name": "amount",
          "type": "uint256"
        },
        {
          "indexed": false,
          "internalType": "uint256",
          "name": "when",
          "type": "uint256"
        }
      ],
      "name": "Deposit",
      "type": "event"
    },
    {
      "anonymous": false,
      "inputs": [
        {
          "indexed": false,
          "internalType": "uint256",
          "name": "amount",
          "type": "uint256"
        },
        {
          "indexed": false,
          "internalType": "uint256",
          "name": "when",
          "type": "uint256"
        }
      ],
      "name": "Withdrawal",
      "type": "event"
    },
    {
      "inputs": [],
      "name": "deposit",
      "outputs": [],
      "stateMutability": "payable",
      "type": "function"
    },
    {
      "inputs": [],
      "name": "owner",
      "outputs": [
        {
          "internalType": "address payable",
          "name": "",
          "type": "address"
        }
      ],
      "stateMutability": "view",
      "type": "function"
    },
    {
      "inputs": [],
      "name": "unlockTime",
      "outputs": [
        {
          "internalType": "uint256",
          "name": "",
          "type": "uint256"
        }
      ],
      "stateMutability": "view",
      "type": "function"
    },
    {
      "inputs": [],
      "name": "withdraw",
      "outputs": [],
      "stateMutability": "nonpayable",
      "type": "function"
    }
  ],
  "transactionHash": "0x84469d685d633d79186f9664c2926765eb40e3d098ebe81d8275d773250114c3",
  "args": [
    1700358456
  ],
  "numDeployments": 1,
  "solcInputHash": "78e5129e2e9d6a80d50e9bcb0f849091",
  "bytecode": "0x60806040526040516109ae3803806109ae833981810160405281019061002591906100f0565b804210610067576040517f08c379a000000000000000000000000000000000000000000000000000000000815260040161005e906101a0565b60405180910390fd5b8060008190555033600160006101000a81548173ffffffffffffffffffffffffffffffffffffffff021916908373ffffffffffffffffffffffffffffffffffffffff160217905550506101c0565b600080fd5b6000819050919050565b6100cd816100ba565b81146100d857600080fd5b50565b6000815190506100ea816100c4565b92915050565b600060208284031215610106576101056100b5565b5b6000610114848285016100db565b91505092915050565b600082825260208201905092915050565b7f556e6c6f636b2074696d652073686f756c6420626520696e207468652066757460008201527f7572650000000000000000000000000000000000000000000000000000000000602082015250565b600061018a60238361011d565b91506101958261012e565b604082019050919050565b600060208201905081810360008301526101b98161017d565b9050919050565b6107df806101cf6000396000f3fe60806040526004361061003f5760003560e01c8063251c1aa3146100445780633ccfd60b1461006f5780638da5cb5b14610086578063d0e30db0146100b1575b600080fd5b34801561005057600080fd5b506100596100bb565b604051610066919061049d565b60405180910390f35b34801561007b57600080fd5b506100846100c1565b005b34801561009257600080fd5b5061009b61025f565b6040516100a891906104f9565b60405180910390f35b6100b9610285565b005b60005481565b6100e66040518060600160405280602b815260200161077f602b913960005442610395565b60005442101561012b576040517f08c379a000000000000000000000000000000000000000000000000000000000815260040161012290610571565b60405180910390fd5b600160009054906101000a900473ffffffffffffffffffffffffffffffffffffffff1673ffffffffffffffffffffffffffffffffffffffff163373ffffffffffffffffffffffffffffffffffffffff16146101bb576040517f08c379a00000000000000000000000000000000000000000000000000000000081526004016101b2906105dd565b60405180910390fd5b7fbf2ed60bd5b5965d685680c01195c9514e4382e28e3a5a2d2d5244bf59411b9347426040516101ec9291906105fd565b60405180910390a1600160009054906101000a900473ffffffffffffffffffffffffffffffffffffffff1673ffffffffffffffffffffffffffffffffffffffff166108fc479081150290604051600060405180830381858888f1935050505015801561025c573d6000803e3d6000fd5b50565b600160009054906101000a900473ffffffffffffffffffffffffffffffffffffffff1681565b6000544211156102ca576040517f08c379a00000000000000000000000000000000000000000000000000000000081526004016102c190610672565b60405180910390fd5b600160009054906101000a900473ffffffffffffffffffffffffffffffffffffffff1673ffffffffffffffffffffffffffffffffffffffff163373ffffffffffffffffffffffffffffffffffffffff161461035a576040517f08c379a0000000000000000000000000000000000000000000000000000000008152600401610351906105dd565b60405180910390fd5b7fa3af609bf46297028ce551832669030f9effef2b02606d02cbbcc40fe6b47c55344260405161038b9291906105fd565b60405180910390a1565b61042f8383836040516024016103ad93929190610711565b6040516020818303038152906040527fca47c4eb000000000000000000000000000000000000000000000000000000007bffffffffffffffffffffffffffffffffffffffffffffffffffffffff19166020820180517bffffffffffffffffffffffffffffffffffffffffffffffffffffffff8381831617835250505050610434565b505050565b61044b8161044361044e61046f565b63ffffffff16565b50565b60006a636f6e736f6c652e6c6f679050600080835160208501845afa505050565b61047a819050919050565b61048261074f565b565b6000819050919050565b61049781610484565b82525050565b60006020820190506104b2600083018461048e565b92915050565b600073ffffffffffffffffffffffffffffffffffffffff82169050919050565b60006104e3826104b8565b9050919050565b6104f3816104d8565b82525050565b600060208201905061050e60008301846104ea565b92915050565b600082825260208201905092915050565b7f596f752063616e27742077697468647261772079657400000000000000000000600082015250565b600061055b601683610514565b915061056682610525565b602082019050919050565b6000602082019050818103600083015261058a8161054e565b9050919050565b7f596f75206172656e277420746865206f776e6572000000000000000000000000600082015250565b60006105c7601483610514565b91506105d282610591565b602082019050919050565b600060208201905081810360008301526105f6816105ba565b9050919050565b6000604082019050610612600083018561048e565b61061f602083018461048e565b9392505050565b7f596f752063616e2774206465706f73697420616674657220756e6c6f636b0000600082015250565b600061065c601e83610514565b915061066782610626565b602082019050919050565b6000602082019050818103600083015261068b8161064f565b9050919050565b600081519050919050565b60005b838110156106bb5780820151818401526020810190506106a0565b60008484015250505050565b6000601f19601f8301169050919050565b60006106e382610692565b6106ed8185610514565b93506106fd81856020860161069d565b610706816106c7565b840191505092915050565b6000606082019050818103600083015261072b81866106d8565b905061073a602083018561048e565b610747604083018461048e565b949350505050565b7f4e487b7100000000000000000000000000000000000000000000000000000000600052605160045260246000fdfe556e6c6f636b2074696d6520697320256f20616e6420626c6f636b2074696d657374616d7020697320256fa2646970667358221220c6835bad419286b6fd1350f235cf18e70e89a229f367bd84ce9894f611b5688764736f6c63430008120033",
  "devdoc": {
    "kind": "dev",
    "methods": {},
    "version": 1
  },
  "userdoc": {
    "kind": "user",
    "methods": {},
    "version": 1
  },
  "storageLayout": {
    "storage": [
      {
        "astId": 4,
        "contract": "contracts/Lock.sol:Lock",
        "label": "unlockTime",
        "offset": 0,
        "slot": "0",
        "type": "t_uint256"
      },
      {
        "astId": 6,
        "contract": "contracts/Lock.sol:Lock",
        "label": "owner",
        "offset": 0,
        "slot": "1",
        "type": "t_address_payable"
      }
    ],
    "types": {
      "t_address_payable": {
        "encoding": "inplace",
        "label": "address payable",
        "numberOfBytes": "20"
      },
      "t_uint256": {
        "encoding": "inplace",
        "label": "uint256",
        "numberOfBytes": "32"
      }
    }
  }
}